:020000040800F2
:100000004008002001010008A9010008AB01000818
:10001000AF010008B3010008B701000800000000AC
:10002000000000000000000000000000BD0100080A
:10003000BB01000800000000BF010008C10100086A
:100040001B0100081B0100081B0100081B01000820
:100050001B0100081B0100081B0100081B01000810
:100060001B0100081B0100081B0100081B01000800
:100070001B0100081B0100081B0100081B010008F0
:100080001B0100081B0100081B0100081B010008E0
:100090001B0100081B0100081B0100081B010008D0
:1000A0001B0100081B0100081B0100081B010008C0
:1000B0001B0100081B0100081B0100081B010008B0
:1000C0001B0100081B0100081B0100081B010008A0
:1000D0001B010008070500082B0400081B0100088D
:1000E000290500081B0100081B010008DFF80CD0DF
:1000F00005F00CFE004800472501000840080020DC
:100100000648804706480047FEE7FEE7FEE7FEE7B1
:10011000FEE7FEE7FEE7FEE7FEE7FEE7C95B000855
:10012000ED0000084FF4A06003F056FF00F0B0F8B7
:1001300000F0E7F800F08CF900F0C9F903F052FD87
:1001400000F00CF900F04AF900200D49087000F0A9
:1001500076FA00F0E2FA00F095FC00F0C7FE01F03C
:100160002BFB08A005F0E4FD0AA005F0E1FD05E089
:1001700003F0C9FB01F06EFB03F009FFF8E7000094
:100180002C04002048656C6C6F2073746D33322E24
:100190002000000044656C6574655F416C6C5F44D1
:1001A000617461200D0A2000704700BFFEE700BFA8
:1001B000FEE700BFFEE700BFFEE7704770477047ED
:1001C00022480068401C21490860084600686428ED
:1001D0000AD91F480078401C1D49087001201D499C
:1001E00008700020194908601B480068401C1A4923
:1001F000086008460068B0F5C87F02D9002017499A
:10020000086017480078401C1549087008460078B7
:10021000C72807DD13480078401C124908700020E9
:100220000F4908701048007860B910480078401CE9
:100230000E490870084600780F2806DD01200A499B
:10024000087002E00020094908707047040000208F
:100250000800002001000020880000208400002009
:100260008C0000208D000020AF000020AE00002098
:1002700010B5002807DA0A07140E344A00F00F03FD
:100280001B1FD45403E00A07130E314A135410BD48
:1002900010B504F049F9012004F0CDF900BF212088
:1002A00004F087F90028FAD04FF48011002004F000
:1002B000C5F9002004F0EBF9002004F0F1F94FF447
:1002C000806004F0F6F9012004F0C4F900BF392081
:1002D00004F06FF90028FAD0022004F0CAF900BF38
:1002E00004F0D0F90828FBD10121084604F093FA64
:1002F0000121184804F09BF80121C80304F097F885
:1003000010BD10B514480068C821B0FBF1F4B4F179
:10031000807F01D3012011E024F07F40401E4FF088
:10032000E02148610F214FF0FF30FFF7A1FF0020CF
:100330004FF0E021886107200861002008B100BF6C
:10034000FEE70021481EFFF793FF10BD18ED00E007
:1003500000E400E000023000C400002000B585B0D9
:100360000121042004F057FA0121480404F060FA46
:100370000420ADF8100018208DF8130003208DF82C
:10038000120004A92F4803F083FF0820ADF81000E5
:1003900004208DF8130004A92A4803F079FF4FF4D4
:1003A000165000900020ADF80400ADF80600ADF83E
:1003B0000800ADF80C000C20ADF80A006946224890
:1003C00005F0E5F9012240F225511F4805F077FAC2
:1003D00001211D4805F067FA05B000BD08B52620CB
:1003E0008DF8000001208DF8010000208DF802003A
:1003F00001208DF80300684603F0F3FD08BD70B5D9
:1004000004460D46E1B2104805F0BAFA00BF0E48A6
:10041000008810F0800FFAD0204670BD10B5044659
:1004200021460AA005F084FC10BD10B540F225510C
:10043000054805F029FB012803D12021024805F0D9
:100440001AFB10BD00080140004400402563000075
:1004500000B585B0012144F2040004F0DCF94FF44A
:100460000070ADF8100018208DF8130003208DF8EF
:10047000120004A92A4803F00BFF4FF48060ADF886
:10048000100004208DF8130004A9254803F000FF94
:100490004FF4165000900020ADF80400ADF80600AF
:1004A000ADF80800ADF80C000C20ADF80A00694664
:1004B0001C4805F06CF9012240F22551194805F05D
:1004C000FEF90121174805F0EEF905B000BD08B5A9
:1004D00025208DF8000001208DF801008DF8020024
:1004E0008DF80300684603F07CFD08BD10B5044696
:1004F00021460C4805F044FA00BF0A48008810F075
:10050000800FFAD010BD10B540F22551054805F016
:10051000BBFA012803D12021024805F0ACFA10BD36
:10052000000801400038014070B5002569480068A6
:1005300010F4004F00D001254FF08040848C002043
:100540004FF080418884002D45D0B4F5967F5FDD63
:100550006148007818285BDD6048006840085F4902
:1005600008600846006820F07F4008600846006880
:100570005B49084229D0594800685A4909688842AD
:1005800012D159480078401C574908700846007835
:10059000FA2801DDFA2008705048006853490860C5
:1005A0000120534908700DE000204F4908704B4866
:1005B00000684C490860494800684C4908600120BF
:1005C0004B49087000204B490860002043490860EF
:1005D000414908701CE0152C01DBD22C07DD0020FE
:1005E0003D4908703D4908603F49087010E03B48AC
:1005F0000068400039490860552C04DD0846006851
:1006000040F00100086034480078401C324908700E
:100610004FF4004003F0D3FD70BD08B50121042064
:1006200004F0F9F84FF40040ADF8000048208DF8D0
:10063000030069462748083803F02AFE08BD10B5B4
:1006400086B00024FFF7E9FF0121084604F0E3F833
:100650000F21002003F030FF4FF4004004900020F1
:100660008DF8140010208DF8150001208DF816006B
:1006700004A803F02DFD28208DF80C0000208DF833
:100680000D008DF80E0001208DF80F0003A803F077
:10069000A8FC0121084604F0CBF817480068174968
:1006A000B0FBF1F0401E84B24FF6FF70ADF80400CD
:1006B000ADF800400020ADF80600ADF80200694634
:1006C0004FF0804004F0E6F90121880704F03EFD78
:1006D00006B010BD08080140240000201C000020C6
:1006E000F0FFFF0020000020260000201000002066
:1006F0002500002088000020C4000020A086010002
:1007000005E0022100BF4A1E92B21100FBD1020097
:10071000A0F1010398B2F4D1704708B50121082077
:1007200004F079F810208DF8030003208DF8020002
:100730004FF47870ADF800006946FE4803F0A8FD5C
:1007400048208DF803001020ADF800006946F948F4
:1007500003F09EFD08BD30B504460020F649086050
:10076000054618E00020F549086014F0010F04D098
:100770000120A1F10401086002E00020F0490860B6
:100780004FF00500FFF7BCFF0120EC4908604FEA7D
:10079000640405F10105082DE4D30020E749086051
:1007A000E849C1F8A00130BD30B504460020E64953
:1007B0000860054617E00020E049086014F0010FCA
:1007C00003D00120DE49086002E00020DC49086017
:1007D0004FF00500FFF794FF0120D84908604FEA69
:1007E000640405F10105082DE5D30020D349086014
:1007F000D449C1F8A00130BD30B504460020D3492A
:100800000860054617E00020CC49086014F0010F8D
:1008100003D00120CA49086002E00020C8490860EE
:100820004FF00500FFF76CFF0120C44908604FEA54
:10083000640405F10105082DE5D30020BF490860D7
:10084000C049C1F8A00130BD10B504460120BA4925
:1008500008604FF00500FFF753FF0020B949C1F8C9
:1008600094012046FFF777FF10BDF8B5FF26002062
:1008700000904220FFF7E8FF0120B54908604FF0E3
:100880000004CEE000251BE00020AC4908601DF804
:1008900004004FEA60000DF804004FF00100A94980
:1008A000C1F8A401AA48006828B11DF8040040F06E
:1008B00080000DF804000520FFF722FF681CC5B278
:1008C000082DE1DB0520FFF71BFF9DF8000048B96C
:1008D0009DF8010030B99DF8020018B99DF8030099
:1008E00000286ED09DF80000102818D008DC0128E0
:1008F0000DD002280DD004280DD0082817D10CE007
:1009000020280ED040280ED0802810D10DE01926C6
:100910000EE011260CE009260AE0012608E01A265E
:1009200006E0122604E00A2602E0022600E000BFEC
:1009300000BF9DF80100102818D008DC01280DD058
:1009400002280DD004280DD0082817D10CE020284B
:100950000ED040280ED0802810D10DE01B260EE0CE
:1009600013260CE00B260AE0032608E01C2606E00E
:10097000142604E00C2602E0042600E000BF00BFBD
:100980009DF80200102818D008DC01280DD002289C
:100990000DD004280DD0082818D10CE020280ED046
:1009A00040280FD0802811D10EE01D260FE015261B
:1009B0000DE00D260BE0052609E01E2607E01626B1
:1009C00005E02CE00E2602E0062600E000BF00BF96
:1009D0009DF80300102818D008DC01280DD002284B
:1009E0000DD004280DD0082817D10CE020280ED0F7
:1009F00040280ED0802810D10DE01F260EE01726CB
:100A00000CE00F260AE0072608E0202606E018265C
:100A100004E0102602E0082600E000BF00BF601CD2
:100A2000C4B2042CFFF62EAF0020444908604549AB
:100A3000C1F810014FF001003F4908603046F8BD91
:100A400010B504460120404908604FF00500FFF74B
:100A500057FE00203B49C1F898012046FFF7A4FE4D
:100A600010BD10B504460120384908604FF005005C
:100A7000FFF746FE00203349C1F89C012046FFF7EE
:100A8000BBFE10BD10B54020FFF7DEFEC020FFF713
:100A9000DBFE00240AE02F49085DFFF75CFE2D49CC
:100AA0000831085DFFF757FE601CC4B2082CF2DB6A
:100AB0008C20FFF7C9FE01201F4908604FF040005D
:100AC000FFF7BEFFC020FFF7BBFF00240BE021496A
:100AD0001031085DFFF768FE1E491831085DFFF709
:100AE00063FE601CC4B2082CF1DB8C20FFF7A8FF6A
:100AF0000120154908604FF04000FFF7B2FFC02009
:100B0000FFF7AFFF00240BE012492031085DFFF72B
:100B100073FE10492831085DFFF76EFE601CC4B2F9
:100B2000082CF1DB8C20FFF79CFF012007490860AF
:100B300010BD0000000C014094812142A48121429B
:100B4000A081214200802142988121429C81214242
:100B500010812142DC00002010B53021D64805F07C
:100B6000CAF810BD10B50446FFF7F6FFD348C07BA6
:100B7000D1494870D148005D0870FFF783FF10BD70
:100B800010B50446FFF7E8FFCC48807BCA4948709F
:100B9000CA48005D0870FFF775FF10BD10B5044628
:100BA000FFF7DAFF20780A2190FBF1F0C349095CD6
:100BB000C148C17220780A2190FBF1F201FB1200BA
:100BC000BE49095CBC48817260780A2190FBF1F053
:100BD000BA49095CB848417260780A2190FBF1F289
:100BE00001FB1200B549085CB3490872A0780A21DC
:100BF00090FBF1F0B149085CAF49C871A0780A21B7
:100C000090FBF1F201FB1200AC49085CAA49887123
:100C1000E0780A2190FBF1F0A849085CA6494871E8
:100C2000E0780A2190FBF1F201FB1200A349085C75
:100C3000A149087120790A2190FBF1F09F49085CD5
:100C40009D49C87020790A2190FBF1F201FB120046
:100C50009A49085C9849887060790A2190FBF1F004
:100C60009649085C9449487060790A2190FBF1F23A
:100C700001FB12009149085C8F490870E0798F49A7
:100C8000095C8D480173FFF7FDFE10BD10B58C485F
:100C9000007848B90020884948700870FFF7F2FED4
:100CA00001208749087005E08648FFF777FF00209C
:100CB0008349087010BD10B58348007848B90020FA
:100CC0007D49C8708870FFF7DDFE01207E490870FD
:100CD00005E07C48FFF762FF00207B49087010BDEB
:100CE00010B57A48007848B90020734948710871F6
:100CF000FFF7C8FE01207549087005E07148FFF74D
:100D00004DFF00207149087010BD10B57048007883
:100D100048B900206849C8718871FFF7B3FE012007
:100D20006B49087005E06748FFF738FF0020684905
:100D3000087010BD10B56748007858B900215E48AA
:100D4000417200205C490872FFF79CFE0120614956
:100D5000087005E05B48FFF721FF00205D4908703F
:100D600010BD10B55C48007840B9002152480173AD
:100D7000FFF788FE01205849087005E05148FFF749
:100D80000DFF00205449087010BD10B50446FFF750
:100D9000E3FE20784949085C4749C87060784749B4
:100DA000085C45498870A0784449085C424948700D
:100DB000E0784249085C40490870FFF763FE10BDC7
:100DC00010B50446FFF7C8FE0A2094FBF0F03B493B
:100DD000085C394948700A2094FBF0F100FB11408F
:100DE0003649085C34490870FFF74CFE10BD10B559
:100DF0000446FFF7B1FE0A2094FBF0F100FB11401E
:100E00002E49085C2C490870FFF73CFE10BD10B558
:100E100004463248007840B9002027490870FFF79F
:100E200031FE01202D49087005E02046FFF7ADFF97
:100E300000202A49087010BD10B5044628480078E3
:100E400040B900201C494870FFF71CFE01202449CE
:100E5000087005E02046FFF798FF00202049087041
:100E600010BD10B504461F48007840B90020124953
:100E70008870FFF707FE01201A49087005E0204638
:100E8000FFF783FF00201749087010BD10B5044616
:100E90001548007840B900200749C870FFF7F2FDF7
:100EA00001201149087005E02046FFF76EFF002081
:100EB0000D49087010BD0000DC0000203E5E0008F7
:100EC0002F000020270000203000002031000020EB
:100ED00032000020330000203400002035000020C4
:100EE00036000020370000203800002008B501211E
:100EF000082003F090FC14208DF8030003208DF8E7
:100F000002008002ADF800006946FC4803F0C0F919
:100F100010208DF803000002ADF800006946F74884
:100F200003F0B6F90120F6490860F649C1F8AC01B2
:100F30004FF00000F449086008BD06E0072100BF3B
:100F40000A00A1F10103D9B2FAD10200A0F1010314
:100F500098B2F3D1704710B50120EC4908604FF00A
:100F60000500FFF7EAFF0120E649C1F8A8010520C6
:100F7000FFF7E3FF0020E54908604FF00500FFF7A9
:100F8000DCFF0020DF49C1F8A8010520FFF7D5FFED
:100F900010BD70B5044600251FE014F0800F03D08B
:100FA0000120DA49086002E00020D84908604FF0CB
:100FB0000200FFF7C2FF0120D34908604FF0020092
:100FC000FFF7BBFF6006040E0020CE49C1F8A80160
:100FD0000220FFF7B2FF681CC5B2082DDDDB01203F
:100FE000CA4908604FF00200FFF7A7FF0120C5497A
:100FF000C1F8A8010220FFF7A0FFC548006808B1AA
:10100000012070BD0020C04908604FF00200FFF7CA
:1010100094FF0020BB49C1F8AC010220FFF78DFF0F
:101020000020EEE770B500240120B84908604FF0B9
:10103000000517E06006040E0120B34908604FF078
:101040000200FFF77AFFAF48D0F82C0108B144F056
:1010500001040020AC4908604FF00200FFF76DFF6B
:10106000681CC5B2082DE5DB204670BD10B5002018
:10107000A54908604FF00500FFF75FFF0020A14978
:10108000C1F8AC010520FFF758FF01209E49086018
:101090004FF00500FFF751FF01209A49C1F8AC015C
:1010A0000520FFF74AFF10BD2DE9F04106460C462A
:1010B00017460125FFF74FFFA020FFF76AFF0546FF
:1010C00015B10120BDE8F081C6F30420FFF761FFF0
:1010D00005460DB10120F5E7F0B2FFF75AFF0546CE
:1010E0000DB10120EEE7FFF736FFA120FFF751FF1A
:1010F00005460DB10120E5E71AE0FFF793FF2070E8
:101100000020824908604FF00500FFF716FF01201C
:101110007C49C1F8A8010520FFF70FFF00207A499C
:1011200008604FF00500FFF708FF641C781E87B2C7
:10113000012FE2DCFFF776FF207001207349086081
:101140004FF00500FFF7F9FE01206E49C1F8A80134
:101150000520FFF7F2FE00206B4908604FF0050004
:10116000FFF7EBFEFFF782FF0020ABE72DE9F0472A
:1011700080468946164601250020614908600446DC
:1011800034E008EB040087B2FFF7E5FEA020FFF78C
:1011900000FF054615B10120BDE8F087C7F3042024
:1011A000FFF7F7FE05460DB10120F5E7F8B2FFF7AE
:1011B000F0FE05460DB10120EEE74FF0000A0DE00C
:1011C00019F80400FFF7E5FE05460DB10120E3E73D
:1011D000601C84B20AF1010000F0FF0AB245EFDBA7
:1011E000FFF744FF4FF4FA60FFF7A7FEB442C8DBF5
:1011F0000120434908604FF00000CDE72DE9FC4194
:1012000004460026202500271CE0082269462846BF
:10121000FFF74AFF019810F07F4F0CD101986168E9
:1012200088420AD13B480099016000203949087181
:101230000120BDE8FC8106B92E4605F1080085B203
:10124000781C87B2B7F5007FDFDB082221463046E5
:10125000FFF78CFF0EB90120EBE70020E9E72DE94D
:10126000FC41044600264FF4426500271CE008229A
:1012700069462846FFF718FF019810F07F4F0CD100
:101280000198616888420AD12348009901600020D2
:10129000214908710120BDE8FC8106B92E4605F1FF
:1012A000080085B2781C87B2202FE0DB0822214697
:1012B0003046FFF75BFF0EB90120ECE70020EAE7BC
:1012C0002DE9FC41044600264FF4026500272EE07C
:1012D000082269462846FFF7E7FE019810F07F4F85
:1012E0001ED10198616888421CD10C4800990160A8
:1012F00000200A4908710120BDE8FC81000C014072
:10130000B081214200802142A8812142AC8121424A
:101310002C81214248000020520000205C00002067
:1013200006B92E4605F1080085B2781C87B2402F19
:10133000CEDB082221463046FFF718FF0EB9012008
:10134000DAE70020D8E72DE9FC41044600264FF4F7
:10135000226500271CE0082269462846FFF7A4FE04
:10136000019810F07F4F0CD10198616888420AD132
:10137000FE48009901600020FC4908710120BDE889
:10138000FC8106B92E4605F1080085B2781C87B2AB
:10139000402FE0DB082221463046FFF7E7FE0EB97A
:1013A0000120ECE70020EAE770B58AB00546202668
:1013B0002021684604F09FFCFF222021684604F0AB
:1013C00093FC286880B900240BE006EB441188B236
:1013D00020226946FFF7CAFE6420FFF7AEFD601CBD
:1013E00084B2802CF1DB22E000241CE0082208A952
:1013F0003046FFF759FE099810F07F4F0ED128684C
:10140000089988420AD1FF22082108A804F06CFC40
:10141000082208A93046FFF7A9FE07E006F10800F8
:1014200086B2601C84B2B4F5007FDFDB00BF002011
:101430000AB070BD70B58AB005464FF442662021EF
:10144000684604F058FCFF222021684604F04CFC5A
:10145000286880B900240BE006EB441188B22022F2
:101460006946FFF783FE6420FFF767FD601C84B2C6
:10147000082CF1DB21E000241CE0082208A93046FA
:10148000FFF712FE099810F07F4F0ED128680899D7
:1014900088420AD1FF22082108A804F025FC08226E
:1014A00008A93046FFF762FE06E006F1080086B2A2
:1014B000601C84B2202CE0DB00BF00200AB070BDAD
:1014C00070B58AB005464FF402662021684604F0E4
:1014D00012FCFF222021684604F006FC286880B92F
:1014E00000240BE006EB441188B220226946FFF786
:1014F0003DFE6420FFF721FD601C84B2102CF1DB5F
:1015000021E000241CE0082208A93046FFF7CCFDAA
:10151000099810F07F4F0ED12868089988420AD1A7
:10152000FF22082108A804F0DFFB082208A93046A2
:10153000FFF71CFE06E006F1080086B2601C84B2CC
:10154000402CE0DB00BF00200AB070BD70B58AB04F
:1015500005464FF422662021684604F0CCFBFF22AA
:101560002021684604F0C0FB286880B900240BE005
:1015700006EB441188B220226946FFF7F7FD64208C
:10158000FFF7DBFC601C84B2102CF1DB21E00024AF
:101590001CE0082208A93046FFF786FD099810F0E4
:1015A0007F4F0ED12868089988420AD1FF2208216E
:1015B00008A804F099FB082208A93046FFF7D6FDD9
:1015C00006E006F1080086B2601C84B2402CE0DB25
:1015D00000BF00200AB070BD10B588B0202264A101
:1015E000684604F06FFB002408E0002101EB441181
:1015F00088B220226946FFF7B9FD641CA82CF4D3F9
:1016000008B010BD2DE9FC4105460C4620260027F8
:101610001DE0082269463046FFF746FD5C48007829
:10162000022805D15B490198084001900846044012
:101630000198A04206D1DDE90001C5E900010120C1
:10164000BDE8FC8106F1080086B2781C87B2B7F5C8
:10165000007FDEDB0020F3E72DE9FC4105460C4668
:101660004FF4026600271DE0082269463046FFF766
:101670001BFD47480078022805D1464901980840DB
:101680000190084604400198A04206D1DDE900011E
:10169000C5E900010120BDE8FC8106F1080086B221
:1016A000781C87B2402FDFDB0020F4E72DE9FC41F6
:1016B00005460C464FF4226600271DE008226946C5
:1016C0003046FFF7F1FC32480078022805D1314955
:1016D000019808400190084604400198A04206D1B4
:1016E000DDE90001C5E900010120BDE8FC8106F14A
:1016F000080086B2781C87B2402FDFDB0020F4E7B9
:1017000070B504460D4629462046FFF7CFFF08B1C5
:10171000012070BD29462046FFF79EFF08B1022038
:10172000F7E729462046FFF76DFF08B10320F0E7F1
:101730000020EEE72DE9FC4105460C464FF44266D9
:10174000002735E0082269463046FFF7ADFC104817
:101750000078022805D10F490198084001900846F9
:1017600004400198A0421ED116E00000660000204F
:10177000FFFFFFFFFFFFFFFFFFFFFFFFFFFFFFFF79
:10178000FFFFFFFFFFFFFFFFFFFFFFFFFFFFFFFF69
:101790007E000020F0FFFF00DDE90001C5E9000147
:1017A0000120BDE8FC8106F1080086B2781C87B2F2
:1017B000202FC7DB0020F4E708B50121042003F047
:1017C0002AF83320ADF8000048208DF80300694660
:1017D000DB4802F05DFD08BD06E00C2100BF0A00F9
:1017E000A1F10103D9B2FAD10200A0F1010398B22C
:1017F000F3D1704710B5FF24D248006840B1D248F9
:10180000006828B1D148006810B1D1480068F8B923
:1018100042F21070FFF7E0FFCA48006840B1CA48C2
:10182000006828B1C948006810B1C948006878B993
:10183000C448006800B90124C348006800B9022404
:10184000C248006800B90324C148006800B90424F4
:10185000204610BD10B50020BE490870FFF7CAFF32
:10186000BD49087008460078002877D008460078FF
:10187000012806D0022872D0032871D0042870D124
:101880001DE170E0B348007802286CDDB3480078B1
:101890004E283BD017DC492830D00BDC0D2824D053
:1018A00003DCD0B10C2844D11BE00F2821D04828FC
:1018B0003FD122E04A2822D04B2821D04C2823D0E7
:1018C0004D2836D121E04F38092832D2DFE800F028
:1018D0001F232425262A2B2C2D0002209F49087027
:1018E00028E033209D49087024E034209B4908708B
:1018F00020E03620994908701CE000BF00BF00BFFF
:101900009748FFF751FD15E000BF00BF00BF9548A5
:10191000FFF790FD0EE000BF00BF00BF9248FFF749
:10192000CFFD07E000BF00BF00BF9048FFF70EFEED
:1019300000E000BF00BF8948007800EB40008C4900
:1019400001EB800080688B4908600846006880478A
:1019500000BF7C4800680028FBD010BDEDE074E0BB
:1019600090E0CCE0FFE777480068E8BB7B48007870
:10197000002887D0794800780C2883D077480078F1
:101980000D28F6D0754800784828F2D073480078C2
:101990004928EED0714800784A28EAD06F4800788C
:1019A0004B28E6D06D4800784C28E2D06B48007890
:1019B0004D28DED0694800784E28DAD06748007894
:1019C0004F28D6D0654800785028D2D06348007898
:1019D0005128CED0614800785228CAD05F4800789C
:1019E0005328C6D05D4800E012E000785428C0D0EB
:1019F0005A4800785528BCD0584800785628B8D0A6
:101A0000564800785728B4D0544800780F28B0D0F2
:101A10005248007800EB4000554901EB80004078C7
:101A20004E4908700846007800EB4000504901EB31
:101A3000800080684F49086008460068804700BF02
:101A4000404800680028FBD076E04448007800EB6E
:101A50004000474901EB8000807840490870084603
:101A6000007800EB4000424901EB8000806841496A
:101A7000086008460068804700BF334800680028B7
:101A8000FBD059E03548007800EB4000384901EBC5
:101A90008000C078314908700846007800EB4000AB
:101AA000334901EB800080683249086008460068CD
:101AB000804700BF254800680028FBD03CE000209C
:101AC0002D4908702548007800EB4000284901EBBB
:101AD00080000079214908700846007800EB40003A
:101AE000234901EB800080682249086008460068AD
:101AF000804700BF164800680028FBD01CE01F4844
:101B00000078012817D100201C490870134800787C
:101B100000EB4000164901EB800080681549086021
:101B20000846006880470D4800786A2803D102F013
:101B300002F802F025F800BF00BF00BF0DE700006B
:101B4000000801400001214204012142100121420C
:101B500014012142080000203D0000203C0000202C
:101B60004D00002057000020610000206B00002085
:101B7000705E0008400000202500002001000020C9
:101B8000C178092923D1817809291AD141780929F5
:101B900010D10178491C01700021417081700178D9
:101BA000152904D1002101700121C17012E0012129
:101BB000C1700FE04178491C417000218170C170F3
:101BC00008E08178491C81700021C17002E0C17871
:101BD000491CC170704710B5FA48007878B9FEF713
:101BE000BBFF4020F849097801F00301F74A50543F
:101BF000FEF748FFF4480078401CF3490870F448A9
:101C00000078032802D101F078FF0CE0F04800785A
:101C1000022802D101F05EFF05E0ED4800780428BB
:101C200001D101F050FF10BD10B50020FEF79AFF62
:101C300010BD10B50120FEF795FF10BD10B50220B4
:101C4000FEF790FF10BD10B50320FEF78BFF10BD0F
:101C500010B50420FEF786FF10BD10B50520FEF775
:101C600081FF10BD10B50620FEF77CFF10BD10B53A
:101C70000720FEF777FF10BD10B50820FEF772FFB2
:101C800010BD10B50920FEF76DFF10BD10B50A207C
:101C9000FEF768FF10BD10B50B20FEF763FF10BD07
:101CA00010B50C20FEF75EFF10BD10B50D20FEF73D
:101CB00059FF10BD10B50E20FEF754FF10BD10B532
:101CC000FEF7E4FFC2480078032810D1C1484079EC
:101CD0003B2803D10020BF49487104E0BD4840794A
:101CE000401CBC494871BB48FEF758FF12E0B84899
:101CF000007802280ED1B748407918B93B20B54981
:101D0000487104E0B3484079401EB2494871B14877
:101D1000FEF744FF10BD10B5FEF7CDFFAC480078CC
:101D2000032810D1AB480079172803D10020A94916
:101D3000087104E0A7480079401CA6490871A5482D
:101D4000FEF72CFF12E0A248007802280ED1A1482D
:101D5000007918B917209F49087104E09D4800795F
:101D6000401E9C4908719B48FEF718FF10BD10B536
:101D7000FEF7B6FF96480078032810D19548C07842
:101D80001F2803D101209349C87004E09148C0780E
:101D9000401C9049C8708F48FEF700FF13E08C4844
:101DA000007802280FD18B48C078012803D11F206A
:101DB0008849C87004E08748C078401E8549C870CB
:101DC0008448FEF7EBFE10BD10B5FEF79EFF80487D
:101DD0000078032810D17F4880780C2803D1012097
:101DE0007C49887004E07B488078401C7949887081
:101DF0007848FEF7D3FE13E07548007802280FD12B
:101E000074488078012803D10C207249887004E05E
:101E100070488078401E6F4988706E48FEF7BEFE9D
:101E200010BD10B5FEF786FF69480078032810D171
:101E300068484078632803D100206649487004E070
:101E400064484078401C634948706248FEF7A6FE2B
:101E500012E05F48007802280ED15E48407818B939
:101E600063205C49487004E05A484078401E594954
:101E700048705848FEF792FE10BD10B5FEF771FF8E
:101E800053480078032810D15248C079072803D15D
:101E900000205049C87104E04E48C079401C4D49AB
:101EA000C8714C48FEF77AFE13E0494800780228D2
:101EB0000FD14848C079012803D107204549C8718E
:101EC00004E04448C079401E4249C8714148FEF7C9
:101ED00065FE10BD10B50120FEF752FE10BD10B515
:101EE0000220FEF74DFE10BD10B50320FEF748FEA0
:101EF00010BD10B50420FEF743FE10BD10B5012043
:101F0000FEF73EFE10BD10B50220FEF739FE10BDF3
:101F100010B50320FEF734FE10BD10B50420FEF707
:101F20002FFE10BD10B50120FEF72AFE10BD10B522
:101F30000220FEF725FE10BD10B5254800780328C5
:101F40000DD125480078632803D10020224908706C
:101F500015E021480078401C1F4908700FE01C481C
:101F6000007802280BD11C48007818B963201A4960
:101F7000087004E018480078401E17490870164899
:101F80000078FEF71DFF10BD10B51148007803283A
:101F90000DD112480078632803D100200F49087042
:101FA00023E00E480078401C0C4908701DE00848EA
:101FB0000078022819D10948007888B963200749B8
:101FC000087012E00C01002080000020DC000020DE
:101FD0003D00002027000020440000204500002094
:101FE000F6480078401EF5490870F4480078FEF77E
:101FF000E7FE10BD10B50120FEF7C2FD10BD10B503
:102000000220FEF7BDFD10BD10B50320FEF7B8FDA0
:1020100010BD10B50420FEF7B3FD10BD10B50520AE
:10202000FEF7AEFD10BD10B50620FEF7A9FD10BDF0
:1020300010B50720FEF7A4FD10BD10B50820FEF76F
:102040009FFD10BD10B50120FEF79AFD10BD10B523
:102050000220FEF795FD10BD10B50320FEF790FDA0
:1020600010BD10B50420FEF78BFD10BD10B501208A
:10207000FEF786FD10BD10B50220FEF781FD0020A1
:10208000CF49087010BD10B50120FEF779FD10BDD5
:1020900010B50220FEF774FD10BD704710B5C94899
:1020A000007803280BD1C8480078012803D100200C
:1020B000C549087012E00120C34908700EE0C1480C
:1020C000007802280AD1C0480078012803D10020F6
:1020D000BD49087002E00120BB490870BA48007889
:1020E000FEF785FE10BD10B5B648007803280BD169
:1020F000B6480078012803D10020B449087012E0E6
:102100000120B24908700EE0AE48007802280AD1DA
:10211000AE480078012803D10020AC49087002E0E5
:102120000120AA490870A9480078FEF760FE10BD9A
:10213000704710B50120FEF723FD10BD10B5022039
:10214000FEF71EFD10BD10B5A148FEF760FE9D48CC
:102150000078032810D19E48C078092803D10020B8
:102160009B49C87004E09A48C078401C9849C870E0
:102170009748FEF70AFE12E09248007802280ED136
:102180009348C07818B909209149C87004E0904874
:10219000C078401E8E49C8708D48FEF7F6FD10BD10
:1021A00010B58B48FEF748FE86480078032810D10A
:1021B00087488078092803D100208549887004E089
:1021C00083488078401C824988708148FEF7DDFD95
:1021D00012E07C48007802280ED17D48807818B93A
:1021E00009207B49887004E079488078401E78494E
:1021F00088707748FEF7C9FD10BD10B57448FEF72A
:1022000030FE70480078032810D1714840780928C2
:1022100003D100206E49487004E06D484078401CAE
:102220006B4948706A48FEF7B0FD12E065480078D7
:1022300002280ED16648407818B9092064494870D0
:1022400004E063484078401E614948706048FEF7EA
:102250009CFD10BD10B55E48FEF718FE5948007889
:10226000032810D15A480078092803D10020584982
:10227000087004E056480078401C554908705448DE
:10228000FEF783FD12E04F48007802280ED1504837
:10229000007818B909204E49087004E04C480078CD
:1022A000401E4B4908704A48FEF76FFD10BD10B53F
:1022B0004848FEF7ACFD43480078032810D1454854
:1022C000C078092803D100204249C87004E0414881
:1022D000C078401C3F49C8703E48FEF756FD12E0EA
:1022E0003848007802280ED13A48C07818B9092039
:1022F0003849C87004E03748C078401E3549C87076
:102300003448FEF742FD10BD10B53248FEF794FD8B
:102310002C480078032810D12E488078092803D152
:1023200000202C49887004E02A488078401C294904
:1023300088702848FEF729FD12E02248007802281C
:102340000ED12448807818B909202249887004E009
:1023500020488078401E1F4988701E48FEF715FDF2
:1023600010BD10B51B48FEF77CFD16480078032809
:1023700010D118484078092803D100201549487029
:1023800004E014484078401C124948701148FEF798
:10239000FCFC12E00B48007802280ED10D48407872
:1023A00018B909200B49487004E00A484078401EDB
:1023B000084948700748FEF7E8FC10BD45000020BA
:1023C0007F0000203D000020470000204600002044
:1023D000480000205200002010B5F748FEF756FDD7
:1023E000F6480078032810D1F3480078092803D173
:1023F0000020F149087004E0EF480078401CEE49E5
:102400000870ED48FEF7C1FC12E0EC4800780228A5
:102410000ED1E948007818B90920E749087004E0AE
:10242000E5480078401EE4490870E348FEF7ADFC3B
:1024300010BD10B5E248FEF7EAFCE048007803283A
:1024400010D1DF48C078092803D10020DC49C870CA
:1024500004E0DB48C078401CD949C870D848FEF772
:1024600094FC12E0D548007802280ED1D448C078F8
:1024700018B90920D249C87004E0D148C078401E7C
:10248000CF49C870CE48FEF780FC10BD10B5CC48CF
:10249000FEF7D2FCC9480078032810D1C8488078DC
:1024A000092803D10020C649887004E0C448807818
:1024B000401CC3498870C248FEF767FC12E0BF4861
:1024C000007802280ED1BE48807818B90920BC498E
:1024D000887004E0BA488078401EB9498870B848CE
:1024E000FEF753FC10BD10B5B548FEF7BAFCB34873
:1024F0000078032810D1B2484078092803D1002081
:10250000AF49487004E0AE484078401CAC49487080
:10251000AB48FEF73AFC12E0A848007802280ED13A
:10252000A748407818B90920A549487004E0A44894
:102530004078401EA2494870A148FEF726FC10BD15
:1025400010B59F48FEF7A2FC9C480078032810D1E4
:102550009B480078092803D100209949087004E0BD
:1025600097480078401C964908709548FEF70DFC86
:1025700012E09248007802280ED19148007818B9EC
:1025800009208F49087004E08D480078401E8C496E
:1025900008708B48FEF7F9FB10BD10B58948FEF7AF
:1025A00036FC86480078032810D18648C078092870
:1025B00003D100208349C87004E08248C078401CE1
:1025C0008049C8707F48FEF7E0FB12E07B48007846
:1025D00002280ED17B48C07818B909207949C87003
:1025E00004E07848C078401E7649C8707548FEF708
:1025F000CCFB10BD10B57348FEF71EFC6F48007889
:10260000032810D16F488078092803D100206D4934
:10261000887004E06B488078401C6A49887069487B
:10262000FEF7B3FB12E06548007802280ED165483A
:10263000807818B909206349887004E0614880787F
:10264000401E604988705F48FEF79FFB10BD10B5C3
:102650005C48FEF706FC59480078032810D1594819
:102660004078092803D100205649487004E05548B5
:102670004078401C534948705248FEF786FB12E0F0
:102680004E48007802280ED14E48407818B90920EB
:102690004C49487004E04B484078401E4949487016
:1026A0004848FEF772FB10BD10B54648FEF7EEFB3A
:1026B00042480078032810D142480078092803D105
:1026C00000204049087004E03E480078401C3D4925
:1026D00008703C48FEF759FB12E0384800780228A1
:1026E0000ED13848007818B909203649087004E03E
:1026F00034480078401E334908703248FEF745FBE5
:1027000010BD10B53048FEF782FB2C480078032836
:1027100010D12D48C078092803D100202A49C8705B
:1027200004E02948C078401C2749C8702648FEF7B5
:102730002CFB12E02148007802280ED12248C078F4
:1027400018B909202049C87004E01F48C078401E0D
:102750001D49C8701C48FEF718FB10BD10B51A487B
:10276000FEF76AFB15480078032810D116488078D8
:10277000092803D100201449887004E012488078A9
:10278000401C114988701048FEF7FFFA12E00B4810
:10279000007802280ED10C48807818B909200A491F
:1027A000887004E008488078401E07498870064811
:1027B000FEF7EBFA10BD0000520000203D000020A3
:1027C0005C000020660000204D00002010B5F74896
:1027D000FEF747FBF6480078032810D1F34840780D
:1027E000092803D10020F149487004E0EF484078FF
:1027F000401CEE494870ED48FEF7C7FA12E0EC487D
:10280000007802280ED1E948407818B90920E74934
:10281000487004E0E5484078401EE4494870E348C9
:10282000FEF7B3FA10BD10B5E048FEF72FFBE04805
:102830000078032810D1DD480078092803D1002052
:10284000DA49087004E0D9480078401CD74908707C
:10285000D648FEF79AFA12E0D548007802280ED141
:10286000D248007818B90920D049087004E0CF4850
:102870000078401ECD490870CC48FEF786FA10BD9E
:1028800010B5CC48FEF7C3FAC9480078032810D128
:10289000C848C078092803D10020C649C87004E0A0
:1028A000C448C078401CC349C870C248FEF76DFADE
:1028B00012E0BF48007802280ED1BE48C07818B98F
:1028C0000920BC49C87004E0BA48C078401EB94924
:1028D000C870B848FEF759FA10BD10B5B548FEF7F4
:1028E000ABFAB3480078032810D1B24880780928A1
:1028F00003D10020AF49887004E0AE488078401CC6
:10290000AC498870AB48FEF740FA12E0A84800785E
:1029100002280ED1A748807818B90920A5498870E7
:1029200004E0A4488078401EA2498870A148FEF7C0
:102930002CFA10BD10B59F48FEF793FA9C4800781A
:10294000032810D19B484078092803D100209949D9
:10295000487004E097484078401C96494870954874
:10296000FEF713FA12E09248007802280ED191483F
:10297000407818B909208F49487004E08D484078A4
:10298000401E8C4948708B48FEF7FFF910BD10B50A
:102990008848FEF77BFA86480078032810D18548DE
:1029A0000078092803D100208249087004E081489A
:1029B0000078401C7F4908707E48FEF7E6F912E077
:1029C0007B48007802280ED17A48007818B909208F
:1029D0007849087004E077480078401E754908700F
:1029E0007448FEF7D2F910BD10B57348FEF70FFA20
:1029F0006F480078032810D16F48C078092803D1A8
:102A000000206D49C87004E06B48C078401C6A49DA
:102A1000C8706948FEF7B9F912E0654800780228E5
:102A20000ED16548C07818B909206349C87004E020
:102A30006148C078401E6049C8705F48FEF7A5F93C
:102A400010BD10B55C48FEF7F7F959480078032827
:102A500010D159488078092803D100205649887040
:102A600004E055488078401C534988705248FEF76E
:102A70008CF912E04E48007802280ED14E4880783A
:102A800018B909204C49887004E04B488078401EF2
:102A9000494988704848FEF778F910BD10B5464896
:102AA000FEF7DFF942480078032810D14248407809
:102AB000092803D100204049487004E03E4840788E
:102AC000401C3D4948703C48FEF75FF912E0384829
:102AD000007802280ED13848407818B909203649C4
:102AE000487004E034484078401E3349487032480A
:102AF000FEF74BF910BD10B52F48FEF7C7F92C486B
:102B00000078032810D12C480078092803D1002030
:102B10002949087004E028480078401C26490870BC
:102B20002548FEF732F912E02148007802280ED13C
:102B30002148007818B909201F49087004E01E4890
:102B40000078401E1C4908701B48FEF71EF910BD96
:102B500010B51A48FEF75BF915480078032810D124
:102B60001648C078092803D100201449C87004E031
:102B70001248C078401C1149C8701048FEF705F98A
:102B800012E00B48007802280ED10C48C07818B922
:102B900009200A49C87004E00848C078401E074967
:102BA000C8700648FEF7F1F810BD00004D00002087
:102BB0003D00002057000020610000206B00002035
:102BC00010B5F948FEF738F9F8480078032810D115
:102BD000F5488078092803D10020F349887004E083
:102BE000F1488078401CF0498870EF48FEF7CDF836
:102BF00012E0EE48007802280ED1EB48807818B930
:102C00000920E949887004E0E7488078401EE649D9
:102C10008870E548FEF7B9F810BD10B5E248FEF738
:102C200020F9E2480078032810D1DF4840780928CD
:102C300003D10020DC49487004E0DB484078401CA8
:102C4000D9494870D848FEF7A0F812E0D748007874
:102C500002280ED1D448407818B90920D2494870CA
:102C600004E0D1484078401ECF494870CE48FEF776
:102C70008CF810BD10B5CC48FEF708F9CB480078A9
:102C8000032810D1C8480078092803D10020C6497C
:102C9000087004E0C4480078401CC3490870C2486A
:102CA000FEF773F812E0C148007802280ED1BE4842
:102CB000007818B90920BC49087004E0BA480078C7
:102CC000401EB9490870B848FEF75FF810BD10B54E
:102CD000B648007803280BD1B5480078012803D105
:102CE0000220B349087012E00120B14908700EE0DB
:102CF000AE48007802280AD1AD480078012803D1F7
:102D00000220AB49087002E00120A9490870A848D8
:102D10000078FEF76CF810BD10B5A44800780328C1
:102D20000DD1A4480078632803D10020A149087080
:102D300015E0A0480078401C9E4908700FE09B48B1
:102D4000007802280BD19B48007818B96320994974
:102D5000087004E097480078401E9649087095482E
:102D60000078FEF72DF810BD10B5904800780328C4
:102D70000DD191480078072803D100208E490870B2
:102D800015E08D480078401C8B4908700FE087489B
:102D9000007802280BD18848007818B907208649A6
:102DA000087004E084480078401E83490870824817
:102DB0000078FEF71CF810BD10B57C480078032899
:102DC0000DD17E480078092803D101207B49087085
:102DD00016E07A480078401C7849087010E0734883
:102DE000007802280CD175480078012803D1092009
:102DF0007249087004E071480078401E6F490870FD
:102E00006E480078FDF7F3FF10BD10B567480078F5
:102E100003280BD16A480078012803D100206849B3
:102E2000087012E00120664908700EE05F480078E3
:102E300002280AD162480078012803D100206049A5
:102E4000087002E001205E4908705D480078FDF7D7
:102E5000CEFF10BD10B55548007803280DD1594854
:102E60000078092803D101205649087016E055481A
:102E70000078401C5349087010E04C480078022844
:102E80000CD150480078012803D109204D49087021
:102E900004E04C480078401E4A49087049480078D0
:102EA000FDF7A5FF10BD10B54048007803280DD1EF
:102EB00045480078072803D101204349087016E0EF
:102EC00041480078401C4049087010E037480078BD
:102ED00002280CD13C480078012803D107203A4948
:102EE000087004E038480078401E374908703648BA
:102EF0000078FDF77CFF10BD10B52C480078032842
:102F00000BD132480078012803D100202F490870E6
:102F100012E001202D4908700EE0244800780228B4
:102F20000AD12A480078012803D1002027490870D7
:102F300002E001202549087024480078FDF757FF7A
:102F400010BD10B51948007803280BD1204800782F
:102F5000012803D100201E49087012E001201C49FD
:102F600008700EE01148007802280AD1184800784D
:102F7000012803D100201649087002E001201449FD
:102F8000087013480078FDF732FF10BD10B50748F0
:102F90000078032824D10F48007801281CD1002094
:102FA0000C4908702BE000006B0000203D00002061
:102FB00070000020710000207200002073000020CB
:102FC00074000020750000207600002077000020AB
:102FD00078000020790000200120904908700EE060
:102FE0008F48007802280AD18C480078012803D144
:102FF00000208A49087002E001208849087087484B
:103000000078FDF7F4FE10BD10B585480078032860
:103010000DD1844800780B2803D100208149087025
:1030200015E080480078401C7E4908700FE07C481D
:10303000007802280BD17B48007818B90B20794919
:10304000087004E077480078401E7649087075489B
:103050000078FDF7B5FE10BD10B571480078032863
:103060000DD1714800780B2803D100206E490870FB
:1030700015E06D480078401C6B4908700FE0684807
:10308000007802280BD16848007818B90B206649EF
:10309000087004E064480078401E63490870624884
:1030A0000078FDF78DFE10BD10B55D48007803284F
:1030B0000DD15E4800780B2803D100205B490870D1
:1030C00015E05A480078401C584908700FE05448F1
:1030D000007802280BD15548007818B90B205349C5
:1030E000087004E051480078401E504908704F486D
:1030F0000078FDF765FE10BD10B54948007803283B
:103100000DD14B4800780B2803D1002048490870A6
:1031100015E047480078401C454908700FE04048DA
:10312000007802280BD14248007818B90B2040499A
:10313000087004E03E480078401E3D4908703C4855
:103140000078FDF73DFE10BD10B535480078032826
:103150000BD138480078012803D102203549087086
:1031600012E00120334908700EE02D480078022853
:103170000AD130480078012803D102202D49087077
:1031800002E001202B4908702A480078FDF72FFE45
:1031900010BD10B52248007803280DD126480078CC
:1031A000262803D100202449087015E02248007821
:1031B000401C214908700FE01948007802280BD103
:1031C0001D48007818B926201B49087004E01A48E9
:1031D0000078401E1849087017480078FDF7F0FD88
:1031E00010BD10B50E480078032802D100F085FC10
:1031F0000CE00B480078022802D100F06BFC05E0DF
:1032000007480078042801D100F05DFC0B480078E5
:1032100010B900200A49087010BD00007900002094
:103220003D0000207A0000207B0000207C00002070
:103230007D0000207E0000207F0000200C01002087
:103240003C0000204A78FB4B9A5CA0F10300C2705E
:103250008A789A5C8270CA789A5C42700A799A5C21
:1032600000F8032BCA7902F00F02A2F10202072A2A
:1032700042D2DFE802F00410234141333A0010F853
:10328000032D42F080020270427842F080024270C8
:1032900000F1030031E010F8032D42F080020270CB
:1032A000427842F080024270827842F0800282705E
:1032B000C27842F0800200F8032F1EE010F8032DC0
:1032C00042F080020270427842F0800242708278BE
:1032D00042F08002827000F103000EE010F8022C30
:1032E00042F0800200F8022C07E010F8032C42F0B4
:1032F000800200F8032C00E000BF00BF704710B54B
:10330000FDF72AFCCC4890F8580020B1CA49583142
:10331000CA48FFF797FFC84890F8500028B1C6493F
:103320005031C648001FFFF78DFFC34890F8480092
:1033300028B1C1494831C1480838FFF783FFBE486A
:1033400090F8400028B1BC494031BC480C38FFF728
:1033500079FFB94890F8380028B1B7493831B748F3
:103360001038FFF76FFFB44890F8300028B1B24929
:103370003031B2481438FFF765FFAF4890F82800A5
:1033800028B1AD492831AD481838FFF75BFFAA488E
:1033900090F8200028B1A8492031A8481C38FFF730
:1033A00051FFA548007E28B1A3491831A348203811
:1033B000FFF748FFA048007C28B19F4910319F4883
:1033C0002438FFF73FFF9C48007A28B19A4908311A
:1033D0009A482838FFF736FF9748007820B1964979
:1033E00096482C38FFF72EFFFDF74CFB10BD816887
:1033F0000160C1684160704702469148037800212E
:1034000006E012F8310008B908467047481CC1B2FE
:103410008B4800788142F4DB1846F6E72DE9F0414D
:1034200006468548FFF7E8FF05462F4600240CE0D6
:10343000D6F80100804901EBC401D1F8011088429F
:1034400001D1E5B203E0601C44B2AC42F0DB00BF46
:10345000BD4211D06CB206E0774901EBC400FFF722
:10346000C6FF601C44B2781EA042F5DC724800EB37
:10347000C400002101604160FFF741FFBDE8F08119
:1034800070B505462846FFF7B7FF0646002405E05D
:1034900005EBC400FFF7ABFF601CC4B2701EA04276
:1034A000F6DC05EBC40000210160416070BD70B521
:1034B00005460C462046FFF79FFF06466048007809
:1034C00086420CD12046FFF7DBFF5D480078401EA6
:1034D00004EBC000296801606968416005E004EB05
:1034E000C600296801606968416070BD016881603B
:1034F0004168C160704770B505462846FFF77CFFFC
:1035000006464F480078864201D1701EC6B2701E32
:1035100044B205E005EBC400FFF7E8FF601E44B2CB
:10352000002CF7DA00202860686070BD70B5054691
:103530000C462046FFF7DFFF28682060686860605F
:1035400070BD2DE9F04106463B48FFF755FF0546A3
:103550002F4600240CE0D6F80100374901EBC401E6
:10356000D1F80110884201D1E5B203E0601C44B2F9
:10357000AC42F0DB00BFBD421CD0324800780128CD
:1035800016D1681EC5B26CB206E02B4901EBC4002F
:10359000FFF7ACFF601E44B2002CF6DA2648316813
:1035A000016071684160FFF7AAFE0120BDE8F0816B
:1035B0000120FBE70020F9E7234A1278012A05D110
:1035C00001F00F02214B9A5C027004E001F00F023F
:1035D0001F4B9A5C027070477FB504460D46089EEB
:1035E000012E02D13320207008E0022E02D13420B7
:1035F000207003E029462046FFF7DEFF0298C4F85A
:103600000100280C6071280AA071E5717FBDC1F32B
:1036100003524270C1F303428270C1F30332C2709D
:10362000C1F3032202710A0C42710A0A8271C1714C
:10363000704700003E5E00080C0100200B010020D6
:1036400071000020700000207E0000208E0000200D
:103650009E000020014611F0F00F04D1F9480078D7
:10366000B0EB115F06D0F74800780B2804D111F0B9
:10367000F00F01D1012070470020FCE730B585B084
:103680000025F14804680020F04908702046FFF743
:10369000E1FF78B3214601A8FFF78EFF214601A87C
:1036A000FFF7B5FF9DF80400332824D09DF80400EF
:1036B00008B301A8FFF745FF002857D1E448007878
:1036C000012810D1E34901A8FFF730FFE248007854
:1036D00004F00F0300909DF8042001A9DF48007852
:1036E00000F036FC03E0DB4901A8FFF7E0FEFFF73E
:1036F00006FE3BE003E001A8FFF790FE36E021461E
:1037000003A8FDF7FDFF054665B30095214601A816
:10371000DDE90323FFF760FF9DF80400332822D082
:103720009DF80400F8B101A8FFF70BFFD0B9C84815
:103730000078012810D1C74901A8FFF7F7FEC64855
:10374000007804F00F0300909DF8042001A9C348FD
:10375000007800F0FDFB03E0BE4901A8FFF7A7FEDB
:10376000FFF7CDFD02E001A8FFF758FE05B030BD20
:10377000BB480078012808D1BA480078B2490978D6
:1037800001F00F01B84A505407E0B6480078AE493E
:10379000097801F00F01B54A505470471CB5B44880
:1037A00000680090A848006801906846FDF7CBFDCE
:1037B00028B9AF48FEF7E4F94420AE4908701CBDB3
:1037C0001CB5AD48006800909F48006801906846AD
:1037D000FDF776FD28B9A848FEF7D2F94020A549A3
:1037E00008701CBD1CB5A54800680090964800688C
:1037F00001906846FDF733FD28B9A048FEF7C0F9EF
:103800003C209C4908701CBD1CB59D480068009078
:103810008D48006801906846FDF7F0FC28B998488B
:10382000FEF7AEF93820934908701CBD30B585B05D
:103830000025854804680020844908702046FFF769
:1038400009FF68B3214601A8FFF7B6FE214601A88B
:10385000FFF7DDFE9DF8040033281DD09DF804001D
:10386000D0B101A8FFF76DFE00284AD1794901A81F
:10387000FFF75CFEFFF743FD7748007804F00F0385
:1038800000909DF8042001A97448007800F060FBC6
:103890006A207849087034E001A8FFF7BFFD30E0E6
:1038A000214603A8FDF72CFF054635B300952146B8
:1038B00001A8DDE90323FFF78FFE9DF804003328FC
:1038C0001CD09DF80400C8B101A8FFF73AFEA0B9CA
:1038D000604901A8FFF72AFEFFF711FD5E48007856
:1038E00004F00F0300909DF8042001A95B480078C4
:1038F00000F02EFB6A205F49087002E001A8FFF784
:103900008DFD05B030BD10B54F480068002874D05B
:103910005C4800780028FAD056480078002847D044
:1039200054480078382843D05248007839283FD08E
:10393000504800783A283BD04E4800783B2837D092
:103940004C4800783C2833D04A4800783D282FD096
:10395000484800783E282BD0464800783F2827D09A
:1039600044480078402823D04248007841281FD09E
:103970004048007842281BD03E480078432817D0A2
:103980003C480078442813D03A48007845280FD0A6
:103990003848007846280BD036480078472807D0AA
:1039A00034480078672803D0324800786A2824D148
:1039B0003548007800286BDD2348046833480068E8
:1039C000A0427AD0314804602A480078402860D06C
:1039D00014DC3B282DD007DC28B3382826D0392822
:1039E00025D03A2867D123E03C2825D03D2824D093
:1039F0003E2823D03F285ED121E063E045284FD008
:103A000008DC412846D0422845D0432844D04428E9
:103A100051D144E0462844D0472843D0672844D0B9
:103A20006A2848D144E0FFF701FF45E000BF00BF2E
:103A300000BFFFF7E9FE3FE000BF00BF00BFFFF798
:103A4000D1FE39E07A000020100000208D00002017
:103A5000700000200C010020730000207200002084
:103A60007E0000207F0000208E0000209E000020AD
:103A7000660000203C0000205C0000205200002076
:103A8000480000202500002026000020840000209F
:103A900013E000BF00BF00BFFFF792FE0CE000BFC5
:103AA00000BF00BFFFF77AFE06E0FFF761FE03E00C
:103AB000FFF7E4FD00E000BF00BF002043490870AD
:103AC0004349086010BD10B54248FFF7D9FCFFF725
:103AD00016FC10BD1CB50020009001903D48016807
:103AE0000091406801903B48FFF7CAFC394968469D
:103AF000FFF7DDFCFFF703FC1CBD1CB500200090A8
:103B000001903448FFF778FC0446601E314901EB10
:103B1000C0000168009140680190601E2D4901EBD2
:103B2000C0000021016041602A496846FFF7FEFCA1
:103B3000FFF7E5FB1CBD10B5274800782749097839
:103B400088420BDA2648007823490978884205DD47
:103B50002248007810B12048007858B91F480078F2
:103B600068B91D48007850B11D4800781A49097895
:103B7000884204DDFFF7A7FF00201949087010BD37
:103B800010B5164800781449097888420BDA1448B1
:103B9000007812490978884205DD0F48007810B195
:103BA0000E48007858B90C48007868B90B4800787E
:103BB00050B10B48007809490978884204DDFFF7C5
:103BC00089FF00200649087010BD00002500002074
:103BD000100000200C0100204400002045000020BF
:103BE0008D00002008B50121042000F014FE4FF4E0
:103BF0000060ADF8000048208DF803006946F148E8
:103C000000F046FB7E20FCF771FC0320FCF76EFC05
:103C10003320FCF76BFC0420FCF768FCEF20FCF77A
:103C200065FC08BD10B504467E20FCF75FFC04204F
:103C3000FCF75CFC4120FCF759FC0020FCF756FC2B
:103C40002046FCF753FCEF20FCF750FC10BD10B5EC
:103C500004467E20FCF74AFC0320FCF747FC312099
:103C6000FCF744FC2046FCF741FCEF20FCF73EFC4F
:103C700010BD70B505460C466078092812DC012D90
:103C800005DC6178491CC8B2FFF7CCFF36E06078EC
:103C900088B36178491CC8B2FFF7C4FF1F20FFF743
:103CA000C1FF2BE060780F2808DC60780A2805DB6C
:103CB00061781731C8B2FFF7B5FF1FE060781038A0
:103CC000052819D2DFE800F003070B0F13002820A6
:103CD000FFF7A8FF11E02C20FFF7A4FF0DE02F2035
:103CE000FFF7A0FF09E03020FFF79CFF05E035203B
:103CF000FFF798FF01E001E000BF00BF70BD70B5A5
:103D000005460C464020FFF78DFF6078092805DC4A
:103D10006178491CC8B2FFF785FF2AE060780F2858
:103D200008DC60780A2805DB61781731C8B2FFF734
:103D300079FF1EE060781038052818D2DFE800F01F
:103D400003070B0F13002820FFF76CFF10E02C2057
:103D5000FFF768FF0CE02F20FFF764FF08E030203A
:103D6000FFF760FF04E03520FFF75CFF00E000BFD5
:103D700000BF4120FFF756FF70BD70B505460C46E9
:103D8000012D05DCA178491CC8B2FFF74BFF0CE000
:103D9000A07850B1A178491CC8B2FFF743FF1D209D
:103DA000FFF740FF1E20FFF73DFF70BD70B50546D1
:103DB0000C46012D05DCE178491CC8B2FFF732FF43
:103DC00015E0E07898B1E07801280BD1207918B996
:103DD0000B20FFF727FF0AE021790B31C8B2FFF76C
:103DE00021FF04E0E1781331C8B2FFF71BFF70BD7B
:103DF00070B505460C46012D05DC2179491CC8B279
:103E0000FFF710FF09E0207938B1E078012804D0ED
:103E10002179491CC8B2FFF705FF70BD10B50446F3
:103E2000042C06D0052C08D0062C0AD0072C10D163
:103E30000BE03E20FFF7F6FE0CE03C20FFF7F2FE21
:103E400008E03D20FFF7EEFE04E06820FFF7EAFE01
:103E500000E000BF00BF10BD70B504460D46032C46
:103E60000CDC29462046FFF788FF29462046FFF74D
:103E70009DFF29462046FFF7BBFF02E02046FFF7E3
:103E8000CDFF70BD10B50446322C05DA04F14201B5
:103E9000C8B2FFF7C7FE04E0342C02D16820FFF758
:103EA000C1FE10BD70B505460E461446342C01D037
:103EB000262C03D16820FFF7B5FE03E031462846E3
:103EC000FFF7CAFF70BD2DE9F04105460F461646C3
:103ED0001C46032E35DC3E20FFF7A4FE0F2C02D13A
:103EE0003F20FFF79FFE3848007828B13648007819
:103EF000012804D1022E02DB6920FFF793FE0F2C6C
:103F000003D039462846FFF7B4FE39462846FFF766
:103F1000A3FF2D480078012804D1012D02DC69207F
:103F2000FFF780FE0F2C04D139462846FFF7E7FE45
:103F30000CE0012D0AD0032D08D02046FFF7A2FF88
:103F400004E0224639462846FFF7ACFFBDE8F08181
:103F50002DE9F04104460D4616461F46DDF818804F
:103F6000B8F1010F0BDD194880F80080C6600774B6
:103F70004470801C296801606968416005E03B4627
:103F8000324629462046FFF79EFFBDE8F08110B576
:103F90000E480078002814DD0D48007888B10D48DF
:103FA000006870B100200A49087008490B7C0A7B40
:103FB0004878891CFFF787FF04480078401E0349B2
:103FC000087010BD00080140770000202C0400207C
:103FD000AF0000202C01214231490143314A1160D8
:103FE000704770B5002100230F22C4780CB32D4C0C
:103FF000246804F4E064C4F5E064210AC1F1040318
:10400000CA40447804FA03F184781440214309013A
:10401000254C0678A155047804F01F050124AC4016
:1040200005786D114FF0E02606EB8505C5F80041D7
:1040300009E0047804F01F050124AC401B4D06780C
:10404000761145F8264070BD194A0A400243154BC7
:104050001B1F1A60704739B1124A121D12680243C1
:10406000104B1B1D1A6006E00E4A121D1268824397
:104070000C4B1B1D1A607047042808D14FF0E0213B
:10408000096941F004014FF0E022116107E04FF0AF
:10409000E021096921F004014FF0E022116170472D
:1040A0000000FA050CED00E000E400E080E100E033
:1040B00080FFFF1F002044490860091D0860091D9A
:1040C0000860091D086041483F4914310860704785
:1040D00000213D498279002A3AD00A4612680368D5
:1040E0009A430B461A600A1D126803689A430B1D17
:1040F0001A60027911440A6803681A430A60324A56
:104100000832126803689A432F4B08331A601A1D4D
:10411000126803689A432C4B0C331A604279102AB8
:104120000ED11A1F126803681A43274B08331A600E
:104130001A1D126803681A43234B0C331A600DE0F2
:104140002149427911440A6803681A430A6005E06C
:10415000027911440A6803689A430A607047002193
:10416000016001710C214171002181717047164974
:10417000103109680143144A10321160704701463A
:104180000020114A143212680A4201D0012000E0D6
:10419000002070470C491431086070470146002028
:1041A0000022094B1B6803EA0102074B14331B680A
:1041B0000B4202D00AB1012000E000207047024902
:1041C000143108607047000000040140FFFF0F0039
:1041D00010B50446CA48844208D10121042000F0E9
:1041E00034FB0021042000F030FB46E0C548844247
:1041F00008D10121082000F028FB0021082000F050
:1042000024FB3AE0C048844208D10121102000F08C
:104210001CFB0021102000F018FB2EE0BB4884425C
:1042200008D10121202000F010FB0021202000F007
:104230000CFB22E0B648844208D10121402000F066
:1042400004FB0021402000F000FB16E0B14884424E
:1042500008D10121802000F0F8FA0021802000F030
:10426000F4FA0AE0AC48844207D10121801500F03D
:10427000ECFA0021A01500F0E8FA10BD10B50121FC
:10428000084600F0E2FA0021012000F0DEFA10BD3D
:104290002DE9F041024600250026002000230024DD
:1042A000002791F803C00CF00F0591F803C01CF033
:1042B000100F03D091F802C04CEA050591F800C038
:1042C000BCF1000F31D0146800202BE04FF0010C3E
:1042D0000CFA00F3B1F800C00CEA03069E4220D1AC
:1042E00083004FF00F0C0CFA03F7BC4305FA03FCF4
:1042F0004CEA040491F803C0BCF1280F06D14FF03A
:10430000010C0CFA00FCC2F814C00AE091F803C0DA
:10431000BCF1480F05D14FF0010C0CFA00FCC2F8BB
:1043200010C0401C0828D1D31460B1F800C0BCF103
:10433000FF0F34DD546800202EE000F1080C4FF030
:10434000010808FA0CF3B1F800C00CEA03069E421B
:1043500021D183004FF00F0C0CFA03F7BC4305FA90
:1043600003FC4CEA040491F803C0BCF1280F05D10A
:1043700000F1080C08FA0CF8C2F8148091F803C098
:10438000BCF1480F07D100F1080C4FF0010808FA02
:104390000CF8C2F81080401C0828CED35460BDE849
:1043A000F0814FF6FF710180022181700421C170FC
:1043B00070470246002093680B4201D0012000E0C4
:1043C000002070470146886880B27047024600208E
:1043D000D3680B4201D0012000E000207047014665
:1043E000C86880B2704701617047416170470AB187
:1043F000016100E041617047C16070474FF4803255
:104400000A438261816182618269826970470246E2
:104410000020424B18684FF68073184040EA0210A3
:1044200008433E4B186070473D49C8617047F0B57E
:104430000A46002300240021002500F00046B6F1C2
:10444000004F02D1354EF16901E0344E7168C0F37E
:10445000034583B200F44016B6F5401F08D121F0A1
:1044600070612E4E766826F070662C4F7E6012E0EA
:1044700000F48016B6F5801F06D1032606FA05F46F
:10448000A14341F0706106E0460D360103FA06F6DD
:10449000B14341F0706122B1460D360103FA06F6D0
:1044A000314300F00046B6F1004F02D11B4EF161DE
:1044B00001E01A4E7160F0BD30B500228B071C0F71
:1044C0000F2303FA04F2154B08338C1053F82430F1
:1044D0009343124C08348D1044F8253023468C1039
:1044E00053F824308C07240F00FA04F423430B4CB8
:1044F00008348D1044F8253030BD0A4908607047F3
:1045000000080140000C014000100140001401406F
:1045100000180140001C0140002001400000014043
:1045200000002042DC002042E448006840F0010026
:10453000E249086008464068E1490840DF494860B0
:1045400008460068DF490840DC4908600846006802
:1045500020F4802008600846406820F4FE0048608F
:104560004FF41F0088600020C8627047D349096873
:1045700021F48031D14A11601146096821F480216B
:104580001160B0F5803F03D0B0F5802F0ED106E06A
:10459000CA49096841F48031C84A116007E0C74937
:1045A000096841F4A021C54A116000E000BF00BFC6
:1045B000704710B501460022002300204A11012A4D
:1045C00002D1BE4C236806E0022A02D1BB4C236A0A
:1045D00001E0BA4C636A01F01F02012494401C42BE
:1045E00001D0012000E0002010BD38B5002000906F
:1045F0000024002500BF3120FFF7DBFF05460098AF
:10460000401C00900098B0F5A06F01D0002DF2D0B2
:104610003120FFF7CEFF08B1012400E0002420463E
:1046200038BD01460020A54A106820F0F80040EA95
:10463000C10010607047A44908607047024600201E
:104640009E4B586820F4741042EA010318439B4BB8
:10465000586070479C490866704702460020974B97
:10466000D86A9A4B184042EA01031843934BD86228
:10467000704701460020914A506820F0030008432B
:10468000506070478D48406800F00C00704701464C
:1046900000208A4A506820F0F000084350607047BC
:1046A00001460020854A506820F4E06008435060CD
:1046B000704701460020814A506820F4605040EA6B
:1046C000C1005060704729B17C4A527A02437B4B4B
:1046D0005A7204E0794A527A8243784B5A72704790
:1046E0007B490860704701460020744A506820F4F6
:1046F00040400843506070470021764A11706F4A6D
:1047000082F82010012802D0042808D103E00121FA
:10471000704A117004E005216E4A117000E000BF7C
:1047200000BF70476C49086070476449096A0143DB
:10473000624A11627047684944390860704770B531
:10474000002100230024002200255C4E766806F03C
:104750000C0121B1042905D0082921D105E05F4EC3
:10476000066020E05D4E06601DE0544E766806F45B
:104770007013524E766806F48034022606EB93439B
:104780001CB9574E5E43066009E04C4EF66A06F0CF
:104790000F06751C514EB6FBF5F65E43066002E04F
:1047A0004E4E066000BF00BF444E766806F0F00132
:1047B00009094C4E725C0668D64046603F4E7668EA
:1047C00006F4E061090A474E725C4668D64086608E
:1047D0003A4E766806F46051C90A424E725C4668E9
:1047E000D640C660354E766806F44041890B3E4E91
:1047F000725CC668B6FBF2F6066170BD29B12F4A3D
:10480000526902432D4B5A6104E02C4A526982439B
:104810002A4B5A61704729B1284A92690243274BB3
:104820009A6104E0254A92698243244B9A61704759
:1048300029B1224AD2690243204BDA6104E01F4ABF
:10484000D26982431D4BDA61704729B11B4AD26895
:1048500002431A4BDA6004E0184AD2688243174BCD
:10486000DA60704729B1154A12690243134B1A6185
:1048700004E0124A12698243104B1A6170471649CC
:104880004039086070471049C86470470B49C871C7
:1048900070470A48406A40F0807008494862704793
:1048A00001460020054A92680A4201D0012000E03A
:1048B00000207047014988727047000000100240D4
:1048C0000000FFF8FFFFF6FE00004242F0FFFEFF8F
:1048D000D8004242201002408004424200127A0076
:1048E00000093D00B0000020C000002010B50446C3
:1048F000FE48844208D10121C014FFF7A6FF002121
:10490000E014FFF7A2FFC4E0B4F1804F08D1012109
:104910000846FFF7A7FF00210120FFF7A3FFB8E03B
:10492000F348844208D101210220FFF79BFF0021B8
:104930000220FFF797FFACE0EE48844208D1012146
:104940000420FFF78FFF00210420FFF78BFFA0E07A
:10495000E948844208D101210820FFF783FF0021A4
:104960000820FFF77FFF94E0E448844208D101214A
:104970001020FFF777FF00211020FFF773FF88E07A
:10498000DF48844208D101212020FFF76BFF00217E
:104990002020FFF767FF7CE0DA48844208D101213C
:1049A0004014FFF752FF00216014FFF74EFF70E044
:1049B000D548844209D10121C804FFF746FF0021F0
:1049C0004FF40020FFF741FF63E0D048844209D153
:1049D00001210805FFF739FF00214FF48010FFF790
:1049E00034FF56E0CA48844209D101214805FFF747
:1049F0002CFF00214FF40010FFF727FF49E0C548C6
:104A0000844208D101214020FFF72CFF00214020E3
:104A1000FFF728FF3DE0C048844208D101218020F3
:104A2000FFF720FF00218020FFF71CFF31E0BB488B
:104A3000844208D101218015FFF714FF0021A01541
:104A4000FFF710FF25E0B648844209D10121080490
:104A5000FFF7FBFE00214FF48030FFF7F6FE18E071
:104A6000B048844209D101214804FFF7EEFE00213D
:104A70004FF40030FFF7E9FE0BE0AB48844208D169
:104A800001218804FFF7E1FE00214FF48020FFF7A9
:104A9000DCFE10BD00220288944B98420ED0994B48
:104AA00098420BD0B0F1804F08D0914B984205D07E
:104AB000904B984202D0904B984204D14FF68F739E
:104AC0001A404B881A438D4B984207D08C4B984222
:104AD00004D04FF6FF431A40CB881A4302808B88DC
:104AE00083850B880385814B98420BD0854B984278
:104AF00008D08B4B984205D08A4B984202D08A4B03
:104B0000984201D10B7A038601238382704770B5E6
:104B1000002400220023058C4FF6FE7635400584E4
:104B2000028C8388048B4FF68F752C40B51E2C4069
:104B30000D882C43751E2A400D892A434D882A432F
:104B40006A4DA8420BD06F4DA84208D0744DA842C0
:104B500005D0744DA84202D0734DA84213D14FF630
:104B6000F7752A404D892A434FF6FB752A408D88F8
:104B70002A434FF6FF652B404FF6FF552B408D899A
:104B80002B43CD892B4383800483CD888586028483
:104B900070BD70B5002400220023058C4FF6EF761F
:104BA00035400584028C8388048B48F6FF752C40C1
:104BB0004FF6FF452C400D884FF6FF7606EA052597
:104BC0002C434FF6DF752A400D8906EA05152A4366
:104BD0004D8806EA05152A43444DA84202D0494DA6
:104BE000A8421DD14FF67F752A404D894FF6FF76BA
:104BF00006EA05152A434FF6BF752A408D8806EA56
:104C000005152A434FF6FF352B404FF2FF752B4019
:104C10008D8906EA85052B43CD8906EA85052B4358
:104C200083800483CD880587028470BD70B500241D
:104C300000220023058C4FF6FF6635400584028C68
:104C40008388848B4FF68F752C404FF6FC752C4073
:104C50000D882C434FF6FF552A400D894FF6FF76FD
:104C600006EA05252A434D8806EA05252A431F4DF5
:104C7000A84202D0234DA8421DD14FF2FF752A4011
:104C80004D894FF6FF7606EA05252A434FF6FF3594
:104C90002A408D8806EA05252A434EF6FF752B40EB
:104CA0004DF6FF752B408D8906EA05152B43CD89FE
:104CB00006EA05152B4383808483CD88858702848B
:104CC00070BD70B5002200230024058C4EF6FF76DF
:104CD00035400584038C8488828B48F6FF752A4012
:104CE0004FF6FF452A400D8820E00000002C0140CF
:104CF0000004004000080040000C0040001000408C
:104D00000014004000340140004C014000500140BC
:104D10000054014000180040001C004000200040EA
:104D20000040014000440140004801404FF6FF763A
:104D300006EA05252A434DF6FF752B400D8906EA44
:104D400005352B434D8806EA05352B43FA4DA8421D
:104D500002D0FA4DA84208D14BF6FF752C408D8940
:104D60004FF6FF7606EA85152C4384808283CD8832
:104D7000A0F84050038470BD828B4FF2FF331A407D
:104D80008283828B4FF6FF7303EA01231A438283E7
:104D90007047F0B50C461546002200210026078C0E
:104DA0004EF6FF7C07EA0C070784828B018C4FF6D6
:104DB000FF7707EA043640F6FF473A404FF6FF77A1
:104DC00007EA05273A434FF6FF7707EA03373A43E6
:104DD000D94FB8420ED0D94FB8420BD0B0F1804F66
:104DE00008D0D74FB84205D0D64FB84202D0D64FE0
:104DF000B84206D14DF6FF77394046F48057394323
:104E000005E047F6FF57394044F480573943828321
:104E10000184F0BD828B4FF6F3731A408283828B3C
:104E20000A4382837047F0B50C46154600220021E4
:104E30000026078C4FF6FF6C07EA0C070784828B6D
:104E4000018C4FF6FF7707EA04264FF60C773A40BD
:104E50004FF6FF7707EA03172F433A43B64FB8429E
:104E60000ED0B64FB8420BD0B0F1804F08D0B44F3F
:104E7000B84205D0B34FB84202D0B34FB84206D1C2
:104E80004FF6FF57394046F48077394305E04FF23B
:104E9000FF57394044F48077394382830184F0BD61
:104EA000028B4FF2FF331A400283028B4FF6FF73DF
:104EB00003EA01231A4302837047F0B50C461546F6
:104EC000002200210026078C4FF6EF7C07EA0C0732
:104ED0000784028B018C4FF6FF7707EA041640F631
:104EE000FF473A404FF6FF7707EA03373A434FF65A
:104EF000FF7707EA05273A438F4FB8420ED08F4F0E
:104F0000B8420BD0B0F1804F08D08D4FB84205D0D9
:104F10008C4FB84202D08C4FB84206D14FF6DF77A3
:104F2000394046F01007394305E04FF65F773940C6
:104F300044F01007394302830184F0BD028B4FF621
:104F4000F3731A400283028B0A4302837047F0B561
:104F50000C46154600220021068C4FF6FE773E4097
:104F60000684028B018C4FF60C7632407E1C06EADA
:104F700003162E433243704EB0420ED06F4EB042F5
:104F80000BD0B0F1804F08D06D4EB04205D06D4EC1
:104F9000B04202D06C4EB04206D14FF6FD763140A1
:104FA00044F00106314305E04FF6F576314044F018
:104FB0000106314302830184F0BD70B505460C46FD
:104FC0005D4885420ED05D4885420BD0B5F1804FDB
:104FD00008D05B48854205D05A48854202D05A48DD
:104FE000854200D100E000BF208850B92389A28803
:104FF00061882846FFF7ABFFE1882846FFF79EFF50
:1050000025E0208804280AD12389A28861882846BF
:10501000FFF753FFE1882846FFF742FF17E020889B
:1050200008280AD12389A28861882846FFF7FBFE59
:10503000E1882846FFF7EEFE09E02389A28861880F
:105040002846FFF7A6FEE1882846FFF795FE70BDCB
:105050002DE9F04105460C4600260127608808B975
:10506000022600E00026A088012801D1022700E0E6
:1050700001272088A0B92389A28861882846FFF7E4
:1050800066FFE1882846FFF759FF23893A463146F3
:105090002846FFF712FFE1882846FFF701FF13E0DB
:1050A0002389A28861882846FFF707FFE188284600
:1050B000FFF7F6FE23893A4631462846FFF747FFB9
:1050C000E1882846FFF73AFFBDE8F0810A884B885F
:1050D0001A438B881A43CB881A430B891A434B898E
:1050E0001A438B891A43A0F8442070474FF6FF718A
:1050F000818000210180C1804180017270470021C0
:10510000018041808180C180018141818181C18193
:105110007047002101804180012181800021C180F0
:10512000018170470021018041808180C18001811F
:105130004181818170470000002C01400034014012
:105140000004004000080040000C004021B102882B
:1051500042F00102028004E002884FF6FE731A401A
:105160000280704731B1B0F8442042F40042A0F808
:10517000442005E0B0F84420C2F30E02A0F8442019
:1051800070471AB183890B43838102E083898B4383
:10519000838170478182704741EA0203A0F848305A
:1051A00070471AB183890B43838102E083898B4363
:1051B0008381704701894FF6F87211400181704771
:1051C0000A46002101894FF68F731940114301816E
:1051D000704730B504460D4629462046FFF7F0FFDC
:1051E000208940F00700208130BD2DE9F0410446C0
:1051F0000D4616461F46602D06D13B46012231461C
:105200002046FFF75AFE05E03B4601223146204684
:10521000FFF79DFE29462046FFF7D2FF208940F088
:1052200007002081BDE8F08130B50C4600210189DE
:10523000C9B24FF6FF7505EA0325154325432943F7
:10524000018130BD2DE9F04105460E4617469846CE
:10525000002443463A4631462846FFF7E5FF2C89AD
:105260004FF6F870044044F007044FF68F70044086
:1052700044F070042C81BDE8F081F0B504460D4681
:1052800016461F463B46324629462046FFF7CCFFCE
:10529000208940F480402081F0BD018582827047E2
:1052A0000A46002101884FF68F731940114301808F
:1052B0007047F0B50C4615461E460021002200231B
:1052C0000189028B038C4FF6F877394021434FF662
:1052D000FC473A4040F201173A434FF6DD773B4036
:1052E0004FF6FF7707EA06172F433B4301810283FE
:1052F0000384F0BD0A460021018B4FF68F731940DD
:105300001143018370470A460021018B48F6FF7361
:1053100019404FF6FF7303EA0223194301837047D4
:105320000A460021818B4FF68F7319401143818308
:1053300070470A460021818B48F6FF7319404FF6EB
:10534000FF7303EA022319438183704721B1028866
:1053500042F08002028004E002884FF67F731A4018
:105360000280704721B1828842F00402828004E00A
:1053700082884FF6FB731A408280704721B1828881
:1053800042F00802828004E082884FF6F7731A40E8
:105390008280704721B1828842F00102828004E05D
:1053A00082884FF6FE731A40828070470A460021B9
:1053B000018B4FF6F77319401143018370470A467A
:1053C0000021018B4FF2FF7319404FF6FF7303EA80
:1053D00002231943018370470A460021818B4FF64F
:1053E000F77319401143818370470A460021818B6E
:1053F0004FF2FF7319404FF6FF7303EA022319437C
:10540000818370470A460021018B4FF6FB731940D8
:105410001143018370470A460021018B4FF6FF3389
:1054200019404FF6FF7303EA0223194301837047C3
:105430000A460021818B4FF6FB731940114381838B
:1054400070470A460021818B4FF6FF3319404FF613
:10545000FF7303EA02231943818370470A46002140
:10546000018B4FF67F7319401143018370470A4641
:105470000021018BC1F30E014FF6FF7303EA0223F3
:105480001943018370470A460021818B4FF67F73D1
:1054900019401143818370470A460021818BC1F373
:1054A0000E014FF6FF7303EA02231943818370470D
:1054B0000A460021018C4FF6FD7319401143018407
:1054C00070470A460021018C4FF6F77319401143CB
:1054D000018470470A460021018C4FF6DF731940A2
:1054E0004FF6FF7303EA02131943018470470A461B
:1054F0000021018C4FF67F7319404FF6FF7303EACA
:1055000002131943018470470A460021018C4FF6AB
:10551000FF5319404FF6FF7303EA02231943018436
:1055200070470A460021018C4FF2FF7319404FF675
:10553000FF7303EA02231943018470470A460021DE
:10554000018C4DF6FF7319404FF6FF7303EA0233E7
:1055500019430184704730B5002301248C40A3B265
:10556000048C9C430484048C02FA01F5ADB22C43F4
:10557000048430BD30B5002304248C40A3B2048CD5
:105580009C430484048C02FA01F5ADB22C430484DC
:1055900030BD70B5034600200024184618300125A0
:1055A0008D40ACB21D8CA5431D8409B1082909D1D9
:1055B00000EB6100056825F070050560056815437E
:1055C00005600EE00D1FC5F34E052844056825F45F
:1055D000E045056005684FF6FF7606EA022635438A
:1055E000056070BD21B1028842F00202028004E031
:1055F00002884FF6FD731A400280704721B102887D
:1056000042F00402028004E002884FF6FB731A4065
:105610000280704721B1828842F08002828004E0DB
:1056200082884FF67F731A408280704702884FF657
:10563000F7731A40028002880A430280704782880A
:105640004FF68F731A40828082880A4382807047A7
:1056500002894FF6F8731A40028102890A430281D7
:10566000704702894FF67F731A40028102890A430C
:1056700002817047818470478185704781867047B9
:105680000187704781877047A0F8401070470288F3
:105690004FF6FF431A40028002880A430280704797
:1056A0000146888E70470146088F70470146888FF3
:1056B00070470146B1F8400070470146888C70473A
:1056C0000146088D704702460020138A0B4201D024
:1056D000012000E000207047CA430282704730B5C5
:1056E0000246002000230024158A05EA010395895B
:1056F00005EA010413B10CB1012000E0002030BD27
:10570000CA4302827047000010B50446FB48844239
:1057100009D101218803FFF798F800214FF4804058
:10572000FFF793F832E0F648844209D1012148049A
:10573000FFF798F800214FF40030FFF793F825E0C9
:10574000F048844209D101218804FFF78BF8002139
:105750004FF48020FFF786F818E0EB48844209D127
:105760000121C804FFF77EF800214FF40020FFF765
:1057700079F80BE0E548844208D101210805FFF7DC
:1057800071F800214FF48010FFF76CF810BD2DE97F
:10579000F04786B005460E460024A24600BFA1464B
:1057A0000027B08900B100BF2F462C8A4CF6FF704D
:1057B0000440F08804432C82AC894EF6F310044078
:1057C000B08831890843718908430443AC81AC8AAD
:1057D0004FF6FF400440B0890443AC8201A8FEF7B5
:1057E000AEFFC648874202D1DDF810A001E0DDF827
:1057F0000CA0A88910F4004F08D00AEBCA0000EBF7
:105800000A1031684900B0FBF1F807E00AEBCA0062
:1058100000EB0A1031688900B0FBF1F86420B8FB96
:10582000F0F004012009642101FB1089A88910F41B
:10583000004F08D0322000EBC900B0FBF1F000F0BF
:105840000700044308E0322000EB09106421B0FB9C
:10585000F1F000F00F0004432C8106B0BDE8F087A2
:105860004FF41651016000218180C18001810C211B
:10587000418100218181704710B502460020108AC5
:105880004FF2FF0318400B884C8823438C88234336
:10589000CC8823431843108210BD00210180418031
:1058A0008180C180704721B1828942F40052828197
:1058B00004E082894DF6FF731A4082817047F0B58B
:1058C00003460024002600250020A1F510676A3F4A
:1058D00000D100BF1846C1F3421401F01F06012792
:1058E00007FA06F5012C01D10C3004E0022C01D19D
:1058F000103000E014301AB107682F43076002E04F
:105900000768AF430760F0BD1AB1838A0B438382F7
:1059100002E0838A8B4383827047028A4FF6F073DA
:105920001A400282028A0A430282704782894FF239
:10593000FF731A40828182890A438281704721B1B4
:10594000828942F00202828104E082894FF6FD736F
:105950001A4082817047028A4FF6DF731A40028232
:10596000028A0A430282704721B1028A42F48042CD
:10597000028204E0028A4BF6FF731A4002827047EB
:10598000C1F308028280704701468888C0F308008E
:105990007047818941F0010181817047028BD2B249
:1059A0000283028B42EA012202837047028B02F4D7
:1059B0007F420283028B0A430283704721B1828AAD
:1059C00042F02002828204E0828A4FF6DF731A409E
:1059D0008282704721B1828A42F01002828204E002
:1059E000828A4FF6EF731A408282704721B1828A11
:1059F00042F00802828204E0828A4FF6F7731A406E
:105A00008282704721B1828942F40042828103E0A0
:105A10008289C2F30E028281704721B1828A42F4E8
:105A20000062828204E0828A4FF2FF731A4082820F
:105A30007047828A4FF6FB731A408282828A0A4339
:105A40008282704721B1828A42F00202828204E09F
:105A5000828A4FF6FD731A40828270470246002008
:105A6000B1F5007F00D100BF13880B4201D00120A7
:105A700000E00020704701F40072B2F5007F00D111
:105A800000BFCA430280704770B50246002400235D
:105A900000250020A1F510666A3E00D100BFC1F3C9
:105AA000421501F01F03012606FA03F3012D02D16E
:105AB0009689334006E0022D02D1168A334001E078
:105AC000968A33400C12012606FA04F416883440F4
:105AD00013B10CB1012000E0002070BD10B5002210
