:020000040800F2
:100000009008002001010008B5010008B7010008B0
:10001000BB010008BF010008C30100080000000088
:10002000000000000000000000000000C9010008FE
:10003000C701000800000000CB010008E301000830
:100040001B0100081B0100081B010008CD0100086E
:100050001B0100081B0100081B0100081B01000810
:100060001B0100081B0100081B0100081B01000800
:100070001B0100081B0100081B0100081B010008F0
:100080001B0100081B0100081B0100081B010008E0
:100090001B0100081B0100081B0100081B010008D0
:1000A0001B0100081B0100081B0100081B010008C0
:1000B0001B0100081B0100081B0100081B010008B0
:1000C0001B0100081B0100081B0100081B010008A0
:1000D0001B0100082B0500084F0400081B01000845
:1000E0004D0500081B0100081B010008DFF80CD0BB
:1000F00006F0CEFA004800472501000890080020CD
:100100000648804706480047FEE7FEE7FEE7FEE7B1
:10011000FEE7FEE7FEE7FEE7FEE7FEE74D650008C7
:10012000ED0000084FF4A06004F0AEFA00F0C2F851
:1001300000F0F9F800F09EF900F0DBF903F04EFF53
:1001400000F01EF900F05CF900200F49087000F083
:1001500088FA00F0F4FA00F0A7FC00F0E5FE01F0E8
:10016000A7FB04F035F9094804F06FF908A006F080
:10017000A1FA0BA006F09EFA05E003F08EFD01F057
:10018000E5FB04F000F9F8E76004002074040020A7
:1001900048656C6C6F2073746D33322E2000000044
:1001A00044656C6574655F416C6C5F44617461208B
:1001B0000D0A2000704700BFFEE700BFFEE700BF4A
:1001C000FEE700BFFEE770477047704710B501209B
:1001D00005F034F820B1012005F040F805F002F8F0
:1001E00010BD23480068401C21490860084600688B
:1001F00064280AD91F480078401C1E490870012055
:100200001D49087000201A4908601C480068401CFD
:100210001A49086008460068B0F5C87F02D9002076
:100220001749086017480078401C164908700846AE
:100230000078C72807DD14480078401C1249087070
:100240000020104908701148007860B91048007803
:10025000401C0F490870084600780F2806DD012071
:100260000A49087002E00020094908707047000040
:100270000400002008000020010000208800002069
:10028000840000208C0000208D000020B20000209F
:10029000B100002010B5002807DA0A07140E344A0E
:1002A00000F00F031B1FD45403E00A07130E314A5A
:1002B000135410BD10B504F057FD012004F0DBFD10
:1002C00000BF212004F095FD0028FAD04FF48011E2
:1002D000002004F0D3FD002004F0F9FD002004F01C
:1002E000FFFD4FF4806004F004FE012004F0D2FD15
:1002F00000BF392004F07DFD0028FAD0022004F070
:10030000D8FD00BF04F0DEFD0828FBD1012108461E
:1003100004F0A1FE0121184804F043FC0121C803A8
:1003200004F03FFC10BD10B514480068C821B0FBB4
:10033000F1F4B4F1807F01D3012011E024F07F407B
:10034000401E4FF0E02148610F214FF0FF30FFF7D2
:10035000A1FF00204FF0E021886107200861002004
:1003600008B100BFFEE70021481EFFF793FF10BD54
:1003700018ED00E000E400E000023000F80000208A
:1003800000B585B00121042004F065FE0121480478
:1003900004F06EFE0420ADF8100018208DF8130054
:1003A00003208DF8120004A92F4804F02BFB08202D
:1003B000ADF8100004208DF8130004A92A4804F0B9
:1003C00021FB4FF4165000900020ADF80400ADF86A
:1003D0000600ADF80800ADF80C000C20ADF80A00DE
:1003E0006946224805F095FE012240F225511F483A
:1003F00005F027FF01211D4805F017FF05B000BDDE
:1004000008B526208DF8000001208DF8010000209D
:100410008DF8020001208DF80300684604F039F9D8
:1004200008BD70B504460D46E1B2104805F06AFFFC
:1004300000BF0E48008810F0800FFAD0204670BD33
:1004400010B5044621460AA006F034F910BD10B5D7
:1004500040F22551054805F0D9FF012803D120219C
:10046000024805F0CAFF10BD0008014000440040EA
:100470002563000000B585B0012144F2040004F0BA
:10048000EAFD4FF40070ADF8100018208DF813004D
:1004900003208DF8120004A92A4804F0B3FA4FF49F
:1004A0008060ADF8100004208DF8130004A92548E1
:1004B00004F0A8FA4FF4165000900020ADF80400A4
:1004C000ADF80600ADF80800ADF80C000C20ADF852
:1004D0000A0069461C4805F01CFE012240F2255125
:1004E000194805F0AEFE0121174805F09EFE05B043
:1004F00000BD08B525208DF8000001208DF8010011
:100500008DF802008DF80300684604F0C2F808BDBB
:1005100010B5044621460C4805F0F4FE00BF0A4819
:10052000008810F0800FFAD010BD10B540F22551B0
:10053000054805F06BFF012803D12021024805F092
:100540005CFF10BD000801400038014070B5002577
:100550006948006810F4004F00D001254FF080403A
:10056000848C00204FF080418884002D45D0B4F564
:10057000967F5FDD6148007818285BDD6048006881
:1005800040085F4908600846006820F07F40086026
:10059000084600685B49084229D0594800685A4912
:1005A0000968884212D159480078401C57490870A0
:1005B00008460078FA2801DDFA20087050480068E3
:1005C000534908600120534908700DE000204F494D
:1005D00008704B4800684C490860494800684C491D
:1005E000086001204B49087000204B49086000203A
:1005F00043490860414908701CE0152C01DBD22CEE
:1006000007DD00203D4908703D4908603F490870FA
:1006100010E03B480068400039490860552C04DD73
:100620000846006840F00100086034480078401C2B
:10063000324908704FF4004004F07BF970BD08B5F2
:100640000121042004F007FD4FF40040ADF8000044
:1006500048208DF8030069462748083804F0D2F98D
:1006600008BD10B586B00024FFF7E9FF0121084658
:1006700004F0F1FC0F21002004F0D8FA4FF4004000
:10068000049000208DF8140010208DF81500012032
:100690008DF8160004A804F0D5F828208DF80C0079
:1006A00000208DF80D008DF80E0001208DF80F0050
:1006B00003A803F0EEFF0121084604F0D9FC174817
:1006C00000681749B0FBF1F0401E84B24FF6FF708E
:1006D000ADF80400ADF800400020ADF80600ADF81C
:1006E000020069464FF0804004F096FE0121880721
:1006F00005F0EEF906B010BD080801402400002006
:100700001C000020F0FFFF00200000202600002039
:10071000100000202500002088000020F8000020A4
:10072000A086010005E0022100BF4A1E92B211001E
:10073000FBD10200A0F1010398B2F4D1704708B5D3
:100740000121082004F087FC10208DF8030003200D
:100750008DF802004FF47870ADF800006946FE484D
:1007600004F050F948208DF803001020ADF8000087
:100770006946F94804F046F908BD30B50446002042
:10078000F6490860054618E00020F549086014F0B5
:10079000010F04D00120A1F10401086002E0002053
:1007A000F04908604FF00500FFF7BCFF0120EC495D
:1007B00008604FEA640405F10105082DE4D3002028
:1007C000E7490860E849C1F8A00130BD30B50446EA
:1007D0000020E6490860054617E00020E04908606F
:1007E00014F0010F03D00120DE49086002E0002070
:1007F000DC4908604FF00500FFF794FF0120D8495D
:1008000008604FEA640405F10105082DE5D30020D6
:10081000D3490860D449C1F8A00130BD30B50446C1
:100820000020D3490860054617E00020CC49086045
:1008300014F0010F03D00120CA49086002E0002033
:10084000C84908604FF00500FFF76CFF0120C4495C
:1008500008604FEA640405F10105082DE5D3002086
:10086000BF490860C049C1F8A00130BD10B50446B9
:100870000120BA4908604FF00500FFF753FF002040
:10088000B949C1F894012046FFF777FF10BDF8B5CC
:10089000FF26002000904220FFF7E8FF0120B54925
:1008A00008604FF00004CEE000251BE00020AC49BA
:1008B00008601DF804004FEA60000DF804004FF0D6
:1008C0000100A949C1F8A401AA48006828B11DF88F
:1008D000040040F080000DF804000520FFF722FF1F
:1008E000681CC5B2082DE1DB0520FFF71BFF9DF852
:1008F000000048B99DF8010030B99DF8020018B910
:100900009DF8030000286ED09DF80000102818D034
:1009100008DC01280DD002280DD004280DD00828AD
:1009200017D10CE020280ED040280ED0802810D1FE
:100930000DE019260EE011260CE009260AE001263A
:1009400008E01A2606E0122604E00A2602E0022643
:1009500000E000BF00BF9DF80100102818D008DC9F
:1009600001280DD002280DD004280DD0082817D159
:100970000CE020280ED040280ED0802810D10DE0A9
:100980001B260EE013260CE00B260AE0032608E0E7
:100990001C2606E0142604E00C2602E0042600E0F3
:1009A00000BF00BF9DF80200102818D008DC012805
:1009B0000DD002280DD004280DD0082818D10CE045
:1009C00020280ED040280FD0802811D10EE01D26FF
:1009D0000FE015260DE00D260BE0052609E01E268A
:1009E00007E0162605E02CE00E2602E0062600E0D1
:1009F00000BF00BF9DF80300102818D008DC0128B4
:100A00000DD002280DD004280DD0082817D10CE0F5
:100A100020280ED040280ED0802810D10DE01F26AF
:100A20000EE017260CE00F260AE0072608E0202635
:100A300006E0182604E0102602E0082600E000BFC9
:100A400000BF601CC4B2042CFFF62EAF0020444946
:100A500008604549C1F810014FF001003F490860A6
:100A60003046F8BD10B504460120404908604FF0FB
:100A70000500FFF757FE00203B49C1F898012046CA
:100A8000FFF7A4FE10BD10B50446012038490860E8
:100A90004FF00500FFF746FE00203349C1F89C01E6
:100AA0002046FFF7BBFE10BD10B54020FFF7DEFE6D
:100AB000C020FFF7DBFE00240AE02F49085DFFF7A6
:100AC0005CFE2D490831085DFFF757FE601CC4B27B
:100AD000082CF2DB294909788831C8B2FFF7C6FE35
:100AE00001201E4908604FF04000FFF7BBFFC02007
:100AF000FFF7B8FF00240BE01F491031085DFFF736
:100B000065FE1D491831085DFFF760FE601CC4B228
:100B1000082CF1DB194909788831C8B2FFF7A2FF28
:100B20000120124908604FF04000FFF7ACFFC020E1
:100B3000FFF7A9FF00240BE00F492031085DFFF704
:100B40006DFE0D492831085DFFF768FE601CC4B2D8
:100B5000082CF1DB094913E0000C0140948121428B
:100B6000A4812142A081214200802142988121421A
:100B70009C8121421081214210010020760000203A
:100B800009788831C8B2FFF77EFF0120D849086094
:100B900010BD10B53021D74805F06FFD10BD10B560
:100BA0000446FFF7F6FFD448C07BD2494870D248CC
:100BB000005D0870FFF778FF10BD10B50446FFF721
:100BC000E8FFCD48807BCB494870CB48005D08707A
:100BD000FFF76AFF10BD10B50446FFF7DAFF207873
:100BE0000A2190FBF1F0C449095CC248C172207827
:100BF0000A2190FBF1F201FB1200BF49095CBD48DC
:100C0000817260780A2190FBF1F0BB49095CB94818
:100C1000417260780A2190FBF1F201FB1200B649A3
:100C2000085CB4490872A0780A2190FBF1F0B2493F
:100C3000085CB049C871A0780A2190FBF1F201FB71
:100C40001200AD49085CAB498871E0780A2190FB3D
:100C5000F1F0A949085CA7494871E0780A2190FBA6
:100C6000F1F201FB1200A449085CA2490871207945
:100C70000A2190FBF1F0A049085C9E49C8702079D8
:100C80000A2190FBF1F201FB12009B49085C994993
:100C9000887060790A2190FBF1F09749085C9549CA
:100CA000487060790A2190FBF1F201FB1200924931
:100CB000085C90490870E0798F49095C8D480173A0
:100CC000FFF7F2FE10BD10B58C48007848B900203F
:100CD000884948700870FFF7E7FE012087490870CF
:100CE00005E08748FFF777FF00208449087010BDB2
:100CF00010B58448007848B900207E49C8708870D3
:100D0000FFF7D2FE01207F49087005E07C48FFF71D
:100D100062FF00207B49087010BD10B57A4800784A
:100D200048B90020734948710871FFF7BDFE0120E2
:100D30007549087005E07248FFF74DFF00207249C1
:100D4000087010BD10B57148007848B90020694995
:100D5000C8718871FFF7A8FE01206C49087005E092
:100D60006748FFF738FF00206849087010BD10B5CC
:100D70006748007858B900215E48417200205D49FB
:100D80000872FFF791FE01206149087005E05C4898
:100D9000FFF721FF00205E49087010BD10B55D48C7
:100DA000007840B9002153480173FFF77DFE012010
:100DB0005849087005E05248FFF70DFF00205549DB
:100DC000087010BD10B50446FFF7E3FE20784A49CD
:100DD000085C4849C87060784749085C4549887094
:100DE000A0784549085C43494870E0784249085C6E
:100DF00040490870FFF758FE10BD10B50446FFF7D4
:100E0000C8FE0A2094FBF0F03B49085C3949487061
:100E10000A2094FBF0F100FB11403749085C35498A
:100E20000870FFF741FE10BD10B50446FFF7B1FE94
:100E30000A2094FBF0F100FB11402F49085C2D497A
:100E40000870FFF731FE10BD10B504463248007837
:100E500040B9002027490870FFF726FE01202E49DF
:100E6000087005E02046FFF7ADFF00202A49087012
:100E700010BD10B504462948007840B900201D492E
:100E80004870FFF711FE01202449087005E0204654
:100E9000FFF798FF00202149087010BD10B50446E7
:100EA0001F48007840B9002012498870FFF7FCFD08
:100EB00001201B49087005E02046FFF783FF002052
:100EC0001749087010BD10B504461648007840B99F
:100ED00000200849C870FFF7E7FD0120114908709C
:100EE00005E02046FFF76EFF00200E49087010BD98
:100EF0009C81214210010020C26700082F000020C1
:100F000027000020300000203100002032000020A7
:100F1000330000203400002035000020360000207F
:100F2000370000203800002008B50121082004F017
:100F300092F814208DF8030003208DF8020080023F
:100F4000ADF800006946FE4803F05CFD10208DF806
:100F500003000002ADF800006946F94803F052FDB5
:100F60000120F8490860F849C1F8AC014FF00000D1
:100F7000F649086008BD06E0072100BF0A00A1F19C
:100F80000103D9B2FAD10200A0F1010398B2F3D162
:100F9000704710B50120EE4908604FF00500FFF7DB
:100FA000EAFF0120E849C1F8A8010520FFF7E3FFA7
:100FB0000020E74908604FF00500FFF7DCFF002044
:100FC000E149C1F8A8010520FFF7D5FF10BD70B5B4
:100FD000044600251FE014F0800F03D00120DC49F7
:100FE000086002E00020DA4908604FF00200FFF7D5
:100FF000C2FF0120D54908604FF00200FFF7BBFF98
:101000006006040E0020D049C1F8A8010220FFF7B5
:10101000B2FF681CC5B2082DDDDB0120CC49086099
:101020004FF00200FFF7A7FF0120C749C1F8A80150
:101030000220FFF7A0FFC748006808B1012070BD7B
:101040000020C24908604FF00200FFF794FF002023
:10105000BD49C1F8AC010220FFF78DFF0020EEE78B
:1010600070B500240120BA4908604FF0000517E070
:101070006006040E0120B54908604FF00200FFF73A
:101080007AFFB148D0F82C0108B144F001040020E7
:10109000AE4908604FF00200FFF76DFF681CC5B253
:1010A000082DE5DB204670BD10B50020A74908607B
:1010B0004FF00500FFF75FFF0020A349C1F8AC0126
:1010C0000520FFF758FF0120A04908604FF00500F8
:1010D000FFF751FF01209C49C1F8AC010520FFF743
:1010E0004AFF10BD2DE9F04106460C461746012582
:1010F000FFF74FFFA020FFF76AFF054615B101205B
:10110000BDE8F081C6F30420FFF761FF05460DB18D
:101110000120F5E7F0B2FFF75AFF05460DB10120B7
:10112000EEE7FFF736FFA120FFF751FF05460DB1AF
:101130000120E5E71AE0FFF793FF207000208449C3
:1011400008604FF00500FFF716FF01207E49C1F847
:10115000A8010520FFF70FFF00207C4908604FF031
:101160000500FFF708FF641C781E87B2012FE2DC40
:10117000FFF776FF20700120754908604FF00500E9
:10118000FFF7F9FE01207049C1F8A8010520FFF71B
:10119000F2FE00206D4908604FF00500FFF7EBFEFE
:1011A000FFF782FF0020ABE72DE9F0478046894634
:1011B00016460125002063490860044634E008EB28
:1011C000040087B2FFF7E5FEA020FFF700FF054609
:1011D00015B10120BDE8F087C7F30420FFF7F7FE43
:1011E00005460DB10120F5E7F8B2FFF7F0FE054620
:1011F0000DB10120EEE74FF0000A0DE019F80400F0
:10120000FFF7E5FE05460DB10120E3E7601C84B25F
:101210000AF1010000F0FF0AB245EFDBFFF744FFDF
:101220004FF4FA60FFF7A7FEB442C8DB012045493E
:1012300008604FF00000CDE72DE9FC410446002690
:10124000202500272AE0082269462846FFF74AFFA2
:10125000019810F07F4F1AD13F480078022806D13C
:101260003E4901980840019060680840606001981C
:10127000616888420DD13A480099016000203849E0
:1012800008717A2002F0CAFE0120BDE8FC8106B98F
:101290002E4605F1080085B2781C87B2B7F5007FAD
:1012A000D1DB082221463046FFF77EFF1EB17920B0
:1012B00002F0B4FE04E07A2002F0B0FE0120E4E780
:1012C0000020E2E72DE9FC41044600264FF4426588
:1012D00000272AE0082269462846FFF703FF019805
:1012E00010F07F4F1AD11C480078022806D11B4904
:1012F000019808400190606808406060019861684A
:1013000088420DD1174800990160002015490871E5
:101310007A2002F083FE0120BDE8FC8106B92E464A
:1013200005F1080085B2781C87B2202FD2DB082295
:1013300021463046FFF738FFCEB1792014E0000097
:10134000000C0140B081214200802142A88121424D
:10135000AC8121422C8121427E000020F0FFFF0061
:10136000480000205200002002F058FE04E07A20DD
:1013700002F054FE0120CFE70020CDE72DE9FC412B
:10138000044600264FF4026500272AE00822694639
:101390002846FFF7A7FE019810F07F4F1AD1FA48B0
:1013A0000078022806D1F949019808400190606848
:1013B000084060600198616888420DD1F448009946
:1013C00001600020F24908717A2002F027FE012016
:1013D000BDE8FC8106B92E4605F1080085B2781CEF
:1013E00087B2402FD2DB082221463046FFF7DCFED1
:1013F0001EB1792002F012FE04E07A2002F00EFE07
:101400000120E5E70020E3E72DE9FC410446002642
:101410004FF4226500272AE0082269462846FFF794
:1014200061FE019810F07F4F1AD1D748007802284A
:1014300006D1D64901980840019060680840606074
:101440000198616888420DD1D2480099016000205E
:10145000D04908717A2002F0E1FD0120BDE8FC814D
:1014600006B92E4605F1080085B2781C87B2402FD8
:10147000D2DB082221463046FFF796FE1EB17920C6
:1014800002F0CCFD04E07A2002F0C8FD0120E5E77F
:101490000020E3E770B58AB0054620262021684683
:1014A00005F0EBF8FF222021684605F0DFF82868F8
:1014B00080B900240BE006EB441188B22022694673
:1014C000FFF772FE6420FFF756FD601C84B2802C8B
:1014D000F1DB22E000241CE0082208A93046FFF7D7
:1014E00001FE099810F07F4F0ED1286808998842B4
:1014F0000AD1FF22082108A805F0B8F8082208A997
:101500003046FFF751FE07E006F1080086B2601C86
:1015100084B2B4F5007FDFDB00BF00200AB070BDED
:1015200070B58AB005464FF442662021684605F042
:10153000A4F8FF222021684605F098F8286880B9B1
:1015400000240BE006EB441188B220226946FFF725
:101550002BFE6420FFF70FFD601C84B2082CF1DB2A
:1015600021E000241CE0082208A93046FFF7BAFD5C
:10157000099810F07F4F0ED12868089988420AD147
:10158000FF22082108A805F071F8082208A93046B2
:10159000FFF70AFE06E006F1080086B2601C84B27E
:1015A000202CE0DB00BF00200AB070BD70B58AB00F
:1015B00005464FF402662021684605F05EF8FF22DA
:1015C0002021684605F052F8286880B900240BE015
:1015D00006EB441188B220226946FFF7E5FD64203E
:1015E000FFF7C9FC601C84B2102CF1DB21E0002461
:1015F0001CE0082208A93046FFF774FD099810F096
:101600007F4F0ED12868089988420AD1FF2208210D
:1016100008A805F02BF8082208A93046FFF7C4FDFA
:1016200006E006F1080086B2601C84B2402CE0DBC4
:1016300000BF00200AB070BD70B58AB005464FF4F7
:1016400022662021684605F018F8FF22202168460E
:1016500005F00CF8286880B900240BE006EB441173
:1016600088B220226946FFF79FFD6420FFF783FCC4
:10167000601C84B2102CF1DB21E000241CE0082265
:1016800008A93046FFF72EFD099810F07F4F0ED1C4
:101690002868089988420AD1FF22082108A804F086
:1016A000E5FF082208A93046FFF77EFD06E006F1B7
:1016B000080086B2601C84B2402CE0DB00BF002032
:1016C0000AB070BD10B588B0202233A1684604F07E
:1016D000BBFF002408E0002101EB441188B2202266
:1016E0006946FFF761FD641CA82CF4D308B010BD57
:1016F0002DE9FC4105460C46202600271DE0082266
:1017000069463046FFF7EEFC1F480078022805D1F5
:101710001E49019808400190084604400198A042E3
:1017200006D1DDE90001C5E900010120BDE8FC8129
:1017300006F1080086B2781C87B2B7F5007FDEDBC1
:101740000020F3E72DE9FC4105460C464FF4026604
:10175000002736E0082269463046FFF7C3FC0A48F6
:101760000078022805D109490198084001900846EF
:1017700004400198A0421FD1DDE90001C5E9000144
:101780000120BDE8FC8100007E000020F0FFFF008A
:101790005C00002066000020FFFFFFFFFFFFFFFF4F
:1017A000FFFFFFFFFFFFFFFFFFFFFFFFFFFFFFFF49
:1017B000FFFFFFFFFFFFFFFF06F1080086B2781C66
:1017C00087B2402FC6DB0020BDE8FC812DE9FC413B
:1017D00005460C464FF4226600271DE008226946A4
:1017E0003046FFF77FFC30480078022805D12F49AA
:1017F000019808400190084604400198A04206D193
:10180000DDE90001C5E900010120BDE8FC8106F128
:10181000080086B2781C87B2402FDFDB0020F4E797
:1018200070B504460D4629462046FFF7CFFF08B1A4
:10183000012070BD29462046FFF784FF08B1022031
:10184000F7E729462046FFF753FF08B10320F0E7EA
:101850000020EEE72DE9FC4105460C464FF44266B8
:1018600000271DE0082269463046FFF73BFC0E4882
:101870000078022805D10D490198084001900846DA
:1018800004400198A04206D1DDE90001C5E900014C
:101890000120BDE8FC8106F1080086B2781C87B201
:1018A000202FDFDB0020F4E77E000020F0FFFF00A8
:1018B00008B50121042003F0CEFB3320ADF8000071
:1018C00048208DF803006946FE4803F09BF808BDE8
:1018D00006E00C2100BF0A00A1F10103D9B2FAD140
:1018E0000200A0F1010398B2F3D1704710B5FF24B4
:1018F000F548006840B1F548006828B1F448006830
:1019000010B1F4480068F8B942F21070FFF7E0FF38
:10191000ED48006840B1ED48006828B1EC48006827
:1019200010B1EC48006878B9E748006800B90124B4
:10193000E648006800B90224E548006800B90324BD
:10194000E448006800B90424204610BD10B500200A
:10195000E1490870FFF7CAFFE049087008460078BF
:10196000FF2847D1DE480078012843D1DD480078C0
:1019700018B1DC4800781E2838DD0020D8490870EE
:10198000D9480078012806D0022821D0042823D085
:10199000082829D124E0D348007814280CDD03203E
:1019A000CD4908700120CF490870D0490870D0494E
:1019B0000870CA49087018E0CD480078012803D1A2
:1019C0000020CB49087010E00120C44908700CE0E9
:1019D0000220C249087008E00320C049087004E0F2
:1019E0000420BE49087000E000BF03E0BF48007853
:1019F000BC490870B9480078002876D0B74800780C
:101A0000012806D0022871D0032870D004286FD195
:101A100038E184E0B048007802286ADDB5480078F3
:101A20004E2846D017DC49283BD00BDC0D282FD0A0
:101A300003DC28B30C285DD126E00F282CD04828E1
:101A400058D12DE04A282DD04B282CD04C282ED010
:101A50004D284FD12CE0542837D008DCA0F14F009E
:101A6000052847D2DFE800F0262A2B2C2D00552828
:101A70002CD056282BD057282AD06A283AD12BE0D0
:101A800002209C49087036E033209A49087032E001
:101A90003420984908702EE03620964908702AE0D4
:101AA00000BF00BF00BF9448FFF7F4FC23E000BF75
:101AB00000BF00BF9148FFF733FD1CE000BF00BF2F
:101AC00000BF8F48FFF772FD15E000BF00BF00BFE9
:101AD0008C48FFF7B1FD0EE00220864908704FF4F4
:101AE0004871894804F0C9FD05E033E190E0ACE0BD
:101AF00012E114E000BF00BF7E48007800EB400018
:101B0000824901EB800080688149086008460068CE
:101B1000804700BF6C4800680028FBD010BD6A48B1
:101B2000006818B16C480078022854DD71480078CC
:101B300000283FF46FAF6F4800780C28F9D06D484B
:101B400000780D28F5D06B4800784828F1D0694816
:101B500000784928EDD0674800784A28E9D06548E0
:101B600000784B28E5D0634800784C28E1D06148E4
:101B700000784D28DDD05F4800784E28D9D05D48E8
:101B800000784F28D5D05B4800785028D1D05948EC
:101B900000785128CDD0574800785228C9D05548F0
:101BA00000785328C5D0534800785428C1D05148F4
:101BB00000785528BDD04F4800785628B9D04D48F8
:101BC00000785728B5D04B4800786A28B1D04948EA
:101BD00000780F28ADD04748007800EB40004B4913
:101BE00001EB80004078434908700846007800EB1C
:101BF0004000464901EB800080684549086008467E
:101C00000068804700BF304800680028FBD0A0E093
:101C10003848007800EB40003C4901EB80008078B8
:101C2000344908700846007800EB4000374901EB62
:101C3000800080683649086008460068804700BF19
:101C4000224800680028FBD083E02A48007800EB97
:101C500040002E4901EB8000C078264908700846F4
:101C6000007800EB4000294901EB8000806828499A
:101C7000086008460068804700BF154800680028D3
:101C8000FBD066E00020234908701A48007800EB7A
:101C900040001E4901EB8000007916490870084693
:101CA000007800EB4000194901EB8000806818497A
:101CB000086008460068804700BF064800680028A2
:101CC000FBD046E00008014000012142040121420E
:101CD0001001214214012142080000203D00002093
:101CE0008E000020900000208F00002026000020A1
:101CF0003E0000203C0000204D0000205700002046
:101D0000610000206B00002040010020F467000803
:101D100040000020250000200F480078012817D13E
:101D200000200D4908700D48007800EB40000C4978
:101D300001EB800080680B49086008460068804716
:101D4000064800786A2803D102F0DEF802F001F9B3
:101D500000BF00BF00BFE1E6010000203C00002002
:101D6000F467000840000020C178092923D1817858
:101D700009291AD14178092910D10178491C01702B
:101D80000021417081700178152904D10021017072
:101D90000121C17012E00121C1700FE04178491C9E
:101DA000417000218170C17008E08178491C817008
:101DB0000021C17002E0C178491CC170704710B5A4
:101DC0000446FC480078012807D1FB480078012828
:101DD00003D1204602F022F922E0F64800780228DA
:101DE00007D1F5480078012803D1204602F016F902
:101DF00016E0F0480078032807D1EF480078012862
:101E000003D1204602F00AF90AE0EA4800780428E3
:101E100006D1E9480078012802D1204602F0FEF8F8
:101E200010BD427802F5FA624A6182780A61C2788E
:101E3000CA6002798A6042794A6082790A60C2790E
:101E40008A617047027DA2F5FA624A70027C8A704C
:101E5000027BCA70027A0A7102794A7102788A7129
:101E6000027ECA71704770B5044603F0BBF9214683
:101E7000D248FFF7D6FF204602F016FB204602F0BC
:101E80005CFB054603F07BF903F0ACF970BD10B5BF
:101E9000CB48007810BBCB48007880B9FEF779FEBC
:101EA0004020C949097801F00301C84A5054FEF79F
:101EB000FBFDC5480078401CC34908700EE003F0E4
:101EC00055F900F5E144C249204602F074FBBB49D4
:101ED000BF48FFF7B7FFB948FEF77DFEB548007869
:101EE000032802D101F0F2FF0CE0B248007802288A
:101EF00002D101F0D8FF05E0AE480078042801D1F6
:101F000001F0CAFF10BD10B50020FEF748FE10BD5D
:101F100010B50120FEF743FE6F20FFF750FF10BD04
:101F200010B50220FEF73BFE7020FFF748FF10BD02
:101F300010B50320FEF733FE7120FFF740FF10BD00
:101F400010B50420FEF72BFE7220FFF738FF10BDFE
:101F500010B50520FEF723FE7320FFF730FF10BDFC
:101F600010B50620FEF71BFE7420FFF728FF10BDFA
:101F700010B50720FEF713FE7520FFF720FF10BDF8
:101F800010B50820FEF70BFE7620FFF718FF10BDF6
:101F900010B50920FEF703FE7720FFF710FF10BDF4
:101FA00010B50A20FEF7FBFD10BD10B50B20FEF7A3
:101FB000F6FD10BD10B50C20FEF7F1FD10BD10B5FB
:101FC0000D20FEF7ECFD10BD10B50E20FEF7E7FD6D
:101FD00010BD10B5FEF777FE76480078032813D1C0
:101FE000764840793B2803D100207449487104E0C9
:101FF00072484079401C714948717548FFF733FFBA
:102000006E48FEF7E8FD15E06A480078022811D115
:102010006A48407918B93B206849487104E067482C
:102020004079401E654948716948FFF71CFF6348C5
:10203000FEF7D1FD10BD10B5FEF75AFE5D480078E1
:10204000032813D15D480079172803D100205B498C
:10205000087104E059480079401C584908715C48EF
:10206000FFF701FF5548FEF7B6FD15E0514800782F
:10207000022811D15148007918B917204F49087129
:1020800004E04E480079401E4C4908715048FFF763
:10209000EAFE4A48FEF79FFD10BD10B5FEF73DFE73
:1020A00044480078032813D14448C0781F2803D13E
:1020B00001204249C87004E04048C078401C3F49B4
:1020C000C8704348FFF7CFFE3C48FEF784FD16E09A
:1020D00038480078022812D13848C078012803D146
:1020E0001F203649C87004E03448C078401E334988
:1020F000C8703748FFF7B7FE3048FEF76CFD10BDDB
:1021000010B5FEF71FFE2B480078032813D12B488B
:1021100080780C2803D101202849887004E02748E2
:102120008078401C254988702948FFF79CFE234889
:10213000FEF751FD16E01F480078022812D11F4813
:102140008078012803D10C201C49887004E01B48CA
:102150008078401E194988701D48FFF784FE174893
:10216000FEF739FD10BD10B5FEF701FE11480078ED
:10217000032813D111484078632803D100200F4968
:10218000487004E00D484078401C0C4948701048E5
:10219000FFF769FE0948FEF71EFD26E005480078B6
:1021A000022822D105484078A0B96320034948702D
:1021B00015E000003D0000207700002027000020EF
:1021C0004001002046000020800000201001002077
:1021D00074040020F8484078401EF7494870F748DA
:1021E000FFF741FEF448FEF7F6FC10BD10B5FEF710
:1021F000D5FDF3480078032813D1EF48C0790728AC
:1022000003D10120EC49C87104E0EB48C079401CBF
:10221000E949C871E948FFF726FEE748FEF7DBFC0D
:1022200016E0E7480078022812D1E348C079012877
:1022300003D10720E049C87104E0DF48C079401E9F
:10224000DD49C871DD48FFF70EFEDB48FEF7C3FC31
:1022500010BD10B50120FEF7B0FC10BD10B5022076
:10226000FEF7ABFC10BD10B50320FEF7A6FC10BDB9
:1022700010B50420FEF7A1FC10BD10B50120FEF73B
:102280009CFC10BD10B50220FEF797FC10BD10B5E8
:102290000320FEF792FC10BD10B50420FEF78DFC64
:1022A00010BD10B50120FEF788FC10BD10B502204E
:1022B000FEF783FC10BD10B5C148007803280DD18E
:1022C000C0480078632803D10020BE49087015E09B
:1022D000BC480078401CBB4908700FE0B848007843
:1022E00002280BD1B748007818B96320B5490870A7
:1022F00004E0B4480078401EB2490870B148007844
:10230000FEF77BFD10BD10B5AD48007803280DD158
:10231000AD480078632803D10020AB49087015E070
:10232000A9480078401CA84908700FE0A44800782C
:1023300002280BD1A448007818B96320A24908707C
:1023400004E0A1480078401E9F4908709E4800782C
:10235000FEF753FD10BD10B50120FEF72EFC10BD99
:1023600010B50220FEF729FC10BD10B50320FEF7C2
:1023700024FC10BD10B50420FEF71FFC10BD10B5E5
:102380000520FEF71AFC10BD10B50620FEF715FC5F
:1023900010BD10B50720FEF710FC10BD10B50820C9
:1023A000FEF70BFC10BD10B50120FEF706FC10BDBA
:1023B00010B50220FEF701FC10BD10B50320FEF79A
:1023C000FCFB10BD10B50420FEF7F7FB10BD10B5E7
:1023D0000120FEF7F2FB10BD10B50220FEF7EDFB69
:1023E00000207A49087010BD10B50120FEF7E5FB0A
:1023F00010BD10B50220FEF7E0FB10BD704710B510
:102400006F48007803280BD171480078012803D168
:1024100000206F49087012E001206D4908700EE03D
:102420006748007802280AD169480078012803D15A
:1024300000206749087002E001206549087064487F
:102440000078FEF7F1FC10BD10B55D480078032858
:102450000BD160480078012803D100205D49087045
:1024600012E001205B4908700EE055480078022810
:102470000AD158480078012803D100205549087036
:1024800002E001205349087052480078FEF7CCFC66
:1024900010BD704710B50120FEF78FFB10BD10B5C1
:1024A0000220FEF78AFB10BD10B54B48FEF7CCFCAE
:1024B00043480078032810D14748C078092803D141
:1024C00000204549C87004E04348C078401C424998
:1024D000C8704148FEF776FC12E0394800780228BF
:1024E0000ED13D48C07818B909203B49C87004E0B6
:1024F0003948C078401E3849C8703748FEF762FC3A
:1025000010BD10B53448FEF7B4FC2D480078032800
:1025100010D131488078092803D100202E498870D5
:1025200004E02D488078401C2B4988702A48FEF72B
:1025300049FC12E02248007802280ED12648807813
:1025400018B909202449887004E023488078401E87
:10255000214988702048FEF735FC10BD10B51E4893
:10256000FEF79CFC16480078032810D11A484078E2
:10257000092803D100201849487004E01648407823
:10258000401C154948701448FEF71CFC12E00C482A
:10259000007802280ED11048407818B909200E4959
:1025A000487004E00C484078401E0B4948700A48C7
:1025B000FEF708FC10BD0000270000207404002076
:1025C0003D00002044000020450000207F00002046
:1025D00047000020460000204800002010B5F748C2
:1025E000FEF771FCF6480078032810D1F348007814
:1025F000092803D10020F149087004E0EF48007871
:10260000401CEE490870ED48FEF7DCFB12E0EC4898
:10261000007802280ED1E948007818B90920E74966
:10262000087004E0E5480078401EE4490870E3487B
:10263000FEF7C8FB10BD10B5E248FEF705FCE04808
:102640000078032810D1DF48C078092803D1002082
:10265000DC49C87004E0DB48C078401CD949C87028
:10266000D848FEF7AFFB12E0D548007802280ED11B
:10267000D448C07818B90920D249C87004E0D148BC
:10268000C078401ECF49C870CE48FEF79BFB10BDF6
:1026900010B5CC48FEF7EDFBC9480078032810D1EF
:1026A000C8488078092803D10020C649887004E012
:1026B000C4488078401CC3498870C248FEF782FB3A
:1026C00012E0BF48007802280ED1BE48807818B9C1
:1026D0000920BC49887004E0BA488078401EB94996
:1026E0008870B848FEF76EFB10BD10B5B548FEF710
:1026F000D5FBB3480078032810D1B24840780928A8
:1027000003D10020AF49487004E0AE484078401C37
:10271000AC494870AB48FEF755FB12E0A84800787A
:1027200002280ED1A748407818B90920A549487059
:1027300004E0A4484078401EA2494870A148FEF732
:1027400041FB10BD10B59F48FEF7BDFB9C480078CB
:10275000032810D19B480078092803D1002099490B
:10276000087004E097480078401C96490870954826
:10277000FEF728FB12E09248007802280ED191481B
:10278000007818B909208F49087004E08D48007856
:10279000401E8C4908708B48FEF714FB10BD10B525
:1027A0008948FEF751FB86480078032810D18648F7
:1027B000C078092803D100208349C87004E082480A
:1027C000C078401C8049C8707F48FEF7FBFA12E0D1
:1027D0007B48007802280ED17B48C07818B90920C0
:1027E0007949C87004E07848C078401E7649C870BE
:1027F0007548FEF7E7FA10BD10B57348FEF739FBD0
:102800006F480078032810D16F488078092803D1D9
:1028100000206D49887004E06B488078401C6A494C
:1028200088706948FEF7CEFA12E065480078022801
:102830000ED16548807818B909206349887004E092
:1028400061488078401E604988705F48FEF7BAFA98
:1028500010BD10B55C48FEF721FB594800780328ED
:1028600010D159484078092803D1002056494870B2
:1028700004E055484078401C534948705248FEF7E0
:10288000A1FA12E04E48007802280ED14E48407856
:1028900018B909204C49487004E04B484078401E64
:1028A000494948704848FEF78DFA10BD10B54648B2
:1028B000FEF709FB42480078032810D1424800780F
:1028C000092803D100204049087004E03E48007800
:1028D000401C3D4908703C48FEF774FA12E0384845
:1028E000007802280ED13848007818B909203649F6
:1028F000087004E034480078401E334908703248BC
:10290000FEF760FA10BD10B53048FEF79DFA2C486E
:102910000078032810D12D48C078092803D1002061
:102920002A49C87004E02948C078401C2749C8706B
:102930002648FEF747FA12E02148007802280ED117
:102940002248C07818B909202049C87004E01F48FF
:10295000C078401E1D49C8701C48FEF733FA10BDF0
:1029600010B51A48FEF785FA15480078032810D1EB
:1029700016488078092803D100201449887004E0A3
:1029800012488078401C114988701048FEF71AFAE6
:1029900012E00B48007802280ED10C48807818B954
:1029A00009200A49887004E008488078401E0749D9
:1029B00088700648FEF706FA10BD000048000020A7
:1029C0003D000020520000205C0000206600002036
:1029D00010B5F748FEF762FAF6480078032810D1E0
:1029E000F3484078092803D10020F149487004E0F9
:1029F000EF484078401CEE494870ED48FEF7E2F998
:102A000012E0EC48007802280ED1E948407818B965
:102A10000920E749487004E0E5484078401EE44951
:102A20004870E348FEF7CEF910BD10B5E048FEF758
:102A30004AFAE0480078032810D1DD4800780928D8
:102A400003D10020DA49087004E0D9480078401C1E
:102A5000D7490870D648FEF7B5F912E0D548007896
:102A600002280ED1D248007818B90920D049087040
:102A700004E0CF480078401ECD490870CC48FEF7EE
:102A8000A1F910BD10B5CC48FEF7DEF9C9480078B1
:102A9000032810D1C848C078092803D10020C649AE
:102AA000C87004E0C448C078401CC349C870C2481C
:102AB000FEF788F912E0BF48007802280ED1BE4820
:102AC000C07818B90920BC49C87004E0BA48C07879
:102AD000401EB949C870B848FEF774F910BD10B56A
:102AE000B548FEF7C6F9B3480078032810D1B248BC
:102AF0008078092803D10020AF49887004E0AE48EF
:102B00008078401CAC498870AB48FEF75BF912E056
:102B1000A848007802280ED1A748807818B9092063
:102B2000A549887004E0A4488078401EA2498870B6
:102B3000A148FEF747F910BD10B59F48FEF7AEF962
:102B40009C480078032810D19B484078092803D17D
:102B500000209949487004E097484078401C964905
:102B600048709548FEF72EF912E092480078022846
:102B70000ED19148407818B909208F49487004E077
:102B80008D484078401E8C4948708B48FEF71AF9F2
:102B900010BD10B58848FEF796F9864800780328DE
:102BA00010D185480078092803D100208249087097
:102BB00004E081480078401C7F4908707E48FEF799
:102BC00001F912E07B48007802280ED17A4800789B
:102BD00018B909207849087004E077480078401E49
:102BE000754908707448FEF7EDF810BD10B57348CC
:102BF000FEF72AF96F480078032810D16F48C07893
:102C0000092803D100206D49C87004E06B48C078E2
:102C1000401C6A49C8706948FEF7D4F812E065485C
:102C2000007802280ED16548C07818B90920634998
:102C3000C87004E06148C078401E6049C8705F48B1
:102C4000FEF7C0F810BD10B55C48FEF712F9594800
:102C50000078032810D159488078092803D1002032
:102C60005649887004E055488078401C5349887064
:102C70005248FEF7A7F812E04E48007802280ED11D
:102C80004E48807818B909204C49887004E04B48B8
:102C90008078401E494988704848FEF793F810BD77
:102CA00010B54648FEF7FAF842480078032810D1DC
:102CB00042484078092803D100204049487004E088
:102CC0003E484078401C3D4948703C48FEF77AF841
:102CD00012E03848007802280ED13848407818B9F8
:102CE00009203649487004E034484078401E334992
:102CF00048703248FEF766F810BD10B52F48FEF751
:102D0000E2F82C480078032810D12C4800780928D4
:102D100003D100202949087004E028480078401CAD
:102D2000264908702548FEF74DF812E02148007842
:102D300002280ED12148007818B909201F490870CF
:102D400004E01E480078401E1C4908701B48FEF72E
:102D500039F810BD10B51A48FEF776F81548007816
:102D6000032810D11648C078092803D1002014493F
:102D7000C87004E01248C078401C1149C87010485F
:102D8000FEF720F812E00B48007802280ED10C481C
:102D9000C07818B909200A49C87004E00848C0780A
:102DA000401E0749C8700648FEF70CF810BD000029
:102DB000660000203D0000204D000020570000204C
:102DC0006100002010B5FA48FEF753F8F948007882
:102DD000032810D1F6488078092803D10020F4494F
:102DE000887004E0F2488078401CF1498870F0480F
:102DF000FDF7E8FF12E0EF48007802280ED1EC481A
:102E0000807818B90920EA49887004E0E848807899
:102E1000401EE7498870E648FDF7D4FF10BD10B5A5
:102E2000E348FEF73BF8E3480078032810D1E04878
:102E30004078092803D10020DD49487004E0DC48CF
:102E40004078401CDA494870D948FDF7BBFF12E0D2
:102E5000D848007802280ED1D548407818B9092002
:102E6000D349487004E0D2484078401ED0494870A9
:102E7000CF48FDF7A7FF10BD10B5CD48FEF723F8EA
:102E8000CC480078032810D1C9480078092803D11C
:102E90000020C749087004E0C5480078401CC449B8
:102EA0000870C348FDF78EFF12E0C2480078022880
:102EB0000ED1BF48007818B90920BD49087004E058
:102EC000BB480078401EBA490870B948FDF77AFF40
:102ED00010BD10B5B848FDF7B7FFB6480078032815
:102EE00010D1B548C078092803D10020B249C87074
:102EF00004E0B148C078401CAF49C870AE48FDF747
:102F000061FF12E0AB48007802280ED1AA48C078D1
:102F100018B90920A849C87004E0A748C078401E25
:102F2000A549C870A448FDF74DFF10BD10B5A248D3
:102F3000FDF79FFF9F480078032810D19E488078B6
:102F4000092803D100209C49887004E09A488078C1
:102F5000401C994988709848FDF734FF12E0954865
:102F6000007802280ED19448807818B90920924937
:102F7000887004E090488078401E8F4988708E48A1
:102F8000FDF720FF10BD10B58B48FDF787FF89487E
:102F90000078032810D188484078092803D1002000
:102FA0008549487004E084484078401C8249487054
:102FB0008148FDF707FF12E07E48007802280ED115
:102FC0007D48407818B909207B49487004E07A4868
:102FD0004078401E784948707748FDF7F3FE10BDF1
:102FE00010B57548FDF76FFF72480078032810D1BF
:102FF00071480078092803D100206F49087004E067
:103000006D480078401C6C4908706B48FDF7DAFE8B
:1030100012E06848007802280ED16748007818B995
:1030200009206549087004E063480078401E624941
:1030300008706148FDF7C6FE10BD10B55D48007808
:1030400003280BD15D480078012803D102205B4999
:10305000087012E00120594908700EE055480078C8
:1030600002280AD155480078012803D1022053498B
:10307000087002E001205149087050480078FDF7BF
:10308000D3FE10BD10B54B48007803280DD14C4835
:103090000078632803D100204949087015E04848AA
:1030A0000078401C464908700FE04248007802282A
:1030B0000BD14348007818B963204149087004E0F7
:1030C0003F480078401E3E4908703D480078FDF7B3
:1030D00094FE10BD10B53748007803280DD139484B
:1030E0000078072803D100203649087015E03548DC
:1030F0000078401C334908700FE02E480078022801
:103100000BD13048007818B907202E49087004E028
:103110002C480078401E2B4908702A480078FDF79B
:1031200083FE10BD10B52348007803280DD1264832
:103130000078092803D101202349087016E02248AD
:103140000078401C2049087010E01A4800780228D6
:103150000CD11D480078012803D109201A490870B4
:1031600004E019480078401E174908701648007896
:10317000FDF75AFE10BD10B50E48007803280BD19C
:1031800012480078012803D100201049087022E07D
:1031900001200E4908701EE00648007802281AD166
:1031A0000A480078012813D100200849087012E06D
:1031B000610000203D0000206B0000207000002016
:1031C00071000020720000207300002074000020B5
:1031D0000120F2490870F1480078FDF725FE10BD86
:1031E00010B5EF480078032814D1EE48007809287C
:1031F00003D10120EB49087004E0EA480078401C44
:10320000E8490870E749097801EB4101C8B200F0CC
:103210001AFF17E0E2480078022813D1E14800784D
:10322000012803D10920DF49087004E0DD48007857
:10323000401EDC490870DB49097801EB4101C8B246
:1032400000F001FFD7480078FDF7EEFD10BD10B586
:10325000D348007803280DD1D3480078072803D13C
:103260000120D149087016E0CF480078401CCE49B3
:10327000087010E0CA48007802280CD1CA480078CB
:10328000012803D10720C849087004E0C648007827
:10329000401EC5490870C4480078FDF7C5FD10BD43
:1032A00010B5BF48007803280BD1C048007801282A
:1032B00003D10020BD49087012E00120BB4908700D
:1032C0000EE0B748007802280AD1B84800780128F3
:1032D00003D10020B549087002E00120B34908700D
:1032E000B2480078FDF7A0FD10BD10B5AC480078DD
:1032F00003280BD1AE480078012803D10020AC4947
:10330000087012E00120AA4908700EE0A448007875
:1033100002280AD1A6480078012803D10020A44938
:10332000087002E00120A2490870A1480078FDF76A
:103330007BFD10BD10B59A48007803280BD19D483D
:103340000078012803D100209A49087012E001207A
:10335000984908700EE09248007802280AD19548F2
:103360000078012803D100209249087002E0012072
:10337000904908708F480078FDF756FD10BD10B5D4
:103380008748007803280DD18B4800780B2803D19B
:1033900000208949087015E087480078401C86495C
:1033A00008700FE07E48007802280BD18248007830
:1033B00018B90B208049087004E07F480078401E4F
:1033C0007D4908707C480078FDF717FD10BD10B5E9
:1033D0007348007803280DD1784800780B2803D172
:1033E00000207649087015E074480078401C734945
:1033F00008700FE06A48007802280BD16F48007807
:1034000018B90B206D49087004E06C480078401E24
:103410006A49087069480078FDF7EFFC10BD10B5E7
:103420005F48007803280DD1654800780B2803D148
:1034300000206349087015E061480078401C60492D
:1034400008700FE05648007802280BD15C480078DD
:1034500018B90B205A49087004E059480078401EFA
:103460005749087056480078FDF7C7FC10BD10B5E5
:103470004B48007803280DD1524800780B2803D11F
:1034800000205049087015E04E480078401C4D4916
:1034900008700FE04248007802280BD149480078B4
:1034A00018B90B204749087004E046480078401ED0
:1034B0004449087043480078FDF79FFC10BD10B5E3
:1034C0003748007803280BD13F480078012803D102
:1034D00002203D49087012E001203B4908700EE0CF
:1034E0002F48007802280AD137480078012803D1F4
:1034F00002203549087002E0012033490870324843
:103500000078FDF791FC10BD10B525480078032820
:103510000DD12E480078262803D100202B490870B1
:1035200015E02A480078401C284908700FE01C4824
:10353000007802280BD12548007818B926202349A5
:10354000087004E021480078401E204908701F4997
:1035500009784231C8B2FEF732FC1C480078FDF70A
:103560004CFC10BD10B50E480078032802D100F0C5
:10357000ADFC0CE00A480078022802D100F093FC70
:1035800005E007480078042801D100F085FC1048C8
:10359000007810B900200F49087010BD7400002099
:1035A0003D000020750000207600002078000020FB
:1035B00077000020790000207A0000207B000020A6
:1035C0007C0000207D0000207E0000207F00002085
:1035D000400100203C0000204A78FB4B9A5CA0F19F
:1035E0000300C2708A789A5C8270CA789A5C4270D2
:1035F0000A799A5C00F8032BCA7902F00F02A2F153
:103600000202072A42D2DFE802F0041023414133CC
:103610003A0010F8032D42F080020270427842F026
:103620008002427000F1030031E010F8032D42F0F7
:1036300080020270427842F080024270827842F04A
:1036400080028270C27842F0800200F8032F1EE0F0
:1036500010F8032D42F080020270427842F080029E
:103660004270827842F08002827000F103000EE026
:1036700010F8022C42F0800200F8022C07E010F84B
:10368000032C42F0800200F8032C00E000BF00BFD2
:10369000704710B5FDF77DFACC4890F8580020B17E
:1036A000CA495831CA48FFF797FFC84890F85000F8
:1036B00028B1C6495031C648001FFFF78DFFC348E7
:1036C00090F8480028B1C1494831C1480838FFF78F
:1036D00083FFBE4890F8400028B1BC494031BC4847
:1036E0000C38FFF779FFB94890F8380028B1B7498E
:1036F0003831B7481038FFF76FFFB44890F8300002
:1037000028B1B2493031B2481438FFF765FFAF48ED
:1037100090F8280028B1AD492831AD481838FFF796
:103720005BFFAA4890F8200028B1A8492031A8489A
:103730001C38FFF751FFA548007E28B1A349183176
:10374000A3482038FFF748FFA048007C28B19F49D4
:1037500010319F482438FFF73FFF9C48007A28B17A
:103760009A4908319A482838FFF736FF9748007879
:1037700020B1964996482C38FFF72EFFFDF794F9B3
:1037800010BD81680160C168416070470246914880
:103790000378002106E012F8310008B908467047A6
:1037A000481CC1B28B4800788142F4DB1846F6E72A
:1037B0002DE9F04106468548FFF7E8FF05462F460C
:1037C00000240CE0D6F80100804901EBC401D1F8D7
:1037D0000110884201D1E5B203E0601C44B2AC4262
:1037E000F0DB00BFBD4211D06CB206E0774901EBBF
:1037F000C400FFF7C6FF601C44B2781EA042F5DC8F
:10380000724800EBC400002101604160FFF741FFF6
:10381000BDE8F08170B505462846FFF7B7FF0646BC
:10382000002405E005EBC400FFF7ABFF601CC4B249
:10383000701EA042F6DC05EBC4000021016041606F
:1038400070BD70B505460C462046FFF79FFF064643
:103850006048007886420CD12046FFF7DBFF5D48C8
:103860000078401E04EBC00029680160696841606F
:1038700005E004EBC600296801606968416070BD1D
:10388000016881604168C160704770B5054628468F
:10389000FFF77CFF06464F480078864201D1701E34
:1038A000C6B2701E44B205E005EBC400FFF7E8FFA6
:1038B000601E44B2002CF7DA00202860686070BDFA
:1038C00070B505460C462046FFF7DFFF28682060EC
:1038D0006868606070BD2DE9F04106463B48FFF71F
:1038E00055FF05462F4600240CE0D6F80100374965
:1038F00001EBC401D1F80110884201D1E5B203E027
:10390000601C44B2AC42F0DB00BFBD421CD0324868
:103910000078012816D1681EC5B26CB206E02B49AA
:1039200001EBC400FFF7ACFF601E44B2002CF6DAD6
:1039300026483168016071684160FFF7AAFE0120E6
:10394000BDE8F0810120FBE70020F9E7234A127867
:10395000012A05D101F00F02214B9A5C027004E0AC
:1039600001F00F021F4B9A5C027070477FB504464E
:103970000D46089E012E02D13320207008E0022E51
:1039800002D13420207003E029462046FFF7DEFFF5
:103990000298C4F80100280C6071280AA071E57132
:1039A0007FBDC1F303524270C1F303428270C1F381
:1039B0000332C270C1F3032202710A0C42710A0A77
:1039C0008271C17170470000C26700084001002089
:1039D0003F01002071000020700000207E000020C8
:1039E00091000020A1000020014611F0F00F04D149
:1039F000F6480078B0EB115F06D0F44800780B2849
:103A000004D111F0F00F01D1012070470020FCE734
:103A100030B585B00025EE4804680020ED490870F7
:103A20002046FFF7E1FF78B3214601A8FFF78EFF9C
:103A3000214601A8FFF7B5FF9DF80400332824D0E4
:103A40009DF8040008B301A8FFF745FF002857D1EF
:103A5000E1480078012810D1E04901A8FFF730FFC4
:103A6000DF48007804F00F0300909DF8042001A9BE
:103A7000DC48007800F068FC03E0D84901A8FFF7B3
:103A8000E0FEFFF706FE3BE003E001A8FFF790FE33
:103A900036E0214603A8FDF7C3FE054665B3009551
:103AA000214601A8DDE90323FFF760FF9DF804002C
:103AB000332822D09DF80400F8B101A8FFF70BFFCE
:103AC000D0B9C5480078012810D1C44901A8FFF732
:103AD000F7FEC348007804F00F0300909DF804201F
:103AE00001A9C048007800F02FFC03E0BB4901A801
:103AF000FFF7A7FEFFF7CDFD02E001A8FFF758FE94
:103B000005B030BDB8480078012808D1B748007822
:103B1000AF49097801F00F01B54A505407E0B348A6
:103B20000078AB49097801F00F01B24A5054704750
:103B30001CB5B14800680090A5480068019068462F
:103B4000FDF762FC28B9AC48FEF70EF94420AB49FA
:103B500008701CBD1CB5AA48006800909C4800680D
:103B600001906846FDF70AFC28B9A548FEF7FCF865
:103B70004020A24908701CBD1CB5A24800680090F6
:103B80009348006801906846FDF79CFB28B99D4862
:103B9000FEF7EAF83C20994908701CBD1CB59A480C
:103BA000006800908A48006801906846FDF744FB71
:103BB00028B99548FEF7D8F83820904908701CBD00
:103BC00030B585B00025824804680020814908701E
:103BD0002046FFF709FF68B3214601A8FFF7B6FEAC
:103BE000214601A8FFF7DDFE9DF8040033281DD013
:103BF0009DF80400D0B101A8FFF76DFE00284AD15E
:103C0000764901A8FFF75CFEFFF743FD7448007892
:103C100004F00F0300909DF8042001A9714800787A
:103C200000F092FB6A207549087034E001A8FFF7A4
:103C3000BFFD30E0214603A8FDF7F2FD054635B390
:103C40000095214601A8DDE90323FFF78FFE9DF8CB
:103C5000040033281CD09DF80400C8B101A8FFF768
:103C60003AFEA0B95D4901A8FFF72AFEFFF711FD52
:103C70005B48007804F00F0300909DF8042001A930
:103C80005848007800F060FB6A205C49087002E048
:103C900001A8FFF78DFD05B030BD1CB54C4800688C
:103CA00000287CD0594800780028FAD0584800787D
:103CB000002874DD4648046821466846FDF7CAFDC1
:103CC00058B101205349087004F00F0052490870A0
:103CD0004F48007851490870D2E051480068A0422E
:103CE000FAD04F48046045480078002847D0434840
:103CF0000078382843D04148007839283FD03F48E1
:103D000000783A283BD03D4800783B2837D03B48E4
:103D100000783C2833D0394800783D282FD03748E8
:103D200000783E282BD0354800783F2827D03348EC
:103D30000078402823D03148007841281FD02F48F0
:103D4000007842281BD02D480078432817D02B48F4
:103D50000078442813D02948007845280FD02748F8
:103D6000007846280BD025480078472807D02348FC
:103D70000078672803D0214800786A2870D11F484E
:103D80000078402866D014DC3B285AD008DCE0B12B
:103D9000382853D0392852D03A286FD150E075E0F6
:103DA0003C2851D03D2850D03E284FD03F2865D1E7
:103DB0004DE0452856D035DC41284CD042284BD028
:103DC00043284AD0442859D14BE034E07A000020FF
:103DD000100000208D000020700000204001002015
:103DE00073000020720000207E0000207F00002071
:103DF00091000020A1000020660000203C0000206F
:103E00005C00002052000020480000202500002017
:103E1000260000208E0000208F000020900000204F
:103E20008400002046281ED047281DD067281ED0B9
:103E30006A2823D11EE0FFF7C3FE20E000BF00BFC9
:103E400000BFFFF7ABFE1AE000BF00BF00BFFFF7E7
:103E500093FE14E000BF00BF00BFFFF77BFE0EE043
:103E60000EE000BF00BF00BFFFF762FE07E0FFF7F4
:103E700049FE04E0FFF7CCFD01E0FFE700BF00BF13
:103E800000204E4908704E49086004E000204B496C
:103E900008704B4908601CBD10B54A48FFF7BAFCD2
:103EA000FFF7F7FB10BD1CB50020009001904548BE
:103EB00001680091406801904248FFF7ABFC41491E
:103EC0006846FFF7BEFCFFF7E4FB1CBD1CB50020F5
:103ED000009001903B48FFF759FC0446601E3949A9
:103EE00001EBC0000168009140680190601E3549F7
:103EF00001EBC00000210160416032496846FFF7D4
:103F0000DFFCFFF7C6FB1CBD10B52F4800782F491A
:103F1000097888420BDA2E4800782B4909788842C4
:103F200005DD2A48007810B12748007858B927489D
:103F3000007868B92448007850B1254800782249B3
:103F40000978884204DDFFF7A7FF002020490870A8
:103F500010BD10B51D4800781B49097888420BDA5E
:103F60001B48007819490978884205DD1648007811
:103F700010B11648007858B913480078E0B91348D2
:103F80000078C8B11248007810490978884213DDDA
:103F9000FFF789FF00200E4908700E4800780128BD
:103FA0000AD10848C07900F00F030648027801469C
:103FB0000948007800F083F910BD000025000020BA
:103FC0001000002040010020440000204500002097
:103FD0008D000020740000207200002008B501212F
:103FE000042001F038F84FF40060ADF800004820DC
:103FF0008DF803006946F14800F004FD7E20FCF7CF
:1040000087FA0320FCF784FA3320FCF781FA0420B6
:10401000FCF77EFAEF20FCF77BFA08BD10B50446EA
:104020007E20FCF775FA0420FCF772FA4120FCF7B9
:104030006FFA0020FCF76CFA2046FCF769FAEF20D3
:10404000FCF766FA10BD10B504467E20FCF760FA56
:104050000320FCF75DFA3120FCF75AFA2046FCF702
:1040600057FAEF20FCF754FA10BD70B505460C4620
:104070006078092812DC012D05DC6178491CC8B282
:10408000FFF7CCFF36E0607888B36178491CC8B28E
:10409000FFF7C4FF1F20FFF7C1FF2BE060780F2858
:1040A00008DC60780A2805DB61781731C8B2FFF7B1
:1040B000B5FF1FE060781038052819D2DFE800F05E
:1040C00003070B0F13002820FFF7A8FF11E02C2097
:1040D000FFF7A4FF0DE02F20FFF7A0FF09E030203D
:1040E000FFF79CFF05E03520FFF798FF01E001E0B6
:1040F00000BF00BF70BD70B505460C464020FFF7FD
:104100008DFF6078092805DC6178491CC8B2FFF78B
:1041100085FF2AE060780F2808DC60780A2805DB34
:1041200061781731C8B2FFF779FF1EE06078103868
:10413000052818D2DFE800F003070B0F1300282032
:10414000FFF76CFF10E02C20FFF768FF0CE02F203A
:10415000FFF764FF08E03020FFF760FF04E0352040
:10416000FFF75CFF00E000BF00BF4120FFF756FFF4
:1041700070BD70B505460C46012D05DCA178491CC3
:10418000C8B2FFF74BFF0CE0A07850B1A178491CF2
:10419000C8B2FFF743FF1D20FFF740FF1E20FFF7C7
:1041A0003DFF70BD70B505460C46012D05DCE1787C
:1041B000491CC8B2FFF732FF15E0E07898B1E0780B
:1041C00001280BD1207918B90B20FFF727FF0AE04F
:1041D00021790B31C8B2FFF721FF04E0E1781331F8
:1041E000C8B2FFF71BFF70BD70B505460C46012D28
:1041F00005DC2179491CC8B2FFF710FF09E02079DE
:1042000038B1E078012804D02179491CC8B2FFF701
:1042100005FF70BD10B50446042C06D0052C08D04F
:10422000062C0AD0072C10D10BE03E20FFF7F6FE3B
:104230000CE03C20FFF7F2FE08E03D20FFF7EEFE29
:1042400004E06820FFF7EAFE00E000BF00BF10BDF9
:1042500070B504460D46032C0CDC29462046FFF7BA
:1042600088FF29462046FFF79DFF29462046FFF795
:10427000BBFF02E02046FFF7CDFF70BD10B504463E
:10428000322C05DA04F14201C8B2FFF7C7FE04E0A0
:10429000342C02D16820FFF7C1FE10BD70B5054671
:1042A0000E461446342C01D0262C03D16820FFF78B
:1042B000B5FE03E031462846FFF7CAFF70BD2DE981
:1042C000F04104460F4616461D46032C35DC3E20C1
:1042D000FFF7A4FE0F2D02D13F20FFF79FFE3848C5
:1042E000007828B136480078012804D1022E02DB7C
:1042F0006920FFF793FE0F2D03D039462046FFF7C4
:10430000B4FE39462046FFF7A3FF2D480078012868
:1043100004D1012C02DC6920FFF780FE0F2D04D1AF
:1043200039462046FFF7E7FE0CE0012C0AD0032CAB
:1043300008D03046FFF7A2FF04E032463946204657
:10434000FFF7ACFFBDE8F0812DE9F04104460D46D2
:1043500016461F46DDF81880B8F1010F0BDD19482D
:1043600080F80080C66007744470801C2968016072
:104370006968416005E03B46324629462046FFF722
:104380009EFFBDE8F08110B50E480078002814DDCE
:104390000D48007888B10D48006870B100200A49C6
:1043A000087008490B7C0A7B4878891CFFF787FF57
:1043B00004480078401E0349087010BD0008014001
:1043C0007800002060040020B20000202C0121426F
:1043D00008B503208DF8000001208DF801000020B1
:1043E0008DF8020001208DF80300684600F051F9B5
:1043F00008BD10B501214FF0C05000F039FE01207A
:1044000000F057FC00F0AEF9012000F095FD00BF70
:10441000412000F0EEFC0028FAD04FF4807000F04C
:10442000A4FD012000F0A7FD00F0E4FE00F0DAFE9C
:104430000121084600F07AFE00F0D4FE47F6FF7036
:1044400000F0AAFE00F0CEFE10BD10B50446042018
:1044500000F0BDF9A0F52541A5390AD0FFF7C9FF45
:104460002046FDF700FD4AF2A551042000F0A3F913
:1044700016E07B2000F0BDFC10B97A2000F0B9FCFA
:1044800001214FF0C05000F0F3FD012000F011FCBD
:1044900000F0B0FE0121084600F048FE00F0A2FE48
:1044A00000F017FE10BD0000F0B58DB004463022BC
:1044B000714901A802F0C8F86069451E642195FBA6
:1044C000F1F12846EA1705EB9272C1EBA2014FF415
:1044D000C87295FBF2F28F186069C11700EB9171F9
:1044E0008910B0EB810112D16422616991FBF2F372
:1044F00002FB131131B99200616991FBF2F302FBE7
:10450000131121B92169022901DD012600E00026ED
:1045100040F26D1005FB00712069401E01AA52F89F
:1045200020000844E16808440644072096FBF0F1A7
:1045300000FB1160A0610DB0F0BD10B50146086927
:10454000801E0861002805DC08690C300861486994
:10455000401E48616423486990FBF3F04A69D31711
:1045600002EB9373C0EBA3004FF4C87492FBF4F317
:10457000034440F26F14086960430C2490FBF4F08C
:104580001844CB68034440F26D1402FB04303B4BEB
:10459000C01A00EB40008B6803EBC000C0EB0010BA
:1045A0004B6803EB8000C0EB00100B6803EB80004E
:1045B000A0F5E14010BD2DE9F04107460C4630481A
:1045C000B7FBF0F6B7FBF0F100FB11784FF4616038
:1045D00098FBF0F0A0604FF4616098FBF0F100FBF5
:1045E00011803C2190FBF1F060604FF4616098FB1A
:1045F000F0F100FB11803C2190FBF1F201FB120075
:10460000206040F2B27509E015F0030F02D14FF4BB
:10461000B77001E040F26D10361A6D1C15F0030FF3
:1046200002D14FF4B77001E040F26D10B042EBDD03
:1046300065616069C11700EB91718910B0EB810170
:1046400002D11D200F494860012505E0681E0D4973
:1046500051F82000361A6D1C681E0A4951F82000D6
:10466000B042F3DD1C2048602561701CE0602046EC
:10467000FFF71AFFBDE8F081F86C00088BFA0A001A
:1046800080510100B400002031490143314A1160DA
:10469000704770B5002100230F22C4780CB32D4C55
:1046A000246804F4E064C4F5E064210AC1F1040361
:1046B000CA40447804FA03F1847814402143090184
:1046C000254C0678A155047804F01F050124AC4060
:1046D00005786D114FF0E02606EB8505C5F8004121
:1046E00009E0047804F01F050124AC401B4D067856
:1046F000761145F8264070BD194A0A400243154B11
:104700001B1F1A60704739B1124A121D126802430A
:10471000104B1B1D1A6006E00E4A121D12688243E0
:104720000C4B1B1D1A607047042808D14FF0E02184
:10473000096941F004014FF0E022116107E04FF0F8
:10474000E021096921F004014FF0E0221161704776
:104750000000FA050CED00E000E400E080E100E07C
:1047600080FFFF1F10B5012000F0A9FC002000F021
:10477000A6FC10BD2A49086070472949091F086036
:104780007047274984310860704701460020254A58
:1047900010884FF67F4210400843224A108070472D
:1047A000014600201F4A10884FF6807210400843CF
:1047B0001C4A1080704708B500220092194A2C3A12
:1047C0000092009A02440092009A116008BD08B558
:1047D00001460020009013482C38009000980844AF
:1047E00000900098008808BD0D489C300068C0B259
:1047F00070470C480830008840F001000949083132
:10480000088070470648A0300068C0B2704705486D
:104810000830008840F002000249083108807047E3
:1048200004860D422C6C0040002044490860091D9C
:104830000860091D0860091D086041483F4914319E
:104840000860704700213D498279002A3AD00A4623
:10485000126803689A430B461A600A1D12680368BF
:104860009A430B1D1A60027911440A6803681A43BF
:104870000A60324A0832126803689A432F4B0833A1
:104880001A601A1D126803689A432C4B0C331A6085
:104890004279102A0ED11A1F126803681A43274B57
:1048A00008331A601A1D126803681A43234B0C332D
:1048B0001A600DE02149427911440A6803681A43DD
:1048C0000A6005E0027911440A6803689A430A60A5
:1048D00070470021016001710C214171002181713B
:1048E00070471649103109680143144A10321160AB
:1048F000704701460020114A143212680A4201D062
:10490000012000E0002070470C4914310860704716
:10491000014600200022094B1B6803EA0102074BF5
:1049200014331B680B4202D00AB1012000E00020C2
:1049300070470249143108607047000000040140CC
:10494000FFFF0F0010B50446CA48844208D1012178
:10495000042000F09AFB0021042000F096FB46E0C2
:10496000C548844208D10121082000F08EFB0021B7
:10497000082000F08AFB3AE0C048844208D10121B7
:10498000102000F082FB0021102000F07EFB2EE0C2
:10499000BB48844208D10121202000F076FB002191
:1049A000202000F072FB22E0B648844208D10121A9
:1049B000402000F06AFB0021402000F066FB16E07A
:1049C000B148844208D10121802000F05EFB002123
:1049D000802000F05AFB0AE0AC48844207D1012154
:1049E000801500F052FB0021A01500F04EFB10BD19
:1049F00010B50121084600F048FB0021012000F01D
:104A000044FB10BD2DE9F0410246002500260020A0
:104A100000230024002791F803C00CF00F0591F843
:104A200003C01CF0100F03D091F802C04CEA05053A
:104A300091F800C0BCF1000F31D0146800202BE0C9
:104A40004FF0010C0CFA00F3B1F800C00CEA0306B9
:104A50009E4220D183004FF00F0C0CFA03F7BC43A9
:104A600005FA03FC4CEA040491F803C0BCF1280FDA
:104A700006D14FF0010C0CFA00FCC2F814C00AE099
:104A800091F803C0BCF1480F05D14FF0010C0CFAAE
:104A900000FCC2F810C0401C0828D1D31460B1F843
:104AA00000C0BCF1FF0F34DD546800202EE000F19F
:104AB000080C4FF0010808FA0CF3B1F800C00CEA3A
:104AC00003069E4221D183004FF00F0C0CFA03F72E
:104AD000BC4305FA03FC4CEA040491F803C0BCF1A2
:104AE000280F05D100F1080C08FA0CF8C2F8148060
:104AF00091F803C0BCF1480F07D100F1080C4FF04A
:104B0000010808FA0CF8C2F81080401C0828CED31F
:104B10005460BDE8F0814FF6FF7101800221817081
:104B20000421C17070470246002093680B4201D0F7
:104B3000012000E0002070470146886880B270477D
:104B400002460020D3680B4201D0012000E0002083
:104B500070470146C86880B2704701617047416183
:104B600070470AB1016100E041617047C160704760
:104B70004FF480320A438261816182618269826975
:104B8000704702460020424B18684FF68073184069
:104B900040EA021008433E4B186070473D49C86127
:104BA0007047F0B50A46002300240021002500F0DC
:104BB0000046B6F1004F02D1354EF16901E0344EA6
:104BC0007168C0F3034583B200F44016B6F5401F88
:104BD00008D121F070612E4E766826F070662C4F59
:104BE0007E6012E000F48016B6F5801F06D1032621
:104BF00006FA05F4A14341F0706106E0460D360166
:104C000003FA06F6B14341F0706122B1460D360158
:104C100003FA06F6314300F00046B6F1004F02D128
:104C20001B4EF16101E01A4E7160F0BD30B50022FB
:104C30008B071C0F0F2303FA04F2154B08338C105B
:104C400053F824309343124C08348D1044F8253027
:104C500023468C1053F824308C07240F00FA04F4F8
:104C600023430B4C08348D1044F8253030BD0A49DD
:104C70000860704700080140000C0140001001402E
:104C80000014014000180140001C014000200140B8
:104C90000000014000002042DC00204210B501214C
:104CA000080700F0FFF900214FF0805000F0FAF9FA
:104CB00010BD2949086270472749086170470146BD
:104CC0000020264A106820F0E0000843106070477A
:104CD00023490860704710B5024600201F4B186832
:104CE00020F00300104318601E4B1B6843F00403C0
:104CF0001C4C2360012901D130BF00E020BF194BBB
:104D00001B6823F00403174C236010BD1348006890
:104D100040F00400114908600846006840F00200B5
:104D200008601048006840F004000E49086000BFA9
:104D300000BF30BF704701460020084A52680A424F
:104D400001D0012000E0002070470449096841EAD1
:104D50008001024A1160704700000E42007000405E
:104D6000A0000E4210ED00E0E448006840F00100B1
:104D7000E249086008464068E1490840DF49486068
:104D800008460068DF490840DC49086008460068BA
:104D900020F4802008600846406820F4FE00486047
:104DA0004FF41F0088600020C8627047D34909682B
:104DB00021F48031D14A11601146096821F4802123
:104DC0001160B0F5803F03D0B0F5802F0ED106E022
:104DD000CA49096841F48031C84A116007E0C749EF
:104DE000096841F4A021C54A116000E000BF00BF7E
:104DF000704710B501460022002300204A11012A05
:104E000002D1BE4C236806E0022A02D1BB4C236AC1
:104E100001E0BA4C636A01F01F02012494401C4275
:104E200001D0012000E0002010BD38B50020009026
:104E30000024002500BF3120FFF7DBFF0546009866
:104E4000401C00900098B0F5A06F01D0002DF2D06A
:104E50003120FFF7CEFF08B1012400E000242046F6
:104E600038BD01460020A54A106820F0F80040EA4D
:104E7000C10010607047A4490860704702460020D6
:104E80009E4B586820F4741042EA010318439B4B70
:104E9000586070479C490866704702460020974B4F
:104EA000D86A9A4B184042EA01031843934BD862E0
:104EB000704701460020914A506820F003000843E3
:104EC000506070478D48406800F00C007047014604
:104ED00000208A4A506820F0F00008435060704774
:104EE00001460020854A506820F4E0600843506085
:104EF000704701460020814A506820F4605040EA23
:104F0000C1005060704729B17C4A527A02437B4B02
:104F10005A7204E0794A527A8243784B5A72704747
:104F20007B490860704701460020744A506820F4AD
:104F300040400843506070470021764A11706F4A24
:104F400082F82010012802D0042808D103E00121B2
:104F5000704A117004E005216E4A117000E000BF34
:104F600000BF70476C49086070476449096A014393
:104F7000624A11627047684944390860704770B5E9
:104F8000002100230024002200255C4E766806F0F4
:104F90000C0121B1042905D0082921D105E05F4E7B
:104FA000066020E05D4E06601DE0544E766806F413
:104FB0007013524E766806F48034022606EB934353
:104FC0001CB9574E5E43066009E04C4EF66A06F087
:104FD0000F06751C514EB6FBF5F65E43066002E007
:104FE0004E4E066000BF00BF444E766806F0F001EA
:104FF00009094C4E725C0668D64046603F4E7668A2
:1050000006F4E061090A474E725C4668D640866045
:105010003A4E766806F46051C90A424E725C4668A0
:10502000D640C660354E766806F44041890B3E4E48
:10503000725CC668B6FBF2F6066170BD29B12F4AF4
:10504000526902432D4B5A6104E02C4A5269824353
:105050002A4B5A61704729B1284A92690243274B6B
:105060009A6104E0254A92698243244B9A61704711
:1050700029B1224AD2690243204BDA6104E01F4A77
:10508000D26982431D4BDA61704729B11B4AD2684D
:1050900002431A4BDA6004E0184AD2688243174B85
:1050A000DA60704729B1154A12690243134B1A613D
:1050B00004E0124A12698243104B1A617047164984
:1050C0004039086070471049C86470470B49C8717F
:1050D00070470A48406A40F080700849486270474B
:1050E00001460020054A92680A4201D0012000E0F2
:1050F000002070470149887270470000001002408C
:105100000000FFF8FFFFF6FE00004242F0FFFEFF46
:10511000D8004242201002408004424200127A002D
:1051200000093D00E4000020F400002029B14F4AAE
:10513000128802434D4B1A8004E04C4A1288824385
:105140004A4B1A8070474948001D008840F0100003
:105150004649091D088070474448001D00884FF6E5
:10516000EF7108404149091D0880704700213F4800
:105170001C300188001F008841EA0040704700B5DC
:105180000246FFF7E0FF100C384918310880091D6E
:105190000A80FFF7E1FF00BD00B50246FFF7D3FF2D
:1051A000C2F30340314908310880091D0A80FFF726
:1051B000D3FF00BD00B50246FFF7C5FF100C2B4919
:1051C00020310880091D0A80FFF7C6FF00BD0020BE
:1051D0002649103109880907080B24491431098828
:1051E0000843704700BF2148001D008810F0200FC1
:1051F000F9D070471D48001D00884FF6F771084030
:105200001A49091D088000BF1848001D008810F0C9
:10521000080FF9D0704701460020144A121D128869
:105220000A4201D0012000E0002070470F49091D0B
:10523000098881430D4A121D1180704701460020E4
:105240000A4A121D12880A40D0B2084A12880A423D
:1052500002D008B1012000E0002070470349091D79
:1052600009888143014A121D1180704700280040BF
:1052700010B50446FE48844208D10121C014FFF74E
:1052800004FF0021E014FFF700FFC4E0B4F1804FF9
:1052900008D101210846FFF705FF00210120FFF793
:1052A00001FFB8E0F348844208D101210220FFF752
:1052B000F9FE00210220FFF7F5FEACE0EE48844243
:1052C00008D101210420FFF7EDFE00210420FFF7A3
:1052D000E9FEA0E0E948844208D101210820FFF757
:1052E000E1FE00210820FFF7DDFE94E0E44884425F
:1052F00008D101211020FFF7D5FE00211020FFF773
:10530000D1FE88E0DF48844208D101212020FFF748
:10531000C9FE00212020FFF7C5FE7CE0DA48844268
:1053200008D101214014FFF7B0FE00216014FFF7FF
:10533000ACFE70E0D548844209D10121C804FFF7D2
:10534000A4FE00214FF40020FFF79FFE63E0D04849
:10535000844209D101210805FFF797FE00214FF48F
:105360008010FFF792FE56E0CA48844209D101211D
:105370004805FFF78AFE00214FF40010FFF785FE75
:1053800049E0C548844208D101214020FFF78AFE48
:1053900000214020FFF786FE3DE0C048844208D14E
:1053A00001218020FFF77EFE00218020FFF77AFE9A
:1053B00031E0BB48844208D101218015FFF772FE1D
:1053C0000021A015FFF76EFE25E0B648844209D102
:1053D00001210804FFF759FE00214FF48030FFF748
:1053E00054FE18E0B048844209D101214804FFF777
:1053F0004CFE00214FF40030FFF747FE0BE0AB48B6
:10540000844208D101218804FFF73FFE00214FF4B8
:105410008020FFF73AFE10BD00220288944B98428C
:105420000ED0994B98420BD0B0F1804F08D0914BE1
:10543000984205D0904B984202D0904B984204D1AC
:105440004FF68F731A404B881A438D4B984207D002
:105450008C4B984204D04FF6FF431A40CB881A4336
:1054600002808B8883850B880385814B98420BD003
:10547000854B984208D08B4B984205D08A4B984276
:1054800002D08A4B984201D10B7A03860123838292
:10549000704770B5002400220023058C4FF6FE767D
:1054A00035400584028C8388048B4FF68F752C4021
:1054B000B51E2C400D882C43751E2A400D892A43A9
:1054C0004D882A436A4DA8420BD06F4DA84208D0A0
:1054D000744DA84205D0744DA84202D0734DA84225
:1054E00013D14FF6F7752A404D892A434FF6FB75C5
:1054F0002A408D882A434FF6FF652B404FF6FF5513
:105500002B408D892B43CD892B4383800483CD8809
:105510008586028470BD70B5002400220023058CAE
:105520004FF6EF7635400584028C8388048B48F66D
:10553000FF752C404FF6FF452C400D884FF6FF7647
:1055400006EA05252C434FF6DF752A400D8906EA49
:1055500005152A434D8806EA05152A43444DA842FD
:1055600002D0494DA8421DD14FF67F752A404D8982
:105570004FF6FF7606EA05152A434FF6BF752A4017
:105580008D8806EA05152A434FF6FF352B404FF26A
:10559000FF752B408D8906EA85052B43CD8906EAE8
:1055A00085052B4383800483CD880587028470BDE5
:1055B00070B5002400220023058C4FF6FF663540AD
:1055C0000584028C8388848B4FF68F752C404FF6B0
:1055D000FC752C400D882C434FF6FF552A400D8951
:1055E0004FF6FF7606EA05252A434D8806EA05258B
:1055F0002A431F4DA84202D0234DA8421DD14FF28D
:10560000FF752A404D894FF6FF7606EA05252A43A5
:105610004FF6FF352A408D8806EA05252A434EF6C7
:10562000FF752B404DF6FF752B408D8906EA051559
:105630002B43CD8906EA05152B4383808483CD88CF
:105640008587028470BD70B5002200230024058C7C
:105650004EF6FF7635400584038C8488828B48F6AD
:10566000FF752A404FF6FF452A400D8820E00000D4
:10567000002C01400004004000080040000C0040E5
:10568000001000400014004000340140004C014074
:10569000005001400054014000180040001C004030
:1056A000002000400040014000440140004801400B
:1056B0004FF6FF7606EA05252A434DF6FF752B4087
:1056C0000D8906EA05352B434D8806EA05352B433F
:1056D000FA4DA84202D0FA4DA84208D14BF6FF7508
:1056E0002C408D894FF6FF7606EA85152C43848081
:1056F0008283CD88A0F84050038470BD828B4FF226
:10570000FF331A408283828B4FF6FF7303EA012333
:105710001A4382837047F0B50C46154600220021DB
:105720000026078C4EF6FF7C07EA0C070784828B65
:10573000018C4FF6FF7707EA043640F6FF473A4000
:105740004FF6FF7707EA05273A434FF6FF7707EA58
:1057500003373A43D94FB8420ED0D94FB8420BD095
:10576000B0F1804F08D0D74FB84205D0D64FB842DD
:1057700002D0D64FB84206D14DF6FF77394046F4F5
:105780008057394305E047F6FF57394044F48057C6
:10579000394382830184F0BD828B4FF6F3731A4044
:1057A0008283828B0A4382837047F0B50C4615468C
:1057B000002200210026078C4FF6FF6C07EA0C0739
:1057C0000784828B018C4FF6FF7707EA04264FF699
:1057D0000C773A404FF6FF7707EA03172F433A4317
:1057E000B64FB8420ED0B64FB8420BD0B0F1804F92
:1057F00008D0B44FB84205D0B34FB84202D0B34F2F
:10580000B84206D14FF6FF57394046F48077394306
:1058100005E04FF2FF57394044F4807739438283E3
:105820000184F0BD028B4FF2FF331A400283028BDA
:105830004FF6FF7303EA01231A4302837047F0B562
:105840000C461546002200210026078C4FF6EF7CFF
:1058500007EA0C070784028B018C4FF6FF7707EAF3
:10586000041640F6FF473A404FF6FF7707EA033742
:105870003A434FF6FF7707EA05273A438F4FB8427E
:105880000ED08F4FB8420BD0B0F1804F08D08D4F63
:10589000B84205D08C4FB84202D08C4FB84206D1E6
:1058A0004FF6DF77394046F01007394305E04FF6F1
:1058B0005F77394044F01007394302830184F0BD1B
:1058C000028B4FF6F3731A400283028B0A43028362
:1058D0007047F0B50C46154600220021068C4FF6A5
:1058E000FE773E400684028B018C4FF60C763240E8
:1058F0007E1C06EA03162E433243704EB0420ED091
:105900006F4EB0420BD0B0F1804F08D06D4EB04218
:1059100005D06D4EB04202D06C4EB04206D14FF66B
:10592000FD76314044F00106314305E04FF6F5764F
:10593000314044F00106314302830184F0BD70B56B
:1059400005460C465D4885420ED05D4885420BD029
:10595000B5F1804F08D05B48854205D05A48854252
:1059600002D05A48854200D100E000BF208850B9DB
:105970002389A28861882846FFF7ABFFE188284683
:10598000FFF79EFF25E0208804280AD12389A288FA
:1059900061882846FFF753FFE1882846FFF742FF5A
:1059A00017E0208808280AD12389A2886188284620
:1059B000FFF7FBFEE1882846FFF7EEFE09E02389AA
:1059C000A28861882846FFF7A6FEE1882846FFF7EF
:1059D00095FE70BD2DE9F04105460C4600260127D5
:1059E000608808B9022600E00026A088012801D1BD
:1059F000022700E001272088A0B92389A2886188B6
:105A00002846FFF766FFE1882846FFF759FF2389FC
:105A10003A4631462846FFF712FFE1882846FFF74D
:105A200001FF13E02389A28861882846FFF707FF5A
:105A3000E1882846FFF7F6FE23893A463146284694
:105A4000FFF747FFE1882846FFF73AFFBDE8F081FE
:105A50000A884B881A438B881A43CB881A430B89D0
:105A60001A434B891A438B891A43A0F84420704784
:105A70004FF6FF71818000210180C1804180017259
:105A800070470021018041808180C1800181418176
:105A90008181C18170470021018041800121818085
:105AA0000021C180018170470021018041808180F7
:105AB000C18001814181818170470000002C01403B
:105AC000003401400004004000080040000C004089
:105AD00021B1028842F00102028004E002884FF600
