:020000040800F2
:10000000C80B002001010008890100088B010008CD
:100010008F0100089301000897010008000000000C
:100020000000000000000000000000009D0100082A
:100030009B010008000000009F010008B7010008B4
:100040001B0100081B0100081B010008A10100089A
:100050001B0100081B0100081B0100081B01000810
:100060001B0100081B0100081B0100081B01000800
:100070001B0100081B0100081B0100081B010008F0
:100080001B0100081B0100081B0100081B010008E0
:100090001B0100081B0100081B0100081B010008D0
:1000A0001B0100081B0100081B0100081B010008C0
:1000B0001B0100081B0100081B0100081B010008B0
:1000C0001B0100081B0100081B0100081B010008A0
:1000D0001B01000803070008570400081B01000863
:1000E000250700081B0100081B010008DFF80CD0E1
:1000F00006F0A0FE0048004725010008C80B0020BC
:100100000648804706480047FEE7FEE7FEE7FEE7B1
:10011000FEE7FEE7FEE7FEE7FEE7FEE7F16C00081C
:10012000ED0000084FF4A06004F080FE00F0C6F877
:1001300000F0FDF800F08AFA00F0C7FA04F0CCFAFB
:1001400000F022F900F060F900200D49087000F07D
:100150007AFB00F0E8FB00F09DFD01F007F801F0EC
:1001600031FE04F007FD074804F041FD01F0F6FC04
:1001700005E004F00EF901F076FE04F082FCF8E7E9
:1001800094070020A8070020704700BFFEE700BFCB
:10019000FEE700BFFEE700BFFEE77047704770470D
:1001A00010B5012005F01CFC20B1012005F028FC51
:1001B00005F0EAFB10BD2E480068401C2C49086081
:1001C0000846006864280AD92A480078401C294952
:1001D0000870012028490870002025490860274838
:1001E0000068401C2549086008460068B0F5C87FD3
:1001F00002D900202249086022480078401C214989
:10020000087008460078C72807DD1F480078401CA2
:100210001D49087000201B4908701C48007860B90F
:100220001B480078401C1A490870084600780F28BF
:1002300006DD01201549087002E00020144908700D
:10024000144800786A2811D01248007835280DD05B
:1002500011480068401C1049086008460068B0F565
:10026000FA6F03D9002008600A490870704700003F
:100270000400002008000020010000208C00002065
:10028000880000209000002091000020B60000208F
:10029000B50000203C0000208000002010B50028A0
:1002A00007DA0A07140E344A00F00F031B1FD45458
:1002B00003E00A07130E314A135410BD10B505F0C0
:1002C00025F9012005F0A9F900BF212005F063F907
:1002D0000028FAD04FF48011002005F0A1F9002089
:1002E00005F0C7F9002005F0CDF94FF4806005F066
:1002F000D2F9012005F0A0F900BF392005F04BF933
:100300000028FAD0022005F0A6F900BF05F0ACF9EC
:100310000828FBD10121084605F06FFA0121184891
:1003200005F011F80121C80305F00DF810BD10B556
:1003300014480068C821B0FBF1F4B4F1807F01D308
:10034000012011E024F07F40401E4FF0E021486181
:100350000F214FF0FF30FFF7A1FF00204FF0E02109
:10036000886107200861002008B100BFFEE7002176
:10037000481EFFF793FF10BD18ED00E000E400E019
:1003800000023000FC00002000B585B001210420EF
:1003900005F033FA0121480405F03CFA0420ADF8D9
:1003A000100018208DF8130003208DF8120004A906
:1003B000A14804F0F9FE0820ADF8100004208DF8E3
:1003C000130004A99C4804F0EFFE4FF4165000906F
:1003D0000020ADF80400ADF80600ADF80800ADF857
:1003E0000C000C20ADF80A006946944806F063FA48
:1003F000012240F22551914806F0F5FA01218F487B
:1004000006F0E5FA05B000BD08B526208DF800001D
:1004100001208DF8010000208DF8020001208DF8E8
:100420000300684604F007FD08BD70B504460D469C
:10043000E1B2824806F038FB00BF8048008810F027
:10044000800FFAD0204670BD10B5044621467CA02E
:1004500006F002FD10BD10B540F22551774806F0B8
:10046000A7FB012803D12021744806F098FB10BD9A
:100470002DE9FC5F06460C4615460027B8460020CD
:10048000019081468246834605F042FA00F5E1403C
:100490006C49009004F061FC6B496A4801F0CCFFA4
:1004A000AA20FFF7D1FF4220FFF7CEFF0120FFF780
:1004B000CBFF0120FFF7C8FF0120FFF7C5FF304643
:1004C000FFF7C2FFFF20FFF7BFFFA078617840EA87
:1004D0000110C7B22079E17840EA011000F0FF086E
:1004E0003846FFF7B1FF4046FFF7AEFF102D54D25C
:1004F000DFE805F053080D12171C21262B30353A82
:100500003F44494E01200190FFF79EFF4AE00D2035
:100510000190FFF799FF45E003200190FFF794FF5A
:1005200040E00B200190FFF78FFF3BE0052001909A
:10053000FFF78AFF36E006200190FFF785FF31E0E4
:1005400007200190FFF780FF2CE00C200190FFF7BF
:100550007BFF27E009200190FFF776FF22E00A20C9
:100560000190FFF771FF1DE004200190FFF76CFF81
:1005700018E008200190FFF767FF13E002200190C8
:10058000FFF762FF0EE00E200190FFF75DFF09E02C
:100590000F200190FFF758FF04E000200190FFF7C3
:1005A00053FF00BF00BF0020FFF74EFF0020FFF702
:1005B0004BFF254800790A2190FBF1F000EB400049
:1005C0002149097901EB400000F0FF0A1E484079FB
:1005D0000A2190FBF1F000EB40001B49497901EB47
:1005E000400000F0FF0B184880790A2190FBF1F0E1
:1005F00000EB40001449897901EB400000F0FF094D
:100600005046FFF721FF5846FFF71EFF4846FFF709
:100610001BFF06F5F771394401EB080201991144FB
:10062000514459444944C8B2FFF70EFF5520FFF723
:100630000BFFBDE8FC9F00000008014000440040A3
:1006400025630000A80700202700002000B585B022
:10065000012144F2040005F0D0F84FF40070ADF829
:10066000100018208DF8130003208DF8120004A943
:100670002A4804F099FD4FF48060ADF81000042082
:100680008DF8130004A9254804F08EFD4FF4165090
:1006900000900020ADF80400ADF80600ADF80800A9
:1006A000ADF80C000C20ADF80A0069461C4806F0B5
:1006B00002F9012240F22551194806F094F901216E
:1006C000174806F084F905B000BD08B525208DF85F
:1006D000000001208DF801008DF802008DF8030064
:1006E000684604F0A8FB08BD10B5044621460C4836
:1006F00006F0DAF900BF0A48008810F0800FFAD03F
:1007000010BD10B540F22551054806F051FA0128F8
:1007100003D12021024806F042FA10BD0008014032
:100720000038014070B500256C48006810F4004F97
:1007300000D001254FF08040848C00204FF0804194
:100740008884002D4BD0B4F5967F65DD6448007831
:10075000182861DD6348006840086249086008465F
:10076000006820F07F400860084600685E49084243
:100770002FD05C4800685D490968884215D15C4803
:100780000078401C5A49087008460078FA2801DDB4
:10079000FA200870534800685649086001205649FD
:1007A000087000205549086010E00020504908708A
:1007B0004C4800684D4908604A4800684D49086047
:1007C00001204D49087000204C49086000204C4928
:1007D0000860002043490860414908701CE0152C5E
:1007E00001DBD22C07DD00203D4908703D4908603F
:1007F0003F49087010E03B480068400039490860F4
:10080000552C04DD0846006840F0010008603448BB
:100810000078401C324908704FF4004004F05BFC43
:1008200070BD08B50121042004F0E7FF4FF400403B
:10083000ADF8000048208DF80300694627480838C5
:1008400004F0B2FC08BD10B586B00024FFF7E9FF44
:100850000121084604F0D1FF0F21002004F0B8FD6B
:100860004FF40040049000208DF8140010208DF803
:10087000150001208DF8160004A804F0B5FB28200F
:100880008DF80C0000208DF80D008DF80E00012071
:100890008DF80F0003A804F0CEFA0121084604F0F9
:1008A000B9FF184800681849B0FBF1F0401E84B247
:1008B0004FF6FF70ADF80400ADF800400020ADF831
:1008C0000600ADF8020069464FF0804005F076F969
:1008D0000121880705F0CEFC06B010BD08080140D4
:1008E000240000201C000020F0FFFF00200000205A
:1008F000260000201000002025000020800000209D
:100900008C000020FC000020A086010005E00221F0
:1009100000BF4A1E92B21100FBD10200A0F10103F8
:1009200098B2F4D1704708B50121082004F065FFA2
:1009300010208DF8030003208DF802004FF478702A
:10094000ADF800006946F74804F02EFC48208DF809
:1009500003001020ADF800006946F24804F024FCC2
:1009600008BD30B504460020EF490860054618E090
:100970000020EE49086014F0010F04D00120A1F11D
:100980000401086002E00020E94908604FF005001A
:10099000FFF7BCFF0120E54908604FEA640405F158
:1009A0000105082DE4D30020E0490860E149C1F8C1
:1009B000A00130BD30B504460020DF49086005467F
:1009C00017E00020D949086014F0010F03D001207E
:1009D000D749086002E00020D54908604FF00500C3
:1009E000FFF794FF0120D14908604FEA640405F144
:1009F0000105082DE5D30020CC490860CD49C1F898
:100A0000A00130BD30B504460020CC490860054641
:100A100017E00020C549086014F0010F03D0012041
:100A2000C349086002E00020C14908604FF005009A
:100A3000FFF76CFF0120BD4908604FEA640405F12F
:100A40000105082DE5D30020B8490860B949C1F86F
:100A5000A00130BD10B504460120B34908604FF035
:100A60000500FFF753FF0020B249C1F8940120466A
:100A7000FFF777FF10BDF8B5FF2600200090422059
:100A8000FFF7E8FF0120AE4908604FF0000424E0C2
:100A900000251BE00020A54908601DF804004FEA6E
:100AA00060000DF804004FF00100A249C1F8A40154
:100AB000A348006828B11DF8040040F080000DF83C
:100AC00004000520FFF722FF681CC5B2082DE1DBFA
:100AD0000520FFF71BFF601CC4B2042CD8DB0020EC
:100AE000924908609349C1F810014FF001008E4906
:100AF00008609DF8000048B99DF8010030B99DF8E4
:100B0000020018B99DF8030000286FD000208D491D
:100B100008609DF80000102818D008DC01280DD0CE
:100B200002280DD004280DD0082817D10CE0202869
:100B30000ED040280ED0802810D10DE019260EE0EE
:100B400011260CE009260AE0012608E01A2606E034
:100B5000122604E00A2602E0022600E000BF00BFE1
:100B60009DF80100102818D008DC01280DD00228BB
:100B70000DD004280DD0082817D10CE020280ED065
:100B800040280ED0802810D10DE01B260EE0132641
:100B90000CE00B260AE0032608E01C2606E01426DB
:100BA00004E00C2602E0042600E000BF00BF9DF830
:100BB0000200102818D008DC01280DD002280DD022
:100BC00004280DD0082818D10CE020280FD0402888
:100BD0000FD0802811D10EE01D260FE015260DE064
:100BE0000D260BE0052609E01E2607E02EE016265E
:100BF00004E00E2602E0062600E000BF00BF9DF8DC
:100C00000300102818D008DC01280DD002280DD0D0
:100C100004280DD0082817D10CE020280ED0402839
:100C20000ED0802810D10DE01F260EE017260CE014
:100C30000F260AE0072608E0202606E0182604E032
:100C4000102602E0082600E000BF00BF3046F8BDD5
:100C500010B504460120384908604FF00500FFF741
:100C600055FE00203349C1F898012046FFF7A2FE47
:100C700010BD10B504460120304908604FF0050052
:100C8000FFF744FE00202B49C1F89C012046FFF7E6
:100C9000B9FE10BD10B54020FFF7DCFEC020FFF705
:100CA000D9FE00240AE02849085DFFF75AFE2649CC
:100CB0000831085DFFF755FE601CC4B2082CF2DB5A
:100CC000224909788831C8B2FFF7C4FE01201649CD
:100CD00008604FF04000FFF7BBFFC020FFF7B8FFF0
:100CE00000240BE018491031085DFFF763FE164938
:100CF0001831085DFFF75EFE601CC4B2082CF1DB02
:100D0000124909788831C8B2FFF7A2FF01200A49C9
:100D100008604FF04000FFF7ACFFC020FFF7A9FFCD
:100D2000002420E0000C014094812142A481214252
:100D3000A081214200802142988121429C81214250
:100D40001081214280000020140100207600002044
:100D5000F749085DFFF756FEF5490831085DFFF7D2
:100D600051FE601CC4B2082CF2DBF24909788831CC
:100D7000C8B2FFF77EFF0120EF49086010BD10B533
:100D80003021EB48203806F04AF810BD10B5044673
:100D9000FFF7F5FFE948C07BE54920394870E7488F
:100DA000005D0870FFF776FF10BD10B50446FFF731
:100DB000E6FFE248807BDE4920394870DF48005D6D
:100DC0000870FFF767FF10BD10B50446FFF7D7FFA7
:100DD00020780A2190FBF1F0D849095CD4482038EA
:100DE000C17220780A2190FBF1F201FB1200D34975
:100DF000095CCF482038817260780A2190FBF1F0BD
:100E0000CE49095CCA482038417260780A2190FBBB
:100E1000F1F201FB1200C949085CC549203908728A
:100E2000A0780A2190FBF1F0C449085CC049203940
:100E3000C871A0780A2190FBF1F201FB1200BF49B2
:100E4000085CBB4920398871E0780A2190FBF1F0F9
:100E5000BA49085CB64920394871E0780A2190FB0C
:100E6000F1F201FB1200B549085CB1492039087163
:100E700020790A2190FBF1F0B049085CAC49203997
:100E8000C87020790A2190FBF1F201FB1200AB49F6
:100E9000085CA7492039887060790A2190FBF1F03D
:100EA000A649085CA2492039487060790A2190FB64
:100EB000F1F201FB1200A149085C9D49203908703C
:100EC000E07928B99D48C17999482038017305E037
:100ED000E0799A49095C964820380173FFF7DAFEF9
:100EE00010BD10B59648007850B9002090492039BF
:100EF00048700870FFF7CEFE01209149087005E0A8
:100F00009048FFF761FF00208D49087010BD10B5B3
:100F10008D48007850B9002085492039C870887004
:100F2000FFF7B8FE01208849087005E08548FFF703
:100F30004BFF00208449087010BD10B5834800782D
:100F400050B900207A49203948710871FFF7A2FE94
:100F500001207E49087005E07A48FFF735FF002040
:100F60007A49087010BD10B57948007850B9002052
:100F70006F492039C8718871FFF78CFE01207449D0
:100F8000087005E06F48FFF71FFF002070490870E8
:100F900010BD10B56F48007868B90021644820384A
:100FA00041720020624920390872FFF773FE012068
:100FB0006849087005E06348FFF706FF00206549AF
:100FC000087010BD10B56448007848B90021584831
:100FD00020380173FFF75EFE01205F49087005E0CD
:100FE0005848FFF7F1FE00205B49087010BD10B5AE
:100FF0000446FFF7C4FE20785049085C4C4920396C
:10100000C87060784D49085C494920398870A078DB
:101010004A49085C464920394870E0784749085CED
:10102000434920390870FFF735FE10BD10B504465E
:10103000FFF7A5FE0A2094FBF0F04049085C3C490C
:10104000203948700A2094FBF0F100FB11403B4925
:10105000085C374920390870FFF71CFE10BD10B539
:101060000446FFF78CFE0A2094FBF0F100FB1140D0
:101070003249085C2E4920390870FFF70BFE10BD7D
:1010800010B504463548007848B900202849203971
:101090000870FFF7FFFD01203049087005E0204689
:1010A000FFF7A5FF00202D49087010BD10B50446BC
:1010B0002B48007848B900201D4920394870FFF7B7
:1010C000E9FD01202649087005E02046FFF78FFF63
:1010D00000202349087010BD10B50446214800784F
:1010E00048B90020124920398870FFF7D3FD01204C
:1010F0001C49087005E02046FFF779FF00201949D8
:10110000087010BD10B504461748007848B9002093
:1011100007492039C870FFF7BDFD0120124908704A
:1011200005E02046FFF763FF00200F49087010BD5F
:1011300034010020760000209C812142666F000867
:101140002F00002027000020300000203100002068
:101150003200002033000020340000203500002041
:1011600036000020370000203800002008B501219B
:10117000082004F042FB14208DF8030003208DF8B2
:1011800002008002ADF800006946FE4804F00CF849
:1011900010208DF803000002ADF800006946F94800
:1011A00004F002F80120F8490860F849C1F8AC01E0
:1011B0004FF00000F649086008BD06E0072100BFB7
:1011C0000A00A1F10103D9B2FAD10200A0F1010392
:1011D00098B2F3D1704710B50120EE4908604FF086
:1011E0000500FFF7EAFF0120E849C1F8A801052042
:1011F000FFF7E3FF0020E74908604FF00500FFF725
:10120000DCFF0020E149C1F8A8010520FFF7D5FF68
:1012100010BD70B5044600251FE014F0800F03D008
:101220000120DC49086002E00020DA4908604FF044
:101230000200FFF7C2FF0120D54908604FF002000D
:10124000FFF7BBFF6006040E0020D049C1F8A801DB
:101250000220FFF7B2FF681CC5B2082DDDDB0120BC
:10126000CC4908604FF00200FFF7A7FF0120C749F3
:10127000C1F8A8010220FFF7A0FFC748006808B125
:10128000012070BD0020C24908604FF00200FFF746
:1012900094FF0020BD49C1F8AC010220FFF78DFF8B
:1012A0000020EEE770B500240120BA4908604FF035
:1012B000000517E06006040E0120B54908604FF0F4
:1012C0000200FFF77AFFB148D0F82C0108B144F0D2
:1012D00001040020AE4908604FF00200FFF76DFFE7
:1012E000681CC5B2082DE5DB204670BD10B5002096
:1012F000A74908604FF00500FFF75FFF0020A349F2
:10130000C1F8AC010520FFF758FF0120A049086093
:101310004FF00500FFF751FF01209C49C1F8AC01D7
:101320000520FFF74AFF10BD2DE9F04106460C46A7
:1013300017460125FFF74FFFA020FFF76AFF05467C
:1013400015B10120BDE8F081C6F30420FFF761FF6D
:1013500005460DB10120F5E7F0B2FFF75AFF05464B
:101360000DB10120EEE7FFF736FFA120FFF751FF97
:1013700005460DB10120E5E71AE0FFF793FF207065
:101380000020844908604FF00500FFF716FF012098
:101390007E49C1F8A8010520FFF70FFF00207C4916
:1013A00008604FF00500FFF708FF641C781E87B245
:1013B000012FE2DCFFF776FF2070012075490860FD
:1013C0004FF00500FFF7F9FE01207049C1F8A801B0
:1013D0000520FFF7F2FE00206D4908604FF0050080
:1013E000FFF7EBFEFFF782FF0020ABE72DE9F047A8
:1013F0008046894616460125002063490860044658
:1014000034E008EB040087B2FFF7E5FEA020FFF709
:1014100000FF054615B10120BDE8F087C7F30420A1
:10142000FFF7F7FE05460DB10120F5E7F8B2FFF72B
:10143000F0FE05460DB10120EEE74FF0000A0DE089
:1014400019F80400FFF7E5FE05460DB10120E3E7BA
:10145000601C84B20AF1010000F0FF0AB245EFDB24
:10146000FFF744FF4FF4FA60FFF7A7FEB442C8DB72
:101470000120454908604FF00000CDE72DE9FC410F
:1014800004460026202500272AE00822694628462F
:10149000FFF74AFF019810F07F4F1AD13F480078BC
:1014A000022806D13E490198084001906068084032
:1014B00060600198616888420DD13A4800990160E6
:1014C0000020384908717A2003F026F90120BDE890
:1014D000FC8106B92E4605F1080085B2781C87B25A
:1014E000B7F5007FD1DB082221463046FFF77EFFAB
:1014F0001EB1792003F010F904E07A2003F00CF912
:101500000120E4E70020E2E72DE9FC410446002643
:101510004FF4A15500272AE0082269462846FFF724
:1015200003FF019810F07F4F1AD11C480078022861
:1015300006D11B490198084001906068084060602E
:101540000198616888420DD1174800990160002018
:10155000154908717A2003F0DFF80120BDE8FC810D
:1015600006B92E4605F1080085B2781C87B2202FF7
:10157000D2DB082221463046FFF738FFCEB1792072
:1015800014E00000000C0140B081214200802142A3
:10159000A8812142AC8121422C8121427E00002081
:1015A000F0FFFF00480000205200002003F0B4F8D4
:1015B00004E07A2003F0B0F80120CFE70020CDE767
:1015C0002DE9FC41044600264FF4815500272AE00E
:1015D000082269462846FFF7A7FE019810F07F4FC2
:1015E0001AD1FA480078022806D1F9490198084032
:1015F00001906068084060600198616888420DD180
:10160000F448009901600020F24908717A2003F043
:1016100083F80120BDE8FC8106B92E4605F10800DB
:1016200085B2781C87B2402FD2DB08222146304693
:10163000FFF7DCFE1EB1792003F06EF804E07A209B
:1016400003F06AF80120E5E70020E3E72DE9FC411B
:10165000044600264FF4915500272AE008226946E7
:101660002846FFF761FE019810F07F4F1AD1D74846
:101670000078022806D1D649019808400190606898
:10168000084060600198616888420DD1D248009995
:1016900001600020D04908717A2003F03DF8012054
:1016A000BDE8FC8106B92E4605F1080085B2781C1C
:1016B00087B2402FD2DB082221463046FFF796FE44
:1016C0001EB1792003F028F804E07A2003F024F812
:1016D0000120E5E70020E3E770B58AB00546202643
:1016E0002021684605F09BFBFF222021684605F07B
:1016F0008FFB286880B900240BE006EB441188B208
:1017000020226946FFF772FE6420FFF756FD601C39
:1017100084B2802CF1DB22E000241CE0082208A91E
:101720003046FFF701FE099810F07F4F0ED1286870
:10173000089988420AD1FF22082108A805F068FB11
:10174000082208A93046FFF751FE07E006F108001D
:1017500086B2601C84B2B4F5007FDFDB00BF0020DE
:101760000AB070BD70B58AB005464FF4A15620216D
:10177000684605F054FBFF222021684605F048FB2F
:10178000286880B900240BE006EB441188B22022BF
:101790006946FFF72BFE6420FFF70FFD601C84B243
:1017A000082CF1DB21E000241CE0082208A93046C7
:1017B000FFF7BAFD099810F07F4F0ED128680899FD
:1017C00088420AD1FF22082108A805F021FB08223F
:1017D00008A93046FFF70AFE06E006F1080086B2C7
:1017E000601C84B2202CE0DB00BF00200AB070BD7A
:1017F00070B58AB005464FF481562021684605F041
:101800000EFBFF222021684605F002FB286880B904
:1018100000240BE006EB441188B220226946FFF752
:10182000E5FD6420FFF7C9FC601C84B2102CF1DBDD
:1018300021E000241CE0082208A93046FFF774FDCF
:10184000099810F07F4F0ED12868089988420AD174
:10185000FF22082108A805F0DBFA082208A9304673
:10186000FFF7C4FD06E006F1080086B2601C84B2F2
:10187000402CE0DB00BF00200AB070BD70B58AB01C
:1018800005464FF491562021684605F0C8FAFF221C
:101890002021684605F0BCFA286880B900240BE0D6
:1018A00006EB441188B220226946FFF79FFD6420B1
:1018B000FFF783FC601C84B2102CF1DB21E00024D4
:1018C0001CE0082208A93046FFF72EFD099810F009
:1018D0007F4F0ED12868089988420AD1FF2208213B
:1018E00008A805F095FA082208A93046FFF77EFD02
:1018F00006E006F1080086B2601C84B2402CE0DBF2
:1019000000BF00200AB070BD10B588B0202233A1FE
:10191000684605F06BFA002408E0002101EB441151
:1019200088B220226946FFF761FD641CA82CF4D31D
:1019300008B010BD2DE9FC4105460C4620260027C5
:101940001DE0082269463046FFF7EEFC1F4800788C
:10195000022805D11E49019808400190084604401C
:101960000198A04206D1DDE90001C5E9000101208E
:10197000BDE8FC8106F1080086B2781C87B2B7F595
:10198000007FDEDB0020F3E72DE9FC4105460C4635
:101990004FF48156002736E0082269463046FFF7AB
:1019A000C3FC0A480078022805D10949019808407B
:1019B0000190084604400198A0421FD1DDE90001D2
:1019C000C5E900010120BDE8FC8100007E00002087
:1019D000F0FFFF005C00002066000020FFFFFFFF1B
:1019E000FFFFFFFFFFFFFFFFFFFFFFFFFFFFFFFF07
:1019F000FFFFFFFFFFFFFFFFFFFFFFFF06F10800F4
:101A000086B2781C87B2402FC6DB0020BDE8FC817F
:101A10002DE9FC4105460C464FF4915600271DE088
:101A2000082269463046FFF77FFCD248007802283A
:101A300005D1D14901980840019008460440019819
:101A4000A04206D1DDE90001C5E900010120BDE8A1
:101A5000FC8106F1080086B2781C87B2402FDFDBDC
:101A60000020F4E770B504460D4629462046FFF7EE
:101A7000CFFF08B1012070BD29462046FFF784FF43
:101A800008B10220F7E729462046FFF753FF08B1C7
:101A90000320F0E70020EEE72DE9FC4105460C4667
:101AA0004FF4A15600271DE0082269463046FFF793
:101AB0003BFCB0480078022805D1AF4901980840A6
:101AC0000190084604400198A04206D1DDE90001DA
:101AD000C5E900010120BDE8FC8106F1080086B2DD
:101AE000781C87B2202FDFDB0020F4E710B5A34875
:101AF0000078A3490870A34800784870A24800788D
:101B00008870A2480078C870A14800780871A14880
:101B100000784871A04800788871A0480078C871A2
:101B20009F48007808729F48007848729E48007865
:101B300088729E480078C8729D48007808738D4866
:101B4000007848739B48007888739B480078C87376
:101B500010224FF4AA50FFF749FC10BD10B5102217
:101B600096494FF4A950FFF7DFFB1022944941F248
:101B70003050FFF7D9FB102281494FF4AA50FFF7EC
:101B8000D3FB7F4800787D4908707D4840787D49C7
:101B900008707B4880787C4908707948C0787B4918
:101BA0000870774800797A49087075484079794912
:101BB000087073488079784908707148C07977490E
:101BC00008706F48007A764908706D48407A754908
:101BD00008706B48807A744908706948C07A734904
:101BE00008706748007B724908706548407B61490E
:101BF00008706348807B6F4908706148C07B6E49FC
:101C000008705F480078032802DD01205B490870F6
:101C10005B484078632802DD01205A490870584823
:101C20008078632802DD0120574908705448C07845
:101C3000632802DD012055490870514800790728C2
:101C400002DD0020524908704D484079092802DD24
:101C50000120504908704A488079012802DD00209F
:101C60004D4908704648C079092802DD06204B49D5
:101C700008704348007A072802DD032048490870AD
:101C80003F48407A012802DD0020464908703C4860
:101C9000807A012802DD0020434908703848C07A64
:101CA000012802DD0020414908703548007B0B28DF
:101CB00002DD0B203E4908703148407B022802DDDE
:101CC00002202C4908702E48807B012802DD01206B
:101CD000384908702A48C07B022802DD01203649B5
:101CE000087010BD012025490870264908700020A1
:101CF00025490870254908702549087001202549A3
:101D00000870002024490870062024490870032028
:101D100023490870012023490870002022490870D7
:101D2000224908700B2022490870022011490870CE
:101D3000704710B501221021204805F069F80120F4
:101D40001F49087000204870032088700520C87063
:101D5000022008710120487188710620C871012095
:101D6000087248728872C872087348738873C8739F
:101D700010BD00007E000020F0FFFF00700000207A
:101D80004401002071000020440000204500002094
:101D900072000020730000207400002075000020F5
:101DA00076000020770000207800002079000020D5
:101DB0007A00002047000020460000209500002007
:101DC000A500002008B50121042003F016FD3320F2
:101DD000ADF8000048208DF803006946FE4803F086
:101DE000E3F908BD06E00C2100BF0A00A1F10103E0
:101DF000D9B2FAD10200A0F1010398B2F3D1704731
:101E000010B5FF24F548006840B1F548006828B1D6
:101E1000F448006810B1F448006810BB42F210703A
:101E2000FFF7E0FFED48006840B1ED48006828B1D9
:101E3000EC48006810B1EC48006890B90020EB490C
:101E40000860E648006800B90324E548006800B966
:101E50000B24E448006800B91324E348006800B983
:101E60001B24204610BD10B50020E1490870FFF783
:101E7000C7FFE049087008460078FF284BD1DE48CC
:101E80000078012847D1DD4800781E2814DDDC48A1
:101E90000078012810D10020D74908700320D449C8
:101EA00008700120D5490870D6490870D6490870D5
:101EB0000320D04908702EE0D048007838BB0020BD
:101EC000CD490870CE480078012806D0022810D0ED
:101ED000042812D0082818D113E0CB480078012834
:101EE00003D10020C849087002E00320C1490870EE
:101EF0000CE00B20BF49087008E01320BD490870B2
:101F000004E01B20BB49087000E000BF03E0BD48AF
:101F10000078BA490870B7480078002870D0B548F2
:101F20000078032806D00B286BD013286AD01B2812
:101F300069D1A9E1AEE0AE4800780228FADDB348E5
:101F400000784D2848D016DC312866D00BDC0D28EF
:101F500032D003DC40B30C287ED129E00F282FD0EB
:101F600030287ED162E0483805287AD2DFE800F0D8
:101F70002C2D2E2F3300532837D008DCA0F14E0033
:101F800005286ED2DFE800F0292A2E2F30005628CF
:101F900031D004DC54282CD0552862D12AE05728AF
:101FA0002AD06A285DD12FE002209849087059E0B4
:101FB00033209649087055E034209449087051E068
:101FC0003620924908704DE000BF00BF00BF904826
:101FD000FFF782FB46E000BF00BF00BF8D48FFF760
:101FE000C1FB3FE000BF00BF00BF8B48FFF700FC14
:101FF00038E000BF00BF00BF8848FFF73FFC31E07A
:1020000084E1D0E01FE163E10220804908704FF4D1
:102010004871834804F003FF24E0FFF763FEFFF7F5
:1020200065FD012000F074F900F077F9FFF75AFE22
:10203000FFF77FFEFFF75AFD10227A494FF4A950AF
:10204000FFF7D4F91022784941F23050FFF7CEF96A
:10205000FFF75AFC012000E003E000F059F900F01E
:102060005CF900BF00BF6948007800EB40006F4991
:1020700001EB800080686E49086008460068804770
:1020800000BF564800680028FBD0FEF7F4FC032888
:10209000F7D010BD5148006838B1FEF7ECFC0328BA
:1020A00003D05348007802285CDD584800780028A7
:1020B0003FF441AF554800780C28F9D053480078D8
:1020C0000D28F5D0514800784828F1D04F480078C5
:1020D0004928EDD04D4800784A28E9D04B4800788F
:1020E0004B28E5D0494800784C28E1D04748007893
:1020F0004D28DDD0454800784E28D9D04348007897
:102100004F28D5D0414800785028D1D03F4800789A
:102110005128CDD03D4800785228C9D03B4800789E
:102120005328C5D0394800785428C1D037480078A2
:102130005528BDD0354800785628B9D033480078A6
:102140005728B5D0314800783028B1D02F480078D2
:102150003128ADD02D4800786A28A9D02B480078C6
:102160000F28A5D02948007800EB40002F4901EB4B
:1021700080004078254908700846007800EB400050
:102180002A4901EB800080682949086008460068F8
:10219000804700BF114800680028FBD0FEF76BFCA9
:1021A0000328F7D0B1E01948007800EB40001F4940
:1021B00001EB80008078154908700846007800EB34
:1021C00040001A4901EB8000806819490860084600
:1021D0000068804700BF2DE0000801400001214257
:1021E00004012142100121421401214280000020FB
:1021F000080000203D0000209200002094000020F4
:1022000093000020260000203E0000203C0000201B
:102210004D00002057000020610000206B000020CE
:102220005401002095000020A5000020986F0008B0
:10223000400000203F4800680028CCD0FEF71BFC7F
:102240000B28C8D061E03C48007800EB40003B49D7
:1022500001EB8000C078384908700846007800EB30
:102260004000364901EB8000806835490860084627
:102270000068804700BF334800680028FBD0FEF7A5
:10228000FAFB1328F7D040E000202F4908702A48B5
:10229000007800EB4000294901EB800000792649D5
:1022A00008700846007800EB4000244901EB8000EC
:1022B00080682349086008460068804700BF2348BB
:1022C00000680028FBD0FEF7D6FB1B28F7D01CE0E7
:1022D0001F480078012817D100201D4908701648B2
:1022E000007800EB4000154901EB8000806814493C
:1022F00008600846006880470F4800786A2803D1C4
:1023000002F07FF902F0A2F900BF00BF00BFC0E6F3
:1023100000F0010181F3138870470E48006800F453
:10232000E0600D490843001D0A490860BFF3408F73
:1023300000BFFEE7040121423C000020986F000826
:1023400040000020100121422500002014012142FC
:10235000010000200CED00E00000FA05C178092919
:1023600023D1817809291AD14178092910D101781E
:10237000491C01700021417081700178152904D138
:10238000002101700121C17012E00121C1700FE034
:102390004178491C417000218170C17008E081784A
:1023A000491C81700021C17002E0C178491CC170D4
:1023B000704710B50446FB480078032807D1FA4857
:1023C0000078012803D1204602F0A6F922E0F54862
:1023D00000780B2807D1F4480078012803D1204663
:1023E00002F09AF916E0EF480078132807D1EE487A
:1023F0000078012803D1204602F08EF90AE0E9486E
:1024000000781B2806D1E8480078012802D1204630
:1024100002F082F910BD427802F5FA624A618278D0
:102420000A61C278CA6002798A6042794A60827918
:102430000A60C2798A617047027DA2F5FA624A7029
:10244000027C8A70027BCA70027A0A7102794A7130
:1024500002788A71027ECA71704770B5044603F033
:1024600093FA2146D148FFF7D6FF204602F037FC09
:10247000054603F056FA03F087FA70BD10B5CC4854
:10248000007810BBCB48007880B9FEF778FC40207C
:10249000C949097801F00301C84A5054FEF7FAFB14
:1024A000C5480078401CC44908700EE003F030FABB
:1024B00000F5E144C249204602F04FFCBB49C04848
:1024C000FFF7BAFFB948FEF77FFCB648007813283B
:1024D00002D102F078F80CE0B24800780B2802D163
:1024E00002F05EF805E0AF4800781B2801D102F049
:1024F00050F810BD10B50020FEF748FC03F008FAB4
:1025000000F5E144AE49204602F027FCA749AC485B
:10251000FFF792FF10BD10B50120FEF737FC6F20CA
:10252000FFF747FF10BD10B50220FEF72FFC70200B
:10253000FFF73FFF10BD10B50320FEF727FC712009
:10254000FFF737FF10BD10B50420FEF71FFC722007
:10255000FFF72FFF10BD10B50520FEF717FC732005
:10256000FFF727FF10BD10B50620FEF70FFC742003
:10257000FFF71FFF10BD10B50720FEF707FC752001
:10258000FFF717FF10BD10B50820FEF7FFFB762000
:10259000FFF70FFF10BD10B50920FEF7F7FB7720FE
:1025A000FFF707FF10BD10B50A20FEF7EFFB10BDC7
:1025B00010B50B20FEF7EAFB10BD10B50C20FEF79E
:1025C000E5FB10BD10B50D20FEF7E0FB10BD10B50A
:1025D0000E20FEF7DBFB10BD10B5FEF782FC714844
:1025E0000078132813D1714840793B2803D100208B
:1025F0006E49487104E06D484079401C6B49487150
:102600006F48FFF72AFF6948FEF7DEFB15E06548D3
:1026100000780B2811D16548407918B93B206349EF
:10262000487104E061484079401E6049487164483F
:10263000FFF713FF5D48FEF7C7FB10BD10B5FEF7AF
:1026400066FC58480078132813D158480079172899
:1026500003D100205549087104E054480079401C1A
:10266000524908715648FFF7F8FE5048FEF7ACFB98
:1026700015E04C4800780B2811D14C48007918B966
:1026800017204A49087104E048480079401E47492C
:1026900008714B48FFF7E1FE4448FEF795FB10BD7B
:1026A00010B5FEF74AFC3F480078132813D13F4885
:1026B000C0781F2803D101203C49C87004E03B4882
:1026C000C078401C3949C8703D48FFF7C6FE3748FE
:1026D000FEF77AFB16E0334800780B2812D1334816
:1026E000C078012803D11F203049C87004E02F486A
:1026F000C078401E2D49C8703148FFF7AEFE2B4808
:10270000FEF762FB10BD10B5FEF72DFC25480078E2
:10271000132813D1254880780C2803D101202349A0
:10272000887004E021488078401C20498870244843
:10273000FFF793FE1D48FEF747FB16E019480078A7
:102740000B2812D119488078012803D10C20174991
:10275000887004E015488078401E14498870184835
:10276000FFF77BFE1148FEF72FFB10BD10B5FEF7FB
:1027700010FC0C480078132824D10C4840786328BA
:1027800003D100200949487004E008484078401C03
:10279000064948700A48FFF760FE0448FEF714FB3C
:1027A00026E000003D0000207700002027000020E8
:1027B0005401002046000020850000201401002064
:1027C000A8070020F84800780B2811D1F748407876
:1027D00018B96320F549487004E0F4484078401E79
:1027E000F2494870F248FFF738FEF048FEF7ECFA7D
:1027F00010BD10B5FEF7E6FB10BD10B50120FEF7C9
:10280000D4FA10BD10B50220FEF7CFFA10BD10B5F6
:102810000320FEF7CAFA10BD10B50420FEF7C5FA72
:1028200010BD10B50120FEF7C0FA10BD10B5022092
:10283000FEF7BBFA10BD10B50320FEF7B6FA10BDC7
:1028400010B50420FEF7B1FA10BD10B50120FEF757
:10285000ACFA10BD10B50220FEF7A7FA10BD10B5F6
:10286000D148007813280FD1D2480078632803D1CB
:102870000020D049087004E0CE480078401CCD49C3
:102880000870FFF733F911E0C74800780B280DD125
:10289000C848007818B96320C649087004E0C548E4
:1028A0000078401EC3490870FFF720F9C14800783E
:1028B000FEF7BCFB10BD10B5BB48007813280FD144
:1028C000BD480078632803D10020BB49087004E0AC
:1028D000B9480078401CB8490870FFF707F911E0C3
:1028E000B14800780B280DD1B348007818B963209F
:1028F000B149087004E0B0480078401EAE49087045
:10290000FFF7F4F8AC480078FEF790FB10BD10B567
:102910000120FEF74AFA10BD10B50220FEF745FA75
:1029200010BD10B50320FEF740FA10BD10B504200D
:10293000FEF73BFA10BD10B50520FEF736FA10BDC4
:1029400010B50620FEF731FA10BD10B50720FEF7CE
:102950002CFA10BD10B50820FEF727FA10BD10B5EF
:102960000120FEF722FA10BD10B50220FEF71DFA75
:1029700010BD10B50320FEF718FA10BD10B50420E5
:10298000FEF713FA10BD10B50120FEF70EFA8B48C2
:1029900000788B49087010BD10B50220FEF705FACB
:1029A00000208849087010BD10B50120FEF7FDF920
:1029B00010BD10B50220FEF7F8F910BD704710B534
:1029C0007948007813280DD17F480078012803D179
:1029D00000207D49087002E001207B490870FFF764
:1029E00085F810E0704800780B280CD17648007804
:1029F000012803D100207449087002E001207249C7
:102A00000870FFF773F870480078FEF728FB10BDD8
:102A100010B56548007813280DD16C48007801285E
:102A200003D100206949087002E00120674908705D
:102A3000FFF75CF810E05C4800780B280CD1634885
:102A40000078012803D100206049087002E00120CD
:102A50005E490870FFF74AF85C480078FEF7FFFA15
:102A600010BD704710B50120FEF79FF910BD10B5DD
:102A70000220FEF79AF910BD10B55548FEF700FB8D
:102A800049480078132810D15148C078092803D14B
:102A900000204F49C87004E04D48C078401C4C49A4
:102AA000C8704B48FEF7A3FA12E03F4800780B28A5
:102AB0000ED14748C07818B909204549C87004E0CC
:102AC0004348C078401E4249C8704148FEF78FFA1B
:102AD00010BD10B53E48FEF7E9FA334800781328D8
:102AE00010D13B488078092803D1002038498870EC
:102AF00004E037488078401C354988703448FEF738
:102B000076FA12E0284800780B280ED130488078F9
:102B100018B909202E49887004E02D488078401E9D
:102B20002B4988702A48FEF762FA10BD10B5284874
:102B3000FEF7D2FA1C480078132810D124484078B8
:102B4000092803D100202249487004E02048407839
:102B5000401C1F4948701E48FEF749FA12E012480F
:102B600000780B280ED11A48407818B90920184966
:102B7000487004E016484078401E154948701448D3
:102B8000FEF735FA10BD10B51148FEF7BBFA06483E
:102B90000078132827D10E48007809281AD1002080
:102BA0000B4908701BE000003D00002027000020BA
:102BB000A807002044000020450000207E000020DF
:102BC000840000207F0000204700002046000020F5
:102BD00048000020F7480078401CF6490870F54886
:102BE000FEF705FA12E0F44800780B280ED1F14800
:102BF000007818B90920EF49087004E0ED48007822
:102C0000401EEC490870EB48FEF7F1F910BD10B515
:102C1000EA48FEF735FAE8480078132810D1E7486B
:102C2000C078092803D10020E449C87004E0E348D3
:102C3000C078401CE149C870E048FEF7D8F912E0BE
:102C4000DD4800780B280ED1DC48C07818B909207F
:102C5000DA49C87004E0D948C078401ED749C87026
:102C6000D648FEF7C4F910BD10B5D448FEF71EFAD9
:102C7000D1480078132810D1D0488078092803D192
:102C80000020CE49887004E0CC488078401CCB49B5
:102C90008870CA48FEF7ABF912E0C74800780B28E5
:102CA0000ED1C648807818B90920C449887004E05C
:102CB000C2488078401EC1498870C048FEF797F925
:102CC00010BD10B5BD48FEF707FABB4800781328C1
:102CD00010D1BA484078092803D10020B74948707C
:102CE00004E0B6484078401CB4494870B348FEF749
:102CF0007EF912E0B04800780B280ED1AF4840783A
:102D000018B90920AD49487004E0AC484078401E2D
:102D1000AA494870A948FEF76AF910BD10B5A7483E
:102D2000FEF7F0F9A4480078132810D1A3480078E2
:102D3000092803D10020A149087004E09F480078C9
:102D4000401C9E4908709D48FEF751F912E09A48D0
:102D500000780B280ED19948007818B909209749B6
:102D6000087004E095480078401E94490870934824
:102D7000FEF73DF910BD10B59148FEF781F98E4878
:102D80000078132810D18E48C078092803D100207C
:102D90008B49C87004E08A48C078401C8849C870D4
:102DA0008748FEF724F912E0834800780B280ED1FB
:102DB0008348C07818B909208149C87004E0804868
:102DC000C078401E7E49C8707D48FEF710F910BDDE
:102DD00010B57B48FEF76AF977480078132810D1C0
:102DE00077488078092803D100207549887004E06D
:102DF00073488078401C724988707148FEF7F7F874
:102E000012E06D4800780B280ED16D48807818B913
:102E100009206B49887004E069488078401E684941
:102E200088706748FEF7E3F810BD10B56448FEF7F8
:102E300053F961480078132810D161484078092877
:102E400003D100205E49487004E05D484078401C92
:102E50005B4948705A48FEF7CAF812E056480078B5
:102E60000B280ED15648407818B9092054494870AB
:102E700004E053484078401E514948705048FEF7DE
:102E8000B6F810BD10B54E48FEF73CF94A48007838
:102E9000132810D14A480078092803D10020484956
:102EA000087004E046480078401C454908704448D2
:102EB000FEF79DF812E0404800780B280ED14048FC
:102EC000007818B909203E49087004E03C480078B1
:102ED000401E3B4908703A48FEF789F810BD10B50E
:102EE0003848FEF7CDF834480078132810D135481B
:102EF000C078092803D100203249C87004E0314865
:102F0000C078401C2F49C8702E48FEF770F812E0B8
:102F1000294800780B280ED12A48C07818B9092012
:102F20002849C87004E02748C078401E2549C87069
:102F30002448FEF75CF810BD10B52248FEF7B6F83D
:102F40001D480078132810D11E488078092803D125
:102F500000201C49887004E01A488078401C1949F8
:102F600088701848FEF743F812E0134800780B28E1
:102F70000ED11448807818B909201249887004E0ED
:102F800010488078401E0F4988700E48FEF72FF8D1
:102F900010BD10B50B48FEF79FF8074800781328BE
:102FA0001BD10848407809280ED1002005494870F7
:102FB0000FE00000480000203D00002052000020EB
:102FC0005C00002066000020F7484078401CF6496D
:102FD0004870F548FEF70BF812E0F44800780B282B
:102FE0000ED1F148407818B90920EF49487004E043
:102FF000ED484078401EEC494870EB48FDF7F7FF7C
:1030000010BD10B5E848FEF77DF8E84800781328B1
:1030100010D1E5480078092803D10020E249087062
:1030200004E0E1480078401CDF490870DE48FDF705
:10303000DEFF12E0DD4800780B280ED1DA48007878
:1030400018B90920D849087004E0D7480078401E14
:10305000D5490870D448FDF7CAFF10BD10B5D44853
:10306000FEF70EF8D1480078132810D1D048C07868
:10307000092803D10020CE49C87004E0CC48C078AC
:10308000401CCB49C870CA48FDF7B1FF12E0C748E1
:1030900000780B280ED1C648C07818B90920C44959
:1030A000C87004E0C248C078401EC149C870C0481A
:1030B000FDF79DFF10BD10B5BD48FDF7F7FFBB48FC
:1030C0000078132810D1BA488078092803D100204D
:1030D000B749887004E0B6488078401CB4498870CD
:1030E000B348FDF784FF12E0B04800780B280ED1FA
:1030F000AF48807818B90920AD49887004E0AC4821
:103100008078401EAA498870A948FDF770FF10BD5D
:1031100010B5A748FDF7E0FFA4480078132810D1A8
:10312000A3484078092803D10020A149487004E051
:103130009F484078401C9E4948709D48FDF757FFC6
:1031400012E09A4800780B280ED19948407818B9B7
:1031500009209749487004E095484078401E9449FA
:1031600048709348FDF743FF10BD10B59048FDF738
:10317000C9FF8E480078132810D18D48007809289F
:1031800003D100208A49087004E089480078401C77
:10319000874908708648FDF72AFF12E083480078C7
:1031A0000B280ED18248007818B909208049087090
:1031B00004E07F480078401E7D4908707C48FDF798
:1031C00016FF10BD10B57B48FDF75AFF7748007811
:1031D000132810D17748C078092803D100207549F9
:1031E000C87004E07348C078401C7249C8707148C8
:1031F000FDF7FDFE12E06D4800780B280ED16D48FA
:10320000C07818B909206B49C87004E06948C078D3
:10321000401E6849C8706748FDF7E9FE10BD10B54B
:103220006448FDF743FF61480078132810D16148D6
:103230008078092803D100205E49887004E05D4849
:103240008078401C5B4988705A48FDF7D0FE12E038
:10325000564800780B280ED15648807818B90920B6
:103260005449887004E053488078401E5149887062
:103270005048FDF7BCFE10BD10B54E48FDF72CFFC1
:103280004A480078132810D14A484078092803D1C9
:1032900000204849487004E046484078401C4549B1
:1032A00048704448FDF7A3FE12E0404800780B2820
:1032B0000ED14048407818B909203E49487004E0D2
:1032C0003C484078401E3B4948703A48FDF78FFE25
:1032D00010BD10B53748FDF715FF344800781328A6
:1032E00010D134480078092803D1002031490870F2
:1032F00004E030480078401C2E4908702D48FDF746
:1033000076FE12E0294800780B280ED12948007873
:1033100018B909202749087004E026480078401EA3
:10332000244908702348FDF762FE10BD10B52248FD
:10333000FDF7A6FE1D480078132810D11E48C0785E
:10334000092803D100201C49C87004E01A48C0783D
:10335000401C1949C8701848FDF749FE12E013488F
:1033600000780B280ED11448C07818B909201249EA
:10337000C87004E01048C078401E0F49C8700E485D
:10338000FDF735FE10BD10B50B48FDF78FFE074861
:10339000007813281BD10848807809280ED1002016
:1033A000054988700FE00000660000203D00002005
:1033B0004D0000205700002061000020F748807871
:1033C000401CF6498870F548FDF711FE12E0F448FC
:1033D00000780B280ED1F148807818B90920EF4900
:1033E000887004E0ED488078401EEC498870EB4816
:1033F000FDF7FDFD10BD10B5E848FDF76DFEE8488E
:103400000078132810D1E5484078092803D100201E
:10341000E249487004E0E1484078401CDF494870C8
:10342000DE48FDF7E4FD12E0DD4800780B280ED100
:10343000DA48407818B90920D849487004E0D748DC
:103440004078401ED5494870D448FDF7D0FD10BDE6
:1034500010B5D248FDF756FED1480078132810D198
:10346000CE480078092803D10020CC49087004E038
:10347000CA480078401CC9490870C848FDF7B7FD24
:1034800012E0C74800780B280ED1C448007818B95C
:103490000920C249087004E0C0480078401EBF49B6
:1034A0000870BE48FDF7A3FD10BD10B5BD48FDF77F
:1034B000E7FDBB480078132810D1BA48C078092826
:1034C00003D10020B749C87004E0B648C078401C5A
:1034D000B449C870B348FDF78AFD12E0B0480078DF
:1034E0000B280ED1AF48C07818B90920AD49C87073
:1034F00004E0AC48C078401EAA49C870A948FDF74E
:1035000076FD10BD10B5A748FDF7D0FDA4480078A2
:10351000132810D1A3488078092803D10020A1499D
:10352000887004E09F488078401C9E4988709D48C0
:10353000FDF75DFD12E09A4800780B280ED19948FE
:10354000807818B909209749887004E095488078F8
:10355000401E944988709348FDF749FD10BD10B591
:103560009048FDF7B9FD8E480078132810D18D489A
:103570004078092803D100208A49487004E089482E
:103580004078401C874948708648FDF730FD12E0BE
:10359000834800780B280ED18248407818B909205A
:1035A0008049487004E07F484078401E7D4948705B
:1035B0007C48FDF71CFD10BD10B57A48FDF7A2FD53
:1035C00077480078132810D176480078092803D16D
:1035D00000207449087004E072480078401C71496A
:1035E00008707048FDF703FD12E06D4800780B2865
:1035F0000ED16C48007818B909206A49087004E0B7
:1036000068480078401E674908706648FDF7EFFC7F
:1036100010BD10B56248007813280FD162480078B9
:10362000032803D101206049087004E05E48007857
:10363000401C5D490870FEF759FA12E058480078BE
:103640000B280ED158480078012803D10320564991
:10365000087004E054480078401E53490870FEF793
:1036600045FA51480078FDF7FAFC10BD10B54C48FA
:10367000007813280FD14D480078632803D100202B
:103680004A49087004E049480078401C47490870DE
:10369000FEF72CFA11E0424800780B280DD1434880
:1036A000007818B963204149087004E03F48007869
:1036B000401E3E490870FEF719FA3C480078FDF7B5
:1036C000B5FC10BD10B53648007813280FD1384826
:1036D0000078072803D100203549087004E03448F9
:1036E0000078401C32490870FEF700FA11E02C48BF
:1036F00000780B280DD12E48007818B907202C49E6
:10370000087004E02A480078401E29490870FEF736
:10371000EDF927480078FDF7A2FC10BD10B5204850
:10372000007813280FD123480078092803D10120FD
:103730002049087004E01F480078401C1D490870AB
:10374000FEF7D4F912E0164800780B280ED119487C
:103750000078012803D109201649087004E01548B3
:103760000078401E13490870FEF7C0F91148007830
:10377000FDF775FC10BD10B50948007813281DD160
:103780000D480078012803D100200B49087002E0A1
:10379000012009490870FEF7A9F920E06100002026
:1037A0003D0000206B000020700000207100002010
:1037B000720000207300002074000020F748007899
:1037C0000B280CD1F6480078012803D10020F449D9
:1037D000087002E00120F2490870FEF787F9F0480E
:1037E0000078FDF73CFC10BD10B5EC4800781328BC
:1037F00016D1EC480078092803D10120E949087066
:1038000004E0E8480078401CE6490870E54909787A
:1038100001EB4101C8B200F094FFFEF767F919E02F
:10382000DE4800780B2815D1DE480078012803D146
:103830000920DC49087004E0DA480078401ED949C4
:103840000870D849097801EB4101C8B200F079FF4E
:10385000FEF74CF9D3480078FDF701FC10BD10B518
:10386000CE48007813280FD1CF480078072803D11D
:103870000120CD49087004E0CB480078401CCA49BB
:103880000870FEF733F912E0C44800780B280ED117
:10389000C5480078012803D10720C349087004E017
:1038A000C1480078401EC0490870FEF71FF9BE48A5
:1038B0000078FDF7D4FB10BD10B5B8480078132888
:1038C0000DD1BA480078012803D10020B74908700B
:1038D00002E00120B5490870FEF708F910E0AF4892
:1038E00000780B280CD1B1480078012803D10020C2
:1038F000AE49087002E00120AC490870FEF7F6F806
:10390000AA480078FDF7ABFB10BD10B5A3480078BE
:1039100013280DD1A6480078012803D10020A4491E
:10392000087002E00120A2490870FEF7DFF810E0FD
:103930009A4800780B280CD19D480078012803D1C3
:1039400000209B49087002E0012099490870FEF7A9
:10395000CDF897480078FDF782FB10BD10B58F4871
:10396000007813280DD193480078012803D1002056
:103970009049087002E001208E490870FEF7B6F801
:1039800010E0864800780B280CD18A48007801287E
:1039900003D100208749087002E0012085490870A2
:1039A000FEF7A4F883480078FDF759FB10BD10B569
:1039B0007A48007813280FD17F4800780B2803D16C
:1039C00000207D49087004E07B480078401C7A495B
:1039D0000870FEF78BF811E0704800780B280DD1C5
:1039E0007548007818B90B207349087004E07248D4
:1039F0000078401E70490870FEF778F86E4800782D
:103A0000FDF714FB10BD10B56448007813280DD1E4
:103A10006A4800780B2803D100206849087015E037
:103A200066480078401C654908700FE05B480078E4
:103A30000B280BD16148007818B90B205F4908703A
:103A400004E05E480078401E5C4908705B480078DE
:103A5000FDF7ECFA10BD10B55048007813280DD1D1
:103A6000574800780B2803D100205549087015E00D
:103A700053480078401C524908700FE047480078CE
:103A80000B280BD14E48007818B90B204C49087010
:103A900004E04B480078401E4949087048480078C7
:103AA000FDF7C4FA10BD10B53C48007813280DD1BD
:103AB000444800780B2803D100204249087015E0E3
:103AC00040480078401C3F4908700FE033480078B8
:103AD0000B280BD13B48007818B90B2039490870E6
:103AE00004E038480078401E3649087035480078B0
:103AF000FDF79CFA10BD10B52848007813280DD1A9
:103B000031480078012803D102202F49087002E0D3
:103B100001202D490870FDF7E9FF10E01F480078EB
:103B20000B280CD128480078012803D1022026490F
:103B3000087002E0012024490870FDF7D7FF2248F1
:103B40000078FDF78CFA214800781F4909788842EF
:103B500005D01D4800781D490870FDF7D5FE10BD41
:103B600010B50E48007813280DD119480078262882
:103B700003D100201649087031E015480078401C38
:103B8000134908702BE0054800780B2827D110480E
:103B90000078F8B926200E49087020E03D0000208A
:103BA00074000020750000207600002078000020BE
:103BB00077000020790000207A0000207B000020A0
:103BC0007C0000207D0000207E000020840000207A
:103BD0007F00002015480078401E144908701349E2
:103BE00009784231C8B2FEF7E4FB10480078FDF7CF
:103BF0001DFA10BD10B50E480078132802D100F050
:103C0000E2FC0CE00A4800780B2802D100F0C8FC66
:103C100005E0074800781B2801D100F0BAFC0548F0
:103C2000007810B900200449087010BD7F00002002
:103C30003D000020540100203C0000204A78FB4B4E
:103C40009A5CA0F10300C2708A789A5C8270CA788C
:103C50009A5C42700A799A5C00F8032BCA7902F0E8
:103C60000F02A2F10202072A42D2DFE802F004109A
:103C7000234141333A0010F8032D42F080020270D4
:103C8000427842F08002427000F1030031E010F807
:103C9000032D42F080020270427842F080024270AE
:103CA000827842F080028270C27842F0800200F88E
:103CB000032F1EE010F8032D42F0800202704278BC
:103CC00042F080024270827842F08002827000F1FD
:103CD00003000EE010F8022C42F0800200F8022CE3
:103CE00007E010F8032C42F0800200F8032C00E0FB
:103CF00000BF00BF704710B5FDF741F8CC4890F801
:103D0000580020B1CA495831CA48FFF797FFC84840
:103D100090F8500028B1C6495031C648001FFFF73F
:103D20008DFFC34890F8480028B1C1494831C148C7
:103D30000838FFF783FFBE4890F8400028B1BC491F
:103D40004031BC480C38FFF779FFB94890F838008B
:103D500028B1B7493831B7481038FFF76FFFB4487A
:103D600090F8300028B1B2493031B2481438FFF72A
:103D700065FFAF4890F8280028B1AD492831AD481B
:103D80001838FFF75BFFAA4890F8200028B1A8492F
:103D90002031A8481C38FFF751FFA548007E28B104
:103DA000A3491831A3482038FFF748FFA048007CFA
:103DB00028B19F4910319F482438FFF73FFF9C48A6
:103DC000007A28B19A4908319A482838FFF736FF17
:103DD0009748007820B1964996482C38FFF72EFF77
:103DE000FCF758FF10BD81680160C16841607047F1
:103DF000024691480378002106E012F8310008B924
:103E000008467047481CC1B28B4800788142F4DBF9
:103E10001846F6E72DE9F04106468548FFF7E8FF2A
:103E200005462F4600240CE0D6F80100804901EB3E
:103E3000C401D1F80110884201D1E5B203E0601C51
:103E400044B2AC42F0DB00BFBD4211D06CB206E020
:103E5000774901EBC400FFF7C6FF601C44B2781E2F
:103E6000A042F5DC724800EBC40000210160416013
:103E7000FFF741FFBDE8F08170B505462846FFF722
:103E8000B7FF0646002405E005EBC400FFF7ABFFD3
:103E9000601CC4B2701EA042F6DC05EBC400002119
:103EA0000160416070BD70B505460C462046FFF7C5
:103EB0009FFF06466048007886420CD12046FFF7F7
:103EC000DBFF5D480078401E04EBC00029680160FC
:103ED0006968416005E004EBC60029680160696813
:103EE000416070BD016881604168C160704770B514
:103EF00005462846FFF77CFF06464F480078864275
:103F000001D1701EC6B2701E44B205E005EBC400BC
:103F1000FFF7E8FF601E44B2002CF7DA00202860AB
:103F2000686070BD70B505460C462046FFF7DFFFA0
:103F3000286820606868606070BD2DE9F041064621
:103F40003B48FFF755FF05462F4600240CE0D6F806
:103F50000100374901EBC401D1F80110884201D1B9
:103F6000E5B203E0601C44B2AC42F0DB00BFBD42EE
:103F70001CD032480078012816D1681EC5B26CB238
:103F800006E02B4901EBC400FFF7ACFF601E44B212
:103F9000002CF6DA26483168016071684160FFF74D
:103FA000AAFE0120BDE8F0810120FBE70020F9E72F
:103FB000234A1278012A05D101F00F02214B9A5CA5
:103FC000027004E001F00F021F4B9A5C0270704710
:103FD0007FB504460D46089E012E02D13320207085
:103FE00008E0022E02D13420207003E0294620464A
:103FF000FFF7DEFF0298C4F80100280C6071280A60
:10400000A071E5717FBDC1F303524270C1F3034259
:104010008270C1F30332C270C1F3032202710A0C31
:1040200042710A0A8271C17170470000666F000810
:104030005401002043010020710000207000002086
:104040007E00002095000020A5000020014611F010
:10405000F00F04D1FE480078B0EB115F06D0FC48A9
:1040600000780B2804D111F0F00F01D10120704726
:104070000020FCE730B585B00025F6480468002034
:10408000F54908702046FFF7E1FF00284BD0214694
:1040900001A8FFF78DFF214601A8FFF7B4FF9DF8A7
:1040A0000400332835D09DF8040088B301A8FFF739
:1040B00044FF00282BD1E9480078012812D1E849B3
:1040C00001A8FFF72FFFE748007804F00F030090E6
:1040D0009DF8042001A9E448007800F0B3FCFFF744
:1040E0000AFE0EE0DD480078022806D1DC4901A86E
:1040F000FFF7D9FEFFF7FFFD03E0DC4901A8FFF75A
:10410000D2FE04F00F0201A99120FCF7B1F95AE0A8
:10411000FFE701A8FFF77EFE04F00F0201A992203D
:10412000FCF7A6F94FE0214603A8FDF79BFC0546E6
:10413000002D48D00095214601A8DDE90323FFF7B3
:1041400047FF9DF80400332834D09DF8040080B365
:1041500001A8FFF7F2FE58BBC0480078012812D131
:10416000BF4901A8FFF7DEFEBE48007804F00F0348
:1041700000909DF8042001A9BB48007800F062FC83
:10418000FFF7B9FD0EE0B5480078022806D1B44922
:1041900001A8FFF788FEFFF7AEFD03E0B34901A8D1
:1041A000FFF781FE04F00F0201A99120FCF760F9EE
:1041B00009E0FFE701A8FFF72DFE04F00F0201A9B7
:1041C0009220FCF755F905B030BDA94800780128C8
:1041D00008D1A84800789F49097801F00F01A64A44
:1041E000505407E0A34800789A49097801F00F017C
:1041F000A24A505470471CB5A148006800909548E9
:10420000006801906846FDF721FA28B99C48FEF73E
:10421000A5F844209B4908701CBD1CB59A4800684D
:1042200000908C48006801906846FDF7C9F928B9EC
:104230009548FEF793F84020924908701CBD1CB5C4
:104240009248006800908348006801906846FDF736
:104250005BF928B98D48FEF781F83C208949087040
:104260001CBD1CB58A48006800907A48006801901F
:104270006846FDF703F928B98548FEF76FF838203E
:10428000804908701CBD30B585B0002571480468B0
:104290000020714908702046FFF7D8FE002839D069
:1042A000214601A8FFF784FE214601A8FFF7ABFED7
:1042B0009DF80400332823D09DF8040000B301A822
:1042C000FFF73BFE002862D1654901A8FFF72AFEEF
:1042D000FFF711FD6348007804F00F0300909DF88C
:1042E000042001A96048007800F0ACFB04F00F0244
:1042F00001A99120FCF7BCF86A206249087046E0E9
:1043000001A8FFF787FD04F00F0201A99220FCF736
:10431000AFF83CE0214603A8FDF7A4FB054665B3D2
:104320000095214601A8DDE90323FFF751FE9DF822
:104330000400332822D09DF80400F8B101A8FFF74B
:10434000FCFDD0B9464901A8FFF7ECFDFFF7D3FC0F
:104350004448007804F00F0300909DF8042001A960
:104360004148007800F06EFB04F00F0201A9912093
:10437000FCF77EF86A204349087008E001A8FFF7BF
:1043800049FD04F00F0201A99220FCF771F805B075
:1043900030BD1CB52F480068002857D03D48007834
:1043A0000028FAD03C48007800284FDD29480468EE
:1043B00021466846FDF770FB58B101203749087067
:1043C00004F00F003649087033480078354908700A
:1043D000D3E035480068A042FAD033480460294849
:1043E0000078002878D027480078382874D02548ED
:1043F0000078392870D0234800783A286CD02148BA
:1044000000783B2868D01F4800783C2864D01D48BD
:1044100000783D2860D01B4800783E285CD01948C1
:1044200000783F2858D017480078402854D01548C5
:104430000078412850D01348007842284CD01148C9
:104440000078432848D00F4800782FE09BE043E0F5
:104450007A00002010000020910000207000002051
:10446000540100207300002072000020740400201A
:104470007E0000207F00002095000020A500002085
:10448000660000203C0000205C000020520000205C
:104490004800002025000020260000209200002077
:1044A000930000209400002088000020442813D0AE
:1044B0008048007845280FD07E48007846280BD0E9
:1044C0007C480078472807D07A480078672803D0CE
:1044D000784800786A2850D176480078402838D04B
:1044E00013DC3B282CD007DC20B3382825D0392812
:1044F00024D03A283FD122E03C2824D03D2823D0A4
:104500003E2822D03F2836D120E0452828D008DC9C
:1045100041281FD042281ED043281DD044282AD12C
:104520001DE046281DD047281CD067281DD06A28CA
:1045300021D11DE0FFF7A7FE1EE000BF00BF00BFB6
:10454000FFF78FFE18E000BF00BF00BFFFF777FE48
:1045500012E000BF00BF00BFFFF75FFE0CE000BF2E
:1045600000BF00BFFFF747FE06E0FFF72EFE03E0A7
:10457000FFF780FD00E000BF00BF00204E4908703B
:104580004E49086004E000204B4908704B49086020
:104590001CBD10B54A48FFF76FFCFFF7ACFB10BD20
:1045A0001CB50020009001904548016800914068CA
:1045B00001904348FFF760FC41496846FFF773FCF0
:1045C000FFF799FB1CBD1CB50020009001903C48F2
:1045D000FFF70EFC0446601E394901EBC00001687C
:1045E000009140680190601E354901EBC000002138
:1045F0000160416032496846FFF794FCFFF77BFB9E
:104600001CBD10B52F4800782F49097888420BDA75
:104610002E4800782B490978884205DD2A48007821
:1046200010B12848007858B92748007868B925485B
:10463000007850B12548007822490978884204DD85
:10464000FFF7A7FF00202149087010BD10B51E48D4
:1046500000781C49097888420BDA1C4800781A490E
:104660000978884205DD1748007810B116480078AF
:1046700058B914480078E0B913480078C8B1134815
:10468000007811490978884213DDFFF789FF00207F
:104690000E4908700E48007801280AD10848C079F0
:1046A00000F00F030648027801460A48007800F03F
:1046B00084F910BD3C0000202500002010000020DF
:1046C00054010020440000204500002091000020FB
:1046D000740000207200002008B50121042001F0C0
:1046E0008CF84FF40060ADF8000048208DF803000E
:1046F0006946FE4800F058FD7E20FBF7F5FF0320D9
:10470000FBF7F2FF3320FBF7EFFF0420FBF7ECFF92
:10471000EF20FBF7E9FF08BD10B504467E20FBF74C
:10472000E3FF0420FBF7E0FF4120FBF7DDFF002063
:10473000FBF7DAFF2046FBF7D7FFEF20FBF7D4FFAC
:1047400010BD10B504467E20FBF7CEFF0320FBF71B
:10475000CBFF3120FBF7C8FF2046FBF7C5FFEF205A
:10476000FBF7C2FF10BD70B505460C4660780928FE
:1047700012DC012D05DC6178491CC8B2FFF7CCFFC3
:1047800036E0607888B36178491CC8B2FFF7C4FF8F
:104790001F20FFF7C1FF2BE060780F2808DC60784E
:1047A0000A2805DB61781731C8B2FFF7B5FF1FE0B3
:1047B00060781038052819D2DFE800F003070B0FE6
:1047C00013002820FFF7A8FF11E02C20FFF7A4FF1B
:1047D0000DE02F20FFF7A0FF09E03020FFF79CFF3E
:1047E00005E03520FFF798FF01E001E000BF00BFC2
:1047F00070BD70B505460C464020FFF78DFF607810
:10480000092805DC6178491CC8B2FFF785FF2AE05A
:1048100060780F2808DC60780A2805DB617817319A
:10482000C8B2FFF779FF1EE060781038052818D26B
:10483000DFE800F003070B0F13002820FFF76CFFE1
:1048400010E02C20FFF768FF0CE02F20FFF764FF3B
:1048500008E03020FFF760FF04E03520FFF75CFF41
:1048600000E000BF00BF4120FFF756FF70BD70B5EC
:1048700005460C46012D05DCA178491CC8B2FFF79E
:104880004BFF0CE0A07850B1A178491CC8B2FFF7EB
:1048900043FF1D20FFF740FF1E20FFF73DFF70BDC7
:1048A00070B505460C46012D05DCE178491CC8B2FF
:1048B000FFF732FF15E0E07898B1E07801280BD1DE
:1048C000207918B90B20FFF727FF0AE021790B3177
:1048D000C8B2FFF721FF04E0E1781331C8B2FFF757
:1048E0001BFF70BD70B505460C46012D05DC217916
:1048F000491CC8B2FFF710FF09E0207938B1E07811
:10490000012804D02179491CC8B2FFF705FF70BD0A
:1049100010B50446042C06D0052C08D0062C0AD06D
:10492000072C10D10BE03E20FFF7F6FE0CE03C20F8
:10493000FFF7F2FE08E03D20FFF7EEFE04E06820FE
:10494000FFF7EAFE00E000BF00BF10BD70B50446EF
:104950000D46032C0CDC29462046FFF788FF29462C
:104960002046FFF79DFF29462046FFF7BBFF02E0E8
:104970002046FFF7CDFF70BD10B50446322C05DA96
:1049800004F14201C8B2FFF7C7FE04E0342C02D1A3
:104990006820FFF7C1FE10BD70B505460E461446EF
:1049A000342C01D0262C03D16820FFF7B5FE03E09C
:1049B00031462846FFF7CAFF70BD2DE9F041044695
:1049C0000F4616461D46032C35DC3E20FFF7A4FE9D
:1049D0000F2D02D13F20FFF79FFE4548007828B1F8
:1049E00043480078012804D1022E02DB6920FFF73A
:1049F00093FE0F2D03D039462046FFF7B4FE39460B
:104A00002046FFF7A3FF3A480078012804D1012C83
:104A100002DC6920FFF780FE0F2D04D139462046C5
:104A2000FFF7E7FE0CE0012C0AD0032C08D030463B
:104A3000FFF7A2FF04E0324639462046FFF7ACFFFD
:104A4000BDE8F0812DE9F04104460D4616461F46AB
:104A5000DDF81880B8F1010F0BDD264880F80080E2
:104A6000C66007744470801C2968016069684160F1
:104A700005E03B46324629462046FFF79EFFBDE84B
:104A8000F0810EB50020019002901B4800780328A9
:104A90001BDA18480078002861DD184800780028E3
:104AA0005DD017480068002859D0002013490870CD
:104AB00010490B7C0A7B4878891CFFF77EFF0D4864
:104AC0000078401E0B49087049E00C480078002827
:104AD00045D00B480068002841D0064800780028DF
:104AE0001CDD00200549087002490BE00008014068
:104AF000780000209407002070000020B6000020FD
:104B00002C0121420B7C0A7B4878891CFFF755FF5A
:104B100013480078401E1249087020E010480078C1
:104B2000E8B910480078D0B10E4903C9CDE90101B8
:104B30000C48FFF7A1F90C4901A8FFF7F3F9FFF7BB
:104B4000DAF80A48007800909DF80B0000F00F0397
:104B50009DF8042001A906480078FFF773FF0EBDF9
:104B600094070020740400205401002073000020EA
:104B70007200002008B503208DF8000001208DF898
:104B8000010000208DF8020001208DF80300684626
:104B900000F051F908BD10B501214FF0C05000F0F0
:104BA00039FE012000F057FC00F0AEF9012000F0C2
:104BB00095FD00BF412000F0EEFC0028FAD04FF434
:104BC000807000F0A4FD012000F0A7FD00F0E4FEDD
:104BD00000F0DAFE0121084600F07AFE00F0D4FE73
:104BE00047F6FF7000F0AAFE00F0CEFE10BD10B533
:104BF0000446042000F0BDF9A0F52541A5390AD0EE
:104C0000FFF7C9FF2046FDF728FC4AF2A551042012
:104C100000F0A3F916E07B2000F0BDFC10B97A206B
:104C200000F0B9FC01214FF0C05000F0F3FD01206D
:104C300000F011FC00F0B0FE0121084600F048FE33
:104C400000F0A2FE00F017FE10BD0000F0B58DB020
:104C500004463022714901A802F0C8F86069451E77
:104C6000642195FBF1F12846EA1705EB9272C1EB3E
:104C7000A2014FF4C87295FBF2F28F186069C11758
:104C800000EB91718910B0EB810112D1642261694E
:104C900091FBF2F302FB131131B99200616991FBB0
:104CA000F2F302FB131121B92169022901DD01266A
:104CB00000E0002640F26D1005FB00712069401EE7
:104CC00001AA52F820000844E1680844064407207D
:104CD00096FBF0F100FB1160A0610DB0F0BD10B5C6
:104CE00001460869801E0861002805DC08690C304F
:104CF00008614869401E48616423486990FBF3F0ED
:104D00004A69D31702EB9373C0EBA3004FF4C87446
:104D100092FBF4F3034440F26F14086960430C24DF
:104D200090FBF4F01844CB68034440F26D1402FB8E
:104D300004303B4BC01A00EB40008B6803EBC00013
:104D4000C0EB00104B6803EB8000C0EB00100B6859
:104D500003EB8000A0F5E14010BD2DE9F0410746CE
:104D60000C463048B7FBF0F6B7FBF0F100FB1178CA
:104D70004FF4616098FBF0F0A0604FF4616098FB25
:104D8000F0F100FB11803C2190FBF1F060604FF4EA
:104D9000616098FBF0F100FB11803C2190FBF1F287
:104DA00001FB1200206040F2B27509E015F0030F1C
:104DB00002D14FF4B77001E040F26D10361A6D1C4D
:104DC00015F0030F02D14FF4B77001E040F26D10FF
:104DD000B042EBDD65616069C11700EB917189102C
:104DE000B0EB810102D11D200F494860012505E08B
:104DF000681E0D4951F82000361A6D1C681E0A49BC
:104E000051F82000B042F3DD1C2048602561701C81
:104E1000E0602046FFF71AFFBDE8F0819C740008AF
:104E20008BFA0A0080510100B8000020314901438B
:104E3000314A1160704770B5002100230F22C478F9
:104E40000CB32D4C246804F4E064C4F5E064210A3A
:104E5000C1F10403CA40447804FA03F18478144091
:104E600021430901254C0678A155047804F01F055B
:104E70000124AC4005786D114FF0E02606EB850566
:104E8000C5F8004109E0047804F01F050124AC4096
:104E90001B4D0678761145F8264070BD194A0A4028
:104EA0000243154B1B1F1A60704739B1124A121D7D
:104EB00012680243104B1B1D1A6006E00E4A121DB9
:104EC000126882430C4B1B1D1A607047042808D1DE
:104ED0004FF0E021096941F004014FF0E022116137
:104EE00007E04FF0E021096921F004014FF0E022D2
:104EF000116170470000FA050CED00E000E400E0ED
:104F000080E100E080FFFF1F10B5012000F0A9FC48
:104F1000002000F0A6FC10BD2A490860704729490E
:104F2000091F0860704727498431086070470146AF
:104F30000020254A10884FF67F4210400843224A3D
:104F400010807047014600201F4A10884FF680727B
:104F5000104008431C4A1080704708B50022009298
:104F6000194A2C3A0092009A02440092009A116069
:104F700008BD08B501460020009013482C38009069
:104F80000098084400900098008808BD0D489C30A7
:104F90000068C0B270470C480830008840F001003B
:104FA00009490831088070470648A0300068C0B23F
:104FB000704705480830008840F002000249083177
:104FC0000880704704860D422C6C00400020444944
:104FD0000860091D0860091D0860091D0860414836
:104FE0003F4914310860704700213D498279002A09
:104FF0003AD00A46126803689A430B461A600A1DA3
:10500000126803689A430B1D1A60027911440A68FA
:1050100003681A430A60324A0832126803689A43E6
:105020002F4B08331A601A1D126803689A432C4BE1
:105030000C331A604279102A0ED11A1F12680368C5
:105040001A43274B08331A601A1D126803681A4363
:10505000234B0C331A600DE02149427911440A6850
:1050600003681A430A6005E0027911440A6803687C
:105070009A430A6070470021016001710C2141715F
:105080000021817170471649103109680143144AA3
:1050900010321160704701460020114A1432126824
:1050A0000A4201D0012000E0002070470C49143171
:1050B00008607047014600200022094B1B6803EA84
:1050C0000102074B14331B680B4202D00AB10120C6
:1050D00000E000207047024914310860704700006A
:1050E00000040140FFFF0F0010B50446CA48844287
:1050F00008D10121042000F09AFB0021042000F0D7
:1051000096FB46E0C548844208D10121082000F002
:105110008EFB0021082000F08AFB3AE0C048844260
:1051200008D10121102000F082FB0021102000F0A6
:105130007EFB2EE0BB48844208D10121202000F0F4
:1051400076FB0021202000F072FB22E0B64884426A
:1051500008D10121402000F06AFB0021402000F02E
:1051600066FB16E0B148844208D10121802000F09E
:105170005EFB0021802000F05AFB0AE0AC4884422C
:1051800007D10121801500F052FB0021A01500F08D
:105190004EFB10BD10B50121084600F048FB002170
:1051A000012000F044FB10BD2DE9F041024600252E
:1051B0000026002000230024002791F803C00CF0F3
:1051C0000F0591F803C01CF0100F03D091F802C036
:1051D0004CEA050591F800C0BCF1000F31D014680D
:1051E00000202BE04FF0010C0CFA00F3B1F800C0E6
:1051F0000CEA03069E4220D183004FF00F0C0CFAFC
:1052000003F7BC4305FA03FC4CEA040491F803C01D
:10521000BCF1280F06D14FF0010C0CFA00FCC2F8CB
:1052200014C00AE091F803C0BCF1480F05D14FF05B
:10523000010C0CFA00FCC2F810C0401C0828D1D3A5
:105240001460B1F800C0BCF1FF0F34DD54680020D9
:105250002EE000F1080C4FF0010808FA0CF3B1F849
:1052600000C00CEA03069E4221D183004FF00F0CD0
:105270000CFA03F7BC4305FA03FC4CEA040491F86A
:1052800003C0BCF1280F05D100F1080C08FA0CF896
:10529000C2F8148091F803C0BCF1480F07D100F1A7
:1052A000080C4FF0010808FA0CF8C2F81080401CF6
:1052B0000828CED35460BDE8F0814FF6FF7101801D
:1052C000022181700421C17070470246002093685A
:1052D0000B4201D0012000E00020704701468868A1
:1052E00080B2704702460020D3680B4201D00120F3
:1052F00000E0002070470146C86880B27047016135
:105300007047416170470AB1016100E04161704737
:10531000C16070474FF480320A43826181618261CB
:1053200082698269704702460020424B18684FF636
:105330008073184040EA021008433E4B18607047E3
:105340003D49C8617047F0B50A460023002400219A
:10535000002500F00046B6F1004F02D1354EF1694C
:1053600001E0344E7168C0F3034583B200F4401687
:10537000B6F5401F08D121F070612E4E766826F0F8
:1053800070662C4F7E6012E000F48016B6F5801F28
:1053900006D1032606FA05F4A14341F0706106E048
:1053A000460D360103FA06F6B14341F0706122B1B1
:1053B000460D360103FA06F6314300F00046B6F119
:1053C000004F02D11B4EF16101E01A4E7160F0BD39
:1053D00030B500228B071C0F0F2303FA04F2154B84
:1053E00008338C1053F824309343124C08348D103A
:1053F00044F8253023468C1053F824308C07240FB2
:1054000000FA04F423430B4C08348D1044F8253083
:1054100030BD0A490860704700080140000C014097
:10542000001001400014014000180140001C014020
:10543000002001400000014000002042DC0020422A
:1054400010B50121080700F0FFF900214FF080504E
:1054500000F0FAF910BD2949086270472749086130
:10546000704701460020264A106820F0E0000843FB
:105470001060704723490860704710B5024600204D
:105480001F4B186820F00300104318601E4B1B6868
:1054900043F004031C4C2360012901D130BF00E01C
:1054A00020BF194B1B6823F00403174C236010BD69
:1054B0001348006840F0040011490860084600687D
:1054C00040F0020008601048006840F004000E49F7
:1054D000086000BF00BF30BF704701460020084A87
:1054E00052680A4201D0012000E0002070470449C0
:1054F000096841EA8001024A1160704700000E42CB
:1055000000700040A0000E4210ED00E0E44800688A
:1055100040F00100E249086008464068E14908405F
:10552000DF49486008460068DF490840DC490860F8
:105530000846006820F4802008600846406820F48F
:10554000FE0048604FF41F0088600020C86270476A
:10555000D349096821F48031D14A116011460968A4
:1055600021F480211160B0F5803F03D0B0F5802F89
:105570000ED106E0CA49096841F48031C84A116079
:1055800007E0C749096841F4A021C54A116000E05D
:1055900000BF00BF704710B5014600220023002065
:1055A0004A11012A02D1BE4C236806E0022A02D128
:1055B000BB4C236A01E0BA4C636A01F01F0201246C
:1055C00094401C4201D0012000E0002010BD38B5FD
:1055D000002000900024002500BF3120FFF7DBFFF2
:1055E00005460098401C00900098B0F5A06F01D0CF
:1055F000002DF2D03120FFF7CEFF08B1012400E0EA
:105600000024204638BD01460020A54A106820F03D
:10561000F80040EAC10010607047A4490860704774
:10562000024600209E4B586820F4741042EA0103A1
:1056300018439B4B586070479C4908667047024668
:105640000020974BD86A9A4B184042EA010318434E
:10565000934BD862704701460020914A506820F071
:1056600003000843506070478D48406800F00C000C
:105670007047014600208A4A506820F0F000084335
:105680005060704701460020854A506820F4E06071
:1056900008435060704701460020814A506820F45A
:1056A000605040EAC1005060704729B17C4A527A8C
:1056B00002437B4B5A7204E0794A527A8243784B18
:1056C0005A7270477B490860704701460020744A4F
:1056D000506820F440400843506070470021764AEB
:1056E00011706F4A82F82010012802D0042808D1D6
:1056F00003E00121704A117004E005216E4A117027
:1057000000E000BF00BF70476C4908607047644903
:10571000096A0143624A1162704768494439086066
:10572000704770B5002100230024002200255C4E44
:10573000766806F00C0121B1042905D0082921D191
:1057400005E05F4E066020E05D4E06601DE0544EB1
:10575000766806F47013524E766806F4803402269A
:1057600006EB93431CB9574E5E43066009E04C4E6E
:10577000F66A06F00F06751C514EB6FBF5F65E4351
:10578000066002E04E4E066000BF00BF444E7668E1
:1057900006F0F00109094C4E725C0668D64046607E
:1057A0003F4E766806F4E061090A474E725C46682F
:1057B000D64086603A4E766806F46051C90A424E79
:1057C000725C4668D640C660354E766806F4404145
:1057D000890B3E4E725CC668B6FBF2F6066170BD80
:1057E00029B12F4A526902432D4B5A6104E02C4AD9
:1057F000526982432A4B5A61704729B1284A9269FB
:105800000243274B9A6104E0254A92698243244B64
:105810009A61704729B1224AD2690243204BDA616A
:1058200004E01F4AD26982431D4BDA61704729B1F7
:105830001B4AD26802431A4BDA6004E0184AD26865
:105840008243174BDA60704729B1154A1269024347
:10585000134B1A6104E0124A12698243104B1A6119
:10586000704716494039086070471049C86470474E
:105870000B49C87170470A48406A40F08070084977
:105880004862704701460020054A92680A4201D0EA
:10589000012000E000207047014988727047000035
:1058A000001002400000FFF8FFFFF6FE0000424239
:1058B000F0FFFEFFD8004242201002408004424226
:1058C00000127A0000093D00E8000020F8000020E6
:1058D00029B14F4A128802434D4B1A8004E04C4ACA
:1058E000128882434A4B1A8070474948001D00883D
:1058F00040F010004649091D088070474448001DCB
:1059000000884FF6EF7108404149091D0880704733
:1059100000213F481C300188001F008841EA0040F8
:10592000704700B50246FFF7E0FF100C3849183108
:105930000880091D0A80FFF7E1FF00BD00B502469F
:10594000FFF7D3FFC2F30340314908310880091D36
:105950000A80FFF7D3FF00BD00B50246FFF7C5FF81
:10596000100C2B4920310880091D0A80FFF7C6FF63
:1059700000BD00202649103109880907080B244979
:10598000143109880843704700BF2148001D008872
:1059900010F0200FF9D070471D48001D00884FF609
:1059A000F77108401A49091D088000BF1848001DFA
:1059B000008810F0080FF9D0704701460020144A03
:1059C000121D12880A4201D0012000E00020704719
:1059D0000F49091D098881430D4A121D1180704726
:1059E000014600200A4A121D12880A40D0B2084A15
:1059F00012880A4202D008B1012000E0002070475E
:105A00000349091D09888143014A121D118070470D
:105A10000028004010B50446FE48844208D1012108
:105A2000C014FFF704FF0021E014FFF700FFC4E0FB
:105A3000B4F1804F08D101210846FFF705FF00218E
:105A40000120FFF701FFB8E0F348844208D10121AB
:105A50000220FFF7F9FE00210220FFF7F5FEACE07F
:105A6000EE48844208D101210420FFF7EDFE002119
:105A70000420FFF7E9FEA0E0E948844208D10121B3
:105A80000820FFF7E1FE00210820FFF7DDFE94E08B
:105A9000E448844208D101211020FFF7D5FE0021FF
:105AA0001020FFF7D1FE88E0DF48844208D10121B1
:105AB0002020FFF7C9FE00212020FFF7C5FE7CE073
:105AC000DA48844208D101214014FFF7B0FE0021DA
:105AD0006014FFF7ACFE70E0D548844209D1012183
