:020000040800F2
:10000000D004002001010008AD010008AF01000884
:10001000B3010008B7010008BB01000800000000A0
:10002000000000000000000000000000C101000806
:10003000BF01000800000000C3010008C50100085E
:100040001B0100081B0100081B0100081B01000820
:100050001B0100081B0100081B0100081B01000810
:100060001B0100081B0100081B0100081B01000800
:100070001B0100081B0100081B0100081B010008F0
:100080001B0100081B0100081B0100081B010008E0
:100090001B0100081B0100081B0100081B010008D0
:1000A0001B0100081B0100081B0100081B010008C0
:1000B0001B0100081B0100081B0100081B010008B0
:1000C0001B0100081B0100081B0100081B010008A0
:1000D0001B0100088F040008B90300081B01000879
:1000E000A50400081B0100081B010008DFF80CD064
:1000F00003F0EEFC0048004725010008D004002072
:100100000648804706480047FEE7FEE7FEE7FEE7B1
:10011000FEE7FEE7FEE7FEE7FEE7FEE74D390008F3
:10012000ED0000084FF4A06001F018FE00F076F832
:1001300000F0ADF800F0D8F800F017F900F04AF937
:1001400000F087F900F02AFA00F095FA00F048FC78
:1001500000F098FE01F00EFA09A003F0EBFC0DE0B0
:100160000B480078012807D10A4801680AA003F06B
:10017000E1FC00200649087001F04AFAF0E70000AF
:1001800048656C6C6F2073746D33322E2000000054
:10019000250000201000002052465F49442069736A
:1001A00020257820200D0A2000000000704700BFA5
:1001B000FEE700BFFEE700BFFEE700BFFEE77047B7
:1001C000704770470A480068401C094908600846A3
:1001D0000068C7280AD907480078401C05490870FC
:1001E000012005490870002001490860704700009F
:1001F00004000020080000200000002010B50028A6
:1002000007DA0A07140E344A00F00F031B1FD454F8
:1002100003E00A07130E314A135410BD10B502F063
:1002200045F8012002F0C9F800BF212002F083F850
:100230000028FAD04FF48011002002F0C1F800200D
:1002400002F0E7F8002002F0EDF84FF4806002F0D1
:10025000F2F8012002F0C0F800BF392002F06BF87C
:100260000028FAD0022002F0C6F800BF02F0CCF855
:100270000828FBD10121084602F08FF90121184816
:1002800001F097FF0121C80301F093FF10BD10B5E5
:1002900014480068C821B0FBF1F4B4F1807F01D3A9
:1002A000012011E024F07F40401E4FF0E021486122
:1002B0000F214FF0FF30FFF7A1FF00204FF0E021AA
:1002C000886107200861002008B100BFFEE7002117
:1002D000481EFFF793FF10BD18ED00E000E400E0BA
:1002E000000230008800002000B585B00121042004
:1002F00002F053F90121480402F05CF90420ADF842
:10030000100018208DF8130003208DF8120004A9A6
:100310002D4801F07FFE4FF48060ADF810000420FE
:100320008DF8130004A9284801F074FE4FF416500C
:1003300000900020ADF80400ADF80600ADF808000C
:10034000ADF80C000C20ADF80A0069461F4803F018
:10035000E0F8012240F225511C4803F072F9012116
:100360001A4803F062F905B000BD08B526208DF8E3
:10037000000001208DF8010000208DF8020001200E
:100380008DF80300684601F0EEFC08BD70B5044628
:100390000D46E1B20D4803F0B5F900BF0B480088E7
:1003A00010F0800FFAD0204670BD10B504462146EB
:1003B00007A003F0BFFB10BD10B540F22551034864
:1003C00003F024FA10BD0000000801400044004082
:1003D0002563000000B585B0012144F2040002F05D
:1003E000DCF84FF40070ADF8100018208DF8130001
:1003F00003208DF8120004A9284801F00BFE4FF4E9
:100400008060ADF8100004208DF8130004A9234883
:1004100001F000FE4FF4165000900020ADF80400EB
:10042000ADF80600ADF80800ADF80C000C20ADF8F2
:100430000A0069461A4803F06CF8012240F225517F
:10044000174803F0FEF80121154803F0EEF805B057
:1004500000BD08B525208DF8000001208DF80100B1
:1004600000208DF8020001208DF80300684601F09D
:100470007AFC08BD10B504462146094803F042F94C
:1004800000BF0748008810F0800FFAD010BD10B5EB
:1004900040F22551024803F0B9F910BD00080140AF
:1004A0000038014070B500256248006810F4004F24
:1004B00000D001254FF08040848C00204FF0804117
:1004C0008884002D38D0B4F5967F50DD5A480078E6
:1004D00018284CDD5948006840085849086008460B
:1004E000006820F07F4008600846006854490842D0
:1004F0001CD0524800685349096888420CD15248C0
:100500000078401C504908704C4800684F4908600A
:1005100001204F49087009E000204B490870474806
:100520000068484908600120494908700020434993
:100530000860414908701AE0152C01DBD22C05DD5A
:1005400000203D4908703D49086010E03B480068C4
:1005500040003A490860552C04DD0846006840F028
:100560000100086034480078401C334908704FF49B
:10057000004001F0E6FC70BD08B50121042002F046
:100580000CF84FF40040ADF8000048208DF803004F
:1005900069462848083801F03DFD08BD10B586B011
:1005A0000024FFF7E9FF0121084601F0F6FF0F21C3
:1005B000002001F043FE4FF40040049000208DF82D
:1005C000140010208DF8150001208DF8160004A8E5
:1005D00001F040FC28208DF80C0000208DF80D0063
:1005E0008DF80E0001208DF80F0003A801F0BBFB71
:1005F0000121084601F0DEFF164800681649B0FBED
:10060000F1F0401E84B24FF6FF70ADF80400ADF873
:1006100000400020ADF80600ADF8020069464FF03A
:10062000804002F0F9F80121880702F051FC06B081
:1006300010BD000008080140240000201C0000201C
:10064000F0FFFF0020000020260000201000002006
:100650002500002088000020A086010005E002217E
:1006600000BF4A1E92B21100FBD10200A0F10103AB
:1006700098B2F4D1704708B50121082001F08DFF30
:1006800010208DF8030003208DF802004FF47870DD
:10069000ADF800006946FE4801F0BCFC48208DF82A
:1006A00003001020ADF800006946F94801F0B2FCE3
:1006B00008BD30B504460020F6490860054618E03C
:1006C0000020F549086014F0010F04D00120A1F1C9
:1006D0000401086002E00020F04908604FF00500C6
:1006E000FFF7BCFF0120EC4908604FEA640405F104
:1006F0000105082DE4D30020E7490860E849C1F866
:10070000A00130BD30B504460020E649086005462A
:1007100017E00020E049086014F0010F03D0012029
:10072000DE49086002E00020DC4908604FF0050067
:10073000FFF794FF0120D84908604FEA640405F1EF
:100740000105082DE5D30020D3490860D449C1F83C
:10075000A00130BD30B504460020D34908600546ED
:1007600017E00020CC49086014F0010F03D00120ED
:10077000CA49086002E00020C84908604FF005003F
:10078000FFF76CFF0120C44908604FEA640405F1DB
:100790000105082DE5D30020BF490860C049C1F814
:1007A000A00130BD10B504460120BA4908604FF0E1
:1007B0000500FFF753FF0020B949C1F89401204616
:1007C000FFF777FF10BDF8B5FF260020009042200C
:1007D000FFF7E8FF0120B54908604FF00004CEE0C4
:1007E00000251BE00020AC4908601DF804004FEA1A
:1007F00060000DF804004FF00100A949C1F8A40100
:10080000AA48006828B11DF8040040F080000DF8E7
:1008100004000520FFF722FF681CC5B2082DE1DBAC
:100820000520FFF71BFF9DF8000048B99DF8010067
:1008300030B99DF8020018B99DF8030000286ED069
:100840009DF80000102818D008DC01280DD00228DF
:100850000DD004280DD0082817D10CE020280ED088
:1008600040280ED0802810D10DE019260EE0112668
:100870000CE009260AE0012608E01A2606E0122606
:1008800004E00A2602E0022600E000BF00BF9DF857
:100890000100102818D008DC01280DD002280DD046
:1008A00004280DD0082817D10CE020280ED04028AD
:1008B0000ED0802810D10DE01B260EE013260CE090
:1008C0000B260AE0032608E01C2606E0142604E0B6
:1008D0000C2602E0042600E000BF00BF9DF80200E5
:1008E000102818D008DC01280DD002280DD00428CB
:1008F0000DD0082818D10CE020280ED040280FD0A9
:10090000802811D10EE01D260FE015260DE00D26E2
:100910000BE0052609E01E2607E0162605E02CE080
:100920000E2602E0062600E000BF00BF9DF803008F
:10093000102818D008DC01280DD002280DD004287A
:100940000DD0082817D10CE020280ED040280ED05A
:10095000802810D10DE01F260EE017260CE00F2690
:100960000AE0072608E0202606E0182604E0102604
:1009700002E0082600E000BF00BF601CC4B2042CE7
:10098000FFF62EAF0020444908604549C1F8100128
:100990004FF001003F4908603046F8BD10B50446ED
:1009A0000120404908604FF00500FFF757FE002086
:1009B0003B49C1F898012046FFF7A4FE10BD10B5D1
:1009C00004460120384908604FF00500FFF746FE55
:1009D00000203349C1F89C012046FFF7BBFE10BD43
:1009E00010B54020FFF7DEFEC020FFF7DBFE00243D
:1009F0000AE02F49085DFFF75CFE2D490831085DCC
:100A0000FFF757FE601CC4B2082CF2DB8C20FFF706
:100A1000C9FE01201F4908604FF04000FFF7BEFFEC
:100A2000C020FFF7BBFF00240BE021491031085D17
:100A3000FFF768FE1E491831085DFFF763FE601C72
:100A4000C4B2082CF1DB8C20FFF7A8FF0120154968
:100A500008604FF04000FFF7B2FFC020FFF7AFFF84
:100A600000240BE012492031085DFFF773FE1049A6
:100A70002831085DFFF76EFE601CC4B2082CF1DB64
:100A80008C20FFF79CFF01200749086010BD000083
:100A9000000C014094812142A4812142A081214285
:100AA00000802142988121429C8121421081214273
:100AB000A000002010B53021E54802F0CCFF10BDA9
:100AC00010B50446FFF7F6FFE248C07BE0494870E6
:100AD000E048005D0870FFF783FF10BD10B50446C5
:100AE000FFF7E8FFDB48807BD9494870D948005DB3
:100AF0000870FFF775FF10BD10B50446FFF7DAFF69
:100B000020780A2190FBF1F0D249095CD048C172EB
:100B100020780A2190FBF1F201FB1200CD49095C1B
:100B2000CB48817260780A2190FBF1F0C949095CD9
:100B3000C748417260780A2190FBF1F201FB120074
:100B4000C449085CC2490872A0780A2190FBF1F000
:100B5000C049085CBE49C871A0780A2190FBF1F237
:100B600001FB1200BB49085CB9498871E0780A2191
:100B700090FBF1F0B749085CB5494871E0780A216B
:100B800090FBF1F201FB1200B249085CB049087118
:100B900020790A2190FBF1F0AE49085CAC49C8709D
:100BA00020790A2190FBF1F201FB1200A949085CAF
:100BB000A749887060790A2190FBF1F0A549085C8B
:100BC000A349487060790A2190FBF1F201FB120001
:100BD000A049085C9E490870E0799E49095C9C48E0
:100BE0000173FFF7FDFE10BD10B59B48007810F0B3
:100BF000010F06D00020964948700870FFF7F0FEFC
:100C000002E09648FFF778FF93480078401C92492D
:100C1000087010BD10B59248007810F0010F06D092
:100C200000208B49C8708870FFF7DAFE02E08B481D
:100C3000FFF762FF8A480078401C8949087010BDA0
:100C400010B58848007810F0010F06D000208049C8
:100C500048710871FFF7C4FE02E08048FFF74CFFBF
:100C600080480078401C7F49087010BD10B57E4850
:100C7000007810F0010F06D000207549C871887106
:100C8000FFF7AEFE02E07548FFF736FF76480078C2
:100C9000401C7549087010BD10B57448007810F0FC
:100CA000010F08D000216A4841720020684908728B
:100CB000FFF796FE02E06948FFF71EFF6B480078D9
:100CC000401C6A49087010BD10B56948007810F0E2
:100CD000010F05D000215E480173FFF781FE02E09D
:100CE0005E48FFF709FF62480078401C60490870C1
:100CF00010BD10B50446FFF7DDFE4FF47A7094FB8B
:100D0000F0F05449085C5249C870642094FBF0F03C
:100D10000A2190FBF1F201FB12004E49085C4C499C
:100D20008870642094FBF0F100FB11400A2190FBD5
:100D3000F1F04849085C464948700A2094FBF0F1FC
:100D400000FB11404349085C41490870FFF748FE29
:100D500010BD10B50446FFF7ADFE0A2094FBF0F07D
:100D60003C49085C3A4948700A2094FBF0F100FBCA
:100D700011403849085C36490870FFF731FE10BD54
:100D800010B50446FFF796FE0A2094FBF0F100FB35
:100D900011403049085C2E490870FFF721FE10BD54
:100DA00010B504463348007810F0010F05D000203C
:100DB00027490870FFF714FE02E02046FFF799FF6D
:100DC0002C480078401C2B49087010BD10B5044613
:100DD0002948007810F0010F05D000201C49487008
:100DE000FFF7FEFD02E02046FFF783FF2248007870
:100DF000401C2149087010BD10B504461F480078FA
:100E000010F0010F05D000201149C870FFF7E8FD70
:100E100002E02046FFF76DFF18480078401C174994
:100E2000087010BD10B504461548007810F0010F89
:100E300005D0002006490871FFF7D2FD02E02046E8
:100E4000FFF757FF0E480078401C0D49087010BD91
:100E5000A0000020343E00082F00002027000020C2
:100E6000300000203100002032000020330000203C
:100E7000340000203500002036000020370000201C
:100E80003800002008B50121082001F086FB14205D
:100E90008DF8030003208DF802008002ADF80000F9
:100EA0006946FC4801F0B6F810208DF803000002F6
:100EB000ADF800006946F74801F0ACF80120F649AA
:100EC0000860F649C1F8AC014FF00000F449086031
:100ED00008BD06E0072100BF0A00A1F10103D9B255
:100EE000FAD10200A0F1010398B2F3D1704710B516
:100EF0000120EC4908604FF00500FFF7EAFF0120F0
:100F0000E649C1F8A8010520FFF7E3FF0020E54905
:100F100008604FF00500FFF7DCFF0020DF49C1F853
:100F2000A8010520FFF7D5FF10BD70B504460025C8
:100F30001FE014F0800F03D00120DA49086002E0BE
:100F40000020D84908604FF00200FFF7C2FF0120DF
:100F5000D34908604FF00200FFF7BBFF6006040EA4
:100F60000020CE49C1F8A8010220FFF7B2FF681C9B
:100F7000C5B2082DDDDB0120CA4908604FF0020030
:100F8000FFF7A7FF0120C549C1F8A8010220FFF71C
:100F9000A0FFC548006808B1012070BD0020C0490D
:100FA00008604FF00200FFF794FF0020BB49C1F832
:100FB000AC010220FFF78DFF0020EEE770B50024A2
:100FC0000120B84908604FF0000517E06006040EE4
:100FD0000120B34908604FF00200FFF77AFFAF48E5
:100FE000D0F82C0108B144F001040020AC4908609D
:100FF0004FF00200FFF76DFF681CC5B2082DE5DB5E
:10100000204670BD10B50020A54908604FF00500CE
:10101000FFF75FFF0020A149C1F8AC010520FFF7F1
:1010200058FF01209E4908604FF00500FFF751FF6F
:1010300001209A49C1F8AC010520FFF74AFF10BD15
:101040002DE9F04106460C4617460125FFF74FFFF4
:10105000A020FFF76AFF054615B10120BDE8F08129
:10106000C6F30420FFF761FF05460DB10120F5E747
:10107000F0B2FFF75AFF05460DB10120EEE7FFF78A
:1010800036FFA120FFF751FF05460DB10120E5E72E
:101090001AE0FFF793FF20700020824908604FF0AC
:1010A0000500FFF716FF01207C49C1F8A8010520C3
:1010B000FFF70FFF00207A4908604FF00500FFF7A7
:1010C00008FF641C781E87B2012FE2DCFFF776FF71
:1010D00020700120734908604FF00500FFF7F9FE0A
:1010E00001206E49C1F8A8010520FFF7F2FE00209B
:1010F0006B4908604FF00500FFF7EBFEFFF782FF3A
:101100000020ABE72DE9F0478046894616460125C9
:10111000002061490860044634E008EB040087B20F
:10112000FFF7E5FEA020FFF700FF054615B10120FF
:10113000BDE8F087C7F30420FFF7F7FE05460DB1C1
:101140000120F5E7F8B2FFF7F0FE05460DB10120EA
:10115000EEE74FF0000A0DE019F80400FFF7E5FE96
:1011600005460DB10120E3E7601C84B20AF10100DD
:1011700000F0FF0AB245EFDBFFF744FF4FF4FA60DF
:10118000FFF7A7FEB442C8DB0120434908604FF0D7
:101190000000CDE72DE9FC4104460026202500276C
:1011A0001CE0082269462846FFF74AFF019810F024
:1011B0007F4F0CD10198616888420AD13B48009961
:1011C00001600020394908710120BDE8FC8106B9A1
:1011D0002E4605F1080085B2781C87B2B7F5007F6E
:1011E000DFDB082221463046FFF78CFF0EB90120D5
:1011F000EBE70020E9E72DE9FC41044600264FF427
:10120000A15500271CE0082269462846FFF718FF71
:10121000019810F07F4F0CD10198616888420AD183
:101220002348009901600020214908710120BDE890
:10123000FC8106B92E4605F1080085B2781C87B2FC
:10124000202FE0DB082221463046FFF75BFF0EB976
:101250000120ECE70020EAE72DE9FC4104460026E6
:101260004FF4815500272EE0082269462846FFF7F3
:10127000E7FE019810F07F4F1ED101986168884207
:101280001CD10C480099016000200A490871012016
:10129000BDE8FC81000C0140B08121420080214268
:1012A000A8812142AC8121422C81214248000020AA
:1012B000520000205C00002006B92E4605F108000F
:1012C00085B2781C87B2402FCEDB082221463046FB
:1012D000FFF718FF0EB90120DAE70020D8E72DE963
:1012E000FC41044600264FF4915500271CE00822DB
:1012F00069462846FFF7A4FE019810F07F4F0CD1F5
:101300000198616888420AD19948009901600020DB
:10131000974908710120BDE8FC8106B92E4605F108
:10132000080085B2781C87B2402FE0DB08222146F6
:101330003046FFF7E7FE0EB90120ECE70020EAE7B0
:1013400070B58AB0054620262021684602F083FB4E
:10135000FF222021684602F077FB286880B900242C
:101360000BE006EB441188B220226946FFF7CAFE63
:101370006420FFF7AEFD601C84B2802CF1DB22E01C
:1013800000241CE0082208A93046FFF759FE0998FE
:1013900010F07F4F0ED12868089988420AD1FF22A9
:1013A000082108A802F050FB082208A93046FFF7E0
:1013B000A9FE07E006F1080086B2601C84B2B4F50D
:1013C000007FDFDB00BF00200AB070BD70B58AB0BF
:1013D00005464FF4A1562021684602F03CFBFF224F
:1013E0002021684602F030FB286880B900240BE019
:1013F00006EB441188B220226946FFF783FE642081
:10140000FFF767FD601C84B2082CF1DB21E00024AB
:101410001CE0082208A93046FFF712FE099810F0D8
:101420007F4F0ED12868089988420AD1FF220821EF
:1014300008A802F009FB082208A93046FFF762FE5F
:1014400006E006F1080086B2601C84B2202CE0DBC6
:1014500000BF00200AB070BD70B58AB005464FF4D9
:1014600081562021684602F0F6FAFF2220216846C4
:1014700002F0EAFA286880B900240BE006EB441178
:1014800088B220226946FFF73DFE6420FFF721FD68
:10149000601C84B2102CF1DB21E000241CE0082247
:1014A00008A93046FFF7CCFD099810F07F4F0ED108
:1014B0002868089988420AD1FF22082108A802F06A
:1014C000C3FA082208A93046FFF71CFE06E006F121
:1014D000080086B2601C84B2402CE0DB00BF002014
:1014E0000AB070BD70B58AB005464FF49156202100
:1014F000684602F0B0FAFF222021684602F0A4FA02
:10150000286880B900240BE006EB441188B2202241
:101510006946FFF7F7FD6420FFF7DBFC601C84B22F
:10152000102CF1DB21E000241CE0082208A9304641
:10153000FFF786FD099810F07F4F0ED128680899B3
:1015400088420AD1FF22082108A802F07DFA082269
:1015500008A93046FFF7D6FD06E006F1080086B27E
:10156000601C84B2402CE0DB00BF00200AB070BDDC
:101570006600002008B50121042001F00EF8332098
:10158000ADF8000048208DF803006946974800F048
:1015900041FD08BD06E00C2100BF0A00A1F10103D6
:1015A000D9B2FAD10200A0F1010398B2F3D1704789
:1015B00010B5FF248E48006840B18E48006828B1FD
:1015C0008D48006810B18D480068F8B942F210707B
:1015D000FFF7E0FF8648006840B18648006828B100
:1015E0008548006810B18548006878B9804800686F
:1015F00000B901247F48006800B902247E480068D1
:1016000000B903247D48006800B90424204610BDB9
:1016100010B500207A490870FFF7CAFF79490870B1
:101620000846007800286ED008460078012806D0C9
:1016300002286CD0032868D0042867D1A1E032E0EA
:101640006F48007802282EDD6F48007830B10C28F2
:1016500008D00D280AD00F2810D10BE002206A49CB
:1016600008700CE033206849087008E034206649AF
:10167000087004E036206449087000E000BF00BF35
:101680006148007800EB4000604901EB8000806811
:101690005F49086008460068804700BF54480068FA
:1016A0000028FBD010BD5248006878B95648007831
:1016B0000028C5D0544800780C28C1D05248007882
:1016C0000D28BDD0504800780F28B9D04E4800787A
:1016D00000EB40004D4901EB800040784A4908701A
:1016E0000846007800EB4000484901EB8000806824
:1016F0004749086008460068804700BF3C480068CA
:101700000028FBD06FE06FE001E01DE056E03E48AE
:10171000007800EB40003D4901EB800080783A49B9
:1017200008700846007800EB4000384901EB800063
:1017300080683749086008460068804700BF2D4828
:1017400000680028FBD04EE02F48007800EB4000F6
:101750002E4901EB8000C0782B49087008460078BC
:1017600000EB4000294901EB8000806828490860AF
:1017700008460068804700BF1F4800680028FBD06B
:1017800031E02148007800EB4000204901EB800067
:1017900000791D4908700846007800EB40001B499D
:1017A00001EB800080681A4908600846006880479D
:1017B00000BF124800680028FBD014E015480078EC
:1017C00001280FD10020134908700F48007800EB62
:1017D00040000E4901EB800080680D490860084612
:1017E0000068804700BF00BF00BF5BE70008014002
:1017F0000001214204012142100121421401214231
:10180000080000203D0000203C000020683E000849
:10181000400000200000002010B5FFF74BF94020E9
:10182000F749097801F00301F64A5054FFF7D8F858
:10183000F3480078401CF249087010BD10B5002034
:10184000FFF73EF910BD10B50120FFF739F910BDC3
:1018500010B50220FFF734F910BD10B50320FFF7D3
:101860002FF910BD10B50420FFF72AF910BD10B5EF
:101870000520FFF725F910BD10B50620FFF720F968
:1018800010BD10B50720FFF71BF910BD10B50820DB
:10189000FFF716F910BD10B50920FFF711F910BDBB
:1018A00010B50A20FFF70CF910BD10B50B20FFF79B
:1018B00007F910BD10B50C20FFF702F910BD10B5E7
:1018C0000D20FFF7FDF810BD10B50E20FFF7F8F85A
:1018D00010BD10B5FFF788F9CB480078032810D168
:1018E000CA4840793B2803D10020C849487104E028
:1018F000C6484079401CC5494871C448FFF7FCF808
:1019000012E0C148007802280ED1C048407918B9C9
:101910003B20BE49487104E0BC484079401EBB49A9
:101920004871BA48FFF7E8F810BD10B5FFF772F933
:10193000B5480078032810D1B4480079172803D19E
:101940000020B249087104E0B0480079401CAF495A
:101950000871AE48FFF7D0F812E0AB4800780228D3
:101960000ED1AA48007918B91720A849087104E0D7
:10197000A6480079401EA5490871A448FFF7BCF8A5
:1019800010BD10B5FFF75CF99F480078032810D10F
:101990009E48C0781F2803D101209C49C87004E0EC
:1019A0009A48C078401C9949C8709848FFF7A4F835
:1019B00013E09548007802280FD19448C078012898
:1019C00003D11F209149C87004E09048C078401EA0
:1019D0008E49C8708D48FFF78FF810BD10B5FFF71E
:1019E00045F989480078032810D1884880780C2868
:1019F00003D101208549887004E084488078401C28
:101A0000824988708148FFF777F813E07E480078B4
:101A100002280FD17D488078012803D10C207B4912
:101A2000887004E079488078401E7849887077484B
:101A3000FFF762F810BD10B5FFF72EF97248007875
:101A4000032810D171484078632803D100206F49E2
:101A5000487004E06D484078401C6C4948706B4801
:101A6000FFF74AF812E06848007802280ED167486C
:101A7000407818B963206549487004E063484078AD
:101A8000401E624948706148FFF736F810BD10B536
:101A9000FFF71AF95C480078032810D15B48C07939
:101AA000072803D100205949C87104E05748C0797C
:101AB000401C5649C8715548FFF71EF813E05248BC
:101AC000007802280FD15148C079012803D107209E
:101AD0004E49C87104E04D48C079401E4B49C87159
:101AE0004A48FFF709F810BD10B50120FEF7F6FFD0
:101AF00010BD10B50220FEF7F1FF10BD10B5032098
:101B0000FEF7ECFF10BD10B50420FEF7E7FF10BD97
:101B100010B50120FEF7E2FF10BD10B50220FEF760
:101B2000DDFF10BD10B50320FEF7D8FF10BD10B5C6
:101B30000420FEF7D3FF10BD10B50120FEF7CEFF45
:101B400010BD10B50220FEF7C9FF10BD10B52E481C
:101B5000007803280DD12E480078632803D1002097
:101B60002B49087015E02A480078401C2849087065
:101B70000FE02548007802280BD12548007818B9D5
:101B800063202349087004E021480078401E204962
:101B900008701F480078FFF7DCF810BD10B51A4830
:101BA000007803280DD11B480078632803D100205A
:101BB0001849087015E017480078401C154908704E
:101BC0000FE01148007802280BD11248007818B9AC
:101BD00063201049087004E00E480078401E0D494B
:101BE00008700C480078FFF7B4F810BD10B501205C
:101BF000FEF774FF10BD10B50220FEF76FFF10BD99
:101C000070000020A00000203D00002027000020E0
:101C1000440000204500002010B50320FEF75EFFC1
:101C200010BD10B50420FEF759FF10BD10B50520FA
:101C3000FEF754FF10BD10B50620FEF74FFF10BD94
:101C400010B50720FEF74AFF10BD10B50820FEF7BB
:101C500045FF10BD10B50120FEF740FF10BD10B5C7
:101C60000220FEF73BFF10BD10B50320FEF736FF44
:101C700010BD10B50420FEF731FF10BD10B50120D6
:101C8000FEF72CFF10BD10B50220FEF727FF10BD98
:101C900010B50120FEF722FF10BD10B50220FEF79F
:101CA0001DFF10BD704710B52948007803280BD1DF
:101CB00028480078012803D100202649087012E046
:101CC0000120244908700EE02148007802280AD13A
:101CD00020480078012803D100201E49087002E046
:101CE00001201C4908701B480078FFF749F810BD17
:101CF00010B51748007803280BD117480078012841
:101D000003D100201449087012E001201249087024
:101D10000EE00F48007802280AD10F480078012809
:101D200003D100200C49087002E001200A49087024
:101D300009480078FFF724F810BD704710B501205E
:101D4000FEF7CCFE10BD10B50220FEF7C7FE10BD99
:101D50003D0000204700002046000020314901439B
:101D6000314A1160704770B5002100230F22C478FA
:101D70000CB32D4C246804F4E064C4F5E064210A3B
:101D8000C1F10403CA40447804FA03F18478144092
:101D900021430901254C0678A155047804F01F055C
:101DA0000124AC4005786D114FF0E02606EB850567
:101DB000C5F8004109E0047804F01F050124AC4097
:101DC0001B4D0678761145F8264070BD194A0A4029
:101DD0000243154B1B1F1A60704739B1124A121D7E
:101DE00012680243104B1B1D1A6006E00E4A121DBA
:101DF000126882430C4B1B1D1A607047042808D1DF
:101E00004FF0E021096941F004014FF0E022116137
:101E100007E04FF0E021096921F004014FF0E022D2
:101E2000116170470000FA050CED00E000E400E0ED
:101E300080E100E080FFFF1F002044490860091D89
:101E40000860091D0860091D086041483F491431B8
:101E50000860704700213D498279002A3AD00A463D
:101E6000126803689A430B461A600A1D12680368D9
:101E70009A430B1D1A60027911440A6803681A43D9
:101E80000A60324A0832126803689A432F4B0833BB
:101E90001A601A1D126803689A432C4B0C331A609F
:101EA0004279102A0ED11A1F126803681A43274B71
:101EB00008331A601A1D126803681A43234B0C3347
:101EC0001A600DE02149427911440A6803681A43F7
:101ED0000A6005E0027911440A6803689A430A60BF
:101EE00070470021016001710C2141710021817155
:101EF00070471649103109680143144A10321160C5
:101F0000704701460020114A143212680A4201D07B
:101F1000012000E0002070470C4914310860704730
:101F2000014600200022094B1B6803EA0102074B0F
:101F300014331B680B4202D00AB1012000E00020DC
:101F400070470249143108607047000000040140E6
:101F5000FFFF0F0010B50446CA48844208D1012192
:101F6000042000F034FB0021042000F030FB46E0A8
:101F7000C548844208D10121082000F028FB002137
:101F8000082000F024FB3AE0C048844208D1012137
:101F9000102000F01CFB0021102000F018FB2EE0A8
:101FA000BB48844208D10121202000F010FB002111
:101FB000202000F00CFB22E0B648844208D1012129
:101FC000402000F004FB0021402000F000FB16E060
:101FD000B148844208D10121802000F0F8FA0021A4
:101FE000802000F0F4FA0AE0AC48844207D10121D5
:101FF000801500F0ECFA0021A01500F0E8FA10BD01
:1020000010B50121084600F0E2FA0021012000F09D
:10201000DEFA10BD2DE9F041024600250026002021
:1020200000230024002791F803C00CF00F0591F85D
:1020300003C01CF0100F03D091F802C04CEA050554
:1020400091F800C0BCF1000F31D0146800202BE0E3
:102050004FF0010C0CFA00F3B1F800C00CEA0306D3
:102060009E4220D183004FF00F0C0CFA03F7BC43C3
:1020700005FA03FC4CEA040491F803C0BCF1280FF4
:1020800006D14FF0010C0CFA00FCC2F814C00AE0B3
:1020900091F803C0BCF1480F05D14FF0010C0CFAC8
:1020A00000FCC2F810C0401C0828D1D31460B1F85D
:1020B00000C0BCF1FF0F34DD546800202EE000F1B9
:1020C000080C4FF0010808FA0CF3B1F800C00CEA54
:1020D00003069E4221D183004FF00F0C0CFA03F748
:1020E000BC4305FA03FC4CEA040491F803C0BCF1BC
:1020F000280F05D100F1080C08FA0CF8C2F814807A
:1021000091F803C0BCF1480F07D100F1080C4FF063
:10211000010808FA0CF8C2F81080401C0828CED339
:102120005460BDE8F0814FF6FF710180022181709B
:102130000421C17070470246002093680B4201D011
:10214000012000E0002070470146886880B2704797
:1021500002460020D3680B4201D0012000E000209D
:1021600070470146C86880B270470161704741619D
:1021700070470AB1016100E041617047C16070477A
:102180004FF480320A43826181618261826982698F
:10219000704702460020424B18684FF68073184083
:1021A00040EA021008433E4B186070473D49C86141
:1021B0007047F0B50A46002300240021002500F0F6
:1021C0000046B6F1004F02D1354EF16901E0344EC0
:1021D0007168C0F3034583B200F44016B6F5401FA2
:1021E00008D121F070612E4E766826F070662C4F73
:1021F0007E6012E000F48016B6F5801F06D103263B
:1022000006FA05F4A14341F0706106E0460D36017F
:1022100003FA06F6B14341F0706122B1460D360172
:1022200003FA06F6314300F00046B6F1004F02D142
:102230001B4EF16101E01A4E7160F0BD30B5002215
:102240008B071C0F0F2303FA04F2154B08338C1075
:1022500053F824309343124C08348D1044F8253041
:1022600023468C1053F824308C07240F00FA04F412
:1022700023430B4C08348D1044F8253030BD0A49F7
:102280000860704700080140000C01400010014048
:102290000014014000180140001C014000200140D2
:1022A0000000014000002042DC002042E4480068B9
:1022B00040F00100E249086008464068E1490840F2
:1022C000DF49486008460068DF490840DC4908608B
:1022D0000846006820F4802008600846406820F422
:1022E000FE0048604FF41F0088600020C8627047FD
:1022F000D349096821F48031D14A11601146096837
:1023000021F480211160B0F5803F03D0B0F5802F1B
:102310000ED106E0CA49096841F48031C84A11600B
:1023200007E0C749096841F4A021C54A116000E0EF
:1023300000BF00BF704710B50146002200230020F7
:102340004A11012A02D1BE4C236806E0022A02D1BA
:10235000BB4C236A01E0BA4C636A01F01F020124FE
:1023600094401C4201D0012000E0002010BD38B58F
:10237000002000900024002500BF3120FFF7DBFF84
:1023800005460098401C00900098B0F5A06F01D061
:10239000002DF2D03120FFF7CEFF08B1012400E07C
:1023A0000024204638BD01460020A54A106820F0D0
:1023B000F80040EAC10010607047A4490860704707
:1023C000024600209E4B586820F4741042EA010334
:1023D00018439B4B586070479C49086670470246FB
:1023E0000020974BD86A9A4B184042EA01031843E1
:1023F000934BD862704701460020914A506820F004
:1024000003000843506070478D48406800F00C009E
:102410007047014600208A4A506820F0F0000843C7
:102420005060704701460020854A506820F4E06003
:1024300008435060704701460020814A506820F4EC
:10244000605040EAC1005060704729B17C4A527A1E
:1024500002437B4B5A7204E0794A527A8243784BAA
:102460005A7270477B490860704701460020744AE1
:10247000506820F440400843506070470021764A7D
:1024800011706F4A82F82010012802D0042808D168
:1024900003E00121704A117004E005216E4A1170B9
:1024A00000E000BF00BF70476C4908607047644996
:1024B000096A0143624A11627047684944390860F9
:1024C000704770B5002100230024002200255C4ED7
:1024D000766806F00C0121B1042905D0082921D124
:1024E00005E05F4E066020E05D4E06601DE0544E44
:1024F000766806F47013524E766806F4803402262D
:1025000006EB93431CB9574E5E43066009E04C4E00
:10251000F66A06F00F06751C514EB6FBF5F65E43E3
:10252000066002E04E4E066000BF00BF444E766873
:1025300006F0F00109094C4E725C0668D640466010
:102540003F4E766806F4E061090A474E725C4668C1
:10255000D64086603A4E766806F46051C90A424E0B
:10256000725C4668D640C660354E766806F44041D7
:10257000890B3E4E725CC668B6FBF2F6066170BD12
:1025800029B12F4A526902432D4B5A6104E02C4A6B
:10259000526982432A4B5A61704729B1284A92698D
:1025A0000243274B9A6104E0254A92698243244BF7
:1025B0009A61704729B1224AD2690243204BDA61FD
:1025C00004E01F4AD26982431D4BDA61704729B18A
:1025D0001B4AD26802431A4BDA6004E0184AD268F8
:1025E0008243174BDA60704729B1154A12690243DA
:1025F000134B1A6104E0124A12698243104B1A61AC
:10260000704716494039086070471049C8647047E0
:102610000B49C87170470A48406A40F08070084909
:102620004862704701460020054A92680A4201D07C
:10263000012000E0002070470149887270470000C7
:10264000001002400000FFF8FFFFF6FE00004242CB
:10265000F0FFFEFFD80042422010024080044242B8
:1026600000127A0000093D00710000208100002066
:1026700010B50446FE48844208D10121C014FFF77A
:10268000A6FF0021E014FFF7A2FFC4E0B4F1804FE1
:1026900008D101210846FFF7A7FF00210120FFF71D
:1026A000A3FFB8E0F348844208D101210220FFF7DC
:1026B0009BFF00210220FFF797FFACE0EE48844229
:1026C00008D101210420FFF78FFF00210420FFF72C
:1026D0008BFFA0E0E948844208D101210820FFF7E0
:1026E00083FF00210820FFF77FFF94E0E448844245
:1026F00008D101211020FFF777FF00211020FFF7FC
:1027000073FF88E0DF48844208D101212020FFF7D1
:102710006BFF00212020FFF767FF7CE0DA4884424E
:1027200008D101214014FFF752FF00216014FFF788
:102730004EFF70E0D548844209D10121C804FFF75B
:1027400046FF00214FF40020FFF741FF63E0D0482F
:10275000844209D101210805FFF739FF00214FF418
:102760008010FFF734FF56E0CA48844209D10121A6
:102770004805FFF72CFF00214FF40010FFF727FF5B
:1027800049E0C548844208D101214020FFF72CFFD1
:1027900000214020FFF728FF3DE0C048844208D1D7
:1027A00001218020FFF720FF00218020FFF71CFF80
:1027B00031E0BB48844208D101218015FFF714FFA6
:1027C0000021A015FFF710FF25E0B648844209D18B
:1027D00001210804FFF7FBFE00214FF48030FFF7D2
:1027E000F6FE18E0B048844209D101214804FFF701
:1027F000EEFE00214FF40030FFF7E9FE0BE0AB489E
:10280000844208D101218804FFF7E1FE00214FF442
:102810008020FFF7DCFE10BD00220288944B984216
:102820000ED0994B98420BD0B0F1804F08D0914B0D
:10283000984205D0904B984202D0904B984204D1D8
:102840004FF68F731A404B881A438D4B984207D02E
:102850008C4B984204D04FF6FF431A40CB881A4362
:1028600002808B8883850B880385814B98420BD02F
:10287000854B984208D08B4B984205D08A4B9842A2
:1028800002D08A4B984201D10B7A038601238382BE
:10289000704770B5002400220023058C4FF6FE76A9
:1028A00035400584028C8388048B4FF68F752C404D
:1028B000B51E2C400D882C43751E2A400D892A43D5
:1028C0004D882A436A4DA8420BD06F4DA84208D0CC
:1028D000744DA84205D0744DA84202D0734DA84251
:1028E00013D14FF6F7752A404D892A434FF6FB75F1
:1028F0002A408D882A434FF6FF652B404FF6FF553F
:102900002B408D892B43CD892B4383800483CD8835
:102910008586028470BD70B5002400220023058CDA
:102920004FF6EF7635400584028C8388048B48F699
:10293000FF752C404FF6FF452C400D884FF6FF7673
:1029400006EA05252C434FF6DF752A400D8906EA75
:1029500005152A434D8806EA05152A43444DA84229
:1029600002D0494DA8421DD14FF67F752A404D89AE
:102970004FF6FF7606EA05152A434FF6BF752A4043
:102980008D8806EA05152A434FF6FF352B404FF296
:10299000FF752B408D8906EA85052B43CD8906EA14
:1029A00085052B4383800483CD880587028470BD11
:1029B00070B5002400220023058C4FF6FF663540D9
:1029C0000584028C8388848B4FF68F752C404FF6DC
:1029D000FC752C400D882C434FF6FF552A400D897D
:1029E0004FF6FF7606EA05252A434D8806EA0525B7
:1029F0002A431F4DA84202D0234DA8421DD14FF2B9
:102A0000FF752A404D894FF6FF7606EA05252A43D1
:102A10004FF6FF352A408D8806EA05252A434EF6F3
:102A2000FF752B404DF6FF752B408D8906EA051585
:102A30002B43CD8906EA05152B4383808483CD88FB
:102A40008587028470BD70B5002200230024058CA8
:102A50004EF6FF7635400584038C8488828B48F6D9
:102A6000FF752A404FF6FF452A400D8820E0000000
:102A7000002C01400004004000080040000C004011
:102A8000001000400014004000340140004C0140A0
:102A9000005001400054014000180040001C00405C
:102AA0000020004000400140004401400048014037
:102AB0004FF6FF7606EA05252A434DF6FF752B40B3
:102AC0000D8906EA05352B434D8806EA05352B436B
:102AD000FA4DA84202D0FA4DA84208D14BF6FF7534
:102AE0002C408D894FF6FF7606EA85152C438480AD
:102AF0008283CD88A0F84050038470BD828B4FF252
:102B0000FF331A408283828B4FF6FF7303EA01235F
:102B10001A4382837047F0B50C4615460022002107
:102B20000026078C4EF6FF7C07EA0C070784828B91
:102B3000018C4FF6FF7707EA043640F6FF473A402C
:102B40004FF6FF7707EA05273A434FF6FF7707EA84
:102B500003373A43D94FB8420ED0D94FB8420BD0C1
:102B6000B0F1804F08D0D74FB84205D0D64FB84209
:102B700002D0D64FB84206D14DF6FF77394046F421
:102B80008057394305E047F6FF57394044F48057F2
:102B9000394382830184F0BD828B4FF6F3731A4070
:102BA0008283828B0A4382837047F0B50C461546B8
:102BB000002200210026078C4FF6FF6C07EA0C0765
:102BC0000784828B018C4FF6FF7707EA04264FF6C5
:102BD0000C773A404FF6FF7707EA03172F433A4343
:102BE000B64FB8420ED0B64FB8420BD0B0F1804FBE
:102BF00008D0B44FB84205D0B34FB84202D0B34F5B
:102C0000B84206D14FF6FF57394046F48077394332
:102C100005E04FF2FF57394044F48077394382830F
:102C20000184F0BD028B4FF2FF331A400283028B06
:102C30004FF6FF7303EA01231A4302837047F0B58E
:102C40000C461546002200210026078C4FF6EF7C2B
:102C500007EA0C070784028B018C4FF6FF7707EA1F
:102C6000041640F6FF473A404FF6FF7707EA03376E
:102C70003A434FF6FF7707EA05273A438F4FB842AA
:102C80000ED08F4FB8420BD0B0F1804F08D08D4F8F
:102C9000B84205D08C4FB84202D08C4FB84206D112
:102CA0004FF6DF77394046F01007394305E04FF61D
:102CB0005F77394044F01007394302830184F0BD47
:102CC000028B4FF6F3731A400283028B0A4302838E
:102CD0007047F0B50C46154600220021068C4FF6D1
:102CE000FE773E400684028B018C4FF60C76324014
:102CF0007E1C06EA03162E433243704EB0420ED0BD
:102D00006F4EB0420BD0B0F1804F08D06D4EB04244
:102D100005D06D4EB04202D06C4EB04206D14FF697
:102D2000FD76314044F00106314305E04FF6F5767B
:102D3000314044F00106314302830184F0BD70B597
:102D400005460C465D4885420ED05D4885420BD055
:102D5000B5F1804F08D05B48854205D05A4885427E
:102D600002D05A48854200D100E000BF208850B907
:102D70002389A28861882846FFF7ABFFE1882846AF
:102D8000FFF79EFF25E0208804280AD12389A28826
:102D900061882846FFF753FFE1882846FFF742FF86
:102DA00017E0208808280AD12389A288618828464C
:102DB000FFF7FBFEE1882846FFF7EEFE09E02389D6
:102DC000A28861882846FFF7A6FEE1882846FFF71B
:102DD00095FE70BD2DE9F04105460C460026012701
:102DE000608808B9022600E00026A088012801D1E9
:102DF000022700E001272088A0B92389A2886188E2
:102E00002846FFF766FFE1882846FFF759FF238928
:102E10003A4631462846FFF712FFE1882846FFF779
:102E200001FF13E02389A28861882846FFF707FF86
:102E3000E1882846FFF7F6FE23893A4631462846C0
:102E4000FFF747FFE1882846FFF73AFFBDE8F0812A
:102E50000A884B881A438B881A43CB881A430B89FC
:102E60001A434B891A438B891A43A0F844207047B0
:102E70004FF6FF71818000210180C1804180017285
:102E800070470021018041808180C18001814181A2
:102E90008181C181704700210180418001218180B1
:102EA0000021C18001817047002101804180818023
:102EB000C18001814181818170470000002C014067
:102EC000003401400004004000080040000C0040B5
:102ED00021B1028842F00102028004E002884FF62C
:102EE000FE731A400280704731B1B0F8442042F4BA
:102EF0000042A0F8442005E0B0F84420C2F30E02DE
:102F0000A0F8442070471AB183890B43838102E003
:102F100083898B43838170478182704741EA020332
:102F2000A0F8483070471AB183890B43838102E0CF
:102F300083898B438381704701894FF6F872114072
:102F4000018170470A46002101894FF68F731940AD
:102F500011430181704730B504460D46294620468D
:102F6000FFF7F0FF208940F00700208130BD2DE9F8
:102F7000F04104460D4616461F46602D06D13B46DD
:102F8000012231462046FFF75AFE05E03B4601226A
:102F900031462046FFF79DFE29462046FFF7D2FF27
:102FA000208940F007002081BDE8F08130B50C4653
:102FB00000210189C9B24FF6FF7505EA03251543C3
:102FC00025432943018130BD2DE9F04105460E46D8
:102FD00017469846002443463A4631462846FFF7AE
:102FE000E5FF2C894FF6F870044044F007044FF6D3
:102FF0008F70044044F070042C81BDE8F081F0B57E
:1030000004460D4616461F463B4632462946204694
:10301000FFF7CCFF208940F480402081F0BD01857E
:10302000828270470A46002101884FF68F7319404B
:10303000114301807047F0B50C4615461E4600212D
:10304000002200230189028B038C4FF6F877394068
:1030500021434FF6FC473A4040F201173A434FF6FE
:10306000DD773B404FF6FF7707EA06172F433B43D8
:10307000018102830384F0BD0A460021018B4FF6D3
:103080008F7319401143018370470A460021018B59
:1030900048F6FF7319404FF6FF7303EA0223194302
:1030A000018370470A460021818B4FF68F731940C8
:1030B0001143818370470A460021818B48F6FF73D4
:1030C00019404FF6FF7303EA0223194381837047C7
:1030D00021B1028842F08002028004E002884FF6AB
:1030E0007F731A400280704721B1828842F0040247
:1030F000828004E082884FF6FB731A40828070471A
:1031000021B1828842F00802828004E082884FF672
:10311000F7731A408280704721B1828842F0010221
:10312000828004E082884FF6FE731A4082807047E6
:103130000A460021018B4FF6F773194011430183B2
:1031400070470A460021018B4FF2FF7319404FF67A
:10315000FF7303EA02231943018370470A460021E3
:10316000818B4FF6F77319401143818370470A46EC
:103170000021818B4FF2FF7319404FF6FF7303EA72
:1031800002231943818370470A460021018B4FF6C1
:10319000FB7319401143018370470A460021018BDC
:1031A0004FF6FF3319404FF6FF7303EA022319432A
:1031B000018370470A460021818B4FF6FB7319404B
:1031C0001143818370470A460021818B4FF6FF33FC
:1031D00019404FF6FF7303EA0223194381837047B6
:1031E0000A460021018B4FF67F731940114301837A
:1031F00070470A460021018BC1F30E014FF6FF73A1
:1032000003EA02231943018370470A460021818B98
:103210004FF67F7319401143818370470A4600219E
:10322000818BC1F30E014FF6FF7303EA02231943AA
:10323000818370470A460021018C4FF6FD731940C7
:103240001143018470470A460021018C4FF6F77341
:1032500019401143018470470A460021018C4FF642
:10326000DF7319404FF6FF7303EA02131943018419
:1032700070470A460021018C4FF67F7319404FF6C4
:10328000FF7303EA02131943018470470A460021C1
:10329000018C4FF6FF5319404FF6FF7303EA0223E8
:1032A0001943018470470A460021018C4FF2FF73D5
:1032B00019404FF6FF7303EA022319430184704754
:1032C0000A460021018C4DF6FF7319404FF6FF733B
:1032D00003EA023319430184704730B50023012407
:1032E0008C40A3B2048C9C430484048C02FA01F544
:1032F000ADB22C43048430BD30B5002304248C408F
:10330000A3B2048C9C430484048C02FA01F5ADB290
:103310002C43048430BD70B50346002000241846B9
:10332000183001258D40ACB21D8CA5431D8409B118
:10333000082909D100EB6100056825F070050560DA
:103340000568154305600EE00D1FC5F34E052844C2
:10335000056825F4E045056005684FF6FF7606EA46
:1033600002263543056070BD21B1028842F0020299
:10337000028004E002884FF6FD731A400280704715
:1033800021B1028842F00402028004E002884FF674
:10339000FB731A400280704721B1828842F080029C
:1033A000828004E082884FF67F731A4082807047E3
:1033B00002884FF6F7731A40028002880A4302809F
:1033C000704782884FF68F731A40828082880A4342
:1033D0008280704702894FF6F8731A400281028991
:1033E0000A430281704702894FF67F731A400281B7
:1033F00002890A4302817047818470478185704742
:10340000818670470187704781877047A0F8401018
:10341000704702884FF6FF431A40028002880A4331
:10342000028070470146888E70470146088F7047BA
:103430000146888F70470146B1F840007047014649
:10344000888C70470146088D704702460020138A19
:103450000B4201D0012000E000207047CA430282E5
:10346000704730B50246002000230024158A05EA83
:103470000103958905EA010413B10CB1012000E0B4
:10348000002030BDCA4302827047000010B50446D8
:10349000FB48844209D101218803FFF798F80021F5
:1034A0004FF48040FFF793F832E0F648844209D1A8
:1034B00001214804FFF798F800214FF40030FFF78E
:1034C00093F825E0F048844209D101218804FFF7F0
:1034D0008BF800214FF48020FFF786F818E0EB48C6
:1034E000844209D10121C804FFF77EF800214FF47E
:1034F0000020FFF779F80BE0E548844208D101216C
:103500000805FFF771F800214FF48010FFF76CF801
:1035100010BD2DE9F04786B005460E460024A246B0
:1035200000BFA1460027B08900B100BF2F462C8AFA
:103530004CF6FF700440F08804432C82AC894EF6B0
:10354000F3100440B088318908437189084304436B
:10355000AC81AC8A4FF6FF400440B0890443AC8292
:1035600001A8FEF7AEFFC648874202D1DDF810A0E1
:1035700001E0DDF80CA0A88910F4004F08D00AEB98
:10358000CA0000EB0A1031684900B0FBF1F807E00F
:103590000AEBCA0000EB0A1031688900B0FBF1F8B1
:1035A0006420B8FBF0F004012009642101FB1089BC
:1035B000A88910F4004F08D0322000EBC900B0FBFE
:1035C000F1F000F00700044308E0322000EB09109E
:1035D0006421B0FBF1F000F00F0004432C8106B031
:1035E000BDE8F0874FF41651016000218180C18051
:1035F00001810C21418100218181704710B5024673
:103600000020108A4FF2FF0318400B884C88234398
:103610008C882343CC8823431843108210BD00219B
:10362000018041808180C180704721B1828942F44C
:103630000052828104E082894DF6FF731A40828134
:103640007047F0B503460024002600250020A1F5B0
:1036500010676A3F00D100BF1846C1F3421401F061
:103660001F06012707FA06F5012C01D10C3004E0F2
:10367000022C01D1103000E014301AB107682F433A
:10368000076002E00768AF430760F0BD1AB1838AA4
:103690000B43838202E0838A8B4383827047028AD2
:1036A0004FF6F0731A400282028A0A430282704780
:1036B00082894FF2FF731A40828182890A43828194
:1036C000704721B1828942F00202828104E082893E
:1036D0004FF6FD731A4082817047028A4FF6DF73FE
:1036E0001A400282028A0A430282704721B1028A8A
:1036F00042F48042028204E0028A4BF6FF731A40D1
:1037000002827047C1F308028280704701468888B0
:10371000C0F308007047818941F001018181704741
:10372000028BD2B20283028B42EA012202837047EB
:10373000028B02F47F420283028B0A4302837047AA
:1037400021B1828A42F02002828204E0828A4FF60E
:10375000DF731A408282704721B1828A42F01002E0
:10376000828204E0828A4FF6EF731A4082827047A9
:1037700021B1828A42F00802828204E0828A4FF6F6
:10378000F7731A408282704721B1828942F4004265
:10379000828103E08289C2F30E028281704721B1E7
:1037A000828A42F40062828204E0828A4FF2FF73CE
:1037B0001A4082827047828A4FF6FB731A408282D7
:1037C000828A0A438282704721B1828A42F00202D1
:1037D000828204E0828A4FF6FD731A40828270472B
:1037E00002460020B1F5007F00D100BF13880B42D4
:1037F00001D0012000E00020704701F40072B2F512
:10380000007F00D100BFCA430280704770B50246F6
:103810000024002300250020A1F510666A3E00D197
:1038200000BFC1F3421501F01F03012606FA03F39E
:10383000012D02D19689334006E0022D02D1168A6D
:10384000334001E0968A33400C12012606FA04F454
:103850001688344013B10CB1012000E0002070BD87
:1038600010B500220023A1F510646A3C00D100BF0E
:103870000A1201249440A3B2DC43048010BD00006E
:10388000003801400044004000480040004C004027
:10389000005000400CB50020019000906248006884
:1038A00040F480306049086000BF5F48006800F461
:1038B000003000900198401C0190009818B90198C0
:1038C000B0F5A06FF1D15848006810F4003F02D065
:1038D0000120009001E0002000900098012830D1E4
:1038E000514840685049486008464068486008466A
:1038F000406848600846406820F47C1048600846EC
:10390000406840F4981048600846006840F08070B5
:10391000086000BF4448006810F0007FFAD04248B9
:10392000406820F00300404948600846406840F085
:103930000200486000BF3C48406800F00C000828C6
:10394000F9D10CBD10B5FFF7A5FF10BD10B5364875
:10395000006840F001003449086008464068334977
:1039600008403149486008460068314908402E49FE
:1039700008600846006820F4802008600846406817
:1039800020F4FE0048604FF41F0088600020C862E9
:10399000FFF7D8FF4FF000602649086010BD30B532
:1039A00000210020002200231F4C646804F00C0159
:1039B00021B1042906D0082925D107E01E4C1F4D4E
:1039C0002C6024E01C4C1D4D2C6020E0164C6468DB
:1039D00004F47010144C646804F48032022404EB84
:1039E000904022B9164C4443144D2C600AE00E4C12
:1039F000E46A04F00F04631C0F4CB4FBF3F444437B
:103A00000E4D2C6003E00C4C0C4D2C6000BF00BF31
:103A1000054C6468C4F303140A4D295D074C2468FF
:103A2000CC40064D2C6030BD001002400000FFF875
:103A3000FFFFF6FE08ED00E000127A00880000208B
:103A400000093D008C000020D2B201E000F8012BFB
:103A5000491EFBD270470022F6E710B513460A460E
:103A600004461946FFF7F0FF204610BD2DE9F05F30
:103A70000546002092469B468846064681464024DD
:103A80001BE0284641464746224600F042F853468E
:103A90005A46C01A914110D311461846224600F0EA
:103AA00029F82D1A67EB01084F4622460120002114
:103AB00000F020F817EB00094E41201EA4F101048C
:103AC000DFDC484631462A464346BDE8F09F000009
:103AD000064C074D06E0E06840F0010394E807005B
:103AE00098471034AC42F6D3FCF704FB6C43000853
:103AF0008C430008202A04DB203A00FA02F100205F
:103B000070479140C2F1200320FA03F3194390401B
:103B10007047202A04DB203A21FA02F00021704786
:103B200021FA02F3D040C2F1200291400843194625
:103B3000704700000FB4054B10B503A9044A029862
:103B400000F018F810BC5DF814FB00008D030008AD
:103B50009C00002002E008C8121F08C1002AFAD108
:103B600070477047002001E001C1121F002AFBD1FD
:103B7000704700002DE9FF4F8DB09B460F4604466D
:103B8000002638E1252801D00F9959E00025641C52
:103B90009D49A84601222378203B02FA03F00842FF
:103BA00002D00543641CF6E720782E2817D114F8BC
:103BB000010F45F004052A280ED06FF02F0220785F
:103BC000A0F1300109290AD808EB880102EB410174
:103BD00000EB0108641CF2E757F8048B641C2078A2
:103BE0006C280DD004DC4C2812D06A2811D104E0D6
:103BF00074280DD07A280CD10AE045F4001507E0AE
:103C0000617845F48015814202D1641C05F5801568
:103C1000641C2278692A46D008DC002A70D0582A11
:103C200069D0632A11D0642A08D13CE0702A69D097
:103C3000732A14D0752A5CD0782A5CD00F9910466C
:103C40005A46904706F10106D4E017F8040B8DF8A8
:103C5000000000208DF80100E946012003E057F83C
:103C6000049B4FF0FF3069074FF0000501D40AE0D4
:103C70006D1C45450DDA8542FADB19F8051000295F
:103C8000F6D106E06D1C8542FCDB19F80510002911
:103C9000F8D12E4404E019F8010B5A460F999047C9
:103CA0006D1EF8D2A6E00A200021CDE90801C5F377
:103CB000025002280BD001CFC11700290EDA4FF0B5
:103CC000000CD0EB0C006CEB01012D2309E007F197
:103CD000070727F00707F7E80201EEE72B0504D5F1
:103CE0002B238DF82830012330E0EB072ED0202342
:103CF000F7E70A2000E010200021CDE9080109E0E3
:103D00007DE0FFE71020002145F00405CDE9080122
:103D10004FF00808C5F3025002281BD001CF002144
:103D20004FF0000A2B0712D5702A19D0DDE908C31D
:103D30008CF0100C5CEA030C09D150EA010306D0A8
:103D400030238DF828308DF8292002239A46582AEE
:103D500010D00AE0FF1D27F00707F7E80201DFE7B0
:103D600040228DF828204FF0010A28A20DF12009E9
:103D70000B9209E02AA2F9E7DDE90823FFF776FEB6
:103D80000B9B9B5C09F8013D50EA0102F4D1ADEBBD
:103D9000090000F120000890680701D44FF00108E5
:103DA0000899884502DDA8EB010000E0002080466C
:103DB000002506E00AA85A46405D0F999047761CF8
:103DC0006D1C5545F6DB04E030205A460F999047AC
:103DD000761CB8F10001A8F10108F5DC05E019F83E
:103DE000010B5A460F999047761C0899481E089077
:103DF0000029F4DC641C207800287FF4C3AE11B0E5
:103E00003046BDE8F08F0000092801003031323320
:103E10003435363738396162636465660000000006
:103E200030313233343536373839414243444546F0
:103E3000000000003F065B4F666D7D077F6F777C5B
:103E4000395E79713800407673503E545C80BF868D
:103E5000DBCFE6EDFD87FFEFF7FCB9DEF9F10102FC
:103E60000408102040800000000000000000000056
:103E70001918000801100F02000000003D1800088A
:103E8000021601030000000047180008031A02048C
:103E90000000000051180008041E03050000000087
:103EA0005B180008052004060000000065180008E3
:103EB00006210507000000006F1800080722060809
:103EC0000000000079180008082A07090000000017
:103ED00083180008092E080A000000008D18000849
:103EE0000A30090B00000000971800080B0B0A0CA1
:103EF00000000000A11800080C0C0B0D00000000D1
:103F0000AB1800080D0D0C0E00000000B5180008DD
:103F10000E0E0D0F00000000BF1800080F0F0E015D
:103F200000000000C9180008101110100100000066
:103F3000D318000811121111010000002B190008FC
:103F40001213121201000000831900081314131336
:103F500001000000DD190008141514140100000010
:103F6000371A000815101515010000008F1A0008F7
:103F70001616191702000000E91A0008171716187C
:103F800002000000F31A00081818171902000000B8
:103F9000FD1A00081919181602000000071B000876
:103FA0001A1A1D1B03000000111B00081B1B1A1C02
:103FB000030000001B1B00081C1C1B1D030000004D
:103FC000251B00081D1D1C1A030000002F1B0008E4
:103FD0001E1E1F1F04000000391B00081F1F1E1E8D
:103FE00004000000431B00082020202005000000E2
:103FF0004D1B000821212121060000009D1B000807
:104000002222292307000000ED1B0008232322247D
:1040100007000000F71B00082424232507000000E8
:10402000191C00082525242607000000231C000871
:1040300026262527070000002D1C000827272628F4
:1040400007000000371C0008282827290700000067
:10405000411C000829292822070000004B1C0008E9
:104060002A2A2D2B08000000551C00082B2B2A2C77
:10407000080000005F1C00082C2C2B2D08000000FD
:10408000691C00082D2D2C2A08000000731C000854
:104090002E2E2F2F090000007D1C00082F2F2E2E02
:1040A00009000000871C0008303031310A00000090
:1040B000911C0008313130300A0000009B1C0008C0
:1040C000323232320B000000A51C00083333333388
:1040D0000C000000A71C0008343434340D0000002C
:1040E000F11C0008353535350E0000003B1D000879
:1040F000363637370F0000003D1D0008373736369B
:104100000F000000471D000838383838160000003E
:104110003D18000839393939160000003D180008EB
:104120003A3A3A3A160000003D1800083B3B3B3B48
:10413000160000003D1800083C3C3C3C1700000005
:104140003D1800083D3D3D3D170000003D180008AA
:104150003E3E3E3E170000003D1800083F3F3F3FF7
:10416000170000003D1800084040404018000000C3
:104170003D18000841414141180000003D18000869
:1041800042424242180000003D18000843434343A6
:10419000180000003D180008444444441900000081
:1041A0003D18000845454545190000003D18000828
:1041B00046464646190000003D1800084747474755
:1041C000190000003D180008484848481A0000003F
:1041D0003D180008494949491A0000003D180008E7
:1041E0004A4A4A4A1A0000003D1800084B4B4B4B04
:1041F0001A0000003D1800084C4C4C4C1B000000FD
:104200003D1800084D4D4D4D1B0000003D180008A5
:104210004E4E4E4E1B0000003D1800084F4F4F4FB2
:104220001B0000003D180008505050501C000000BA
:104230003D180008515151511C0000003D18000864
:10424000525252521C0000003D1800085353535361
:104250001C0000003D180008545454541D00000078
:104260003D180008555555551D0000003D18000823
:10427000565656561D0000003D1800085757575710
:104280001D0000003D180008585858581E00000036
:104290003D180008595959591F0000003D180008E1
:1042A0005A5A5A5A220000003D1800085B5B5B5BBB
:1042B000230000003D1800085C5C5C5C24000000EA
:1042C0003D1800085D5D5D5D250000003D1800089B
:1042D0005E5E5E5E260000003D1800085F5F5F5F67
:1042E000270000003D1800086060606028000000A2
:1042F0003D18000861616161290000003D18000857
:10430000626262622A0000003D1800086363636312
:104310002B0000003D180008646464642C00000059
:104320003D180008656565652D0000003D18000812
:10433000666666662E0000003D18000867676767BE
:104340002F0000003D18000868686868360000000B
:104350003D18000869696969370000003D180008C8
:104360006A6A6A6A6A0000003D1800088C43000807
:1043700000000020A0000000543B00082C4400086E
:10438000A000002030040000643B00080000000092
:10439000000000000000000000000000000000001D
:1043A000000000000000000000000000000000000D
:1043B0000000001410011F0E0C1E0700000000007A
:1043C00000000000000000000000000000000000ED
:1043D00000000000000000010000000001000000DB
:1043E00000010000000001000000000100000000CA
:1043F00001000000000100000000010000000000BA
:10440000000102030401020304060708090204066E
:104410000800000000366E010000000000000000EF
:0C44200001020304060708090000000068
:04000005080000ED02
:00000001FF
