:020000040800F2
:100000007804002001010008B1010008B3010008D4
:10001000B7010008BB010008BF0100080000000094
:10002000000000000000000000000000C501000802
:10003000C301000800000000C7010008C901000852
:100040001B0100081B0100081B0100081B01000820
:100050001B0100081B0100081B0100081B01000810
:100060001B0100081B0100081B0100081B01000800
:100070001B0100081B0100081B0100081B010008F0
:100080001B0100081B0100081B0100081B010008E0
:100090001B0100081B0100081B0100081B010008D0
:1000A0001B0100081B0100081B0100081B010008C0
:1000B0001B0100081B0100081B0100081B010008B0
:1000C0001B0100081B0100081B0100081B010008A0
:1000D0001B010008EB030008150300081B010008C2
:1000E000010400081B0100081B010008DFF80CD008
:1000F00002F01AFB004800472501000878040020A0
:100100000648804706480047FEE7FEE7FEE7FEE7B1
:10011000FEE7FEE7FEE7FEE7FEE7FEE70126000852
:10012000ED00000800244FF4A06000F071FC00F026
:100130004DF800F087F800F0C6F800F0F9F800F08C
:1001400036F900F0D9F900F044FA00F0F7FB0CA002
:1001500002F0FCFA13E00E480078012805D10DA04A
:1001600002F0F4FA00200A49087000F0DAFA0446B6
:10017000FF2C04D0214609A002F0E8FAFF24EAE7A8
:1001800048656C6C6F2073746D33322E2000000054
:100190001900002052465F49440000004B65795F1A
:1001A00076616C756520697320256420200A000043
:1001B000704700BFFEE700BFFEE700BFFEE700BFDD
:1001C000FEE77047704770477047000010B500F0B9
:1001D000C7FE012000F04BFF00BF212000F005FF0B
:1001E0000028FAD04FF48011002000F043FF0020D7
:1001F00000F069FF002000F06FFF4FF4806000F016
:1002000074FF012000F042FF00BF392000F0EDFE36
:100210000028FAD0022000F048FF00BF00F04EFF97
:100220000828FBD10121084601F011F801210448FA
:1002300000F019FE0121C80300F015FE10BD0000FA
:100240000002300000B585B00121042000F0FFFF5E
:100250000121480401F008F80420ADF8100018202E
:100260008DF8130003208DF8120004A92D4800F02A
:100270002BFD4FF48060ADF8100004208DF81300C2
:1002800004A9284800F020FD4FF4165000900020EB
:10029000ADF80400ADF80600ADF80800ADF80C00AC
:1002A0000C20ADF80A0069461F4801F08CFF0122BE
:1002B00040F225511C4802F01EF801211A4802F0B4
:1002C0000EF805B000BD08B526208DF8000001200D
:1002D0008DF8010000208DF8020001208DF8030048
:1002E000684600F09AFB08BD70B504460D46E1B2C1
:1002F0000D4802F061F800BF0B48008810F0800F35
:10030000FAD0204670BD10B50446214607A002F081
:100310001DFA10BD10B540F22551034802F0D0F887
:1003200010BD0000000801400044004025630000AB
:1003300000B585B0012144F2040000F088FF4FF4BD
:100340000070ADF8100018208DF8130003208DF810
:10035000120004A9284800F0B7FC4FF48060ADF803
:10036000100004208DF8130004A9234800F0ACFC11
:100370004FF4165000900020ADF80400ADF80600D0
:10038000ADF80800ADF80C000C20ADF80A00694685
:100390001A4801F018FF012240F22551174801F0D8
:1003A000AAFF0121154801F09AFF05B000BD08B56C
:1003B00025208DF8000001208DF8010000208DF827
:1003C000020001208DF80300684600F026FB08BDFE
:1003D00010B504462146094801F0EEFF00BF07486A
:1003E000008810F0800FFAD010BD10B540F22551F2
:1003F000024802F065F810BD0008014000380140D5
:1004000070B500256248006810F4004F00D0012547
:100410004FF08040848C00204FF080418884002D74
:1004200038D0B4F5967F50DD5A48007818284CDD56
:10043000594800684008584908600846006820F09C
:100440007F40086008460068544908421CD0524862
:1004500000685349096888420CD152480078401C12
:10046000504908704C4800684F49086001204F49C6
:10047000087009E000204B49087047480068484967
:10048000086001204949087000204349086041493B
:1004900008701AE0152C01DBD22C05DD00203D4947
:1004A00008703D49086010E03B48006840003A4948
:1004B0000860552C04DD0846006840F00100086023
:1004C00034480078401C334908704FF4004000F075
:1004D00092FB70BD08B50121042000F0B8FE4FF476
:1004E0000040ADF8000048208DF803006946284818
:1004F000083800F0E9FB08BD10B586B00024FFF70E
:10050000E9FF0121084600F0A2FE0F21002000F0C3
:10051000EFFC4FF40040049000208DF814001020F0
:100520008DF8150001208DF8160004A800F0ECFAF3
:1005300028208DF80C0000208DF80D008DF80E009D
:1005400001208DF80F0003A800F067FA012108468A
:1005500000F08AFE164800681649B0FBF1F0401E14
:1005600084B24FF6FF70ADF80400ADF800400020F3
:10057000ADF80600ADF8020069464FF0804000F08B
:10058000A5FF0121880701F0FDFA06B010BD0000AB
:10059000080801401800002010000020F0FFFF00B4
:1005A000140000201A000020040000201900002080
:1005B00060000020A086010005E0022100BF4A1E65
:1005C00092B21100FBD10200A0F1010398B2F4D164
:1005D000704708B50121082000F039FE10208DF881
:1005E000030003208DF802004FF47870ADF800008E
:1005F0006946FE4800F068FB48208DF80300102093
:10060000ADF800006946F94800F05EFB08BD30B562
:1006100004460020F6490860054618E00020F54928
:10062000086014F0010F04D00120A1F1040108605A
:1006300002E00020F04908604FF00500FFF7BCFF22
:100640000120EC4908604FEA640405F10105082D1A
:10065000E4D30020E7490860E849C1F8A00130BDB3
:1006600030B504460020E6490860054617E0002042
:10067000E049086014F0010F03D00120DE49086052
:1006800002E00020DC4908604FF00500FFF794FF0E
:100690000120D84908604FEA640405F10105082DDE
:1006A000E5D30020D3490860D449C1F8A00130BD8A
:1006B00030B504460020D3490860054617E0002005
:1006C000CC49086014F0010F03D00120CA4908602A
:1006D00002E00020C84908604FF00500FFF76CFFFA
:1006E0000120C44908604FEA640405F10105082DA2
:1006F000E5D30020BF490860C049C1F8A00130BD62
:1007000010B504460120BA4908604FF00500FFF714
:1007100053FF0020B949C1F894012046FFF777FF45
:1007200010BDF8B5FF26002000904220FFF7E8FF3B
:100730000120B54908604FF00004CEE000251BE021
:100740000020AC4908601DF804004FEA60000DF875
:1007500004004FF00100A949C1F8A401AA480068AB
:1007600028B11DF8040040F080000DF804000520B9
:10077000FFF722FF681CC5B2082DE1DB0520FFF75B
:100780001BFF9DF8000048B99DF8010030B99DF8A5
:10079000020018B99DF8030000286ED09DF80000F3
:1007A000102818D008DC01280DD002280DD004280C
:1007B0000DD0082817D10CE020280ED040280ED0EC
:1007C000802810D10DE019260EE011260CE0092634
:1007D0000AE0012608E01A2606E0122604E00A26AE
:1007E00002E0022600E000BF00BF9DF801001028D3
:1007F00018D008DC01280DD002280DD004280DD017
:10080000082817D10CE020280ED040280ED08028D0
:1008100010D10DE01B260EE013260CE00B260AE09B
:10082000032608E01C2606E0142604E00C2602E05D
:10083000042600E000BF00BF9DF80200102818D079
:1008400008DC01280DD002280DD004280DD008287E
:1008500018D10CE020280ED040280FD0802811D1CC
:100860000EE01D260FE015260DE00D260BE00526F7
:1008700009E01E2607E0162605E02CE00E2602E021
:10088000062600E000BF00BF9DF80300102818D026
:1008900008DC01280DD002280DD004280DD008282E
:1008A00017D10CE020280ED040280ED0802810D17F
:1008B0000DE01F260EE017260CE00F260AE00726A3
:1008C00008E0202606E0182604E0102602E00826AC
:1008D00000E000BF00BF601CC4B2042CFFF62EAFC6
:1008E0000020444908604549C1F810014FF001005B
:1008F0003F4908603046F8BD10B504460120404924
:1009000008604FF00500FFF757FE00203B49C1F893
:1009100098012046FFF7A4FE10BD10B50446012043
:10092000384908604FF00500FFF746FE00203349C4
:10093000C1F89C012046FFF7BBFE10BD10B540205A
:10094000FFF7DEFEC020FFF7DBFE00240AE02F49A0
:10095000085DFFF75CFE2D490831085DFFF757FE83
:10096000601CC4B2082CF2DB8C20FFF7C9FE01200A
:100970001F4908604FF04000FFF7BEFFC020FFF79F
:10098000BBFF00240BE021491031085DFFF768FE32
:100990001E491831085DFFF763FE601CC4B2082CC5
:1009A000F1DB8C20FFF7A8FF0120154908604FF00C
:1009B0004000FFF7B2FFC020FFF7AFFF00240BE0BD
:1009C00012492031085DFFF773FE10492831085D98
:1009D000FFF76EFE601CC4B2082CF1DB8C20FFF721
:1009E0009CFF01200749086010BD0000000C014079
:1009F00094812142A4812142A08121420080214290
:100A0000988121429C812142108121421B000020BB
:100A100031490143314A1160704770B5002100230C
:100A20000F22C4780CB32D4C246804F4E064C4F5A0
:100A3000E064210AC1F10403CA40447804FA03F1D6
:100A40008478144021430901254C0678A155047887
:100A500004F01F050124AC4005786D114FF0E0262D
:100A600006EB8505C5F8004109E0047804F01F0590
:100A70000124AC401B4D0678761145F8264070BD28
:100A8000194A0A400243154B1B1F1A60704739B1BF
:100A9000124A121D12680243104B1B1D1A6006E019
:100AA0000E4A121D126882430C4B1B1D1A607047C0
:100AB000042808D14FF0E021096941F004014FF00A
:100AC000E022116107E04FF0E021096921F0040103
:100AD0004FF0E022116170470000FA050CED00E0D4
:100AE00000E400E080E100E080FFFF1F00204449B7
:100AF0000860091D0860091D0860091D086041485B
:100B00003F4914310860704700213D498279002A2D
:100B10003AD00A46126803689A430B461A600A1DC7
:100B2000126803689A430B1D1A60027911440A681F
:100B300003681A430A60324A0832126803689A430B
:100B40002F4B08331A601A1D126803689A432C4B06
:100B50000C331A604279102A0ED11A1F12680368EA
:100B60001A43274B08331A601A1D126803681A4388
:100B7000234B0C331A600DE02149427911440A6875
:100B800003681A430A6005E0027911440A680368A1
:100B90009A430A6070470021016001710C21417184
:100BA0000021817170471649103109680143144AC8
:100BB00010321160704701460020114A1432126849
:100BC0000A4201D0012000E0002070470C49143196
:100BD00008607047014600200022094B1B6803EAA9
:100BE0000102074B14331B680B4202D00AB10120EB
:100BF00000E000207047024914310860704700008F
:100C000000040140FFFF0F0010B50446CA488442AB
:100C100008D10121042000F034FB0021042000F061
:100C200030FB46E0C548844208D10121082000F08D
:100C300028FB0021082000F024FB3AE0C048844251
:100C400008D10121102000F01CFB0021102000F031
:100C500018FB2EE0BB48844208D10121202000F07F
:100C600010FB0021202000F00CFB22E0B64884425B
:100C700008D10121402000F004FB0021402000F0B9
:100C800000FB16E0B148844208D10121802000F029
:100C9000F8FA0021802000F0F4FA0AE0AC4884421F
:100CA00007D10121801500F0ECFA0021A01500F019
:100CB000E8FA10BD10B50121084600F0E2FA002163
:100CC000012000F0DEFA10BD2DE9F04102460025BA
:100CD0000026002000230024002791F803C00CF018
:100CE0000F0591F803C01CF0100F03D091F802C05B
:100CF0004CEA050591F800C0BCF1000F31D0146832
:100D000000202BE04FF0010C0CFA00F3B1F800C00A
:100D10000CEA03069E4220D183004FF00F0C0CFA20
:100D200003F7BC4305FA03FC4CEA040491F803C042
:100D3000BCF1280F06D14FF0010C0CFA00FCC2F8F0
:100D400014C00AE091F803C0BCF1480F05D14FF080
:100D5000010C0CFA00FCC2F810C0401C0828D1D3CA
:100D60001460B1F800C0BCF1FF0F34DD54680020FE
:100D70002EE000F1080C4FF0010808FA0CF3B1F86E
:100D800000C00CEA03069E4221D183004FF00F0CF5
:100D90000CFA03F7BC4305FA03FC4CEA040491F88F
:100DA00003C0BCF1280F05D100F1080C08FA0CF8BB
:100DB000C2F8148091F803C0BCF1480F07D100F1CC
:100DC000080C4FF0010808FA0CF8C2F81080401C1B
:100DD0000828CED35460BDE8F0814FF6FF71018042
:100DE000022181700421C17070470246002093687F
:100DF0000B4201D0012000E00020704701468868C6
:100E000080B2704702460020D3680B4201D0012017
:100E100000E0002070470146C86880B27047016159
:100E20007047416170470AB1016100E0416170475C
:100E3000C16070474FF480320A43826181618261F0
:100E400082698269704702460020424B18684FF65B
:100E50008073184040EA021008433E4B1860704708
:100E60003D49C8617047F0B50A46002300240021BF
:100E7000002500F00046B6F1004F02D1354EF16971
:100E800001E0344E7168C0F3034583B200F44016AC
:100E9000B6F5401F08D121F070612E4E766826F01D
:100EA00070662C4F7E6012E000F48016B6F5801F4D
:100EB00006D1032606FA05F4A14341F0706106E06D
:100EC000460D360103FA06F6B14341F0706122B1D6
:100ED000460D360103FA06F6314300F00046B6F13E
:100EE000004F02D11B4EF16101E01A4E7160F0BD5E
:100EF00030B500228B071C0F0F2303FA04F2154BA9
:100F000008338C1053F824309343124C08348D105E
:100F100044F8253023468C1053F824308C07240FD6
:100F200000FA04F423430B4C08348D1044F82530A8
:100F300030BD0A490860704700080140000C0140BC
:100F4000001001400014014000180140001C014045
:100F5000002001400000014000002042DC0020424F
:100F6000E448006840F00100E24908600846406833
:100F7000E1490840DF49486008460068DF49084009
:100F8000DC4908600846006820F4802008600846B4
:100F9000406820F4FE0048604FF41F008860002085
:100FA000C8627047D349096821F48031D14A116081
:100FB0001146096821F480211160B0F5803F03D00B
:100FC000B0F5802F0ED106E0CA49096841F480319E
:100FD000C84A116007E0C749096841F4A021C54A21
:100FE000116000E000BF00BF704710B5014600224D
:100FF000002300204A11012A02D1BE4C236806E0DA
:10100000022A02D1BB4C236A01E0BA4C636A01F0A8
:101010001F02012494401C4201D0012000E0002066
:1010200010BD38B5002000900024002500BF3120FD
:10103000FFF7DBFF05460098401C00900098B0F5D4
:10104000A06F01D0002DF2D03120FFF7CEFF08B104
:10105000012400E00024204638BD01460020A54AB6
:10106000106820F0F80040EAC10010607047A44901
:1010700008607047024600209E4B586820F47410A8
:1010800042EA010318439B4B586070479C4908662D
:10109000704702460020974BD86A9A4B184042EAA4
:1010A00001031843934BD862704701460020914AD0
:1010B000506820F003000843506070478D48406836
:1010C00000F00C007047014600208A4A506820F06A
:1010D000F00008435060704701460020854A506880
:1010E00020F4E06008435060704701460020814AC8
:1010F000506820F4605040EAC1005060704729B148
:101100007C4A527A02437B4B5A7204E0794A527A03
:101110008243784B5A7270477B490860704701469A
:101120000020744A506820F44040084350607047E3
:101130000021764A11706F4A82F82010012802D0EF
:10114000042808D103E00121704A117004E0052150
:101150006E4A117000E000BF00BF70476C49086024
:1011600070476449096A0143624A116270476849DD
:1011700044390860704770B5002100230024002224
:1011800000255C4E766806F00C0121B1042905D0DB
:10119000082921D105E05F4E066020E05D4E066023
:1011A0001DE0544E766806F47013524E766806F4CD
:1011B0008034022606EB93431CB9574E5E4306600B
:1011C00009E04C4EF66A06F00F06751C514EB6FB50
:1011D000F5F65E43066002E04E4E066000BF00BFBB
:1011E000444E766806F0F00109094C4E725C0668C0
:1011F000D64046603F4E766806F4E061090A474EE5
:10120000725C4668D64086603A4E766806F4605155
:10121000C90A424E725C4668D640C660354E766852
:1012200006F44041890B3E4E725CC668B6FBF2F68E
:10123000066170BD29B12F4A526902432D4B5A6194
:1012400004E02C4A526982432A4B5A61704729B103
:10125000284A92690243274B9A6104E0254A926921
:101260008243244B9A61704729B1224AD2690243D2
:10127000204BDA6104E01F4AD26982431D4BDA61D8
:10128000704729B11B4AD26802431A4BDA6004E066
:10129000184AD2688243174BDA60704729B1154A61
:1012A00012690243134B1A6104E0124A1269824325
:1012B000104B1A6170471649403908607047104951
:1012C000C86470470B49C87170470A48406A40F0CB
:1012D000807008494862704701460020054A9268BC
:1012E0000A4201D0012000E00020704701498872C5
:1012F00070470000001002400000FFF8FFFFF6FEFC
:1013000000004242F0FFFEFFD8004242201002409F
:101310008004424200127A0000093D004B00002088
:101320005B00002010B50446FE48844208D101212C
:10133000C014FFF7A6FF0021E014FFF7A2FFC4E0EE
:10134000B4F1804F08D101210846FFF7A7FF002123
:101350000120FFF7A3FFB8E0F348844208D1012140
:101360000220FFF79BFF00210220FFF797FFACE070
:10137000EE48844208D101210420FFF78FFF0021AD
:101380000420FFF78BFFA0E0E948844208D1012147
:101390000820FFF783FF00210820FFF77FFF94E07C
:1013A000E448844208D101211020FFF777FF002193
:1013B0001020FFF773FF88E0DF48844208D1012145
:1013C0002020FFF76BFF00212020FFF767FF7CE064
:1013D000DA48844208D101214014FFF752FF00216E
:1013E0006014FFF74EFF70E0D548844209D1012117
:1013F000C804FFF746FF00214FF40020FFF741FF2C
:1014000063E0D048844209D101210805FFF739FF84
:1014100000214FF48010FFF734FF56E0CA488442A1
:1014200009D101214805FFF72CFF00214FF40010DE
:10143000FFF727FF49E0C548844208D10121402039
:10144000FFF72CFF00214020FFF728FF3DE0C048B8
:10145000844208D101218020FFF720FF0021802055
:10146000FFF71CFF31E0BB48844208D10121801501
:10147000FFF714FF0021A015FFF710FF25E0B64885
:10148000844209D101210804FFF7FBFE00214FF43B
:101490008030FFF7F6FE18E0B048844209D1012100
:1014A0004804FFF7EEFE00214FF40030FFF7E9FE9D
:1014B0000BE0AB48844208D101218804FFF7E1FE2C
:1014C00000214FF48020FFF7DCFE10BD00220288CF
:1014D000944B98420ED0994B98420BD0B0F1804F6C
:1014E00008D0914B984205D0904B984202D0904B37
:1014F000984204D14FF68F731A404B881A438D4B94
:10150000984207D08C4B984204D04FF6FF431A40C4
:10151000CB881A4302808B8883850B880385814B97
:1015200098420BD0854B984208D08B4B984205D0FF
:101530008A4B984202D08A4B984201D10B7A03869B
:1015400001238382704770B5002400220023058C9C
:101550004FF6FE7635400584028C8388048B4FF667
:101560008F752C40B51E2C400D882C43751E2A40CB
:101570000D892A434D882A436A4DA8420BD06F4DEE
:10158000A84208D0744DA84205D0744DA84202D09C
:10159000734DA84213D14FF6F7752A404D892A435F
:1015A0004FF6FB752A408D882A434FF6FF652B4086
:1015B0004FF6FF552B408D892B43CD892B438380DC
:1015C0000483CD888586028470BD70B50024002216
:1015D0000023058C4FF6EF7635400584028C838816
:1015E000048B48F6FF752C404FF6FF452C400D88C4
:1015F0004FF6FF7606EA05252C434FF6DF752A40A5
:101600000D8906EA05152A434D8806EA05152A4381
:10161000444DA84202D0494DA8421DD14FF67F75D6
:101620002A404D894FF6FF7606EA05152A434FF604
:10163000BF752A408D8806EA05152A434FF6FF3507
:101640002B404FF2FF752B408D8906EA85052B4311
:10165000CD8906EA85052B4383800483CD880587E1
:10166000028470BD70B5002400220023058C4FF663
:10167000FF6635400584028C8388848B4FF68F7516
:101680002C404FF6FC752C400D882C434FF6FF552F
:101690002A400D894FF6FF7606EA05252A434D8834
:1016A00006EA05252A431F4DA84202D0234DA84231
:1016B0001DD14FF2FF752A404D894FF6FF7606EA9D
:1016C00005252A434FF6FF352A408D8806EA052571
:1016D0002A434EF6FF752B404DF6FF752B408D8942
:1016E00006EA05152B43CD8906EA05152B438380B1
:1016F0008483CD888587028470BD70B50022002365
:101700000024058C4EF6FF7635400584038C8488D2
:10171000828B48F6FF752A404FF6FF452A400D8818
:1017200020E00000002C01400004004000080040C0
:10173000000C004000100040001400400034014044
:10174000004C01400050014000540140001800408E
:10175000001C0040002000400040014000440140C7
:10176000004801404FF6FF7606EA05252A434DF66C
:10177000FF752B400D8906EA05352B434D8806EA97
:1017800005352B43FA4DA84202D0FA4DA84208D1A4
:101790004BF6FF752C408D894FF6FF7606EA8515CE
:1017A0002C4384808283CD88A0F84050038470BD90
:1017B000828B4FF2FF331A408283828B4FF6FF7386
:1017C00003EA01231A4382837047F0B50C4615469D
:1017D000002200210026078C4EF6FF7C07EA0C074A
:1017E0000784828B018C4FF6FF7707EA043640F6B8
:1017F000FF473A404FF6FF7707EA05273A434FF68F
:10180000FF7707EA03373A43D94FB8420ED0D94F92
:10181000B8420BD0B0F1804F08D0D74FB84205D0B6
:10182000D64FB84202D0D64FB84206D14DF6FF7718
:10183000394046F48057394305E047F6FF573940B1
:1018400044F48057394382830184F0BD828B4FF684
:10185000F3731A408283828B0A4382837047F0B508
:101860000C461546002200210026078C4FF6FF6C1F
:1018700007EA0C070784828B018C4FF6FF7707EA93
:1018800004264FF60C773A404FF6FF7707EA031726
:101890002F433A43B64FB8420ED0B64FB8420BD0A2
:1018A000B0F1804F08D0B44FB84205D0B34FB84222
:1018B00002D0B34FB84206D14FF6FF57394046F435
:1018C0008077394305E04FF2FF57394044F4807781
:1018D000394382830184F0BD028B4FF2FF331A40FB
:1018E0000283028B4FF6FF7303EA01231A4302833C
:1018F0007047F0B50C461546002200210026078CE3
:101900004FF6EF7C07EA0C070784028B018C4FF639
:10191000FF7707EA041640F6FF473A404FF6FF7795
:1019200007EA03373A434FF6FF7707EA05273A43BA
:101930008F4FB8420ED08F4FB8420BD0B0F1804FCE
:1019400008D08D4FB84205D08C4FB84202D08C4F92
:10195000B84206D14FF6DF77394046F010073943D9
:1019600005E04FF65F77394044F0100739430283B2
:101970000184F0BD028B4FF6F3731A400283028B91
:101980000A4302837047F0B50C4615460022002139
:10199000068C4FF6FE773E400684028B018C4FF694
:1019A0000C7632407E1C06EA03162E433243704EFC
:1019B000B0420ED06F4EB0420BD0B0F1804F08D085
:1019C0006D4EB04205D06D4EB04202D06C4EB0426A
:1019D00006D14FF6FD76314044F00106314305E073
:1019E0004FF6F576314044F001063143028301841D
:1019F000F0BD70B505460C465D4885420ED05D4889
:101A000085420BD0B5F1804F08D05B48854205D0A8
:101A10005A48854202D05A48854200D100E000BFB2
:101A2000208850B92389A28861882846FFF7ABFF38
:101A3000E1882846FFF79EFF25E0208804280AD188
:101A40002389A28861882846FFF753FFE18828464A
:101A5000FFF742FF17E0208808280AD12389A288CF
:101A600061882846FFF7FBFEE1882846FFF7EEFE77
:101A700009E02389A28861882846FFF7A6FEE1884D
:101A80002846FFF795FE70BD2DE9F04105460C464E
:101A900000260127608808B9022600E00026A088F9
:101AA000012801D1022700E001272088A0B923895D
:101AB000A28861882846FFF766FFE1882846FFF77D
:101AC00059FF23893A4631462846FFF712FFE1883D
:101AD0002846FFF701FF13E02389A2886188284682
:101AE000FFF707FFE1882846FFF7F6FE23893A460D
:101AF00031462846FFF747FFE1882846FFF73AFFBF
:101B0000BDE8F0810A884B881A438B881A43CB883A
:101B10001A430B891A434B891A438B891A43A0F83D
:101B2000442070474FF6FF71818000210180C18001
:101B30004180017270470021018041808180C18015
:101B4000018141818181C1817047002101804180F3
:101B5000012181800021C180018170470021018025
:101B600041808180C1800181418181817047000075
:101B7000002C0140003401400004004000080040F7
:101B8000000C004021B1028842F00102028004E012
:101B900002884FF6FE731A400280704731B1B0F8E8
:101BA000442042F40042A0F8442005E0B0F844206C
:101BB000C2F30E02A0F8442070471AB183890B4388
:101BC000838102E083898B438381704781827047E0
:101BD00041EA0203A0F8483070471AB183890B43E9
:101BE000838102E083898B438381704701894FF6AB
:101BF000F8721140018170470A46002101894FF6B1
:101C00008F73194011430181704730B504460D466A
:101C100029462046FFF7F0FF208940F00700208189
:101C200030BD2DE9F04104460D4616461F46602D95
:101C300006D13B46012231462046FFF75AFE05E019
:101C40003B46012231462046FFF79DFE29462046AD
:101C5000FFF7D2FF208940F007002081BDE8F08126
:101C600030B50C4600210189C9B24FF6FF7505EA6F
:101C70000325154325432943018130BD2DE9F0415A
:101C800005460E4617469846002443463A463146D6
:101C90002846FFF7E5FF2C894FF6F870044044F022
:101CA00007044FF68F70044044F070042C81BDE8A7
:101CB000F081F0B504460D4616461F463B463246B7
:101CC00029462046FFF7CCFF208940F48040208140
:101CD000F0BD0185828270470A46002101884FF6D7
:101CE0008F731940114301807047F0B50C461546BB
:101CF0001E460021002200230189028B038C4FF62F
:101D0000F877394021434FF6FC473A4040F201173B
:101D10003A434FF6DD773B404FF6FF7707EA061769
:101D20002F433B43018102830384F0BD0A46002117
:101D3000018B4FF68F7319401143018370470A4698
:101D40000021018B48F6FF7319404FF6FF7303EA39
:101D500002231943018370470A460021818B4FF605
:101D60008F7319401143818370470A460021818B8C
:101D700048F6FF7319404FF6FF7303EA0223194335
:101D80008183704721B1028842F08002028004E022
:101D900002884FF67F731A400280704721B1828813
:101DA00042F00402828004E082884FF6FB731A40FE
:101DB0008280704721B1828842F00802828004E06C
:101DC00082884FF6F7731A408280704721B182886B
:101DD00042F00102828004E082884FF6FE731A40CE
:101DE000828070470A460021018B4FF6F773194035
:101DF0001143018370470A460021018B4FF2FF73A4
:101E000019404FF6FF7303EA022319430183704719
:101E10000A460021818B4FF6F773194011438183E5
:101E200070470A460021818B4FF2FF7319404FF62D
:101E3000FF7303EA02231943818370470A46002196
:101E4000018B4FF6FB7319401143018370470A461B
:101E50000021018B4FF6FF3319404FF6FF7303EA61
:101E600002231943018370470A460021818B4FF6F4
:101E7000FB7319401143818370470A460021818B0F
:101E80004FF6FF3319404FF6FF7303EA022319435D
:101E9000818370470A460021018B4FF67F731940FA
:101EA0001143018370470A460021018BC1F30E01E3
:101EB0004FF6FF7303EA02231943018370470A4672
:101EC0000021818B4FF67F73194011438183704746
:101ED0000A460021818BC1F30E014FF6FF7303EA1E
:101EE00002231943818370470A460021018C4FF673
:101EF000FD7319401143018470470A460021018C8B
:101F00004FF6F77319401143018470470A460021C8
:101F1000018C4FF6DF7319404FF6FF7303EA02138B
:101F20001943018470470A460021018C4FF67F73E4
:101F300019404FF6FF7303EA0213194301847047F7
:101F40000A460021018C4FF6FF5319404FF6FF73EC
:101F500003EA02231943018470470A460021018CD9
:101F60004FF2FF7319404FF6FF7303EA0223194340
:101F7000018470470A460021018C4DF6FF73194019
:101F80004FF6FF7303EA023319430184704730B5FB
:101F9000002301248C40A3B2048C9C430484048C51
:101FA00002FA01F5ADB22C43048430BD30B50023F4
:101FB00004248C40A3B2048C9C430484048C02FA55
:101FC00001F5ADB22C43048430BD70B5034600204A
:101FD00000241846183001258D40ACB21D8CA54355
:101FE0001D8409B1082909D100EB6100056825F0BD
:101FF000700505600568154305600EE00D1FC5F30B
:102000004E052844056825F4E045056005684FF64F
:10201000FF7606EA02263543056070BD21B10288CD
:1020200042F00202028004E002884FF6FD731A407B
:102030000280704721B1028842F00402028004E06D
:1020400002884FF6FB731A400280704721B18288E4
:1020500042F08002828004E082884FF67F731A404B
:102060008280704702884FF6F7731A400280028818
:102070000A430280704782884FF68F731A4082802D
:1020800082880A438280704702894FF6F8731A40AB
:10209000028102890A430281704702894FF67F73E9
:1020A0001A40028102890A43028170478184704785
:1020B00081857047818670470187704781877047A7
:1020C000A0F84010704702884FF6FF431A40028084
:1020D00002880A43028070470146888E7047014695
:1020E000088F70470146888F70470146B1F840005D
:1020F00070470146888C70470146088D704702463C
:102100000020138A0B4201D0012000E0002070471C
:10211000CA430282704730B50246002000230024E3
:10212000158A05EA0103958905EA010413B10CB18A
:10213000012000E0002030BDCA4302827047000049
:1021400010B50446FB48844209D101218803FFF7FA
:1021500098F800214FF48040FFF793F832E0F648FA
:10216000844209D101214804FFF798F800214FF477
:102170000030FFF793F825E0F048844209D10121AF
:102180008804FFF78BF800214FF48020FFF786F8D2
:1021900018E0EB48844209D10121C804FFF77EF81A
:1021A00000214FF40020FFF779F80BE0E548844266
:1021B00008D101210805FFF771F800214FF48010C4
:1021C000FFF76CF810BD2DE9F04786B005460E46C6
:1021D0000024A24600BFA1460027B08900B100BF7D
:1021E0002F462C8A4CF6FF700440F08804432C8262
:1021F000AC894EF6F3100440B088318908437189E8
:1022000008430443AC81AC8A4FF6FF400440B089D8
:102210000443AC8201A8FEF7AEFFC648874202D154
:10222000DDF810A001E0DDF80CA0A88910F4004F43
:1022300008D00AEBCA0000EB0A1031684900B0FB75
:10224000F1F807E00AEBCA0000EB0A1031688900D8
:10225000B0FBF1F86420B8FBF0F004012009642120
:1022600001FB1089A88910F4004F08D0322000EB40
:10227000C900B0FBF1F000F00700044308E0322091
:1022800000EB09106421B0FBF1F000F00F000443F3
:102290002C8106B0BDE8F0874FF416510160002193
:1022A0008180C18001810C214181002181817047A1
:1022B00010B502460020108A4FF2FF0318400B8829
:1022C0004C8823438C882343CC88234318431082B3
:1022D00010BD0021018041808180C180704721B103
:1022E000828942F40052828104E082894DF6FF73B4
:1022F0001A4082817047F0B503460024002600256D
:102300000020A1F510676A3F00D100BF1846C1F355
:10231000421401F01F06012707FA06F5012C01D12E
:102320000C3004E0022C01D1103000E014301AB15E
:1023300007682F43076002E00768AF430760F0BDFE
:102340001AB1838A0B43838202E0838A8B438382A0
:102350007047028A4FF6F0731A400282028A0A43DB
:102360000282704782894FF2FF731A40828182890C
:102370000A438281704721B1828942F00202828140
:1023800004E082894FF6FD731A4082817047028A09
:102390004FF6DF731A400282028A0A4302827047B4
:1023A00021B1028A42F48042028204E0028A4BF6A2
:1023B000FF731A4002827047C1F30802828070479F
:1023C00001468888C0F308007047818941F0010107
:1023D00081817047028BD2B20283028B42EA0122D2
:1023E00002837047028B02F47F420283028B0A430E
:1023F0000283704721B1828A42F02002828204E087
:10240000828A4FF6DF731A408282704721B1828A36
:1024100042F01002828204E0828A4FF6EF731A4083
:102420008282704721B1828A42F00802828204E0EF
:10243000828A4FF6F7731A408282704721B18289EF
:1024400042F40042828103E08289C2F30E0282815B
:10245000704721B1828A42F40062828204E0828A5B
:102460004FF2FF731A4082827047828A4FF6FB73E5
:102470001A408282828A0A438282704721B1828A0C
:1024800042F00202828204E0828A4FF6FD731A4013
:102490008282704702460020B1F5007F00D100BF64
:1024A00013880B4201D0012000E00020704701F4A6
:1024B0000072B2F5007F00D100BFCA4302807047AE
:1024C00070B502460024002300250020A1F5106607
:1024D0006A3E00D100BFC1F3421501F01F0301267F
:1024E00006FA03F3012D02D19689334006E0022D4E
:1024F00002D1168A334001E0968A33400C1201263D
:1025000006FA04F41688344013B10CB1012000E03F
:10251000002070BD10B500220023A1F510646A3CB4
:1025200000D100BF0A1201249440A3B2DC4304800E
:1025300010BD000000380140004400400048004049
:10254000004C0040005000400CB50020019000906D
:102550006248006840F480306049086000BF5F480E
:10256000006800F4003000900198401C0190009831
:1025700018B90198B0F5A06FF1D15848006810F46F
:10258000003F02D00120009001E000200090009860
:10259000012830D151484068504948600846406899
:1025A00048600846406848600846406820F47C104F
:1025B00048600846406840F4981048600846006843
:1025C00040F08070086000BF4448006810F0007F51
:1025D000FAD04248406820F003004049486008466D
:1025E000406840F00200486000BF3C48406800F08E
:1025F0000C000828F9D10CBD10B5FFF7A5FF10BDE0
:1026000010B53648006840F00100344908600846BB
:1026100040683349084031494860084600683149FC
:1026200008402E4908600846006820F480200860B1
:102630000846406820F4FE0048604FF41F008860A0
:102640000020C862FFF7D8FF4FF0006026490860FD
:1026500010BD30B500210020002200231F4C64680B
:1026600004F00C0121B1042906D0082925D107E086
:102670001E4C1F4D2C6024E01C4C1D4D2C6020E096
:10268000164C646804F47010144C646804F48032CE
:10269000022404EB904022B9164C4443144D2C60A4
:1026A0000AE00E4CE46A04F00F04631C0F4CB4FB08
:1026B000F3F444430E4D2C6003E00C4C0C4D2C60A5
:1026C00000BF00BF054C6468C4F303140A4D295DC4
:1026D000074C2468CC40064D2C6030BD00100240F1
:1026E0000000FFF8FFFFF6FE08ED00E000127A00A0
:1026F0006000002000093D006400002030B50B465A
:10270000014600202022012409E021FA02F59D4221
:1027100005D303FA02F5491B04FA02F52844151EF5
:10272000A2F10102F1DC30BD064C074D06E0E06885
:1027300040F0010394E8070098471034AC42F6D308
:10274000FDF7D8FC44290008642900080FB4054BA4
:1027500010B503A9044A029800F018F810BC5DF8FF
:1027600014FB0000E90200087400002002E008C821
:10277000121F08C1002AFAD170477047002001E0FB
:1027800001C1121F002AFBD1704700002DE9FF4F45
:102790008BB09A460F4605460026C9E0252837D15A
:1027A00000246D1C6649A04601222B78203B02FACA
:1027B00003F0084202D004436D1CF6E728782E2867
:1027C00017D115F8010F44F004042A280ED06FF039
:1027D0002F022878A0F1300109290AD808EB8801D6
:1027E00002EB410100EB01086D1CF2E757F8048B86
:1027F0006D1C287869283FD006DC002871D063283A
:102800000CD0642804D137E0732811D075284ED03D
:1028100052460D99904706F1010688E017F8040B1F
:102820008DF8000000208DF80100E946012003E04A
:1028300057F8049B4FF0FF3061074FF0000401D4BC
:102840000AE0641C44450DDA8442FADB19F80410EE
:102850000029F6D106E0641C8442FCDB19F8041060
:102860000029F8D1264404E019F8010B52460D99CD
:102870009047641EF8D25AE001CF4FF00A0B0028AF
:1028800004DAC0F100004FF02D0102E0210504D56B
:102890002B218DF82410012103E0E10705D0202130
:1028A000F7E70DF1200908910CE00021F9E701CFCD
:1028B0004FF00A0BF9E75946FFF720FF01F130020C
:1028C00009F8012D0028F6D1ADEB090000F1200B2D
:1028D000600701D44FF00108D84503DDA8EB0B00D9
:1028E00001E029E000208046002406E009A85246C5
:1028F000005D0D999047761C641C08988442F5DBB6
:1029000004E0302052460D999047761CB8F1000142
:10291000A8F10108F5DC05E019F8010B52460D9904
:102920009047761CBBF10001ABF1010BF4DC6D1C90
:10293000287800287FF432AF0FB03046BDE8F08F22
:102940000928010064290008000000207800000028
:102950006C270008DC290008780000200004000033
:102960007C270008000000000000000000000000BC
:102970000000000000000000000000000000003F18
:10298000065B4F666D7D077F6F777C395E79713F9F
:10299000065B4F666D7D077F6F777C395E79713F8F
:1029A000065B4F666D7D077F6F777C395E797100BE
:1029B00000000001020304010203040607080902E3
:1029C0000406080000366E01000000000000000050
:0C29D000010203040607080900000000D3
:04000005080000ED02
:00000001FF
