:020000040800F2
:100000009806002089010008CD010008CF010008F2
:10001000D3010008D7010008DB0100080000000040
:10002000000000000000000000000000E1010008E6
:10003000DF01000800000000E3010008E5010008FE
:10004000A3010008A3010008A3010008A301000800
:10005000A3010008A3010008A3010008A3010008F0
:10006000A3010008A3010008A3010008A3010008E0
:10007000A3010008A3010008A3010008A3010008D0
:10008000A3010008A3010008A3010008A3010008C0
:10009000A3010008A3010008A3010008A3010008B0
:1000A000A3010008A3010008A3010008A3010008A0
:1000B000A3010008E7010008A3010008A30100084C
:1000C000A3010008A3010008A3010008A301000880
:1000D000A3010008A3010008A3010008A301000870
:1000E000A3010008A3010008A301000800F002F822
:1000F00000F03AF80AA090E8000C82448344AAF188
:100100000107DA4501D100F02FF8AFF2090EBAE885
:100110000F0013F0010F18BFFB1A43F0010318473B
:100120007818000098180000103A24BF78C878C1E9
:10013000FAD8520724BF30C830C144BF04680C60ED
:10014000704700000023002400250026103A28BF35
:1001500078C1FBD8520728BF30C148BF0B60704739
:100160001FB51FBD10B510BD01F0DFFB1146FFF735
:10017000F7FF00F029F801F0FDFB03B4FFF7F2FFF1
:1001800003BC01F001FC0000094880470948004712
:10019000FEE7FEE7FEE7FEE7FEE7FEE7FEE7FEE737
:1001A000FEE7FEE704480549054A064B7047000094
:1001B00029180008ED00000898000020980600208B
:1001C000980200209802002000207047704700BF6E
:1001D000FEE700BFFEE700BFFEE700BFFEE7704797
:1001E00070477047704710B50421104801F0ABFA12
:1001F000012819D104210D4801F0B6FA0C480088F5
:1002000038B901200A49088000210A4800F01FF986
:100210000AE007480088012806D10021054800F0BF
:1002200018F900200249088010BD000000040040B9
:10023000040000200008014010B50446CA4884426A
:1002400008D10121042000F034FB0021042000F03B
:1002500030FB46E0C548844208D10121082000F067
:1002600028FB0021082000F024FB3AE0C04884422B
:1002700008D10121102000F01CFB0021102000F00B
:1002800018FB2EE0BB48844208D10121202000F059
:1002900010FB0021202000F00CFB22E0B648844235
:1002A00008D10121402000F004FB0021402000F093
:1002B00000FB16E0B148844208D10121802000F003
:1002C000F8FA0021802000F0F4FA0AE0AC488442F9
:1002D00007D10121801500F0ECFA0021A01500F0F3
:1002E000E8FA10BD10B50121084600F0E2FA00213D
:1002F000012000F0DEFA10BD2DE9F0410246002594
:100300000026002000230024002791F803C00CF0F1
:100310000F0591F803C01CF0100F03D091F802C034
:100320004CEA050591F800C0BCF1000F31D014680B
:1003300000202BE04FF0010C0CFA00F3B1F800C0E4
:100340000CEA03069E4220D183004FF00F0C0CFAFA
:1003500003F7BC4305FA03FC4CEA040491F803C01C
:10036000BCF1280F06D14FF0010C0CFA00FCC2F8CA
:1003700014C00AE091F803C0BCF1480F05D14FF05A
:10038000010C0CFA00FCC2F810C0401C0828D1D3A4
:100390001460B1F800C0BCF1FF0F34DD54680020D8
:1003A0002EE000F1080C4FF0010808FA0CF3B1F848
:1003B00000C00CEA03069E4221D183004FF00F0CCF
:1003C0000CFA03F7BC4305FA03FC4CEA040491F869
:1003D00003C0BCF1280F05D100F1080C08FA0CF895
:1003E000C2F8148091F803C0BCF1480F07D100F1A6
:1003F000080C4FF0010808FA0CF8C2F81080401CF5
:100400000828CED35460BDE8F0814FF6FF7101801B
:10041000022181700421C170704702460020936858
:100420000B4201D0012000E000207047014688689F
:1004300080B2704702460020D3680B4201D00120F1
:1004400000E0002070470146C86880B27047016133
:100450007047416170470AB1016100E04161704736
:10046000C16070474FF480320A43826181618261CA
:1004700082698269704702460020424B18684FF635
:100480008073184040EA021008433E4B18607047E2
:100490003D49C8617047F0B50A4600230024002199
:1004A000002500F00046B6F1004F02D1354EF1694B
:1004B00001E0344E7168C0F3034583B200F4401686
:1004C000B6F5401F08D121F070612E4E766826F0F7
:1004D00070662C4F7E6012E000F48016B6F5801F27
:1004E00006D1032606FA05F4A14341F0706106E047
:1004F000460D360103FA06F6B14341F0706122B1B0
:10050000460D360103FA06F6314300F00046B6F117
:10051000004F02D11B4EF16101E01A4E7160F0BD37
:1005200030B500228B071C0F0F2303FA04F2154B82
:1005300008338C1053F824309343124C08348D1038
:1005400044F8253023468C1053F824308C07240FB0
:1005500000FA04F423430B4C08348D1044F8253082
:1005600030BD0A490860704700080140000C014096
:10057000001001400014014000180140001C01401F
:10058000002001400000014000002042DC00204229
:10059000E448006840F00100E2490860084640680D
:1005A000E1490840DF49486008460068DF490840E3
:1005B000DC4908600846006820F48020086008468E
:1005C000406820F4FE0048604FF41F00886000205F
:1005D000C8627047D349096821F48031D14A11605B
:1005E0001146096821F480211160B0F5803F03D0E5
:1005F000B0F5802F0ED106E0CA49096841F4803178
:10060000C84A116007E0C749096841F4A021C54AFA
:10061000116000E000BF00BF704710B50146002226
:10062000002300204A11012A02D1BE4C236806E0B3
:10063000022A02D1BB4C236A01E0BA4C636A01F082
:100640001F02012494401C4201D0012000E0002040
:1006500010BD38B5002000900024002500BF3120D7
:10066000FFF7DBFF05460098401C00900098B0F5AE
:10067000A06F01D0002DF2D03120FFF7CEFF08B1DE
:10068000012400E00024204638BD01460020A54A90
:10069000106820F0F80040EAC10010607047A449DB
:1006A00008607047024600209E4B586820F4741082
:1006B00042EA010318439B4B586070479C49086607
:1006C000704702460020974BD86A9A4B184042EA7E
:1006D00001031843934BD862704701460020914AAA
:1006E000506820F003000843506070478D48406810
:1006F00000F00C007047014600208A4A506820F044
:10070000F00008435060704701460020854A506859
:1007100020F4E06008435060704701460020814AA1
:10072000506820F4605040EAC1005060704729B121
:100730007C4A527A02437B4B5A7204E0794A527ADD
:100740008243784B5A7270477B4908607047014674
:100750000020744A506820F44040084350607047BD
:100760000021764A11706F4A82F82010012802D0C9
:10077000042808D103E00121704A117004E005212A
:100780006E4A117000E000BF00BF70476C490860FE
:1007900070476449096A0143624A116270476849B7
:1007A00044390860704770B50021002300240022FE
:1007B00000255C4E766806F00C0121B1042905D0B5
:1007C000082921D105E05F4E066020E05D4E0660FD
:1007D0001DE0544E766806F47013524E766806F4A7
:1007E0008034022606EB93431CB9574E5E430660E5
:1007F00009E04C4EF66A06F00F06751C514EB6FB2A
:10080000F5F65E43066002E04E4E066000BF00BF94
:10081000444E766806F0F00109094C4E725C066899
:10082000D64046603F4E766806F4E061090A474EBE
:10083000725C4668D64086603A4E766806F460512F
:10084000C90A424E725C4668D640C660354E76682C
:1008500006F44041890B3E4E725CC668B6FBF2F668
:10086000066170BD29B12F4A526902432D4B5A616E
:1008700004E02C4A526982432A4B5A61704729B1DD
:10088000284A92690243274B9A6104E0254A9269FB
:100890008243244B9A61704729B1224AD2690243AC
:1008A000204BDA6104E01F4AD26982431D4BDA61B2
:1008B000704729B11B4AD26802431A4BDA6004E040
:1008C000184AD2688243174BDA60704729B1154A3B
:1008D00012690243134B1A6104E0124A12698243FF
:1008E000104B1A617047164940390860704710492B
:1008F000C86470470B49C87170470A48406A40F0A5
:10090000807008494862704701460020054A926895
:100910000A4201D0012000E000207047014988729E
:1009200070470000001002400000FFF8FFFFF6FED5
:1009300000004242F0FFFEFFD80042422010024079
:100940008004424200127A0000093D00100000209D
:100950002000002010B50446FE48844208D1012141
:10096000C014FFF7A6FF0021E014FFF7A2FFC4E0C8
:10097000B4F1804F08D101210846FFF7A7FF0021FD
:100980000120FFF7A3FFB8E0F348844208D101211A
:100990000220FFF79BFF00210220FFF797FFACE04A
:1009A000EE48844208D101210420FFF78FFF002187
:1009B0000420FFF78BFFA0E0E948844208D1012121
:1009C0000820FFF783FF00210820FFF77FFF94E056
:1009D000E448844208D101211020FFF777FF00216D
:1009E0001020FFF773FF88E0DF48844208D101211F
:1009F0002020FFF76BFF00212020FFF767FF7CE03E
:100A0000DA48844208D101214014FFF752FF002147
:100A10006014FFF74EFF70E0D548844209D10121F0
:100A2000C804FFF746FF00214FF40020FFF741FF05
:100A300063E0D048844209D101210805FFF739FF5E
:100A400000214FF48010FFF734FF56E0CA4884427B
:100A500009D101214805FFF72CFF00214FF40010B8
:100A6000FFF727FF49E0C548844208D10121402013
:100A7000FFF72CFF00214020FFF728FF3DE0C04892
:100A8000844208D101218020FFF720FF002180202F
:100A9000FFF71CFF31E0BB48844208D101218015DB
:100AA000FFF714FF0021A015FFF710FF25E0B6485F
:100AB000844209D101210804FFF7FBFE00214FF415
:100AC0008030FFF7F6FE18E0B048844209D10121DA
:100AD0004804FFF7EEFE00214FF40030FFF7E9FE77
:100AE0000BE0AB48844208D101218804FFF7E1FE06
:100AF00000214FF48020FFF7DCFE10BD00220288A9
:100B0000944B98420ED0994B98420BD0B0F1804F45
:100B100008D0914B984205D0904B984202D0904B10
:100B2000984204D14FF68F731A404B881A438D4B6D
:100B3000984207D08C4B984204D04FF6FF431A409E
:100B4000CB881A4302808B8883850B880385814B71
:100B500098420BD0854B984208D08B4B984205D0D9
:100B60008A4B984202D08A4B984201D10B7A038675
:100B700001238382704770B5002400220023058C76
:100B80004FF6FE7635400584028C8388048B4FF641
:100B90008F752C40B51E2C400D882C43751E2A40A5
:100BA0000D892A434D882A436A4DA8420BD06F4DC8
:100BB000A84208D0744DA84205D0744DA84202D076
:100BC000734DA84213D14FF6F7752A404D892A4339
:100BD0004FF6FB752A408D882A434FF6FF652B4060
:100BE0004FF6FF552B408D892B43CD892B438380B6
:100BF0000483CD888586028470BD70B500240022F0
:100C00000023058C4FF6EF7635400584028C8388EF
:100C1000048B48F6FF752C404FF6FF452C400D889D
:100C20004FF6FF7606EA05252C434FF6DF752A407E
:100C30000D8906EA05152A434D8806EA05152A435B
:100C4000444DA84202D0494DA8421DD14FF67F75B0
:100C50002A404D894FF6FF7606EA05152A434FF6DE
:100C6000BF752A408D8806EA05152A434FF6FF35E1
:100C70002B404FF2FF752B408D8906EA85052B43EB
:100C8000CD8906EA85052B4383800483CD880587BB
:100C9000028470BD70B5002400220023058C4FF63D
:100CA000FF6635400584028C8388848B4FF68F75F0
:100CB0002C404FF6FC752C400D882C434FF6FF5509
:100CC0002A400D894FF6FF7606EA05252A434D880E
:100CD00006EA05252A431F4DA84202D0234DA8420B
:100CE0001DD14FF2FF752A404D894FF6FF7606EA77
:100CF00005252A434FF6FF352A408D8806EA05254B
:100D00002A434EF6FF752B404DF6FF752B408D891B
:100D100006EA05152B43CD8906EA05152B4383808A
:100D20008483CD888587028470BD70B5002200233E
:100D30000024058C4EF6FF7635400584038C8488AC
:100D4000828B48F6FF752A404FF6FF452A400D88F2
:100D500020E00000002C014000040040000800409A
:100D6000000C00400010004000140040003401401E
:100D7000004C014000500140005401400018004068
:100D8000001C0040002000400040014000440140A1
:100D9000004801404FF6FF7606EA05252A434DF646
:100DA000FF752B400D8906EA05352B434D8806EA71
:100DB00005352B43FA4DA84202D0FA4DA84208D17E
:100DC0004BF6FF752C408D894FF6FF7606EA8515A8
:100DD0002C4384808283CD88A0F84050038470BD6A
:100DE000828B4FF2FF331A408283828B4FF6FF7360
:100DF00003EA01231A4382837047F0B50C46154677
:100E0000002200210026078C4EF6FF7C07EA0C0723
:100E10000784828B018C4FF6FF7707EA043640F691
:100E2000FF473A404FF6FF7707EA05273A434FF668
:100E3000FF7707EA03373A43D94FB8420ED0D94F6C
:100E4000B8420BD0B0F1804F08D0D74FB84205D090
:100E5000D64FB84202D0D64FB84206D14DF6FF77F2
:100E6000394046F48057394305E047F6FF5739408B
:100E700044F48057394382830184F0BD828B4FF65E
:100E8000F3731A408283828B0A4382837047F0B5E2
:100E90000C461546002200210026078C4FF6FF6CF9
:100EA00007EA0C070784828B018C4FF6FF7707EA6D
:100EB00004264FF60C773A404FF6FF7707EA031700
:100EC0002F433A43B64FB8420ED0B64FB8420BD07C
:100ED000B0F1804F08D0B44FB84205D0B34FB842FC
:100EE00002D0B34FB84206D14FF6FF57394046F40F
:100EF0008077394305E04FF2FF57394044F480775B
:100F0000394382830184F0BD028B4FF2FF331A40D4
:100F10000283028B4FF6FF7303EA01231A43028315
:100F20007047F0B50C461546002200210026078CBC
:100F30004FF6EF7C07EA0C070784028B018C4FF613
:100F4000FF7707EA041640F6FF473A404FF6FF776F
:100F500007EA03373A434FF6FF7707EA05273A4394
:100F60008F4FB8420ED08F4FB8420BD0B0F1804FA8
:100F700008D08D4FB84205D08C4FB84202D08C4F6C
:100F8000B84206D14FF6DF77394046F010073943B3
:100F900005E04FF65F77394044F01007394302838C
:100FA0000184F0BD028B4FF6F3731A400283028B6B
:100FB0000A4302837047F0B50C4615460022002113
:100FC000068C4FF6FE773E400684028B018C4FF66E
:100FD0000C7632407E1C06EA03162E433243704ED6
:100FE000B0420ED06F4EB0420BD0B0F1804F08D05F
:100FF0006D4EB04205D06D4EB04202D06C4EB04244
:1010000006D14FF6FD76314044F00106314305E04C
:101010004FF6F576314044F00106314302830184F6
:10102000F0BD70B505460C465D4885420ED05D4862
:1010300085420BD0B5F1804F08D05B48854205D082
:101040005A48854202D05A48854200D100E000BF8C
:10105000208850B92389A28861882846FFF7ABFF12
:10106000E1882846FFF79EFF25E0208804280AD162
:101070002389A28861882846FFF753FFE188284624
:10108000FFF742FF17E0208808280AD12389A288A9
:1010900061882846FFF7FBFEE1882846FFF7EEFE51
:1010A00009E02389A28861882846FFF7A6FEE18827
:1010B0002846FFF795FE70BD2DE9F04105460C4628
:1010C00000260127608808B9022600E00026A088D3
:1010D000012801D1022700E001272088A0B9238937
:1010E000A28861882846FFF766FFE1882846FFF757
:1010F00059FF23893A4631462846FFF712FFE18817
:101100002846FFF701FF13E02389A288618828465B
:10111000FFF707FFE1882846FFF7F6FE23893A46E6
:1011200031462846FFF747FFE1882846FFF73AFF98
:10113000BDE8F0810A884B881A438B881A43CB8814
:101140001A430B891A434B891A438B891A43A0F817
:10115000442070474FF6FF71818000210180C180DB
:101160004180017270470021018041808180C180EF
:10117000018141818181C1817047002101804180CD
:10118000012181800021C1800181704700210180FF
:1011900041808180C180018141818181704700004F
:1011A000002C0140003401400004004000080040D1
:1011B000000C004021B1028842F00102028004E0EC
:1011C00002884FF6FE731A400280704731B1B0F8C2
:1011D000442042F40042A0F8442005E0B0F8442046
:1011E000C2F30E02A0F8442070471AB183890B4362
:1011F000838102E083898B438381704781827047BA
:1012000041EA0203A0F8483070471AB183890B43C2
:10121000838102E083898B438381704701894FF684
:10122000F8721140018170470A46002101894FF68A
:101230008F73194011430181704730B504460D4644
:1012400029462046FFF7F0FF208940F00700208163
:1012500030BD2DE9F04104460D4616461F46602D6F
:1012600006D13B46012231462046FFF75AFE05E0F3
:101270003B46012231462046FFF79DFE2946204687
:10128000FFF7D2FF208940F007002081BDE8F08100
:1012900030B50C4600210189C9B24FF6FF7505EA49
:1012A0000325154325432943018130BD2DE9F04134
:1012B00005460E4617469846002443463A463146B0
:1012C0002846FFF7E5FF2C894FF6F870044044F0FC
:1012D00007044FF68F70044044F070042C81BDE881
:1012E000F081F0B504460D4616461F463B46324691
:1012F00029462046FFF7CCFF208940F4804020811A
:10130000F0BD0185828270470A46002101884FF6B0
:101310008F731940114301807047F0B50C46154694
:101320001E460021002200230189028B038C4FF608
:10133000F877394021434FF6FC473A4040F2011715
:101340003A434FF6DD773B404FF6FF7707EA061743
:101350002F433B43018102830384F0BD0A460021F1
:10136000018B4FF68F7319401143018370470A4672
:101370000021018B48F6FF7319404FF6FF7303EA13
:1013800002231943018370470A460021818B4FF6DF
:101390008F7319401143818370470A460021818B66
:1013A00048F6FF7319404FF6FF7303EA022319430F
:1013B0008183704721B1028842F08002028004E0FC
:1013C00002884FF67F731A400280704721B18288ED
:1013D00042F00402828004E082884FF6FB731A40D8
:1013E0008280704721B1828842F00802828004E046
:1013F00082884FF6F7731A408280704721B1828845
:1014000042F00102828004E082884FF6FE731A40A7
:10141000828070470A460021018B4FF6F77319400E
:101420001143018370470A460021018B4FF2FF737D
:1014300019404FF6FF7303EA0223194301837047F3
:101440000A460021818B4FF6F773194011438183BF
:1014500070470A460021818B4FF2FF7319404FF607
:10146000FF7303EA02231943818370470A46002170
:10147000018B4FF6FB7319401143018370470A46F5
:101480000021018B4FF6FF3319404FF6FF7303EA3B
:1014900002231943018370470A460021818B4FF6CE
:1014A000FB7319401143818370470A460021818BE9
:1014B0004FF6FF3319404FF6FF7303EA0223194337
:1014C000818370470A460021018B4FF67F731940D4
:1014D0001143018370470A460021018BC1F30E01BD
:1014E0004FF6FF7303EA02231943018370470A464C
:1014F0000021818B4FF67F73194011438183704720
:101500000A460021818BC1F30E014FF6FF7303EAF7
:1015100002231943818370470A460021018C4FF64C
:10152000FD7319401143018470470A460021018C64
:101530004FF6F77319401143018470470A460021A2
:10154000018C4FF6DF7319404FF6FF7303EA021365
:101550001943018470470A460021018C4FF67F73BE
:1015600019404FF6FF7303EA0213194301847047D1
:101570000A460021018C4FF6FF5319404FF6FF73C6
:1015800003EA02231943018470470A460021018CB3
:101590004FF2FF7319404FF6FF7303EA022319431A
:1015A000018470470A460021018C4DF6FF731940F3
:1015B0004FF6FF7303EA023319430184704730B5D5
:1015C000002301248C40A3B2048C9C430484048C2B
:1015D00002FA01F5ADB22C43048430BD30B50023CE
:1015E00004248C40A3B2048C9C430484048C02FA2F
:1015F00001F5ADB22C43048430BD70B50346002024
:1016000000241846183001258D40ACB21D8CA5432E
:101610001D8409B1082909D100EB6100056825F096
:10162000700505600568154305600EE00D1FC5F3E4
:101630004E052844056825F4E045056005684FF629
:10164000FF7606EA02263543056070BD21B10288A7
:1016500042F00202028004E002884FF6FD731A4055
:101660000280704721B1028842F00402028004E047
:1016700002884FF6FB731A400280704721B18288BE
:1016800042F08002828004E082884FF67F731A4025
:101690008280704702884FF6F7731A4002800288F2
:1016A0000A430280704782884FF68F731A40828007
:1016B00082880A438280704702894FF6F8731A4085
:1016C000028102890A430281704702894FF67F73C3
:1016D0001A40028102890A4302817047818470475F
:1016E0008185704781867047018770478187704781
:1016F000A0F84010704702884FF6FF431A4002805E
:1017000002880A43028070470146888E704701466E
:10171000088F70470146888F70470146B1F8400036
:1017200070470146888C70470146088D7047024615
:101730000020138A0B4201D0012000E000207047F6
:10174000CA430282704730B50246002000230024BD
:10175000158A05EA0103958905EA010413B10CB164
:10176000012000E0002030BDCA4302827047000023
:101770000CB50020019000906248006840F4803071
:101780006049086000BF5F48006800F400300090C6
:101790000198401C0190009818B90198B0F5A06F0D
:1017A000F1D15848006810F4003F02D001200090A9
:1017B00001E0002000900098012830D15148406895
:1017C000504948600846406848600846406848609C
:1017D0000846406820F47C1048600846406840F4A1
:1017E000981048600846006840F08070086000BFAC
:1017F0004448006810F0007FFAD04248406820F06A
:101800000300404948600846406840F002004860D4
:1018100000BF3C48406800F00C000828F9D10CBD1E
:1018200010B5FFF7A5FF10BD10B53648006840F0B1
:10183000010034490860084640683349084031498E
:10184000486008460068314908402E49086008464B
:10185000006820F4802008600846406820F4FE00FC
:1018600048604FF41F0088600020C862FFF7D8FF6F
:101870004FF000602649086010BD30B500210020FF
:10188000002200231F4C646804F00C0121B10429DC
:1018900006D0082925D107E01E4C1F4D2C6024E0FE
:1018A0001C4C1D4D2C6020E0164C646804F4701034
:1018B000144C646804F48032022404EB904022B992
:1018C000164C4443144D2C600AE00E4CE46A04F0BC
:1018D0000F04631C0F4CB4FBF3F444430E4D2C6017
:1018E00003E00C4C0C4D2C6000BF00BF054C64683D
:1018F000C4F303140A4D295D074C2468CC40064DFF
:101900002C6030BD001002400000FFF8FFFFF6FE23
:1019100008ED00E000127A002400002000093D00DC
:1019200028000020704770477047754600F028F87F
:10193000AE4605006946534620F00700854618B0BC
:1019400020B5FEF72FFCBDE820404FF000064FF019
:1019500000074FF000084FF0000B21F00701AC46E4
:10196000ACE8C009ACE8C009ACE8C009ACE8C00903
:101970008D4670470446AFF300802046FEF7FDFB1E
:10198000004870473800002001491820ABBEFEE730
:101990002600020070470000B8190008000000206F
:1019A0003800000028010008F01900083800002065
:1019B0006006000044010008000000000000000074
:1019C000000000000000000000000000010203040D
:1019D00001020304060708090204060800366E0126
:1019E00000000000000000000102030406070809CF
:04000005080000ED02
:00000001FF
