:020000040800F2
:100000002808002001010008950100089701000858
:100010009B0100089F010008A301000800000000E8
:10002000000000000000000000000000A90100081E
:10003000A701000800000000AB010008AD010008A6
:100040001B0100081B0100081B0100081B01000820
:100050001B0100081B0100081B0100081B01000810
:100060001B0100081B0100081B0100081B01000800
:100070001B0100081B0100081B0100081B010008F0
:100080001B0100081B0100081B0100081B010008E0
:100090001B0100081B0100081B0100081B010008D0
:1000A0001B0100081B0100081B0100081B010008C0
:1000B0001B0100081B0100081B0100081B010008B0
:1000C0001B0100081B0100081B0100081B010008A0
:1000D0001B0100089B040008BF0300081B01000867
:1000E000BD0400081B0100081B010008DFF80CD04C
:1000F00005F038FB004800472501000828080020CB
:100100000648804706480047FEE7FEE7FEE7FEE7B1
:10011000FEE7FEE7FEE7FEE7FEE7FEE72156000802
:10012000ED0000084FF4A06003F082FC00F07AF8C4
:1001300000F0B1F800F056F900F093F900F0D8F8AB
:1001400000F016F900F03DFA00F0A9FA00F05CFCAE
:1001500000F08EFE01F0F2FA05A005F015FB08A0F4
:1001600005F012FB03E003F050FB01F035FBFAE76A
:1001700048656C6C6F2073746D33322E2000000064
:1001800044656C6574655F416C6C5F4461746120AB
:100190000D0A2000704700BFFEE700BFFEE700BF6A
:1001A000FEE700BFFEE770477047704710480068E1
:1001B000401C0F4908600846006864280AD90D48A9
:1001C0000078401C0B49087001200B490870002082
:1001D0000749086009480068401C0849086008464B
:1001E0000068B0F5C87F02D9002005490860704753
:1001F00004000020080000200100002088000020EA
:100200008400002010B5002807DA0A07140E344ACB
:1002100000F00F031B1FD45403E00A07130E314AEA
:10022000135410BD10B503F0ABFE012003F02FFFF7
:1002300000BF212003F0E9FE0028FAD04FF480111E
:10024000002003F027FF002003F04DFF002003F003
:1002500053FF4FF4806003F058FF012003F026FFA6
:1002600000BF392003F0D1FE0028FAD0022003F0AD
:100270002CFF00BF03F032FF0828FBD10121084604
:1002800003F0F5FF0121184803F0FDFD0121C8032B
:1002900003F0F9FD10BD10B514480068C821B0FB8B
:1002A000F1F4B4F1807F01D3012011E024F07F400C
:1002B000401E4FF0E02148610F214FF0FF30FFF763
:1002C000A1FF00204FF0E021886107200861002095
:1002D00008B100BFFEE70021481EFFF793FF10BDE5
:1002E00018ED00E000E400E000023000C000002053
:1002F00000B585B00121042003F0B9FF01214804B5
:1003000003F0C2FF0420ADF8100018208DF8130090
:1003100003208DF8120004A92F4803F0E5FC082003
:10032000ADF8100004208DF8130004A92A4803F04A
:10033000DBFC4FF4165000900020ADF80400ADF83F
:100340000600ADF80800ADF80C000C20ADF80A006E
:100350006946224804F047FF012240F225511F4818
:1003600004F0D9FF01211D4804F0C9FF05B000BD0C
:1003700008B526208DF8000001208DF8010000202E
:100380008DF8020001208DF80300684603F055FB4C
:1003900008BD70B504460D46E1B2104805F01CF8E2
:1003A00000BF0E48008810F0800FFAD0204670BDC4
:1003B00010B5044621460AA005F0E6F910BD10B5B7
:1003C00040F22551054805F08BF8012803D1202182
:1003D000024805F07CF810BD0008014000440040D0
:1003E0002563000000B585B0012144F2040003F04C
:1003F0003EFF4FF40070ADF8100018208DF8130088
:1004000003208DF8120004A92A4803F06DFC4FF474
:100410008060ADF8100004208DF8130004A9254871
:1004200003F062FC4FF4165000900020ADF8040079
:10043000ADF80600ADF80800ADF80C000C20ADF8E2
:100440000A0069461C4804F0CEFE012240F2255104
:10045000194804F060FF0121174804F050FF05B06F
:1004600000BD08B525208DF8000001208DF80100A1
:100470008DF802008DF80300684603F0DEFA08BD2F
:1004800010B5044621460C4804F0A6FF00BF0A48F8
:10049000008810F0800FFAD010BD10B540F2255141
:1004A000054805F01DF8012803D12021024805F078
:1004B0000EF810BD000801400038014070B500255D
:1004C0006548006810F4004F00D001254FF08040CF
:1004D000848C00204FF080418884002D3FD0B4F5FB
:1004E000967F57DD5D480078182853DD5C4800682A
:1004F00040085B4908600846006820F07F400860BB
:10050000084600685749084223D0554800685649B4
:10051000096888420CD155480078401C534908703E
:100520004F480068524908600120524908700DE0A8
:1005300000204E4908704A4800684B490860484806
:1005400000684B49086001204A49087000204A4968
:100550000860002042490860404908701AE0152CE4
:1005600001DBD22C05DD00203C4908703C490860C5
:1005700010E03B480068400039490860552C04DD14
:100580000846006840F00100086034480078401CCC
:10059000324908704FF4004003F03DFB70BD08B5D0
:1005A0000121042003F063FE4FF40040ADF8000089
:1005B00048208DF8030069462748083803F094FB6B
:1005C00008BD10B586B00024FFF7E9FF01210846F9
:1005D00003F04DFE0F21002003F09AFC4FF4004081
:1005E000049000208DF8140010208DF815000120D3
:1005F0008DF8160004A803F097FA28208DF80C0057
:1006000000208DF80D008DF80E0001208DF80F00F0
:1006100003A803F012FA0121084603F035FE17483B
:1006200000681749B0FBF1F0401E84B24FF6FF702E
:10063000ADF80400ADF800400020ADF80600ADF8BC
:10064000020069464FF0804003F050FF0121880707
:1006500004F0A8FA06B010BD0808014024000020EC
:100660001C000020F0FFFF002000002026000020DA
:10067000100000202500002088000020C00000207D
:10068000A086010005E0022100BF4A1E92B21100BF
:10069000FBD10200A0F1010398B2F4D1704708B574
:1006A0000121082003F0E3FD10208DF80300032052
:1006B0008DF802004FF47870ADF800006946FE48EE
:1006C00003F012FB48208DF803001020ADF8000065
:1006D0006946F94803F008FB08BD30B50446002020
:1006E000F6490860054618E00020F549086014F056
:1006F000010F04D00120A1F10401086002E00020F4
:10070000F04908604FF00500FFF7BCFF0120EC49FD
:1007100008604FEA640405F10105082DE4D30020C8
:10072000E7490860E849C1F8A00130BD30B504468A
:100730000020E6490860054617E00020E04908600F
:1007400014F0010F03D00120DE49086002E0002010
:10075000DC4908604FF00500FFF794FF0120D849FD
:1007600008604FEA640405F10105082DE5D3002077
:10077000D3490860D449C1F8A00130BD30B5044662
:100780000020D3490860054617E00020CC490860E6
:1007900014F0010F03D00120CA49086002E00020D4
:1007A000C84908604FF00500FFF76CFF0120C449FD
:1007B00008604FEA640405F10105082DE5D3002027
:1007C000BF490860C049C1F8A00130BD10B504465A
:1007D0000120BA4908604FF00500FFF753FF0020E1
:1007E000B949C1F894012046FFF777FF10BDF8B56D
:1007F000FF26002000904220FFF7E8FF0120B549C6
:1008000008604FF00004CEE000251BE00020AC495A
:1008100008601DF804004FEA60000DF804004FF076
:100820000100A949C1F8A401AA48006828B11DF82F
:10083000040040F080000DF804000520FFF722FFBF
:10084000681CC5B2082DE1DB0520FFF71BFF9DF8F2
:10085000000048B99DF8010030B99DF8020018B9B0
:100860009DF8030000286ED09DF80000102818D0D5
:1008700008DC01280DD002280DD004280DD008284E
:1008800017D10CE020280ED040280ED0802810D19F
:100890000DE019260EE011260CE009260AE00126DB
:1008A00008E01A2606E0122604E00A2602E00226E4
:1008B00000E000BF00BF9DF80100102818D008DC40
:1008C00001280DD002280DD004280DD0082817D1FA
:1008D0000CE020280ED040280ED0802810D10DE04A
:1008E0001B260EE013260CE00B260AE0032608E088
:1008F0001C2606E0142604E00C2602E0042600E094
:1009000000BF00BF9DF80200102818D008DC0128A5
:100910000DD002280DD004280DD0082818D10CE0E5
:1009200020280ED040280FD0802811D10EE01D269F
:100930000FE015260DE00D260BE0052609E01E262A
:1009400007E0162605E02CE00E2602E0062600E071
:1009500000BF00BF9DF80300102818D008DC012854
:100960000DD002280DD004280DD0082817D10CE096
:1009700020280ED040280ED0802810D10DE01F2650
:100980000EE017260CE00F260AE0072608E02026D6
:1009900006E0182604E0102602E0082600E000BF6A
:1009A00000BF601CC4B2042CFFF62EAF00204449E7
:1009B00008604549C1F810014FF001003F49086047
:1009C0003046F8BD10B504460120404908604FF09C
:1009D0000500FFF757FE00203B49C1F8980120466B
:1009E000FFF7A4FE10BD10B5044601203849086089
:1009F0004FF00500FFF746FE00203349C1F89C0187
:100A00002046FFF7BBFE10BD10B54020FFF7DEFE0D
:100A1000C020FFF7DBFE00240AE02F49085DFFF746
:100A20005CFE2D490831085DFFF757FE601CC4B21B
:100A3000082CF2DB8C20FFF7C9FE01201F4908605B
:100A40004FF04000FFF7BEFFC020FFF7BBFF0024C0
:100A50000BE021491031085DFFF768FE1E4918318F
:100A6000085DFFF763FE601CC4B2082CF1DB8C202C
:100A7000FFF7A8FF0120154908604FF04000FFF77D
:100A8000B2FFC020FFF7AFFF00240BE01249203176
:100A9000085DFFF773FE10492831085DFFF76EFE11
:100AA000601CC4B2082CF1DB8C20FFF79CFF0120F6
:100AB0000749086010BD0000000C014094812142EC
:100AC000A4812142A08121420080214298812142BB
:100AD0009C81214210812142D800002010B5302194
:100AE000D64804F034FE10BD10B50446FFF7F6FFFB
:100AF000D348C07BD1494870D148005D0870FFF7EA
:100B000083FF10BD10B50446FFF7E8FFCC48807B9B
:100B1000CA494870CA48005D0870FFF775FF10BDEC
:100B200010B50446FFF7DAFF20780A2190FBF1F0B8
:100B3000C349095CC148C17220780A2190FBF1F2D7
:100B400001FB1200BE49095CBC48817260780A2131
:100B500090FBF1F0BA49095CB848417260780A210B
:100B600090FBF1F201FB1200B549085CB349087231
:100B7000A0780A2190FBF1F0B149085CAF49C87137
:100B8000A0780A2190FBF1F201FB1200AC49085C4D
:100B9000AA498871E0780A2190FBF1F0A849085C25
:100BA000A6494871E0780A2190FBF1F201FB12009E
:100BB000A349085CA149087120790A2190FBF1F052
:100BC0009F49085C9D49C87020790A2190FBF1F289
:100BD00001FB12009A49085C9849887060790A21E3
:100BE00090FBF1F09649085C9449487060790A21BD
:100BF00090FBF1F201FB12009149085C8F490870EB
:100C0000E0798F49095C8D480173FFF7FDFE10BD47
:100C100010B58C48007848B90020884948700870A1
:100C2000FFF7F2FE01208749087005E08648FFF7CC
:100C300077FF00208349087010BD10B58348007805
:100C400048B900207D49C8708870FFF7DDFE01209B
:100C50007E49087005E07C48FFF762FF00207B4971
:100C6000087010BD10B57A48007848B90020734963
:100C700048710871FFF7C8FE01207549087005E04A
:100C80007148FFF74DFF00207149087010BD10B585
:100C90007048007848B900206849C8718871FFF72A
:100CA000B3FE01206B49087005E06748FFF738FF85
:100CB00000206849087010BD10B56748007858B921
:100CC00000215E48417200205C490872FFF79CFEDB
:100CD00001206149087005E05B48FFF721FF002013
:100CE0005D49087010BD10B55C48007840B900211E
:100CF00052480173FFF788FE01205849087005E04B
:100D00005148FFF70DFF00205449087010BD10B581
:100D10000446FFF7E3FE20784949085C4749C8705C
:100D200060784749085C45498870A0784449085C68
:100D300042494870E0784249085C40490870FFF732
:100D400063FE10BD10B50446FFF7C8FE0A2094FBF1
:100D5000F0F03B49085C394948700A2094FBF0F1F7
:100D600000FB11403649085C34490870FFF74CFE1F
:100D700010BD10B50446FFF7B1FE0A2094FBF0F158
:100D800000FB11402E49085C2C490870FFF73CFE1F
:100D900010BD10B504463248007840B900202749FC
:100DA0000870FFF731FE01202D49087005E020464C
:100DB000FFF7ADFF00202A49087010BD10B50446AA
:100DC0002848007840B900201C494870FFF71CFEF5
:100DD00001202449087005E02046FFF798FF002015
:100DE0002049087010BD10B504461F48007840B96E
:100DF000002012498870FFF707FE01201A49087089
:100E000005E02046FFF783FF00201749087010BD5A
:100E100010B504461548007840B900200749C8704D
:100E2000FFF7F2FD01201149087005E02046FFF7A9
:100E30006EFF00200D49087010BD0000D800002092
:100E4000965800082F0000202700002030000020C6
:100E50003100002032000020330000203400002048
:100E60003500002036000020370000203800002028
:100E700008B50121082003F0FAF914208DF80300C9
:100E800003208DF802008002ADF800006946FC489E
:100E900002F02AFF10208DF803000002ADF80000D8
:100EA0006946F74802F020FF0120F6490860F6493C
:100EB000C1F8AC014FF00000F449086008BD06E03D
:100EC000072100BF0A00A1F10103D9B2FAD1020043
:100ED000A0F1010398B2F3D1704710B50120EC499D
:100EE00008604FF00500FFF7EAFF0120E649C1F86E
:100EF000A8010520FFF7E3FF0020E54908604FF057
:100F00000500FFF7DCFF0020DF49C1F8A80105203C
:100F1000FFF7D5FF10BD70B5044600251FE014F0A3
:100F2000800F03D00120DA49086002E00020D84990
:100F300008604FF00200FFF7C2FF0120D3490860AC
:100F40004FF00200FFF7BBFF6006040E0020CE4901
:100F5000C1F8A8010220FFF7B2FF681CC5B2082D36
:100F6000DDDB0120CA4908604FF00200FFF7A7FF50
:100F70000120C549C1F8A8010220FFF7A0FFC5481C
:100F8000006808B1012070BD0020C04908604FF022
:100F90000200FFF794FF0020BB49C1F8AC0102201A
:100FA000FFF78DFF0020EEE770B500240120B8495F
:100FB00008604FF0000517E06006040E0120B349F9
:100FC00008604FF00200FFF77AFFAF48D0F82C011D
:100FD00008B144F001040020AC4908604FF0020061
:100FE000FFF76DFF681CC5B2082DE5DB204670BD1C
:100FF00010B50020A54908604FF00500FFF75FFF1E
:101000000020A149C1F8AC010520FFF758FF0120DD
:101010009E4908604FF00500FFF751FF01209A49F3
:10102000C1F8AC010520FFF74AFF10BD2DE9F041E2
:1010300006460C4617460125FFF74FFFA020FFF795
:101040006AFF054615B10120BDE8F081C6F3042012
:10105000FFF761FF05460DB10120F5E7F0B2FFF79C
:101060005AFF05460DB10120EEE7FFF736FFA1203C
:10107000FFF751FF05460DB10120E5E71AE0FFF744
:1010800093FF20700020824908604FF00500FFF7B1
:1010900016FF01207C49C1F8A8010520FFF70FFFCA
:1010A00000207A4908604FF00500FFF708FF641C34
:1010B000781E87B2012FE2DCFFF776FF2070012057
:1010C000734908604FF00500FFF7F9FE01206E49F3
:1010D000C1F8A8010520FFF7F2FE00206B49086067
:1010E0004FF00500FFF7EBFEFFF782FF0020ABE7B4
:1010F0002DE9F047804689461646012500206149C2
:101100000860044634E008EB040087B2FFF7E5FE10
:10111000A020FFF700FF054615B10120BDE8F087CC
:10112000C7F30420FFF7F7FE05460DB10120F5E7F0
:10113000F8B2FFF7F0FE05460DB10120EEE74FF0E3
:10114000000A0DE019F80400FFF7E5FE05460DB1B1
:101150000120E3E7601C84B20AF1010000F0FF0AFD
:10116000B245EFDBFFF744FF4FF4FA60FFF7A7FE4D
:10117000B442C8DB0120434908604FF00000CDE7CE
:101180002DE9FC4104460026202500271CE008220A
:1011900069462846FFF74AFF019810F07F4F0CD1AF
:1011A0000198616888420AD13B480099016000209B
:1011B000394908710120BDE8FC8106B92E4605F1C8
:1011C000080085B2781C87B2B7F5007FDFDB082204
:1011D00021463046FFF78CFF0EB90120EBE70020D7
:1011E000E9E72DE9FC41044600264FF4426500275B
:1011F0001CE0082269462846FFF718FF019810F006
:101200007F4F0CD10198616888420AD12348009928
:1012100001600020214908710120BDE8FC8106B968
:101220002E4605F1080085B2781C87B2202FE0DB3E
:10123000082221463046FFF75BFF0EB90120ECE79C
:101240000020EAE72DE9FC41044600264FF4026540
:1012500000272EE0082269462846FFF7E7FE01989E
:1012600010F07F4F1ED10198616888421CD10C4854
:101270000099016000200A4908710120BDE8FC8145
:10128000000C0140B081214200802142A88121420E
:10129000AC8121422C8121424800002052000020D4
:1012A0005C00002006B92E4605F1080085B2781CC6
:1012B00087B2402FCEDB082221463046FFF718FFC9
:1012C0000EB90120DAE70020D8E72DE9FC410446F9
:1012D00000264FF4226500271CE0082269462846B4
:1012E000FFF7A4FE019810F07F4F0CD101986168C0
:1012F00088420AD1FE48009901600020FC4908712B
:101300000120BDE8FC8106B92E4605F1080085B232
:10131000781C87B2402FE0DB082221463046FFF7D9
:10132000E7FE0EB90120ECE70020EAE770B58AB0CD
:10133000054620262021684604F009FAFF222021D4
:10134000684604F0FDF9286880B900240BE006EB3C
:10135000441188B220226946FFF7CAFE6420FFF7D5
:10136000AEFD601C84B2802CF1DB22E000241CE086
:10137000082208A93046FFF759FE099810F07F4F60
:101380000ED12868089988420AD1FF22082108A8AE
:1013900004F0D6F9082208A93046FFF7A9FE07E0B5
:1013A00006F1080086B2601C84B2B4F5007FDFDB72
:1013B00000BF00200AB070BD70B58AB005464FF47A
:1013C00042662021684604F0C2F9FF2220216846C7
:1013D00004F0B6F9286880B900240BE006EB44114C
:1013E00088B220226946FFF783FE6420FFF767FD7D
:1013F000601C84B2082CF1DB21E000241CE00822F0
:1014000008A93046FFF712FE099810F07F4F0ED161
:101410002868089988420AD1FF22082108A804F008
:101420008FF9082208A93046FFF762FE06E006F1B0
:10143000080086B2601C84B2202CE0DB00BF0020D4
:101440000AB070BD70B58AB005464FF4026620211F
:10145000684604F07CF9FF222021684604F070F908
:10146000286880B900240BE006EB441188B22022E2
:101470006946FFF73DFE6420FFF721FD601C84B242
:10148000102CF1DB21E000241CE0082208A93046E2
:10149000FFF7CCFD099810F07F4F0ED1286808990E
:1014A00088420AD1FF22082108A804F049F908223D
:1014B00008A93046FFF71CFE06E006F1080086B2D8
:1014C000601C84B2402CE0DB00BF00200AB070BD7D
:1014D00070B58AB005464FF422662021684604F0B4
:1014E00036F9FF222021684604F02AF9286880B9DD
:1014F00000240BE006EB441188B220226946FFF776
:10150000F7FD6420FFF7DBFC601C84B2102CF1DBDC
:1015100021E000241CE0082208A93046FFF786FDE0
:10152000099810F07F4F0ED12868089988420AD197
:10153000FF22082108A804F003F9082208A9304670
:10154000FFF7D6FD06E006F1080086B2601C84B203
:10155000402CE0DB00BF00200AB070BD10B588B0A1
:10156000202264A1684604F0D9F8002408E0002194
:1015700001EB441188B220226946FFF7B9FD641CD3
:10158000A82CF4D308B010BD2DE9FC4105460C464B
:10159000202600271DE0082269463046FFF746FD59
:1015A0005C480078022805D15B4901980840019009
:1015B000084604400198A04206D1DDE90001C5E9D2
:1015C00000010120BDE8FC8106F1080086B2781C0C
:1015D00087B2B7F5007FDEDB0020F3E72DE9FC41A1
:1015E00005460C464FF4026600271DE008226946B6
:1015F0003046FFF71BFD47480078022805D14649D1
:10160000019808400190084604400198A04206D184
:10161000DDE90001C5E900010120BDE8FC8106F11A
:10162000080086B2781C87B2402FDFDB0020F4E789
:101630002DE9FC4105460C464FF4226600271DE0CB
:10164000082269463046FFF7F1FC3248007802284C
:1016500005D131490198084001900846044001989D
:10166000A04206D1DDE90001C5E900010120BDE885
:10167000FC8106F1080086B2781C87B2402FDFDBC0
:101680000020F4E770B504460D4629462046FFF7D2
:10169000CFFF08B1012070BD29462046FFF79EFF0D
:1016A00008B10220F7E729462046FFF76DFF08B191
:1016B0000320F0E70020EEE72DE9FC4105460C464B
:1016C0004FF44266002735E0082269463046FFF7AE
:1016D000ADFC10480078022805D10F490198084058
:1016E0000190084604400198A0421ED116E0000077
:1016F00066000020FFFFFFFFFFFFFFFFFFFFFFFF70
:10170000FFFFFFFFFFFFFFFFFFFFFFFFFFFFFFFFE9
:10171000FFFFFFFF7E000020F0FFFF00DDE900017A
:10172000C5E900010120BDE8FC8106F1080086B290
:10173000781C87B2202FC7DB0020F4E708B5012111
:10174000042002F094FD3320ADF8000048208DF80D
:1017500003006946D74802F0C7FA08BD06E00C212D
:1017600000BF0A00A1F10103D9B2FAD10200A0F131
:10177000010398B2F3D1704710B5FF24CE4800683A
:1017800040B1CE48006828B1CD48006810B1CD48BE
:101790000068F8B942F21070FFF7E0FFC648006831
:1017A00040B1C648006828B1C548006810B1C548B6
:1017B000006878B9C048006800B90124BF480068D3
:1017C00000B90224BE48006800B90324BD4800687F
:1017D00000B90424204610BD10B50020BA49087095
:1017E000FFF7CAFFB949087008460078002877D08B
:1017F00008460078012806D0022872D0032871D04C
:10180000042870D11DE170E0AF48007802286CDD3B
:10181000AF4800784E283BD017DC492830D00BDC8D
:101820000D2824D003DCD0B10C2844D11BE00F28B4
:1018300021D048283FD122E04A2822D04B2821D06D
:101840004C2823D04D2836D121E04F38092832D2F8
:10185000DFE800F01F232425262A2B2C2D00022050
:101860009B49087028E033209949087024E034200F
:101870009749087020E03620954908701CE000BFA9
:1018800000BF00BF9348FFF751FD15E000BF00BF48
:1018900000BF9148FFF790FD0EE000BF00BF00BF02
:1018A0008E48FFF7CFFD07E000BF00BF00BF8C48A8
:1018B000FFF70EFE00E000BF00BF8548007800EB98
:1018C0004000884901EB800080688749086008462D
:1018D0000068804700BF784800680028FBD010BD32
:1018E000E5E074E090E0CCE0FFE773480068E8BB17
:1018F00077480078002887D0754800780C2883D076
:10190000734800780D28F6D0714800784828F2D046
:101910006F4800784928EED06D4800784A28EAD010
:101920006B4800784B28E6D0694800784C28E2D014
:10193000674800784D28DED0654800784E28DAD018
:10194000634800784F28D6D0614800785028D2D01C
:101950005F4800785128CED05D4800785228CAD020
:101960005B4800785328C6D0594800E012E0007860
:101970005428C0D0564800785528BCD05448007828
:101980005628B8D0524800785728B4D0504800782C
:101990000F28B0D04E48007800EB4000514901EBD1
:1019A000800040784A4908700846007800EB400003
:1019B0004C4901EB800080684B490860084600688C
:1019C000804700BF3C4800680028FBD06EE04048DC
:1019D000007800EB4000434901EB800080783C49EF
:1019E00008700846007800EB40003E4901EB80009B
:1019F00080683D49086008460068804700BF2F485E
:101A000000680028FBD051E03148007800EB40002E
:101A1000344901EB8000C0782D49087008460078F1
:101A200000EB40002F4901EB800080682E490860E0
:101A300008460068804700BF214800680028FBD0A6
:101A400034E00020294908702148007800EB40006C
:101A5000244901EB800000791D4908700846007890
:101A600000EB40001F4901EB800080681E490860C0
:101A700008460068804700BF124800680028FBD075
:101A800014E01B48007801280FD100201849087085
:101A90000F48007800EB4000124901EB800080689D
:101AA0001149086008460068804700BF00BF00BFBA
:101AB00015E7000000080140000121420401214215
:101AC0001001214214012142080000203D000020A5
:101AD0003C0000204D000020570000206100002045
:101AE0006B000020C858000840000020250000209E
:101AF00001000020C178092923D1817809291AD150
:101B00004178092910D10178491C017000214170E8
:101B100081700178152904D1002101700121C17063
:101B200012E00121C1700FE04178491C4170002191
:101B30008170C17008E08178491C81700021C170FA
:101B400002E0C178491CC170704710B5FA480078AE
:101B500078B9FEF7C3FF4020F849097801F0030186
:101B6000F74A5054FEF750FFF4480078401CF34900
:101B70000870F4480078032802D101F039FF0CE026
:101B8000F0480078022802D101F0FFFE05E0ED48A0
:101B90000078042801D101F0F1FE10BD10B500203D
:101BA000FEF7A2FF10BD10B50120FEF79DFF10BD8E
:101BB00010B50220FEF798FF10BD10B50320FEF708
:101BC00093FF10BD10B50420FEF78EFF10BD10B5B9
:101BD0000520FEF789FF10BD10B50620FEF784FF33
:101BE00010BD10B50720FEF77FFF10BD10B508200F
:101BF000FEF77AFF10BD10B50920FEF775FF10BD86
:101C000010B50A20FEF770FF10BD10B50B20FEF7CF
:101C10006BFF10BD10B50C20FEF766FF10BD10B5B0
:101C20000D20FEF761FF10BD10B50E20FEF75CFF22
:101C300010BD10B5FEF7ECFFC2480078032810D1A4
:101C4000C14840793B2803D10020BF49487104E0D6
:101C5000BD484079401CBC494871BB48FEF760FF55
:101C600012E0B848007802280ED1B748407918B978
:101C70003B20B549487104E0B3484079401EB24961
:101C80004871B148FEF74CFF10BD10B5FEF7D5FF07
:101C9000AC480078032810D1AB480079172803D14D
:101CA0000020A949087104E0A7480079401CA64912
:101CB0000871A548FEF734FF12E0A2480078022818
:101CC0000ED1A148007918B917209F49087104E086
:101CD0009D480079401E9C4908719B48FEF720FFF3
:101CE00010BD10B5FEF7BEFF96480078032810D14E
:101CF0009548C0781F2803D101209349C87004E09B
:101D00009148C078401C9049C8708F48FEF708FF82
:101D100013E08C48007802280FD18B48C078012846
:101D200003D11F208849C87004E08748C078401E4E
:101D30008549C8708448FEF7F3FE10BD10B5FEF764
:101D4000A6FF80480078032810D17F4880780C28AF
:101D500003D101207C49887004E07B488078401CD6
:101D6000794988707848FEF7DBFE13E07548007803
:101D700002280FD174488078012803D10C207249C1
:101D8000887004E070488078401E6F4988706E4803
:101D9000FEF7C6FE10BD10B5FEF78EFF694800784D
:101DA000032810D168484078632803D10020664991
:101DB000487004E064484078401C634948706248B9
:101DC000FEF7AEFE12E05F48007802280ED15E48B2
:101DD000407818B963205C49487004E05A4840785C
:101DE000401E594948705848FEF79AFE10BD10B57C
:101DF000FEF779FF53480078032810D15248C07984
:101E0000072803D100205049C87104E04E48C0792A
:101E1000401C4D49C8714C48FEF782FE13E049480A
:101E2000007802280FD14848C079012803D1072043
:101E30004549C87104E04448C079401E4249C87110
:101E40004148FEF76DFE10BD10B50120FEF75AFEA9
:101E500010BD10B50220FEF755FE10BD10B50320D1
:101E6000FEF750FE10BD10B50420FEF74BFE10BD6E
:101E700010B50120FEF746FE10BD10B50220FEF79A
:101E800041FE10BD10B50320FEF73CFE10BD10B59D
:101E90000420FEF737FE10BD10B50120FEF732FE1C
:101EA00010BD10B50220FEF72DFE10BD10B525485F
:101EB000007803280DD125480078632803D100203D
:101EC0002249087015E021480078401C1F4908701D
:101ED0000FE01C48007802280BD11C48007818B984
:101EE00063201A49087004E018480078401E17491A
:101EF000087016480078FEF725FF10BD10B5114890
:101F0000007803280DD112480078632803D10020FF
:101F10000F49087023E00E480078401C0C490870F7
:101F20001DE008480078022819D10948007888B9CE
:101F300063200749087012E008010020800000209B
:101F4000D80000203D000020270000204400002091
:101F500045000020F6480078401EF5490870F44816
:101F60000078FEF7EFFE10BD10B50120FEF7CAFDA8
:101F700010BD10B50220FEF7C5FD10BD10B5032041
:101F8000FEF7C0FD10BD10B50420FEF7BBFD10BD6F
:101F900010B50520FEF7B6FD10BD10B50620FEF702
:101FA000B1FD10BD10B50720FEF7ACFD10BD10B59A
:101FB0000820FEF7A7FD10BD10B50120FEF7A2FD19
:101FC00010BD10B50220FEF79DFD10BD10B5032019
:101FD000FEF798FD10BD10B50420FEF793FD10BD6F
:101FE00010B50120FEF78EFD10BD10B50220FEF7E2
:101FF00089FD0020CF49087010BD10B50120FEF703
:1020000081FD10BD10B50220FEF77CFD10BD7047AC
:1020100010B5C948007803280BD1C84800780128BA
:1020200003D10020C549087012E00120C34908709F
:102030000EE0C148007802280AD1C0480078012883
:1020400003D10020BD49087002E00120BB4908709F
:10205000BA480078FEF78DFE10BD10B5B64800787E
:1020600003280BD1B6480078012803D10020B449D9
:10207000087012E00120B24908700EE0AE48007806
:1020800002280AD1AE480078012803D10020AC49CB
:10209000087002E00120AA490870A9480078FEF7FC
:1020A00068FE10BD704710B50120FEF72BFD10BD76
:1020B00010B50220FEF726FD10BD10B5A148FEF7B1
:1020C00068FE9D480078032810D19E48C0780928F2
:1020D00003D100209B49C87004E09A48C078401C96
:1020E0009849C8709748FEF712FE12E092480078AF
:1020F00002280ED19348C07818B909209149C870B8
:1021000004E09048C078401E8E49C8708D48FEF7A4
:10211000FEFD10BD10B58B48FEF750FE86480078D6
:10212000032810D187488078092803D100208549E9
:10213000887004E083488078401C82498870814818
:10214000FEF7E5FD12E07C48007802280ED17D48BC
:10215000807818B909207B49887004E07948807834
:10216000401E784988707748FEF7D1FD10BD10B544
:102170007448FEF738FE70480078032810D1714883
:102180004078092803D100206E49487004E06D486A
:102190004078401C6B4948706A48FEF7B8FD12E071
:1021A0006548007802280ED16648407818B90920A1
:1021B0006449487004E063484078401E61494870B3
:1021C0006048FEF7A4FD10BD10B55E48FEF720FE86
:1021D00059480078032810D15A480078092803D1BB
:1021E00000205849087004E056480078401C5549C2
:1021F00008705448FEF78BFD12E04F480078022823
:102200000ED15048007818B909204E49087004E0F2
:102210004C480078401E4B4908704A48FEF777FD4D
:1022200010BD10B54848FEF7B4FD434800780328B8
:1022300010D14548C078092803D100204249C87010
:1022400004E04148C078401C3F49C8703E48FEF752
:102250005EFD12E03848007802280ED13A48C07876
:1022600018B909203849C87004E03748C078401EC2
:102270003549C8703448FEF74AFD10BD10B53248E4
:10228000FEF79CFD2C480078032810D12E4880785A
:10229000092803D100202C49887004E02A4880785E
:1022A000401C294988702848FEF731FD12E0224879
:1022B000007802280ED12448807818B909202249D4
:1022C000887004E020488078401E1F4988701E48AE
:1022D000FEF71DFD10BD10B51B48FEF784FD164826
:1022E0000078032810D118484078092803D100202D
:1022F0001549487004E014484078401C1249487061
:102300001148FEF704FD12E00B48007802280ED1B8
:102310000D48407818B909200B49487004E00A4874
:102320004078401E084948700748FEF7F0FC10BD91
:10233000450000207F0000203D00002047000020D5
:1023400046000020480000205200002010B5F74849
:10235000FEF75EFDF6480078032810D1F3480078B8
:10236000092803D10020F149087004E0EF48007803
:10237000401CEE490870ED48FEF7C9FC12E0EC483D
:10238000007802280ED1E948007818B90920E749F9
:10239000087004E0E5480078401EE4490870E3480E
:1023A000FEF7B5FC10BD10B5E248FEF7F2FCE048C0
:1023B0000078032810D1DF48C078092803D1002015
:1023C000DC49C87004E0DB48C078401CD949C870BB
:1023D000D848FEF79CFC12E0D548007802280ED1C0
:1023E000D448C07818B90920D249C87004E0D1484F
:1023F000C078401ECF49C870CE48FEF788FC10BD9B
:1024000010B5CC48FEF7DAFCC9480078032810D193
:10241000C8488078092803D10020C649887004E0A4
:10242000C4488078401CC3498870C248FEF76FFCDE
:1024300012E0BF48007802280ED1BE48807818B953
:102440000920BC49887004E0BA488078401EB94928
:102450008870B848FEF75BFC10BD10B5B548FEF7B4
:10246000C2FCB3480078032810D1B248407809284C
:1024700003D10020AF49487004E0AE484078401CCA
:10248000AC494870AB48FEF742FC12E0A84800781F
:1024900002280ED1A748407818B90920A5494870EC
:1024A00004E0A4484078401EA2494870A148FEF7C5
:1024B0002EFC10BD10B59F48FEF7AAFC9C48007882
:1024C000032810D19B480078092803D1002099499E
:1024D000087004E097480078401C964908709548B9
:1024E000FEF715FC12E09248007802280ED19148C0
:1024F000007818B909208F49087004E08D480078E9
:10250000401E8C4908708B48FEF701FC10BD10B5C9
:102510008948FEF73EFC86480078032810D186489B
:10252000C078092803D100208349C87004E082489C
:10253000C078401C8049C8707F48FEF7E8FB12E075
:102540007B48007802280ED17B48C07818B9092052
:102550007949C87004E07848C078401E7649C87050
:102560007548FEF7D4FB10BD10B57348FEF726FC86
:102570006F480078032810D16F488078092803D16C
:1025800000206D49887004E06B488078401C6A49DF
:1025900088706948FEF7BBFB12E0654800780228A6
:1025A0000ED16548807818B909206349887004E025
:1025B00061488078401E604988705F48FEF7A7FB3D
:1025C00010BD10B55C48FEF70EFC59480078032892
:1025D00010D159484078092803D100205649487045
:1025E00004E055484078401C534948705248FEF773
:1025F0008EFB12E04E48007802280ED14E484078FB
:1026000018B909204C49487004E04B484078401EF6
:10261000494948704848FEF77AFB10BD10B5464856
:10262000FEF7F6FB42480078032810D142480078B4
:10263000092803D100204049087004E03E48007892
:10264000401C3D4908703C48FEF761FB12E03848E9
:10265000007802280ED13848007818B90920364988
:10266000087004E034480078401E3349087032484E
:10267000FEF74DFB10BD10B53048FEF78AFB2C4825
:102680000078032810D12D48C078092803D10020F4
:102690002A49C87004E02948C078401C2749C870FE
:1026A0002648FEF734FB12E02148007802280ED1BC
:1026B0002248C07818B909202049C87004E01F4892
:1026C000C078401E1D49C8701C48FEF720FB10BD95
:1026D00010B51A48FEF772FB15480078032810D190
:1026E00016488078092803D100201449887004E036
:1026F00012488078401C114988701048FEF707FB8B
:1027000012E00B48007802280ED10C48807818B9E6
:1027100009200A49887004E008488078401E07496B
:1027200088700648FEF7F3FA10BD00005200002042
:102730003D0000205C000020660000204D000020CD
:1027400010B5F748FEF74FFBF6480078032810D184
:10275000F3484078092803D10020F149487004E08B
:10276000EF484078401CEE494870ED48FEF7CFFA3C
:1027700012E0EC48007802280ED1E948407818B9F8
:102780000920E749487004E0E5484078401EE449E4
:102790004870E348FEF7BBFA10BD10B5E048FEF7FD
:1027A00037FBE0480078032810D1DD48007809287D
:1027B00003D10020DA49087004E0D9480078401CB1
:1027C000D7490870D648FEF7A2FA12E0D54800783B
:1027D00002280ED1D248007818B90920D0490870D3
:1027E00004E0CF480078401ECD490870CC48FEF781
:1027F0008EFA10BD10B5CC48FEF7CBFAC948007868
:10280000032810D1C848C078092803D10020C64940
:10281000C87004E0C448C078401CC349C870C248AE
:10282000FEF775FA12E0BF48007802280ED1BE48C4
:10283000C07818B90920BC49C87004E0BA48C0780B
:10284000401EB949C870B848FEF761FA10BD10B50E
:10285000B548FEF7B3FAB3480078032810D1B24860
:102860008078092803D10020AF49887004E0AE4881
:102870008078401CAC498870AB48FEF748FA12E0FB
:10288000A848007802280ED1A748807818B90920F6
:10289000A549887004E0A4488078401EA249887049
:1028A000A148FEF734FA10BD10B59F48FEF79BFA19
:1028B0009C480078032810D19B484078092803D110
:1028C00000209949487004E097484078401C964998
:1028D00048709548FEF71BFA12E0924800780228EB
:1028E0000ED19148407818B909208F49487004E00A
:1028F0008D484078401E8C4948708B48FEF707FA97
:1029000010BD10B58848FEF783FA86480078032882
:1029100010D185480078092803D100208249087029
:1029200004E081480078401C7F4908707E48FEF72B
:10293000EEF912E07B48007802280ED17A48007840
:1029400018B909207849087004E077480078401EDB
:10295000754908707448FEF7DAF910BD10B5734870
:10296000FEF717FA6F480078032810D16F48C07837
:10297000092803D100206D49C87004E06B48C07875
:10298000401C6A49C8706948FEF7C1F912E0654801
:10299000007802280ED16548C07818B9092063492B
:1029A000C87004E06148C078401E6049C8705F4844
:1029B000FEF7ADF910BD10B55C48FEF7FFF95948B8
:1029C0000078032810D159488078092803D10020C5
:1029D0005649887004E055488078401C53498870F7
:1029E0005248FEF794F912E04E48007802280ED1C2
:1029F0004E48807818B909204C49887004E04B484B
:102A00008078401E494988704848FEF780F910BD1B
:102A100010B54648FEF7E7F942480078032810D180
:102A200042484078092803D100204049487004E01A
:102A30003E484078401C3D4948703C48FEF767F9E5
:102A400012E03848007802280ED13848407818B98A
:102A500009203649487004E034484078401E334924
:102A600048703248FEF753F910BD10B52F48FEF7F5
:102A7000CFF92C480078032810D12C480078092879
:102A800003D100202949087004E028480078401C40
:102A9000264908702548FEF73AF912E021480078E7
:102AA00002280ED12148007818B909201F49087062
:102AB00004E01E480078401E1C4908701B48FEF7C1
:102AC00026F910BD10B51A48FEF763F915480078CD
:102AD000032810D11648C078092803D100201449D2
:102AE000C87004E01248C078401C1149C8701048F2
:102AF000FEF70DF912E00B48007802280ED10C48C1
:102B0000C07818B909200A49C87004E00848C0789C
:102B1000401E0749C8700648FEF7F9F810BD0000CE
:102B20004D0000203D0000205700002061000020E3
:102B30006B00002010B5F948FEF740F9F84800781E
:102B4000032810D1F5488078092803D10020F349E3
:102B5000887004E0F1488078401CF0498870EF48A4
:102B6000FEF7D5F812E0EE48007802280ED1EB48C7
:102B7000807818B90920E949887004E0E74880782E
:102B8000401EE6498870E548FEF7C1F810BD10B553
:102B9000E248FEF728F9E2480078032810D1DF4820
:102BA0004078092803D10020DC49487004E0DB4864
:102BB0004078401CD9494870D848FEF7A8F812E080
:102BC000D748007802280ED1D448407818B9092097
:102BD000D249487004E0D1484078401ECF4948703F
:102BE000CE48FEF794F810BD10B5CC48FEF710F9AA
:102BF000CB480078032810D1C8480078092803D1B1
:102C00000020C649087004E0C4480078401CC3494D
:102C10000870C248FEF77BF812E0C148007802282D
:102C20000ED1BE48007818B90920BC49087004E0EC
:102C3000BA480078401EB9490870B848FEF767F8EE
:102C400010BD10B5B648007803280BD1B548007800
:102C5000012803D10220B349087012E00120B149D4
:102C600008700EE0AE48007802280AD1AD4800781E
:102C7000012803D10220AB49087002E00120A949D4
:102C80000870A8480078FEF774F810BD10B5A44885
:102C9000007803280DD1A4480078632803D10020D0
:102CA000A149087015E0A0480078401C9E490870B2
:102CB0000FE09B48007802280BD19B48007818B998
:102CC00063209949087004E097480078401E9649AF
:102CD000087095480078FEF735F810BD10B590489B
:102CE000007803280DD191480078072803D10020EF
:102CF0008E49087015E08D480078401C8B4908709B
:102D00000FE08748007802280BD18848007818B96E
:102D100007208649087004E084480078401E8349F3
:102D2000087082480078FEF724F810BD10B57C4882
:102D3000007803280DD17E480078092803D10120AE
:102D40007B49087016E07A480078401C7849087082
:102D500010E07348007802280CD1754800780128EB
:102D600003D109207249087004E071480078401EC0
:102D70006F4908706E480078FDF7FBFF10BD10B575
:102D80006748007803280BD16A480078012803D1EE
:102D900000206849087012E00120664908700EE0C2
:102DA0005F48007802280AD162480078012803D1E0
:102DB00000206049087002E001205E4908705D480B
:102DC0000078FDF7D6FF10BD10B5554800780328F0
:102DD0000DD159480078092803D1012056490870BF
:102DE00016E055480078401C5349087010E04C48E4
:102DF000007802280CD150480078012803D109201E
:102E00004D49087004E04C480078401E4A4908705B
:102E100049480078FDF7ADFF10BD10B54048007877
:102E200003280DD145480078072803D101204349E4
:102E3000087016E041480078401C4049087010E0D6
:102E40003748007802280CD13C480078012803D18B
:102E500007203A49087004E038480078401E374996
:102E6000087036480078FDF784FF10BD10B52C4877
:102E7000007803280BD132480078012803D10020C4
:102E80002F49087012E001202D4908700EE02448F7
:102E9000007802280AD12A480078012803D10020AE
:102EA0002749087002E0012025490870244800786D
:102EB000FDF75FFF10BD10B51948007803280BD14E
:102EC00020480078012803D100201E49087012E034
:102ED00001201C4908700EE01148007802280AD130
:102EE00018480078012803D100201649087002E034
:102EF00001201449087013480078FDF73AFF10BD0F
:102F000010B507480078032824D10F48007801281D
:102F10001CD100200C4908702BE000006B00002041
:102F20003D00002070000020710000207200002091
:102F3000730000207400002075000020760000203F
:102F400077000020780000207900002001209049BF
:102F500008700EE08F48007802280AD18C4800786B
:102F6000012803D100208A49087002E00120884925
:102F7000087087480078FDF7FCFE10BD10B5854845
:102F8000007803280DD1844800780B2803D1002055
:102F90008149087015E080480078401C7E4908701F
:102FA0000FE07C48007802280BD17B48007818B9E4
:102FB0000B207949087004E077480078401E764974
:102FC000087075480078FDF7BDFE10BD10B571485A
:102FD000007803280DD1714800780B2803D1002018
:102FE0006E49087015E06D480078401C6B49087008
:102FF0000FE06848007802280BD16848007818B9BB
:103000000B206649087004E064480078401E63495C
:10301000087062480078FDF795FE10BD10B55D4858
:10302000007803280DD15E4800780B2803D10020DA
:103030005B49087015E05A480078401C58490870F0
:103040000FE05448007802280BD15548007818B991
:103050000B205349087004E051480078401E504945
:1030600008704F480078FDF76DFE10BD10B5494857
:10307000007803280DD14B4800780B2803D100209D
:103080004849087015E047480078401C45490870D9
:103090000FE04048007802280BD14248007818B968
:1030A0000B204049087004E03E480078401E3D492E
:1030B00008703C480078FDF745FE10BD10B5354856
:1030C000007803280BD138480078012803D102206A
:1030D0003549087012E00120334908700EE02D4890
:1030E000007802280AD130480078012803D1022054
:1030F0002D49087002E001202B4908702A48007809
:10310000FDF737FE10BD10B52248007803280DD119
:1031100026480078262803D100202449087015E0AD
:1031200022480078401C214908700FE019480078B7
:1031300002280BD11D48007818B926201B490870B9
:1031400004E01A480078401E1849087017480078B3
:10315000FDF7F8FD10BD10B50E480078032802D128
:1031600000F046FC0CE00B480078022802D100F089
:103170000CFC05E007480078042801D100F0FEFBB4
:103180000B48007810B900200A49087010BD0000F3
:10319000790000203D0000207A0000207B00002004
:1031A0007C0000207D0000207E0000207F000020A9
:1031B000080100203C0000204A78FB4B9A5CA0F1FB
:1031C0000300C2708A789A5C8270CA789A5C4270F6
:1031D0000A799A5C00F8032BCA7902F00F02A2F177
:1031E0000202072A42D2DFE802F0041023414133F1
:1031F0003A0010F8032D42F080020270427842F04B
:103200008002427000F1030031E010F8032D42F01B
:1032100080020270427842F080024270827842F06E
:1032200080028270C27842F0800200F8032F1EE014
:1032300010F8032D42F080020270427842F08002C2
:103240004270827842F08002827000F103000EE04A
:1032500010F8022C42F0800200F8022C07E010F86F
:10326000032C42F0800200F8032C00E000BF00BFF6
:10327000704710B5FDF732FCCC4890F8580020B1EB
:10328000CA495831CA48FFF797FFC84890F850001C
:1032900028B1C6495031C648001FFFF78DFFC3480B
:1032A00090F8480028B1C1494831C1480838FFF7B3
:1032B00083FFBE4890F8400028B1BC494031BC486B
:1032C0000C38FFF779FFB94890F8380028B1B749B2
:1032D0003831B7481038FFF76FFFB44890F8300026
:1032E00028B1B2493031B2481438FFF765FFAF4812
:1032F00090F8280028B1AD492831AD481838FFF7BB
:103300005BFFAA4890F8200028B1A8492031A848BE
:103310001C38FFF751FFA548007E28B1A34918319A
:10332000A3482038FFF748FFA048007C28B19F49F8
:1033300010319F482438FFF73FFF9C48007A28B19E
:103340009A4908319A482838FFF736FF974800789D
:1033500020B1964996482C38FFF72EFFFDF754FB15
:1033600010BD81680160C1684160704702469148A4
:103370000378002106E012F8310008B908467047CA
:10338000481CC1B28B4800788142F4DB1846F6E74E
:103390002DE9F04106468548FFF7E8FF05462F4630
:1033A00000240CE0D6F80100804901EBC401D1F8FB
:1033B0000110884201D1E5B203E0601C44B2AC4286
:1033C000F0DB00BFBD4211D06CB206E0774901EBE3
:1033D000C400FFF7C6FF601C44B2781EA042F5DCB3
:1033E000724800EBC400002101604160FFF741FF1B
:1033F000BDE8F08170B505462846FFF7B7FF0646E1
:10340000002405E005EBC400FFF7ABFF601CC4B26D
:10341000701EA042F6DC05EBC40000210160416093
:1034200070BD70B505460C462046FFF79FFF064667
:103430006048007886420CD12046FFF7DBFF5D48EC
:103440000078401E04EBC000296801606968416093
:1034500005E004EBC600296801606968416070BD41
:10346000016881604168C160704770B505462846B3
:10347000FFF77CFF06464F480078864201D1701E58
:10348000C6B2701E44B205E005EBC400FFF7E8FFCA
:10349000601E44B2002CF7DA00202860686070BD1E
:1034A00070B505460C462046FFF7DFFF2868206010
:1034B0006868606070BD2DE9F04106463B48FFF743
:1034C00055FF05462F4600240CE0D6F80100374989
:1034D00001EBC401D1F80110884201D1E5B203E04B
:1034E000601C44B2AC42F0DB00BFBD421CD032488D
:1034F0000078012816D1681EC5B26CB206E02B49CF
:1035000001EBC400FFF7ACFF601E44B2002CF6DAFA
:1035100026483168016071684160FFF7AAFE01200A
:10352000BDE8F0810120FBE70020F9E7234A12788B
:10353000012A05D101F00F02214B9A5C027004E0D0
:1035400001F00F021F4B9A5C027070477FB5044672
:103550000D46089E012E02D13320207008E0022E75
:1035600002D13420207003E029462046FFF7DEFF19
:103570000298C4F80100280C6071280AA071E57156
:103580007FBDC1F303524270C1F303428270C1F3A5
:103590000332C270C1F3032202710A0C42710A0A9B
:1035A0008271C17170470000965800080801002020
:1035B0000701002071000020700000207E00002024
:1035C0008C0000209C000020014611F0F00F04D177
:1035D000F7480078B0EB115F06D0F54800780B286B
:1035E00004D111F0F00F01D1012070470020FCE759
:1035F00030B585B00025EF4804682046FFF7E4FFAA
:1036000038B3214601A8FFF791FF214601A8FFF733
:10361000B8FF9DF80400332817D09DF80400A0B12E
:1036200001A8FFF748FF00283ED1E34800780128B1
:1036300004D1E24901A8FFF733FF03E0DF4901A805
:10364000FFF7EFFEFFF715FE2EE001A8FFF7A0FE43
:103650002AE0214603A8FEF715F8054605B30095B4
:10366000214601A8DDE90323FFF770FF9DF8040060
:10367000332816D09DF8040098B101A8FFF71BFF6E
:1036800070B9CD480078012804D1CC4901A8FFF7D2
:1036900007FF03E0C94901A8FFF7C3FEFFF7E9FDF3
:1036A00002E001A8FFF774FE05B030BDC448007801
:1036B000012808D1C3480078BE49097801F00F01FC
:1036C000C14A505407E0BF480078BA49097801F070
:1036D0000F01BE4A505470471CB5BD4800680090A9
:1036E000B448006801906846FDF7EFFD28B9B84876
:1036F000FEF700FA4420B74908701CBD1CB5B64857
:1037000000680090AB48006801906846FDF79AFD9C
:1037100028B9B148FEF7EEF94020AE4908701CBD4B
:103720001CB5AE4800680090A24800680190684649
:10373000FDF757FD28B9A948FEF7DCF93C20A5495B
:1037400008701CBD1CB5A648006800909948006828
:1037500001906846FDF714FD28B9A148FEF7CAF9A3
:1037600038209C4908701CBD30B585B000259148B3
:1037700004682046FFF728FF00B3214601A8FFF7A1
:10378000D5FE214601A8FFF7FCFE9DF80400332872
:1037900010D09DF8040068B101A8FFF78CFE70BB43
:1037A000864901A8FFF77CFEFFF763FD6A2089497F
:1037B000087028E001A8FFF7EBFD24E0214603A8EC
:1037C000FDF760FF0546D5B10095214601A8DDE96A
:1037D0000323FFF7BBFE9DF80400332810D09DF8AB
:1037E000040068B101A8FFF766FE40B9734901A85B
:1037F000FFF756FEFFF73DFD6A207649087002E0AC
:1038000001A8FFF7C5FD05B030BD10B569480068D7
:10381000002874D0734800780028FAD06D480078EA
:10382000002847D06B480078382843D06948007892
:1038300039283FD0674800783A283BD0654800785F
:103840003B2837D0634800783C2833D06148007863
:103850003D282FD05F4800783E282BD05D48007867
:103860003F2827D05B480078402823D0594800786B
:1038700041281FD05748007842281BD0554800786F
:10388000432817D053480078442813D05148007873
:1038900045280FD04F48007846280BD04D48007877
:1038A000472807D04B480078672803D0494800785C
:1038B0006A2862D14C480078002859DD3D480468E8
:1038C0004A480068A04253D0484804604148007804
:1038D000402839D014DC3B282DD007DC28B3382809
:1038E00026D0392825D03A2840D123E03C2825D0BD
:1038F0003D2824D03E2823D03F2837D121E03CE08A
:10390000452828D008DC41281FD042281ED0432853
:103910001DD044282AD11DE046281DD047281CD0A0
:1039200067281DD06A2821D11DE0FFF71DFF1EE08A
:1039300000BF00BF00BFFFF705FF18E000BF00BFDA
:1039400000BFFFF7EDFE12E000BF00BF00BFFFF7B2
:10395000D5FE0CE000BF00BF00BFFFF7BDFE06E0D4
:10396000FFF7A4FE03E0FFF743FE00E000BF00BF47
:1039700000201C4908700F49086010BD10B50F48A1
:10398000FFF738FDFFF775FC10BD1CB50020009057
:1039900001900A4801680091406801900748FFF7CC
:1039A00029FD06496846FFF73CFDFFF762FC1CBD98
:1039B0007A00002010000020700000200801002084
:1039C0007E0000207F0000208C0000209C00002052
:1039D000660000203C0000205C0000205200002017
:1039E0004800002025000020260000208400002040
:1039F0001CB50020009001900C48FFF7B7FC04466E
:103A0000601E0A4901EBC000016800914068019006
:103A1000601E064901EBC0000021016041600349BE
:103A20006846FFF73DFDFFF724FC1CBD08010020A0
:103A300031490143314A1160704770B500210023BC
:103A40000F22C4780CB32D4C246804F4E064C4F550
:103A5000E064210AC1F10403CA40447804FA03F186
:103A60008478144021430901254C0678A155047837
:103A700004F01F050124AC4005786D114FF0E026DD
:103A800006EB8505C5F8004109E0047804F01F0540
:103A90000124AC401B4D0678761145F8264070BDD8
:103AA000194A0A400243154B1B1F1A60704739B16F
:103AB000124A121D12680243104B1B1D1A6006E0C9
:103AC0000E4A121D126882430C4B1B1D1A60704770
:103AD000042808D14FF0E021096941F004014FF0BA
:103AE000E022116107E04FF0E021096921F00401B3
:103AF0004FF0E022116170470000FA050CED00E084
:103B000000E400E080E100E080FFFF1F0020444966
:103B10000860091D0860091D0860091D086041480A
:103B20003F4914310860704700213D498279002ADD
:103B30003AD00A46126803689A430B461A600A1D77
:103B4000126803689A430B1D1A60027911440A68CF
:103B500003681A430A60324A0832126803689A43BB
:103B60002F4B08331A601A1D126803689A432C4BB6
:103B70000C331A604279102A0ED11A1F126803689A
:103B80001A43274B08331A601A1D126803681A4338
:103B9000234B0C331A600DE02149427911440A6825
:103BA00003681A430A6005E0027911440A68036851
:103BB0009A430A6070470021016001710C21417134
:103BC0000021817170471649103109680143144A78
:103BD00010321160704701460020114A14321268F9
:103BE0000A4201D0012000E0002070470C49143146
:103BF00008607047014600200022094B1B6803EA59
:103C00000102074B14331B680B4202D00AB101209A
:103C100000E000207047024914310860704700003E
:103C200000040140FFFF0F0010B50446CA4884425B
:103C300008D10121042000F034FB0021042000F011
:103C400030FB46E0C548844208D10121082000F03D
:103C500028FB0021082000F024FB3AE0C048844201
:103C600008D10121102000F01CFB0021102000F0E1
:103C700018FB2EE0BB48844208D10121202000F02F
:103C800010FB0021202000F00CFB22E0B64884420B
:103C900008D10121402000F004FB0021402000F069
:103CA00000FB16E0B148844208D10121802000F0D9
:103CB000F8FA0021802000F0F4FA0AE0AC488442CF
:103CC00007D10121801500F0ECFA0021A01500F0C9
:103CD000E8FA10BD10B50121084600F0E2FA002113
:103CE000012000F0DEFA10BD2DE9F041024600256A
:103CF0000026002000230024002791F803C00CF0C8
:103D00000F0591F803C01CF0100F03D091F802C00A
:103D10004CEA050591F800C0BCF1000F31D01468E1
:103D200000202BE04FF0010C0CFA00F3B1F800C0BA
:103D30000CEA03069E4220D183004FF00F0C0CFAD0
:103D400003F7BC4305FA03FC4CEA040491F803C0F2
:103D5000BCF1280F06D14FF0010C0CFA00FCC2F8A0
:103D600014C00AE091F803C0BCF1480F05D14FF030
:103D7000010C0CFA00FCC2F810C0401C0828D1D37A
:103D80001460B1F800C0BCF1FF0F34DD54680020AE
:103D90002EE000F1080C4FF0010808FA0CF3B1F81E
:103DA00000C00CEA03069E4221D183004FF00F0CA5
:103DB0000CFA03F7BC4305FA03FC4CEA040491F83F
:103DC00003C0BCF1280F05D100F1080C08FA0CF86B
:103DD000C2F8148091F803C0BCF1480F07D100F17C
:103DE000080C4FF0010808FA0CF8C2F81080401CCB
:103DF0000828CED35460BDE8F0814FF6FF710180F2
:103E0000022181700421C17070470246002093682E
:103E10000B4201D0012000E0002070470146886875
:103E200080B2704702460020D3680B4201D00120C7
:103E300000E0002070470146C86880B27047016109
:103E40007047416170470AB1016100E0416170470C
:103E5000C16070474FF480320A43826181618261A0
:103E600082698269704702460020424B18684FF60B
:103E70008073184040EA021008433E4B18607047B8
:103E80003D49C8617047F0B50A460023002400216F
:103E9000002500F00046B6F1004F02D1354EF16921
:103EA00001E0344E7168C0F3034583B200F440165C
:103EB000B6F5401F08D121F070612E4E766826F0CD
:103EC00070662C4F7E6012E000F48016B6F5801FFD
:103ED00006D1032606FA05F4A14341F0706106E01D
:103EE000460D360103FA06F6B14341F0706122B186
:103EF000460D360103FA06F6314300F00046B6F1EE
:103F0000004F02D11B4EF16101E01A4E7160F0BD0D
:103F100030B500228B071C0F0F2303FA04F2154B58
:103F200008338C1053F824309343124C08348D100E
:103F300044F8253023468C1053F824308C07240F86
:103F400000FA04F423430B4C08348D1044F8253058
:103F500030BD0A490860704700080140000C01406C
:103F6000001001400014014000180140001C0140F5
:103F7000002001400000014000002042DC002042FF
:103F8000E448006840F00100E249086008464068E3
:103F9000E1490840DF49486008460068DF490840B9
:103FA000DC4908600846006820F480200860084664
:103FB000406820F4FE0048604FF41F008860002035
:103FC000C8627047D349096821F48031D14A116031
:103FD0001146096821F480211160B0F5803F03D0BB
:103FE000B0F5802F0ED106E0CA49096841F480314E
:103FF000C84A116007E0C749096841F4A021C54AD1
:10400000116000E000BF00BF704710B501460022FC
:10401000002300204A11012A02D1BE4C236806E089
:10402000022A02D1BB4C236A01E0BA4C636A01F058
:104030001F02012494401C4201D0012000E0002016
:1040400010BD38B5002000900024002500BF3120AD
:10405000FFF7DBFF05460098401C00900098B0F584
:10406000A06F01D0002DF2D03120FFF7CEFF08B1B4
:10407000012400E00024204638BD01460020A54A66
:10408000106820F0F80040EAC10010607047A449B1
:1040900008607047024600209E4B586820F4741058
:1040A00042EA010318439B4B586070479C490866DD
:1040B000704702460020974BD86A9A4B184042EA54
:1040C00001031843934BD862704701460020914A80
:1040D000506820F003000843506070478D484068E6
:1040E00000F00C007047014600208A4A506820F01A
:1040F000F00008435060704701460020854A506830
:1041000020F4E06008435060704701460020814A77
:10411000506820F4605040EAC1005060704729B1F7
:104120007C4A527A02437B4B5A7204E0794A527AB3
:104130008243784B5A7270477B490860704701464A
:104140000020744A506820F4404008435060704793
:104150000021764A11706F4A82F82010012802D09F
:10416000042808D103E00121704A117004E0052100
:104170006E4A117000E000BF00BF70476C490860D4
:1041800070476449096A0143624A1162704768498D
:1041900044390860704770B50021002300240022D4
:1041A00000255C4E766806F00C0121B1042905D08B
:1041B000082921D105E05F4E066020E05D4E0660D3
:1041C0001DE0544E766806F47013524E766806F47D
:1041D0008034022606EB93431CB9574E5E430660BB
:1041E00009E04C4EF66A06F00F06751C514EB6FB00
:1041F000F5F65E43066002E04E4E066000BF00BF6B
:10420000444E766806F0F00109094C4E725C06686F
:10421000D64046603F4E766806F4E061090A474E94
:10422000725C4668D64086603A4E766806F4605105
:10423000C90A424E725C4668D640C660354E766802
:1042400006F44041890B3E4E725CC668B6FBF2F63E
:10425000066170BD29B12F4A526902432D4B5A6144
:1042600004E02C4A526982432A4B5A61704729B1B3
:10427000284A92690243274B9A6104E0254A9269D1
:104280008243244B9A61704729B1224AD269024382
:10429000204BDA6104E01F4AD26982431D4BDA6188
:1042A000704729B11B4AD26802431A4BDA6004E016
:1042B000184AD2688243174BDA60704729B1154A11
:1042C00012690243134B1A6104E0124A12698243D5
:1042D000104B1A6170471649403908607047104901
:1042E000C86470470B49C87170470A48406A40F07B
:1042F000807008494862704701460020054A92686C
:104300000A4201D0012000E0002070470149887274
:1043100070470000001002400000FFF8FFFFF6FEAB
:1043200000004242F0FFFEFFD8004242201002404F
:104330008004424200127A0000093D00AC000020D7
:10434000BC00002010B50446FE48844208D101217B
:10435000C014FFF7A6FF0021E014FFF7A2FFC4E09E
:10436000B4F1804F08D101210846FFF7A7FF0021D3
:104370000120FFF7A3FFB8E0F348844208D10121F0
:104380000220FFF79BFF00210220FFF797FFACE020
:10439000EE48844208D101210420FFF78FFF00215D
:1043A0000420FFF78BFFA0E0E948844208D10121F7
:1043B0000820FFF783FF00210820FFF77FFF94E02C
:1043C000E448844208D101211020FFF777FF002143
:1043D0001020FFF773FF88E0DF48844208D10121F5
:1043E0002020FFF76BFF00212020FFF767FF7CE014
:1043F000DA48844208D101214014FFF752FF00211E
:104400006014FFF74EFF70E0D548844209D10121C6
:10441000C804FFF746FF00214FF40020FFF741FFDB
:1044200063E0D048844209D101210805FFF739FF34
:1044300000214FF48010FFF734FF56E0CA48844251
:1044400009D101214805FFF72CFF00214FF400108E
:10445000FFF727FF49E0C548844208D101214020E9
:10446000FFF72CFF00214020FFF728FF3DE0C04868
:10447000844208D101218020FFF720FF0021802005
:10448000FFF71CFF31E0BB48844208D101218015B1
:10449000FFF714FF0021A015FFF710FF25E0B64835
:1044A000844209D101210804FFF7FBFE00214FF4EB
:1044B0008030FFF7F6FE18E0B048844209D10121B0
:1044C0004804FFF7EEFE00214FF40030FFF7E9FE4D
:1044D0000BE0AB48844208D101218804FFF7E1FEDC
:1044E00000214FF48020FFF7DCFE10BD002202887F
:1044F000944B98420ED0994B98420BD0B0F1804F1C
:1045000008D0914B984205D0904B984202D0904BE6
:10451000984204D14FF68F731A404B881A438D4B43
:10452000984207D08C4B984204D04FF6FF431A4074
:10453000CB881A4302808B8883850B880385814B47
:1045400098420BD0854B984208D08B4B984205D0AF
:104550008A4B984202D08A4B984201D10B7A03864B
:1045600001238382704770B5002400220023058C4C
:104570004FF6FE7635400584028C8388048B4FF617
:104580008F752C40B51E2C400D882C43751E2A407B
:104590000D892A434D882A436A4DA8420BD06F4D9E
:1045A000A84208D0744DA84205D0744DA84202D04C
:1045B000734DA84213D14FF6F7752A404D892A430F
:1045C0004FF6FB752A408D882A434FF6FF652B4036
:1045D0004FF6FF552B408D892B43CD892B4383808C
:1045E0000483CD888586028470BD70B500240022C6
:1045F0000023058C4FF6EF7635400584028C8388C6
:10460000048B48F6FF752C404FF6FF452C400D8873
:104610004FF6FF7606EA05252C434FF6DF752A4054
:104620000D8906EA05152A434D8806EA05152A4331
:10463000444DA84202D0494DA8421DD14FF67F7586
:104640002A404D894FF6FF7606EA05152A434FF6B4
:10465000BF752A408D8806EA05152A434FF6FF35B7
:104660002B404FF2FF752B408D8906EA85052B43C1
:10467000CD8906EA85052B4383800483CD88058791
:10468000028470BD70B5002400220023058C4FF613
:10469000FF6635400584028C8388848B4FF68F75C6
:1046A0002C404FF6FC752C400D882C434FF6FF55DF
:1046B0002A400D894FF6FF7606EA05252A434D88E4
:1046C00006EA05252A431F4DA84202D0234DA842E1
:1046D0001DD14FF2FF752A404D894FF6FF7606EA4D
:1046E00005252A434FF6FF352A408D8806EA052521
:1046F0002A434EF6FF752B404DF6FF752B408D89F2
:1047000006EA05152B43CD8906EA05152B43838060
:104710008483CD888587028470BD70B50022002314
:104720000024058C4EF6FF7635400584038C848882
:10473000828B48F6FF752A404FF6FF452A400D88C8
:1047400020E00000002C0140000400400008004070
:10475000000C0040001000400014004000340140F4
:10476000004C01400050014000540140001800403E
:10477000001C004000200040004001400044014077
:10478000004801404FF6FF7606EA05252A434DF61C
:10479000FF752B400D8906EA05352B434D8806EA47
:1047A00005352B43FA4DA84202D0FA4DA84208D154
:1047B0004BF6FF752C408D894FF6FF7606EA85157E
:1047C0002C4384808283CD88A0F84050038470BD40
:1047D000828B4FF2FF331A408283828B4FF6FF7336
:1047E00003EA01231A4382837047F0B50C4615464D
:1047F000002200210026078C4EF6FF7C07EA0C07FA
:104800000784828B018C4FF6FF7707EA043640F667
:10481000FF473A404FF6FF7707EA05273A434FF63E
:10482000FF7707EA03373A43D94FB8420ED0D94F42
:10483000B8420BD0B0F1804F08D0D74FB84205D066
:10484000D64FB84202D0D64FB84206D14DF6FF77C8
:10485000394046F48057394305E047F6FF57394061
:1048600044F48057394382830184F0BD828B4FF634
:10487000F3731A408283828B0A4382837047F0B5B8
:104880000C461546002200210026078C4FF6FF6CCF
:1048900007EA0C070784828B018C4FF6FF7707EA43
:1048A00004264FF60C773A404FF6FF7707EA0317D6
:1048B0002F433A43B64FB8420ED0B64FB8420BD052
:1048C000B0F1804F08D0B44FB84205D0B34FB842D2
:1048D00002D0B34FB84206D14FF6FF57394046F4E5
:1048E0008077394305E04FF2FF57394044F4807731
:1048F000394382830184F0BD028B4FF2FF331A40AB
:104900000283028B4FF6FF7303EA01231A430283EB
:104910007047F0B50C461546002200210026078C92
:104920004FF6EF7C07EA0C070784028B018C4FF6E9
:10493000FF7707EA041640F6FF473A404FF6FF7745
:1049400007EA03373A434FF6FF7707EA05273A436A
:104950008F4FB8420ED08F4FB8420BD0B0F1804F7E
:1049600008D08D4FB84205D08C4FB84202D08C4F42
:10497000B84206D14FF6DF77394046F01007394389
:1049800005E04FF65F77394044F010073943028362
:104990000184F0BD028B4FF6F3731A400283028B41
:1049A0000A4302837047F0B50C46154600220021E9
:1049B000068C4FF6FE773E400684028B018C4FF644
:1049C0000C7632407E1C06EA03162E433243704EAC
:1049D000B0420ED06F4EB0420BD0B0F1804F08D035
:1049E0006D4EB04205D06D4EB04202D06C4EB0421A
:1049F00006D14FF6FD76314044F00106314305E023
:104A00004FF6F576314044F00106314302830184CC
:104A1000F0BD70B505460C465D4885420ED05D4838
:104A200085420BD0B5F1804F08D05B48854205D058
:104A30005A48854202D05A48854200D100E000BF62
:104A4000208850B92389A28861882846FFF7ABFFE8
:104A5000E1882846FFF79EFF25E0208804280AD138
:104A60002389A28861882846FFF753FFE1882846FA
:104A7000FFF742FF17E0208808280AD12389A2887F
:104A800061882846FFF7FBFEE1882846FFF7EEFE27
:104A900009E02389A28861882846FFF7A6FEE188FD
:104AA0002846FFF795FE70BD2DE9F04105460C46FE
:104AB00000260127608808B9022600E00026A088A9
:104AC000012801D1022700E001272088A0B923890D
:104AD000A28861882846FFF766FFE1882846FFF72D
:104AE00059FF23893A4631462846FFF712FFE188ED
:104AF0002846FFF701FF13E02389A2886188284632
:104B0000FFF707FFE1882846FFF7F6FE23893A46BC
:104B100031462846FFF747FFE1882846FFF73AFF6E
:104B2000BDE8F0810A884B881A438B881A43CB88EA
:104B30001A430B891A434B891A438B891A43A0F8ED
:104B4000442070474FF6FF71818000210180C180B1
:104B50004180017270470021018041808180C180C5
:104B6000018141818181C1817047002101804180A3
:104B7000012181800021C1800181704700210180D5
:104B800041808180C1800181418181817047000025
:104B9000002C0140003401400004004000080040A7
:104BA000000C004021B1028842F00102028004E0C2
:104BB00002884FF6FE731A400280704731B1B0F898
:104BC000442042F40042A0F8442005E0B0F844201C
:104BD000C2F30E02A0F8442070471AB183890B4338
:104BE000838102E083898B43838170478182704790
:104BF00041EA0203A0F8483070471AB183890B4399
:104C0000838102E083898B438381704701894FF65A
:104C1000F8721140018170470A46002101894FF660
:104C20008F73194011430181704730B504460D461A
:104C300029462046FFF7F0FF208940F00700208139
:104C400030BD2DE9F04104460D4616461F46602D45
:104C500006D13B46012231462046FFF75AFE05E0C9
:104C60003B46012231462046FFF79DFE294620465D
:104C7000FFF7D2FF208940F007002081BDE8F081D6
:104C800030B50C4600210189C9B24FF6FF7505EA1F
:104C90000325154325432943018130BD2DE9F0410A
:104CA00005460E4617469846002443463A46314686
:104CB0002846FFF7E5FF2C894FF6F870044044F0D2
:104CC00007044FF68F70044044F070042C81BDE857
:104CD000F081F0B504460D4616461F463B46324667
:104CE00029462046FFF7CCFF208940F480402081F0
:104CF000F0BD0185828270470A46002101884FF687
:104D00008F731940114301807047F0B50C4615466A
:104D10001E460021002200230189028B038C4FF6DE
:104D2000F877394021434FF6FC473A4040F20117EB
:104D30003A434FF6DD773B404FF6FF7707EA061719
:104D40002F433B43018102830384F0BD0A460021C7
:104D5000018B4FF68F7319401143018370470A4648
:104D60000021018B48F6FF7319404FF6FF7303EAE9
:104D700002231943018370470A460021818B4FF6B5
:104D80008F7319401143818370470A460021818B3C
:104D900048F6FF7319404FF6FF7303EA02231943E5
:104DA0008183704721B1028842F08002028004E0D2
:104DB00002884FF67F731A400280704721B18288C3
:104DC00042F00402828004E082884FF6FB731A40AE
:104DD0008280704721B1828842F00802828004E01C
:104DE00082884FF6F7731A408280704721B182881B
:104DF00042F00102828004E082884FF6FE731A407E
:104E0000828070470A460021018B4FF6F7731940E4
:104E10001143018370470A460021018B4FF2FF7353
:104E200019404FF6FF7303EA0223194301837047C9
:104E30000A460021818B4FF6F77319401143818395
:104E400070470A460021818B4FF2FF7319404FF6DD
:104E5000FF7303EA02231943818370470A46002146
:104E6000018B4FF6FB7319401143018370470A46CB
:104E70000021018B4FF6FF3319404FF6FF7303EA11
:104E800002231943018370470A460021818B4FF6A4
:104E9000FB7319401143818370470A460021818BBF
:104EA0004FF6FF3319404FF6FF7303EA022319430D
:104EB000818370470A460021018B4FF67F731940AA
:104EC0001143018370470A460021018BC1F30E0193
:104ED0004FF6FF7303EA02231943018370470A4622
:104EE0000021818B4FF67F731940114381837047F6
:104EF0000A460021818BC1F30E014FF6FF7303EACE
:104F000002231943818370470A460021018C4FF622
:104F1000FD7319401143018470470A460021018C3A
:104F20004FF6F77319401143018470470A46002178
:104F3000018C4FF6DF7319404FF6FF7303EA02133B
:104F40001943018470470A460021018C4FF67F7394
:104F500019404FF6FF7303EA0213194301847047A7
:104F60000A460021018C4FF6FF5319404FF6FF739C
:104F700003EA02231943018470470A460021018C89
:104F80004FF2FF7319404FF6FF7303EA02231943F0
:104F9000018470470A460021018C4DF6FF731940C9
:104FA0004FF6FF7303EA023319430184704730B5AB
:104FB000002301248C40A3B2048C9C430484048C01
:104FC00002FA01F5ADB22C43048430BD30B50023A4
:104FD00004248C40A3B2048C9C430484048C02FA05
:104FE00001F5ADB22C43048430BD70B503460020FA
:104FF00000241846183001258D40ACB21D8CA54305
:105000001D8409B1082909D100EB6100056825F06C
:10501000700505600568154305600EE00D1FC5F3BA
:105020004E052844056825F4E045056005684FF6FF
:10503000FF7606EA02263543056070BD21B102887D
:1050400042F00202028004E002884FF6FD731A402B
:105050000280704721B1028842F00402028004E01D
:1050600002884FF6FB731A400280704721B1828894
:1050700042F08002828004E082884FF67F731A40FB
:105080008280704702884FF6F7731A4002800288C8
:105090000A430280704782884FF68F731A408280DD
:1050A00082880A438280704702894FF6F8731A405B
:1050B000028102890A430281704702894FF67F7399
:1050C0001A40028102890A43028170478184704735
:1050D0008185704781867047018770478187704757
:1050E000A0F84010704702884FF6FF431A40028034
:1050F00002880A43028070470146888E7047014645
:10510000088F70470146888F70470146B1F840000C
:1051100070470146888C70470146088D70470246EB
:105120000020138A0B4201D0012000E000207047CC
:10513000CA430282704730B5024600200023002493
:10514000158A05EA0103958905EA010413B10CB13A
:10515000012000E0002030BDCA43028270470000F9
:1051600010B50446FB48844209D101218803FFF7AA
:1051700098F800214FF48040FFF793F832E0F648AA
:10518000844209D101214804FFF798F800214FF427
:105190000030FFF793F825E0F048844209D101215F
:1051A0008804FFF78BF800214FF48020FFF786F882
:1051B00018E0EB48844209D10121C804FFF77EF8CA
:1051C00000214FF40020FFF779F80BE0E548844216
:1051D00008D101210805FFF771F800214FF4801074
:1051E000FFF76CF810BD2DE9F04786B005460E4676
:1051F0000024A24600BFA1460027B08900B100BF2D
:105200002F462C8A4CF6FF700440F08804432C8211
:10521000AC894EF6F3100440B08831890843718997
:1052200008430443AC81AC8A4FF6FF400440B08988
:105230000443AC8201A8FEF7AEFFC648874202D104
:10524000DDF810A001E0DDF80CA0A88910F4004FF3
:1052500008D00AEBCA0000EB0A1031684900B0FB25
:10526000F1F807E00AEBCA0000EB0A103168890088
:10527000B0FBF1F86420B8FBF0F0040120096421D0
:1052800001FB1089A88910F4004F08D0322000EBF0
:10529000C900B0FBF1F000F00700044308E0322041
:1052A00000EB09106421B0FBF1F000F00F000443A3
:1052B0002C8106B0BDE8F0874FF416510160002143
:1052C0008180C18001810C21418100218181704751
:1052D00010B502460020108A4FF2FF0318400B88D9
:1052E0004C8823438C882343CC8823431843108263
:1052F00010BD0021018041808180C180704721B1B3
:10530000828942F40052828104E082894DF6FF7363
:105310001A4082817047F0B503460024002600251C
:105320000020A1F510676A3F00D100BF1846C1F305
:10533000421401F01F06012707FA06F5012C01D1DE
:105340000C3004E0022C01D1103000E014301AB10E
:1053500007682F43076002E00768AF430760F0BDAE
:105360001AB1838A0B43838202E0838A8B43838250
:105370007047028A4FF6F0731A400282028A0A438B
:105380000282704782894FF2FF731A4082818289BC
:105390000A438281704721B1828942F002028281F0
:1053A00004E082894FF6FD731A4082817047028AB9
:1053B0004FF6DF731A400282028A0A430282704764
:1053C00021B1028A42F48042028204E0028A4BF652
:1053D000FF731A4002827047C1F30802828070474F
:1053E00001468888C0F308007047818941F00101B7
:1053F00081817047028BD2B20283028B42EA012282
:1054000002837047028B02F47F420283028B0A43BD
:105410000283704721B1828A42F02002828204E036
:10542000828A4FF6DF731A408282704721B1828AE6
:1054300042F01002828204E0828A4FF6EF731A4033
:105440008282704721B1828A42F00802828204E09F
:10545000828A4FF6F7731A408282704721B182899F
:1054600042F40042828103E08289C2F30E0282810B
:10547000704721B1828A42F40062828204E0828A0B
:105480004FF2FF731A4082827047828A4FF6FB7395
:105490001A408282828A0A438282704721B1828ABC
:1054A00042F00202828204E0828A4FF6FD731A40C3
:1054B0008282704702460020B1F5007F00D100BF14
:1054C00013880B4201D0012000E00020704701F456
:1054D0000072B2F5007F00D100BFCA43028070475E
:1054E00070B502460024002300250020A1F51066B7
:1054F0006A3E00D100BFC1F3421501F01F0301262F
:1055000006FA03F3012D02D19689334006E0022DFD
:1055100002D1168A334001E0968A33400C120126EC
:1055200006FA04F41688344013B10CB1012000E0EF
:10553000002070BD10B500220023A1F510646A3C64
:1055400000D100BF0A1201249440A3B2DC430480BE
:1055500010BD0000003801400044004000480040F9
:10556000004C0040005000400CB50020019000901D
:105570006248006840F480306049086000BF5F48BE
:10558000006800F4003000900198401C01900098E1
:1055900018B90198B0F5A06FF1D15848006810F41F
:1055A000003F02D00120009001E000200090009810
:1055B000012830D151484068504948600846406849
:1055C00048600846406848600846406820F47C10FF
:1055D00048600846406840F49810486008460068F3
:1055E00040F08070086000BF4448006810F0007F01
:1055F000FAD04248406820F003004049486008461D
:10560000406840F00200486000BF3C48406800F03D
:105610000C000828F9D10CBD10B5FFF7A5FF10BD8F
:1056200010B53648006840F001003449086008466B
:1056300040683349084031494860084600683149AC
:1056400008402E4908600846006820F48020086061
:105650000846406820F4FE0048604FF41F00886050
:105660000020C862FFF7D8FF4FF0006026490860AD
:1056700010BD30B500210020002200231F4C6468BB
:1056800004F00C0121B1042906D0082925D107E036
:105690001E4C1F4D2C6024E01C4C1D4D2C6020E046
:1056A000164C646804F47010144C646804F480327E
:1056B000022404EB904022B9164C4443144D2C6054
:1056C0000AE00E4CE46A04F00F04631C0F4CB4FBB8
:1056D000F3F444430E4D2C6003E00C4C0C4D2C6055
:1056E00000BF00BF054C6468C4F303140A4D295D74
:1056F000074C2468CC40064D2C6030BD00100240A1
:105700000000FFF8FFFFF6FE08ED00E000127A004F
:10571000C000002000093D00C400002040EA010351
:105720009B0703D009E008C9121F08C0042AFAD257
:1057300003E011F8013B00F8013B521EF9D270471B
:10574000D2B201E000F8012B491EFBD270470022C3
:10575000F6E710B513460A4604461946FFF7F0FF70
:10576000204610BD064C074D06E0E06840F00103FE
:1057700094E8070098471034AC42F6D3FAF7BAFC25
:10578000CC5D0008EC5D00080FB4054B10B503A913
:10579000044A029800F017F810BC5DF814FB0000F2
:1057A00093030008D400002002E008C8121F08C1BB
:1057B000002AFAD170477047002001E001C1121F92
:1057C000002AFBD170472DE9F84F9946924688464A
:1057D0000546002759E0252801D0514623E0002343
:1057E00015F8011F18462E2915D115F8011F04239D
:1057F0002A290DD06FF02F022978A1F13004092C4D
:1058000009D800EB800002EB400008446D1CF3E770
:1058100058F8040B6D1C2A7872B3632A08D0732AD7
:1058200010D0514610464A46904707F101072BE039
:1058300018F8042B8DF8002000218DF801106E4619
:10584000012103E058F8046B4FF0FF315A074FF085
:10585000000401D409E0641C84420BDA8C42FADBB8
:10586000325D002AF7D105E0641C8C42FCDB305D20
:105870000028F9D1274405E00AE016F8010B51464B
:105880004A469047641EF8D26D1C28780028A2D1A1
:105890003846BDE8F88F3F065B4F666D7D077F6F2A
:1058A000777C395E79713800407673503E545C8065
:1058B000BF86DBCFE6EDFD87FFEFF7FCB9DEF9F140
:1058C00001020408102040800000000000000000D9
:1058D0004B1B000801100F02000000009D1B000878
:1058E0000216010300000000A71B0008031A0204AF
:1058F00000000000B11B0008041E030500000000AA
:10590000BB1B00080520040600000000C51B0008A2
:105910000621050700000000CF1B0008072206082B
:1059200000000000D91B0008082A07090000000039
:10593000E31B0008092E080A00000000ED1B000808
:105940000A30090B00000000F71B00080B0B0A0CC3
:1059500000000000011C00080C0C0B0D00000000F2
:105960000B1C00080D0D0C0E00000000151C00089B
:105970000E0E0D0F000000001F1C00080F0F0E017F
:1059800000000000291C0008101110100100000088
:10599000331C000811121111010000008B1C0008BB
:1059A0001213121201000000E31C00081314131359
:1059B000010000003D1D0008141514140100000032
:1059C000971D00081510151501000000EF1D0008B7
:1059D0001638191702000000491E0008173C161857
:1059E00002000000531E00081840171902000000B2
:1059F0005D1E00081944181602000000671E00080A
:105A00001A481D1B03000000711E00081B4C1A1CC5
:105A1000030000007B1E00081C501B1D030000003B
:105A2000851E00081D541C1A030000008F1E00086C
:105A30001E581F1F04000000991E00081F591E1E3B
:105A400004000000A31E0008202020200500000004
:105A5000AD1E00082121212106000000FD1E0008C6
:105A6000225A292307000000691F0008235B222413
:105A700007000000731F0008245C232507000000B6
:105A80007D1F0008255D242607000000871F0008F1
:105A9000265E252707000000911F0008275F2628A3
:105AA000070000009B1F000828602729070000004E
:105AB000A51F00082961282207000000AF1F000869
:105AC0002A622D2B08000000B91F00082B632A2C26
:105AD00008000000C31F00082C642B2D08000000E4
