:020000040800F2
:10000000B0080020010100089501000897010008D0
:100010009B0100089F010008A301000800000000E8
:10002000000000000000000000000000A90100081E
:10003000A701000800000000AB010008C301000890
:100040001B0100081B0100081B010008AD0100088E
:100050001B0100081B0100081B0100081B01000810
:100060001B0100081B0100081B0100081B01000800
:100070001B0100081B0100081B0100081B010008F0
:100080001B0100081B0100081B0100081B010008E0
:100090001B0100081B0100081B0100081B010008D0
:1000A0001B0100081B0100081B0100081B010008C0
:1000B0001B010008F75100081B0100081B01000884
:1000C0001B0100081B0100081B0100081B010008A0
:1000D0001B0100084B070008630400081B0100080F
:1000E0006D0700081B0100081B010008DFF80CD099
:1000F00007F04CFA0048004725010008B00800202E
:100100000648804706480047FEE7FEE7FEE7FEE7B1
:10011000FEE7FEE7FEE7FEE7FEE7FEE749740008BC
:10012000ED0000084FF4A06005F02CFA00F0CCF8C8
:1001300000F003F900F0AEFA00F0EBFA04F0BEFCB8
:1001400000F028F900F066F900201049087000F06E
:100150009EFB00F00CFC00F0C1FD01F0E9F801F09D
:1001600013FF04F0A5FE0A4804F0DFFE01F0D8FDFD
:1001700004F0FAFF05F00CF805F02DF805E004F0A6
:1001800000FB01F052FF04F06EFEF8E7800400204F
:1001900094040020704700BFFEE700BFFEE700BFE9
:1001A000FEE700BFFEE770477047704710B50120BB
:1001B00005F0C2FF20B1012005F0CEFF05F090FF51
:1001C00010BD2E480068401C2C4908600846006895
:1001D00064280AD92A480078401C2949087001205F
:1001E0002849087000202549086027480068401CFD
:1001F0002549086008460068B0F5C87F02D900208C
:100200002249086022480078401C214908700846AD
:100210000078C72807DD1F480078401C1D4908707A
:1002200000201B4908701C48007860B91B48007802
:10023000401C1A490870084600780F2806DD012086
:100240001549087002E0002014490870144800782D
:100250006A2811D01248007835280DD0114800685E
:10026000401C1049086008460068B0F5FA6F03D9D1
:10027000002008600A490870704700000400002050
:1002800008000020010000208C00002088000020D1
:100290009000002091000020B6000020B500002052
:1002A0003C0000208000002010B5002807DA0A0773
:1002B000140E344A00F00F031B1FD45403E00A0746
:1002C000130E314A135410BD10B505F0CBFC0120BC
:1002D00005F04FFD00BF212005F009FD0028FAD0F0
:1002E0004FF48011002005F047FD002005F06DFD62
:1002F000002005F073FD4FF4806005F078FD0120CB
:1003000005F046FD00BF392005F0F1FC0028FAD0C9
:10031000022005F04CFD00BF05F052FD0828FBD17E
:100320000121084605F015FE0121184805F0B7FB2C
:100330000121C80305F0B3FB10BD10B514480068D7
:10034000C821B0FBF1F4B4F1807F01D3012011E0AA
:1003500024F07F40401E4FF0E02148610F214FF014
:10036000FF30FFF7A1FF00204FF0E0218861072058
:100370000861002008B100BFFEE70021481EFFF71A
:1003800093FF10BD18ED00E000E400E00002300033
:100390000801002000B585B00121042005F0D9FD39
:1003A0000121480405F0E2FD0420ADF810001820FA
:1003B0008DF8130003208DF8120004A9B04805F051
:1003C0009FFA0820ADF8100004208DF8130004A94E
:1003D000AB4805F095FA4FF4165000900020ADF8A8
:1003E0000400ADF80600ADF80800ADF80C000C20D4
:1003F000ADF80A006946A34806F009FE012240F262
:100400002551A04806F09BFE01219E4806F08BFE78
:1004100005B000BD08B526208DF8000001208DF83C
:10042000010000208DF8020001208DF803006846CD
:1004300005F0ADF808BD70B504460D46E1B291482F
:1004400006F0DEFE00BF8F48008810F0800FFAD063
:10045000204670BD10B5044621468BA007F0A8F8D1
:1004600010BD10B540F22551864806F04DFF012819
:1004700003D12021834806F03EFF10BD70B5002453
:100480001B20FFF7E7FF4020FFF7E4FF1B20FFF7EB
:10049000E1FF6120FFF7DEFF0120FFF7DBFF5720C0
:1004A000FFF7D8FF6520FFF7D5FF6C20FFF7D2FFDD
:1004B0006320FFF7CFFF6F20FFF7CCFF6D20FFF722
:1004C000C9FF6520FFF7C6FF0A20FFF7C3FF0A2018
:1004D000FFF7C0FF1B20FFF7BDFF2120FFF7BAFF8A
:1004E0001020FFF7B7FF4E20FFF7B4FF6F20FFF794
:1004F000B1FF2E20FFF7AEFF2020FFF7ABFF6348D0
:100500000088642190FBF1F03030C5B22846FFF737
:10051000A1FF2020FFF79EFF5C480088642190FB2C
:10052000F1F201FB12000A2190FBF1F03030C5B26C
:100530002846FFF78FFF2020FFF78CFF53480088E5
:100540000A2190FBF1F201FB12003030C5B22846BF
:10055000FFF780FF2020FFF77DFF1B20FFF77AFFCA
:100560002120FFF777FF0020FFF774FF0A20FFF735
:1005700071FF0A20FFF76EFF7720FFF76BFF612006
:10058000FFF768FF6920FFF765FF7420FFF762FF40
:100590002020FFF75FFF6E20FFF75CFF7520FFF75D
:1005A00059FF6D20FFF756FF6220FFF753FF6520CC
:1005B000FFF750FF7220FFF74DFF3A20FFF74AFF89
:1005C00032480088401E32490988884200DA06E035
:1005D0002E4800782E490978401A401EC4B2642083
:1005E00094FBF0F03030C5B22846FFF733FF6420AB
:1005F00094FBF0F100FB11400A2190FBF1F0303048
:10060000C5B22846FFF726FF0A2094FBF0F100FB55
:1006100011403030C5B22846FFF71CFF0A20FFF713
:1006200019FF1B20FFF716FF4A20FFF713FF2120B9
:10063000FFF710FF1B20FFF70DFF4A20FFF70AFF0F
:100640002120FFF707FF1B20FFF704FF4A20FFF7D9
:1006500001FF2120FFF7FEFE1B20FFF7FBFE4A20D3
:10066000FFF7F8FE2120FFF7F5FE1B20FFF7F2FE53
:100670004A20FFF7EFFE2120FFF7ECFE70BD0000DF
:10068000000801400044004025630000F000002005
:10069000EE00002000B585B0012144F2040005F011
:1006A00058FC4FF40070ADF8100018208DF81300BE
:1006B00003208DF8120004A92A4805F021F94FF40F
:1006C0008060ADF8100004208DF8130004A92548BF
:1006D00005F016F94FF4165000900020ADF8040014
:1006E000ADF80600ADF80800ADF80C000C20ADF830
:1006F0000A0069461C4806F08AFC012240F2255196
:10070000194806F01CFD0121174806F00CFD05B044
:1007100000BD08B525208DF8000001208DF80100EE
:100720008DF802008DF80300684604F030FF08BD24
:1007300010B5044621460C4806F062FD00BF0A4889
:10074000008810F0800FFAD010BD10B540F225518E
:10075000054806F0D9FD012803D12021024806F002
:10076000CAFD10BD000801400038014070B50025E9
:100770006C48006810F4004F00D001254FF0804015
:10078000848C00204FF080418884002D4BD0B4F53C
:10079000967F65DD64480078182861DD634800684D
:1007A0004008624908600846006820F07F40086001
:1007B000084600685E4908422FD05C4800685D49E1
:1007C0000968884215D15C480078401C5A49087075
:1007D00008460078FA2801DDFA20087053480068BE
:1007E00056490860012056490870002055490860A4
:1007F00010E00020504908704C4800684D490860DE
:100800004A4800684D49086001204D4908700020A1
:100810004C49086000204C490860002043490860AA
:10082000414908701CE0152C01DBD22C07DD0020AB
:100830003D4908703D4908603F49087010E03B4859
:100840000068400039490860552C04DD08460068FE
:1008500040F00100086034480078401C32490870BC
:100860004FF4004004F0E3FF70BD08B501210420FF
:1008700005F06FFB4FF40040ADF8000048208DF804
:10088000030069462748083805F03AF808BD10B556
:1008900086B00024FFF7E9FF0121084605F059FB67
:1008A0000F21002005F040F94FF400400490002093
:1008B0008DF8140010208DF8150001208DF8160019
:1008C00004A804F03DFF28208DF80C0000208DF8CE
:1008D0000D008DF80E0001208DF80F0003A804F024
:1008E00056FE0121084605F041FB184800681849EA
:1008F000B0FBF1F0401E84B24FF6FF70ADF804007B
:10090000ADF800400020ADF80600ADF802006946E1
:100910004FF0804005F0FEFC0121880706F056F8F4
:1009200006B010BD08080140240000201C00002073
:10093000F0FFFF0020000020260000201000002013
:1009400025000020800000208C00002008010020ED
:10095000A086010005E0022100BF4A1E92B21100EC
:10096000FBD10200A0F1010398B2F4D1704708B5A1
:100970000121082005F0EDFA10208DF80300032076
:100980008DF802004FF47870ADF800006946F74822
:1009900004F0B6FF48208DF803001020ADF80000E9
:1009A0006946F24804F0ACFF08BD30B504460020AB
:1009B000EF490860054618E00020EE49086014F091
:1009C000010F04D00120A1F10401086002E0002021
:1009D000E94908604FF00500FFF7BCFF0120E54939
:1009E00008604FEA640405F10105082DE4D30020F6
:1009F000E0490860E149C1F8A00130BD30B50446C6
:100A00000020DF490860054617E00020D94908604A
:100A100014F0010F03D00120D749086002E0002044
:100A2000D54908604FF00500FFF794FF0120D14938
:100A300008604FEA640405F10105082DE5D30020A4
:100A4000CC490860CD49C1F8A00130BD30B504469D
:100A50000020CC490860054617E00020C549086021
:100A600014F0010F03D00120C349086002E0002008
:100A7000C14908604FF00500FFF76CFF0120BD4938
:100A800008604FEA640405F10105082DE5D3002054
:100A9000B8490860B949C1F8A00130BD10B5044695
:100AA0000120B34908604FF00500FFF753FF002015
:100AB000B249C1F894012046FFF777FF10BDF8B5A1
:100AC000FF26002000904220FFF7E8FF0120AE49FA
:100AD00008604FF0000424E000251BE00020A54939
:100AE00008601DF804004FEA60000DF804004FF0A4
:100AF0000100A249C1F8A401A348006828B11DF86B
:100B0000040040F080000DF804000520FFF722FFEC
:100B1000681CC5B2082DE1DB0520FFF71BFF601C38
:100B2000C4B2042CD8DB0020924908609349C1F874
:100B300010014FF001008E4908609DF8000048B98F
:100B40009DF8010030B99DF8020018B99DF8030026
:100B500000286FD000208D4908609DF80000102803
:100B600018D008DC01280DD002280DD004280DD0A3
:100B7000082817D10CE020280ED040280ED080285D
:100B800010D10DE019260EE011260CE009260AE02E
:100B9000012608E01A2606E0122604E00A2602E0F2
:100BA000022600E000BF00BF9DF80100102818D009
:100BB00008DC01280DD002280DD004280DD008280B
:100BC00017D10CE020280ED040280ED0802810D15C
:100BD0000DE01B260EE013260CE00B260AE0032690
:100BE00008E01C2606E0142604E00C2602E0042699
:100BF00000E000BF00BF9DF80200102818D008DCFC
:100C000001280DD002280DD004280DD0082818D1B5
:100C10000CE020280FD040280FD0802811D10EE002
:100C20001D260FE015260DE00D260BE0052609E038
:100C30001E2607E02EE0162604E00E2602E0062619
:100C400000E000BF00BF9DF80300102818D008DCAA
:100C500001280DD002280DD004280DD0082817D166
:100C60000CE020280ED040280ED0802810D10DE0B6
:100C70001F260EE017260CE00F260AE0072608E0E4
:100C8000202606E0182604E0102602E0082600E0F0
:100C900000BF00BF3046F8BD10B5044601203849FA
:100CA00008604FF00500FFF755FE00203349C1F8FA
:100CB00098012046FFF7A2FE10BD10B504460120A2
:100CC000304908604FF00500FFF744FE00202B4933
:100CD000C1F89C012046FFF7B9FE10BD10B54020B9
:100CE000FFF7DCFEC020FFF7D9FE00240AE0284908
:100CF000085DFFF75AFE26490831085DFFF755FEEB
:100D0000601CC4B2082CF2DB224909788831C8B2D1
:100D1000FFF7C4FE0120164908604FF04000FFF7BE
:100D2000BBFFC020FFF7B8FF00240BE018491031CB
:100D3000085DFFF763FE16491831085DFFF75EFE98
:100D4000601CC4B2082CF1DB124909788831C8B2A2
:100D5000FFF7A2FF01200A4908604FF04000FFF7AB
:100D6000ACFFC020FFF7A9FF002420E0000C0140E9
:100D700094812142A4812142A0812142008021420C
:100D8000988121429C8121421081214280000020D3
:100D90002001002076000020F749085DFFF756FE8D
:100DA000F5490831085DFFF751FE601CC4B2082CFC
:100DB000F2DBF24909788831C8B2FFF77EFF0120E3
:100DC000EF49086010BD10B53021EB48203806F01F
:100DD000D2FB10BD10B50446FFF7F5FFE948C07B14
:100DE000E54920394870E748005D0870FFF776FF55
:100DF00010BD10B50446FFF7E6FFE248807BDE49F0
:100E000020394870DF48005D0870FFF767FF10BDAC
:100E100010B50446FFF7D7FF20780A2190FBF1F0C8
:100E2000D849095CD4482038C17220780A2190FB47
:100E3000F1F201FB1200D349095CCF4820388172DE
:100E400060780A2190FBF1F0CE49095CCA4820384D
:100E5000417260780A2190FBF1F201FB1200C9494E
:100E6000085CC54920390872A0780A2190FBF1F08E
:100E7000C449085CC0492039C871A0780A2190FB98
:100E8000F1F201FB1200BF49085CBB4920398871AF
:100E9000E0780A2190FBF1F0BA49085CB6492039A4
:100EA0004871E0780A2190FBF1F201FB1200B5498C
:100EB000085CB1492039087120790A2190FBF1F0D2
:100EC000B049085CAC492039C87020790A2190FBF0
:100ED000F1F201FB1200AB49085CA7492039887088
:100EE00060790A2190FBF1F0A649085CA2492039FB
:100EF000487060790A2190FBF1F201FB1200A149D0
:100F0000085C9D4920390870E07928B99D48C1796D
:100F100099482038017305E0E0799A49095C9648C0
:100F200020380173FFF7DAFE10BD10B5964800783F
:100F300050B900209049203948700870FFF7CEFE64
:100F400001209149087005E09048FFF761FF0020FB
:100F50008D49087010BD10B58D48007850B900203B
:100F600085492039C8708870FFF7B8FE012088498C
:100F7000087005E08548FFF74BFF002084490870A2
:100F800010BD10B58348007850B900207A49203947
:100F900048710871FFF7A2FE01207E49087005E044
:100FA0007A48FFF735FF00207A49087010BD10B568
:100FB0007948007850B900206F492039C87188718C
:100FC000FFF78CFE01207449087005E06F48FFF7B9
:100FD0001FFF00207049087010BD10B56F480078E1
:100FE00068B90021644820384172002062492039E4
:100FF0000872FFF773FE01206849087005E0634836
:10100000FFF706FF00206549087010BD10B5644861
:10101000007848B90021584820380173FFF75EFE78
:1010200001205F49087005E05848FFF7F1FE0020F5
:101030005B49087010BD10B50446FFF7C4FE207868
:101040005049085C4C492039C87060784D49085CAB
:10105000494920398870A0784A49085C46492039B6
:101060004870E0784749085C434920390870FFF729
:1010700035FE10BD10B50446FFF7A5FE0A2094FB0F
:10108000F0F04049085C3C49203948700A2094FB44
:10109000F0F100FB11403B49085C374920390870EA
:1010A000FFF71CFE10BD10B50446FFF78CFE0A20AA
:1010B00094FBF0F100FB11403249085C2E492039C5
:1010C0000870FFF70BFE10BD10B5044635480078D8
:1010D00048B90020284920390870FFF7FFFD01209A
:1010E0003049087005E02046FFF7A5FF00202D4994
:1010F000087010BD10B504462B48007848B9002090
:101100001D4920394870FFF7E9FD01202649087084
:1011100005E02046FFF78FFF00202349087010BD2F
:1011200010B504462148007848B9002012492039FA
:101130008870FFF7D3FD01201C49087005E02046A8
:10114000FFF779FF00201949087010BD10B504465B
:101150001748007848B9002007492039C870FFF7C0
:10116000BDFD01201249087005E02046FFF763FF2E
:1011700000200F49087010BD4001002076000020BB
:101180009C812142BE7600082F000020270000200D
:101190003000002031000020320000203300002009
:1011A00034000020350000203600002037000020E9
:1011B000380000205649097801290AD15549564A74
:1011C0001278895C554AD171402191715171117128
:1011D0002FE030B94021514AD17191715171117193
:1011E00027E04C494C4A1278895C4C4AD1714FF443
:1011F0007A7190FBF1F201FB1201642291FBF2F192
:10120000444A515C454A9171642190FBF1F201FB23
:1012100012010A2291FBF2F13E4A515C3F4A5171A0
:101220000A2190FBF1F201FB12013A4A515C3B4A60
:10123000117170474FF47A7190FBF1F201FB1201CA
:10124000642291FBF2F1334A525C3449CA7364213F
:1012500090FBF1F201FB12010A2291FBF2F12D4AFF
:10126000525C2E498A730A2190FBF1F201FB1201B4
:10127000284A525C29494A737047002006E02849F1
:1012800011F8301001B905E0411CC8B225490978B0
:101290008842F4DB00BF0A2190FBF1F11D4A525C49
:1012A0001E494A720A2190FBF1F201FB1201194A10
:1012B000515C1A4A117270471B490988491E1B4A22
:1012C0001288914201DA002005E017490988174A7F
:1012D0001288891A481E6421B0FBF1F10D4A525C54
:1012E0000E490A736421B0FBF1F201FB12010A22DC
:1012F000B1FBF2F1074A525C0849CA720A21B0FBFD
:10130000F1F201FB1201034A525C04498A727047F0
:10131000EC000020BE760008EB0000202001002039
:101320006001002071000020F0000020EE0000208D
:1013300008B50121082004F00CFE14208DF80300EC
:1013400003208DF802008002ADF800006946FE48D7
:1013500004F0D6FA10208DF803000002ADF800006A
:101360006946F94804F0CCFA0120F8490860F849C8
:10137000C1F8AC014FF00000F649086008BD06E076
:10138000072100BF0A00A1F10103D9B2FAD102007E
:10139000A0F1010398B2F3D1704710B50120EE49D6
:1013A00008604FF00500FFF7EAFF0120E849C1F8A7
:1013B000A8010520FFF7E3FF0020E74908604FF090
:1013C0000500FFF7DCFF0020E149C1F8A801052076
:1013D000FFF7D5FF10BD70B5044600251FE014F0DF
:1013E000800F03D00120DC49086002E00020DA49C8
:1013F00008604FF00200FFF7C2FF0120D5490860E6
:101400004FF00200FFF7BBFF6006040E0020D0493A
:10141000C1F8A8010220FFF7B2FF681CC5B2082D71
:10142000DDDB0120CC4908604FF00200FFF7A7FF89
:101430000120C749C1F8A8010220FFF7A0FFC74853
:10144000006808B1012070BD0020C24908604FF05B
:101450000200FFF794FF0020BD49C1F8AC01022053
:10146000FFF78DFF0020EEE770B500240120BA4998
:1014700008604FF0000517E06006040E0120B54932
:1014800008604FF00200FFF77AFFB148D0F82C0156
:1014900008B144F001040020AE4908604FF002009A
:1014A000FFF76DFF681CC5B2082DE5DB204670BD57
:1014B00010B50020A74908604FF00500FFF75FFF57
:1014C0000020A349C1F8AC010520FFF758FF012017
:1014D000A04908604FF00500FFF751FF01209C492B
:1014E000C1F8AC010520FFF74AFF10BD2DE9F0411E
:1014F00006460C4617460125FFF74FFFA020FFF7D1
:101500006AFF054615B10120BDE8F081C6F304204D
:10151000FFF761FF05460DB10120F5E7F0B2FFF7D7
:101520005AFF05460DB10120EEE7FFF736FFA12077
:10153000FFF751FF05460DB10120E5E71AE0FFF77F
:1015400093FF20700020844908604FF00500FFF7EA
:1015500016FF01207E49C1F8A8010520FFF70FFF03
:1015600000207C4908604FF00500FFF708FF641C6D
:10157000781E87B2012FE2DCFFF776FF2070012092
:10158000754908604FF00500FFF7F9FE012070492A
:10159000C1F8A8010520FFF7F2FE00206D490860A0
:1015A0004FF00500FFF7EBFEFFF782FF0020ABE7EF
:1015B0002DE9F047804689461646012500206349FB
:1015C0000860044634E008EB040087B2FFF7E5FE4C
:1015D000A020FFF700FF054615B10120BDE8F08708
:1015E000C7F30420FFF7F7FE05460DB10120F5E72C
:1015F000F8B2FFF7F0FE05460DB10120EEE74FF01F
:10160000000A0DE019F80400FFF7E5FE05460DB1EC
:101610000120E3E7601C84B20AF1010000F0FF0A38
:10162000B245EFDBFFF744FF4FF4FA60FFF7A7FE88
:10163000B442C8DB0120454908604FF00000CDE707
:101640002DE9FC4104460026202500272AE0082237
:1016500069462846FFF74AFF019810F07F4F1AD1DC
:101660003F480078022806D13E4901980840019081
:101670006068084060600198616888420DD13A480E
:10168000009901600020384908717A2003F036FA89
:101690000120BDE8FC8106B92E4605F1080085B29F
:1016A000781C87B2B7F5007FD1DB0822214630468F
:1016B000FFF77EFF1EB1792003F020FA04E07A20C4
:1016C00003F01CFA0120E4E70020E2E72DE9FC41E9
:1016D000044600264FF4A15500272AE00822694657
:1016E0002846FFF703FF019810F07F4F1AD11C48DE
:1016F0000078022806D11B490198084001906068D3
:10170000084060600198616888420DD117480099CF
:1017100001600020154908717A2003F0EFF90120DB
:10172000BDE8FC8106B92E4605F1080085B2781C9B
:1017300087B2202FD2DB082221463046FFF738FF40
:10174000CEB1792014E00000000C0140B0812142AC
:1017500000802142A8812142AC8121422C8121427A
:101760007E000020F0FFFF00480000205200002013
:1017700003F0C4F904E07A2003F0C0F90120CFE7B8
:101780000020CDE72DE9FC41044600264FF48155A9
:1017900000272AE0082269462846FFF7A7FE01989D
:1017A00010F07F4F1AD1FA480078022806D1F94983
:1017B0000198084001906068084060600198616885
:1017C00088420DD1F448009901600020F249087167
:1017D0007A2003F093F90120BDE8FC8106B92E467A
:1017E00005F1080085B2781C87B2402FD2DB0822B1
:1017F00021463046FFF7DCFE1EB1792003F07EF96A
:1018000004E07A2003F07AF90120E5E70020E3E71D
:101810002DE9FC41044600264FF4915500272AE0AB
:10182000082269462846FFF761FE019810F07F4FB5
:101830001AD1D7480078022806D1D6490198084025
:1018400001906068084060600198616888420DD12D
:10185000D248009901600020D04908717A2003F035
:101860004DF90120BDE8FC8106B92E4605F10800BE
:1018700085B2781C87B2402FD2DB08222146304641
:10188000FFF796FE1EB1792003F038F904E07A20C4
:1018900003F034F90120E5E70020E3E770B58AB0F2
:1018A000054620262021684605F065FEFF222021FE
:1018B000684605F059FE286880B900240BE006EB65
:1018C000441188B220226946FFF772FE6420FFF7B8
:1018D00056FD601C84B2802CF1DB22E000241CE069
:1018E000082208A93046FFF701FE099810F07F4F43
:1018F0000ED12868089988420AD1FF22082108A839
:1019000005F032FE082208A93046FFF751FE07E035
:1019100006F1080086B2601C84B2B4F5007FDFDBFC
:1019200000BF00200AB070BD70B58AB005464FF404
:10193000A1562021684605F01EFEFF2220216846A0
:1019400005F012FE286880B900240BE006EB441174
:1019500088B220226946FFF72BFE6420FFF70FFDB7
:10196000601C84B2082CF1DB21E000241CE008227A
:1019700008A93046FFF7BAFD099810F07F4F0ED145
:101980002868089988420AD1FF22082108A805F092
:10199000EBFD082208A93046FFF70AFE06E006F133
:1019A000080086B2601C84B2202CE0DB00BF00205F
:1019B0000AB070BD70B58AB005464FF4815620213B
:1019C000684605F0D8FDFF222021684605F0CCFDD1
:1019D000286880B900240BE006EB441188B220226D
:1019E0006946FFF7E5FD6420FFF7C9FC601C84B27F
:1019F000102CF1DB21E000241CE0082208A930466D
:101A0000FFF774FD099810F07F4F0ED128680899F0
:101A100088420AD1FF22082108A805F0A5FD082266
:101A200008A93046FFF7C4FD06E006F1080086B2BB
:101A3000601C84B2402CE0DB00BF00200AB070BD07
:101A400070B58AB005464FF491562021684605F0DE
:101A500092FDFF222021684605F086FD286880B9A6
:101A600000240BE006EB441188B220226946FFF700
:101A70009FFD6420FFF783FC601C84B2102CF1DB17
:101A800021E000241CE0082208A93046FFF72EFDC3
:101A9000099810F07F4F0ED12868089988420AD122
:101AA000FF22082108A805F05FFD082208A930469A
:101AB000FFF77EFD06E006F1080086B2601C84B2E6
:101AC000402CE0DB00BF00200AB070BD10B588B02C
:101AD000202233A1684605F035FD002408E00021EE
:101AE00001EB441188B220226946FFF761FD641CB6
:101AF000A82CF4D308B010BD2DE9FC4105460C46D6
:101B0000202600271DE0082269463046FFF7EEFC3C
:101B10001F480078022805D11E490198084001900D
:101B2000084604400198A04206D1DDE90001C5E95C
:101B300000010120BDE8FC8106F1080086B2781C96
:101B400087B2B7F5007FDEDB0020F3E72DE9FC412B
:101B500005460C464FF48156002736E008226946B8
:101B60003046FFF7C3FC0A480078022805D109492E
:101B7000019808400190084604400198A0421FD1F6
:101B8000DDE90001C5E900010120BDE8FC8100009C
:101B90007E000020F0FFFF005C00002066000020B7
:101BA000FFFFFFFFFFFFFFFFFFFFFFFFFFFFFFFF45
:101BB000FFFFFFFFFFFFFFFFFFFFFFFFFFFFFFFF35
:101BC00006F1080086B2781C87B2402FC6DB0020E1
:101BD000BDE8FC812DE9FC4105460C464FF49156C9
:101BE00000271DE0082269463046FFF77FFCD248F7
:101BF0000078022805D1D149019808400190084693
:101C000004400198A04206D1DDE90001C5E90001C8
:101C10000120BDE8FC8106F1080086B2781C87B27D
:101C2000402FDFDB0020F4E770B504460D4629465F
:101C30002046FFF7CFFF08B1012070BD294620469E
:101C4000FFF784FF08B10220F7E729462046FFF797
:101C500053FF08B10320F0E70020EEE72DE9FC4137
:101C600005460C464FF4A15600271DE008226946A0
:101C70003046FFF73BFCB0480078022805D1AF4959
:101C8000019808400190084604400198A04206D1FE
:101C9000DDE90001C5E900010120BDE8FC8106F194
:101CA000080086B2781C87B2202FDFDB0020F4E723
:101CB00010B5A3480078A3490870A348007848707D
:101CC000A24800788870A2480078C870A1480078BF
:101CD0000871A14800784871A04800788871A04830
:101CE0000078C8719F48007808729F480078487251
:101CF0009E48007888729E480078C8729D48007897
:101D000008738D48007848739B48007888739B4817
:101D10000078C87310224FF4AA50FFF749FC10BD99
:101D200010B5102296494FF4A950FFF7DFFB10229F
:101D3000944941F23050FFF7D9FB102281494FF40A
:101D4000AA50FFF7D3FB7F4800787D4908707D4893
:101D500040787D4908707B4880787C4908707948D4
:101D6000C0787B490870774800797A4908707548CF
:101D700040797949087073488079784908707148CA
:101D8000C079774908706F48007A764908706D48C5
:101D9000407A754908706B48807A744908706948C0
:101DA000C07A734908706748007B724908706548BB
:101DB000407B614908706348807B6F4908706148C7
:101DC000C07B6E4908705F480078022802DD012060
:101DD0005B4908705B484078632802DD01205A495E
:101DE000087058488078632802DD01205749087040
:101DF0005448C078632802DD0120554908705148D5
:101E00000079072802DD0020524908704D484079CA
:101E1000092802DD0120504908704A4880790128CC
:101E200002DD00204D4908704648C079092802DDCE
:101E300006204B4908704348007A072802DD03203A
:101E4000484908703F48407A012802DD0020464991
:101E500008703C48807A012802DD00204349087060
:101E60003848C07A012802DD002041490870354811
:101E7000007B0B2802DD0B203E4908703148407B77
:101E8000022802DD02202C4908702E48807B0128A0
:101E900002DD0120384908702A48C07B022802DD93
:101EA00001203649087010BD0120254908702649D7
:101EB00008700020254908702549087025490870D8
:101EC0000120254908700020244908700620244973
:101ED000087003202349087001202349087000205E
:101EE00022490870224908700B20224908700220FC
:101EF00011490870704710B501221021204805F0E3
:101F000033FB01201F4908700020487003208870AF
:101F10000520C870022008710120487188710620D0
:101F2000C8710120087248728872C87208734873B9
:101F30008873C87310BD00007E000020F0FFFF0012
:101F4000700000205001002071000020440000209B
:101F50004500002072000020730000207400002063
:101F60007500002076000020770000207800002017
:101F7000790000207A000020470000204600002061
:101F800095000020A500002008B50121042003F0E1
:101F9000E0FF3320ADF8000048208DF803006946CB
:101FA000FE4803F0ADFC08BD06E00C2100BF0A00AE
:101FB000A1F10103D9B2FAD10200A0F1010398B254
:101FC000F3D1704710B5FF24F548006840B1F548DB
:101FD000006828B1F448006810B1F448006810BBEC
:101FE00042F21070FFF7E0FFED48006840B1ED48A5
:101FF000006828B1EC48006810B1EC48006890B95E
:102000000020EB490860E648006800B90324E54871
:10201000006800B90B24E448006800B91324E348C1
:10202000006800B91B24204610BD10B50020E1490E
:102030000870FFF7C7FFE049087008460078FF28DE
:1020400003D1FEF73CFDDC490870DB480078FF282F
:102050004BD1DA480078012847D1D94800781E28AA
:1020600014DDD8480078012810D10020D349087029
:102070000320D04908700120D1490870D249087066
:10208000D24908700320CC4908702EE0CC48007873
:1020900038BB0020C9490870CA480078012806D01A
:1020A000022810D0042812D0082818D113E0C748FD
:1020B0000078012803D10020C449087002E0032001
:1020C000BD4908700CE00B20BB49087008E01320E4
:1020D000B949087004E01B20B749087000E000BF50
:1020E00003E0B9480078B6490870B3480078002882
:1020F00075D0B1480078212872D2DFE800F071FD78
:10210000FC11FBFAF9F8F7F6F5F4F3F2F1F0EFEE63
:10211000EDECEBEAE9E8E7E6E5E4E3E2E1E0DF0045
:10212000ACE0A44800780228FADDA94800784D28E0
:1021300048D016DC312864D00BDC0D2832D003DC0B
:1021400040B30C287ED129E00F282FD030287CD135
:1021500060E04838052878D2DFE800F02C2D2E2FDB
:102160003300532837D008DCA0F14E0005286CD28C
:10217000DFE800F0292A2E2F3000562833D004DC67
:1021800054282ED0552860D12CE057282CD06A280E
:102190005BD12DE002208E49087057E033208C4936
:1021A000087053E034208A4908704FE0362088498F
:1021B00008704BE000BF00BF00BF8648FFF76EFB12
:1021C00044E000BF00BF00BF8348FFF7ADFB3DE028
:1021D00000BF00BF00BF8148FFF7ECFB36E0CEE256
:1021E000AFE200BF00BF00BF7D48FFF729FC2DE034
:1021F0000220774908704FF448717A4805F0BBF91E
:1022000024E0FFF751FEFFF753FD012000F0B9FA7B
:1022100000F0BCFAFFF748FEFFF76DFEFFF748FD40
:10222000102271494FF4A950FFF7C2F910226F49EB
:1022300041F23050FFF7BCF9FFF748FC012000F0F5
:10224000A0FA00E001E000F0A1FA00BF00BF604882
:10225000007800EB4000664901EB8000806865492A
:10226000086008460068804700BF4D4800680028A5
:10227000FBD0FEF724FC0328F7D010BD48480068C7
:1022800038B1FEF71CFC032803D04A480078022826
:102290007CDD4F48007800283FF443AF4C4800787D
:1022A0000C28F9D04A4800780D28F5D04848007825
:1022B0004828F1D04648007849281EE032E220E262
:1022C0000EE2FAE1F8E1F3E0F5E1F3E1E1E1D3E177
:1022D000C5E1B7E1B5E1CAE0B2E1B0E196E188E17C
:1022E0007AE16CE15CE1A1E059E157E13AE12CE1EE
:1022F0001EE110E102E100E1FEE0CDD034480078BB
:102300004A28C9D0324800784B28C5D030480078D8
:102310004C28C1D02E4800784D28BDD02C480078DC
:102320004E28B9D02A4800784F28B5D028480078E0
:102330005028B1D0264800785128ADD024480078E4
:102340005228A9D0224800785328A5D020480078E8
:102350005428A1D01E48007855289DD01C480078EC
:10236000562899D01A480078572895D018480078F0
:10237000302891D01648007831288DD01448007844
:102380006A2889D0124800780F2885D01048007834
:1023900000EB4000164901EB80002DE000080140F1
:1023A0000001214204012142100121421401214275
:1023B00080000020080000203D0000209200002046
:1023C0009400002093000020260000203E00002002
:1023D0003C0000204D00002057000020610000203C
:1023E0006B0000206001002095000020A500002067
:1023F000F0760008400000204078EB49087008465D
:10240000007800EB4000E94901EB80008068E84972
:10241000086008460068804700BFE648006800285A
:10242000FBD0FEF74CFB0328F7D0A7E1DE4800788D
:1024300000EB4000DD4901EB80008078DA4908704C
:102440000846007800EB4000D84901EB8000806826
:10245000D749086008460068804700BFD648006832
:102460000028FBD0FEF72BFB0B28F7D086E1CE48E7
:10247000007800EB4000CD4901EB8000C078CA49EC
:1024800008700846007800EB4000C84901EB800066
:102490008068C749086008460068804700BFC74891
:1024A00000680028FBD0FEF70AFB1328F7D065E18F
:1024B0000020C3490870BC48007800EB4000BB49CD
:1024C00001EB80000079B84908700846007800EBFD
:1024D0004000B64901EB80008068B54908600846B5
:1024E0000068804700BFB74800680028FBD0FEF7AF
:1024F000E6FA1B28F7D041E140E13FE1002002F07D
:10250000F9FE00BFAF4800680028FBD0FEF7D7FAFD
:102510000428F7D032E1072002F0ECFE00BFA94802
:1025200000680028FBD0FEF7CAFA0528F7D025E19D
:10253000042002F0DFFE00BFA24800680028FBD0A4
:10254000FEF7BDFA0628F7D018E1012002F0D2FE0E
:1025500000BF9C4800680028FBD0FEF7B0FA0728AF
:10256000F7D00BE19848008840F2E731884205DA5D
:1025700095480088401C9449088003E040F2E73009
:102580009149088001F005FE00BF8E4800680028D0
:10259000FBD0FEF794FA0828F7D0EFE0EEE0EDE08C
:1025A00000208949088001F0F4FD00BF85480068DB
:1025B0000028FBD0FEF783FA0C28F7D0DEE00820D5
:1025C00002F098FE00BF7F4800680028FBD0FEF7AD
:1025D00076FA0D28F7D0D1E0052002F08BFE00BF7F
:1025E000784800680028FBD0FEF769FA0E28F7D07B
:1025F000C4E0022002F07EFE00BF7248006800289E
:10260000FBD0FEF75CFA0F28F7D0B7E06E480088E1
:10261000002805DD6C480088401E6B49088002E0F8
:1026200000206949088001F0B4FD00BF65480068DA
:102630000028FBD0FEF743FA1028F7D09EE09DE07B
:102640009CE09BE0092002F055FE00BF5D48006859
:102650000028FBD0FEF733FA1528F7D08EE00620CD
:1026600002F048FE00BF574800680028FBD0FEF784
:1026700026FA1628F7D081E0032002F03BFE00BFC7
:10268000504800680028FBD0FEF719FA1728F7D049
:1026900074E002F053FE01204C49087001F079FD0E
:1026A00000BF484800680028FBD0FEF708FA182849
:1026B000F7D063E062E061E060E0FDF7DFFE4448F0
:1026C0000088401C4249088001F063FD00BF3D487E
:1026D00000680028FBD0FEF7F2F91D28F7D04DE086
:1026E00002F0D6FE01203949087001F052FD00BF0A
:1026F000344800680028FBD0FEF7E1F91E28F7D027
:102700003CE002F068FE01203049087001F041FD14
:1027100000BF2C4800680028FBD0FEF7D0F91F2826
:10272000F7D02BE001202B49087001F032FD00BFEB
:10273000244800680028FBD0FEF7C1F92028F7D014
:102740001CE025480078012817D100202249087094
:102750001548007800EB4000144901EB80008068C8
:10276000134908600846006880470F4800786A28C7
:1027700003D102F039F902F05CF900BF00BF00BFDD
:102780007BE500F0010181F313887047134800686E
:1027900000F4E06012490843001D10490860BFF3CF
:1027A000408F00BFFEE700003C000020F0760008EC
:1027B0004000002000012142040121421001214279
:1027C0002500002014012142EE000020F20000202C
:1027D000F0000020EC000020010000200CED00E0E3
:1027E0000000FA05C178092923D1817809291AD175
:1027F0004178092910D10178491C017000214170EC
:1028000081700178152904D1002101700121C17066
:1028100012E00121C1700FE04178491C4170002194
:102820008170C17008E08178491C81700021C170FD
:1028300002E0C178491CC170704710B50446FB48DE
:102840000078032807D1FA480078012803D12046F0
:1028500002F054F922E0F54800780B2807D1F4483B
:102860000078012803D1204602F048F916E0EF482D
:102870000078132807D1EE480078012803D12046BC
:1028800002F03CF90AE0E94800781B2806D1E84844
:102890000078012802D1204602F030F910BD4278BC
:1028A00002F5FA624A6182780A61C278CA600279E6
:1028B0008A6042794A6082790A60C2798A61704787
:1028C000027DA2F5FA624A70027C8A70027BCA70AD
:1028D000027A0A7102794A7102788A71027ECA719B
:1028E000704770B5044603F0FBFB2146D148FFF763
:1028F000D6FF204602F091FB054603F0BEFB03F035
:10290000EFFB70BD10B5CC48007870BBCB480078A9
:10291000E0B9FEF758FACA480088FEF74BFCC948F0
:102920000088FEF787FCFEF7A8FCFEF7C5FC4020F8
:10293000C549097801F00301C44A5054FEF7CEF9A5
:10294000C1480078401CC04908700EE003F08CFBC1
:1029500000F5E144BE49204602F09DFBB549BC4864
:10296000FFF7AEFFB348FEF753FAB04800781328DC
:1029700002D102F01BF80CE0AC4800780B2802D121
:1029800002F001F805E0A94800781B2801D101F008
:10299000F3FF10BD10B50020FEF71CFA03F064FB36
:1029A00000F5E144AA49204602F075FBA149A84878
:1029B000FFF786FF10BD10B50120FEF70BFA6F2060
:1029C000FFF73BFF10BD10B50220FEF703FA7020A1
:1029D000FFF733FF10BD10B50320FEF7FBF97120A0
:1029E000FFF72BFF10BD10B50420FEF7F3F972209E
:1029F000FFF723FF10BD10B50520FEF7EBF973209C
:102A0000FFF71BFF10BD10B50620FEF7E3F9742099
:102A1000FFF713FF10BD10B50720FEF7DBF9752097
:102A2000FFF70BFF10BD10B50820FEF7D3F9762095
:102A3000FFF703FF10BD10B50920FEF7CBF9772093
:102A4000FFF7FBFE10BD10B50A20FEF7C3F910BD5D
:102A500010B50B20FEF7BEF910BD10B50C20FEF727
:102A6000B9F910BD10B50D20FEF7B4F910BD10B5C1
:102A70000E20FEF7AFF910BD10B5FEF756FA6B4801
:102A80000078132813D16B4840793B2803D10020EC
:102A90006849487104E067484079401C65494871BD
:102AA0006B48FFF71EFF6348FEF7B2F915E05F4879
:102AB00000780B2811D15F48407918B93B205D4957
:102AC000487104E05B484079401E5A4948716048AB
:102AD000FFF707FF5748FEF79BF910BD10B5FEF74B
:102AE0003AFA52480078132813D15248007917282F
:102AF00003D100204F49087104E04E480079401C82
:102B00004C4908715248FFF7ECFE4A48FEF780F93D
:102B100015E0464800780B2811D14648007918B9CD
:102B200017204449087104E042480079401E414999
:102B300008714748FFF7D5FE3E48FEF769F910BD1A
:102B400010B5FEF71EFA39480078132813D139481A
:102B5000C0781F2803D101203649C87004E03548E9
:102B6000C078401C3349C8703948FFF7BAFE314875
:102B7000FEF74EF916E02D4800780B2812D12D48AB
:102B8000C078012803D11F202A49C87004E02948D1
:102B9000C078401E2749C8702D48FFF7A2FE25487F
:102BA000FEF736F910BD10B5FEF701FA1F480078A0
:102BB000132813D11F4880780C2803D101201D4908
:102BC000887004E01B488078401C1A4988702048AF
:102BD000FFF787FE1748FEF71BF916E01348007849
:102BE0000B2812D113488078012803D10C201149F9
:102BF000887004E00F488078401E0E4988701448A1
:102C0000FFF76FFE0B48FEF703F910BD10B5FEF796
:102C1000E4F906480078132828D10648407863284C
:102C200018D100200349487019E000003D00002041
:102C300077000020270000206001002046000020CF
:102C4000EE000020F0000020850000202001002080
:102C500094040020FE484078401CFD494870FD481F
:102C6000FFF73FFEFA48FEF7D3F815E0FA48007880
:102C70000B2811D1F648407818B96320F449487000
:102C800004E0F3484078401EF1494870F148FFF7EE
:102C900028FEEF48FEF7BCF810BD10B5FEF7B6F9F8
:102CA00010BD10B50120FEF7A4F810BD10B502202C
:102CB000FEF79FF810BD10B50320FEF79AF810BD7F
:102CC00010B50420FEF795F810BD10B50120FEF7F1
:102CD00090F810BD10B50220FEF78BF810BD10B5AE
:102CE0000320FEF786F810BD10B50420FEF781F82A
:102CF00010BD10B50120FEF77CF810BD10B5022004
:102D0000FEF777F810BD10B5D348007813280FD11F
:102D1000D2480078632803D10020D049087004E02D
:102D2000CE480078401CCD490870FEF7C1FF11E085
:102D3000C94800780B280DD1C848007818B963201D
:102D4000C649087004E0C5480078401EC3490870B1
:102D5000FEF7AEFFC1480078FEF78CF910BD10B544
:102D6000BD48007813280FD1BD480078632803D1EF
:102D70000020BB49087004E0B9480078401CB849FD
:102D80000870FEF795FF11E0B34800780B280DD1CD
:102D9000B348007818B96320B149087004E0B0481E
:102DA0000078401EAE490870FEF782FFAC480078FC
:102DB000FEF760F910BD10B50120FEF71AF810BD3E
:102DC00010B50220FEF715F810BD10B50320FEF770
:102DD00010F810BD10B50420FEF70BF810BD10B5AB
:102DE0000520FEF706F810BD10B50620FEF701F825
:102DF00010BD10B50720FDF7FCFF10BD10B5082071
:102E0000FDF7F7FF10BD10B50120FDF7F2FF10BD73
:102E100010B50220FDF7EDFF10BD10B50320FDF742
:102E2000E8FF10BD10B50420FDF7E3FF10BD10B59D
:102E30000120FDF7DEFF8B4800788B49087010BD3C
:102E400010B50220FDF7D5FF00208849087010BD9D
:102E500010B50120FDF7CDFF10BD10B50220FDF724
:102E6000C8FF10BD704710B57B48007813280DD1FE
:102E70007F480078012803D100207D49087002E0D6
:102E800001207B490870FEF713FF10E072480078BC
:102E90000B280CD176480078012803D10020744912
:102EA000087002E0012072490870FEF701FF7048C7
:102EB0000078FEF7F8F810BD10B5674800781328C1
:102EC0000DD16C480078012803D1002069490870B1
:102ED00002E0012067490870FEF7EAFE10E05E4854
:102EE00000780B280CD163480078012803D100201A
:102EF0006049087002E001205E490870FEF7D8FEC4
:102F00005C480078FEF7CFF810BD704710B501207F
:102F1000FDF76FFF10BD10B50220FDF76AFF10BD71
:102F200010B55548FEF7D0F84B480078132810D15B
:102F30005148C078092803D100204F49C87004E0E7
:102F40004D48C078401C4C49C8704B48FEF773F898
:102F500012E0414800780B280ED14748C07818B9D4
:102F600009204549C87004E04348C078401E4249E2
:102F7000C8704148FEF75FF810BD10B53E48FEF737
:102F8000B9F835480078132810D13B4880780928D3
:102F900003D100203849887004E037488078401C0D
:102FA000354988703448FEF746F812E02A48007820
:102FB0000B280ED13048807818B909202E49887026
:102FC00004E02D488078401E2B4988702A48FEF77F
:102FD00032F810BD10B52848FEF7A2F81E48007858
:102FE000132810D124484078092803D10020224911
:102FF000487004E020484078401C1F4948701E4833
:10300000FEF719F812E0144800780B280ED11A4880
:10301000407818B909201849487004E016484078EB
:10302000401E154948701448FEF705F810BD10B54C
:103030001148FEF78BF808480078132827D10E486E
:10304000007809281AD100200B4908701BE0000005
:1030500027000020940400203D00002044000020B0
:10306000450000207E000020840000207F0000201A
:10307000470000204600002048000020F748007864
:10308000401CF6490870F548FDF7D5FF12E0F448FA
:1030900000780B280ED1F148007818B90920EF49C3
:1030A000087004E0ED480078401EEC490870EB48D9
:1030B000FDF7C1FF10BD10B5EA48FEF705F8E84876
:1030C0000078132810D1E748C078092803D10020E0
:1030D000E449C87004E0E348C078401CE149C87086
:1030E000E048FDF7A8FF12E0DD4800780B280ED17C
:1030F000DC48C07818B90920DA49C87004E0D9481A
:10310000C078401ED749C870D648FDF794FF10BD5F
:1031100010B5D448FDF7EEFFD1480078132810D140
:10312000D0488078092803D10020CE49887004E077
:10313000CC488078401CCB498870CA48FDF77BFF9B
:1031400012E0C74800780B280ED1C648807818B91D
:103150000920C449887004E0C2488078401EC149F3
:103160008870C048FDF767FF10BD10B5BD48FDF77A
:10317000D7FFBB480078132810D1BA4840780928F7
:1031800003D10020B749487004E0B6484078401C9D
:10319000B4494870B348FDF74EFF12E0B0480078DC
:1031A0000B280ED1AF48407818B90920AD494870B6
:1031B00004E0AC484078401EAA494870A948FDF791
:1031C0003AFF10BD10B5A748FDF7C0FFA44800782E
:1031D000132810D1A3480078092803D10020A14961
:1031E000087004E09F480078401C9E4908709D4884
:1031F000FDF721FF12E09A4800780B280ED199487C
:10320000007818B909209749087004E095480078BB
:10321000401E944908709348FDF70DFF10BD10B58E
:103220009148FDF751FF8E480078132810D18E4841
:10323000C078092803D100208B49C87004E08A486F
:10324000C078401C8849C8708748FDF7F4FE12E03A
:10325000834800780B280ED18348C07818B909201C
:103260008149C87004E08048C078401E7E49C8701B
:103270007D48FDF7E0FE10BD10B57B48FDF73AFF35
:1032800077480078132810D177488078092803D12F
:1032900000207549887004E073488078401C7249AA
:1032A00088707148FDF7C7FE12E06D4800780B2862
:1032B0000ED16D48807818B909206B49887004E0F8
:1032C00069488078401E684988706748FDF7B3FEFA
:1032D00010BD10B56448FDF723FF6148007813283E
:1032E00010D161484078092803D100205E49487018
:1032F00004E05D484078401C5B4948705A48FDF73F
:103300009AFE12E0564800780B280ED156484078B5
:1033100018B909205449487004E053484078401EC9
:10332000514948705048FDF786FE10BD10B54E4813
:10333000FDF70CFF4A480078132810D14A4800785E
:10334000092803D100204849087004E04648007865
:10335000401C454908704448FDF76DFE12E04048A6
:1033600000780B280ED14048007818B909203E4952
:10337000087004E03C480078401E3B4908703A4819
:10338000FDF759FE10BD10B53848FDF79DFE3448D5
:103390000078132810D13548C078092803D10020BF
:1033A0003249C87004E03148C078401C2F49C870C9
:1033B0002E48FDF740FE12E0294800780B280ED178
:1033C0002A48C07818B909202849C87004E027485D
:1033D000C078401E2549C8702448FDF72CFE10BD5A
:1033E00010B52248FDF786FE1D480078132810D13D
:1033F0001E488078092803D100201C49887004E009
:103400001A488078401C194988701848FDF713FE47
:1034100012E0134800780B280ED11448807818B9B0
:1034200009201249887004E010488078401E0F4936
:1034300088700E48FDF7FFFD10BD10B50B48FDF775
:103440006FFE0748007813281BD1084840780928E8
:103450000ED10020054948700FE000004800002010
:103460003D000020520000205C000020660000208B
:10347000F7484078401CF6494870F548FDF7DBFDF9
:1034800012E0F44800780B280ED1F148407818B9C2
:103490000920EF49487004E0ED484078401EEC49AF
:1034A0004870EB48FDF7C7FD10BD10B5E848FDF7C3
:1034B0004DFEE8480078132810D1E5480078092827
:1034C00003D10020E249087004E0E1480078401C84
:1034D000DF490870DE48FDF7AEFD12E0DD480078F8
:1034E0000B280ED1DA48007818B90920D84908709D
:1034F00004E0D7480078401ED5490870D448FDF74D
:103500009AFD10BD10B5D448FDF7DEFDD148007816
:10351000132810D1D048C078092803D10020CE4903
:10352000C87004E0CC48C078401CCB49C870CA4879
:10353000FDF781FD12E0C74800780B280ED1C64880
:10354000C07818B90920C449C87004E0C248C078DE
:10355000401EC149C870C048FDF76DFD10BD10B5D3
:10356000BD48FDF7C7FDBB480078132810D1BA4805
:103570008078092803D10020B749887004E0B64854
:103580008078401CB4498870B348FDF754FD12E0C0
:10359000B04800780B280ED1AF48807818B90920C0
:1035A000AD49887004E0AC488078401EAA49887014
:1035B000A948FDF740FD10BD10B5A748FDF7B0FDC7
:1035C000A4480078132810D1A3484078092803D1D3
:1035D0000020A149487004E09F484078401C9E4963
:1035E00048709D48FDF727FD12E09A4800780B28A7
:1035F0000ED19948407818B909209749487004E0DD
:1036000095484078401E944948709348FDF713FD53
:1036100010BD10B59048FDF799FD8E48007813282D
:1036200010D18D480078092803D100208A490870FC
:1036300004E089480078401C874908708648FDF7F7
:10364000FAFC12E0834800780B280ED182480078FB
:1036500018B909208049087004E07F480078401EAE
:103660007D4908707C48FDF7E6FC10BD10B57B482D
:10367000FDF72AFD77480078132810D17748C078E5
:10368000092803D100207549C87004E07348C07848
:10369000401C7249C8707148FDF7CDFC12E06D48BE
:1036A00000780B280ED16D48C07818B909206B49F5
:1036B000C87004E06948C078401E6849C87067480F
:1036C000FDF7B9FC10BD10B56448FDF713FD614866
:1036D0000078132810D161488078092803D1002090
:1036E0005E49887004E05D488078401C5B498870C2
:1036F0005A48FDF7A0FC12E0564800780B280ED17E
:103700005648807818B909205449887004E0534815
:103710008078401E514988705048FDF78CFC10BDE0
:1037200010B54E48FDF7FCFC4A480078132810D12C
:103730004A484078092803D100204849487004E0ED
:1037400046484078401C454948704448FDF773FCA2
:1037500012E0404800780B280ED14048407818B954
:1037600009203E49487004E03C484078401E3B49EF
:1037700048703A48FDF75FFC10BD10B53748FDF7BB
:10378000E5FC34480078132810D134480078092823
:1037900003D100203149087004E030480078401C13
:1037A0002E4908702D48FDF746FC12E029480078A4
:1037B0000B280ED12948007818B90920274908702C
:1037C00004E026480078401E244908702348FDF78D
:1037D00032FC10BD10B52248FDF776FC1D4800787C
:1037E000132810D11E48C078092803D100201C4995
:1037F000C87004E01A48C078401C1949C8701848BD
:10380000FDF719FC12E0134800780B280ED114487C
:10381000C07818B909201249C87004E01048C0786F
:10382000401E0F49C8700E48FDF705FC10BD10B5CD
:103830000B48FDF75FFC0748007813281BD10848A8
:10384000807809280ED10020054988700FE000001B
:10385000660000203D0000204D00002057000020A1
:1038600061000020FB488078401CFA498870F948C4
:10387000FDF7E1FB12E0F84800780B280ED1F5487F
:10388000807818B90920F349887004E0F1488078FD
:10389000401EF0498870EF48FDF7CDFB10BD10B514
:1038A000EC48FDF73DFCEC480078132810D1E948BE
:1038B0004078092803D10020E649487004E0E54833
:1038C0004078401CE3494870E248FDF7B4FB12E041
:1038D000E14800780B280ED1DE48407818B909205D
:1038E000DC49487004E0DB484078401ED949487004
:1038F000D848FDF7A0FB10BD10B5D648FDF726FC53
:10390000D5480078132810D1D2480078092803D16F
:103910000020D049087004E0CE480078401CCD4912
:103920000870CC48FDF787FB12E0CB4800780B28E5
:103930000ED1C848007818B90920C649087004E0BB
:10394000C4480078401EC3490870C248FDF773FBA5
:1039500010BD10B5C148FDF7B7FBBF48007813286C
:1039600010D1BE48C078092803D10020BB49C870D7
:1039700004E0BA48C078401CB849C870B748FDF7A1
:103980005AFB12E0B44800780B280ED1B348C07837
:1039900018B90920B149C87004E0B048C078401E89
:1039A000AE49C870AD48FDF746FB10BD10B5AB4839
:1039B000FDF7A0FBA8480078132810D1A74880780D
:1039C000092803D10020A549887004E0A348807825
:1039D000401CA2498870A148FDF72DFB12E09E48CB
:1039E00000780B280ED19D48807818B909209B4992
:1039F000887004E099488078401E984988709748FC
:103A0000FDF719FB10BD10B59448FDF789FB9248EE
:103A10000078132810D191484078092803D100205C
:103A20008E49487004E08D484078401C8B494870AE
:103A30008A48FDF700FB12E0874800780B280ED17A
:103A40008648407818B909208449487004E08348C2
:103A50004078401E814948708048FDF7ECFA10BD5F
:103A600010B57E48FDF772FB7B480078132810D113
:103A70007A480078092803D100207849087004E0CA
:103A800076480078401C754908707448FDF7D3FAF1
:103A900012E0714800780B280ED17048007818B9F0
:103AA00009206E49087004E06C480078401E6B499C
:103AB00008706A48FDF7BFFA10BD10B56648007877
:103AC00013280DD166480078012803D102206449EB
:103AD000087002E0012062490870FEF7E9F810E082
:103AE0005D4800780B280CD15D480078012803D18F
:103AF00002205B49087002E0012059490870FEF776
:103B0000D7F857480078FDF7CEFA10BD10B55248E7
:103B1000007813280FD153480078632803D1002080
:103B20005049087004E04F480078401C4D49087027
:103B3000FEF7BEF811E0484800780B280DD149483F
:103B4000007818B963204749087004E045480078B8
:103B5000401E44490870FEF7ABF842480078FDF774
:103B600089FA10BD10B53C48007813280FD13E48A3
:103B70000078072803D100203B49087004E03A4848
:103B80000078401C38490870FEF792F811E032487E
:103B900000780B280DD13448007818B90720324935
:103BA000087004E030480078401E2F490870FEF786
:103BB0007FF82D480078FDF776FA10BD10B526483D
:103BC000007813280FD129480078092803D1012053
:103BD0002649087004E025480078401C23490870F5
:103BE000FEF766F812E01C4800780B280ED11F483B
:103BF0000078012803D109201C49087004E01B4803
:103C00000078401E19490870FEF752F817480078EE
:103C1000FDF749FA10BD10B50F48007813280DD1F3
:103C200013480078012803D100201149087002E0F0
:103C300001200F490870FEF73BF820E006480078A5
:103C40000B281CD10A480078012813D1002008490C
:103C5000087012E0610000203D0000206B00002091
:103C6000700000207100002072000020730000200E
:103C7000740000200120F9490870FEF719F8F74890
:103C80000078FDF710FA10BD10B5F548007813283C
:103C900016D1F4480078092803D10120F1490870B1
:103CA00004E0F0480078401CEE490870ED490978BE
:103CB00001EB4101C8B200F036FFFDF7F9FF19E052
:103CC000E74800780B2815D1E6480078012803D191
:103CD0000920E449087004E0E2480078401EE14908
:103CE0000870E049097801EB4101C8B200F01BFF00
:103CF000FDF7DEFFDB480078FDF7D5F910BD10B504
:103D0000D748007813280FD1D7480078072803D167
:103D10000120D549087004E0D3480078401CD249FE
:103D20000870FDF7C5FF12E0CD4800780B280ED1D2
:103D3000CD480078012803D10720CB49087004E062
:103D4000C9480078401EC8490870FDF7B1FFC64851
:103D50000078FDF7A8F910BD10B5C1480078132808
:103D60000DD1C2480078012803D10020BF49087056
:103D700002E00120BD490870FDF79AFF10E0B84845
:103D800000780B280CD1B9480078012803D1002015
:103D9000B649087002E00120B4490870FDF788FFB9
:103DA000B2480078FDF77FF910BD10B5AC48007837
:103DB00013280DD1AE480078012803D10020AC496A
:103DC000087002E00120AA490870FDF771FF10E0B9
:103DD000A34800780B280CD1A5480078012803D10E
:103DE0000020A349087002E00120A1490870FDF7F6
:103DF0005FFF9F480078FDF756F910BD10B5984851
:103E0000007813280DD19B480078012803D10020A9
:103E10009849087002E0012096490870FDF748FFB4
:103E200010E08F4800780B280CD1924800780128C8
:103E300003D100208F49087002E001208D490870ED
:103E4000FDF736FF8B480078FDF72DF910BD10B552
:103E50008348007813280FD1874800780B2803D1B6
:103E600000208549087004E083480078401C82499E
:103E70000870FDF71DFF11E0794800780B280DD17F
:103E80007D48007818B90B207B49087004E07A4817
:103E90000078401E78490870FDF70AFF76480078E0
:103EA000FDF7E8F810BD10B56D48007813280DD166
:103EB000724800780B2803D100207049087015E083
:103EC0006E480078401C6D4908700FE06448007827
:103ED0000B280BD16948007818B90B206749087086
:103EE00004E066480078401E644908706348007822
:103EF000FDF7C0F810BD10B55948007813280DD152
:103F00005F4800780B2803D100205D49087015E058
:103F10005B480078401C5A4908700FE05048007810
:103F20000B280BD15648007818B90B20544908705B
:103F300004E053480078401E51490870504800780A
:103F4000FDF798F810BD10B54548007813280DD13D
:103F50004C4800780B2803D100204A49087015E02E
:103F600048480078401C474908700FE03C480078FA
:103F70000B280BD14348007818B90B204149087031
:103F800004E040480078401E3E4908703D480078F3
:103F9000FDF770F810BD10B53148007813280DD129
:103FA00039480078012803D102203749087002E01F
:103FB000012035490870FDF77BFE10E028480078A5
:103FC0000B280CD130480078012803D102202E495B
:103FD000087002E001202C490870FDF769FE2A48AC
:103FE0000078FDF760F82948007827490978884269
:103FF00005D02548007825490870FDF767FD10BDFC
:1040000010B51748007813280DD1214800782628CC
:1040100003D100201E49087015E01D480078401C9F
:104020001B4908700FE00E4800780B280BD1184888
:10403000007818B926201649087004E01448007862
:10404000401E13490870124909784231C8B2FEF780
:10405000F4FB0F480078FDF70DF810BD7400002048
:104060003D00002075000020760000207800002030
:1040700077000020790000207A0000207B000020DB
:104080007C0000207D0000207E00002084000020B5
:104090007F00002010B50D480078132802D100F0F1
:1040A00085FC0CE0094800780B2802D100F06BFC7D
:1040B00005E0064800781B2801D100F05DFC0448AB
:1040C000007810B900200349087010BD3D000020A1
:1040D000600100203C0000204A78FB4B9A5CA0F174
:1040E0000300C2708A789A5C8270CA789A5C4270C7
:1040F0000A799A5C00F8032BCA7902F00F02A2F148
:104100000202072A42D2DFE802F0041023414133C1
:104110003A0010F8032D42F080020270427842F01B
:104120008002427000F1030031E010F8032D42F0EC
:1041300080020270427842F080024270827842F03F
:1041400080028270C27842F0800200F8032F1EE0E5
:1041500010F8032D42F080020270427842F0800293
:104160004270827842F08002827000F103000EE01B
:1041700010F8022C42F0800200F8022C07E010F840
:10418000032C42F0800200F8032C00E000BF00BFC7
:10419000704710B5FCF717FECC4890F8400020B1EE
:1041A000CA494031CA48FFF797FFC84890F838001D
:1041B00028B1C6493831C648001FFFF78DFFC348F4
:1041C00090F8300028B1C1493031C1480838FFF7B4
:1041D00083FFBE4890F8280028B1BC492831BC486C
:1041E0000C38FFF779FFB94890F8200028B1B7499B
:1041F0002031B7481038FFF76FFFB448007E28B170
:10420000B2491831B2481438FFF766FFAF48007C56
:1042100028B1AE491031AE481838FFF75DFFAB4802
:10422000007A28B1A9490831A9481C38FFF754FF82
:10423000A648007820B1A549A5482C38FFF74CFFC7
:10424000A4480088FCF7B6FFA3480088FCF7F2FFFB
:10425000FDF713F8FDF730F8FCF740FD10BD81685D
:104260000160C1684160704702469C4803780021A4
:1042700006E012F8310008B908467047481CC1B280
:10428000964800788142F4DB1846F6E72DE9F041C4
:1042900006468E48FFF7E8FF05462F4600240CE04F
:1042A000D6F80100894901EBC401D1F80110884218
:1042B00001D1E5B203E0601C44B2AC42F0DB00BFC8
:1042C000BD4211D06CB206E0804901EBC400FFF79B
:1042D000C6FF601C44B2781EA042F5DC7B4800EBB0
:1042E000C400002101604160FFF753FFBDE8F08189
:1042F00070B505462846FFF7B7FF0646002405E0DF
:1043000005EBC400FFF7ABFF601CC4B2701EA042F7
:10431000F6DC05EBC40000210160416070BD70B5A2
:1043200005460C462046FFF79FFF06466B4800787F
:1043300086420CD12046FFF7DBFF68480078401E1C
:1043400004EBC000296801606968416005E004EB86
:10435000C600296801606968416070BD01688160BC
:104360004168C160704770B505462846FFF77CFF7D
:1043700006465A480078864201D1701EC6B2701EA9
:1043800044B205E005EBC400FFF7E8FF601E44B24D
:10439000002CF7DA00202860686070BD70B5054613
:1043A0000C462046FFF7DFFF2868206068686060E1
:1043B00070BD2DE9F04106464448FFF755FF05461C
:1043C0002F4600240CE0D6F80100404901EBC4015F
:1043D000D1F80110884201D1E5B203E0601C44B27B
:1043E000AC42F0DB00BFBD421CD03D480078012844
:1043F00016D1681EC5B26CB206E0344901EBC400A8
:10440000FFF7ACFF601E44B2002CF6DA2F4831688B
:10441000016071684160FFF7BCFE0120BDE8F081DA
:104420000120FBE70020F9E72E4A1278012A05D186
:1044300001F00F022C4B9A5C027004E001F00F02B5
:104440002A4B9A5C027070477FB504460D46089E61
:10445000012E02D13320207008E0022E02D1342038
:10446000207003E029462046FFF7DEFF0298C4F8DB
:104470000100280C6071280AA071E5717FBDC1F3AD
:1044800003524270C1F303428270C1F30332C2701F
:10449000C1F3032202710A0C42710A0A8271C171CE
:1044A0007047014611F0F00F04D111480078B0EBCD
:1044B000115F06D00E4800780B281BD111F0F00FC9
:1044C00018D1012070470000BE760008600100206E
:1044D0004F010020EE000020F000002071000020BD
:1044E000700000207E00002095000020A500002024
:1044F0007A0000200020704730B585B00025F948CB
:1045000004680020F84908702046FFF7CAFF78B316
:10451000214601A8FFF788FF214601A8FFF7AFFF5A
:104520009DF80400332824D09DF8040008B301A8A6
:10453000FFF73FFF002857D1EC480078012810D141
:10454000EB4901A8FFF72AFFEA48007804F00F03BF
:1045500000909DF8042001A9E748007800F064FC71
:1045600003E0E34901A8FFF7DAFEFFF712FE3BE0A4
:1045700003E001A8FFF78AFE36E0214603A8FDF715
:1045800053FB054665B30095214601A8DDE90323E9
:10459000FFF75AFF9DF80400332822D09DF804004D
:1045A000F8B101A8FFF705FFD0B9D048007801287D
:1045B00010D1CF4901A8FFF7F1FECE48007804F0F2
:1045C0000F0300909DF8042001A9CB48007800F06B
:1045D0002BFC03E0C64901A8FFF7A1FEFFF7D9FDB8
:1045E00002E001A8FFF752FE05B030BDC3480078D5
:1045F000012808D1C2480078BA49097801F00F01B2
:10460000C04A505407E0BE480078B649097801F026
:104610000F01BD4A505470471CB5BC48006800905B
:10462000B048006801906846FDF7F2F828B9B7482D
:10463000FEF7D8F84420B64908701CBD1CB5B54833
:1046400000680090A748006801906846FDF79AF856
:1046500028B9B048FEF7C6F84020AD4908701CBD27
:104660001CB5AD48006800909E48006801906846FF
:10467000FDF72CF828B9A848FEF7B4F83C20A44967
:1046800008701CBD1CB5A5480068009095480068DE
:1046900001906846FCF7D4FF28B9A048FEF7A2F8BD
:1046A00038209B4908701CBD30B585B000258D4869
:1046B000046800208C4908702046FFF7F2FE68B3BA
:1046C000214601A8FFF7B0FE214601A8FFF7D7FE5B
:1046D0009DF8040033281DD09DF80400D0B101A836
:1046E000FFF767FE00284AD1814901A8FFF756FE6F
:1046F000FFF74FFD7F48007804F00F0300909DF80E
:10470000042001A97C48007800F08EFB6A208049D3
:10471000087034E001A8FFF7B9FD30E0214603A896
:10472000FDF782FA054635B30095214601A8DDE97B
:104730000323FFF789FE9DF8040033281CD09DF861
:104740000400C8B101A8FFF734FEA0B9684901A868
:10475000FFF724FEFFF71DFD6648007804F00F0305
:1047600000909DF8042001A96348007800F05CFBEC
:104770006A206749087002E001A8FFF787FD05B0CD
:1047800030BD1CB55748006800287CD064480078CC
:104790000028FAD063480078002874DD5148046886
:1047A00021466846FDF75AFA58B101205E49087063
:1047B00004F00F005D4908705A4800785C490870A1
:1047C000CEE05C480068A042FAD05A4804605048E5
:1047D0000078002847D04E480078382843D04C480D
:1047E000007839283FD04A4800783A283BD04848DA
:1047F00000783B2837D0464800783C2833D04448DE
:1048000000783D282FD0424800783E282BD04048E1
:1048100000783F2827D03E480078402823D03C48E5
:10482000007841281FD03A48007842281BD03848E9
:104830000078432817D036480078442813D03448ED
:10484000007845280FD03248007846280BD03048F1
:104850000078472807D02E480078672803D02C48D6
:1048600000786A287CD12A480078402864D014DC7B
:104870003B282DD008DC28B3382826D0392825D06D
:104880003A286BD123E071E03C2824D03D2823D086
:104890003E2822D03F2861D120E0452853D008DCB3
:1048A00041284AD0422849D0432848D0442855D1ED
:1048B00048E0462848D0472847D0672848D06A288B
:1048C0004CD148E0FFF7F0FE49E000BF00BF00BF59
:1048D000FFF7D8FE43E000BF00BF00BFFFF7C0FEF8
:1048E0003DE03DE01000002091000020700000201D
:1048F0006001002073000020720000207E00002074
:104900007F00002095000020A50000206600002008
:104910003C0000205C0000205200002048000020E5
:104920002500002026000020920000209300002097
:10493000940000208800002000BF00BF00BFFFF7E8
:104940007DFE0CE000BF00BF00BFFFF765FE06E084
:10495000FFF74CFE03E0FFF7CFFD00E000BF00BF14
:1049600000204E4908704E49086004E000204B4981
:1049700008704B4908601CBD10B54A48FFF7B8FCE9
:10498000FFF707FC10BD1CB50020009001904548C2
:1049900001680091406801904248FFF7A9FC414935
:1049A0006846FFF7BCFCFFF7F4FB1CBD1CB50020FC
:1049B000009001903B48FFF757FC0446601E3949C0
:1049C00001EBC0000168009140680190601E35490C
:1049D00001EBC00000210160416032496846FFF7E9
:1049E000DDFCFFF7D6FB1CBD10B52F4800782F4922
:1049F000097888420BDA2E4800782B4909788842DA
:104A000005DD2A48007810B12748007858B92748B2
:104A1000007868B92448007850B1254800782249C8
:104A20000978884204DDFFF7A7FF002020490870BD
:104A300010BD10B51D4800781B49097888420BDA73
:104A40001B48007819490978884205DD1648007826
:104A500010B11648007858B913480078E0B91348E7
:104A60000078C8B11248007810490978884213DDEF
:104A7000FFF789FF00200E4908700E4800780128D2
:104A80000AD10848C07900F00F03064802780146B1
:104A90000948007800F083F910BD000025000020CF
:104AA000100000206001002044000020450000208C
:104AB00091000020740000207200002008B5012140
:104AC000042001F046FA4FF40060ADF800004820E1
:104AD0008DF803006946F14800F012FF7E20FBF7D5
:104AE00027FE0320FBF724FE3320FBF721FE0420E2
:104AF000FBF71EFEEF20FBF71BFE08BD10B50446BA
:104B00007E20FBF715FE0420FBF712FE4120FBF789
:104B10000FFE0020FBF70CFE2046FBF709FEEF20FE
:104B2000FBF706FE10BD10B504467E20FBF700FE25
:104B30000320FBF7FDFD3120FBF7FAFD2046FBF7D4
:104B4000F7FDEF20FBF7F4FD10BD70B505460C46F0
:104B50006078092812DC012D05DC6178491CC8B297
:104B6000FFF7CCFF36E0607888B36178491CC8B2A3
:104B7000FFF7C4FF1F20FFF7C1FF2BE060780F286D
:104B800008DC60780A2805DB61781731C8B2FFF7C6
:104B9000B5FF1FE060781038052819D2DFE800F073
:104BA00003070B0F13002820FFF7A8FF11E02C20AC
:104BB000FFF7A4FF0DE02F20FFF7A0FF09E0302052
:104BC000FFF79CFF05E03520FFF798FF01E001E0CB
:104BD00000BF00BF70BD70B505460C464020FFF712
:104BE0008DFF6078092805DC6178491CC8B2FFF7A1
:104BF00085FF2AE060780F2808DC60780A2805DB4A
:104C000061781731C8B2FFF779FF1EE0607810387D
:104C1000052818D2DFE800F003070B0F1300282047
:104C2000FFF76CFF10E02C20FFF768FF0CE02F204F
:104C3000FFF764FF08E03020FFF760FF04E0352055
:104C4000FFF75CFF00E000BF00BF4120FFF756FF09
:104C500070BD70B505460C46012D05DCA178491CD8
:104C6000C8B2FFF74BFF0CE0A07850B1A178491C07
:104C7000C8B2FFF743FF1D20FFF740FF1E20FFF7DC
:104C80003DFF70BD70B505460C46012D05DCE17891
:104C9000491CC8B2FFF732FF15E0E07898B1E07820
:104CA00001280BD1207918B90B20FFF727FF0AE064
:104CB00021790B31C8B2FFF721FF04E0E17813310D
:104CC000C8B2FFF71BFF70BD70B505460C46012D3D
:104CD00005DC2179491CC8B2FFF710FF09E02079F3
:104CE00038B1E078012804D02179491CC8B2FFF717
:104CF00005FF70BD10B50446042C06D0052C08D065
:104D0000062C0AD0072C10D10BE03E20FFF7F6FE50
:104D10000CE03C20FFF7F2FE08E03D20FFF7EEFE3E
:104D200004E06820FFF7EAFE00E000BF00BF10BD0E
:104D300070B504460D46032C0CDC29462046FFF7CF
:104D400088FF29462046FFF79DFF29462046FFF7AA
:104D5000BBFF02E02046FFF7CDFF70BD10B5044653
:104D6000322C05DA04F14201C8B2FFF7C7FE04E0B5
:104D7000342C02D16820FFF7C1FE10BD70B5054686
:104D80000E461446342C01D0262C03D16820FFF7A0
:104D9000B5FE03E031462846FFF7CAFF70BD2DE996
:104DA000F04104460F4616461D46032C35DC3E20D6
:104DB000FFF7A4FE0F2D02D13F20FFF79FFE3848DA
:104DC000007828B136480078012804D1022E02DB91
:104DD0006920FFF793FE0F2D03D039462046FFF7D9
:104DE000B4FE39462046FFF7A3FF2D48007801287E
:104DF00004D1012C02DC6920FFF780FE0F2D04D1C5
:104E000039462046FFF7E7FE0CE0012C0AD0032CC0
:104E100008D03046FFF7A2FF04E03246394620466C
:104E2000FFF7ACFFBDE8F0812DE9F04104460D46E7
:104E300016461F46DDF81880B8F1010F0BDD194842
:104E400080F80080C66007744470801C2968016087
:104E50006968416005E03B46324629462046FFF737
:104E60009EFFBDE8F08110B50E480078002814DDE3
:104E70000D48007888B10D48006870B100200A49DB
:104E8000087008490B7C0A7B4878891CFFF787FF6C
:104E900004480078401E0349087010BD0008014016
:104EA0007800002080040020B60000202C01214260
:104EB00008B503208DF8000001208DF801000020C6
:104EC0008DF8020001208DF80300684600F05FFBBA
:104ED00008BD10B501214FF0C05001F047F8012086
:104EE00000F065FE00F0BCFB012000F0A3FF00BF56
:104EF000412000F0FCFE0028FAD04FF4807000F052
:104F0000B2FF012000F0B5FF01F0F2F801F0E8F87F
:104F10000121084601F088F801F0E2F847F6FF7039
:104F200001F0B8F801F0DCF810BD10B5044604201B
:104F300000F0CBFBA0F52541A5390AD0FFF7C9FF4A
:104F40002046FDF7CEFC4AF2A551042000F0B1FB4B
:104F500016E07B2000F0CBFE10B97A2000F0C7FEEF
:104F600001214FF0C05001F001F8012000F01FFEB8
:104F700001F0BEF80121084601F056F801F0B0F842
:104F800001F025F810BD0000F0B58DB004463022C8
:104F9000714901A802F0D6FA6069451E642195FBAB
:104FA000F1F12846EA1705EB9272C1EBA2014FF42A
:104FB000C87295FBF2F28F186069C11700EB91710E
:104FC0008910B0EB810112D16422616991FBF2F387
:104FD00002FB131131B99200616991FBF2F302FBFC
:104FE000131121B92169022901DD012600E0002603
:104FF00040F26D1005FB00712069401E01AA52F8B5
:1050000020000844E16808440644072096FBF0F1BC
:1050100000FB1160A0610DB0F0BD10B5014608693C
:10502000801E0861002805DC08690C3008614869A9
:10503000401E48616423486990FBF3F04A69D31726
:1050400002EB9373C0EBA3004FF4C87492FBF4F32C
:10505000034440F26F14086960430C2490FBF4F0A1
:105060001844CB68034440F26D1402FB04303B4B00
:10507000C01A00EB40008B6803EBC000C0EB0010CF
:105080004B6803EB8000C0EB00100B6803EB800063
:10509000A0F5E14010BD2DE9F04107460C4630482F
:1050A000B7FBF0F6B7FBF0F100FB11784FF461604D
:1050B00098FBF0F0A0604FF4616098FBF0F100FB0A
:1050C00011803C2190FBF1F060604FF4616098FB2F
:1050D000F0F100FB11803C2190FBF1F201FB12008A
:1050E000206040F2B27509E015F0030F02D14FF4D1
:1050F000B77001E040F26D10361A6D1C15F0030F09
:1051000002D14FF4B77001E040F26D10B042EBDD18
:1051100065616069C11700EB91718910B0EB810185
:1051200002D11D200F494860012505E0681E0D4988
:1051300051F82000361A6D1C681E0A4951F82000EB
:10514000B042F3DD1C2048602561701CE060204601
:10515000FFF71AFFBDE8F081F47B00088BFA0A0024
:1051600080510100B800002008B50121042000F0A2
:10517000F0FE4FF48070ADF8000010208DF80300B1
:1051800003208DF802006946F24800F0B9FB08BD23
:105190000EB50121022000F0E9FE4FF40270ADF8D7
:1051A00004001720ADF800000020ADF80600ADF8AF
:1051B00002006946E84801F0ADF80121E64801F037
:1051C000CBFE01221146E44801F01BFC0121E2481C
:1051D00001F0FCFB0EBD08B51D208DF8000000207D
:1051E0008DF801008DF8020001208DF8030068465B
:1051F00000F0CDF908BD10B50121D74801F0AFFE90
:1052000090B10121D44801F0BBFED4480078401C85
:10521000D2490870D2480078012802D1D1490860EB
:1052200002E00020CF49086010BD4FF40042CE4B91
:105230001A60CD4A143A126822F40042CA4B143B59
:105240001A600122C94B1A70C54B1A700022C34B59
:105250001A7000BFC14A1278C44B1B789A42F9DB1E
:105260001F22C24B1A700022BD4B1A70BB4B1A7022
:1052700000BFBA4A1278BD4B1B789A42F9DB002175
:105280002DE010F4000F06D00322B84B1A70012253
:10529000B34B1A7004E00122B44B1A70B04B1A7071
:1052A0000022AE4B1A7000BFAC4A1278AF4B1B788D
:1052B0009A42F9DBAD4A1278C2F10402AB4B1A7084
:1052C0000022A74B1A70A54B1A7000BFA34A127890
:1052D000A64B1B789A42F9DB40004A1CD1B2182930
:1052E000CFDBA14A143A126842F400429E4B143BB1
:1052F0001A60704710B504469D480078012805D112
:105300009C48047000209A49087014E09A4800787C
:10531000012804D1002099490880974908709748CE
:105320000088642807DA9548008800EB800004EBC9
:10533000400092490880FEF72CFF10BD18B50020F0
:10534000009000248D4800884FF47A7190FBF1F2B0
:1053500001FB1200642190FBF1F08649097840EAD4
:105360000110C0B28DF80000844800880A2190FB2B
:10537000F1F201FB120081490988642291FBF2F3EA
:1053800002FB13110A2291FBF2F140EA0110C0B2B4
:105390008DF8010008208DF802009DF8000000043F
:1053A0009DF8011040EA01209DF8021040EA010436
:1053B0002046FFF73AFF2046FFF737FF2046FFF76A
:1053C00034FF2046FFF731FF2046FFF72EFF20462F
:1053D000FFF72BFF18BD18B50020009000BF6848EC
:1053E0008078642148436649C97801EB810100EB6C
:1053F0004100634909790844401C60490880084617
:1054000000884FF47A7190FBF1F201FB12006421E5
:1054100090FBF1F05749097840EA0110C0B28DF8CD
:105420000000564800880A2190FBF1F201FB1200AF
:1054300052490988642291FBF2F302FB13110A22FC
:1054400091FBF2F140EA0110C0B28DF80100082092
:105450008DF802009DF8000000049DF8011040EA5C
:1054600001209DF8021040EA01042046FFF7DDFE0E
:105470002046FFF7DAFE2046FFF7D7FE2046FFF76B
:10548000D4FE2046FFF7D1FE2046FFF7CEFE18BD22
:1054900018B500200090002439480078002857D023
:1054A00037488078642148433549C97801EB810148
:1054B00000EB4100324909790844401E2F49088019
:1054C000084600884FF47A7190FBF1F201FB12005C
:1054D000642190FBF1F02749097840EA0110C0B23D
:1054E0008DF80000254800880A2190FBF1F201FBAD
:1054F000120022490988642291FBF2F302FB131186
:105500000A2291FBF2F140EA0110C0B28DF80100CD
:1055100008208DF802009DF8000000049DF801109D
:1055200040EA01209DF8021040EA01042046FFF7FE
:105530007CFE2046FFF779FE2046FFF776FE2046E8
:10554000FFF773FE2046FFF770FE2046FFF76DFE63
:1055500018BD00000008014000040040E8000020E1
:10556000EA000020A001214214040140E9000020CB
:10557000EC000020EB000020F2000020EE000020F4
:105580006001002031490143314A1160704770B514
:10559000002100230F22C4780CB32D4C246804F49E
:1055A000E064C4F5E064210AC1F10403CA40447810
:1055B00004FA03F18478144021430901254C06784C
:1055C000A155047804F01F050124AC4005786D1145
:1055D0004FF0E02606EB8505C5F8004109E00478A8
:1055E00004F01F050124AC401B4D0678761145F8E8
:1055F000264070BD194A0A400243154B1B1F1A6012
:10560000704739B1124A121D12680243104B1B1D1C
:105610001A6006E00E4A121D126882430C4B1B1DD5
:105620001A607047042808D14FF0E021096941F061
:1056300004014FF0E022116107E04FF0E021096919
:1056400021F004014FF0E022116170470000FA05DB
:105650000CED00E000E400E080E100E080FFFF1FCF
:1056600010B5012000F0A9FC002000F0A6FC10BD40
:105670002A49086070472949091F0860704727496F
:1056800084310860704701460020254A10884FF693
:105690007F4210400843224A108070470146002094
:1056A0001F4A10884FF68072104008431C4A108031
:1056B000704708B500220092194A2C3A0092009ACD
:1056C00002440092009A116008BD08B5014600200E
:1056D000009013482C3800900098084400900098DF
:1056E000008808BD0D489C300068C0B270470C4867
:1056F0000830008840F001000949083108807047EF
:105700000648A0300068C0B27047054808300088DD
:1057100040F00200024908310880704704860D42BB
:105720002C6C0040002044490860091D0860091DD8
:105730000860091D086041483F49143108607047FE
:1057400000213D498279002A3AD00A46126803684E
:105750009A430B461A600A1D126803689A430B1D90
:105760001A60027911440A6803681A430A60324ACF
:105770000832126803689A432F4B08331A601A1DC7
:10578000126803689A432C4B0C331A604279102A32
:105790000ED11A1F126803681A43274B08331A6088
:1057A0001A1D126803681A43234B0C331A600DE06C
:1057B0002149427911440A6803681A430A6005E0E6
:1057C000027911440A6803689A430A60704700210D
:1057D000016001710C2141710021817170471649EE
:1057E000103109680143144A1032116070470146B4
:1057F0000020114A143212680A4201D0012000E050
:10580000002070470C4914310860704701460020A1
:105810000022094B1B6803EA0102074B14331B6883
:105820000B4202D00AB1012000E00020704702497B
:10583000143108607047000000040140FFFF0F00B2
:1058400010B50446CA48844208D10121042000F062
:105850009AFB0021042000F096FB46E0C5488442F4
:1058600008D10121082000F08EFB0021082000F063
:105870008AFB3AE0C048844208D10121102000F0A0
:1058800082FB0021102000F07EFB2EE0BB4884420A
:1058900008D10121202000F076FB0021202000F01B
:1058A00072FB22E0B648844208D10121402000F07A
:1058B0006AFB0021402000F066FB16E0B1488442FC
:1058C00008D10121802000F05EFB0021802000F043
:1058D0005AFB0AE0AC48844207D10121801500F050
:1058E00052FB0021A01500F04EFB10BD10B50121A8
:1058F000084600F048FB0021012000F044FB10BDE9
:105900002DE9F04102460025002600200023002456
:10591000002791F803C00CF00F0591F803C01CF0AC
:10592000100F03D091F802C04CEA050591F800C0B1
:10593000BCF1000F31D0146800202BE04FF0010CB7
:105940000CFA00F3B1F800C00CEA03069E4220D125
:1059500083004FF00F0C0CFA03F7BC4305FA03FC6D
:105960004CEA040491F803C0BCF1280F06D14FF0B3
:10597000010C0CFA00FCC2F814C00AE091F803C054
:10598000BCF1480F05D14FF0010C0CFA00FCC2F835
:1059900010C0401C0828D1D31460B1F800C0BCF17D
:1059A000FF0F34DD546800202EE000F1080C4FF0AA
:1059B000010808FA0CF3B1F800C00CEA03069E4295
:1059C00021D183004FF00F0C0CFA03F7BC4305FA0A
:1059D00003FC4CEA040491F803C0BCF1280F05D184
:1059E00000F1080C08FA0CF8C2F8148091F803C012
:1059F000BCF1480F07D100F1080C4FF0010808FA7C
:105A00000CF8C2F81080401C0828CED35460BDE8C2
:105A1000F0814FF6FF710180022181700421C17075
:105A200070470246002093680B4201D0012000E03D
:105A3000002070470146886880B270470246002007
:105A4000D3680B4201D0012000E0002070470146DE
:105A5000C86880B2704701617047416170470AB100
:105A6000016100E041617047C16070474FF48032CE
:105A70000A4382618161826182698269704702465C
:105A80000020424B18684FF68073184040EA02101D
:105A900008433E4B186070473D49C8617047F0B5F8
:105AA0000A46002300240021002500F00046B6F13C
:105AB000004F02D1354EF16901E0344E7168C0F3F8
:105AC000034583B200F44016B6F5401F08D121F01B
:105AD00070612E4E766826F070662C4F7E6012E064
