:020000040800F2
:10000000E004002001010008AD010008AF01000874
:10001000B3010008B7010008BB01000800000000A0
:10002000000000000000000000000000C101000806
:10003000BF01000800000000C3010008C50100085E
:100040001B0100081B0100081B0100081B01000820
:100050001B0100081B0100081B0100081B01000810
:100060001B0100081B0100081B0100081B01000800
:100070001B0100081B0100081B0100081B010008F0
:100080001B0100081B0100081B0100081B010008E0
:100090001B0100081B0100081B0100081B010008D0
:1000A0001B0100081B0100081B0100081B010008C0
:1000B0001B0100081B0100081B0100081B010008B0
:1000C0001B0100081B0100081B0100081B010008A0
:1000D0001B0100088F040008B90300081B01000879
:1000E000A50400081B0100081B010008DFF80CD064
:1000F00004F068FD0048004725010008E0040020E6
:100100000648804706480047FEE7FEE7FEE7FEE7B1
:10011000FEE7FEE7FEE7FEE7FEE7FEE7414A0008EE
:10012000ED0000084FF4A06002F092FE00F076F8B7
:1001300000F0ADF800F0D8F800F017F900F04AF937
:1001400000F087F900F02AFA00F095FA00F048FC78
:1001500000F084FE01F0FAF909A004F065FD0DE05D
:100160000B480078012807D10A4801680AA004F06A
:100170005BFD00200649087001F036FAF0E7000048
:1001800048656C6C6F2073746D33322E2000000054
:10019000250000201000002052465F49442069736A
:1001A00020257820200D0A2000000000704700BFA5
:1001B000FEE700BFFEE700BFFEE700BFFEE77047B7
:1001C000704770470A480068401C094908600846A3
:1001D0000068C7280AD907480078401C05490870FC
:1001E000012005490870002001490860704700009F
:1001F00004000020080000200000002010B50028A6
:1002000007DA0A07140E344A00F00F031B1FD454F8
:1002100003E00A07130E314A135410BD10B503F062
:10022000BFF8012003F043F900BF212003F0FDF8DF
:100230000028FAD04FF48011002003F03BF9002091
:1002400003F061F9002003F067F94FF4806003F0D8
:100250006CF9012003F03AF900BF392003F0E5F80A
:100260000028FAD0022003F040F900BF03F046F95D
:100270000828FBD10121084603F009FA012118489A
:1002800003F011F80121C80303F00DF810BD10B5FB
:1002900014480068C821B0FBF1F4B4F1807F01D3A9
:1002A000012011E024F07F40401E4FF0E021486122
:1002B0000F214FF0FF30FFF7A1FF00204FF0E021AA
:1002C000886107200861002008B100BFFEE7002117
:1002D000481EFFF793FF10BD18ED00E000E400E0BA
:1002E000000230009800002000B585B001210420F4
:1002F00003F0CDF90121480403F0D6F90420ADF84C
:10030000100018208DF8130003208DF8120004A9A6
:100310002D4802F0F9FE4FF48060ADF81000042083
:100320008DF8130004A9284802F0EEFE4FF4165091
:1003300000900020ADF80400ADF80600ADF808000C
:10034000ADF80C000C20ADF80A0069461F4804F017
:100350005AF9012240F225511C4804F0ECF9012120
:100360001A4804F0DCF905B000BD08B526208DF868
:10037000000001208DF8010000208DF8020001200E
:100380008DF80300684602F068FD08BD70B50446AC
:100390000D46E1B20D4804F02FFA00BF0B4800886B
:1003A00010F0800FFAD0204670BD10B504462146EB
:1003B00007A004F039FC10BD10B540F225510348E8
:1003C00004F09EFA10BD0000000801400044004007
:1003D0002563000000B585B0012144F2040003F05C
:1003E00056F94FF40070ADF8100018208DF8130086
:1003F00003208DF8120004A9284802F085FE4FF46E
:100400008060ADF8100004208DF8130004A9234883
:1004100002F07AFE4FF4165000900020ADF8040070
:10042000ADF80600ADF80800ADF80C000C20ADF8F2
:100430000A0069461A4804F0E6F8012240F2255104
:10044000174804F078F90121154804F068F905B05F
:1004500000BD08B525208DF8000001208DF80100B1
:1004600000208DF8020001208DF80300684602F09C
:10047000F4FC08BD10B504462146094804F0BCF957
:1004800000BF0748008810F0800FFAD010BD10B5EB
:1004900040F22551024804F033FA10BD0008014033
:1004A0000038014070B500256248006810F4004F24
:1004B00000D001254FF08040848C00204FF0804117
:1004C0008884002D38D0B4F5967F50DD5A480078E6
:1004D00018284CDD5948006840085849086008460B
:1004E000006820F07F4008600846006854490842D0
:1004F0001CD0524800685349096888420CD15248C0
:100500000078401C504908704C4800684F4908600A
:1005100001204F49087009E000204B490870474806
:100520000068484908600120494908700020434993
:100530000860414908701AE0152C01DBD22C05DD5A
:1005400000203D4908703D49086010E03B480068C4
:1005500040003A490860552C04DD0846006840F028
:100560000100086034480078401C334908704FF49B
:10057000004002F060FD70BD08B50121042003F0C9
:1005800086F84FF40040ADF8000048208DF80300D5
:1005900069462848083802F0B7FD08BD10B586B096
:1005A0000024FFF7E9FF0121084603F070F80F214E
:1005B000002002F0BDFE4FF40040049000208DF8B2
:1005C000140010208DF8150001208DF8160004A8E5
:1005D00002F0BAFC28208DF80C0000208DF80D00E8
:1005E0008DF80E0001208DF80F0003A802F035FCF5
:1005F0000121084603F058F8164800681649B0FB78
:10060000F1F0401E84B24FF6FF70ADF80400ADF873
:1006100000400020ADF80600ADF8020069464FF03A
:10062000804003F073F90121880703F0CBFC06B08A
:1006300010BD000008080140240000201C0000201C
:10064000F0FFFF0020000020260000201000002006
:100650002500002098000020A086010005E002216E
:1006600000BF4A1E92B21100FBD10200A0F10103AB
:1006700098B2F4D1704708B50121082003F007F8BB
:1006800010208DF8030003208DF802004FF47870DD
:10069000ADF800006946FE4802F036FD48208DF8AE
:1006A00003001020ADF800006946F94802F02CFD67
:1006B00008BD30B504460020F6490860054618E03C
:1006C0000020F549086014F0010F04D00120A1F1C9
:1006D0000401086002E00020F04908604FF00500C6
:1006E000FFF7BCFF0120EC4908604FEA640405F104
:1006F0000105082DE4D30020E7490860E849C1F866
:10070000A00130BD30B504460020E649086005462A
:1007100017E00020E049086014F0010F03D0012029
:10072000DE49086002E00020DC4908604FF0050067
:10073000FFF794FF0120D84908604FEA640405F1EF
:100740000105082DE5D30020D3490860D449C1F83C
:10075000A00130BD30B504460020D34908600546ED
:1007600017E00020CC49086014F0010F03D00120ED
:10077000CA49086002E00020C84908604FF005003F
:10078000FFF76CFF0120C44908604FEA640405F1DB
:100790000105082DE5D30020BF490860C049C1F814
:1007A000A00130BD10B504460120BA4908604FF0E1
:1007B0000500FFF753FF0020B949C1F89401204616
:1007C000FFF777FF10BDF8B5FF260020009042200C
:1007D000FFF7E8FF0120B54908604FF00004CEE0C4
:1007E00000251BE00020AC4908601DF804004FEA1A
:1007F00060000DF804004FF00100A949C1F8A40100
:10080000AA48006828B11DF8040040F080000DF8E7
:1008100004000520FFF722FF681CC5B2082DE1DBAC
:100820000520FFF71BFF9DF8000048B99DF8010067
:1008300030B99DF8020018B99DF8030000286ED069
:100840009DF80000102818D008DC01280DD00228DF
:100850000DD004280DD0082817D10CE020280ED088
:1008600040280ED0802810D10DE019260EE0112668
:100870000CE009260AE0012608E01A2606E0122606
:1008800004E00A2602E0022600E000BF00BF9DF857
:100890000100102818D008DC01280DD002280DD046
:1008A00004280DD0082817D10CE020280ED04028AD
:1008B0000ED0802810D10DE01B260EE013260CE090
:1008C0000B260AE0032608E01C2606E0142604E0B6
:1008D0000C2602E0042600E000BF00BF9DF80200E5
:1008E000102818D008DC01280DD002280DD00428CB
:1008F0000DD0082818D10CE020280ED040280FD0A9
:10090000802811D10EE01D260FE015260DE00D26E2
:100910000BE0052609E01E2607E0162605E02CE080
:100920000E2602E0062600E000BF00BF9DF803008F
:10093000102818D008DC01280DD002280DD004287A
:100940000DD0082817D10CE020280ED040280ED05A
:10095000802810D10DE01F260EE017260CE00F2690
:100960000AE0072608E0202606E0182604E0102604
:1009700002E0082600E000BF00BF601CC4B2042CE7
:10098000FFF62EAF0020444908604549C1F8100128
:100990004FF001003F4908603046F8BD10B50446ED
:1009A0000120404908604FF00500FFF757FE002086
:1009B0003B49C1F898012046FFF7A4FE10BD10B5D1
:1009C00004460120384908604FF00500FFF746FE55
:1009D00000203349C1F89C012046FFF7BBFE10BD43
:1009E00010B54020FFF7DEFEC020FFF7DBFE00243D
:1009F0000AE02F49085DFFF75CFE2D490831085DCC
:100A0000FFF757FE601CC4B2082CF2DB8C20FFF706
:100A1000C9FE01201F4908604FF04000FFF7BEFFEC
:100A2000C020FFF7BBFF00240BE021491031085D17
:100A3000FFF768FE1E491831085DFFF763FE601C72
:100A4000C4B2082CF1DB8C20FFF7A8FF0120154968
:100A500008604FF04000FFF7B2FFC020FFF7AFFF84
:100A600000240BE012492031085DFFF773FE1049A6
:100A70002831085DFFF76EFE601CC4B2082CF1DB64
:100A80008C20FFF79CFF01200749086010BD000083
:100A9000000C014094812142A4812142A081214285
:100AA00000802142988121429C8121421081214273
:100AB000B000002010B53021DB4804F046F810BD2E
:100AC00010B50446FFF7F6FFD848C07BD6494870FA
:100AD000D648005D0870FFF783FF10BD10B50446CF
:100AE000FFF7E8FFD148807BCF494870CF48005DD1
:100AF0000870FFF775FF10BD10B50446FFF7DAFF69
:100B000020780A2190FBF1F0C849095CC648C172FF
:100B100020780A2190FBF1F201FB1200C349095C25
:100B2000C148817260780A2190FBF1F0BF49095CED
:100B3000BD48417260780A2190FBF1F201FB12007E
:100B4000BA49085CB8490872A0780A2190FBF1F014
:100B5000B649085CB449C871A0780A2190FBF1F24B
:100B600001FB1200B149085CAF498871E0780A21A5
:100B700090FBF1F0AD49085CAB494871E0780A217F
:100B800090FBF1F201FB1200A849085CA64908712C
:100B900020790A2190FBF1F0A449085CA249C870B1
:100BA00020790A2190FBF1F201FB12009F49085CB9
:100BB0009D49887060790A2190FBF1F09B49085C9F
:100BC0009949487060790A2190FBF1F201FB12000B
:100BD0009649085C94490870E0799449095C924808
:100BE0000173FFF7FDFE10BD10B59148007810F0BD
:100BF000010F06D000208C4948700870FFF7F0FE06
:100C000002E08C48FFF778FF89480078401C88494B
:100C1000087010BD10B58848007810F0010F06D09C
:100C200000208149C8708870FFF7DAFE02E0814831
:100C3000FFF762FF80480078401C7F49087010BDB4
:100C400010B57E48007810F0010F06D000207649DC
:100C500048710871FFF7C4FE02E07648FFF74CFFC9
:100C600076480078401C7549087010BD10B574486E
:100C7000007810F0010F06D000206B49C871887110
:100C8000FFF7AEFE02E06B48FFF736FF6C480078D6
:100C9000401C6B49087010BD10B56A48007810F010
:100CA000010F08D000216048417200205E4908729F
:100CB000FFF796FE02E05F48FFF71EFF61480078ED
:100CC000401C6049087010BD10B55F48007810F0F6
:100CD000010F05D0002154480173FFF781FE02E0A7
:100CE0005448FFF709FF58480078401C56490870DF
:100CF00010BD10B50446FFF7DDFE20784B49085CB7
:100D00004949C87060784949085C47498870A078AB
:100D10004649085C44494870E0784449085C4249C7
:100D20000870FFF75DFE10BD10B50446FFF7C2FE68
:100D30000A2094FBF0F03D49085C3B4948700A20CA
:100D400094FBF0F100FB11403849085C364908700B
:100D5000FFF746FE10BD10B50446FFF7ABFE0A20B4
:100D600094FBF0F100FB11403049085C2E490870FB
:100D7000FFF736FE10BD10B504463448007810F079
:100D8000010F05D0002028490870FFF729FE02E076
:100D90002046FFF7AEFF2D480078401C2B49087015
:100DA00010BD10B504462A48007810F0010F05D098
:100DB00000201D494870FFF713FE02E02046FFF7B0
:100DC00098FF23480078401C2149087010BD10B5D9
:100DD00004462048007810F0010F05D00020124989
:100DE0008870FFF7FDFD02E02046FFF782FF1948FB
:100DF0000078401C1749087010BD10B5044616480D
:100E0000007810F0010F05D000200749C870FFF7E7
:100E1000E7FD02E02046FFF76CFF0F480078401C1A
:100E20000D49087010BD0000B0000020284F0008D8
:100E30002F0000202700002030000020310000207B
:100E40003200002033000020340000203500002054
:100E500036000020370000203800002008B50121AE
:100E6000082002F014FC14208DF8030003208DF8F4
:100E700002008002ADF800006946FC4802F044F927
:100E800010208DF803000002ADF800006946F74815
:100E900002F03AF90120F6490860F649C1F8AC01C0
:100EA0004FF00000F449086008BD06E0072100BFCC
:100EB0000A00A1F10103D9B2FAD10200A0F10103A5
:100EC00098B2F3D1704710B50120EC4908604FF09B
:100ED0000500FFF7EAFF0120E649C1F8A801052057
:100EE000FFF7E3FF0020E54908604FF00500FFF73A
:100EF000DCFF0020DF49C1F8A8010520FFF7D5FF7E
:100F000010BD70B5044600251FE014F0800F03D01B
:100F10000120DA49086002E00020D84908604FF05B
:100F20000200FFF7C2FF0120D34908604FF0020022
:100F3000FFF7BBFF6006040E0020CE49C1F8A801F0
:100F40000220FFF7B2FF681CC5B2082DDDDB0120CF
:100F5000CA4908604FF00200FFF7A7FF0120C5490A
:100F6000C1F8A8010220FFF7A0FFC548006808B13A
:100F7000012070BD0020C04908604FF00200FFF75B
:100F800094FF0020BB49C1F8AC010220FFF78DFFA0
:100F90000020EEE770B500240120B84908604FF04A
:100FA000000517E06006040E0120B34908604FF009
:100FB0000200FFF77AFFAF48D0F82C0108B144F0E7
:100FC00001040020AC4908604FF00200FFF76DFFFC
:100FD000681CC5B2082DE5DB204670BD10B50020A9
:100FE000A54908604FF00500FFF75FFF0020A14909
:100FF000C1F8AC010520FFF758FF01209E490860A9
:101000004FF00500FFF751FF01209A49C1F8AC01EC
:101010000520FFF74AFF10BD2DE9F04106460C46BA
:1010200017460125FFF74FFFA020FFF76AFF05468F
:1010300015B10120BDE8F081C6F30420FFF761FF80
:1010400005460DB10120F5E7F0B2FFF75AFF05465E
:101050000DB10120EEE7FFF736FFA120FFF751FFAA
:1010600005460DB10120E5E71AE0FFF793FF207078
:101070000020824908604FF00500FFF716FF0120AD
:101080007C49C1F8A8010520FFF70FFF00207A492D
:1010900008604FF00500FFF708FF641C781E87B258
:1010A000012FE2DCFFF776FF207001207349086012
:1010B0004FF00500FFF7F9FE01206E49C1F8A801C5
:1010C0000520FFF7F2FE00206B4908604FF0050095
:1010D000FFF7EBFEFFF782FF0020ABE72DE9F047BB
:1010E000804689461646012500206149086004466D
:1010F00034E008EB040087B2FFF7E5FEA020FFF71D
:1011000000FF054615B10120BDE8F087C7F30420B4
:10111000FFF7F7FE05460DB10120F5E7F8B2FFF73E
:10112000F0FE05460DB10120EEE74FF0000A0DE09C
:1011300019F80400FFF7E5FE05460DB10120E3E7CD
:10114000601C84B20AF1010000F0FF0AB245EFDB37
:10115000FFF744FF4FF4FA60FFF7A7FEB442C8DB85
:101160000120434908604FF00000CDE72DE9FC4124
:1011700004460026202500271CE008226946284650
:10118000FFF74AFF019810F07F4F0CD1019861687A
:1011900088420AD13B480099016000203949087112
:1011A0000120BDE8FC8106B92E4605F1080085B294
:1011B000781C87B2B7F5007FDFDB08222146304676
:1011C000FFF78CFF0EB90120EBE70020E9E72DE9DE
:1011D000FC41044600264FF4A15500271CE00822DC
:1011E00069462846FFF718FF019810F07F4F0CD191
:1011F0000198616888420AD1234800990160002063
:10120000214908710120BDE8FC8106B92E4605F18F
:10121000080085B2781C87B2202FE0DB0822214627
:101220003046FFF75BFF0EB90120ECE70020EAE74C
:101230002DE9FC41044600264FF4815500272EE09D
:10124000082269462846FFF7E7FE019810F07F4F15
:101250001ED10198616888421CD10C480099016038
:1012600000200A4908710120BDE8FC81000C014002
:10127000B081214200802142A8812142AC812142DB
:101280002C81214248000020520000205C000020F8
:1012900006B92E4605F1080085B2781C87B2402FAA
:1012A000CEDB082221463046FFF718FF0EB9012099
:1012B000DAE70020D8E72DE9FC41044600264FF488
:1012C000915500271CE0082269462846FFF7A4FE36
:1012D000019810F07F4F0CD10198616888420AD1C3
:1012E0009948009901600020974908710120BDE8E4
:1012F000FC8106B92E4605F1080085B2781C87B23C
:10130000402FE0DB082221463046FFF7E7FE0EB90A
:101310000120ECE70020EAE770B58AB005462026F8
:101320002021684603F011FCFF222021684603F0CB
:1013300005FC286880B900240BE006EB441188B254
:1013400020226946FFF7CAFE6420FFF7AEFD601C4D
:1013500084B2802CF1DB22E000241CE0082208A9E2
:101360003046FFF759FE099810F07F4F0ED12868DC
:10137000089988420AD1FF22082108A803F0DEFB61
:10138000082208A93046FFF7A9FE07E006F1080089
:1013900086B2601C84B2B4F5007FDFDB00BF0020A2
:1013A0000AB070BD70B58AB005464FF4A156202131
:1013B000684603F0CAFBFF222021684603F0BEFB0B
:1013C000286880B900240BE006EB441188B2202283
:1013D0006946FFF783FE6420FFF767FD601C84B257
:1013E000082CF1DB21E000241CE0082208A930468B
:1013F000FFF712FE099810F07F4F0ED12868089968
:1014000088420AD1FF22082108A803F097FB08228E
:1014100008A93046FFF762FE06E006F1080086B232
:10142000601C84B2202CE0DB00BF00200AB070BD3D
:1014300070B58AB005464FF481562021684603F006
:1014400084FBFF222021684603F078FB286880B9DE
:1014500000240BE006EB441188B220226946FFF716
:101460003DFE6420FFF721FD601C84B2102CF1DBEF
:1014700021E000241CE0082208A93046FFF7CCFD3B
:10148000099810F07F4F0ED12868089988420AD138
:10149000FF22082108A803F051FB082208A93046C2
:1014A000FFF71CFE06E006F1080086B2601C84B25D
:1014B000402CE0DB00BF00200AB070BD70B58AB0E0
:1014C00005464FF491562021684603F03EFBFF226B
:1014D0002021684603F032FB286880B900240BE025
:1014E00006EB441188B220226946FFF7F7FD64201D
:1014F000FFF7DBFC601C84B2102CF1DB21E0002440
:101500001CE0082208A93046FFF786FD099810F074
:101510007F4F0ED12868089988420AD1FF220821FE
:1015200008A803F00BFB082208A93046FFF7D6FDF8
:1015300006E006F1080086B2601C84B2402CE0DBB5
:1015400000BF00200AB070BD6600002008B5012170
:10155000042002F09CF83320ADF8000048208DF8FC
:1015600003006946974801F0CFFD08BD06E00C2155
:1015700000BF0A00A1F10103D9B2FAD10200A0F123
:10158000010398B2F3D1704710B5FF248E4800686C
:1015900040B18E48006828B18D48006810B18D4870
:1015A0000068F8B942F21070FFF7E0FF8648006863
:1015B00040B18648006828B18548006810B1854868
:1015C000006878B98048006800B901247F48006845
:1015D00000B902247E48006800B903247D480068F1
:1015E00000B90424204610BD10B500207A490870C7
:1015F000FFF7CAFF794908700846007800286ED0C6
:1016000008460078012806D002286CD0032868D04C
:10161000042867D1A1E032E06F48007802282EDD6F
:101620006F48007830B10C2808D00D280AD00F2858
:1016300010D10BE002206A4908700CE033206849A1
:10164000087008E034206649087004E036206449D8
:10165000087000E000BF00BF6148007800EB400068
:10166000604901EB800080685F49086008460068B7
:10167000804700BF544800680028FBD010BD524886
:10168000006878B9564800780028C5D054480078DA
:101690000C28C1D0524800780D28BDD050480078A1
:1016A0000F28B9D04E48007800EB40004D4901EBBF
:1016B000800040784A4908700846007800EB4000F6
:1016C000484901EB80008068474908600846006887
:1016D000804700BF3C4800680028FBD06FE06FE007
:1016E00001E01DE056E03E48007800EB40003D4937
:1016F00001EB800080783A4908700846007800EBDA
:101700004000384901EB800080683749086008468E
:101710000068804700BF2D4800680028FBD04EE0DD
:101720002F48007800EB40002E4901EB8000C07884
:101730002B4908700846007800EB4000294901EB6E
:10174000800080682849086008460068804700BF1C
:101750001F4800680028FBD031E02148007800EBEA
:101760004000204901EB800000791D4908700846BF
:10177000007800EB40001B4901EB800080681A49AB
:10178000086008460068804700BF124800680028CB
:10179000FBD014E01548007801280FD10020134930
:1017A00008700F48007800EB40000E4901EB800004
:1017B00080680D49086008460068804700BF00BF88
:1017C00000BF5BE700080140000121420401214203
:1017D0001001214214012142080000203D00002098
:1017E0003C0000205C4F000840000020000000206A
:1017F000014600204A7802EBC20303EB021200EB21
:1018000082008A7802EB820200EB4200CA7802442E
:1018100090B2704710B5B0F57A5F00DB00204FF44E
:101820007A7390FBF3F30B704FF47A7390FBF3F43D
:1018300003FB14039AB2642392FBF3F34B7064230B
:1018400092FBF3F403FB14239AB20A2392FBF3F303
:101850008B700A2392FBF3F403FB1423CB70002359
:101860000B7110BD10B5FFF725F94020F749097835
:1018700001F00301F64A5054FFF7B2F8F34800783C
:10188000401CF249087010BD10B50020FFF718F990
:1018900010BD10B50120FFF713F910BD10B50220DF
:1018A000FFF70EF910BD10B50320FFF709F910BDC1
:1018B00010B50420FFF704F910BD10B50520FFF79F
:1018C000FFF810BD10B50620FFF7FAF810BD10B5EF
:1018D0000720FFF7F5F810BD10B50820FFF7F0F866
:1018E00010BD10B50920FFF7EBF810BD10B50A20A8
:1018F000FFF7E6F810BD10B50B20FFF7E1F810BDBB
:1019000010B50C20FFF7DCF810BD10B50D20FFF767
:10191000D7F810BD10B50E20FFF7D2F810BD10B5E6
:10192000FFF762F9CB480078032810D1CA48407904
:101930003B2803D10020C849487104E0C6484079DB
:10194000401CC5494871C448FFF7D6F812E0C148A9
:10195000007802280ED1C048407918B93B20BE4912
:10196000487104E0BC484079401EBB494871BA4800
:10197000FFF7C2F810BD10B5FFF74CF9B548007875
:10198000032810D1B4480079172803D10020B249A8
:10199000087104E0B0480079401CAF490871AE48B6
:1019A000FFF7AAF812E0AB48007802280ED1AA4847
:1019B000007918B91720A849087104E0A6480079F1
:1019C000401EA5490871A448FFF796F810BD10B550
:1019D000FFF736F99F480078032810D19E48C07859
:1019E0001F2803D101209C49C87004E09A48C078A0
:1019F000401C9949C8709848FFF77EF813E0954855
:101A0000007802280FD19448C078012803D11F2004
:101A10009149C87004E09048C078401E8E49C87053
:101A20008D48FFF769F810BD10B5FFF71FF9894819
:101A30000078032810D1884880780C2803D1012031
:101A40008549887004E084488078401C8249887009
:101A50008148FFF751F813E07E48007802280FD143
:101A60007D488078012803D10C207B49887004E0F0
:101A700079488078401E784988707748FFF73CF8AD
:101A800010BD10B5FFF708F972480078032810D18F
:101A900071484078632803D100206F49487004E002
:101AA0006D484078401C6C4948706B48FFF724F83B
:101AB00012E06848007802280ED16748407818B9CB
:101AC00063206549487004E063484078401E6249DD
:101AD00048706148FFF710F810BD10B5FFF7F4F833
:101AE0005C480078032810D15B48C079072803D1EF
:101AF00000205949C87104E05748C079401C564934
:101B0000C8715548FEF7F8FF13E0524800780228E4
:101B10000FD15148C079012803D107204E49C8711F
:101B200004E04D48C079401E4B49C8714A48FEF751
:101B3000E3FF10BD10B50120FEF7D0FF10BD10B5BA
:101B40000220FEF7CBFF10BD10B50320FEF7C6FF45
:101B500010BD10B50420FEF7C1FF10BD10B5012067
:101B6000FEF7BCFF10BD10B50220FEF7B7FF10BD99
:101B700010B50320FEF7B2FF10BD10B50420FEF72C
:101B8000ADFF10BD10B50120FEF7A8FF10BD10B5C8
:101B90000220FEF7A3FF10BD10B52E4800780328E1
:101BA0000DD12E480078632803D100202B490870FE
:101BB00015E02A480078401C284908700FE02548A5
:101BC000007802280BD12548007818B963202349F2
:101BD000087004E021480078401E204908701F4822
:101BE0000078FFF7A1F810BD10B51A480078032857
:101BF0000DD11B480078632803D1002018490870D4
:101C000015E017480078401C154908700FE011488E
:101C1000007802280BD11248007818B963201049C7
:101C2000087004E00E480078401E0D4908700C480A
:101C30000078FFF779F810BD10B50120FEF74EFFD0
:101C400010BD10B50220FEF749FF10BD8000002036
:101C5000B00000203D0000202700002044000020AC
:101C60004500002010B50320FEF738FF10BD10B569
:101C70000420FEF733FF10BD10B50520FEF72EFF40
:101C800010BD10B50620FEF729FF10BD10B50720C6
:101C9000FEF724FF10BD10B50820FEF71FFF10BD92
:101CA00010B50120FEF71AFF10BD10B50220FEF797
:101CB00015FF10BD10B50320FEF710FF10BD10B5C5
:101CC0000420FEF70BFF10BD10B50120FEF706FF44
:101CD00010BD10B50220FEF701FF10BD10B50120A8
:101CE000FEF7FCFE10BD10B50220FEF7F7FE10BD9A
:101CF000704710B5FC48007803280BD1FB480078EA
:101D0000012803D10020F949087012E00120F749A9
:101D100008700EE0F448007802280AD1F3480078F1
:101D2000012803D10020F149087002E00120EF49A9
:101D30000870EE480078FFF70EF810BD10B5EA48BD
:101D4000007803280BD1EA480078012803D100204D
:101D5000E749087012E00120E54908700EE0E2480A
:101D6000007802280AD1E2480078012803D1002037
:101D7000DF49087002E00120DD490870DC48007886
:101D8000FEF7E9FF10BD704710B50120FEF7A6FE73
:101D900010BD10B50220FEF7A1FE10BD10B5D5484C
:101DA000FEF7E9FFD0480078032810D1D148C07869
:101DB000092803D10020CF49C87004E0CD48C0787D
:101DC000401CCC49C870CB48FEF793FF12E0C648D0
:101DD000007802280ED1C748C07818B90920C54933
:101DE000C87004E0C348C078401EC249C870C148EA
:101DF000FEF77FFF10BD10B5BE48FEF7D2FFBA4810
:101E00000078032810D1BB488078092803D100202E
:101E1000B849887004E0B7488078401CB54988709C
:101E2000B448FEF766FF12E0AF48007802280ED1F2
:101E3000B048807818B90920AE49887004E0AD48F0
:101E40008078401EAB498870AA48FEF752FF10BD4B
:101E500010B5A848FEF7BBFFA3480078032810D1AF
:101E6000A4484078092803D10020A249487004E022
:101E7000A0484078401C9F4948709E48FEF739FFB3
:101E800012E09948007802280ED19A48407818B993
:101E900009209849487004E096484078401E9549CA
:101EA00048709448FEF725FF10BD10B59148FEF725
:101EB000A4FF8D480078032810D18E4800780928A7
:101EC00003D100208B49087004E08A480078401C48
:101ED000884908708748FEF70CFF12E082480078B6
:101EE00002280ED18348007818B90920814908706A
:101EF00004E080480078401E7E4908707D48FEF767
:101F0000F8FE10BD10B57C48FEF735FF7648007826
:101F1000032810D17848C078092803D100207649D9
:101F2000C87004E07448C078401C7349C870724897
:101F3000FEF7DFFE12E06C48007802280ED16E48F2
:101F4000C07818B909206C49C87004E06A48C078A4
:101F5000401E6949C8706848FEF7CBFE10BD10B539
:101F60006548FEF71EFF60480078032810D16248DC
:101F70008078092803D100205F49887004E05E481A
:101F80008078401C5C4988705B48FEF7B2FE12E026
:101F90005548007802280ED15748807818B9092092
:101FA0005549887004E054488078401E5249887032
:101FB0005148FEF79EFE10BD10B54F48FEF707FFD3
:101FC00049480078032810D14B484078092803D1AC
:101FD00000204949487004E047484078401C464981
:101FE00048704548FEF785FE12E03F480078022819
:101FF0000ED14148407818B909203F49487004E0A3
:102000003D484078401E3C4948703B48FEF771FE11
:1020100010BD10B53848FEF7F0FE334800780328AD
:1020200010D135480078092803D1002032490870C2
:1020300004E031480078401C2F4908702E48FEF714
:1020400058FE12E02848007802280ED12A4800786D
:1020500018B909202849087004E027480078401E74
:10206000254908702448FEF744FE10BD10B52348EA
:10207000FEF781FE1C480078032810D11F48C07865
:10208000092803D100201D49C87004E01B48C0780E
:10209000401C1A49C8701948FEF72BFE12E012487E
:1020A000007802280ED11548C07818B909201349C4
:1020B000C87004E01148C078401E1049C8700F482D
:1020C000FEF717FE10BD10B50C48FEF76AFE064875
:1020D000007803281DD109488078092810D10020F4
:1020E0000649887011E000003D00002047000020F4
:1020F0004600002048000020520000205C00002024
:10210000F7488078401CF6498870F548FEF7F1FDE5
:1021100012E0F448007802280ED1F148807818B90E
:102120000920EF49887004E0ED488078401EEC49B2
:102130008870EB48FEF7DDFD10BD10B5E848FEF7EE
:1021400046FEE8480078032810D1E5484078092881
:1021500003D10020E249487004E0E1484078401C87
:10216000DF494870DE48FEF7C4FD12E0DD48007824
:1021700002280ED1DA48407818B90920D8494870A9
:1021800004E0D7484078401ED5494870D448FEF74F
:10219000B0FD10BD10B5D248FEF72FFED148007833
:1021A000032810D1CE480078092803D10020CC495B
:1021B000087004E0CA480078401CC9490870C84843
:1021C000FEF797FD12E0C748007802280ED1C448F8
:1021D000007818B90920C249087004E0C0480078A6
:1021E000401EBF490870BE48FEF783FD10BD10B504
:1021F000BD48FEF7C0FDBB480078032810D1BA489F
:10220000C078092803D10020B749C87004E0B64857
:10221000C078401CB449C870B348FEF76AFD12E0AC
:10222000B048007802280ED1AF48C07818B909200C
:10223000AD49C87004E0AC48C078401EAA49C870D7
:10224000A948FEF756FD10BD10B5A748FEF7A9FD39
:10225000A4480078032810D1A3488078092803D126
:102260000020A149887004E09F488078401C9E4966
:1022700088709D48FEF73DFD12E09A4800780228DC
:102280000ED19948807818B909209749887004E0E0
:1022900095488078401E944988709348FEF729FD40
:1022A00010BD10B59048FEF792FD8E4800780328C7
:1022B00010D18D484078092803D100208A49487000
:1022C00004E089484078401C874948708648FEF7FA
:1022D00010FD12E08348007802280ED18248407831
:1022E00018B909208049487004E07F484078401EB2
:1022F0007D4948707C48FEF7FCFC10BD10B57A485B
:10230000FEF77BFD77480078032810D176480078E7
:10231000092803D100207449087004E0724800784D
:10232000401C714908707048FEF7E3FC12E06D48EC
:10233000007802280ED16C48007818B909206A4943
:10234000087004E068480078401E674908706648D5
:10235000FEF7CFFC10BD10B56448FEF70CFD6148D8
:102360000078032810D16148C078092803D10020E3
:102370005E49C87004E05D48C078401C5B49C87085
:102380005A48FEF7B6FC12E05648007802280ED1F3
:102390005648C07818B909205449C87004E0534819
:1023A000C078401E5149C8705048FEF7A2FC10BDCD
:1023B00010B54E48FEF7F5FC4A480078032810D1C6
:1023C0004A488078092803D100204849887004E0F1
:1023D00046488078401C454988704448FEF789FC8F
:1023E00012E04048007802280ED14048807818B9A1
:1023F00009203E49887004E03C488078401E3B49F3
:1024000088703A48FEF775FC10BD10B53748FEF7E6
:10241000DEFC34480078032810D13448407809287D
:1024200003D100203149487004E030484078401C16
:102430002E4948702D48FEF75CFC12E029480078D0
:1024400002280ED12948407818B909202749487038
:1024500004E026484078401E244948702348FEF78F
:1024600048FC10BD10B52148FEF7C7FC1D48007898
:10247000032810D11D480078092803D100201B49EA
:10248000087004E019480078401C18490870174883
:10249000FEF72FFC12E01348007802280ED11348F3
:1024A000007818B909201149087004E00F48007835
:1024B000401E0E4908700D48FEF71BFC10BD10B5FC
:1024C0000B48FEF758FC0748007803281BD1084842
:1024D000C07809280ED100200549C8700FE000001F
:1024E0005C0000203D000020660000204D00002020
:1024F00057000020F748C078401CF649C870F548DE
:10250000FEF7F7FB12E0F448007802280ED1F148FC
:10251000C07818B90920EF49C87004E0ED48C078C8
:10252000401EEC49C870EB48FEF7E3FB10BD10B548
:10253000E848FEF736FCE8480078032810D1E54863
:102540008078092803D10020E249887004E0E1483E
:102550008078401CDF498870DE48FEF7CAFB12E035
:10256000DD48007802280ED1DA48807818B90920B1
:10257000D849887004E0D7488078401ED5498870D3
:10258000D448FEF7B6FB10BD10B5D248FEF71FFCCD
:10259000D1480078032810D1CE484078092803D1CB
:1025A0000020CC49487004E0CA484078401CC94922
:1025B0004870C848FEF79DFB12E0C7480078022823
:1025C0000ED1C448407818B90920C249487004E0C7
:1025D000C0484078401EBF494870BE48FEF789FB9E
:1025E00010BD10B5BB48FEF708FCBB4800780328B7
:1025F00010D1B8480078092803D10020B5490870E7
:1026000004E0B4480078401CB2490870B148FEF7B5
:1026100070FB12E0B048007802280ED1AD48007877
:1026200018B90920AB49087004E0AA480078401E98
:10263000A8490870A748FEF75CFB10BD10B5A74875
:10264000FEF799FBA4480078032810D1A348C0786E
:10265000092803D10020A149C87004E09F48C07830
:10266000401C9E49C8709D48FEF743FB12E09A4803
:10267000007802280ED19948C07818B909209749E6
:10268000C87004E09548C078401E9449C8709348CB
:10269000FEF72FFB10BD10B59048FEF782FB8E4869
:1026A0000078032810D18D488078092803D10020B4
:1026B0008A49887004E089488078401C874988707E
:1026C0008648FEF716FB12E08348007802280ED1F8
:1026D0008248807818B909208049887004E07F48D2
:1026E0008078401E7D4988707C48FEF702FB10BD53
:1026F00010B57A48FEF76BFB77480078032810D1B5
:1027000076484078092803D100207449487004E0D5
:1027100072484078401C714948707048FEF7E9FAE9
:1027200012E06D48007802280ED16C48407818B944
:1027300009206A49487004E068484078401E6749AB
:1027400048706648FEF7D5FA10BD10B56348FEF72D
:1027500054FB61480078032810D1604800780928AC
:1027600003D100205D49087004E05C480078401CFB
:102770005A4908705948FEF7BCFA12E056480078EA
:1027800002280ED15548007818B90920534908701D
:1027900004E052480078401E504908704F48FEF748
:1027A000A8FA10BD10B54E48FEF7E5FA4A48007881
:1027B000032810D14A48C078092803D1002048498D
:1027C000C87004E04648C078401C4549C870444879
:1027D000FEF78FFA12E04048007802280ED14048F8
:1027E000C07818B909203E49C87004E03C48C07858
:1027F000401E3B49C8703A48FEF77BFA10BD10B541
:102800003748FEF7CEFA34480078032810D1344810
:102810008078092803D100203149887004E03048CD
:102820008078401C2E4988702D48FEF762FA12E02D
:102830002948007802280ED12948807818B9092043
:102840002749887004E026488078401E2449887013
:102850002348FEF74EFA10BD10B52148FEF7B7FA2F
:102860001D480078032810D11D484078092803D15D
:1028700000201B49487004E019484078401C184962
:1028800048701748FEF735FA12E01348007802281E
:102890000ED11348407818B909201149487004E056
:1028A0000F484078401E0E4948700D48FEF721FA47
:1028B00010BD10B50A48FEF7A0FA074800780328B3
:1028C00019D10748007809280CD100200449087064
:1028D0000DE00000570000203D00002061000020B6
:1028E0006B000020F8480078401CF7490870F64853
:1028F000FEF7FFF912E0F548007802280ED1F24801
:10290000007818B90920F049087004E0EE48007812
:10291000401EED490870EC48FEF7EBF910BD10B50C
:10292000EA48007803280BD1E9480078012803D150
:102930000020E749087012E00120E54908700EE028
:10294000E248007802280AD1E1480078012803D142
:102950000020DF49087002E00120DD490870DC48F2
:102960000078FEF7F8F910BD10B5D84800780328B4
:102970000DD1D8480078632803D10020D5490870CC
:1029800015E0D4480078401CD24908700FE0CF48C9
:10299000007802280BD1CF48007818B96320CD49C0
:1029A000087004E0CB480078401ECA490870C94846
:1029B0000078FEF7B9F910BD10B5C44800780328B7
:1029C0000DD1C5480078072803D10020C2490870FE
:1029D00015E0C1480078401CBF4908700FE0BB48B3
:1029E000007802280BD1BC48007818B90720BA49F2
:1029F000087004E0B8480078401EB7490870B6482F
:102A00000078FEF7A8F910BD10B5B048007803288B
:102A10000DD1B2480078092803D10120AF490870D0
:102A200016E0AE480078401CAC49087010E0A7489A
:102A3000007802280CD1A9480078012803D1092088
:102A4000A649087004E0A5480078401EA349087014
:102A5000A2480078FEF77FF910BD10B59B480078BA
:102A600003280BD19E480078012803D100209C49FF
:102A7000087012E001209A4908700EE0934800782F
:102A800002280AD196480078012803D100209449F1
:102A9000087002E001209249087091480078FEF722
:102AA0005AF910BD10B58948007803280DD18D481A
:102AB0000078092803D101208A49087016E0894866
:102AC0000078401C8749087010E080480078022890
:102AD0000CD184480078012803D10920814908706D
:102AE00004E080480078401E7E4908707D480078E8
:102AF000FEF731F910BD10B57448007803280DD1E8
:102B000079480078072803D101207749087016E03A
:102B100075480078401C7449087010E06B480078D4
:102B200002280CD170480078012803D107206E4993
:102B3000087004E06C480078401E6B4908706A48D1
:102B40000078FEF708F910BD10B56048007803283A
:102B50000BD166480078012803D100206349087032
:102B600012E00120614908700EE058480078022800
:102B70000AD15E480078012803D100205B49087023
:102B800002E001205949087058480078FEF7E3F840
:102B900010BD10B54D48007803280BD1544800787B
:102BA000012803D100205249087012E00120504949
:102BB00008700EE04548007802280AD14C48007899
:102BC000012803D100204A49087002E00120484949
:102BD000087047480078FEF7BEF810BD10B53B48B6
:102BE000007803280BD143480078012803D1002046
:102BF0004049087012E001203E4908700EE0334859
:102C0000007802280AD13B480078012803D100202F
:102C10003849087002E001203649087035480078CC
:102C2000FEF799F810BD10B52848007803280DD19B
:102C3000314800780B2803D100202F49087015E097
:102C40002D480078401C2C4908700FE01F48007880
:102C500002280BD12848007818B90B2026490870A3
:102C600004E025480078401E234908702248007877
:102C7000FEF75AF810BD10B51448007803280DD19E
:102C80001E4800780B2803D100201C49087015E06D
:102C90001A480078401C194908700FE00B4800786A
:102CA00002280BD11548007818B90B201349087079
:102CB00004E012480078401E104908700F48007860
:102CC000FEF732F810BD00006B0000203D00002030
:102CD00070000020710000207200002073000020AE
:102CE000740000207500002076000020770000208E
:102CF00078000020790000207A0000207B0000206E
:102D000010B54E48007803280DD14D4800780B28A7
:102D100003D100204A49087015E049480078401C5A
:102D2000474908700FE04548007802280BD1444815
:102D3000007818B90B204249087004E04048007838
:102D4000401E3F4908703E480078FDF7EDFF10BD7A
:102D500010B53A48007803280DD13A4800780B287E
:102D600003D100203749087015E036480078401C30
:102D7000344908700FE03148007802280BD13148FF
:102D8000007818B90B202F49087004E02D4800780E
:102D9000401E2C4908702B480078FDF7C5FF10BD78
:102DA00010B52648007803280BD127480078012861
:102DB00003D102202449087012E001202249087042
:102DC0000EE01E48007802280AD11F48007801282A
:102DD00003D102201C49087002E001201A49087042
:102DE00019480078FDF7B7FF10BD10B513480078FB
:102DF00003280DD115480078262803D10020134957
:102E0000087015E011480078401C104908700FE068
:102E10000A48007802280BD10C48007818B92620FF
:102E20000A49087004E009480078401E0749087004
:102E300006480078FDF778FF10BD00003D00002037
:102E40007C0000207D0000207E0000207F0000200C
:102E500031490143314A1160704770B500210023A8
:102E60000F22C4780CB32D4C246804F4E064C4F53C
:102E7000E064210AC1F10403CA40447804FA03F172
:102E80008478144021430901254C0678A155047823
:102E900004F01F050124AC4005786D114FF0E026C9
:102EA00006EB8505C5F8004109E0047804F01F052C
:102EB0000124AC401B4D0678761145F8264070BDC4
:102EC000194A0A400243154B1B1F1A60704739B15B
:102ED000124A121D12680243104B1B1D1A6006E0B5
:102EE0000E4A121D126882430C4B1B1D1A6070475C
:102EF000042808D14FF0E021096941F004014FF0A6
:102F0000E022116107E04FF0E021096921F004019E
:102F10004FF0E022116170470000FA050CED00E06F
:102F200000E400E080E100E080FFFF1F0020444952
:102F30000860091D0860091D0860091D08604148F6
:102F40003F4914310860704700213D498279002AC9
:102F50003AD00A46126803689A430B461A600A1D63
:102F6000126803689A430B1D1A60027911440A68BB
:102F700003681A430A60324A0832126803689A43A7
:102F80002F4B08331A601A1D126803689A432C4BA2
:102F90000C331A604279102A0ED11A1F1268036886
:102FA0001A43274B08331A601A1D126803681A4324
:102FB000234B0C331A600DE02149427911440A6811
:102FC00003681A430A6005E0027911440A6803683D
:102FD0009A430A6070470021016001710C21417120
:102FE0000021817170471649103109680143144A64
:102FF00010321160704701460020114A14321268E5
:103000000A4201D0012000E0002070470C49143131
:1030100008607047014600200022094B1B6803EA44
:103020000102074B14331B680B4202D00AB1012086
:1030300000E000207047024914310860704700002A
:1030400000040140FFFF0F0010B50446CA48844247
:1030500008D10121042000F034FB0021042000F0FD
:1030600030FB46E0C548844208D10121082000F029
:1030700028FB0021082000F024FB3AE0C0488442ED
:1030800008D10121102000F01CFB0021102000F0CD
:1030900018FB2EE0BB48844208D10121202000F01B
:1030A00010FB0021202000F00CFB22E0B6488442F7
:1030B00008D10121402000F004FB0021402000F055
:1030C00000FB16E0B148844208D10121802000F0C5
:1030D000F8FA0021802000F0F4FA0AE0AC488442BB
:1030E00007D10121801500F0ECFA0021A01500F0B5
:1030F000E8FA10BD10B50121084600F0E2FA0021FF
:10310000012000F0DEFA10BD2DE9F0410246002555
:103110000026002000230024002791F803C00CF0B3
:103120000F0591F803C01CF0100F03D091F802C0F6
:103130004CEA050591F800C0BCF1000F31D01468CD
:1031400000202BE04FF0010C0CFA00F3B1F800C0A6
:103150000CEA03069E4220D183004FF00F0C0CFABC
:1031600003F7BC4305FA03FC4CEA040491F803C0DE
:10317000BCF1280F06D14FF0010C0CFA00FCC2F88C
:1031800014C00AE091F803C0BCF1480F05D14FF01C
:10319000010C0CFA00FCC2F810C0401C0828D1D366
:1031A0001460B1F800C0BCF1FF0F34DD546800209A
:1031B0002EE000F1080C4FF0010808FA0CF3B1F80A
:1031C00000C00CEA03069E4221D183004FF00F0C91
:1031D0000CFA03F7BC4305FA03FC4CEA040491F82B
:1031E00003C0BCF1280F05D100F1080C08FA0CF857
:1031F000C2F8148091F803C0BCF1480F07D100F168
:10320000080C4FF0010808FA0CF8C2F81080401CB6
:103210000828CED35460BDE8F0814FF6FF710180DD
:10322000022181700421C17070470246002093681A
:103230000B4201D0012000E0002070470146886861
:1032400080B2704702460020D3680B4201D00120B3
:1032500000E0002070470146C86880B270470161F5
:103260007047416170470AB1016100E041617047F8
:10327000C16070474FF480320A438261816182618C
:1032800082698269704702460020424B18684FF6F7
:103290008073184040EA021008433E4B18607047A4
:1032A0003D49C8617047F0B50A460023002400215B
:1032B000002500F00046B6F1004F02D1354EF1690D
:1032C00001E0344E7168C0F3034583B200F4401648
:1032D000B6F5401F08D121F070612E4E766826F0B9
:1032E00070662C4F7E6012E000F48016B6F5801FE9
:1032F00006D1032606FA05F4A14341F0706106E009
:10330000460D360103FA06F6B14341F0706122B171
:10331000460D360103FA06F6314300F00046B6F1D9
:10332000004F02D11B4EF16101E01A4E7160F0BDF9
:1033300030B500228B071C0F0F2303FA04F2154B44
:1033400008338C1053F824309343124C08348D10FA
:1033500044F8253023468C1053F824308C07240F72
:1033600000FA04F423430B4C08348D1044F8253044
:1033700030BD0A490860704700080140000C014058
:10338000001001400014014000180140001C0140E1
:10339000002001400000014000002042DC002042EB
:1033A000E448006840F00100E249086008464068CF
:1033B000E1490840DF49486008460068DF490840A5
:1033C000DC4908600846006820F480200860084650
:1033D000406820F4FE0048604FF41F008860002021
:1033E000C8627047D349096821F48031D14A11601D
:1033F0001146096821F480211160B0F5803F03D0A7
:10340000B0F5802F0ED106E0CA49096841F4803139
:10341000C84A116007E0C749096841F4A021C54ABC
:10342000116000E000BF00BF704710B501460022E8
:10343000002300204A11012A02D1BE4C236806E075
:10344000022A02D1BB4C236A01E0BA4C636A01F044
:103450001F02012494401C4201D0012000E0002002
:1034600010BD38B5002000900024002500BF312099
:10347000FFF7DBFF05460098401C00900098B0F570
:10348000A06F01D0002DF2D03120FFF7CEFF08B1A0
:10349000012400E00024204638BD01460020A54A52
:1034A000106820F0F80040EAC10010607047A4499D
:1034B00008607047024600209E4B586820F4741044
:1034C00042EA010318439B4B586070479C490866C9
:1034D000704702460020974BD86A9A4B184042EA40
:1034E00001031843934BD862704701460020914A6C
:1034F000506820F003000843506070478D484068D2
:1035000000F00C007047014600208A4A506820F005
:10351000F00008435060704701460020854A50681B
:1035200020F4E06008435060704701460020814A63
:10353000506820F4605040EAC1005060704729B1E3
:103540007C4A527A02437B4B5A7204E0794A527A9F
:103550008243784B5A7270477B4908607047014636
:103560000020744A506820F440400843506070477F
:103570000021764A11706F4A82F82010012802D08B
:10358000042808D103E00121704A117004E00521EC
:103590006E4A117000E000BF00BF70476C490860C0
:1035A00070476449096A0143624A11627047684979
:1035B00044390860704770B50021002300240022C0
:1035C00000255C4E766806F00C0121B1042905D077
:1035D000082921D105E05F4E066020E05D4E0660BF
:1035E0001DE0544E766806F47013524E766806F469
:1035F0008034022606EB93431CB9574E5E430660A7
:1036000009E04C4EF66A06F00F06751C514EB6FBEB
:10361000F5F65E43066002E04E4E066000BF00BF56
:10362000444E766806F0F00109094C4E725C06685B
:10363000D64046603F4E766806F4E061090A474E80
:10364000725C4668D64086603A4E766806F46051F1
:10365000C90A424E725C4668D640C660354E7668EE
:1036600006F44041890B3E4E725CC668B6FBF2F62A
:10367000066170BD29B12F4A526902432D4B5A6130
:1036800004E02C4A526982432A4B5A61704729B19F
:10369000284A92690243274B9A6104E0254A9269BD
:1036A0008243244B9A61704729B1224AD26902436E
:1036B000204BDA6104E01F4AD26982431D4BDA6174
:1036C000704729B11B4AD26802431A4BDA6004E002
:1036D000184AD2688243174BDA60704729B1154AFD
:1036E00012690243134B1A6104E0124A12698243C1
:1036F000104B1A61704716494039086070471049ED
:10370000C86470470B49C87170470A48406A40F066
:10371000807008494862704701460020054A926857
:103720000A4201D0012000E0002070470149887260
:1037300070470000001002400000FFF8FFFFF6FE97
:1037400000004242F0FFFEFFD8004242201002403B
:103750008004424200127A0000093D0081000020EE
:103760009100002010B50446FE48844208D1012192
:10377000C014FFF7A6FF0021E014FFF7A2FFC4E08A
:10378000B4F1804F08D101210846FFF7A7FF0021BF
:103790000120FFF7A3FFB8E0F348844208D10121DC
:1037A0000220FFF79BFF00210220FFF797FFACE00C
:1037B000EE48844208D101210420FFF78FFF002149
:1037C0000420FFF78BFFA0E0E948844208D10121E3
:1037D0000820FFF783FF00210820FFF77FFF94E018
:1037E000E448844208D101211020FFF777FF00212F
:1037F0001020FFF773FF88E0DF48844208D10121E1
:103800002020FFF76BFF00212020FFF767FF7CE0FF
:10381000DA48844208D101214014FFF752FF002109
:103820006014FFF74EFF70E0D548844209D10121B2
:10383000C804FFF746FF00214FF40020FFF741FFC7
:1038400063E0D048844209D101210805FFF739FF20
:1038500000214FF48010FFF734FF56E0CA4884423D
:1038600009D101214805FFF72CFF00214FF400107A
:10387000FFF727FF49E0C548844208D101214020D5
:10388000FFF72CFF00214020FFF728FF3DE0C04854
:10389000844208D101218020FFF720FF00218020F1
:1038A000FFF71CFF31E0BB48844208D1012180159D
:1038B000FFF714FF0021A015FFF710FF25E0B64821
:1038C000844209D101210804FFF7FBFE00214FF4D7
:1038D0008030FFF7F6FE18E0B048844209D101219C
:1038E0004804FFF7EEFE00214FF40030FFF7E9FE39
:1038F0000BE0AB48844208D101218804FFF7E1FEC8
:1039000000214FF48020FFF7DCFE10BD002202886A
:10391000944B98420ED0994B98420BD0B0F1804F07
:1039200008D0914B984205D0904B984202D0904BD2
:10393000984204D14FF68F731A404B881A438D4B2F
:10394000984207D08C4B984204D04FF6FF431A4060
:10395000CB881A4302808B8883850B880385814B33
:1039600098420BD0854B984208D08B4B984205D09B
:103970008A4B984202D08A4B984201D10B7A038637
:1039800001238382704770B5002400220023058C38
:103990004FF6FE7635400584028C8388048B4FF603
:1039A0008F752C40B51E2C400D882C43751E2A4067
:1039B0000D892A434D882A436A4DA8420BD06F4D8A
:1039C000A84208D0744DA84205D0744DA84202D038
:1039D000734DA84213D14FF6F7752A404D892A43FB
:1039E0004FF6FB752A408D882A434FF6FF652B4022
:1039F0004FF6FF552B408D892B43CD892B43838078
:103A00000483CD888586028470BD70B500240022B1
:103A10000023058C4FF6EF7635400584028C8388B1
:103A2000048B48F6FF752C404FF6FF452C400D885F
:103A30004FF6FF7606EA05252C434FF6DF752A4040
:103A40000D8906EA05152A434D8806EA05152A431D
:103A5000444DA84202D0494DA8421DD14FF67F7572
:103A60002A404D894FF6FF7606EA05152A434FF6A0
:103A7000BF752A408D8806EA05152A434FF6FF35A3
:103A80002B404FF2FF752B408D8906EA85052B43AD
:103A9000CD8906EA85052B4383800483CD8805877D
:103AA000028470BD70B5002400220023058C4FF6FF
:103AB000FF6635400584028C8388848B4FF68F75B2
:103AC0002C404FF6FC752C400D882C434FF6FF55CB
:103AD0002A400D894FF6FF7606EA05252A434D88D0
:103AE00006EA05252A431F4DA84202D0234DA842CD
:103AF0001DD14FF2FF752A404D894FF6FF7606EA39
:103B000005252A434FF6FF352A408D8806EA05250C
:103B10002A434EF6FF752B404DF6FF752B408D89DD
:103B200006EA05152B43CD8906EA05152B4383804C
:103B30008483CD888587028470BD70B50022002300
:103B40000024058C4EF6FF7635400584038C84886E
:103B5000828B48F6FF752A404FF6FF452A400D88B4
:103B600020E00000002C014000040040000800405C
:103B7000000C0040001000400014004000340140E0
:103B8000004C01400050014000540140001800402A
:103B9000001C004000200040004001400044014063
:103BA000004801404FF6FF7606EA05252A434DF608
:103BB000FF752B400D8906EA05352B434D8806EA33
:103BC00005352B43FA4DA84202D0FA4DA84208D140
:103BD0004BF6FF752C408D894FF6FF7606EA85156A
:103BE0002C4384808283CD88A0F84050038470BD2C
:103BF000828B4FF2FF331A408283828B4FF6FF7322
:103C000003EA01231A4382837047F0B50C46154638
:103C1000002200210026078C4EF6FF7C07EA0C07E5
:103C20000784828B018C4FF6FF7707EA043640F653
:103C3000FF473A404FF6FF7707EA05273A434FF62A
:103C4000FF7707EA03373A43D94FB8420ED0D94F2E
:103C5000B8420BD0B0F1804F08D0D74FB84205D052
:103C6000D64FB84202D0D64FB84206D14DF6FF77B4
:103C7000394046F48057394305E047F6FF5739404D
:103C800044F48057394382830184F0BD828B4FF620
:103C9000F3731A408283828B0A4382837047F0B5A4
:103CA0000C461546002200210026078C4FF6FF6CBB
:103CB00007EA0C070784828B018C4FF6FF7707EA2F
:103CC00004264FF60C773A404FF6FF7707EA0317C2
:103CD0002F433A43B64FB8420ED0B64FB8420BD03E
:103CE000B0F1804F08D0B44FB84205D0B34FB842BE
:103CF00002D0B34FB84206D14FF6FF57394046F4D1
:103D00008077394305E04FF2FF57394044F480771C
:103D1000394382830184F0BD028B4FF2FF331A4096
:103D20000283028B4FF6FF7303EA01231A430283D7
:103D30007047F0B50C461546002200210026078C7E
:103D40004FF6EF7C07EA0C070784028B018C4FF6D5
:103D5000FF7707EA041640F6FF473A404FF6FF7731
:103D600007EA03373A434FF6FF7707EA05273A4356
:103D70008F4FB8420ED08F4FB8420BD0B0F1804F6A
:103D800008D08D4FB84205D08C4FB84202D08C4F2E
:103D9000B84206D14FF6DF77394046F01007394375
:103DA00005E04FF65F77394044F01007394302834E
:103DB0000184F0BD028B4FF6F3731A400283028B2D
:103DC0000A4302837047F0B50C46154600220021D5
:103DD000068C4FF6FE773E400684028B018C4FF630
:103DE0000C7632407E1C06EA03162E433243704E98
:103DF000B0420ED06F4EB0420BD0B0F1804F08D021
:103E00006D4EB04205D06D4EB04202D06C4EB04205
:103E100006D14FF6FD76314044F00106314305E00E
:103E20004FF6F576314044F00106314302830184B8
:103E3000F0BD70B505460C465D4885420ED05D4824
:103E400085420BD0B5F1804F08D05B48854205D044
:103E50005A48854202D05A48854200D100E000BF4E
:103E6000208850B92389A28861882846FFF7ABFFD4
:103E7000E1882846FFF79EFF25E0208804280AD124
:103E80002389A28861882846FFF753FFE1882846E6
:103E9000FFF742FF17E0208808280AD12389A2886B
:103EA00061882846FFF7FBFEE1882846FFF7EEFE13
:103EB00009E02389A28861882846FFF7A6FEE188E9
:103EC0002846FFF795FE70BD2DE9F04105460C46EA
:103ED00000260127608808B9022600E00026A08895
:103EE000012801D1022700E001272088A0B92389F9
:103EF000A28861882846FFF766FFE1882846FFF719
:103F000059FF23893A4631462846FFF712FFE188D8
:103F10002846FFF701FF13E02389A288618828461D
:103F2000FFF707FFE1882846FFF7F6FE23893A46A8
:103F300031462846FFF747FFE1882846FFF73AFF5A
:103F4000BDE8F0810A884B881A438B881A43CB88D6
:103F50001A430B891A434B891A438B891A43A0F8D9
:103F6000442070474FF6FF71818000210180C1809D
:103F70004180017270470021018041808180C180B1
:103F8000018141818181C18170470021018041808F
:103F9000012181800021C1800181704700210180C1
:103FA00041808180C1800181418181817047000011
:103FB000002C014000340140000400400008004093
:103FC000000C004021B1028842F00102028004E0AE
:103FD00002884FF6FE731A400280704731B1B0F884
:103FE000442042F40042A0F8442005E0B0F8442008
:103FF000C2F30E02A0F8442070471AB183890B4324
:10400000838102E083898B4383817047818270477B
:1040100041EA0203A0F8483070471AB183890B4384
:10402000838102E083898B438381704701894FF646
:10403000F8721140018170470A46002101894FF64C
:104040008F73194011430181704730B504460D4606
:1040500029462046FFF7F0FF208940F00700208125
:1040600030BD2DE9F04104460D4616461F46602D31
:1040700006D13B46012231462046FFF75AFE05E0B5
:104080003B46012231462046FFF79DFE2946204649
:10409000FFF7D2FF208940F007002081BDE8F081C2
:1040A00030B50C4600210189C9B24FF6FF7505EA0B
:1040B0000325154325432943018130BD2DE9F041F6
:1040C00005460E4617469846002443463A46314672
:1040D0002846FFF7E5FF2C894FF6F870044044F0BE
:1040E00007044FF68F70044044F070042C81BDE843
:1040F000F081F0B504460D4616461F463B46324653
:1041000029462046FFF7CCFF208940F480402081DB
:10411000F0BD0185828270470A46002101884FF672
:104120008F731940114301807047F0B50C46154656
:104130001E460021002200230189028B038C4FF6CA
:10414000F877394021434FF6FC473A4040F20117D7
:104150003A434FF6DD773B404FF6FF7707EA061705
:104160002F433B43018102830384F0BD0A460021B3
:10417000018B4FF68F7319401143018370470A4634
:104180000021018B48F6FF7319404FF6FF7303EAD5
:1041900002231943018370470A460021818B4FF6A1
:1041A0008F7319401143818370470A460021818B28
:1041B00048F6FF7319404FF6FF7303EA02231943D1
:1041C0008183704721B1028842F08002028004E0BE
:1041D00002884FF67F731A400280704721B18288AF
:1041E00042F00402828004E082884FF6FB731A409A
:1041F0008280704721B1828842F00802828004E008
:1042000082884FF6F7731A408280704721B1828806
:1042100042F00102828004E082884FF6FE731A4069
:10422000828070470A460021018B4FF6F7731940D0
:104230001143018370470A460021018B4FF2FF733F
:1042400019404FF6FF7303EA0223194301837047B5
:104250000A460021818B4FF6F77319401143818381
:1042600070470A460021818B4FF2FF7319404FF6C9
:10427000FF7303EA02231943818370470A46002132
:10428000018B4FF6FB7319401143018370470A46B7
:104290000021018B4FF6FF3319404FF6FF7303EAFD
:1042A00002231943018370470A460021818B4FF690
:1042B000FB7319401143818370470A460021818BAB
:1042C0004FF6FF3319404FF6FF7303EA02231943F9
:1042D000818370470A460021018B4FF67F73194096
:1042E0001143018370470A460021018BC1F30E017F
:1042F0004FF6FF7303EA02231943018370470A460E
:104300000021818B4FF67F731940114381837047E1
:104310000A460021818BC1F30E014FF6FF7303EAB9
:1043200002231943818370470A460021018C4FF60E
:10433000FD7319401143018470470A460021018C26
:104340004FF6F77319401143018470470A46002164
:10435000018C4FF6DF7319404FF6FF7303EA021327
:104360001943018470470A460021018C4FF67F7380
:1043700019404FF6FF7303EA021319430184704793
:104380000A460021018C4FF6FF5319404FF6FF7388
:1043900003EA02231943018470470A460021018C75
:1043A0004FF2FF7319404FF6FF7303EA02231943DC
:1043B000018470470A460021018C4DF6FF731940B5
:1043C0004FF6FF7303EA023319430184704730B597
:1043D000002301248C40A3B2048C9C430484048CED
:1043E00002FA01F5ADB22C43048430BD30B5002390
:1043F00004248C40A3B2048C9C430484048C02FAF1
:1044000001F5ADB22C43048430BD70B503460020E5
:1044100000241846183001258D40ACB21D8CA543F0
:104420001D8409B1082909D100EB6100056825F058
:10443000700505600568154305600EE00D1FC5F3A6
:104440004E052844056825F4E045056005684FF6EB
:10445000FF7606EA02263543056070BD21B1028869
:1044600042F00202028004E002884FF6FD731A4017
:104470000280704721B1028842F00402028004E009
:1044800002884FF6FB731A400280704721B1828880
:1044900042F08002828004E082884FF67F731A40E7
:1044A0008280704702884FF6F7731A4002800288B4
:1044B0000A430280704782884FF68F731A408280C9
:1044C00082880A438280704702894FF6F8731A4047
:1044D000028102890A430281704702894FF67F7385
:1044E0001A40028102890A43028170478184704721
:1044F0008185704781867047018770478187704743
:10450000A0F84010704702884FF6FF431A4002801F
:1045100002880A43028070470146888E7047014630
:10452000088F70470146888F70470146B1F84000F8
:1045300070470146888C70470146088D70470246D7
:104540000020138A0B4201D0012000E000207047B8
:10455000CA430282704730B502460020002300247F
:10456000158A05EA0103958905EA010413B10CB126
:10457000012000E0002030BDCA43028270470000E5
:1045800010B50446FB48844209D101218803FFF796
:1045900098F800214FF48040FFF793F832E0F64896
:1045A000844209D101214804FFF798F800214FF413
:1045B0000030FFF793F825E0F048844209D101214B
:1045C0008804FFF78BF800214FF48020FFF786F86E
:1045D00018E0EB48844209D10121C804FFF77EF8B6
:1045E00000214FF40020FFF779F80BE0E548844202
:1045F00008D101210805FFF771F800214FF4801060
:10460000FFF76CF810BD2DE9F04786B005460E4661
:104610000024A24600BFA1460027B08900B100BF18
:104620002F462C8A4CF6FF700440F08804432C82FD
:10463000AC894EF6F3100440B08831890843718983
:1046400008430443AC81AC8A4FF6FF400440B08974
:104650000443AC8201A8FEF7AEFFC648874202D1F0
:10466000DDF810A001E0DDF80CA0A88910F4004FDF
:1046700008D00AEBCA0000EB0A1031684900B0FB11
:10468000F1F807E00AEBCA0000EB0A103168890074
:10469000B0FBF1F86420B8FBF0F0040120096421BC
:1046A00001FB1089A88910F4004F08D0322000EBDC
:1046B000C900B0FBF1F000F00700044308E032202D
:1046C00000EB09106421B0FBF1F000F00F0004438F
:1046D0002C8106B0BDE8F0874FF41651016000212F
:1046E0008180C18001810C2141810021818170473D
:1046F00010B502460020108A4FF2FF0318400B88C5
:104700004C8823438C882343CC882343184310824E
:1047100010BD0021018041808180C180704721B19E
:10472000828942F40052828104E082894DF6FF734F
:104730001A4082817047F0B5034600240026002508
:104740000020A1F510676A3F00D100BF1846C1F3F1
:10475000421401F01F06012707FA06F5012C01D1CA
:104760000C3004E0022C01D1103000E014301AB1FA
:1047700007682F43076002E00768AF430760F0BD9A
:104780001AB1838A0B43838202E0838A8B4383823C
:104790007047028A4FF6F0731A400282028A0A4377
:1047A0000282704782894FF2FF731A4082818289A8
:1047B0000A438281704721B1828942F002028281DC
:1047C00004E082894FF6FD731A4082817047028AA5
:1047D0004FF6DF731A400282028A0A430282704750
:1047E00021B1028A42F48042028204E0028A4BF63E
:1047F000FF731A4002827047C1F30802828070473B
:1048000001468888C0F308007047818941F00101A2
:1048100081817047028BD2B20283028B42EA01226D
:1048200002837047028B02F47F420283028B0A43A9
:104830000283704721B1828A42F02002828204E022
:10484000828A4FF6DF731A408282704721B1828AD2
:1048500042F01002828204E0828A4FF6EF731A401F
:104860008282704721B1828A42F00802828204E08B
:10487000828A4FF6F7731A408282704721B182898B
:1048800042F40042828103E08289C2F30E028281F7
:10489000704721B1828A42F40062828204E0828AF7
:1048A0004FF2FF731A4082827047828A4FF6FB7381
:1048B0001A408282828A0A438282704721B1828AA8
:1048C00042F00202828204E0828A4FF6FD731A40AF
:1048D0008282704702460020B1F5007F00D100BF00
:1048E00013880B4201D0012000E00020704701F442
:1048F0000072B2F5007F00D100BFCA43028070474A
:1049000070B502460024002300250020A1F51066A2
:104910006A3E00D100BFC1F3421501F01F0301261A
:1049200006FA03F3012D02D19689334006E0022DE9
:1049300002D1168A334001E0968A33400C120126D8
:1049400006FA04F41688344013B10CB1012000E0DB
:10495000002070BD10B500220023A1F510646A3C50
:1049600000D100BF0A1201249440A3B2DC430480AA
:1049700010BD0000003801400044004000480040E5
:10498000004C0040005000400CB500200190009009
:104990006248006840F480306049086000BF5F48AA
:1049A000006800F4003000900198401C01900098CD
:1049B00018B90198B0F5A06FF1D15848006810F40B
:1049C000003F02D00120009001E0002000900098FC
:1049D000012830D151484068504948600846406835
:1049E00048600846406848600846406820F47C10EB
:1049F00048600846406840F49810486008460068DF
:104A000040F08070086000BF4448006810F0007FEC
:104A1000FAD04248406820F0030040494860084608
:104A2000406840F00200486000BF3C48406800F029
:104A30000C000828F9D10CBD10B5FFF7A5FF10BD7B
:104A400010B53648006840F0010034490860084657
:104A50004068334908403149486008460068314998
:104A600008402E4908600846006820F4802008604D
:104A70000846406820F4FE0048604FF41F0088603C
:104A80000020C862FFF7D8FF4FF000602649086099
:104A900010BD30B500210020002200231F4C6468A7
:104AA00004F00C0121B1042906D0082925D107E022
:104AB0001E4C1F4D2C6024E01C4C1D4D2C6020E032
:104AC000164C646804F47010144C646804F480326A
:104AD000022404EB904022B9164C4443144D2C6040
:104AE0000AE00E4CE46A04F00F04631C0F4CB4FBA4
:104AF000F3F444430E4D2C6003E00C4C0C4D2C6041
:104B000000BF00BF054C6468C4F303140A4D295D5F
:104B1000074C2468CC40064D2C6030BD001002408C
:104B20000000FFF8FFFFF6FE08ED00E000127A003B
:104B30009800002000093D009C000020D2B201E056
:104B400000F8012B491EFBD270470022F6E710B592
:104B500013460A4604461946FFF7F0FF204610BDEB
:104B60002DE9F05F0546002092469B4688460646A2
:104B7000814640241BE0284641464746224600F035
:104B800042F853465A46C01A914110D3114618466E
:104B9000224600F029F82D1A67EB01084F462246FD
:104BA0000120002100F020F817EB00094E41201EE3
:104BB000A4F10104DFDC484631462A464346BDE8FD
:104BC000F09F0000064C074D06E0E06840F001034E
:104BD00094E8070098471034AC42F6D3FBF78AFA02
:104BE0006054000880540008202A04DB203A00FAB0
:104BF00002F1002070479140C2F1200320FA03F334
:104C0000194390407047202A04DB203A21FA02F031
:104C10000021704721FA02F3D040C2F120029140F6
:104C200008431946704700000FB4054B10B503A99F
:104C3000044A029800F018F810BC5DF814FB00005C
:104C40008D030008AC00002002E008C8121F08C154
:104C5000002AFAD170477047002001E001C1121FFD
:104C6000002AFBD1704700002DE9FF4F8DB09B4615
:104C70000F460446002638E1252801D00F9959E057
:104C80000025641C9D49A84601222378203B02FA96
:104C900003F0084202D00543641CF6E720782E2872
:104CA00017D114F8010F45F004052A280ED06FF033
:104CB0002F022078A0F1300109290AD808EB8801D9
:104CC00002EB410100EB0108641CF2E757F8048B8A
:104CD000641C20786C280DD004DC4C2812D06A2883
:104CE00011D104E074280DD07A280CD10AE045F4E3
:104CF000001507E0617845F48015814202D1641CFB
:104D000005F58015641C2278692A46D008DC002A43
:104D100070D0582A69D0632A11D0642A08D13CE0A7
:104D2000702A69D0732A14D0752A5CD0782A5CD096
:104D30000F9910465A46904706F10106D4E017F83D
:104D4000040B8DF8000000208DF80100E9460120D9
:104D500003E057F8049B4FF0FF3069074FF0000560
:104D600001D40AE06D1C45450DDA8542FADB19F8DD
:104D700005100029F6D106E06D1C8542FCDB19F810
:104D800005100029F8D12E4404E019F8010B5A4609
:104D90000F9990476D1EF8D2A6E00A200021CDE9B8
:104DA0000801C5F3025002280BD001CFC11700291A
:104DB0000EDA4FF0000CD0EB0C006CEB01012D2350
:104DC00009E007F1070727F00707F7E80201EEE718
:104DD0002B0504D52B238DF82830012330E0EB0779
:104DE0002ED02023F7E70A2000E010200021CDE993
:104DF000080109E07DE0FFE71020002145F00405EF
:104E0000CDE908014FF00808C5F3025002281BD075
:104E100001CF00214FF0000A2B0712D5702A19D0BC
:104E2000DDE908C38CF0100C5CEA030C09D150EAF0
:104E3000010306D030238DF828308DF82920022375
:104E40009A46582A10D00AE0FF1D27F00707F7E816
:104E50000201DFE740228DF828204FF0010A28A246
:104E60000DF120090B9209E02AA2F9E7DDE90823F8
:104E7000FFF776FE0B9B9B5C09F8013D50EA0102AF
:104E8000F4D1ADEB090000F120000890680701D4CF
:104E90004FF001080899884502DDA8EB010000E009
:104EA00000208046002506E00AA85A46405D0F997A
:104EB0009047761C6D1C5545F6DB04E030205A46C1
:104EC0000F999047761CB8F10001A8F10108F5DCB4
:104ED00005E019F8010B5A460F999047761C08997E
:104EE000481E08900029F4DC641C207800287FF418
:104EF000C3AE11B03046BDE8F08F000009280100B4
:104F0000303132333435363738396162636465663F
:104F10000000000030313233343536373839414201
:104F200043444546000000003F065B4F666D7D0729
:104F30007F6F777C395E79713800407673503E54CC
:104F40005C80BF86DBCFE6EDFD87FFEFF7FCB9DEC7
:104F5000F9F1010204081020408000000000000068
:104F6000000000006518000801100F02000000009A
:104F700089180008021601030000000093180008B9
:104F8000031A0204000000009D180008041E030517
:104F900000000000A718000805200406000000001B
:104FA000B11800080621050700000000BB18000822
:104FB0000722060800000000C5180008082A070993
:104FC00000000000CF180008092E080A00000000A9
:104FD000D91800080A30090B00000000E318000887
:104FE0000B0B0A0C00000000ED1800080C0C0B0D58
:104FF00000000000F71800080D0D0C0E0000000066
:10500000011900080E0E0D0F000000000B1900081A
:105010000F0F0E01000000001519000810111010EC
:10502000010000001F1900081112111101000000F9
:10503000771900081213121201000000CF1900089E
:105040001314131301000000291A00081415141476
:1050500001000000831A000815101515010000005A
:10506000DB1A00081638191702000000351B00086B
:10507000173C1618020000003F1B000818401719C3
:1050800002000000491B0008194418160200000025
:10509000531B00081A481D1B030000005D1B00087D
:1050A0001B4C1A1C03000000671B00081C501B1D32
:1050B00003000000711B00081D541C1A03000000AF
:1050C0007B1B00081E581F1F04000000851B0008E2
:1050D0001F591E1E040000008F1B000820202020E6
:1050E00005000000991B0008212121210600000075
:1050F000E91B0008225A292307000000391C000878
:10510000235B222407000000431C0008245C2325A5
:1051100007000000651C0008255D2426070000002C
:105120006F1C0008265E252707000000791C000878
:10513000275F262807000000831C00082860272915
:10514000070000008D1C00082961282207000000CC
:10515000971C00082A622D2B08000000A11C0008E3
:105160002B632A2C08000000AB1C00082C642B2D9C
:1051700008000000B51C00082D652C2A080000005E
:10518000BF1C00082E662F2F09000000C91C000854
:105190002F672E2E09000000D31C0008303031315B
:1051A0000A000000DD1C0008313130300A00000028
:1051B000E71C0008323232320B000000F11C0008FC
:1051C000333333330C000000F31C00083434343420
:1051D0000D0000003D1D0008353535350E0000007E
:1051E000871D0008363637370F000000891D00087C
:1051F000373736360F000000931D0008383938382D
:10520000160000009D1D0008393A393916000000CB
:10521000F71D00083A3B3A3A16000000511E0008FC
:105220003B383B3B16000000AB1E00083C3D3C3CBD
:1052300017000000051F00083D3E3D3D170000001F
:105240005F1F00083E3F3E3E17000000B91F0008E8
:105250003F3C3F3F17000000132000084041404002
:10526000180000006D200008414241411800000074
:10527000C720000842434242180000003B210008BA
:10528000434043431800000095210008444544442E
:1052900019000000EF2100084546454519000000AF
:1052A000492200084647464619000000A32200088C
:1052B0004744474719000000FD2200084849484874
:1052C0001A00000057230008494A49491A00000003
:1052D000B12300084A4B4A4A1A0000000B24000878
:1052E0004B484B4B1A000000652400084C4D4C4CB9
:1052F0001B000000BF2400084D4E4D4D1B00000058
:105300002F2500084E4F4E4E1B0000008925000837
:105310004F4C4F4F1B000000E325000850515050E8
:105320001C0000003D260008515251511C00000095
:1053300097260008525352521C000000F126000824
:10534000535053531C0000004B270008545554542D
:105350001D000000A5270008555655551D000000EA
:10536000FF270008565756561D0000005928000810
:10537000575457571D000000B32800085858585874
:105380001E0000001F290008595959591F0000002C
:10539000692900085A5A5A5A22000000B9290008FF
:1053A0005B5B5B5B23000000092A00085C5C5C5CC3
:1053B000240000005B2A00085D5D5D5D25000000A3
:1053C000A52A00085E5E5E5E26000000F72A00083F
:1053D0005F5F5F5F27000000492B0008606060602E
:1053E00028000000932B0008616161612900000022
:1053F000DD2B0008626262622A000000272C000890
:10540000636363632B000000772C000864646464AA
:105410002C000000012D0008656565652D00000069
:10542000512D0008666666662E000000A12D00085A
:10543000676767672F000000EB2D000868686868E1
:1054400036000000891800086969696937000000A2
:10545000891800086A6A6A6A6A00000089180008E8
:105460008054000800000020B0000000484C0008F4
:1054700030550008B000002030040000584C0008EF
:10548000000000000000000000000000000000001C
:10549000000000000000000000000000000000000C
:1054A000000000000000001410011F0E0C1E070079
:1054B00000000000000000000000000000000000EC
:1054C00000000000000000000000000100000000DB
:1054D00001000000000100000000010000000001C8
:1054E00000000000010000000001000000000100B9
:1054F000010100010006030100000B000000020092
:105500000000000000010203040102030406070872
:10551000090204060800000000366E0100000000C9
:105520000000000001020304060708090000000053
:04000005080000ED02
:00000001FF
