:020000040800F2
:10000000A808002001010008B5010008B701000898
:10001000BB010008BF010008C30100080000000088
:10002000000000000000000000000000C9010008FE
:10003000C701000800000000CB010008E301000830
:100040001B0100081B0100081B010008CD0100086E
:100050001B0100081B0100081B0100081B01000810
:100060001B0100081B0100081B0100081B01000800
:100070001B0100081B0100081B0100081B010008F0
:100080001B0100081B0100081B0100081B010008E0
:100090001B0100081B0100081B0100081B010008D0
:1000A0001B0100081B0100081B0100081B010008C0
:1000B0001B0100081B0100081B0100081B010008B0
:1000C0001B0100081B0100081B0100081B010008A0
:1000D0001B0100082F070008830400081B0100080B
:1000E000510700081B0100081B010008DFF80CD0B5
:1000F00006F032FE0048004725010008A80800204D
:100100000648804706480047FEE7FEE7FEE7FEE7B1
:10011000FEE7FEE7FEE7FEE7FEE7FEE7B16B00085D
:10012000ED0000084FF4A06004F0E0FD00F0DCF802
:1001300000F013F900F0A0FA00F0DDFA04F080FA04
:1001400000F038F900F076F900201249087000F04C
:1001500090FB00F0FEFB00F0B1FD00F0F7FF01F0B6
:1001600021FE04F067FC0C4804F0A1FC0B48417828
:100170000BA006F023FE01F0E1FC0848417808A03E
:1001800006F01CFE05E004F0BBF801F05CFE04F094
:100190002CFCF8E77404002088040020A50000204F
:1001A0006D756C7469706C655F6B6579206973201F
:1001B00025782000704700BFFEE700BFFEE700BFC4
:1001C000FEE700BFFEE770477047704710B501209B
:1001D00005F066FB20B1012005F072FB05F034FB51
:1001E00010BD2E480068401C2C4908600846006875
:1001F00064280AD92A480078401C2949087001203F
:100200002849087000202549086027480068401CDC
:100210002549086008460068B0F5C87F02D900206B
:100220002249086022480078401C2149087008468D
:100230000078C72807DD1F480078401C1D4908705A
:1002400000201B4908701C48007860B91B480078E2
:10025000401C1A490870084600780F2806DD012066
:100260001549087002E0002014490870144800780D
:100270006A2811D01248007835280DD0114800683E
:10028000401C1049086008460068B0F5FA6F03D9B1
:10029000002008600A490870704700000400002030
:1002A00008000020010000208C00002088000020B1
:1002B0009000002091000020B6000020B500002032
:1002C0003C0000208000002010B5002807DA0A0753
:1002D000140E344A00F00F031B1FD45403E00A0726
:1002E000130E314A135410BD10B505F06FF80120FC
:1002F00005F0F3F800BF212005F0ADF80028FAD092
:100300004FF48011002005F0EBF8002005F011F902
:10031000002005F017F94FF4806005F01CF901206A
:1003200005F0EAF800BF392005F095F80028FAD06A
:10033000022005F0F0F800BF05F0F6F80828FBD120
:100340000121084605F0B9F90121184804F05BFFC6
:100350000121C80304F057FF10BD10B51448006810
:10036000C821B0FBF1F4B4F1807F01D3012011E08A
:1003700024F07F40401E4FF0E02148610F214FF0F4
:10038000FF30FFF7A1FF00204FF0E0218861072038
:100390000861002008B100BFFEE70021481EFFF7FA
:1003A00093FF10BD18ED00E000E400E00002300013
:1003B000FC00002000B585B00121042005F07DF986
:1003C0000121480405F086F90420ADF8100018203A
:1003D0008DF8130003208DF8120004A9A14804F041
:1003E00043FE0820ADF8100004208DF8130004A986
:1003F0009C4804F039FE4FF4165000900020ADF8F0
:100400000400ADF80600ADF80800ADF80C000C20B3
:10041000ADF80A006946944806F0ADF9012240F2B1
:100420002551914806F03FFA01218F4806F02FFA36
:1004300005B000BD08B526208DF8000001208DF81C
:10044000010000208DF8020001208DF803006846AD
:1004500004F051FC08BD70B504460D46E1B2824877
:1004600006F082FA00BF8048008810F0800FFAD0B2
:10047000204670BD10B5044621467CA006F09EFCC7
:1004800010BD10B540F22551774806F0F1FA012869
:1004900003D12021744806F0E2FA10BD2DE9FC5F7B
:1004A00006460C4615460027B846002001908146B6
:1004B0008246834605F08CF900F5E1406C490090D6
:1004C00004F0ABFB6B496A4801F08CFFAA20FFF7F0
:1004D000D1FF4220FFF7CEFF0120FFF7CBFF012025
:1004E000FFF7C8FF0120FFF7C5FF3046FFF7C2FF47
:1004F000FF20FFF7BFFFA078617840EA0110C7B284
:100500002079E17840EA011000F0FF083846FFF753
:10051000B1FF4046FFF7AEFF102D54D2DFE805F0E3
:1005200053080D12171C21262B30353A3F44494EF3
:1005300001200190FFF79EFF4AE00D200190FFF798
:1005400099FF45E003200190FFF794FF40E00B2066
:100550000190FFF78FFF3BE005200190FFF78AFF36
:1005600036E006200190FFF785FF31E0072001907B
:10057000FFF780FF2CE00C200190FFF77BFF27E0C6
:1005800009200190FFF776FF22E00A200190FFF793
:1005900071FF1DE004200190FFF76CFF18E00820B8
:1005A0000190FFF767FF13E002200190FFF762FF61
:1005B0000EE00E200190FFF75DFF09E00F20019093
:1005C000FFF758FF04E000200190FFF753FF00BF42
:1005D00000BF0020FFF74EFF0020FFF74BFF25482C
:1005E00000790A2190FBF1F000EB400021490979E4
:1005F00001EB400000F0FF0A1E4840790A2190FB01
:10060000F1F000EB40001B49497901EB400000F09C
:10061000FF0B184880790A2190FBF1F000EB4000B5
:100620001449897901EB400000F0FF095046FFF7BB
:1006300021FF5846FFF71EFF4846FFF71BFF06F550
:10064000F771394401EB08020199114451445944AE
:100650004944C8B2FFF70EFF5520FFF70BFFBDE876
:10066000FC9F00000008014000440040256300009A
:10067000880400202700002000B585B0012144F245
:10068000040005F01AF84FF40070ADF810001820BF
:100690008DF8130003208DF8120004A92A4804F0F5
:1006A000E3FC4FF48060ADF8100004208DF81300D7
:1006B00004A9254804F0D8FC4FF4165000900020FF
:1006C000ADF80400ADF80600ADF80800ADF80C0078
:1006D0000C20ADF80A0069461C4806F04CF80122CF
:1006E00040F22551194806F0DEF80121174806F0BE
:1006F000CEF805B000BD08B525208DF8000001201A
:100700008DF801008DF802008DF80300684604F0B2
:10071000F2FA08BD10B5044621460C4806F024F94B
:1007200000BF0A48008810F0800FFAD010BD10B545
:1007300040F22551054806F09BF9012803D12021FC
:10074000024806F08CF910BD000801400038014055
:1007500070B500256C48006810F4004F00D00125EA
:100760004FF08040848C00204FF080418884002D21
:100770004BD0B4F5967F65DD64480078182861DDBC
:10078000634800684008624908600846006820F035
:100790007F400860084600685E4908422FD05C48E8
:1007A00000685D490968884215D15C480078401CA2
:1007B0005A49087008460078FA2801DDFA200870C6
:1007C00053480068564908600120564908700020C7
:1007D0005549086010E00020504908704C480068F6
:1007E0004D4908604A4800684D49086001204D495C
:1007F000087000204C49086000204C490860002027
:1008000043490860414908701CE0152C01DBD22CDB
:1008100007DD00203D4908703D4908603F490870E8
:1008200010E03B480068400039490860552C04DD61
:100830000846006840F00100086034480078401C19
:10084000324908704FF4004004F0A5FB70BD08B5B4
:100850000121042004F031FF4FF40040ADF8000006
:1008600048208DF8030069462748083804F0FCFB4F
:1008700008BD10B586B00024FFF7E9FF0121084646
:1008800004F01BFF0F21002004F002FD4FF4004094
:10089000049000208DF8140010208DF81500012020
:1008A0008DF8160004A804F0FFFA28208DF80C003B
:1008B00000208DF80D008DF80E0001208DF80F003E
:1008C00003A804F018FA0121084604F003FF1848B1
:1008D00000681849B0FBF1F0401E84B24FF6FF707B
:1008E000ADF80400ADF800400020ADF80600ADF80A
:1008F000020069464FF0804005F0C0F801218807EA
:1009000005F018FC06B010BD0808014024000020C6
:100910001C000020F0FFFF00200000202600002027
:100920001000002025000020800000208C00002006
:10093000FC000020A086010005E0022100BF4A1E45
:1009400092B21100FBD10200A0F1010398B2F4D1E0
:10095000704708B50121082004F0AFFE10208DF883
:10096000030003208DF802004FF47870ADF800000A
:100970006946FE4804F078FB48208DF803001020FB
:10098000ADF800006946F94804F06EFB08BD30B5CB
:1009900004460020F6490860054618E00020F549A5
:1009A000086014F0010F04D00120A1F104010860D7
:1009B00002E00020F04908604FF00500FFF7BCFF9F
:1009C0000120EC4908604FEA640405F10105082D97
:1009D000E4D30020E7490860E849C1F8A00130BD30
:1009E00030B504460020E6490860054617E00020BF
:1009F000E049086014F0010F03D00120DE490860CF
:100A000002E00020DC4908604FF00500FFF794FF8A
:100A10000120D84908604FEA640405F10105082D5A
:100A2000E5D30020D3490860D449C1F8A00130BD06
:100A300030B504460020D3490860054617E0002081
:100A4000CC49086014F0010F03D00120CA490860A6
:100A500002E00020C84908604FF00500FFF76CFF76
:100A60000120C44908604FEA640405F10105082D1E
:100A7000E5D30020BF490860C049C1F8A00130BDDE
:100A800010B504460120BA4908604FF00500FFF791
:100A900053FF0020B949C1F894012046FFF777FFC2
:100AA00010BDF8B5FF26002000904220FFF7E8FFB8
:100AB0000120B54908604FF00004CEE000251BE09E
:100AC0000020AC4908601DF804004FEA60000DF8F2
:100AD00004004FF00100A949C1F8A401AA48006828
:100AE00028B11DF8040040F080000DF80400052036
:100AF000FFF722FF681CC5B2082DE1DB0520FFF7D8
:100B00001BFF9DF8000048B99DF8010030B99DF821
:100B1000020018B99DF8030000286ED09DF800006F
:100B2000102818D008DC01280DD002280DD0042888
:100B30000DD0082817D10CE020280ED040280ED068
:100B4000802810D10DE019260EE011260CE00926B0
:100B50000AE0012608E01A2606E0122604E00A262A
:100B600002E0022600E000BF00BF9DF8010010284F
:100B700018D008DC01280DD002280DD004280DD093
:100B8000082817D10CE020280ED040280ED080284D
:100B900010D10DE01B260EE013260CE00B260AE018
:100BA000032608E01C2606E0142604E00C2602E0DA
:100BB000042600E000BF00BF9DF80200102818D0F6
:100BC00008DC01280DD002280DD004280DD00828FB
:100BD00018D10CE020280ED040280FD0802811D149
:100BE0000EE01D260FE015260DE00D260BE0052674
:100BF00009E01E2607E0162605E02CE00E2602E09E
:100C0000062600E000BF00BF9DF80300102818D0A2
:100C100008DC01280DD002280DD004280DD00828AA
:100C200017D10CE020280ED040280ED0802810D1FB
:100C30000DE01F260EE017260CE00F260AE007261F
:100C400008E0202606E0182604E0102602E0082628
:100C500000E000BF00BF601CC4B2042CFFF62EAF42
:100C60000020444908604549C1F810014FF00100D7
:100C70003F4908603046F8BD10B5044601204049A0
:100C800008604FF00500FFF757FE00203B49C1F810
:100C900098012046FFF7A4FE10BD10B504460120C0
:100CA000384908604FF00500FFF746FE0020334941
:100CB000C1F89C012046FFF7BBFE10BD10B54020D7
:100CC000FFF7DEFEC020FFF7DBFE00240AE02F491D
:100CD000085DFFF75CFE2D490831085DFFF757FE00
:100CE000601CC4B2082CF2DB294909788831C8B2EB
:100CF000FFF7C6FE01201E4908604FF04000FFF7D5
:100D0000BBFFC020FFF7B8FF00240BE01F491031E4
:100D1000085DFFF765FE1D491831085DFFF760FEAD
:100D2000601CC4B2082CF1DB194909788831C8B2BB
:100D3000FFF7A2FF0120124908604FF04000FFF7C3
:100D4000ACFFC020FFF7A9FF00240BE00F492031C2
:100D5000085DFFF76DFE0D492831085DFFF768FE5D
:100D6000601CC4B2082CF1DB094913E0000C0140FF
:100D700094812142A4812142A0812142008021420C
:100D8000988121429C81214210812142140100203E
:100D90007600002009788831C8B2FFF77EFF012075
:100DA000DC49086010BD10B53021DB4805F097FF25
:100DB00010BD10B50446FFF7F6FFD848C07BD649F2
:100DC0004870D648005D0870FFF778FF10BD10B579
:100DD0000446FFF7E8FFD148807BCF494870CF48F1
:100DE000005D0870FFF76AFF10BD10B50446FFF7FD
:100DF000DAFF20780A2190FBF1F0C849095CC64867
:100E0000C17220780A2190FBF1F201FB1200C34964
:100E1000095CC148817260780A2190FBF1F0BF49FA
:100E2000095CBD48417260780A2190FBF1F201FB38
:100E30001200BA49085CB8490872A0780A2190FBF0
:100E4000F1F0B649085CB449C871A0780A2190FB5A
:100E5000F1F201FB1200B149085CAF498871E078FA
:100E60000A2190FBF1F0AD49085CAB494871E0788C
:100E70000A2190FBF1F201FB1200A849085CA64987
:100E8000087120790A2190FBF1F0A449085CA2497D
:100E9000C87020790A2190FBF1F201FB12009F49F2
:100EA000085C9D49887060790A2190FBF1F09B49AC
:100EB000085C9949487060790A2190FBF1F201FBC6
:100EC00012009649085C94490870E07920B993486B
:100ED000C1799148017304E0E0799049095C8E483A
:100EE0000173FFF7EBFE10BD10B58D48007848B9CF
:100EF0000020894948700870FFF7E0FE012088490A
:100F0000087005E08748FFF770FF002084490870EB
:100F100010BD10B58448007848B900207E49C870DB
:100F20008870FFF7CBFE01207F49087005E07D48FF
:100F3000FFF75BFF00207C49087010BD10B57B48AF
:100F4000007848B90020744948710871FFF7B6FE6F
:100F500001207649087005E07248FFF746FF00203F
:100F60007249087010BD10B57148007848B900206A
:100F70006949C8718871FFF7A1FE01206C490870AA
:100F800005E06848FFF731FF00206949087010BD8F
:100F900010B56848007858B900215F4841720020B8
:100FA0005D490872FFF78AFE01206249087005E07A
:100FB0005C48FFF71AFF00205E49087010BD10B5AD
:100FC0005D48007840B9002153480173FFF776FE71
:100FD00001205949087005E05248FFF706FF00203C
:100FE0005549087010BD10B50446FFF7DCFE2078A7
:100FF0004A49085C4849C87060784849085C4649D5
:101000008870A0784549085C43494870E0784349B6
:10101000085C41490870FFF751FE10BD10B5044649
:10102000FFF7C1FE0A2094FBF0F03C49085C3A4906
:1010300048700A2094FBF0F100FB11403749085C2E
:1010400035490870FFF73AFE10BD10B50446FFF7AA
:10105000AAFE0A2094FBF0F100FB11402F49085C26
:101060002D490870FFF72AFE10BD10B5044633481D
:10107000007840B9002028490870FFF71FFE0120C2
:101080002E49087005E02046FFF7ADFF00202B49F0
:10109000087010BD10B504462948007840B90020FA
:1010A0001D494870FFF70AFE01202549087005E038
:1010B0002046FFF798FF00202149087010BD10B5A9
:1010C00004462048007840B9002013498870FFF793
:1010D000F5FD01201B49087005E02046FFF783FF5E
:1010E00000201849087010BD10B504461648007855
:1010F00040B900200849C870FFF7E0FD01201249FF
:10110000087005E02046FFF76EFF00200E490870CA
:1011100010BD00009C81214214010020BC70000819
:101120002F00002027000020300000203100002088
:101130003200002033000020340000203500002061
:1011400036000020370000203800002008B50121BB
:10115000082004F0B2FA14208DF8030003208DF863
:1011600002008002ADF800006946FE4803F07CFFF3
:1011700010208DF803000002ADF800006946F94820
:1011800003F072FF0120F8490860F849C1F8AC018A
:101190004FF00000F649086008BD06E0072100BFD7
:1011A0000A00A1F10103D9B2FAD10200A0F10103B2
:1011B00098B2F3D1704710B50120EE4908604FF0A6
:1011C0000500FFF7EAFF0120E849C1F8A801052062
:1011D000FFF7E3FF0020E74908604FF00500FFF745
:1011E000DCFF0020E149C1F8A8010520FFF7D5FF89
:1011F00010BD70B5044600251FE014F0800F03D029
:101200000120DC49086002E00020DA4908604FF064
:101210000200FFF7C2FF0120D54908604FF002002D
:10122000FFF7BBFF6006040E0020D049C1F8A801FB
:101230000220FFF7B2FF681CC5B2082DDDDB0120DC
:10124000CC4908604FF00200FFF7A7FF0120C74913
:10125000C1F8A8010220FFF7A0FFC748006808B145
:10126000012070BD0020C24908604FF00200FFF766
:1012700094FF0020BD49C1F8AC010220FFF78DFFAB
:101280000020EEE770B500240120BA4908604FF055
:10129000000517E06006040E0120B54908604FF014
:1012A0000200FFF77AFFB148D0F82C0108B144F0F2
:1012B00001040020AE4908604FF00200FFF76DFF07
:1012C000681CC5B2082DE5DB204670BD10B50020B6
:1012D000A74908604FF00500FFF75FFF0020A34912
:1012E000C1F8AC010520FFF758FF0120A0490860B4
:1012F0004FF00500FFF751FF01209C49C1F8AC01F8
:101300000520FFF74AFF10BD2DE9F04106460C46C7
:1013100017460125FFF74FFFA020FFF76AFF05469C
:1013200015B10120BDE8F081C6F30420FFF761FF8D
:1013300005460DB10120F5E7F0B2FFF75AFF05466B
:101340000DB10120EEE7FFF736FFA120FFF751FFB7
:1013500005460DB10120E5E71AE0FFF793FF207085
:101360000020844908604FF00500FFF716FF0120B8
:101370007E49C1F8A8010520FFF70FFF00207C4936
:1013800008604FF00500FFF708FF641C781E87B265
:10139000012FE2DCFFF776FF20700120754908601D
:1013A0004FF00500FFF7F9FE01207049C1F8A801D0
:1013B0000520FFF7F2FE00206D4908604FF00500A0
:1013C000FFF7EBFEFFF782FF0020ABE72DE9F047C8
:1013D0008046894616460125002063490860044678
:1013E00034E008EB040087B2FFF7E5FEA020FFF72A
:1013F00000FF054615B10120BDE8F087C7F30420C2
:10140000FFF7F7FE05460DB10120F5E7F8B2FFF74B
:10141000F0FE05460DB10120EEE74FF0000A0DE0A9
:1014200019F80400FFF7E5FE05460DB10120E3E7DA
:10143000601C84B20AF1010000F0FF0AB245EFDB44
:10144000FFF744FF4FF4FA60FFF7A7FEB442C8DB92
:101450000120454908604FF00000CDE72DE9FC412F
:1014600004460026202500272AE00822694628464F
:10147000FFF74AFF019810F07F4F1AD13F480078DC
:10148000022806D13E490198084001906068084052
:1014900060600198616888420DD13A480099016006
:1014A0000020384908717A2003F0EAF80120BDE8ED
:1014B000FC8106B92E4605F1080085B2781C87B27A
:1014C000B7F5007FD1DB082221463046FFF77EFFCB
:1014D0001EB1792003F0D4F804E07A2003F0D0F8AC
:1014E0000120E4E70020E2E72DE9FC410446002664
:1014F0004FF4A15500272AE0082269462846FFF745
:1015000003FF019810F07F4F1AD11C480078022881
:1015100006D11B490198084001906068084060604E
:101520000198616888420DD1174800990160002038
:10153000154908717A2003F0A3F80120BDE8FC8169
:1015400006B92E4605F1080085B2781C87B2202F17
:10155000D2DB082221463046FFF738FFCEB1792092
:1015600014E00000000C0140B081214200802142C3
:10157000A8812142AC8121422C8121427E000020A1
:10158000F0FFFF00480000205200002003F078F830
:1015900004E07A2003F074F80120CFE70020CDE7C3
:1015A0002DE9FC41044600264FF4815500272AE02E
:1015B000082269462846FFF7A7FE019810F07F4FE2
:1015C0001AD1FA480078022806D1F9490198084052
:1015D00001906068084060600198616888420DD1A0
:1015E000F448009901600020F24908717A2003F064
:1015F00047F80120BDE8FC8106B92E4605F1080038
:1016000085B2781C87B2402FD2DB082221463046B3
:10161000FFF7DCFE1EB1792003F032F804E07A20F7
:1016200003F02EF80120E5E70020E3E72DE9FC4177
:10163000044600264FF4915500272AE00822694607
:101640002846FFF761FE019810F07F4F1AD1D74866
:101650000078022806D1D6490198084001906068B8
:10166000084060600198616888420DD1D2480099B5
:1016700001600020D04908717A2003F001F80120B0
:10168000BDE8FC8106B92E4605F1080085B2781C3C
:1016900087B2402FD2DB082221463046FFF796FE64
:1016A0001EB1792002F0ECFF04E07A2002F0E8FF9E
:1016B0000120E5E70020E3E770B58AB00546202663
:1016C0002021684605F00BFBFF222021684605F02B
:1016D000FFFA286880B900240BE006EB441188B2B9
:1016E00020226946FFF772FE6420FFF756FD601C5A
:1016F00084B2802CF1DB22E000241CE0082208A93F
:101700003046FFF701FE099810F07F4F0ED1286890
:10171000089988420AD1FF22082108A805F0D8FAC2
:10172000082208A93046FFF751FE07E006F108003D
:1017300086B2601C84B2B4F5007FDFDB00BF0020FE
:101740000AB070BD70B58AB005464FF4A15620218D
:10175000684605F0C4FAFF222021684605F0B8FA71
:10176000286880B900240BE006EB441188B22022DF
:101770006946FFF72BFE6420FFF70FFD601C84B263
:10178000082CF1DB21E000241CE0082208A93046E7
:10179000FFF7BAFD099810F07F4F0ED1286808991D
:1017A00088420AD1FF22082108A805F091FA0822F0
:1017B00008A93046FFF70AFE06E006F1080086B2E7
:1017C000601C84B2202CE0DB00BF00200AB070BD9A
:1017D00070B58AB005464FF481562021684605F061
:1017E0007EFAFF222021684605F072FA286880B947
:1017F00000240BE006EB441188B220226946FFF773
:10180000E5FD6420FFF7C9FC601C84B2102CF1DBFD
:1018100021E000241CE0082208A93046FFF774FDEF
:10182000099810F07F4F0ED12868089988420AD194
:10183000FF22082108A805F04BFA082208A9304623
:10184000FFF7C4FD06E006F1080086B2601C84B212
:10185000402CE0DB00BF00200AB070BD70B58AB03C
:1018600005464FF491562021684605F038FAFF22CC
:101870002021684605F02CFA286880B900240BE086
:1018800006EB441188B220226946FFF79FFD6420D1
:10189000FFF783FC601C84B2102CF1DB21E00024F4
:1018A0001CE0082208A93046FFF72EFD099810F029
:1018B0007F4F0ED12868089988420AD1FF2208215B
:1018C00008A805F005FA082208A93046FFF77EFDB2
:1018D00006E006F1080086B2601C84B2402CE0DB12
:1018E00000BF00200AB070BD10B588B0202233A11F
:1018F000684605F0DBF9002408E0002101EB441103
:1019000088B220226946FFF761FD641CA82CF4D33D
:1019100008B010BD2DE9FC4105460C4620260027E5
:101920001DE0082269463046FFF7EEFC1F480078AC
:10193000022805D11E49019808400190084604403C
:101940000198A04206D1DDE90001C5E900010120AE
:10195000BDE8FC8106F1080086B2781C87B2B7F5B5
:10196000007FDEDB0020F3E72DE9FC4105460C4655
:101970004FF48156002736E0082269463046FFF7CB
:10198000C3FC0A480078022805D10949019808409B
:101990000190084604400198A0421FD1DDE90001F2
:1019A000C5E900010120BDE8FC8100007E000020A7
:1019B000F0FFFF005C00002066000020FFFFFFFF3B
:1019C000FFFFFFFFFFFFFFFFFFFFFFFFFFFFFFFF27
:1019D000FFFFFFFFFFFFFFFFFFFFFFFF06F1080014
:1019E00086B2781C87B2402FC6DB0020BDE8FC81A0
:1019F0002DE9FC4105460C464FF4915600271DE0A9
:101A0000082269463046FFF77FFCD248007802285A
:101A100005D1D14901980840019008460440019839
:101A2000A04206D1DDE90001C5E900010120BDE8C1
:101A3000FC8106F1080086B2781C87B2402FDFDBFC
:101A40000020F4E770B504460D4629462046FFF70E
:101A5000CFFF08B1012070BD29462046FFF784FF63
:101A600008B10220F7E729462046FFF753FF08B1E7
:101A70000320F0E70020EEE72DE9FC4105460C4687
:101A80004FF4A15600271DE0082269463046FFF7B3
:101A90003BFCB0480078022805D1AF4901980840C6
:101AA0000190084604400198A04206D1DDE90001FA
:101AB000C5E900010120BDE8FC8106F1080086B2FD
:101AC000781C87B2202FDFDB0020F4E710B5A34895
:101AD0000078A3490870A34800784870A2480078AD
:101AE0008870A2480078C870A14800780871A148A1
:101AF00000784871A04800788871A0480078C871C3
:101B00009F48007808729F48007848729E48007885
:101B100088729E480078C8729D48007808738D4886
:101B2000007848739B48007888739B480078C87396
:101B300010224FF4AA50FFF749FC10BD10B5102237
:101B400096494FF4A950FFF7DFFB1022944941F268
:101B50003050FFF7D9FB102281494FF4AA50FFF70C
:101B6000D3FB7F4800787D4908707D4840787D49E7
:101B700008707B4880787C4908707948C0787B4938
:101B80000870774800797A49087075484079794932
:101B9000087073488079784908707148C07977492E
:101BA00008706F48007A764908706D48407A754928
:101BB00008706B48807A744908706948C07A734924
:101BC00008706748007B724908706548407B61492E
:101BD00008706348807B6F4908706148C07B6E491C
:101BE00008705F480078022802DD01205B49087018
:101BF0005B484078632802DD01205A490870584844
:101C00008078632802DD0120574908705448C07865
:101C1000632802DD012055490870514800790728E2
:101C200002DD0020524908704D484079092802DD44
:101C30000120504908704A488079012802DD0020BF
:101C40004D4908704648C079092802DD06204B49F5
:101C500008704348007A072802DD032048490870CD
:101C60003F48407A012802DD0020464908703C4880
:101C7000807A012802DD0020434908703848C07A84
:101C8000012802DD0020414908703548007B0B28FF
:101C900002DD0B203E4908703148407B022802DDFE
:101CA00002202C4908702E48807B012802DD01208B
:101CB000384908702A48C07B022802DD01203649D5
:101CC000087010BD012025490870264908700020C1
:101CD00025490870254908702549087001202549C3
:101CE0000870002024490870062024490870032049
:101CF00023490870012023490870002022490870F8
:101D0000224908700B2022490870022011490870EE
:101D1000704710B501221021204804F0D9FF01209E
:101D20001F49087000204870032088700520C87083
:101D3000022008710120487188710620C8710120B5
:101D4000087248728872C872087348738873C873BF
:101D500010BD00007E000020F0FFFF00700000209A
:101D600044010020710000204400002045000020B4
:101D70007200002073000020740000207500002015
:101D800076000020770000207800002079000020F5
:101D90007A00002047000020460000209500002027
:101DA000A500002008B50121042003F086FC3320A3
:101DB000ADF8000048208DF803006946FA4803F0AA
:101DC00053F908BD06E00C2100BF0A00A1F1010390
:101DD000D9B2FAD10200A0F1010398B2F3D1704751
:101DE00010B5FF24F148006840B1F148006828B1FF
:101DF000F048006810B1F048006810BB42F2107063
:101E0000FFF7E0FFE948006840B1E948006828B101
:101E1000E848006810B1E848006890B90020E74938
:101E20000860E248006800B90124E148006800B990
:101E30000224E048006800B90324DF48006800B9C4
:101E40000424204610BD10B50020DD490870FFF7BE
:101E5000C7FFDC49087008460078FF284AD1DA48F5
:101E60000078012846D1D94800781E2813DDD848CB
:101E7000007801280FD10020D34908700320D049F1
:101E800008700120D1490870D2490870D249087001
:101E9000CC4908702EE0CD48007838BB0020CA49F4
:101EA0000870CB480078012806D0022810D00428FA
:101EB00012D0082818D113E0C7480078012803D1B0
:101EC0000020C549087002E00120BE4908700CE0FE
:101ED0000220BC49087008E00320BA49087004E0F9
:101EE0000420B849087000E000BF03E0B94800785A
:101EF000B6490870B3480078002870D0B14800781F
:101F0000012806D002286BD003286AD0042869D1A2
:101F100095E1AAE0AA4800780228FADDAF480078E7
:101F20004D2848D016DC312866D00BDC0D2832D085
:101F300003DC40B30C287DD129E00F282FD03028B6
:101F40007ED162E0483805287AD2DFE800F02C2DF7
:101F50002E2F3300532837D008DCA0F14E0005287F
:101F60006ED2DFE800F0292A2E2F3000562831D01B
:101F700004DC54282CD0552862D12AE057282AD0D6
:101F80006A285DD12FE002209449087059E033207F
:101F90009249087055E034209049087051E036208D
:101FA0008E4908704DE000BF00BF00BF8C48FFF7AE
:101FB00083FB46E000BF00BF00BF8A48FFF7C2FBBB
:101FC0003FE000BF00BF00BF8748FFF701FC38E0DB
:101FD00000BF00BF00BF8548FFF740FC31E06CE167
:101FE000C4E00FE14BE102207C4908704FF44871D6
:101FF0007F4804F074FE24E0FFF764FEFFF766FDFF
:10200000012000F05CF900F05FF9FFF75BFEFFF7DD
:1020100080FEFFF75BFD102276494FF4A950FFF7D1
:10202000D5F91022744941F23050FFF7CFF9FFF78C
:102030005BFC00E004E0012000F041F900F044F90D
:1020400000BF00BF6548007800EB40006B4901EB22
:10205000800080686A49086008460068804700BFC1
:10206000524800680028FBD010BD5048006818B1E5
:102070005348007802285CDD5848007800283FF477
:1020800049AF564800780C28F9D0544800780D28FC
:10209000F5D0524800784828F1D0504800784928B7
:1020A000EDD04E4800784A28E9D04C4800784B28BB
:1020B000E5D04A4800784C28E1D0484800784D28BF
:1020C000DDD0464800784E28D9D0444800784F28C3
:1020D000D5D0424800785028D1D0404800785128C7
:1020E000CDD03E4800785228C9D03C4800785328CB
:1020F000C5D03A4800785428C1D0384800785528CF
:10210000BDD0364800785628B9D0344800785728D2
:10211000B5D0324800783028B1D030480078312826
:10212000ADD02E4800786A28A9D02C4800780F2816
:10213000A5D02A48007800EB4000304901EB800030
:102140004078264908700846007800EB40002B498B
:1021500001EB800080682A490860084600688047D3
:1021600000BF124800680028FBD0A5E01B4800789B
:1021700000EB4000214901EB80008078174908708E
:102180000846007800EB40001C4901EB80008068A5
:102190001B49086008460068804700BF0448006883
:1021A0000028FBD088E00000000801400001214227
:1021B000040121421001214214012142800000202B
:1021C000080000203D000020920000209400002024
:1021D00093000020260000203E0000203C0000204C
:1021E0004D00002057000020610000206B000020FF
:1021F0005401002095000020A5000020F070000888
:10220000400000203748007800EB4000364901EBE1
:102210008000C078334908700846007800EB400021
:10222000314901EB80008068304908600846006849
:10223000804700BF2E4800680028FBD03CE000200B
:102240002C4908702748007800EB4000264901EB34
:1022500080000079234908700846007800EB4000B0
:10226000214901EB80008068204908600846006829
:10227000804700BF204800680028FBD01CE01F48B2
:102280000078012817D100201C49087015480078F3
:1022900000EB4000144901EB80008068134908609E
:1022A0000846006880470F4800786A2803D102F08A
:1022B0005EF902F081F900BF00BF00BFD4E600F074
:1022C000010181F3138870470D48006800F4E06055
:1022D0000C490843001D0A490860BFF3408F00BF46
:1022E000FEE700003C000020F070000840000020E5
:1022F000100121422500002014012142010000208C
:102300000CED00E00000FA05C178092923D181789D
:1023100009291AD14178092910D10178491C017085
:102320000021417081700178152904D100210170CC
:102330000121C17012E00121C1700FE04178491CF8
:10234000417000218170C17008E08178491C817062
:102350000021C17002E0C178491CC170704710B5FE
:102360000446FB480078012807D1FA480078012884
:1023700003D1204602F084F922E0F54800780228D3
:1023800007D1F4480078012803D1204602F078F9FB
:1023900016E0EF480078032807D1EE4800780128BE
:1023A00003D1204602F06CF90AE0E94800780428DD
:1023B00006D1E8480078012802D1204602F060F9F1
:1023C00010BD427802F5FA624A6182780A61C278E9
:1023D000CA6002798A6042794A6082790A60C27969
:1023E0008A617047027DA2F5FA624A70027C8A70A7
:1023F000027BCA70027A0A7102794A7102788A7184
:10240000027ECA71704770B5044603F01DFA21467A
:10241000D148FFF7D6FF204602F0C1FB054603F086
:10242000E0F903F011FA70BD10B5CC48007810BB8C
:10243000CB48007880B9FEF7B6FC4020C94909783E
:1024400001F00301C84A5054FEF738FCC548007833
:10245000401CC44908700EE003F0BAF900F5E144ED
:10246000C249204602F0D9FBBB49C048FFF7BAFF7A
:10247000B948FEF7BAFCB6480078032802D102F04A
:1024800058F80CE0B2480078022802D102F03EF879
:1024900005E0AF480078042801D102F030F810BD03
:1024A00010B50020FEF785FC03F092F900F5E14439
:1024B000AE49204602F0B1FBA749AC48FFF792FFB6
:1024C00010BD10B50120FEF774FC6F20FFF747FF29
:1024D00010BD10B50220FEF76CFC7020FFF73FFF27
:1024E00010BD10B50320FEF764FC7120FFF737FF25
:1024F00010BD10B50420FEF75CFC7220FFF72FFF23
:1025000010BD10B50520FEF754FC7320FFF727FF20
:1025100010BD10B50620FEF74CFC7420FFF71FFF1E
:1025200010BD10B50720FEF744FC7520FFF717FF1C
:1025300010BD10B50820FEF73CFC7620FFF70FFF1A
:1025400010BD10B50920FEF734FC7720FFF707FF18
:1025500010BD10B50A20FEF72CFC10BD10B50B20E5
:10256000FEF727FC10BD10B50C20FEF722FC10BDB5
:1025700010B50D20FEF71DFC10BD10B50E20FEF7A6
:1025800018FC10BD10B5FEF7AFFC714800780328A9
:1025900013D1714840793B2803D100206E4948711E
:1025A00004E06D484079401C6B4948716F48FFF763
:1025B0002AFF6948FEF719FC15E0654800780228F3
:1025C00011D16548407918B93B206349487104E04E
:1025D00061484079401E604948716448FFF713FF25
:1025E0005D48FEF702FC10BD10B5FEF792FC58489E
:1025F0000078032813D158480079172803D1002008
:102600005549087104E054480079401C524908714A
:102610005648FFF7F8FE5048FEF7E7FB15E04C4838
:102620000078022811D14C48007918B917204A497E
:10263000087104E048480079401E474908714B483A
:10264000FFF7E1FE4448FEF7D0FB10BD10B5FEF7E2
:1026500075FC3F480078032813D13F48C0781F28F5
:1026600003D101203C49C87004E03B48C078401CBD
:102670003949C8703D48FFF7C6FE3748FEF7B5FB3D
:1026800016E033480078022812D13348C078012878
:1026900003D11F203049C87004E02F48C078401E85
:1026A0002D49C8703148FFF7AEFE2B48FEF79DFB61
:1026B00010BD10B5FEF757FC25480078032813D14C
:1026C000254880780C2803D101202349887004E034
:1026D00021488078401C204988702448FFF793FEE9
:1026E0001D48FEF782FB16E019480078022812D137
:1026F00019488078012803D10C201749887004E01C
:1027000015488078401E144988701848FFF77BFEF2
:102710001148FEF76AFB10BD10B5FEF739FC0C48F6
:102720000078032824D10C484078632803D1002086
:102730000949487004E008484078401C0649487040
:102740000A48FFF760FE0448FEF74FFB26E0000052
:102750003D000020770000202700002054010020C9
:10276000460000208500002014010020880400207D
:10277000F8480078022811D1F748407818B963204A
:10278000F549487004E0F4484078401EF24948702A
:10279000F248FFF738FEF048FEF727FB10BD10B5F2
:1027A000FEF70DFC10BD10B50120FEF710FB10BDAB
:1027B00010B50220FEF70BFB10BD10B50320FEF78D
:1027C00006FB10BD10B50420FEF701FB10BD10B5CF
:1027D0000120FEF7FCFA10BD10B50220FEF7F7FA53
:1027E00010BD10B50320FEF7F2FA10BD10B504209D
:1027F000FEF7EDFA10BD10B50120FEF7E8FA10BDA6
:1028000010B50220FEF7E3FA10BD10B5D1480078EC
:1028100003280FD1D2480078632803D10020D04983
:10282000087004E0CE480078401CCD490870FFF7DE
:102830004DF911E0C748007802280DD1C84800784A
:1028400018B96320C649087004E0C5480078401EE6
:10285000C3490870FFF73AF9C1480078FEF7DEFB7C
:1028600010BD10B5BB48007803280FD1BD480078D3
:10287000632803D10020BB49087004E0B948007800
:10288000401CB8490870FFF721F911E0B148007801
:1028900002280DD1B348007818B96320B1490870F7
:1028A00004E0B0480078401EAE490870FFF70EF90A
:1028B000AC480078FEF7B2FB10BD10B50120FEF762
:1028C00086FA10BD10B50220FEF781FA10BD10B5D2
:1028D0000320FEF77CFA10BD10B50420FEF777FA4E
:1028E00010BD10B50520FEF772FA10BD10B5062018
:1028F000FEF76DFA10BD10B50720FEF768FA10BD9F
:1029000010B50820FEF763FA10BD10B50120FEF7E0
:102910005EFA10BD10B50220FEF759FA10BD10B5D1
:102920000320FEF754FA10BD10B50420FEF74FFA4D
:1029300010BD10B50120FEF74AFA8B4800788B498C
:10294000087010BD10B50220FEF741FA002088493A
:10295000087010BD10B50120FEF739FA10BD10B592
:102960000220FEF734FA10BD704710B579480078A0
:1029700003280DD17F480078012803D100207D492C
:10298000087002E001207B490870FFF79FF810E013
:102990007048007802280CD176480078012803D1CD
:1029A00000207449087002E0012072490870FFF7A6
:1029B0008DF870480078FEF748FB10BD10B56548EB
:1029C000007803280DD16C480078012803D100203D
:1029D0006949087002E0012067490870FFF776F83E
:1029E00010E05C48007802280CD163480078012888
:1029F00003D100206049087002E001205E490870A0
:102A0000FFF764F85C480078FEF71FFB10BD7047C5
:102A100010B50120FEF7DBF910BD10B50220FEF75E
:102A2000D6F910BD10B55548FEF71FFB4948007890
:102A3000032810D15148C078092803D100204F49FC
:102A4000C87004E04D48C078401C4C49C8704B48E1
:102A5000FEF7C9FA12E03F48007802280ED1474835
:102A6000C07818B909204549C87004E04348C078C7
:102A7000401E4249C8704148FEF7B5FA10BD10B576
:102A80003E48FEF707FB33480078032810D13B4847
:102A90008078092803D100203849887004E037483D
:102AA0008078401C354988703448FEF79CFA12E063
:102AB0002848007802280ED13048807818B90920BB
:102AC0002E49887004E02D488078401E2B4988707C
:102AD0002A48FEF788FA10BD10B52848FEF7EFFA2D
:102AE0001C480078032810D124484078092803D1D5
:102AF00000202249487004E020484078401C1F49CB
:102B000048701E48FEF76FFA12E01248007802285B
:102B10000ED11A48407818B909201849487004E0C5
:102B200016484078401E154948701448FEF75BFA75
:102B300010BD10B51148FEF7D7FA064800780328F3
:102B400027D10E48007809281AD100200B490870B7
:102B50001BE000003D00002027000020880400202A
:102B600044000020450000207E000020840000205A
:102B70007F00002047000020460000204800002081
:102B8000F7480078401CF6490870F548FEF72BFA24
:102B900012E0F448007802280ED1F148007818B904
:102BA0000920EF49087004E0ED480078401EEC4928
:102BB0000870EB48FEF717FA10BD10B5EA48FEF7AB
:102BC00054FAE8480078032810D1E748C07809286B
:102BD00003D10020E449C87004E0E348C078401CF9
:102BE000E149C870E048FEF7FEF912E0DD480078E0
:102BF00002280ED1DC48C07818B90920DA49C8701B
:102C000004E0D948C078401ED749C870D648FEF7BE
:102C1000EAF910BD10B5D448FEF73CFAD148007867
:102C2000032810D1D0488078092803D10020CE494C
:102C3000887004E0CC488078401CCB498870CA4832
:102C4000FEF7D1F912E0C748007802280ED1C64835
:102C5000807818B90920C449887004E0C248807897
:102C6000401EC1498870C048FEF7BDF910BD10B5BF
:102C7000BD48FEF724FABB480078032810D1BA48B3
:102C80004078092803D10020B749487004E0B648CD
:102C90004078401CB4494870B348FEF7A4F912E0EC
:102CA000B048007802280ED1AF48407818B9092002
:102CB000AD49487004E0AC484078401EAA494870CD
:102CC000A948FEF790F910BD10B5A748FEF70CFA19
:102CD000A4480078032810D1A3480078092803D11C
:102CE0000020A149087004E09F480078401C9E49DC
:102CF00008709D48FEF777F912E09A48007802289C
:102D00000ED19948007818B909209749087004E055
:102D100095480078401E944908709348FEF763F97F
:102D200010BD10B59148FEF7A0F98E480078032831
:102D300010D18E48C078092803D100208B49C87073
:102D400004E08A48C078401C8849C8708748FEF76C
:102D50004AF912E08348007802280ED18348C078EF
:102D600018B909208149C87004E08048C078401E25
:102D70007E49C8707D48FEF736F910BD10B57B4816
:102D8000FEF788F977480078032810D177488078D3
:102D9000092803D100207549887004E073488078C1
:102DA000401C724988707148FEF71DF912E06D48A9
:102DB000007802280ED16D48807818B909206B4937
:102DC000887004E069488078401E684988706748C8
:102DD000FEF709F910BD10B56448FEF770F96148B7
:102DE0000078032810D161484078092803D10020D9
:102DF0005E49487004E05D484078401C5B4948707B
:102E00005A48FEF7F0F812E05648007802280ED132
:102E10005648407818B909205449487004E053488E
:102E20004078401E514948705048FEF7DCF810BD0C
:102E300010B54E48FEF758F94A480078032810D1DB
:102E40004A480078092803D100204849087004E066
:102E500046480078401C454908704448FEF7C3F8CE
:102E600012E04048007802280ED14048007818B996
:102E700009203E49087004E03C480078401E3B4968
:102E800008703A48FEF7AFF810BD10B53848FEF7A5
:102E9000ECF834480078032810D13548C078092868
:102EA00003D100203249C87004E03148C078401C8A
:102EB0002F49C8702E48FEF796F812E0294800788E
:102EC00002280ED12A48C07818B909202849C870AC
:102ED00004E02748C078401E2549C8702448FEF702
:102EE00082F810BD10B52248FEF7D4F81D480078CE
:102EF000032810D11E488078092803D100201C49DE
:102F0000887004E01A488078401C19498870184875
:102F1000FEF769F812E01348007802280ED1144831
:102F2000807818B909201249887004E01048807828
:102F3000401E0F4988700E48FEF755F810BD10B5B9
:102F40000B48FEF7BCF80748007803281BD1084857
:102F5000407809280ED10020054948700FE0000094
:102F6000480000203D000020520000205C000020AE
:102F700066000020F7484078401CF6494870F54844
:102F8000FEF731F812E0F448007802280ED1F1483B
:102F9000407818B90920EF49487004E0ED484078BE
:102FA000401EEC494870EB48FEF71DF810BD10B507
:102FB000E848FEF799F8E8480078032810D1E5487A
:102FC0000078092803D10020E249087004E0E148B4
:102FD0000078401CDF490870DE48FEF704F812E074
:102FE000DD48007802280ED1DA48007818B90920A7
:102FF000D849087004E0D7480078401ED5490870C9
:10300000D448FDF7F0FF10BD10B5D448FEF72DF8F9
:10301000D1480078032810D1D048C078092803D1BE
:103020000020CE49C87004E0CC48C078401CCB4991
:10303000C870CA48FDF7D7FF12E0C74800780228D9
:103040000ED1C648C07818B90920C449C87004E038
:10305000C248C078401EC149C870C048FDF7C3FFD0
:1030600010BD10B5BD48FEF715F8BB480078032821
:1030700010D1BA488078092803D10020B749887058
:1030800004E0B6488078401CB4498870B348FDF726
:10309000AAFF12E0B048007802280ED1AF4880782D
:1030A00018B90920AD49887004E0AC488078401E0A
:1030B000AA498870A948FDF796FF10BD10B5A7482A
:1030C000FDF7FDFFA4480078032810D1A3484078FD
:1030D000092803D10020A149487004E09F484078A6
:1030E000401C9E4948709D48FDF77DFF12E09A48BC
:1030F000007802280ED19948407818B909209749DC
:10310000487004E095484078401E944948709348C0
:10311000FDF769FF10BD10B59048FDF7E5FF8E483B
:103120000078032810D18D480078092803D10020A9
:103130008A49087004E089480078401C8749087073
:103140008648FDF750FF12E08348007802280ED130
:103150008248007818B909208049087004E07F4847
:103160000078401E7D4908707C48FDF73CFF10BD8B
:1031700010B57B48FDF779FF77480078032810D118
:103180007748C078092803D100207549C87004E049
:103190007348C078401C7249C8707148FDF723FF1E
:1031A00012E06D48007802280ED16D48C07818B939
:1031B00009206B49C87004E06948C078401E68491E
:1031C000C8706748FDF70FFF10BD10B56448FDF7E4
:1031D00061FF61480078032810D161488078092890
:1031E00003D100205E49887004E05D488078401C6F
:1031F0005B4988705A48FDF7F6FE12E056480078A1
:1032000002280ED15648807818B909205449887090
:1032100004E053488078401E514988705048FDF7BB
:10322000E2FE10BD10B54E48FDF749FF4A48007850
:10323000032810D14A484078092803D10020484982
:10324000487004E046484078401C4549487044486E
:10325000FDF7C9FE12E04048007802280ED1404830
:10326000407818B909203E49487004E03C4840784D
:10327000401E3B4948703A48FDF7B5FE10BD10B5F9
:103280003748FDF731FF34480078032810D134481F
:103290000078092803D100203149087004E0304843
:1032A0000078401C2E4908702D48FDF79CFE12E066
:1032B0002948007802280ED12948007818B9092039
:1032C0002749087004E026480078401E2449087009
:1032D0002348FDF788FE10BD10B52248FDF7C5FE56
:1032E0001D480078032810D11E48C078092803D152
:1032F00000201C49C87004E01A48C078401C1949D5
:10330000C8701848FDF76FFE12E0134800780228D5
:103310000ED11448C07818B909201249C87004E0C9
:103320001048C078401E0F49C8700E48FDF75BFE7C
:1033300010BD10B50B48FDF7ADFE07480078032817
:103340001BD10848807809280ED1002005498870D3
:103350000FE00000660000203D0000204D0000202E
:103360005700002061000020FB488078401CFA498B
:103370008870F948FDF737FE12E0F8480078022817
:103380000ED1F548807818B90920F349887004E017
:10339000F1488078401EF0498870EF48FDF723FE21
:1033A00010BD10B5EC48FDF78AFEEC480078032804
:1033B00010D1E9484078092803D10020E649487037
:1033C00004E0E5484078401CE3494870E248FDF7D6
:1033D0000AFE12E0E148007802280ED1DE4840786B
:1033E00018B90920DC49487004E0DB484078401EE9
:1033F000D9494870D848FDF7F6FD10BD10B5D6483C
:10340000FDF772FED5480078032810D1D248007825
:10341000092803D10020D049087004E0CE48007884
:10342000401CCD490870CC48FDF7DDFD12E0CB48CB
:10343000007802280ED1C848007818B90920C6497A
:10344000087004E0C4480078401EC3490870C248B0
:10345000FDF7C9FD10BD10B5C148FDF706FEBF4818
:103460000078032810D1BE48C078092803D1002075
:10347000BB49C87004E0BA48C078401CB849C8705D
:10348000B748FDF7B0FD12E0B448007802280ED12D
:10349000B348C07818B90920B149C87004E0B048F1
:1034A000C078401EAE49C870AD48FDF79CFD10BD08
:1034B00010B5AB48FDF7EEFDA8480078032810D101
:1034C000A7488078092803D10020A549887004E026
:1034D000A3488078401CA2498870A148FDF783FD6D
:1034E00012E09E48007802280ED19D48807818B9D5
:1034F00009209B49887004E099488078401E9849CB
:1035000088709748FDF76FFD10BD10B59448FDF722
:10351000D6FD92480078032810D1914840780928B8
:1035200003D100208E49487004E08D484078401C4B
:103530008B4948708A48FDF756FD12E087480078AD
:1035400002280ED18648407818B90920844948706D
:1035500004E083484078401E814948708048FDF768
:1035600042FD10BD10B57E48FDF7BEFD7B480078DA
:10357000032810D17A480078092803D1002078491F
:10358000087004E076480078401C7549087074485B
:10359000FDF729FD12E07148007802280ED170482D
:1035A000007818B909206E49087004E06C4800786A
:1035B000401E6B4908706A48FDF715FD10BD10B537
:1035C0006648007803280DD166480078012803D1A9
:1035D00002206449087002E0012062490870FEF789
:1035E00075FA10E05D48007802280CD15D4800783B
:1035F000012803D102205B49087002E001205949EB
:103600000870FEF763FA57480078FDF71EFD10BDFD
:1036100010B55248007803280FD15348007863282A
:1036200003D100205049087004E04F480078401C46
:103630004D490870FEF74AFA11E048480078022820
:103640000DD14948007818B963204749087004E053
:1036500045480078401E44490870FEF737FA424852
:103660000078FDF7DBFC10BD10B53C48007803285E
:103670000FD13E480078072803D100203B4908704D
:1036800004E03A480078401C38490870FEF71EFAFA
:1036900011E03248007802280DD13448007818B97A
:1036A00007203249087004E030480078401E2F4956
:1036B0000870FEF70BFA2D480078FDF7C6FC10BD28
:1036C00010B52648007803280FD12948007809282A
:1036D00003D101202649087004E025480078401CE9
:1036E00023490870FEF7F2F912E01C48007802281E
:1036F0000ED11F480078012803D109201C49087009
:1037000004E01B480078401E19490870FEF7DEF9F6
:1037100017480078FDF799FC10BD10B50F480078E8
:1037200003280DD113480078012803D10020114946
:10373000087002E001200F490870FEF7C7F920E089
:103740000648007802281CD10A480078012813D1C5
:1037500000200849087012E0610000203D000020B0
:103760006B0000207000002071000020720000201B
:1037700073000020740000200120F9490870FEF752
:10378000A5F9F7480078FDF760FC10BD10B5F548C5
:103790000078032816D1F4480078092803D10120C5
:1037A000F149087004E0F0480078401CEE490870C8
:1037B000ED49097801EB4101C8B200F076FFFEF750
:1037C00085F919E0E7480078022815D1E648007825
:1037D000012803D10920E449087004E0E248007898
:1037E000401EE1490870E049097801EB4101C8B287
:1037F00000F05BFFFEF76AF9DB480078FDF725FC77
:1038000010BD10B5D748007803280FD1D7480078ED
:10381000072803D10120D549087004E0D348007877
:10382000401CD2490870FEF751F912E0CD480078EB
:1038300002280ED1CD480078012803D10720CB49BA
:10384000087004E0C9480078401EC8490870FEF7B7
:103850003DF9C6480078FDF7F8FB10BD10B5C1482A
:10386000007803280DD1C2480078012803D1002038
:10387000BF49087002E00120BD490870FEF726F933
:1038800010E0B848007802280CD1B9480078012827
:1038900003D10020B649087002E00120B449087045
:1038A000FEF714F9B2480078FDF7CFFB10BD10B554
:1038B000AC48007803280DD1AE480078012803D128
:1038C0000020AC49087002E00120AA490870FEF708
:1038D000FDF810E0A348007802280CD1A548007834
:1038E000012803D10020A349087002E00120A1496A
:1038F0000870FEF7EBF89F480078FDF7A6FB10BDB7
:1039000010B59848007803280DD19B48007801280D
:1039100003D100209849087002E001209649087000
:10392000FEF7D4F810E08F48007802280CD19248B6
:103930000078012803D100208F49087002E001209F
:103940008D490870FEF7C2F88B480078FDF77DFBC3
:1039500010BD10B58348007803280FD18748007840
:103960000B2803D100208549087004E083480078C3
:10397000401C82490870FEF7A9F811E079480078E8
:1039800002280DD17D48007818B90B207B490870BA
:1039900004E07A480078401E78490870FEF796F8EF
:1039A00076480078FDF73AFB10BD10B56D480078F9
:1039B00003280DD1724800780B2803D100207049EC
:1039C000087015E06E480078401C6D4908700FE0E3
:1039D0006448007802280BD16948007818B90B2098
:1039E0006749087004E066480078401E6449087022
:1039F00063480078FDF712FB10BD10B559480078F8
:103A000003280DD15F4800780B2803D100205D49C1
:103A1000087015E05B480078401C5A4908700FE0B8
:103A20005048007802280BD15648007818B90B206E
:103A30005449087004E053480078401E514908700A
:103A400050480078FDF7EAFA10BD10B545480078F7
:103A500003280DD14C4800780B2803D100204A4997
:103A6000087015E048480078401C474908700FE08E
:103A70003C48007802280BD14348007818B90B2045
:103A80004149087004E040480078401E3E490870F3
:103A90003D480078FDF7C2FA10BD10B531480078F6
:103AA00003280DD139480078012803D10220374975
:103AB000087002E0012035490870FEF707F810E0B1
:103AC0002848007802280CD130480078012803D11A
:103AD00002202E49087002E001202C490870FDF7F1
:103AE000F5FF2A480078FDF7B0FA29480078274901
:103AF0000978884205D02548007825490870FDF7E7
:103B0000F3FE10BD10B51748007803280DD12148E9
:103B10000078262803D100201E49087015E01D48B2
:103B20000078401C1B4908700FE00E4800780228FE
:103B30000BD11848007818B926201649087004E0FF
:103B400014480078401E1349087012490978423120
:103B5000C8B2FEF704FC0F480078FDF75FFA10BD0D
:103B6000740000203D000020750000207600002039
:103B70007800002077000020790000207A000020E3
:103B80007B0000207C0000207D0000207E000020C3
:103B9000840000207F00002010B50D480078032825
:103BA00002D100F0C6FC0CE009480078022802D1DE
:103BB00000F0ACFC05E006480078042801D100F0D4
:103BC0009EFC0448007810B900200349087010BD1D
:103BD0003D000020540100203C0000204A78FB4BAF
:103BE0009A5CA0F10300C2708A789A5C8270CA78ED
:103BF0009A5C42700A799A5C00F8032BCA7902F049
:103C00000F02A2F10202072A42D2DFE802F00410FA
:103C1000234141333A0010F8032D42F08002027034
:103C2000427842F08002427000F1030031E010F867
:103C3000032D42F080020270427842F0800242700E
:103C4000827842F080028270C27842F0800200F8EE
:103C5000032F1EE010F8032D42F08002027042781C
:103C600042F080024270827842F08002827000F15D
:103C700003000EE010F8022C42F0800200F8022C43
:103C800007E010F8032C42F0800200F8032C00E05B
:103C900000BF00BF704710B5FDF785F8CC4890F81D
:103CA000580020B1CA495831CA48FFF797FFC848A1
:103CB00090F8500028B1C6495031C648001FFFF7A0
:103CC0008DFFC34890F8480028B1C1494831C14828
:103CD0000838FFF783FFBE4890F8400028B1BC4980
:103CE0004031BC480C38FFF779FFB94890F83800EC
:103CF00028B1B7493831B7481038FFF76FFFB448DB
:103D000090F8300028B1B2493031B2481438FFF78A
:103D100065FFAF4890F8280028B1AD492831AD487B
:103D20001838FFF75BFFAA4890F8200028B1A8498F
:103D30002031A8481C38FFF751FFA548007E28B164
:103D4000A3491831A3482038FFF748FFA048007C5A
:103D500028B19F4910319F482438FFF73FFF9C4806
:103D6000007A28B19A4908319A482838FFF736FF77
:103D70009748007820B1964996482C38FFF72EFFD7
:103D8000FCF79CFF10BD81680160C168416070470D
:103D9000024691480378002106E012F8310008B984
:103DA00008467047481CC1B28B4800788142F4DB5A
:103DB0001846F6E72DE9F04106468548FFF7E8FF8B
:103DC00005462F4600240CE0D6F80100804901EB9F
:103DD000C401D1F80110884201D1E5B203E0601CB2
:103DE00044B2AC42F0DB00BFBD4211D06CB206E081
:103DF000774901EBC400FFF7C6FF601C44B2781E90
:103E0000A042F5DC724800EBC40000210160416073
:103E1000FFF741FFBDE8F08170B505462846FFF782
:103E2000B7FF0646002405E005EBC400FFF7ABFF33
:103E3000601CC4B2701EA042F6DC05EBC400002179
:103E40000160416070BD70B505460C462046FFF725
:103E50009FFF06466048007886420CD12046FFF757
:103E6000DBFF5D480078401E04EBC000296801605C
:103E70006968416005E004EBC60029680160696873
:103E8000416070BD016881604168C160704770B574
:103E900005462846FFF77CFF06464F4800788642D5
:103EA00001D1701EC6B2701E44B205E005EBC4001D
:103EB000FFF7E8FF601E44B2002CF7DA002028600C
:103EC000686070BD70B505460C462046FFF7DFFF01
:103ED000286820606868606070BD2DE9F041064682
:103EE0003B48FFF755FF05462F4600240CE0D6F867
:103EF0000100374901EBC401D1F80110884201D11A
:103F0000E5B203E0601C44B2AC42F0DB00BFBD424E
:103F10001CD032480078012816D1681EC5B26CB298
:103F200006E02B4901EBC400FFF7ACFF601E44B272
:103F3000002CF6DA26483168016071684160FFF7AD
:103F4000AAFE0120BDE8F0810120FBE70020F9E78F
:103F5000234A1278012A05D101F00F02214B9A5C05
:103F6000027004E001F00F021F4B9A5C0270704770
:103F70007FB504460D46089E012E02D133202070E5
:103F800008E0022E02D13420207003E029462046AA
:103F9000FFF7DEFF0298C4F80100280C6071280AC0
:103FA000A071E5717FBDC1F303524270C1F30342BA
:103FB0008270C1F30332C270C1F3032202710A0C92
:103FC00042710A0A8271C17170470000BC7000081A
:103FD00054010020430100207100002070000020E7
:103FE0007E00002095000020A5000020014611F071
:103FF000F00F04D1FE480078B0EB115F06D0FC480A
:1040000000780B2804D111F0F00F01D10120704786
:104010000020FCE730B585B00025F6480468002094
:10402000F54908702046FFF7E1FF00283FD0214600
:1040300001A8FFF78DFF214601A8FFF7B4FF9DF807
:104040000400332829D09DF8040030B301A8FFF7FD
:1040500044FF00286ED1E9480078012810D1E849D2
:1040600001A8FFF72FFFE748007804F00F03009046
:104070009DF8042001A9E448007800F097FC03E0D3
:10408000DF4901A8FFF7DFFE04F00F0201A991202C
:10409000FCF704FAFFF7FFFD4CE001A8FFF78AFEEA
:1040A00004F00F0201A99220FCF7F8F942E0214642
:1040B00003A8FDF7C7FC054695B30095214601A866
:1040C000DDE90323FFF754FF9DF80400332828D0CF
:1040D0009DF8040028B301A8FFF7FFFE00BBC74806
:1040E0000078012810D1C64901A8FFF7EBFEC548AA
:1040F000007804F00F0300909DF8042001A9C24845
:10410000007800F053FC03E0BD4901A8FFF79BFED7
:1041100004F00F0201A99120FCF7C0F9FFF7BBFDE5
:1041200008E001A8FFF746FE04F00F0201A9922063
:10413000FCF7B4F905B030BDB4480078012808D1C7
:10414000B3480078AB49097801F00F01B14A5054E7
:1041500007E0AF480078A749097801F00F01AE4A9F
:10416000505470471CB5AD4800680090A1480068E5
:1041700001906846FDF75AFA28B9A848FEF7C4F836
:104180004420A74908701CBD1CB5A64800680090D3
:104190009848006801906846FDF702FA28B9A148DE
:1041A000FEF7B2F840209E4908701CBD1CB59E4821
:1041B000006800908F48006801906846FDF794F908
:1041C00028B99948FEF7A0F83C20954908701CBD15
:1041D0001CB59648006800908648006801906846C3
:1041E000FDF73CF928B99148FEF78EF838208C4944
:1041F00008701CBD30B585B000257E4804680020DD
:104200007D4908702046FFF7F1FE002839D021468D
:1042100001A8FFF79DFE214601A8FFF7C4FE9DF807
:104220000400332823D09DF8040000B301A8FFF751
:1042300054FE002862D1724901A8FFF743FEFFF740
:104240002AFD7048007804F00F0300909DF80420C8
:1042500001A96D48007800F0A9FB04F00F0201A944
:104260009120FCF71BF96A206D49087046E001A80F
:10427000FFF7A0FD04F00F0201A99220FCF70EF950
:104280003CE0214603A8FDF7DDFB054665B300953C
:10429000214601A8DDE90323FFF76AFE9DF804002B
:1042A000332822D09DF80400F8B101A8FFF715FECD
:1042B000D0B9534901A8FFF705FEFFF7ECFC5148C0
:1042C000007804F00F0300909DF8042001A94E48E7
:1042D000007800F06BFB04F00F0201A99120FCF7BD
:1042E000DDF86A204E49087008E001A8FFF762FD7A
:1042F00004F00F0201A99220FCF7D0F805B030BD00
:104300001CB53C480068002870D049480078002857
:10431000FAD048480078002868DD3648046821460D
:104320006846FDF7A9FB58B101204349087004F025
:104330000F00424908703F48007841490870D2E0B8
:1043400040480068A042FAD03E48046034480078F3
:10435000002847D032480078382843D030480078C9
:1043600039283FD02E4800783A283BD02C48007896
:104370003B2837D02A4800783C2833D0284800789A
:104380003D282FD0264800783E282BD0244800789E
:104390003F2827D022480078402823D020480078A2
:1043A00041281FD01E48007842281BD01C480078A6
:1043B000432817D01A480078442813D018480078AA
:1043C00045280FD01648007846280BD014480078AE
:1043D000472807D012480078672803D01048007893
:1043E0006A2871D10E48007840282DE081E0000055
:1043F0007A000020100000209100002070000020B2
:104400005401002073000020720000207E00002074
:104410007F00002095000020A500002066000020FD
:104420003C0000205C0000205200002048000020DA
:10443000250000202600002092000020930000208C
:10444000940000208800002038D013DC3B282CD0BA
:1044500007DC20B3382825D0392824D03A2840D189
:1044600022E03C2824D03D2823D03E2822D03F28DB
:1044700037D120E0452829D008DC41281FD0422828
:104480001ED043281DD044282BD11EE046281ED024
:1044900047281DD067281ED06A2822D11EE0FFF7CA
:1044A000A9FE1FE000BF00BF00BFFFF791FE19E0AB
:1044B00000BF00BF00BFFFF779FE13E000BF00BFE1
:1044C00000BFFFF761FE0DE00DE000BF00BF00BFC1
:1044D000FFF748FE06E0FFF72FFE03E0FFF79AFD27
:1044E00000E000BF00BF00204D4908704D49086042
:1044F00004E000204A4908704A4908601CBD10B514
:104500004948FFF789FCFFF7C6FB10BD1CB500202A
:104510000090019044480168009140680190424831
:10452000FFF77AFC40496846FFF78DFCFFF7B3FBC5
:104530001CBD1CB50020009001903B48FFF728FCF3
:104540000446601E384901EBC000016800914068D4
:104550000190601E344901EBC00000210160416000
:1045600031496846FFF7AEFCFFF795FB1CBD10B55F
:104570002E4800782E49097888420BDA2D480078B9
:104580002A490978884205DD2948007810B1274872
:10459000007858B92648007868B92448007850B1A6
:1045A0002448007821490978884204DDFFF7A7FFF5
:1045B00000202049087010BD10B51D4800781B4927
:1045C000097888420BDA1B48007819490978884233
:1045D00005DD1648007810B11548007858B9134821
:1045E0000078E0B912480078C8B112480078104944
:1045F0000978884213DDFFF789FF00200D49087014
:104600000D48007801280AD10748C07900F00F034F
:104610000548027801460948007800F082F910BD8B
:10462000250000201000002054010020440000203C
:10463000450000209100002074000020720000203E
:1046400008B50121042001F038F84FF40060ADF8FE
:10465000000048208DF803006946F14800F004FD91
:104660007E20FCF757F80320FCF754F83320FCF7C2
:1046700051F80420FCF74EF8EF20FCF74BF808BD8A
:1046800010B504467E20FCF745F80420FCF742F8FC
:104690004120FCF73FF80020FCF73CF82046FCF7EF
:1046A00039F8EF20FCF736F810BD10B504467E202F
:1046B000FCF730F80320FCF72DF83120FCF72AF83E
:1046C0002046FCF727F8EF20FCF724F810BD70B562
:1046D00005460C466078092812DC012D05DC61785E
:1046E000491CC8B2FFF7CCFF36E0607888B3617828
:1046F000491CC8B2FFF7C4FF1F20FFF7C1FF2BE022
:1047000060780F2808DC60780A2805DB61781731AB
:10471000C8B2FFF7B5FF1FE060781038052819D23E
:10472000DFE800F003070B0F13002820FFF7A8FFB6
:1047300011E02C20FFF7A4FF0DE02F20FFF7A0FFD2
:1047400009E03020FFF79CFF05E03520FFF798FFD8
:1047500001E001E000BF00BF70BD70B505460C462A
:104760004020FFF78DFF6078092805DC6178491C3F
:10477000C8B2FFF785FF2AE060780F2808DC607870
:104780000A2805DB61781731C8B2FFF779FF1EE010
:1047900060781038052818D2DFE800F003070B0F07
:1047A00013002820FFF76CFF10E02C20FFF768FFB4
:1047B0000CE02F20FFF764FF08E03020FFF760FFD8
:1047C00004E03520FFF75CFF00E000BF00BF4120A0
:1047D000FFF756FF70BD70B505460C46012D05DC90
:1047E000A178491CC8B2FFF74BFF0CE0A07850B18C
:1047F000A178491CC8B2FFF743FF1D20FFF740FF17
:104800001E20FFF73DFF70BD70B505460C46012D1B
:1048100005DCE178491CC8B2FFF732FF15E0E0780B
:1048200098B1E07801280BD1207918B90B20FFF757
:1048300027FF0AE021790B31C8B2FFF721FF04E01E
:10484000E1781331C8B2FFF71BFF70BD70B50546A4
:104850000C46012D05DC2179491CC8B2FFF710FF79
:1048600009E0207938B1E078012804D02179491C89
:10487000C8B2FFF705FF70BD10B50446042C06D082
:10488000052C08D0062C0AD0072C10D10BE03E20B6
:10489000FFF7F6FE0CE03C20FFF7F2FE08E03D20BB
:1048A000FFF7EEFE04E06820FFF7EAFE00E000BF3D
:1048B00000BF10BD70B504460D46032C0CDC294624
:1048C0002046FFF788FF29462046FFF79DFF29462F
:1048D0002046FFF7BBFF02E02046FFF7CDFF70BD8B
:1048E00010B50446322C05DA04F14201C8B2FFF7D4
:1048F000C7FE04E0342C02D16820FFF7C1FE10BDD2
:1049000070B505460E461446342C01D0262C03D132
:104910006820FFF7B5FE03E031462846FFF7CAFFDF
:1049200070BD2DE9F04104460F4616461D46032C86
:1049300035DC3E20FFF7A4FE0F2D02D13F20FFF70C
:104940009FFE3848007828B136480078012804D105
:10495000022E02DB6920FFF793FE0F2D03D03946AC
:104960002046FFF7B4FE39462046FFF7A3FF2D4847
:104970000078012804D1012C02DC6920FFF780FEB9
:104980000F2D04D139462046FFF7E7FE0CE0012C3D
:104990000AD0032C08D03046FFF7A2FF04E03246CD
:1049A00039462046FFF7ACFFBDE8F0812DE9F04124
:1049B00004460D4616461F46DDF81880B8F1010F73
:1049C0000BDD194880F80080C66007744470801CB5
:1049D000296801606968416005E03B463246294626
:1049E0002046FFF79EFFBDE8F08110B50E48007825
:1049F000002814DD0D48007888B10D48006870B1BA
:104A000000200A49087008490B7C0A7B4878891CF9
:104A1000FFF787FF04480078401E0349087010BD67
:104A2000000801407800002074040020B600002037
:104A30002C01214208B503208DF8000001208DF8DB
:104A4000010000208DF8020001208DF80300684667
:104A500000F051F908BD10B501214FF0C05000F031
:104A600039FE012000F057FC00F0AEF9012000F003
:104A700095FD00BF412000F0EEFC0028FAD04FF475
:104A8000807000F0A4FD012000F0A7FD00F0E4FE1E
:104A900000F0DAFE0121084600F07AFE00F0D4FEB4
:104AA00047F6FF7000F0AAFE00F0CEFE10BD10B574
:104AB0000446042000F0BDF9A0F52541A5390AD02F
:104AC000FFF7C9FF2046FDF79EFC4AF2A5510420DE
:104AD00000F0A3F916E07B2000F0BDFC10B97A20AD
:104AE00000F0B9FC01214FF0C05000F0F3FD0120AF
:104AF00000F011FC00F0B0FE0121084600F048FE75
:104B000000F0A2FE00F017FE10BD0000F0B58DB061
:104B100004463022714901A802F0C8F86069451EB8
:104B2000642195FBF1F12846EA1705EB9272C1EB7F
:104B3000A2014FF4C87295FBF2F28F186069C11799
:104B400000EB91718910B0EB810112D1642261698F
:104B500091FBF2F302FB131131B99200616991FBF1
:104B6000F2F302FB131121B92169022901DD0126AB
:104B700000E0002640F26D1005FB00712069401E28
:104B800001AA52F820000844E168084406440720BE
:104B900096FBF0F100FB1160A0610DB0F0BD10B507
:104BA00001460869801E0861002805DC08690C3090
:104BB00008614869401E48616423486990FBF3F02E
:104BC0004A69D31702EB9373C0EBA3004FF4C87488
:104BD00092FBF4F3034440F26F14086960430C2421
:104BE00090FBF4F01844CB68034440F26D1402FBD0
:104BF00004303B4BC01A00EB40008B6803EBC00055
:104C0000C0EB00104B6803EB8000C0EB00100B689A
:104C100003EB8000A0F5E14010BD2DE9F04107460F
:104C20000C463048B7FBF0F6B7FBF0F100FB11780B
:104C30004FF4616098FBF0F0A0604FF4616098FB66
:104C4000F0F100FB11803C2190FBF1F060604FF42B
:104C5000616098FBF0F100FB11803C2190FBF1F2C8
:104C600001FB1200206040F2B27509E015F0030F5D
:104C700002D14FF4B77001E040F26D10361A6D1C8E
:104C800015F0030F02D14FF4B77001E040F26D1040
:104C9000B042EBDD65616069C11700EB917189106D
:104CA000B0EB810102D11D200F494860012505E0CC
:104CB000681E0D4951F82000361A6D1C681E0A49FD
:104CC00051F82000B042F3DD1C2048602561701CC3
:104CD000E0602046FFF71AFFBDE8F081F475000898
:104CE0008BFA0A0080510100B800002031490143CD
:104CF000314A1160704770B5002100230F22C4783B
:104D00000CB32D4C246804F4E064C4F5E064210A7B
:104D1000C1F10403CA40447804FA03F184781440D2
:104D200021430901254C0678A155047804F01F059C
:104D30000124AC4005786D114FF0E02606EB8505A7
:104D4000C5F8004109E0047804F01F050124AC40D7
:104D50001B4D0678761145F8264070BD194A0A4069
:104D60000243154B1B1F1A60704739B1124A121DBE
:104D700012680243104B1B1D1A6006E00E4A121DFA
:104D8000126882430C4B1B1D1A607047042808D11F
:104D90004FF0E021096941F004014FF0E022116178
:104DA00007E04FF0E021096921F004014FF0E02213
:104DB000116170470000FA050CED00E000E400E02E
:104DC00080E100E080FFFF1F10B5012000F0A9FC8A
:104DD000002000F0A6FC10BD2A4908607047294950
:104DE000091F0860704727498431086070470146F1
:104DF0000020254A10884FF67F4210400843224A7F
:104E000010807047014600201F4A10884FF68072BC
:104E1000104008431C4A1080704708B500220092D9
:104E2000194A2C3A0092009A02440092009A1160AA
:104E300008BD08B501460020009013482C380090AA
:104E40000098084400900098008808BD0D489C30E8
:104E50000068C0B270470C480830008840F001007C
:104E600009490831088070470648A0300068C0B280
:104E7000704705480830008840F0020002490831B8
:104E80000880704704860D422C6C00400020444985
:104E90000860091D0860091D0860091D0860414877
:104EA0003F4914310860704700213D498279002A4A
:104EB0003AD00A46126803689A430B461A600A1DE4
:104EC000126803689A430B1D1A60027911440A683C
:104ED00003681A430A60324A0832126803689A4328
:104EE0002F4B08331A601A1D126803689A432C4B23
:104EF0000C331A604279102A0ED11A1F1268036807
:104F00001A43274B08331A601A1D126803681A43A4
:104F1000234B0C331A600DE02149427911440A6891
:104F200003681A430A6005E0027911440A680368BD
:104F30009A430A6070470021016001710C214171A0
:104F40000021817170471649103109680143144AE4
:104F500010321160704701460020114A1432126865
:104F60000A4201D0012000E0002070470C491431B2
:104F700008607047014600200022094B1B6803EAC5
:104F80000102074B14331B680B4202D00AB1012007
:104F900000E00020704702491431086070470000AB
:104FA00000040140FFFF0F0010B50446CA488442C8
:104FB00008D10121042000F09AFB0021042000F018
:104FC00096FB46E0C548844208D10121082000F044
:104FD0008EFB0021082000F08AFB3AE0C0488442A2
:104FE00008D10121102000F082FB0021102000F0E8
:104FF0007EFB2EE0BB48844208D10121202000F036
:1050000076FB0021202000F072FB22E0B6488442AB
:1050100008D10121402000F06AFB0021402000F06F
:1050200066FB16E0B148844208D10121802000F0DF
:105030005EFB0021802000F05AFB0AE0AC4884426D
:1050400007D10121801500F052FB0021A01500F0CE
:105050004EFB10BD10B50121084600F048FB0021B1
:10506000012000F044FB10BD2DE9F041024600256F
:105070000026002000230024002791F803C00CF034
:105080000F0591F803C01CF0100F03D091F802C077
:105090004CEA050591F800C0BCF1000F31D014684E
:1050A00000202BE04FF0010C0CFA00F3B1F800C027
:1050B0000CEA03069E4220D183004FF00F0C0CFA3D
:1050C00003F7BC4305FA03FC4CEA040491F803C05F
:1050D000BCF1280F06D14FF0010C0CFA00FCC2F80D
:1050E00014C00AE091F803C0BCF1480F05D14FF09D
:1050F000010C0CFA00FCC2F810C0401C0828D1D3E7
:105100001460B1F800C0BCF1FF0F34DD546800201A
:105110002EE000F1080C4FF0010808FA0CF3B1F88A
:1051200000C00CEA03069E4221D183004FF00F0C11
:105130000CFA03F7BC4305FA03FC4CEA040491F8AB
:1051400003C0BCF1280F05D100F1080C08FA0CF8D7
:10515000C2F8148091F803C0BCF1480F07D100F1E8
:10516000080C4FF0010808FA0CF8C2F81080401C37
:105170000828CED35460BDE8F0814FF6FF7101805E
:10518000022181700421C17070470246002093689B
:105190000B4201D0012000E00020704701468868E2
:1051A00080B2704702460020D3680B4201D0012034
:1051B00000E0002070470146C86880B27047016176
:1051C0007047416170470AB1016100E04161704779
:1051D000C16070474FF480320A438261816182610D
:1051E00082698269704702460020424B18684FF678
:1051F0008073184040EA021008433E4B1860704725
:105200003D49C8617047F0B50A46002300240021DB
:10521000002500F00046B6F1004F02D1354EF1698D
:1052200001E0344E7168C0F3034583B200F44016C8
:10523000B6F5401F08D121F070612E4E766826F039
:1052400070662C4F7E6012E000F48016B6F5801F69
:1052500006D1032606FA05F4A14341F0706106E089
:10526000460D360103FA06F6B14341F0706122B1F2
:10527000460D360103FA06F6314300F00046B6F15A
:10528000004F02D11B4EF16101E01A4E7160F0BD7A
:1052900030B500228B071C0F0F2303FA04F2154BC5
:1052A00008338C1053F824309343124C08348D107B
:1052B00044F8253023468C1053F824308C07240FF3
:1052C00000FA04F423430B4C08348D1044F82530C5
:1052D00030BD0A490860704700080140000C0140D9
:1052E000001001400014014000180140001C014062
:1052F000002001400000014000002042DC0020426C
:1053000010B50121080700F0FFF900214FF080508F
:1053100000F0FAF910BD2949086270472749086171
:10532000704701460020264A106820F0E00008433C
:105330001060704723490860704710B5024600208E
:105340001F4B186820F00300104318601E4B1B68A9
:1053500043F004031C4C2360012901D130BF00E05D
:1053600020BF194B1B6823F00403174C236010BDAA
:105370001348006840F004001149086008460068BE
:1053800040F0020008601048006840F004000E4938
:10539000086000BF00BF30BF704701460020084AC8
:1053A00052680A4201D0012000E000207047044901
:1053B000096841EA8001024A1160704700000E420C
:1053C00000700040A0000E4210ED00E0E4480068CC
:1053D00040F00100E249086008464068E1490840A1
:1053E000DF49486008460068DF490840DC4908603A
:1053F0000846006820F4802008600846406820F4D1
:10540000FE0048604FF41F0088600020C8627047AB
:10541000D349096821F48031D14A116011460968E5
:1054200021F480211160B0F5803F03D0B0F5802FCA
:105430000ED106E0CA49096841F48031C84A1160BA
:1054400007E0C749096841F4A021C54A116000E09E
:1054500000BF00BF704710B50146002200230020A6
:105460004A11012A02D1BE4C236806E0022A02D169
:10547000BB4C236A01E0BA4C636A01F01F020124AD
:1054800094401C4201D0012000E0002010BD38B53E
:10549000002000900024002500BF3120FFF7DBFF33
:1054A00005460098401C00900098B0F5A06F01D010
:1054B000002DF2D03120FFF7CEFF08B1012400E02B
:1054C0000024204638BD01460020A54A106820F07F
:1054D000F80040EAC10010607047A44908607047B6
:1054E000024600209E4B586820F4741042EA0103E3
:1054F00018439B4B586070479C49086670470246AA
:105500000020974BD86A9A4B184042EA010318438F
:10551000934BD862704701460020914A506820F0B2
:1055200003000843506070478D48406800F00C004D
:105530007047014600208A4A506820F0F000084376
:105540005060704701460020854A506820F4E060B2
:1055500008435060704701460020814A506820F49B
:10556000605040EAC1005060704729B17C4A527ACD
:1055700002437B4B5A7204E0794A527A8243784B59
:105580005A7270477B490860704701460020744A90
:10559000506820F440400843506070470021764A2C
:1055A00011706F4A82F82010012802D0042808D117
:1055B00003E00121704A117004E005216E4A117068
:1055C00000E000BF00BF70476C4908607047644945
:1055D000096A0143624A11627047684944390860A8
:1055E000704770B5002100230024002200255C4E86
:1055F000766806F00C0121B1042905D0082921D1D3
:1056000005E05F4E066020E05D4E06601DE0544EF2
:10561000766806F47013524E766806F480340226DB
:1056200006EB93431CB9574E5E43066009E04C4EAF
:10563000F66A06F00F06751C514EB6FBF5F65E4392
:10564000066002E04E4E066000BF00BF444E766822
:1056500006F0F00109094C4E725C0668D6404660BF
:105660003F4E766806F4E061090A474E725C466870
:10567000D64086603A4E766806F46051C90A424EBA
:10568000725C4668D640C660354E766806F4404186
:10569000890B3E4E725CC668B6FBF2F6066170BDC1
:1056A00029B12F4A526902432D4B5A6104E02C4A1A
:1056B000526982432A4B5A61704729B1284A92693C
:1056C0000243274B9A6104E0254A92698243244BA6
:1056D0009A61704729B1224AD2690243204BDA61AC
:1056E00004E01F4AD26982431D4BDA61704729B139
:1056F0001B4AD26802431A4BDA6004E0184AD268A7
:105700008243174BDA60704729B1154A1269024388
:10571000134B1A6104E0124A12698243104B1A615A
:10572000704716494039086070471049C86470478F
:105730000B49C87170470A48406A40F080700849B8
:105740004862704701460020054A92680A4201D02B
:10575000012000E000207047014988727047000076
:10576000001002400000FFF8FFFFF6FE000042427A
:10577000F0FFFEFFD8004242201002408004424267
:1057800000127A0000093D00E8000020F800002027
:1057900029B14F4A128802434D4B1A8004E04C4A0B
:1057A000128882434A4B1A8070474948001D00887E
:1057B00040F010004649091D088070474448001D0C
:1057C00000884FF6EF7108404149091D0880704775
:1057D00000213F481C300188001F008841EA00403A
:1057E000704700B50246FFF7E0FF100C384918314A
:1057F0000880091D0A80FFF7E1FF00BD00B50246E1
:10580000FFF7D3FFC2F30340314908310880091D77
:105810000A80FFF7D3FF00BD00B50246FFF7C5FFC2
:10582000100C2B4920310880091D0A80FFF7C6FFA4
:1058300000BD00202649103109880907080B2449BA
:10584000143109880843704700BF2148001D0088B3
:1058500010F0200FF9D070471D48001D00884FF64A
:10586000F77108401A49091D088000BF1848001D3B
:10587000008810F0080FF9D0704701460020144A44
:10588000121D12880A4201D0012000E0002070475A
:105890000F49091D098881430D4A121D1180704767
:1058A000014600200A4A121D12880A40D0B2084A56
:1058B00012880A4202D008B1012000E0002070479F
:1058C0000349091D09888143014A121D118070474F
:1058D0000028004010B50446FE48844208D101214A
:1058E000C014FFF704FF0021E014FFF700FFC4E03D
:1058F000B4F1804F08D101210846FFF705FF0021D0
:105900000120FFF701FFB8E0F348844208D10121EC
:105910000220FFF7F9FE00210220FFF7F5FEACE0C0
:10592000EE48844208D101210420FFF7EDFE00215A
:105930000420FFF7E9FEA0E0E948844208D10121F4
:105940000820FFF7E1FE00210820FFF7DDFE94E0CC
:10595000E448844208D101211020FFF7D5FE002140
:105960001020FFF7D1FE88E0DF48844208D10121F2
:105970002020FFF7C9FE00212020FFF7C5FE7CE0B4
:10598000DA48844208D101214014FFF7B0FE00211B
:105990006014FFF7ACFE70E0D548844209D10121C4
:1059A000C804FFF7A4FE00214FF40020FFF79FFE7C
:1059B00063E0D048844209D101210805FFF797FE32
:1059C00000214FF48010FFF792FE56E0CA4884424F
:1059D00009D101214805FFF78AFE00214FF400108C
:1059E000FFF785FE49E0C548844208D101214020E7
:1059F000FFF78AFE00214020FFF786FE3DE0C04809
:105A0000844208D101218020FFF77EFE0021802002
:105A1000FFF77AFE31E0BB48844208D101218015AE
:105A2000FFF772FE0021A015FFF76EFE25E0B648D5
:105A3000844209D101210804FFF759FE00214FF4E7
:105A40008030FFF754FE18E0B048844209D10121AC
:105A50004804FFF74CFE00214FF40030FFF747FEEB
:105A60000BE0AB48844208D101218804FFF73FFED8
:105A700000214FF48020FFF73AFE10BD002202887B
:105A8000944B98420ED0994B98420BD0B0F1804F76
:105A900008D0914B984205D0904B984202D0904B41
:105AA000984204D14FF68F731A404B881A438D4B9E
:105AB000984207D08C4B984204D04FF6FF431A40CF
:105AC000CB881A4302808B8883850B880385814BA2
:105AD00098420BD0854B984208D08B4B984205D00A
