:020000040800F2
:100000004808002001010008A9010008AB01000810
:10001000AF010008B3010008B701000800000000AC
:10002000000000000000000000000000BD0100080A
:10003000BB01000800000000BF010008C10100086A
:100040001B0100081B0100081B0100081B01000820
:100050001B0100081B0100081B0100081B01000810
:100060001B0100081B0100081B0100081B01000800
:100070001B0100081B0100081B0100081B010008F0
:100080001B0100081B0100081B0100081B010008E0
:100090001B0100081B0100081B0100081B010008D0
:1000A0001B0100081B0100081B0100081B010008C0
:1000B0001B0100081B0100081B0100081B010008B0
:1000C0001B0100081B0100081B0100081B010008A0
:1000D0001B010008070500082B0400081B0100088D
:1000E000290500081B0100081B010008DFF80CD0DF
:1000F00005F080FF0048004725010008480800205F
:100100000648804706480047FEE7FEE7FEE7FEE7B1
:10011000FEE7FEE7FEE7FEE7FEE7FEE7B15E00086A
:10012000ED0000084FF4A06004F0CAF800F0B0F849
:1001300000F0E7F800F08CF900F0C9F903F0C6FE12
:1001400000F00CF900F04AF900200D49087000F0A9
:1001500076FA00F0E2FA00F095FC00F0D3FE01F030
:1001600095FB08A005F058FF0AA005F055FF05E033
:1001700003F00BFD01F0D8FB04F07DF8F8E7000078
:100180003004002048656C6C6F2073746D33322E20
:100190002000000044656C6574655F416C6C5F44D1
:1001A000617461200D0A2000704700BFFEE700BFA8
:1001B000FEE700BFFEE700BFFEE7704770477047ED
:1001C00022480068401C21490860084600686428ED
:1001D0000AD91F480078401C1D49087001201D499C
:1001E00008700020194908601B480068401C1A4923
:1001F000086008460068B0F5C87F02D9002017499A
:10020000086017480078401C1549087008460078B7
:10021000C72807DD13480078401C124908700020E9
:100220000F4908701048007860B910480078401CE9
:100230000E490870084600780F2806DD01200A499B
:10024000087002E00020094908707047040000208F
:100250000800002001000020880000208400002009
:100260008C0000208D000020B2000020B100002092
:1002700010B5002807DA0A07140E344A00F00F03FD
:100280001B1FD45403E00A07130E314A135410BD48
:1002900010B504F0BDFA012004F041FB00BF21209D
:1002A00004F0FBFA0028FAD04FF48011002004F08B
:1002B00039FB002004F05FFB002004F065FB4FF4E5
:1002C000806004F06AFB012004F038FB00BF392095
:1002D00004F0E3FA0028FAD0022004F03EFB00BF4D
:1002E00004F044FB0828FBD10121084604F007FC78
:1002F0000121184804F00FFA0121C80304F00BFA99
:1003000010BD10B514480068C821B0FBF1F4B4F179
:10031000807F01D3012011E024F07F40401E4FF088
:10032000E02148610F214FF0FF30FFF7A1FF0020CF
:100330004FF0E021886107200861002008B100BF6C
:10034000FEE70021481EFFF793FF10BD18ED00E007
:1003500000E400E000023000C800002000B585B0D5
:100360000121042004F0CBFB0121480404F0D4FB5C
:100370000420ADF8100018208DF8130003208DF82C
:10038000120004A92F4804F0F7F80820ADF8100077
:1003900004208DF8130004A92A4804F0EDF84FF466
:1003A000165000900020ADF80400ADF80600ADF83E
:1003B0000800ADF80C000C20ADF80A006946224890
:1003C00005F059FB012240F225511F4805F0EBFBD7
:1003D00001211D4805F0DBFB05B000BD08B5262056
:1003E0008DF8000001208DF8010000208DF802003A
:1003F00001208DF80300684603F067FF08BD70B563
:1004000004460D46E1B2104805F02EFC00BF0E4830
:10041000008810F0800FFAD0204670BD10B5044659
:1004200021460AA005F0F8FD10BD10B540F2255197
:10043000054805F09DFC012803D12021024805F064
:100440008EFC10BD00080140004400402563000000
:1004500000B585B0012144F2040004F050FB4FF4D4
:100460000070ADF8100018208DF8130003208DF8EF
:10047000120004A92A4804F07FF84FF48060ADF818
:10048000100004208DF8130004A9254804F074F826
:100490004FF4165000900020ADF80400ADF80600AF
:1004A000ADF80800ADF80C000C20ADF80A00694664
:1004B0001C4805F0E0FA012240F22551194805F0E8
:1004C00072FB0121174805F062FB05B000BD08B5BD
:1004D00025208DF8000001208DF801008DF8020024
:1004E0008DF80300684603F0F0FE08BD10B5044621
:1004F00021460C4805F0B8FB00BF0A48008810F000
:10050000800FFAD010BD10B540F22551054805F016
:100510002FFC012803D12021024805F020FC10BD4A
:10052000000801400038014070B5002569480068A6
:1005300010F4004F00D001254FF08040848C002043
:100540004FF080418884002D45D0B4F5967F5FDD63
:100550006148007818285BDD6048006840085F4902
:1005600008600846006820F07F4008600846006880
:100570005B49084229D0594800685A4909688842AD
:1005800012D159480078401C574908700846007835
:10059000FA2801DDFA2008705048006853490860C5
:1005A0000120534908700DE000204F4908704B4866
:1005B00000684C490860494800684C4908600120BF
:1005C0004B49087000204B490860002043490860EF
:1005D000414908701CE0152C01DBD22C07DD0020FE
:1005E0003D4908703D4908603F49087010E03B48AC
:1005F0000068400039490860552C04DD0846006851
:1006000040F00100086034480078401C324908700E
:100610004FF4004003F047FF70BD08B501210420EE
:1006200004F06DFA4FF40040ADF8000048208DF85A
:10063000030069462748083803F09EFF08BD10B53F
:1006400086B00024FFF7E9FF0121084604F057FABD
:100650000F21002004F0A4F84FF400400490002083
:100660008DF8140010208DF8150001208DF816006B
:1006700004A803F0A1FE28208DF80C0000208DF8BE
:100680000D008DF80E0001208DF80F0003A803F077
:100690001CFE0121084604F03FFA1748006817497C
:1006A000B0FBF1F0401E84B24FF6FF70ADF80400CD
:1006B000ADF800400020ADF80600ADF80200694634
:1006C0004FF0804004F05AFB0121880704F0B2FE8D
:1006D00006B010BD08080140240000201C000020C6
:1006E000F0FFFF0020000020260000201000002066
:1006F0002500002088000020C8000020A0860100FE
:1007000005E0022100BF4A1E92B21100FBD1020097
:10071000A0F1010398B2F4D1704708B50121082077
:1007200004F0EDF910208DF8030003208DF802008D
:100730004FF47870ADF800006946FE4803F01CFFE6
:1007400048208DF803001020ADF800006946F948F4
:1007500003F012FF08BD30B504460020F6490860DA
:10076000054618E00020F549086014F0010F04D098
:100770000120A1F10401086002E00020F0490860B6
:100780004FF00500FFF7BCFF0120EC4908604FEA7D
:10079000640405F10105082DE4D30020E749086051
:1007A000E849C1F8A00130BD30B504460020E64953
:1007B0000860054617E00020E049086014F0010FCA
:1007C00003D00120DE49086002E00020DC49086017
:1007D0004FF00500FFF794FF0120D84908604FEA69
:1007E000640405F10105082DE5D30020D349086014
:1007F000D449C1F8A00130BD30B504460020D3492A
:100800000860054617E00020CC49086014F0010F8D
:1008100003D00120CA49086002E00020C8490860EE
:100820004FF00500FFF76CFF0120C44908604FEA54
:10083000640405F10105082DE5D30020BF490860D7
:10084000C049C1F8A00130BD10B504460120BA4925
:1008500008604FF00500FFF753FF0020B949C1F8C9
:1008600094012046FFF777FF10BDF8B5FF26002062
:1008700000904220FFF7E8FF0120B54908604FF0E3
:100880000004CEE000251BE00020AC4908601DF804
:1008900004004FEA60000DF804004FF00100A94980
:1008A000C1F8A401AA48006828B11DF8040040F06E
:1008B00080000DF804000520FFF722FF681CC5B278
:1008C000082DE1DB0520FFF71BFF9DF8000048B96C
:1008D0009DF8010030B99DF8020018B99DF8030099
:1008E00000286ED09DF80000102818D008DC0128E0
:1008F0000DD002280DD004280DD0082817D10CE007
:1009000020280ED040280ED0802810D10DE01926C6
:100910000EE011260CE009260AE0012608E01A265E
:1009200006E0122604E00A2602E0022600E000BFEC
:1009300000BF9DF80100102818D008DC01280DD058
:1009400002280DD004280DD0082817D10CE020284B
:100950000ED040280ED0802810D10DE01B260EE0CE
:1009600013260CE00B260AE0032608E01C2606E00E
:10097000142604E00C2602E0042600E000BF00BFBD
:100980009DF80200102818D008DC01280DD002289C
:100990000DD004280DD0082818D10CE020280ED046
:1009A00040280FD0802811D10EE01D260FE015261B
:1009B0000DE00D260BE0052609E01E2607E01626B1
:1009C00005E02CE00E2602E0062600E000BF00BF96
:1009D0009DF80300102818D008DC01280DD002284B
:1009E0000DD004280DD0082817D10CE020280ED0F7
:1009F00040280ED0802810D10DE01F260EE01726CB
:100A00000CE00F260AE0072608E0202606E018265C
:100A100004E0102602E0082600E000BF00BF601CD2
:100A2000C4B2042CFFF62EAF0020444908604549AB
:100A3000C1F810014FF001003F4908603046F8BD91
:100A400010B504460120404908604FF00500FFF74B
:100A500057FE00203B49C1F898012046FFF7A4FE4D
:100A600010BD10B504460120384908604FF005005C
:100A7000FFF746FE00203349C1F89C012046FFF7EE
:100A8000BBFE10BD10B54020FFF7DEFEC020FFF713
:100A9000DBFE00240AE02F49085DFFF75CFE2D49CC
:100AA0000831085DFFF757FE601CC4B2082CF2DB6A
:100AB000294909788831C8B2FFF7C6FE01201E49CE
:100AC00008604FF04000FFF7BBFFC020FFF7B8FF02
:100AD00000240BE01F491031085DFFF765FE1D493A
:100AE0001831085DFFF760FE601CC4B2082CF1DB12
:100AF000194909788831C8B2FFF7A2FF01201249CD
:100B000008604FF04000FFF7ACFFC020FFF7A9FFDF
:100B100000240BE00F492031085DFFF76DFE0D4901
:100B20002831085DFFF768FE601CC4B2082CF1DBB9
:100B3000094913E0000C014094812142A481214223
:100B4000A081214200802142988121429C81214242
:100B500010812142E00000207600002009788831D1
:100B6000C8B2FFF77EFF0120D849086010BD10B55C
:100B70003021D74805F033FA10BD10B50446FFF711
:100B8000F6FFD448C07BD2494870D248005D087057
:100B9000FFF778FF10BD10B50446FFF7E8FFCD481A
:100BA000807BCB494870CB48005D0870FFF76AFF37
:100BB00010BD10B50446FFF7DAFF20780A2190FB3C
:100BC000F1F0C449095CC248C17220780A2190FB47
:100BD000F1F201FB1200BF49095CBD4881726078E7
:100BE0000A2190FBF1F0BB49095CB9484172607879
:100BF0000A2190FBF1F201FB1200B649085CB449EE
:100C00000872A0780A2190FBF1F0B249085CB04963
:100C1000C871A0780A2190FBF1F201FB1200AD49E6
:100C2000085CAB498871E0780A2190FBF1F0A94992
:100C3000085CA7494871E0780A2190FBF1F201FBBA
:100C40001200A449085CA249087120790A2190FB8E
:100C5000F1F0A049085C9E49C87020790A2190FBF8
:100C6000F1F201FB12009B49085C99498870607998
:100C70000A2190FBF1F09749085C9549487060792A
:100C80000A2190FBF1F201FB12009249085C9049A5
:100C90000870E0798F49095C8D480173FFF7F2FE17
:100CA00010BD10B58C48007848B9002088494870BC
:100CB0000870FFF7E7FE01208749087005E08748C4
:100CC000FFF777FF00208449087010BD10B58448F5
:100CD000007848B900207E49C8708870FFF7D2FEBE
:100CE00001207F49087005E07C48FFF762FF002083
:100CF0007B49087010BD10B57A48007848B90020CB
:100D0000734948710871FFF7BDFE012075490870ED
:100D100005E07248FFF74DFF00207249087010BDD2
:100D200010B57148007848B900206949C8718871C8
:100D3000FFF7A8FE01206C49087005E06748FFF73F
:100D400038FF00206849087010BD10B5674800786A
:100D500058B900215E48417200205D490872FFF7D2
:100D600091FE01206149087005E05C48FFF721FF12
:100D700000205E49087010BD10B55D48007840B98C
:100D8000002153480173FFF77DFE01205849087088
:100D900005E05248FFF70DFF00205549087010BDCF
:100DA00010B50446FFF7E3FE20784A49085C48493D
:100DB000C87060784749085C45498870A078454903
:100DC000085C43494870E0784249085C4049087033
:100DD000FFF758FE10BD10B50446FFF7C8FE0A2005
:100DE00094FBF0F03B49085C394948700A2094FBB9
:100DF000F0F100FB11403749085C35490870FFF7F6
:100E000041FE10BD10B50446FFF7B1FE0A2094FB69
:100E1000F0F100FB11402F49085C2D490870FFF7E5
:100E200031FE10BD10B504463248007840B90020AC
:100E300027490870FFF726FE01202E49087005E0BB
:100E40002046FFF7ADFF00202A49087010BD10B5FD
:100E500004462948007840B900201D494870FFF732
:100E600011FE01202449087005E02046FFF798FF95
:100E700000202149087010BD10B504461F480078B5
:100E800040B9002012498870FFF7FCFD01201B4982
:100E9000087005E02046FFF783FF0020174908701F
:100EA00010BD10B504461648007840B90020084926
:100EB000C870FFF7E7FD01201149087005E02046E2
:100EC000FFF76EFF00200E49087010BD9C81214283
:100ED000E0000020266100082F00002027000020ED
:100EE00030000020310000203200002033000020BC
:100EF000340000203500002036000020370000209C
:100F00003800002008B50121082003F0F8FD142066
:100F10008DF8030003208DF802008002ADF8000078
:100F20006946FE4803F028FB10208DF803000002FC
:100F3000ADF800006946F94803F01EFB0120F849AE
:100F40000860F849C1F8AC014FF00000F6490860AC
:100F500008BD06E0072100BF0A00A1F10103D9B2D4
:100F6000FAD10200A0F1010398B2F3D1704710B595
:100F70000120EE4908604FF00500FFF7EAFF01206D
:100F8000E849C1F8A8010520FFF7E3FF0020E74981
:100F900008604FF00500FFF7DCFF0020E149C1F8D1
:100FA000A8010520FFF7D5FF10BD70B50446002548
:100FB0001FE014F0800F03D00120DC49086002E03C
:100FC0000020DA4908604FF00200FFF7C2FF01205D
:100FD000D54908604FF00200FFF7BBFF6006040E22
:100FE0000020D049C1F8A8010220FFF7B2FF681C19
:100FF000C5B2082DDDDB0120CC4908604FF00200AE
:10100000FFF7A7FF0120C749C1F8A8010220FFF799
:10101000A0FFC748006808B1012070BD0020C24988
:1010200008604FF00200FFF794FF0020BD49C1F8AF
:10103000AC010220FFF78DFF0020EEE770B5002421
:101040000120BA4908604FF0000517E06006040E61
:101050000120B54908604FF00200FFF77AFFB14860
:10106000D0F82C0108B144F001040020AE4908601A
:101070004FF00200FFF76DFF681CC5B2082DE5DBDD
:10108000204670BD10B50020A74908604FF005004C
:10109000FFF75FFF0020A349C1F8AC010520FFF76F
:1010A00058FF0120A04908604FF00500FFF751FFED
:1010B00001209C49C1F8AC010520FFF74AFF10BD93
:1010C0002DE9F04106460C4617460125FFF74FFF74
:1010D000A020FFF76AFF054615B10120BDE8F081A9
:1010E000C6F30420FFF761FF05460DB10120F5E7C7
:1010F000F0B2FFF75AFF05460DB10120EEE7FFF70A
:1011000036FFA120FFF751FF05460DB10120E5E7AD
:101110001AE0FFF793FF20700020844908604FF029
:101120000500FFF716FF01207E49C1F8A801052040
:10113000FFF70FFF00207C4908604FF00500FFF724
:1011400008FF641C781E87B2012FE2DCFFF776FFF0
:1011500020700120754908604FF00500FFF7F9FE87
:1011600001207049C1F8A8010520FFF7F2FE002018
:101170006D4908604FF00500FFF7EBFEFFF782FFB7
:101180000020ABE72DE9F047804689461646012549
:10119000002063490860044634E008EB040087B28D
:1011A000FFF7E5FEA020FFF700FF054615B101207F
:1011B000BDE8F087C7F30420FFF7F7FE05460DB141
:1011C0000120F5E7F8B2FFF7F0FE05460DB101206A
:1011D000EEE74FF0000A0DE019F80400FFF7E5FE16
:1011E00005460DB10120E3E7601C84B20AF101005D
:1011F00000F0FF0AB245EFDBFFF744FF4FF4FA605F
:10120000FFF7A7FEB442C8DB0120454908604FF054
:101210000000CDE72DE9FC410446002620250027EB
:101220002AE0082269462846FFF74AFF019810F095
:101230007F4F1AD13F480078022806D13E490198D5
:1012400008400190606808406060019861688842C9
:101250000DD13A48009901600020384908717A2080
:1012600002F054FE0120BDE8FC8106B92E4605F1CE
:10127000080085B2781C87B2B7F5007FD1DB082261
:1012800021463046FFF77EFF1EB1792002F03EFE78
:1012900004E07A2002F03AFE0120E4E70020E2E7D1
:1012A0002DE9FC41044600264FF4426500272AE060
:1012B000082269462846FFF703FF019810F07F4F88
:1012C0001AD11C480078022806D11B490198084011
:1012D00001906068084060600198616888420DD1A3
:1012E0001748009901600020154908717A2002F022
:1012F0000DFE0120BDE8FC8106B92E4605F108006F
:1013000085B2781C87B2202FD2DB082221463046D6
:10131000FFF738FFCEB1792014E00000000C014047
:10132000B081214200802142A8812142AC8121422A
:101330002C8121427E000020F0FFFF0048000020A9
:101340005200002002F0E2FD04E07A2002F0DEFD0F
:101350000120CFE70020CDE72DE9FC41044600261F
:101360004FF4026500272AE0082269462846FFF765
:10137000A7FE019810F07F4F1AD1FA480078022892
:1013800006D1F94901980840019060680840606002
:101390000198616888420DD1F448009901600020ED
:1013A000F24908717A2002F0B1FD0120BDE8FC810C
:1013B00006B92E4605F1080085B2781C87B2402F89
:1013C000D2DB082221463046FFF7DCFE1EB1792031
:1013D00002F09CFD04E07A2002F098FD0120E5E790
:1013E0000020E3E72DE9FC41044600264FF4226586
:1013F00000272AE0082269462846FFF761FE019887
:1014000010F07F4F1AD1D7480078022806D1D6496C
:101410000198084001906068084060600198616828
:1014200088420DD1D248009901600020D04908714E
:101430007A2002F06BFD0120BDE8FC8106B92E4642
:1014400005F1080085B2781C87B2402FD2DB082254
:1014500021463046FFF796FE1EB1792002F056FD78
:1014600004E07A2002F052FD0120E5E70020E3E7E6
:1014700070B58AB0054620262021684604F0AFFDED
:10148000FF222021684604F0A3FD286880B90024CB
:101490000BE006EB441188B220226946FFF772FE8A
:1014A0006420FFF756FD601C84B2802CF1DB22E043
:1014B00000241CE0082208A93046FFF701FE099825
:1014C00010F07F4F0ED12868089988420AD1FF2278
:1014D000082108A804F07CFD082208A93046FFF77F
:1014E00051FE07E006F1080086B2601C84B2B4F534
:1014F000007FDFDB00BF00200AB070BD70B58AB08E
:1015000005464FF442662021684604F068FDFF223C
:101510002021684604F05CFD286880B900240BE0B7
:1015200006EB441188B220226946FFF72BFE6420A7
:10153000FFF70FFD601C84B2082CF1DB21E00024D2
:101540001CE0082208A93046FFF7BAFD099810F000
:101550007F4F0ED12868089988420AD1FF220821BE
:1015600008A804F035FD082208A93046FFF70AFE56
:1015700006E006F1080086B2601C84B2202CE0DB95
:1015800000BF00200AB070BD70B58AB005464FF4A8
:1015900002662021684604F022FDFF2220216846D1
:1015A00004F016FD286880B900240BE006EB441116
:1015B00088B220226946FFF7E5FD6420FFF7C9FCE9
:1015C000601C84B2102CF1DB21E000241CE0082216
:1015D00008A93046FFF774FD099810F07F4F0ED12F
:1015E0002868089988420AD1FF22082108A804F037
:1015F000EFFC082208A93046FFF7C4FD06E006F11B
:10160000080086B2601C84B2402CE0DB00BF0020E2
:101610000AB070BD70B58AB005464FF4226620212D
:10162000684604F0DCFCFF222021684604F0D0FC70
:10163000286880B900240BE006EB441188B2202210
:101640006946FFF79FFD6420FFF783FC601C84B2AE
:10165000102CF1DB21E000241CE0082208A9304610
:10166000FFF72EFD099810F07F4F0ED128680899DA
:1016700088420AD1FF22082108A804F0A9FC082208
:1016800008A93046FFF77EFD06E006F1080086B2A5
:10169000601C84B2402CE0DB00BF00200AB070BDAB
:1016A00010B588B0202233A1684604F07FFC0024E6
:1016B00008E0002101EB441188B220226946FFF7BF
:1016C00061FD641CA82CF4D308B010BD2DE9FC41C9
:1016D00005460C46202600271DE0082269463046B4
:1016E000FFF7EEFC1F480078022805D11E4901983B
:1016F00008400190084604400198A04206D1DDE967
:101700000001C5E900010120BDE8FC8106F10800E7
:1017100086B2781C87B2B7F5007FDEDB0020F3E7E6
:101720002DE9FC4105460C464FF40266002736E0E1
:10173000082269463046FFF7C3FC0A4800780228B1
:1017400005D10949019808400190084604400198D4
:10175000A0421FD1DDE90001C5E900010120BDE87B
:10176000FC8100007E000020F0FFFF005C000020F4
:1017700066000020FFFFFFFFFFFFFFFFFFFFFFFFEF
:10178000FFFFFFFFFFFFFFFFFFFFFFFFFFFFFFFF69
:10179000FFFFFFFF06F1080086B2781C87B2402FDA
:1017A000C6DB0020BDE8FC812DE9FC4105460C4666
:1017B0004FF4226600271DE0082269463046FFF7F5
:1017C0007FFC30480078022805D12F490198084055
:1017D0000190084604400198A04206D1DDE90001CD
:1017E000C5E900010120BDE8FC8106F1080086B2D0
:1017F000781C87B2402FDFDB0020F4E770B5044689
:101800000D4629462046FFF7CFFF08B1012070BDE5
:1018100029462046FFF784FF08B10220F7E7294652
:101820002046FFF753FF08B10320F0E70020EEE762
:101830002DE9FC4105460C464FF4426600271DE0A9
:10184000082269463046FFF73BFC0E480078022824
:1018500005D10D49019808400190084604400198BF
:10186000A04206D1DDE90001C5E900010120BDE883
:10187000FC8106F1080086B2781C87B2202FDFDBDE
:101880000020F4E77E000020F0FFFF0008B50121F2
:10189000042003F034F93320ADF8000048208DF81F
:1018A00003006946FE4802F067FE08BD06E00C2111
:1018B00000BF0A00A1F10103D9B2FAD10200A0F1E0
:1018C000010398B2F3D1704710B5FF24F5480068C2
:1018D00040B1F548006828B1F448006810B1F448F8
:1018E0000068F8B942F21070FFF7E0FFED480068B9
:1018F00040B1ED48006828B1EC48006810B1EC48F0
:10190000006878B9E748006800B90124E648006833
:1019100000B90224E548006800B90324E4480068DF
:1019200000B90424204610BD10B50020E14908701C
:10193000FFF7CAFFE049087008460078FF2847D142
:10194000DE480078012843D1DD48007818B1DC4832
:1019500000781E2838DD0020D8490870D948007862
:10196000012806D0022821D0042823D0082829D114
:1019700024E0D348007814280CDD0320CD490870FA
:101980000120CF490870D0490870D0490870CA4971
:10199000087018E0CD480078012803D10020CB4919
:1019A000087010E00120C44908700CE00220C24910
:1019B000087008E00320C049087004E00420BE4914
:1019C000087000E000BF03E0BF480078BC49087021
:1019D000B9480078002876D0B7480078012806D0AA
:1019E000022871D0032870D004286FD138E184E038
:1019F000B048007802286ADDB54800784E2846D005
:101A000017DC49283BD00BDC0D282FD003DC28B392
:101A10000C285DD126E00F282CD0482858D12DE085
:101A20004A282DD04B282CD04C282ED04D284FD1D1
:101A30002CE0542837D008DCA0F14F00052847D20D
:101A4000DFE800F0262A2B2C2D0055282CD0562814
:101A50002BD057282AD06A283AD12BE002209C4963
:101A6000087036E033209A49087032E034209849F3
:101A700008702EE03620964908702AE000BF00BFAB
:101A800000BF9448FFF7F4FC23E000BF00BF00BF95
:101A90009148FFF733FD1CE000BF00BF00BF8F4837
:101AA000FFF772FD15E000BF00BF00BF8C48FFF7D5
:101AB000B1FD0EE00220864908704FF44871894854
:101AC00004F08DFA05E033E190E0ACE012E114E0BF
:101AD00000BF00BF7E48007800EB4000824901EB68
:101AE000800080688149086008460068804700BF20
:101AF0006C4800680028FBD010BD6A48006818B127
:101B00006C480078022854DD7148007800283FF4C2
:101B10006FAF6F4800780C28F9D06D4800780D2819
:101B2000F5D06B4800784828F1D0694800784928FA
:101B3000EDD0674800784A28E9D0654800784B28FE
:101B4000E5D0634800784C28E1D0614800784D2802
:101B5000DDD05F4800784E28D9D05D4800784F2806
:101B6000D5D05B4800785028D1D05948007851280A
:101B7000CDD0574800785228C9D05548007853280E
:101B8000C5D0534800785428C1D051480078552812
:101B9000BDD04F4800785628B9D04D480078572816
:101BA000B5D04B4800786A28B1D0494800780F2852
:101BB000ADD04748007800EB40004B4901EB800076
:101BC0004078434908700846007800EB40004649D9
:101BD00001EB80008068454908600846006880473E
:101BE00000BF304800680028FBD0A0E038480078EB
:101BF00000EB40003C4901EB8000807834490870DC
:101C00000846007800EB4000374901EB800080680F
:101C10003649086008460068804700BF22480068CF
:101C20000028FBD083E02A48007800EB40002E49D2
:101C300001EB8000C078264908700846007800EB68
:101C40004000294901EB8000806828490860084667
:101C50000068804700BF154800680028FBD066E098
:101C60000020234908701A48007800EB40001E4904
:101C700001EB80000079164908700846007800EBF7
:101C80004000194901EB8000806818490860084647
:101C90000068804700BF064800680028FBD046E087
:101CA00000080140000121420401214210012142AB
:101CB00014012142080000203D0000208E00002079
:101CC000900000208F000020260000203E00002011
:101CD0003C0000204D000020570000206100002043
:101CE0006B00002010010020586100084000002017
:101CF000250000200F480078012817D100200D4949
:101D000008700D48007800EB40000C4901EB8000A2
:101D100080680B49086008460068804706480078DC
:101D20006A2803D102F068F802F08BF800BF00BF08
:101D300000BFE1E6010000203C00002058610008DF
:101D400040000020C178092923D1817809291AD1BE
:101D50004178092910D10178491C01700021417096
:101D600081700178152904D1002101700121C17011
:101D700012E00121C1700FE04178491C417000213F
:101D80008170C17008E08178491C81700021C170A8
:101D900002E0C178491CC170704710B50446F6488E
:101DA0000078012807D1F5480078012803D12046A2
:101DB00002F0ACF822E0F0480078022807D1EF48A2
:101DC0000078012803D1204602F0A0F816E0EA4886
:101DD0000078032807D1E9480078012803D120467C
:101DE00002F094F80AE0E4480078042806D1E348B9
:101DF0000078012802D1204602F088F810BD10B505
:101E0000DF48007878B9FEF7B2FE4020DD49097856
:101E100001F00301DC4A5054FEF734FED948007843
:101E2000401CD8490870D4480078032802D101F03A
:101E3000C5FF0CE0D0480078022802D101F0ABFFCA
:101E400005E0CD480078042801D101F09DFF10BDC8
:101E500010B50020FEF791FE10BD10B50120FEF771
:101E60008CFE6F20FFF799FF10BD10B50220FEF722
:101E700084FE7020FFF791FF10BD10B50320FEF720
:101E80007CFE7120FFF789FF10BD10B50420FEF71E
:101E900074FE7220FFF781FF10BD10B50520FEF71C
:101EA0006CFE7320FFF779FF10BD10B50620FEF71A
:101EB00064FE7420FFF771FF10BD10B50720FEF718
:101EC0005CFE7520FFF769FF10BD10B50820FEF716
:101ED00054FE7620FFF761FF10BD10B50920FEF714
:101EE0004CFE7720FFF759FF10BD10B50A20FEF712
:101EF00044FE10BD10B50B20FEF73FFE10BD10B51F
:101F00000C20FEF73AFE10BD10B50D20FEF735FE91
:101F100010BD10B50E20FEF730FE10BD10B5FEF757
:101F2000C0FE95480078032810D1984840793B2896
:101F300003D100209549487104E094484079401C41
:101F4000924948719148FEF734FE12E08A480078C1
:101F500002280ED18D48407918B93B208B49487131
:101F600004E08A484079401E884948718748FEF756
:101F700020FE10BD10B5FEF7A9FE7F4800780328AB
:101F800010D182480079172803D100207F490871B9
:101F900004E07E480079401C7C4908717B48FEF7CC
:101FA00008FE12E07448007802280ED177480079C4
:101FB00018B917207549087104E074480079401E6B
:101FC000724908717148FEF7F4FD10BD10B5FEF7B7
:101FD00092FE69480078032810D16C48C0781F2809
:101FE00003D101206949C87004E06848C078401CEA
:101FF0006649C8706548FEF7DCFD13E05E4800786E
:1020000002280FD16148C078012803D11F205F4901
:10201000C87004E05D48C078401E5C49C8705B48E9
:10202000FEF7C7FD10BD10B5FEF77AFE52480078E6
:10203000032810D1554880780C2803D1012053493A
:10204000887004E051488078401C504988704F489F
:10205000FEF7AFFD13E04848007802280FD14B4847
:102060008078012803D10C204849887004E0474853
:102070008078401E454988704448FEF79AFD10BD9F
:1020800010B5FEF762FE3C480078032810D13F48A7
:102090004078632803D100203C49487004E03B4865
:1020A0004078401C394948703848FEF782FD12E0FC
:1020B0003148007802280ED13448407818B963209E
:1020C0003249487004E031484078401E2F4948703A
:1020D0002E48FEF76EFD10BD10B5FEF74DFE2648EA
:1020E0000078032810D12948C079072803D100209F
:1020F0002649C87104E02548C079401C2349C871AD
:102100002248FEF756FD13E01B48007802280FD145
:102110001E48C079012803D107201C49C87104E07A
:102120001A48C079401E1949C8711848FEF741FD88
:1021300010BD10B50120FEF72EFD10BD10B5022018
:10214000FEF729FD10BD10B50320FEF724FD10BDDC
:1021500010B50420FEF71FFD10BD10B50120FEF7DD
:102160001AFD10BD10B50220FEF715FD10BD10B50B
:102170000320FEF710FD10BD3D0000207700002079
:102180001001002080000020E00000202700002037
:1021900010B50420FEF7FFFC10BD10B50120FEF7BE
:1021A000FAFC10BD10B50220FEF7F5FC10BD10B50D
:1021B000F848007803280DD1F7480078632803D148
:1021C0000020F549087015E0F3480078401CF249FA
:1021D00008700FE0EF48007802280BD1EE48007835
:1021E00018B96320EC49087004E0EB480078401E01
:1021F000E9490870E8480078FEF7EDFD10BD10B51C
:10220000E448007803280DD1E4480078632803D11E
:102210000020E249087015E0E0480078401CDF49E2
:1022200008700FE0DB48007802280BD1DB4800780B
:1022300018B96320D949087004E0D8480078401ED6
:10224000D6490870D5480078FEF7C5FD10BD10B519
:102250000120FEF7A0FC10BD10B50220FEF79BFC8C
:1022600010BD10B50320FEF796FC10BD10B504207C
:10227000FEF791FC10BD10B50520FEF78CFC10BDDB
:1022800010B50620FEF787FC10BD10B50720FEF73D
:1022900082FC10BD10B50820FEF77DFC10BD10B506
:1022A0000120FEF778FC10BD10B50220FEF773FC8C
:1022B00010BD10B50320FEF76EFC10BD10B5042054
:1022C000FEF769FC10BD10B50120FEF764FC10BDDF
:1022D00010B50220FEF75FFC0020B149087010BD68
:1022E00010B50120FEF757FC10BD10B50220FEF717
:1022F00052FC10BD704710B5A648007803280BD1DA
:10230000A8480078012803D10020A649087012E0EF
:102310000120A44908700EE09E48007802280AD1E6
:10232000A0480078012803D100209E49087002E0EF
:1023300001209C4908709B480078FEF763FD10BDA2
:1023400010B59448007803280BD1974800780128ED
:1023500003D100209449087012E0012092490870CE
:102360000EE08C48007802280AD18F4800780128B6
:1023700003D100208C49087002E001208A490870CE
:1023800089480078FEF73EFD10BD704710B501206A
:10239000FEF701FC10BD10B50220FEF7FCFB10BDDE
:1023A00010B58248FEF73EFD7A480078032810D128
:1023B0007E48C078092803D100207C49C87004E019
:1023C0007A48C078401C7949C8707848FEF7E8FC24
:1023D00012E07048007802280ED17448C07818B90D
:1023E00009207249C87004E07048C078401E6F49E7
:1023F000C8706E48FEF7D4FC10BD10B56B48FEF7F0
:1024000026FD64480078032810D1684880780928A0
:1024100003D100206549887004E064488078401C3E
:10242000624988706148FEF7BBFC12E059480078A9
:1024300002280ED15D48807818B909205B49887060
:1024400004E05A488078401E584988705748FEF783
:10245000A7FC10BD10B55548FEF70EFD4D4800789D
:10246000032810D151484078092803D100204F4952
:10247000487004E04D484078401C4C4948704B4837
:10248000FEF78EFC12E04348007802280ED1474840
:10249000407818B909204549487004E0434840781D
:1024A000401E424948704148FEF77AFC10BD10B505
:1024B0003E48FEF7F6FC37480078032810D13B4829
:1024C0000078092803D100203849087004E0374813
:1024D0000078401C354908703448FEF761FC12E072
:1024E0002C48007802280ED13048007818B909200D
:1024F0002E49087004E02D480078401E2B490870D2
:102500002A48FEF74DFC10BD10B52948FEF78AFC9D
:1025100020480078032810D12548C078092803D125
:1025200000202349C87004E02148C078401C20499D
:10253000C8701F48FEF734FC12E0164800780228E5
:102540000ED11B48C07818B909201949C87004E099
:102550001748C078401E1649C8701548FEF720FC81
:1025600010BD10B51248FEF772FC0A480078032827
:1025700020D10F488078092803D100200C498870A9
:1025800004E00B488078401C094988700848FEF731
:1025900007FC22E03D000020440000204500002010
:1025A0007F00002047000020460000204800002057
:1025B00052000020F748007802280ED1F6488078B3
:1025C00018B90920F449887004E0F3488078401E67
:1025D000F1498870F048FEF7E3FB10BD10B5EE48F6
:1025E000FEF74AFCEB480078032810D1EA4840780F
:1025F000092803D10020E849487004E0E648407803
:10260000401CE5494870E448FEF7CAFB12E0E14887
:10261000007802280ED1E048407818B90920DE4938
:10262000487004E0DC484078401EDB494870DA48D6
:10263000FEF7B6FB10BD10B5D748FEF732FCD54803
:102640000078032810D1D4480078092803D100204D
:10265000D149087004E0D0480078401CCE49087089
:10266000CD48FEF79DFB12E0CA48007802280ED143
:10267000C948007818B90920C749087004E0C6485D
:102680000078401EC4490870C348FEF789FB10BD9E
:1026900010B5C248FEF7C6FBBE480078032810D12B
:1026A000BE48C078092803D10020BC49C87004E0A6
:1026B000BA48C078401CB949C870B848FEF770FBEA
:1026C00012E0B448007802280ED1B448C07818B996
:1026D0000920B249C87004E0B048C078401EAF4934
:1026E000C870AE48FEF75CFB10BD10B5AB48FEF7F6
:1026F000AEFBA8480078032810D1A84880780928A4
:1027000003D10020A549887004E0A4488078401CCB
:10271000A2498870A148FEF743FB12E09D4800786B
:1027200002280ED19D48807818B909209B498870ED
:1027300004E09A488078401E984988709748FEF7D0
:102740002FFB10BD10B59548FEF796FB9148007819
:10275000032810D191484078092803D100208F49DF
:10276000487004E08D484078401C8C4948708B4884
:10277000FEF716FB12E08748007802280ED1874842
:10278000407818B909208549487004E083484078AA
:10279000401E824948708148FEF702FB10BD10B50B
:1027A0007E48FEF77EFB7B480078032810D17B48EB
:1027B0000078092803D100207849087004E07748A0
:1027C0000078401C754908707448FEF7E9FA12E079
:1027D0007048007802280ED17048007818B9092096
:1027E0006E49087004E06D480078401E6B4908701F
:1027F0006A48FEF7D5FA10BD10B56948FEF712FB1E
:1028000064480078032810D16548C078092803D1AE
:1028100000206349C87004E06148C078401C6049EA
:10282000C8705F48FEF7BCFA12E05A4800780228E8
:102830000ED15B48C07818B909205949C87004E026
:102840005748C078401E5649C8705548FEF7A8FA48
:1028500010BD10B55248FEF7FAFA4E48007803282A
:1028600010D14F488078092803D100204C49887046
:1028700004E04B488078401C494988704848FEF77E
:102880008FFA12E04348007802280ED1444880783D
:1028900018B909204249887004E041488078401EF8
:1028A0003F4988703E48FEF77BFA10BD10B53C48A2
:1028B000FEF7E2FA37480078032810D1384840780C
:1028C000092803D100203649487004E03448407894
:1028D000401C334948703248FEF762FA12E02D4836
:1028E000007802280ED12E48407818B909202C49CA
:1028F000487004E02A484078401E2949487028481A
:10290000FEF74EFA10BD10B52548FEF7CAFA214869
:102910000078032810D122480078092803D100202C
:102920001F49087004E01E480078401C1C490870CC
:102930001B48FEF735FA12E01648007802280ED13F
:102940001748007818B909201549087004E01448A0
:102950000078401E124908701148FEF721FA10BD98
:1029600010B51048FEF75EFA0A48007803281BD11C
:102970000C48C078092803D100200A49C87004E037
:102980000848C078401C0749C8700648FEF708FA96
:102990001DE000003D000020520000205C000020EF
:1029A000660000204D000020F748007802280ED174
:1029B000F648C07818B90920F449C87004E0F34813
:1029C000C078401EF149C870F048FEF7E9F910BD23
:1029D00010B5EE48FEF73BFAEB480078032810D11B
:1029E000EA488078092803D10020E849887004E08B
:1029F000E6488078401CE5498870E448FEF7D0F945
:102A000012E0E148007802280ED1E048807818B939
:102A10000920DE49887004E0DC488078401EDB49EC
:102A20008870DA48FEF7BCF910BD10B5D748FEF73C
:102A300023FAD5480078032810D1D44840780928D3
:102A400003D10020D149487004E0D0484078401CB0
:102A5000CE494870CD48FEF7A3F912E0CA48007885
:102A600002280ED1C948407818B90920C7494870D2
:102A700004E0C6484078401EC4494870C348FEF789
:102A80008FF910BD10B5C148FEF70BFABE480078AB
:102A9000032810D1BD480078092803D10020BB4984
:102AA000087004E0B9480078401CB8490870B7487D
:102AB000FEF776F912E0B448007802280ED1B34848
:102AC000007818B90920B149087004E0AF480078CF
:102AD000401EAE490870AD48FEF762F910BD10B552
:102AE000AB48FEF79FF9A8480078032810D1A84802
:102AF000C078092803D10020A549C87004E0A44883
:102B0000C078401CA249C870A148FEF749F912E0FC
:102B10009D48007802280ED19D48C07818B9092038
:102B20009B49C87004E09A48C078401E9849C87014
:102B30009748FEF735F910BD10B59548FEF787F9AF
:102B400091480078032810D191488078092803D152
:102B500000208F49887004E08D488078401C8C49A3
:102B600088708B48FEF71CF912E08748007802282D
:102B70000ED18748807818B909208549887004E00B
:102B800083488078401E824988708148FEF708F9A2
:102B900010BD10B57E48FEF76FF97B48007803281A
:102BA00010D17B484078092803D10020784948702B
:102BB00004E077484078401C754948707448FEF737
:102BC000EFF812E07048007802280ED17048407883
:102BD00018B909206E49487004E06D484078401EDD
:102BE0006B4948706A48FEF7DBF810BD10B56848BD
:102BF000FEF757F964480078032810D1644800783C
:102C0000092803D100206249087004E06048007878
:102C1000401C5F4908705E48FEF7C2F812E05A484F
:102C2000007802280ED15A48007818B9092058496E
:102C3000087004E056480078401E55490870544812
:102C4000FEF7AEF810BD10B55248FEF7EBF84E484F
:102C50000078032810D14F48C078092803D10020FC
:102C60004C49C87004E04B48C078401C4949C870C2
:102C70004848FEF795F812E04348007802280ED144
:102C80004448C07818B909204249C87004E0414856
:102C9000C078401E3F49C8703E48FEF781F810BD1D
:102CA00010B53C48FEF7D3F837480078032810D118
:102CB00038488078092803D100203649887004E01C
:102CC00034488078401C334988703248FEF768F8F1
:102CD00012E02D48007802280ED12E48807818B9CD
:102CE00009202C49887004E02A488078401E294930
:102CF00088702848FEF754F810BD10B52548FEF737
:102D0000BBF821480078032810D1224840780928D0
:102D100003D100201F49487004E01E484078401C41
:102D20001C4948701B48FEF73BF812E01648007833
:102D300002280ED11748407818B909201549487063
:102D400004E014484078401E124948701148FEF7CC
:102D500027F810BD10B50F48FEF7A3F80A48007811
:102D6000032819D10B480078092803D1002009490C
:102D7000087004E007480078401C064908700548C0
:102D8000FEF70EF81BE000003D0000204D00002083
:102D90005700002061000020FB48007802280ED177
:102DA000FA48007818B90920F849087004E0F74893
:102DB0000078401EF5490870F448FDF7F1FF10BD9A
:102DC00010B5F348FEF72EF8EF480078032810D12D
:102DD000EF48C078092803D10020ED49C87004E00D
:102DE000EB48C078401CEA49C870E948FDF7D8FFB5
:102DF00012E0E548007802280ED1E548C07818B9FD
:102E00000920E349C87004E0E148C078401EE04969
:102E1000C870DF48FDF7C4FF10BD10B5DC48FEF7F1
:102E200016F8D9480078032810D1D94880780928A5
:102E300003D10020D649887004E0D5488078401C32
:102E4000D3498870D248FDF7ABFF12E0CE48007836
:102E500002280ED1CE48807818B90920CC49887054
:102E600004E0CB488078401EC9498870C848FDF707
:102E700097FF10BD10B5C648FDF7FEFFC2480078A9
:102E8000032810D1C2484078092803D10020C04946
:102E9000487004E0BE484078401CBD494870BC48BA
:102EA000FDF77EFF12E0B848007802280ED1B8483E
:102EB000407818B90920B649487004E0B448407811
:102EC000401EB3494870B248FDF76AFF10BD10B507
:102ED000AF48FDF7E6FFAC480078032810D1AC48B6
:102EE0000078092803D10020A949087004E0A84807
:102EF0000078401CA6490870A548FDF751FF12E074
:102F0000A148007802280ED1A148007818B90920FC
:102F10009F49087004E09E480078401E9C49087054
:102F20009B48FDF73DFF10BD10B59748007803287A
:102F30000BD198480078012803D1022095490870E8
:102F400012E00120934908700EE08F4800780228B3
:102F50000AD190480078012803D102208D490870D9
:102F600002E001208B4908708A480078FDF74AFF8B
:102F700010BD10B58448007803280DD1864800782C
:102F8000632803D100208449087015E08248007846
:102F9000401C814908700FE07B48007802280BD163
:102FA0007D48007818B963207B49087004E07A48AE
:102FB0000078401E7849087077480078FDF70BFFCD
:102FC00010BD10B57048007803280DD17348007803
:102FD000072803D100207149087015E06F48007878
:102FE000401C6E4908700FE06748007802280BD13A
:102FF0006A48007818B907206849087004E06748F3
:103000000078401E6549087064480078FDF7FAFEB4
:1030100010BD10B55C48007803280DD160480078D9
:10302000092803D101205E49087016E05C48007849
:10303000401C5B49087010E05348007802280CD10E
:1030400057480078012803D109205549087004E049
:1030500053480078401E5249087051480078FDF7E7
:10306000D1FE10BD10B54848007803280BD14D485B
:103070000078012803D100204A49087012E001209D
:10308000484908700EE04048007802280AD14548B7
:103090000078012803D100204249087002E0012095
:1030A000404908703F480078FDF7ACFE10BD10B5F0
:1030B00035480078032814D13B480078092803D10B
:1030C00001203949087004E037480078401C36492F
:1030D00008703549097801EB4101C8B200F02BFFB7
:1030E00017E029480078022813D12F4800780128DA
:1030F00003D109202C49087004E02B480078401EB9
:10310000294908702849097801EB4101C8B200F04B
:1031100012FF25480078FDF775FE10BD10B51A485E
:10312000007803280DD121480078072803D1012019
:103130001E49087016E01D480078401C1B490870A5
:1031400010E01148007802280CD1184800780128B6
:1031500003D107201549087004E014480078401E88
:103160001249087011480078FDF74CFE10BD10B5EB
:1031700005480078032821D10D480078012819D18D
:1031800000200B49087028E03D000020610000206D
:103190006B000020700000207100002072000020F1
:1031A00073000020740000207500002076000020CD
:1031B000780000200120B84908700EE0B748007878
:1031C00002280AD1B4480078012803D10020B2496E
:1031D000087002E00120B0490870AF480078FDF7A0
:1031E00011FE10BD10B5AD48007803280BD1AC48D6
:1031F0000078012803D10020A949087012E00120BD
:10320000A74908700EE0A548007802280AD1A44812
:103210000078012803D10020A149087002E00120B4
:103220009F4908709E480078FDF7ECFD10BD10B571
:103230009A48007803280BD19A480078012803D1D6
:1032400000209849087012E00120964908700EE0AD
:103250009248007802280AD192480078012803D1C8
:1032600000209049087002E001208E4908708D48C6
:103270000078FDF7C7FD10BD10B588480078032819
:103280000DD1894800780B2803D1002086490870A9
:1032900015E085480078401C834908700FE07F489E
:1032A000007802280BD18048007818B90B207E499D
:1032B000087004E07C480078401E7B4908707A481A
:1032C0000078FDF788FD10BD10B57448007803281C
:1032D0000DD1764800780B2803D10020734908707F
:1032E00015E072480078401C704908700FE06B4888
:1032F000007802280BD16D48007818B90B206B4973
:10330000087004E069480078401E68490870674802
:103310000078FDF760FD10BD10B560480078032807
:103320000DD1634800780B2803D100206049087054
:1033300015E05F480078401C5D4908700FE0574871
:10334000007802280BD15A48007818B90B20584948
:10335000087004E056480078401E554908705448EB
:103360000078FDF738FD10BD10B54C4800780328F3
:103370000DD1504800780B2803D100204D4908702A
:1033800015E04C480078401C4A4908700FE043485B
:10339000007802280BD14748007818B90B2045491E
:1033A000087004E043480078401E424908704148D4
:1033B0000078FDF710FD10BD10B5384800780328DF
:1033C0000BD13D480078012803D102203A4908700A
:1033D00012E00120384908700EE0304800780228D9
:1033E0000AD135480078012803D1022032490870FB
:1033F00002E00120304908702F480078FDF702FDF7
:1034000010BD10B52548007803280DD12B48007851
:10341000262803D100202949087015E027480078A4
:10342000401C264908700FE01C48007802280BD188
:103430002248007818B926202049087004E01F4867
:103440000078401E1D4908701C4909784231C8B2F5
:10345000FEF7A3FC19480078FDF7BDFC10BD10B5C0
:103460000E480078032802D100F0A8FC0CE00B48BD
:103470000078022802D100F08EFC05E007480078B1
:10348000042801D100F080FC0D48007810B900201C
:103490000C49087010BD0000780000203D0000209D
:1034A00077000020790000207A0000207B000020B7
:1034B0007C0000207D0000207E0000207F00002096
:1034C000100100203C0000204A78FB4B9A5CA0F1E0
:1034D0000300C2708A789A5C8270CA789A5C4270E3
:1034E0000A799A5C00F8032BCA7902F00F02A2F164
:1034F0000202072A42D2DFE802F0041023414133DE
:103500003A0010F8032D42F080020270427842F037
:103510008002427000F1030031E010F8032D42F008
:1035200080020270427842F080024270827842F05B
:1035300080028270C27842F0800200F8032F1EE001
:1035400010F8032D42F080020270427842F08002AF
:103550004270827842F08002827000F103000EE037
:1035600010F8022C42F0800200F8022C07E010F85C
:10357000032C42F0800200F8032C00E000BF00BFE3
:10358000704710B5FDF7F3FACC4890F8580020B119
:10359000CA495831CA48FFF797FFC84890F8500009
:1035A00028B1C6495031C648001FFFF78DFFC348F8
:1035B00090F8480028B1C1494831C1480838FFF7A0
:1035C00083FFBE4890F8400028B1BC494031BC4858
:1035D0000C38FFF779FFB94890F8380028B1B7499F
:1035E0003831B7481038FFF76FFFB44890F8300013
:1035F00028B1B2493031B2481438FFF765FFAF48FF
:1036000090F8280028B1AD492831AD481838FFF7A7
:103610005BFFAA4890F8200028B1A8492031A848AB
:103620001C38FFF751FFA548007E28B1A349183187
:10363000A3482038FFF748FFA048007C28B19F49E5
:1036400010319F482438FFF73FFF9C48007A28B18B
:103650009A4908319A482838FFF736FF974800788A
:1036600020B1964996482C38FFF72EFFFDF70AFA4D
:1036700010BD81680160C168416070470246914891
:103680000378002106E012F8310008B908467047B7
:10369000481CC1B28B4800788142F4DB1846F6E73B
:1036A0002DE9F04106468548FFF7E8FF05462F461D
:1036B00000240CE0D6F80100804901EBC401D1F8E8
:1036C0000110884201D1E5B203E0601C44B2AC4273
:1036D000F0DB00BFBD4211D06CB206E0774901EBD0
:1036E000C400FFF7C6FF601C44B2781EA042F5DCA0
:1036F000724800EBC400002101604160FFF741FF08
:10370000BDE8F08170B505462846FFF7B7FF0646CD
:10371000002405E005EBC400FFF7ABFF601CC4B25A
:10372000701EA042F6DC05EBC40000210160416080
:1037300070BD70B505460C462046FFF79FFF064654
:103740006048007886420CD12046FFF7DBFF5D48D9
:103750000078401E04EBC000296801606968416080
:1037600005E004EBC600296801606968416070BD2E
:10377000016881604168C160704770B505462846A0
:10378000FFF77CFF06464F480078864201D1701E45
:10379000C6B2701E44B205E005EBC400FFF7E8FFB7
:1037A000601E44B2002CF7DA00202860686070BD0B
:1037B00070B505460C462046FFF7DFFF28682060FD
:1037C0006868606070BD2DE9F04106463B48FFF730
:1037D00055FF05462F4600240CE0D6F80100374976
:1037E00001EBC401D1F80110884201D1E5B203E038
:1037F000601C44B2AC42F0DB00BFBD421CD032487A
:103800000078012816D1681EC5B26CB206E02B49BB
:1038100001EBC400FFF7ACFF601E44B2002CF6DAE7
:1038200026483168016071684160FFF7AAFE0120F7
:10383000BDE8F0810120FBE70020F9E7234A127878
:10384000012A05D101F00F02214B9A5C027004E0BD
:1038500001F00F021F4B9A5C027070477FB504465F
:103860000D46089E012E02D13320207008E0022E62
:1038700002D13420207003E029462046FFF7DEFF06
:103880000298C4F80100280C6071280AA071E57143
:103890007FBDC1F303524270C1F303428270C1F392
:1038A0000332C270C1F3032202710A0C42710A0A88
:1038B0008271C1717047000026610008100100206C
:1038C0000F01002071000020700000207E00002009
:1038D00091000020A1000020014611F0F00F04D15A
:1038E000F6480078B0EB115F06D0F44800780B285A
:1038F00004D111F0F00F01D1012070470020FCE746
:1039000030B585B00025EE4804680020ED49087008
:103910002046FFF7E1FF78B3214601A8FFF78EFFAD
:10392000214601A8FFF7B5FF9DF80400332824D0F5
:103930009DF8040008B301A8FFF745FF002857D100
:10394000E1480078012810D1E04901A8FFF730FFD5
:10395000DF48007804F00F0300909DF8042001A9CF
:10396000DC48007800F068FC03E0D84901A8FFF7C4
:10397000E0FEFFF706FE3BE003E001A8FFF790FE44
:1039800036E0214603A8FDF739FF054665B30095EB
:10399000214601A8DDE90323FFF760FF9DF804003D
:1039A000332822D09DF80400F8B101A8FFF70BFFDF
:1039B000D0B9C5480078012810D1C44901A8FFF743
:1039C000F7FEC348007804F00F0300909DF8042030
:1039D00001A9C048007800F02FFC03E0BB4901A812
:1039E000FFF7A7FEFFF7CDFD02E001A8FFF758FEA5
:1039F00005B030BDB8480078012808D1B748007834
:103A0000AF49097801F00F01B54A505407E0B348B7
:103A10000078AB49097801F00F01B24A5054704761
:103A20001CB5B14800680090A54800680190684640
:103A3000FDF7D8FC28B9AC48FEF784F94420AB491F
:103A400008701CBD1CB5AA48006800909C4800681E
:103A500001906846FDF780FC28B9A548FEF772F989
:103A60004020A24908701CBD1CB5A2480068009007
:103A70009348006801906846FDF712FC28B99D48FC
:103A8000FEF760F93C20994908701CBD1CB59A48A6
:103A9000006800908A48006801906846FDF7BAFB0C
:103AA00028B99548FEF74EF93820904908701CBD9A
:103AB00030B585B00025824804680020814908702F
:103AC0002046FFF709FF68B3214601A8FFF7B6FEBD
:103AD000214601A8FFF7DDFE9DF8040033281DD024
:103AE0009DF80400D0B101A8FFF76DFE00284AD16F
:103AF000764901A8FFF75CFEFFF743FD74480078A4
:103B000004F00F0300909DF8042001A9714800788B
:103B100000F092FB6A207549087034E001A8FFF7B5
:103B2000BFFD30E0214603A8FDF768FE054635B32A
:103B30000095214601A8DDE90323FFF78FFE9DF8DC
:103B4000040033281CD09DF80400C8B101A8FFF779
:103B50003AFEA0B95D4901A8FFF72AFEFFF711FD63
:103B60005B48007804F00F0300909DF8042001A941
:103B70005848007800F060FB6A205C49087002E059
:103B800001A8FFF78DFD05B030BD1CB54C4800689D
:103B900000287CD0594800780028FAD0584800788E
:103BA000002874DD4648046821466846FDF740FE5B
:103BB00058B101205349087004F00F0052490870B1
:103BC0004F48007851490870D2E051480068A0423F
:103BD000FAD04F48046045480078002847D0434851
:103BE0000078382843D04148007839283FD03F48F2
:103BF00000783A283BD03D4800783B2837D03B48F6
:103C000000783C2833D0394800783D282FD03748F9
:103C100000783E282BD0354800783F2827D03348FD
:103C20000078402823D03148007841281FD02F4801
:103C3000007842281BD02D480078432817D02B4805
:103C40000078442813D02948007845280FD0274809
:103C5000007846280BD025480078472807D023480D
:103C60000078672803D0214800786A2870D11F485F
:103C70000078402866D014DC3B285AD008DCE0B13C
:103C8000382853D0392852D03A286FD150E075E007
:103C90003C2851D03D2850D03E284FD03F2865D1F8
:103CA0004DE0452856D035DC41284CD042284BD039
:103CB00043284AD0442859D14BE034E07A00002010
:103CC000100000208D000020700000201001002056
:103CD00073000020720000207E0000207F00002082
:103CE00091000020A1000020660000203C00002080
:103CF0005C00002052000020480000202500002029
:103D0000260000208E0000208F0000209000002060
:103D10008400002046281ED047281DD067281ED0CA
:103D20006A2823D11EE0FFF7C3FE20E000BF00BFDA
:103D300000BFFFF7ABFE1AE000BF00BF00BFFFF7F8
:103D400093FE14E000BF00BF00BFFFF77BFE0EE054
:103D50000EE000BF00BF00BFFFF762FE07E0FFF705
:103D600049FE04E0FFF7CCFD01E0FFE700BF00BF24
:103D700000204E4908704E49086004E000204B497D
:103D800008704B4908601CBD10B54A48FFF7BAFCE3
:103D9000FFF7F7FB10BD1CB50020009001904548CF
:103DA00001680091406801904248FFF7ABFC41492F
:103DB0006846FFF7BEFCFFF7E4FB1CBD1CB5002006
:103DC000009001903B48FFF759FC0446601E3949BA
:103DD00001EBC0000168009140680190601E354908
:103DE00001EBC00000210160416032496846FFF7E5
:103DF000DFFCFFF7C6FB1CBD10B52F4800782F492C
:103E0000097888420BDA2E4800782B4909788842D5
:103E100005DD2A48007810B12748007858B92748AE
:103E2000007868B92448007850B1254800782249C4
:103E30000978884204DDFFF7A7FF002020490870B9
:103E400010BD10B51D4800781B49097888420BDA6F
:103E50001B48007819490978884205DD1648007822
:103E600010B11648007858B913480078E0B91348E3
:103E70000078C8B11248007810490978884213DDEB
:103E8000FFF789FF00200E4908700E4800780128CE
:103E90000AD10848C07900F00F03064802780146AD
:103EA0000948007800F083F910BD000025000020CB
:103EB00010000020100100204400002045000020D8
:103EC0008D000020740000207200002008B5012140
:103ED000042000F014FE4FF40060ADF8000048200C
:103EE0008DF803006946F14800F046FB7E20FCF7A0
:103EF000FDFA0320FCF7FAFA3320FCF7F7FA042066
:103F0000FCF7F4FAEF20FCF7F1FA08BD10B504460F
:103F10007E20FCF7EBFA0420FCF7E8FA4120FCF7DE
:103F2000E5FA0020FCF7E2FA2046FCF7DFFAEF2082
:103F3000FCF7DCFA10BD10B504467E20FCF7D6FA7B
:103F40000320FCF7D3FA3120FCF7D0FA2046FCF727
:103F5000CDFAEF20FCF7CAFA10BD70B505460C4645
:103F60006078092812DC012D05DC6178491CC8B293
:103F7000FFF7CCFF36E0607888B36178491CC8B29F
:103F8000FFF7C4FF1F20FFF7C1FF2BE060780F2869
:103F900008DC60780A2805DB61781731C8B2FFF7C2
:103FA000B5FF1FE060781038052819D2DFE800F06F
:103FB00003070B0F13002820FFF7A8FF11E02C20A8
:103FC000FFF7A4FF0DE02F20FFF7A0FF09E030204E
:103FD000FFF79CFF05E03520FFF798FF01E001E0C7
:103FE00000BF00BF70BD70B505460C464020FFF70E
:103FF0008DFF6078092805DC6178491CC8B2FFF79D
:1040000085FF2AE060780F2808DC60780A2805DB45
:1040100061781731C8B2FFF779FF1EE06078103879
:10402000052818D2DFE800F003070B0F1300282043
:10403000FFF76CFF10E02C20FFF768FF0CE02F204B
:10404000FFF764FF08E03020FFF760FF04E0352051
:10405000FFF75CFF00E000BF00BF4120FFF756FF05
:1040600070BD70B505460C46012D05DCA178491CD4
:10407000C8B2FFF74BFF0CE0A07850B1A178491C03
:10408000C8B2FFF743FF1D20FFF740FF1E20FFF7D8
:104090003DFF70BD70B505460C46012D05DCE1788D
:1040A000491CC8B2FFF732FF15E0E07898B1E0781C
:1040B00001280BD1207918B90B20FFF727FF0AE060
:1040C00021790B31C8B2FFF721FF04E0E178133109
:1040D000C8B2FFF71BFF70BD70B505460C46012D39
:1040E00005DC2179491CC8B2FFF710FF09E02079EF
:1040F00038B1E078012804D02179491CC8B2FFF713
:1041000005FF70BD10B50446042C06D0052C08D060
:10411000062C0AD0072C10D10BE03E20FFF7F6FE4C
:104120000CE03C20FFF7F2FE08E03D20FFF7EEFE3A
:1041300004E06820FFF7EAFE00E000BF00BF10BD0A
:1041400070B504460D46032C0CDC29462046FFF7CB
:1041500088FF29462046FFF79DFF29462046FFF7A6
:10416000BBFF02E02046FFF7CDFF70BD10B504464F
:10417000322C05DA04F14201C8B2FFF7C7FE04E0B1
:10418000342C02D16820FFF7C1FE10BD70B5054682
:104190000E461446342C01D0262C03D16820FFF79C
:1041A000B5FE03E031462846FFF7CAFF70BD2DE992
:1041B000F04104460F4616461D46032C35DC3E20D2
:1041C000FFF7A4FE0F2D02D13F20FFF79FFE3848D6
:1041D000007828B136480078012804D1022E02DB8D
:1041E0006920FFF793FE0F2D03D039462046FFF7D5
:1041F000B4FE39462046FFF7A3FF2D48007801287A
:1042000004D1012C02DC6920FFF780FE0F2D04D1C0
:1042100039462046FFF7E7FE0CE0012C0AD0032CBC
:1042200008D03046FFF7A2FF04E032463946204668
:10423000FFF7ACFFBDE8F0812DE9F04104460D46E3
:1042400016461F46DDF81880B8F1010F0BDD19483E
:1042500080F80080C66007744470801C2968016083
:104260006968416005E03B46324629462046FFF733
:104270009EFFBDE8F08110B50E480078002814DDDF
:104280000D48007888B10D48006870B100200A49D7
:10429000087008490B7C0A7B4878891CFFF787FF68
:1042A00004480078401E0349087010BD0008014012
:1042B0007800002030040020B20000202C012142B0
:1042C00031490143314A1160704770B50021002324
:1042D0000F22C4780CB32D4C246804F4E064C4F5B8
:1042E000E064210AC1F10403CA40447804FA03F1EE
:1042F0008478144021430901254C0678A15504789F
:1043000004F01F050124AC4005786D114FF0E02644
:1043100006EB8505C5F8004109E0047804F01F05A7
:104320000124AC401B4D0678761145F8264070BD3F
:10433000194A0A400243154B1B1F1A60704739B1D6
:10434000124A121D12680243104B1B1D1A6006E030
:104350000E4A121D126882430C4B1B1D1A607047D7
:10436000042808D14FF0E021096941F004014FF021
:10437000E022116107E04FF0E021096921F004011A
:104380004FF0E022116170470000FA050CED00E0EB
:1043900000E400E080E100E080FFFF1F00204449CE
:1043A0000860091D0860091D0860091D0860414872
:1043B0003F4914310860704700213D498279002A45
:1043C0003AD00A46126803689A430B461A600A1DDF
:1043D000126803689A430B1D1A60027911440A6837
:1043E00003681A430A60324A0832126803689A4323
:1043F0002F4B08331A601A1D126803689A432C4B1E
:104400000C331A604279102A0ED11A1F1268036801
:104410001A43274B08331A601A1D126803681A439F
:10442000234B0C331A600DE02149427911440A688C
:1044300003681A430A6005E0027911440A680368B8
:104440009A430A6070470021016001710C2141719B
:104450000021817170471649103109680143144ADF
:1044600010321160704701460020114A1432126860
:104470000A4201D0012000E0002070470C491431AD
:1044800008607047014600200022094B1B6803EAC0
:104490000102074B14331B680B4202D00AB1012002
:1044A00000E00020704702491431086070470000A6
:1044B00000040140FFFF0F0010B50446CA488442C3
:1044C00008D10121042000F034FB0021042000F079
:1044D00030FB46E0C548844208D10121082000F0A5
:1044E00028FB0021082000F024FB3AE0C048844269
:1044F00008D10121102000F01CFB0021102000F049
:1045000018FB2EE0BB48844208D10121202000F096
:1045100010FB0021202000F00CFB22E0B648844272
:1045200008D10121402000F004FB0021402000F0D0
:1045300000FB16E0B148844208D10121802000F040
:10454000F8FA0021802000F0F4FA0AE0AC48844236
:1045500007D10121801500F0ECFA0021A01500F030
:10456000E8FA10BD10B50121084600F0E2FA00217A
:10457000012000F0DEFA10BD2DE9F04102460025D1
:104580000026002000230024002791F803C00CF02F
:104590000F0591F803C01CF0100F03D091F802C072
:1045A0004CEA050591F800C0BCF1000F31D0146849
:1045B00000202BE04FF0010C0CFA00F3B1F800C022
:1045C0000CEA03069E4220D183004FF00F0C0CFA38
:1045D00003F7BC4305FA03FC4CEA040491F803C05A
:1045E000BCF1280F06D14FF0010C0CFA00FCC2F808
:1045F00014C00AE091F803C0BCF1480F05D14FF098
:10460000010C0CFA00FCC2F810C0401C0828D1D3E1
:104610001460B1F800C0BCF1FF0F34DD5468002015
:104620002EE000F1080C4FF0010808FA0CF3B1F885
:1046300000C00CEA03069E4221D183004FF00F0C0C
:104640000CFA03F7BC4305FA03FC4CEA040491F8A6
:1046500003C0BCF1280F05D100F1080C08FA0CF8D2
:10466000C2F8148091F803C0BCF1480F07D100F1E3
:10467000080C4FF0010808FA0CF8C2F81080401C32
:104680000828CED35460BDE8F0814FF6FF71018059
:10469000022181700421C170704702460020936896
:1046A0000B4201D0012000E00020704701468868DD
:1046B00080B2704702460020D3680B4201D001202F
:1046C00000E0002070470146C86880B27047016171
:1046D0007047416170470AB1016100E04161704774
:1046E000C16070474FF480320A4382618161826108
:1046F00082698269704702460020424B18684FF673
:104700008073184040EA021008433E4B186070471F
:104710003D49C8617047F0B50A46002300240021D6
:10472000002500F00046B6F1004F02D1354EF16988
:1047300001E0344E7168C0F3034583B200F44016C3
:10474000B6F5401F08D121F070612E4E766826F034
:1047500070662C4F7E6012E000F48016B6F5801F64
:1047600006D1032606FA05F4A14341F0706106E084
:10477000460D360103FA06F6B14341F0706122B1ED
:10478000460D360103FA06F6314300F00046B6F155
:10479000004F02D11B4EF16101E01A4E7160F0BD75
:1047A00030B500228B071C0F0F2303FA04F2154BC0
:1047B00008338C1053F824309343124C08348D1076
:1047C00044F8253023468C1053F824308C07240FEE
:1047D00000FA04F423430B4C08348D1044F82530C0
:1047E00030BD0A490860704700080140000C0140D4
:1047F000001001400014014000180140001C01405D
:10480000002001400000014000002042DC00204266
:10481000E448006840F00100E2490860084640684A
:10482000E1490840DF49486008460068DF49084020
:10483000DC4908600846006820F4802008600846CB
:10484000406820F4FE0048604FF41F00886000209C
:10485000C8627047D349096821F48031D14A116098
:104860001146096821F480211160B0F5803F03D022
:10487000B0F5802F0ED106E0CA49096841F48031B5
:10488000C84A116007E0C749096841F4A021C54A38
:10489000116000E000BF00BF704710B50146002264
:1048A000002300204A11012A02D1BE4C236806E0F1
:1048B000022A02D1BB4C236A01E0BA4C636A01F0C0
:1048C0001F02012494401C4201D0012000E000207E
:1048D00010BD38B5002000900024002500BF312015
:1048E000FFF7DBFF05460098401C00900098B0F5EC
:1048F000A06F01D0002DF2D03120FFF7CEFF08B11C
:10490000012400E00024204638BD01460020A54ACD
:10491000106820F0F80040EAC10010607047A44918
:1049200008607047024600209E4B586820F47410BF
:1049300042EA010318439B4B586070479C49086644
:10494000704702460020974BD86A9A4B184042EABB
:1049500001031843934BD862704701460020914AE7
:10496000506820F003000843506070478D4840684D
:1049700000F00C007047014600208A4A506820F081
:10498000F00008435060704701460020854A506897
:1049900020F4E06008435060704701460020814ADF
:1049A000506820F4605040EAC1005060704729B15F
:1049B0007C4A527A02437B4B5A7204E0794A527A1B
:1049C0008243784B5A7270477B49086070470146B2
:1049D0000020744A506820F44040084350607047FB
:1049E0000021764A11706F4A82F82010012802D007
:1049F000042808D103E00121704A117004E0052168
:104A00006E4A117000E000BF00BF70476C4908603B
:104A100070476449096A0143624A116270476849F4
:104A200044390860704770B500210023002400223B
:104A300000255C4E766806F00C0121B1042905D0F2
:104A4000082921D105E05F4E066020E05D4E06603A
:104A50001DE0544E766806F47013524E766806F4E4
:104A60008034022606EB93431CB9574E5E43066022
:104A700009E04C4EF66A06F00F06751C514EB6FB67
:104A8000F5F65E43066002E04E4E066000BF00BFD2
:104A9000444E766806F0F00109094C4E725C0668D7
:104AA000D64046603F4E766806F4E061090A474EFC
:104AB000725C4668D64086603A4E766806F460516D
:104AC000C90A424E725C4668D640C660354E76686A
:104AD00006F44041890B3E4E725CC668B6FBF2F6A6
:104AE000066170BD29B12F4A526902432D4B5A61AC
:104AF00004E02C4A526982432A4B5A61704729B11B
:104B0000284A92690243274B9A6104E0254A926938
:104B10008243244B9A61704729B1224AD2690243E9
:104B2000204BDA6104E01F4AD26982431D4BDA61EF
:104B3000704729B11B4AD26802431A4BDA6004E07D
:104B4000184AD2688243174BDA60704729B1154A78
:104B500012690243134B1A6104E0124A126982433C
:104B6000104B1A6170471649403908607047104968
:104B7000C86470470B49C87170470A48406A40F0E2
:104B8000807008494862704701460020054A9268D3
:104B90000A4201D0012000E00020704701498872DC
:104BA00070470000001002400000FFF8FFFFF6FE13
:104BB00000004242F0FFFEFFD800424220100240B7
:104BC0008004424200127A0000093D00B300002038
:104BD000C300002010B50446FE48844208D10121DC
:104BE000C014FFF7A6FF0021E014FFF7A2FFC4E006
:104BF000B4F1804F08D101210846FFF7A7FF00213B
:104C00000120FFF7A3FFB8E0F348844208D1012157
:104C10000220FFF79BFF00210220FFF797FFACE087
:104C2000EE48844208D101210420FFF78FFF0021C4
:104C30000420FFF78BFFA0E0E948844208D101215E
:104C40000820FFF783FF00210820FFF77FFF94E093
:104C5000E448844208D101211020FFF777FF0021AA
:104C60001020FFF773FF88E0DF48844208D101215C
:104C70002020FFF76BFF00212020FFF767FF7CE07B
:104C8000DA48844208D101214014FFF752FF002185
:104C90006014FFF74EFF70E0D548844209D101212E
:104CA000C804FFF746FF00214FF40020FFF741FF43
:104CB00063E0D048844209D101210805FFF739FF9C
:104CC00000214FF48010FFF734FF56E0CA488442B9
:104CD00009D101214805FFF72CFF00214FF40010F6
:104CE000FFF727FF49E0C548844208D10121402051
:104CF000FFF72CFF00214020FFF728FF3DE0C048D0
:104D0000844208D101218020FFF720FF002180206C
:104D1000FFF71CFF31E0BB48844208D10121801518
:104D2000FFF714FF0021A015FFF710FF25E0B6489C
:104D3000844209D101210804FFF7FBFE00214FF452
:104D40008030FFF7F6FE18E0B048844209D1012117
:104D50004804FFF7EEFE00214FF40030FFF7E9FEB4
:104D60000BE0AB48844208D101218804FFF7E1FE43
:104D700000214FF48020FFF7DCFE10BD00220288E6
:104D8000944B98420ED0994B98420BD0B0F1804F83
:104D900008D0914B984205D0904B984202D0904B4E
:104DA000984204D14FF68F731A404B881A438D4BAB
:104DB000984207D08C4B984204D04FF6FF431A40DC
:104DC000CB881A4302808B8883850B880385814BAF
:104DD00098420BD0854B984208D08B4B984205D017
:104DE0008A4B984202D08A4B984201D10B7A0386B3
:104DF00001238382704770B5002400220023058CB4
:104E00004FF6FE7635400584028C8388048B4FF67E
:104E10008F752C40B51E2C400D882C43751E2A40E2
:104E20000D892A434D882A436A4DA8420BD06F4D05
:104E3000A84208D0744DA84205D0744DA84202D0B3
:104E4000734DA84213D14FF6F7752A404D892A4376
:104E50004FF6FB752A408D882A434FF6FF652B409D
:104E60004FF6FF552B408D892B43CD892B438380F3
:104E70000483CD888586028470BD70B5002400222D
:104E80000023058C4FF6EF7635400584028C83882D
:104E9000048B48F6FF752C404FF6FF452C400D88DB
:104EA0004FF6FF7606EA05252C434FF6DF752A40BC
:104EB0000D8906EA05152A434D8806EA05152A4399
:104EC000444DA84202D0494DA8421DD14FF67F75EE
:104ED0002A404D894FF6FF7606EA05152A434FF61C
:104EE000BF752A408D8806EA05152A434FF6FF351F
:104EF0002B404FF2FF752B408D8906EA85052B4329
:104F0000CD8906EA85052B4383800483CD880587F8
:104F1000028470BD70B5002400220023058C4FF67A
:104F2000FF6635400584028C8388848B4FF68F752D
:104F30002C404FF6FC752C400D882C434FF6FF5546
:104F40002A400D894FF6FF7606EA05252A434D884B
:104F500006EA05252A431F4DA84202D0234DA84248
:104F60001DD14FF2FF752A404D894FF6FF7606EAB4
:104F700005252A434FF6FF352A408D8806EA052588
:104F80002A434EF6FF752B404DF6FF752B408D8959
:104F900006EA05152B43CD8906EA05152B438380C8
:104FA0008483CD888587028470BD70B5002200237C
:104FB0000024058C4EF6FF7635400584038C8488EA
:104FC000828B48F6FF752A404FF6FF452A400D8830
:104FD00020E00000002C01400004004000080040D8
:104FE000000C00400010004000140040003401405C
:104FF000004C0140005001400054014000180040A6
:10500000001C0040002000400040014000440140DE
:10501000004801404FF6FF7606EA05252A434DF683
:10502000FF752B400D8906EA05352B434D8806EAAE
:1050300005352B43FA4DA84202D0FA4DA84208D1BB
:105040004BF6FF752C408D894FF6FF7606EA8515E5
:105050002C4384808283CD88A0F84050038470BDA7
:10506000828B4FF2FF331A408283828B4FF6FF739D
:1050700003EA01231A4382837047F0B50C461546B4
:10508000002200210026078C4EF6FF7C07EA0C0761
:105090000784828B018C4FF6FF7707EA043640F6CF
:1050A000FF473A404FF6FF7707EA05273A434FF6A6
:1050B000FF7707EA03373A43D94FB8420ED0D94FAA
:1050C000B8420BD0B0F1804F08D0D74FB84205D0CE
:1050D000D64FB84202D0D64FB84206D14DF6FF7730
:1050E000394046F48057394305E047F6FF573940C9
:1050F00044F48057394382830184F0BD828B4FF69C
:10510000F3731A408283828B0A4382837047F0B51F
:105110000C461546002200210026078C4FF6FF6C36
:1051200007EA0C070784828B018C4FF6FF7707EAAA
:1051300004264FF60C773A404FF6FF7707EA03173D
:105140002F433A43B64FB8420ED0B64FB8420BD0B9
:10515000B0F1804F08D0B44FB84205D0B34FB84239
:1051600002D0B34FB84206D14FF6FF57394046F44C
:105170008077394305E04FF2FF57394044F4807798
:10518000394382830184F0BD028B4FF2FF331A4012
:105190000283028B4FF6FF7303EA01231A43028353
:1051A0007047F0B50C461546002200210026078CFA
:1051B0004FF6EF7C07EA0C070784028B018C4FF651
:1051C000FF7707EA041640F6FF473A404FF6FF77AD
:1051D00007EA03373A434FF6FF7707EA05273A43D2
:1051E0008F4FB8420ED08F4FB8420BD0B0F1804FE6
:1051F00008D08D4FB84205D08C4FB84202D08C4FAA
:10520000B84206D14FF6DF77394046F010073943F0
:1052100005E04FF65F77394044F0100739430283C9
:105220000184F0BD028B4FF6F3731A400283028BA8
:105230000A4302837047F0B50C4615460022002150
:10524000068C4FF6FE773E400684028B018C4FF6AB
:105250000C7632407E1C06EA03162E433243704E13
:10526000B0420ED06F4EB0420BD0B0F1804F08D09C
:105270006D4EB04205D06D4EB04202D06C4EB04281
:1052800006D14FF6FD76314044F00106314305E08A
:105290004FF6F576314044F0010631430283018434
:1052A000F0BD70B505460C465D4885420ED05D48A0
:1052B00085420BD0B5F1804F08D05B48854205D0C0
:1052C0005A48854202D05A48854200D100E000BFCA
:1052D000208850B92389A28861882846FFF7ABFF50
:1052E000E1882846FFF79EFF25E0208804280AD1A0
:1052F0002389A28861882846FFF753FFE188284662
:10530000FFF742FF17E0208808280AD12389A288E6
:1053100061882846FFF7FBFEE1882846FFF7EEFE8E
:1053200009E02389A28861882846FFF7A6FEE18864
:105330002846FFF795FE70BD2DE9F04105460C4665
:1053400000260127608808B9022600E00026A08810
:10535000012801D1022700E001272088A0B9238974
:10536000A28861882846FFF766FFE1882846FFF794
:1053700059FF23893A4631462846FFF712FFE18854
:105380002846FFF701FF13E02389A2886188284699
:10539000FFF707FFE1882846FFF7F6FE23893A4624
:1053A00031462846FFF747FFE1882846FFF73AFFD6
:1053B000BDE8F0810A884B881A438B881A43CB8852
:1053C0001A430B891A434B891A438B891A43A0F855
:1053D000442070474FF6FF71818000210180C18019
:1053E0004180017270470021018041808180C1802D
:1053F000018141818181C18170470021018041800B
:10540000012181800021C18001817047002101803C
:1054100041808180C180018141818181704700008C
:10542000002C01400034014000040040000800400E
:10543000000C004021B1028842F00102028004E029
:1054400002884FF6FE731A400280704731B1B0F8FF
:10545000442042F40042A0F8442005E0B0F8442083
:10546000C2F30E02A0F8442070471AB183890B439F
:10547000838102E083898B438381704781827047F7
:1054800041EA0203A0F8483070471AB183890B4300
:10549000838102E083898B438381704701894FF6C2
:1054A000F8721140018170470A46002101894FF6C8
:1054B0008F73194011430181704730B504460D4682
:1054C00029462046FFF7F0FF208940F007002081A1
:1054D00030BD2DE9F04104460D4616461F46602DAD
:1054E00006D13B46012231462046FFF75AFE05E031
:1054F0003B46012231462046FFF79DFE29462046C5
:10550000FFF7D2FF208940F007002081BDE8F0813D
:1055100030B50C4600210189C9B24FF6FF7505EA86
:105520000325154325432943018130BD2DE9F04171
:1055300005460E4617469846002443463A463146ED
:105540002846FFF7E5FF2C894FF6F870044044F039
:1055500007044FF68F70044044F070042C81BDE8BE
:10556000F081F0B504460D4616461F463B463246CE
:1055700029462046FFF7CCFF208940F48040208157
:10558000F0BD0185828270470A46002101884FF6EE
:105590008F731940114301807047F0B50C461546D2
:1055A0001E460021002200230189028B038C4FF646
:1055B000F877394021434FF6FC473A4040F2011753
:1055C0003A434FF6DD773B404FF6FF7707EA061781
:1055D0002F433B43018102830384F0BD0A4600212F
:1055E000018B4FF68F7319401143018370470A46B0
:1055F0000021018B48F6FF7319404FF6FF7303EA51
:1056000002231943018370470A460021818B4FF61C
:105610008F7319401143818370470A460021818BA3
:1056200048F6FF7319404FF6FF7303EA022319434C
:105630008183704721B1028842F08002028004E039
:1056400002884FF67F731A400280704721B182882A
:1056500042F00402828004E082884FF6FB731A4015
:105660008280704721B1828842F00802828004E083
:1056700082884FF6F7731A408280704721B1828882
:1056800042F00102828004E082884FF6FE731A40E5
:10569000828070470A460021018B4FF6F77319404C
:1056A0001143018370470A460021018B4FF2FF73BB
:1056B00019404FF6FF7303EA022319430183704731
:1056C0000A460021818B4FF6F773194011438183FD
:1056D00070470A460021818B4FF2FF7319404FF645
:1056E000FF7303EA02231943818370470A460021AE
:1056F000018B4FF6FB7319401143018370470A4633
:105700000021018B4FF6FF3319404FF6FF7303EA78
:1057100002231943018370470A460021818B4FF60B
:10572000FB7319401143818370470A460021818B26
:105730004FF6FF3319404FF6FF7303EA0223194374
:10574000818370470A460021018B4FF67F73194011
:105750001143018370470A460021018BC1F30E01FA
:105760004FF6FF7303EA02231943018370470A4689
:105770000021818B4FF67F7319401143818370475D
:105780000A460021818BC1F30E014FF6FF7303EA35
:1057900002231943818370470A460021018C4FF68A
:1057A000FD7319401143018470470A460021018CA2
:1057B0004FF6F77319401143018470470A460021E0
:1057C000018C4FF6DF7319404FF6FF7303EA0213A3
:1057D0001943018470470A460021018C4FF67F73FC
:1057E00019404FF6FF7303EA02131943018470470F
:1057F0000A460021018C4FF6FF5319404FF6FF7304
:1058000003EA02231943018470470A460021018CF0
:105810004FF2FF7319404FF6FF7303EA0223194357
:10582000018470470A460021018C4DF6FF73194030
:105830004FF6FF7303EA023319430184704730B512
:10584000002301248C40A3B2048C9C430484048C68
:1058500002FA01F5ADB22C43048430BD30B500230B
:1058600004248C40A3B2048C9C430484048C02FA6C
:1058700001F5ADB22C43048430BD70B50346002061
:1058800000241846183001258D40ACB21D8CA5436C
:105890001D8409B1082909D100EB6100056825F0D4
:1058A000700505600568154305600EE00D1FC5F322
:1058B0004E052844056825F4E045056005684FF667
:1058C000FF7606EA02263543056070BD21B10288E5
:1058D00042F00202028004E002884FF6FD731A4093
:1058E0000280704721B1028842F00402028004E085
:1058F00002884FF6FB731A400280704721B18288FC
:1059000042F08002828004E082884FF67F731A4062
:105910008280704702884FF6F7731A40028002882F
:105920000A430280704782884FF68F731A40828044
:1059300082880A438280704702894FF6F8731A40C2
:10594000028102890A430281704702894FF67F7300
:105950001A40028102890A4302817047818470479C
:1059600081857047818670470187704781877047BE
:10597000A0F84010704702884FF6FF431A4002809B
:1059800002880A43028070470146888E70470146AC
:10599000088F70470146888F70470146B1F8400074
:1059A00070470146888C70470146088D7047024653
:1059B0000020138A0B4201D0012000E00020704734
:1059C000CA430282704730B50246002000230024FB
:1059D000158A05EA0103958905EA010413B10CB1A2
:1059E000012000E0002030BDCA4302827047000061
:1059F00010B50446FB48844209D101218803FFF712
:105A000098F800214FF48040FFF793F832E0F64811
:105A1000844209D101214804FFF798F800214FF48E
:105A20000030FFF793F825E0F048844209D10121C6
:105A30008804FFF78BF800214FF48020FFF786F8E9
:105A400018E0EB48844209D10121C804FFF77EF831
:105A500000214FF40020FFF779F80BE0E54884427D
:105A600008D101210805FFF771F800214FF48010DB
:105A7000FFF76CF810BD2DE9F04786B005460E46DD
:105A80000024A24600BFA1460027B08900B100BF94
:105A90002F462C8A4CF6FF700440F08804432C8279
:105AA000AC894EF6F3100440B088318908437189FF
:105AB00008430443AC81AC8A4FF6FF400440B089F0
:105AC0000443AC8201A8FEF7AEFFC648874202D16C
:105AD000DDF810A001E0DDF80CA0A88910F4004F5B
