:020000040800F2
:100000000808002001010008990100089B01000870
:100010009F010008A3010008A701000800000000DC
:10002000000000000000000000000000AD0100081A
:10003000AB01000800000000AF010008B10100089A
:100040001B0100081B0100081B0100081B01000820
:100050001B0100081B0100081B0100081B01000810
:100060001B0100081B0100081B0100081B01000800
:100070001B0100081B0100081B0100081B010008F0
:100080001B0100081B0100081B0100081B010008E0
:100090001B0100081B0100081B0100081B010008D0
:1000A0001B0100081B0100081B0100081B010008C0
:1000B0001B0100081B0100081B0100081B010008B0
:1000C0001B0100081B0100081B0100081B010008A0
:1000D0001B0100089B040008C50300081B01000861
:1000E000B10400081B0100081B010008DFF80CD058
:1000F00004F0EAFF00480047250100080808002036
:100100000648804706480047FEE7FEE7FEE7FEE7B1
:10011000FEE7FEE7FEE7FEE7FEE7FEE7854F0008A5
:10012000ED0000084FF4A06003F034F900F07CF813
:1001300000F0B3F800F0DEF800F01DF900F050F91F
:1001400000F08DF900F037FA00F0A3FA00F056FC49
:1001500000F088FE01F024FA06A004F0C7FF01F0C9
:10016000F7F908A004F0C2FF03E002F010FF01F06D
:1001700065FAFAE748656C6C6F2073746D33322E44
:100180002000000044656C6574655F416C6C5F44E1
:10019000617461200D0A2000704700BFFEE700BFB8
:1001A000FEE700BFFEE700BFFEE7704770477047FD
:1001B00010480068401C0F49086008460068642821
:1001C0000AD90D480078401C0B49087001200B49E2
:1001D000087000200749086009480068401C084969
:1001E000086008460068B0F5C87F02D900200549BC
:1001F0000860704704000020080000200100002073
:10020000880000208400002010B5002807DA0A07C3
:10021000140E344A00F00F031B1FD45403E00A07E6
:10022000130E314A135410BD10B503F05BFB0120CF
:1002300003F0DFFB00BF212003F099FB0028FAD078
:100240004FF48011002003F0D7FB002003F0FDFBEA
:10025000002003F003FC4FF4806003F008FC012051
:1002600003F0D6FB00BF392003F081FB0028FAD051
:10027000022003F0DCFB00BF03F0E2FB0828FBD107
:100280000121084603F0A5FC0121184803F0ADFA4E
:100290000121C80303F0A9FA10BD10B51448006885
:1002A000C821B0FBF1F4B4F1807F01D3012011E04B
:1002B00024F07F40401E4FF0E02148610F214FF0B5
:1002C000FF30FFF7A1FF00204FF0E02188610720F9
:1002D0000861002008B100BFFEE70021481EFFF7BB
:1002E00093FF10BD18ED00E000E400E000023000D4
:1002F000A000002000B585B00121042003F069FCB6
:100300000121480403F072FC0420ADF8100018200D
:100310008DF8130003208DF8120004A92D4803F076
:1003200095F94FF48060ADF8100004208DF81300AB
:1003300004A9284803F08AF94FF4165000900020D1
:10034000ADF80400ADF80600ADF80800ADF80C00FB
:100350000C20ADF80A0069461F4804F0F6FB0122A4
:1003600040F225511C4804F088FC01211A4804F091
:1003700078FC05B000BD08B526208DF800000120EE
:100380008DF8010000208DF8020001208DF8030097
:10039000684603F004F808BD70B504460D46E1B2A6
:1003A0000D4804F0CBFC00BF0B48008810F0800F14
:1003B000FAD0204670BD10B50446214607A004F0CF
:1003C00095FE10BD10B540F22551034804F03AFDEA
:1003D00010BD0000000801400044004025630000FB
:1003E00000B585B0012144F2040003F0F2FB4FF4A4
:1003F0000070ADF8100018208DF8130003208DF860
:10040000120004A9284803F021F94FF48060ADF8E8
:10041000100004208DF8130004A9234803F016F9F6
:100420004FF4165000900020ADF80400ADF806001F
:10043000ADF80800ADF80C000C20ADF80A006946D4
:100440001A4804F082FB012240F22551174804F0BB
:1004500014FC0121154804F004FC05B000BD08B5EA
:1004600025208DF8000001208DF8010000208DF876
:10047000020001208DF80300684602F090FF08BDDD
:1004800010B504462146094804F058FC00BF07484F
:10049000008810F0800FFAD010BD10B540F2255141
:1004A000024804F0CFFC10BD0008014000380140B4
:1004B00070B500256548006810F4004F00D0012594
:1004C0004FF08040848C00204FF080418884002DC4
:1004D0003FD0B4F5967F57DD5D480078182853DD8E
:1004E0005C48006840085B4908600846006820F0E6
:1004F0007F400860084600685749084223D05548A5
:1005000000685649096888420CD155480078401C5B
:10051000534908704F480068524908600120524909
:1005200008700DE000204E4908704A4800684B49A9
:100530000860484800684B49086001204A49087033
:1005400000204A490860002042490860404908707C
:100550001AE0152C01DBD22C05DD00203C49087087
:100560003C49086010E03B48006840003949086099
:10057000552C04DD0846006840F00100086034484E
:100580000078401C324908704FF4004002F0F5FF3B
:1005900070BD08B50121042003F01BFB4FF400409F
:1005A000ADF8000048208DF8030069462748083858
:1005B00003F04CF808BD10B586B00024FFF7E9FF42
:1005C0000121084603F005FB0F21002003F052F93A
:1005D0004FF40040049000208DF8140010208DF896
:1005E000150001208DF8160004A802F04FFF282006
:1005F0008DF80C0000208DF80D008DF80E00012004
:100600008DF80F0003A802F0CAFE0121084603F08E
:10061000EDFA174800681749B0FBF1F0401E84B2AC
:100620004FF6FF70ADF80400ADF800400020ADF8C3
:100630000600ADF8020069464FF0804003F008FC68
:100640000121880703F060FF06B010BD08080140D3
:10065000240000201C000020F0FFFF0020000020EC
:100660002600002010000020250000208800002027
:10067000A0000020A086010005E0022100BF4A1E64
:1006800092B21100FBD10200A0F1010398B2F4D1A3
:10069000704708B50121082003F09BFA10208DF85F
:1006A000030003208DF802004FF47870ADF80000CD
:1006B0006946FE4802F0CAFF48208DF8030010206A
:1006C000ADF800006946F94802F0C0FF08BD30B53A
:1006D00004460020F6490860054618E00020F54968
:1006E000086014F0010F04D00120A1F1040108609A
:1006F00002E00020F04908604FF00500FFF7BCFF62
:100700000120EC4908604FEA640405F10105082D59
:10071000E4D30020E7490860E849C1F8A00130BDF2
:1007200030B504460020E6490860054617E0002081
:10073000E049086014F0010F03D00120DE49086091
:1007400002E00020DC4908604FF00500FFF794FF4D
:100750000120D84908604FEA640405F10105082D1D
:10076000E5D30020D3490860D449C1F8A00130BDC9
:1007700030B504460020D3490860054617E0002044
:10078000CC49086014F0010F03D00120CA49086069
:1007900002E00020C84908604FF00500FFF76CFF39
:1007A0000120C44908604FEA640405F10105082DE1
:1007B000E5D30020BF490860C049C1F8A00130BDA1
:1007C00010B504460120BA4908604FF00500FFF754
:1007D00053FF0020B949C1F894012046FFF777FF85
:1007E00010BDF8B5FF26002000904220FFF7E8FF7B
:1007F0000120B54908604FF00004CEE000251BE061
:100800000020AC4908601DF804004FEA60000DF8B4
:1008100004004FF00100A949C1F8A401AA480068EA
:1008200028B11DF8040040F080000DF804000520F8
:10083000FFF722FF681CC5B2082DE1DB0520FFF79A
:100840001BFF9DF8000048B99DF8010030B99DF8E4
:10085000020018B99DF8030000286ED09DF8000032
:10086000102818D008DC01280DD002280DD004284B
:100870000DD0082817D10CE020280ED040280ED02B
:10088000802810D10DE019260EE011260CE0092673
:100890000AE0012608E01A2606E0122604E00A26ED
:1008A00002E0022600E000BF00BF9DF80100102812
:1008B00018D008DC01280DD002280DD004280DD056
:1008C000082817D10CE020280ED040280ED0802810
:1008D00010D10DE01B260EE013260CE00B260AE0DB
:1008E000032608E01C2606E0142604E00C2602E09D
:1008F000042600E000BF00BF9DF80200102818D0B9
:1009000008DC01280DD002280DD004280DD00828BD
:1009100018D10CE020280ED040280FD0802811D10B
:100920000EE01D260FE015260DE00D260BE0052636
:1009300009E01E2607E0162605E02CE00E2602E060
:10094000062600E000BF00BF9DF80300102818D065
:1009500008DC01280DD002280DD004280DD008286D
:1009600017D10CE020280ED040280ED0802810D1BE
:100970000DE01F260EE017260CE00F260AE00726E2
:1009800008E0202606E0182604E0102602E00826EB
:1009900000E000BF00BF601CC4B2042CFFF62EAF05
:1009A0000020444908604549C1F810014FF001009A
:1009B0003F4908603046F8BD10B504460120404963
:1009C00008604FF00500FFF757FE00203B49C1F8D3
:1009D00098012046FFF7A4FE10BD10B50446012083
:1009E000384908604FF00500FFF746FE0020334904
:1009F000C1F89C012046FFF7BBFE10BD10B540209A
:100A0000FFF7DEFEC020FFF7DBFE00240AE02F49DF
:100A1000085DFFF75CFE2D490831085DFFF757FEC2
:100A2000601CC4B2082CF2DB8C20FFF7C9FE012049
:100A30001F4908604FF04000FFF7BEFFC020FFF7DE
:100A4000BBFF00240BE021491031085DFFF768FE71
:100A50001E491831085DFFF763FE601CC4B2082C04
:100A6000F1DB8C20FFF7A8FF0120154908604FF04B
:100A70004000FFF7B2FFC020FFF7AFFF00240BE0FC
:100A800012492031085DFFF773FE10492831085DD7
:100A9000FFF76EFE601CC4B2082CF1DB8C20FFF760
:100AA0009CFF01200749086010BD0000000C0140B8
:100AB00094812142A4812142A081214200802142CF
:100AC000988121429C81214210812142B80000205E
:100AD00010B53021D64804F0ECFA10BD10B504462C
:100AE000FFF7F6FFD348C07BD1494870D148005D7D
:100AF0000870FFF783FF10BD10B50446FFF7E8FF4D
:100B0000CC48807BCA494870CA48005D0870FFF72E
:100B100075FF10BD10B50446FFF7DAFF20780A21F3
:100B200090FBF1F0C349095CC148C17220780A21E9
:100B300090FBF1F201FB1200BE49095CBC488172D6
:100B400060780A2190FBF1F0BA49095CB84841721B
:100B500060780A2190FBF1F201FB1200B549085CB4
:100B6000B3490872A0780A2190FBF1F0B149085C02
:100B7000AF49C871A0780A2190FBF1F201FB120085
:100B8000AC49085CAA498871E0780A2190FBF1F031
:100B9000A849085CA6494871E0780A2190FBF1F267
:100BA00001FB1200A349085CA149087120790A21C0
:100BB00090FBF1F09F49085C9D49C87020790A219B
:100BC00090FBF1F201FB12009A49085C9849887089
:100BD00060790A2190FBF1F09649085C94494870CD
:100BE00060790A2190FBF1F201FB12009149085C47
:100BF0008F490870E0798F49095C8D480173FFF7D0
:100C0000FDFE10BD10B58C48007848B90020884919
:100C100048700870FFF7F2FE01208749087005E070
:100C20008648FFF777FF00208349087010BD10B594
:100C30008348007848B900207D49C8708870FFF764
:100C4000DDFE01207E49087005E07C48FFF762FF69
:100C500000207B49087010BD10B57A48007848B96B
:100C60000020734948710871FFF7C8FE01207549DB
:100C7000087005E07148FFF74DFF002071490870CA
:100C800010BD10B57048007848B900206849C87197
:100C90008871FFF7B3FE01206B49087005E06748D3
:100CA000FFF738FF00206849087010BD10B567488D
:100CB000007858B900215E48417200205C490872F2
:100CC000FFF79CFE01206149087005E05B48FFF7D3
:100CD00021FF00205D49087010BD10B55C48007808
:100CE00040B9002152480173FFF788FE012058499E
:100CF000087005E05148FFF70DFF002054490870C7
:100D000010BD10B50446FFF7E3FE20784949085CA2
:100D10004749C87060784749085C45498870A078A1
:100D20004449085C42494870E0784249085C4049BF
:100D30000870FFF763FE10BD10B50446FFF7C8FE4C
:100D40000A2094FBF0F03B49085C394948700A20BE
:100D500094FBF0F100FB11403649085C34490870FF
:100D6000FFF74CFE10BD10B50446FFF7B1FE0A2098
:100D700094FBF0F100FB11402E49085C2C490870EF
:100D8000FFF73CFE10BD10B504463248007840B96C
:100D9000002027490870FFF731FE01202D49087017
:100DA00005E02046FFF7ADFF00202A49087010BD7E
:100DB00010B504462848007840B900201C49487006
:100DC000FFF71CFE01202449087005E02046FFF7CC
:100DD00098FF00202049087010BD10B504461F4838
:100DE000007840B9002012498870FFF707FE012003
:100DF0001A49087005E02046FFF783FF00201749D5
:100E0000087010BD10B504461548007840B90020A0
:100E10000749C870FFF7F2FD01201149087005E08D
:100E20002046FFF76EFF00200D49087010BD00003E
:100E3000B8000020FA5100082F00002027000020F1
:100E4000300000203100002032000020330000205C
:100E5000340000203500002036000020370000203C
:100E60003800002008B50121082002F0B2FE14204D
:100E70008DF8030003208DF802008002ADF8000019
:100E80006946FC4802F0E2FB10208DF803000002E6
:100E9000ADF800006946F74802F0D8FB0120F6499A
:100EA0000860F649C1F8AC014FF00000F449086051
:100EB00008BD06E0072100BF0A00A1F10103D9B275
:100EC000FAD10200A0F1010398B2F3D1704710B536
:100ED0000120EC4908604FF00500FFF7EAFF012010
:100EE000E649C1F8A8010520FFF7E3FF0020E54926
:100EF00008604FF00500FFF7DCFF0020DF49C1F874
:100F0000A8010520FFF7D5FF10BD70B504460025E8
:100F10001FE014F0800F03D00120DA49086002E0DE
:100F20000020D84908604FF00200FFF7C2FF0120FF
:100F3000D34908604FF00200FFF7BBFF6006040EC4
:100F40000020CE49C1F8A8010220FFF7B2FF681CBB
:100F5000C5B2082DDDDB0120CA4908604FF0020050
:100F6000FFF7A7FF0120C549C1F8A8010220FFF73C
:100F7000A0FFC548006808B1012070BD0020C0492D
:100F800008604FF00200FFF794FF0020BB49C1F852
:100F9000AC010220FFF78DFF0020EEE770B50024C2
:100FA0000120B84908604FF0000517E06006040E04
:100FB0000120B34908604FF00200FFF77AFFAF4805
:100FC000D0F82C0108B144F001040020AC490860BD
:100FD0004FF00200FFF76DFF681CC5B2082DE5DB7E
:100FE000204670BD10B50020A54908604FF00500EF
:100FF000FFF75FFF0020A149C1F8AC010520FFF712
:1010000058FF01209E4908604FF00500FFF751FF8F
:1010100001209A49C1F8AC010520FFF74AFF10BD35
:101020002DE9F04106460C4617460125FFF74FFF14
:10103000A020FFF76AFF054615B10120BDE8F08149
:10104000C6F30420FFF761FF05460DB10120F5E767
:10105000F0B2FFF75AFF05460DB10120EEE7FFF7AA
:1010600036FFA120FFF751FF05460DB10120E5E74E
:101070001AE0FFF793FF20700020824908604FF0CC
:101080000500FFF716FF01207C49C1F8A8010520E3
:10109000FFF70FFF00207A4908604FF00500FFF7C7
:1010A00008FF641C781E87B2012FE2DCFFF776FF91
:1010B00020700120734908604FF00500FFF7F9FE2A
:1010C00001206E49C1F8A8010520FFF7F2FE0020BB
:1010D0006B4908604FF00500FFF7EBFEFFF782FF5A
:1010E0000020ABE72DE9F0478046894616460125EA
:1010F000002061490860044634E008EB040087B230
:10110000FFF7E5FEA020FFF700FF054615B101201F
:10111000BDE8F087C7F30420FFF7F7FE05460DB1E1
:101120000120F5E7F8B2FFF7F0FE05460DB101200A
:10113000EEE74FF0000A0DE019F80400FFF7E5FEB6
:1011400005460DB10120E3E7601C84B20AF10100FD
:1011500000F0FF0AB245EFDBFFF744FF4FF4FA60FF
:10116000FFF7A7FEB442C8DB0120434908604FF0F7
:101170000000CDE72DE9FC4104460026202500278C
:101180001CE0082269462846FFF74AFF019810F044
:101190007F4F0CD10198616888420AD13B48009981
:1011A00001600020394908710120BDE8FC8106B9C1
:1011B0002E4605F1080085B2781C87B2B7F5007F8E
:1011C000DFDB082221463046FFF78CFF0EB90120F5
:1011D000EBE70020E9E72DE9FC41044600264FF447
:1011E000426500271CE0082269462846FFF718FFE1
:1011F000019810F07F4F0CD10198616888420AD1A4
:101200002348009901600020214908710120BDE8B0
:10121000FC8106B92E4605F1080085B2781C87B21C
:10122000202FE0DB082221463046FFF75BFF0EB996
:101230000120ECE70020EAE72DE9FC410446002606
:101240004FF4026500272EE0082269462846FFF782
:10125000E7FE019810F07F4F1ED101986168884227
:101260001CD10C480099016000200A490871012036
:10127000BDE8FC81000C0140B08121420080214288
:10128000A8812142AC8121422C81214248000020CA
:10129000520000205C00002006B92E4605F108002F
:1012A00085B2781C87B2402FCEDB0822214630461B
:1012B000FFF718FF0EB90120DAE70020D8E72DE983
:1012C000FC41044600264FF4226500271CE008225A
:1012D00069462846FFF7A4FE019810F07F4F0CD115
:1012E0000198616888420AD1A448009901600020F1
:1012F000A24908710120BDE8FC8106B92E4605F11E
:10130000080085B2781C87B2402FE0DB0822214616
:101310003046FFF7E7FE0EB90120ECE70020EAE7D0
:1013200070B58AB0054620262021684603F0C1FE2C
:10133000FF222021684603F0B5FE286880B900240A
:101340000BE006EB441188B220226946FFF7CAFE83
:101350006420FFF7AEFD601C84B2802CF1DB22E03C
:1013600000241CE0082208A93046FFF759FE09981E
:1013700010F07F4F0ED12868089988420AD1FF22C9
:10138000082108A803F08EFE082208A93046FFF7BE
:10139000A9FE07E006F1080086B2601C84B2B4F52D
:1013A000007FDFDB00BF00200AB070BD70B58AB0DF
:1013B00005464FF442662021684603F07AFEFF227C
:1013C0002021684603F06EFE286880B900240BE0F7
:1013D00006EB441188B220226946FFF783FE6420A1
:1013E000FFF767FD601C84B2082CF1DB21E00024CC
:1013F0001CE0082208A93046FFF712FE099810F0F9
:101400007F4F0ED12868089988420AD1FF2208210F
:1014100008A803F047FE082208A93046FFF762FE3D
:1014200006E006F1080086B2601C84B2202CE0DBE6
:1014300000BF00200AB070BD70B58AB005464FF4F9
:1014400002662021684603F034FEFF222021684610
:1014500003F028FE286880B900240BE006EB441155
:1014600088B220226946FFF73DFE6420FFF721FD88
:10147000601C84B2102CF1DB21E000241CE0082267
:1014800008A93046FFF7CCFD099810F07F4F0ED128
:101490002868089988420AD1FF22082108A803F089
:1014A00001FE082208A93046FFF71CFE06E006F1FF
:1014B000080086B2601C84B2402CE0DB00BF002034
:1014C0000AB070BD70B58AB005464FF4226620217F
:1014D000684603F0EEFDFF222021684603F0E2FD9E
:1014E000286880B900240BE006EB441188B2202262
:1014F0006946FFF7F7FD6420FFF7DBFC601C84B250
:10150000102CF1DB21E000241CE0082208A9304661
:10151000FFF786FD099810F07F4F0ED128680899D3
:1015200088420AD1FF22082108A803F0BBFD082247
:1015300008A93046FFF7D6FD06E006F1080086B29E
:10154000601C84B2402CE0DB00BF00200AB070BDFC
:1015500010B588B020220AA1684603F091FD00244E
:1015600008E0002101EB441188B220226946FFF710
:10157000B9FD641CA82CF4D308B010BD660000208F
:10158000FFFFFFFFFFFFFFFFFFFFFFFFFFFFFFFF6B
:10159000FFFFFFFFFFFFFFFFFFFFFFFFFFFFFFFF5B
:1015A00008B50121042002F014FB3320ADF800003F
:1015B00048208DF803006946974802F047F808BDB7
:1015C00006E00C2100BF0A00A1F10103D9B2FAD153
:1015D0000200A0F1010398B2F3D1704710B5FF24C7
:1015E0008E48006840B18E48006828B18D48006878
:1015F00010B18D480068F8B942F21070FFF7E0FFB3
:101600008648006840B18648006828B1854800686F
:1016100010B18548006878B98048006800B9012495
:101620007F48006800B902247E48006800B903249E
:101630007D48006800B90424204610BD10B5002084
:101640007A490870FFF7CAFF7949087008460078A0
:1016500000286ED008460078012806D002286CD0F9
:10166000032868D0042867D1A1E032E06F480078F1
:1016700002282EDD6F48007830B10C2808D00D28E4
:101680000AD00F2810D10BE002206A4908700CE044
:1016900033206849087008E034206649087004E087
:1016A00036206449087000E000BF00BF6148007840
:1016B00000EB4000604901EB800080685F490860F2
:1016C00008460068804700BF544800680028FBD0E7
:1016D00010BD5248006878B9564800780028C5D037
:1016E000544800780C28C1D0524800780D28BDD04D
:1016F000504800780F28B9D04E48007800EB4000E1
:101700004D4901EB800040784A490870084600784E
:1017100000EB4000484901EB8000806847490860C1
:1017200008460068804700BF3C4800680028FBD09E
:101730006FE06FE001E01DE056E03E48007800EB0E
:1017400040003D4901EB800080783A490870084626
:10175000007800EB4000384901EB80008068374991
:10176000086008460068804700BF2D4800680028D0
:10177000FBD04EE02F48007800EB40002E4901EBF3
:101780008000C0782B4908700846007800EB4000C4
:10179000294901EB800080682849086008460068F4
:1017A000804700BF1F4800680028FBD031E0214877
:1017B000007800EB4000204901EB800000791D49D2
:1017C00008700846007800EB40001B4901EB8000E0
:1017D00080681A49086008460068804700BF1248C0
:1017E00000680028FBD014E01548007801280FD1CC
:1017F0000020134908700F48007800EB40000E49A4
:1018000001EB800080680D49086008460068804749
:1018100000BF00BF00BF5BE700080140000121429C
:10182000040121421001214214012142080000203C
:101830003D0000203C0000202C5200084000002009
:1018400001000020014600204A7802EBC20303EBAE
:10185000021200EB82008A7802EB820200EB420067
:10186000CA78024490B2704710B5B0F57A5F00DBD9
:1018700000204FF47A7390FBF3F30B704FF47A73FC
:1018800090FBF3F403FB14039AB2642392FBF3F38B
:101890004B70642392FBF3F403FB14239AB20A23E4
:1018A00092FBF3F38B700A2392FBF3F403FB1423F4
:1018B000CB7000230B7110BDC178092923D1817829
:1018C00009291AD14178092910D10178491C0170E0
:1018D0000021417081700178152904D10021017027
:1018E0000121C17012E00121C1700FE04178491C53
:1018F000417000218170C17008E08178491C8170BD
:101900000021C17002E0C178491CC170704710B558
:10191000FFF7DEF84020F849097801F00301F74AA3
:101920005054FFF76BF8F4480078401CF2490870F7
:1019300010BD10B50020FFF7D1F810BD10B5012083
:10194000FFF7CCF810BD10B50220FFF7C7F810BDA7
:1019500010B50320FFF7C2F810BD10B50420FFF743
:10196000BDF810BD10B50520FFF7B8F810BD10B5D3
:101970000620FFF7B3F810BD10B50720FFF7AEF84B
:1019800010BD10B50820FFF7A9F810BD10B509204B
:10199000FFF7A4F810BD10B50A20FFF79FF810BD9F
:1019A00010B50B20FFF79AF810BD10B50C20FFF70B
:1019B00095F810BD10B50D20FFF790F810BD10B5CB
:1019C0000E20FFF78BF810BD10B5FFF71BF9CC48C0
:1019D0000078032810D1CB4840793B2803D1002060
:1019E000C849487104E0C7484079401CC54948715E
:1019F000C448FFF78FF812E0C148007802280ED1E2
:101A0000C048407918B93B20BE49487104E0BD4840
:101A10004079401EBB494871BA48FFF77BF810BDBA
:101A200010B5FFF704F9B6480078032810D1B5487F
:101A30000079172803D10020B249087104E0B148A9
:101A40000079401CAF490871AE48FFF763F812E017
:101A5000AB48007802280ED1AA48007918B917209F
:101A6000A849087104E0A7480079401EA5490871FB
:101A7000A448FFF74FF810BD10B5FFF7EDF8A048E8
:101A80000078032810D19F48C0781F2803D1012077
:101A90009C49C87004E09B48C078401C9949C870B4
:101AA0009848FFF737F813E09548007802280FD1DF
:101AB0009448C078012803D11F209249C87004E0DF
:101AC0009048C078401E8F49C8708E48FFF722F8B2
:101AD00010BD10B5FFF7D5F889480078032810D15C
:101AE000884880780C2803D101208649887004E05A
:101AF00084488078401C834988708248FFF70AF840
:101B000013E07F48007802280FD17E4880780128B2
:101B100003D10C207B49887004E07A488078401E0D
:101B2000784988707748FEF7F5FF10BD10B5FFF7CC
:101B3000BDF873480078032810D1724840786328B4
:101B400003D100206F49487004E06E484078401C83
:101B50006C4948706B48FEF7DDFF12E0684800787A
:101B600002280ED16748407818B96320654948704B
:101B700004E064484078401E624948706148FEF7BE
:101B8000C9FF10BD10B5FFF7A8F85D48007803281D
:101B900010D15C48C079072803D100205949C87189
:101BA00004E05848C079401C5649C8715548FEF7B2
:101BB000B1FF13E05248007802280FD15148C07994
:101BC000012803D107204F49C87104E04D48C0796E
:101BD000401E4C49C8714B48FEF79CFF10BD10B524
:101BE0000120FEF789FF10BD10B50220FEF784FF2B
:101BF00010BD10B50320FEF77FFF10BD10B5042007
:101C0000FEF77AFF10BD10B50120FEF775FF10BD7D
:101C100010B50220FEF770FF10BD10B50320FEF7CF
:101C20006BFF10BD10B50420FEF766FF10BD10B5A8
:101C30000120FEF761FF10BD10B50220FEF75CFF2A
:101C400010BD10B52E48007803280DD12E4800781D
:101C5000632803D100202C49087015E02A48007839
:101C6000401C294908700FE02548007802280BD154
:101C70002548007818B963202349087004E02248F9
:101C80000078401E204908701F480078FFF754F87C
:101C900010BD10B51A48007803280DD11B480078F4
:101CA000632803D100201949087015E0174800780F
:101CB000401C164908700FE01148007802280BD12B
:101CC0001248007818B963201049087004E00F48E2
:101CD0000078401E0D4908700C480078FFF72CF87A
:101CE00010BD10B50120FEF707FF10BD10B5022092
:101CF000FEF702FF10BD000080000020B8000020A9
:101D00003D00002027000020440000204500002066
:101D100010B50320FEF7F0FE10BD10B50420FEF74D
:101D2000EBFE10BD10B50520FEF7E6FE10BD10B5A8
:101D30000620FEF7E1FE10BD10B50720FEF7DCFE21
:101D400010BD10B50820FEF7D7FE10BD10B501205C
:101D5000FEF7D2FE10BD10B50220FEF7CDFE10BD7D
:101D600010B50320FEF7C8FE10BD10B50420FEF725
:101D7000C3FE10BD10B50120FEF7BEFE10BD10B5AC
:101D80000220FEF7B9FE10BD10B50120FEF7B4FE2B
:101D900010BD10B50220FEF7AFFE10BD704710B5A4
:101DA000FC48007803280BD1FB480078012803D1B8
:101DB0000020F949087012E00120F74908700EE090
:101DC000F448007802280AD1F3480078012803D1AA
:101DD0000020F149087002E00120EF490870EE4848
:101DE0000078FEF7C0FF10BD10B5EA480078032860
:101DF0000BD1EA480078012803D10020E749087098
:101E000012E00120E54908700EE0E248007802285F
:101E10000AD1E2480078012803D10020DF49087088
:101E200002E00120DD490870DC480078FEF79BFFE6
:101E300010BD704710B50120FEF75EFE10BD10B555
:101E40000220FEF759FE10BD10B5D548FEF79BFFE6
:101E5000D0480078032810D1D148C078092803D190
:101E60000020CF49C87004E0CD48C078401CCC4960
:101E7000C870CB48FEF745FF12E0C648007802283C
:101E80000ED1C748C07818B90920C549C87004E008
:101E9000C348C078401EC249C870C148FEF731FF30
:101EA00010BD10B5BE48FEF783FFBA48007803287E
:101EB00010D1BB488078092803D10020B849887028
:101EC00004E0B7488078401CB5498870B448FEF7F4
:101ED00018FF12E0AF48007802280ED1B048807891
:101EE00018B90920AE49887004E0AD488078401EDA
:101EF000AB498870AA48FEF704FF10BD10B5A8488A
:101F0000FEF76BFFA3480078032810D1A44840785F
:101F1000092803D10020A249487004E0A048407875
:101F2000401C9F4948709E48FEF7EBFE12E099481E
:101F3000007802280ED19A48407818B909209849AB
:101F4000487004E096484078401E9549487094488F
:101F5000FEF7D7FE10BD10B59148FEF753FF8D4830
:101F60000078032810D18E480078092803D100207A
:101F70008B49087004E08A480078401C8849087042
:101F80008748FEF7BEFE12E08248007802280ED194
:101F90008348007818B909208149087004E0804816
:101FA0000078401E7E4908707D48FEF7AAFE10BDED
:101FB00010B57C48FEF7E7FE76480078032810D17C
:101FC0007848C078092803D100207649C87004E019
:101FD0007448C078401C7349C8707248FEF791FE7F
:101FE00012E06C48007802280ED16E48C07818B90B
:101FF00009206C49C87004E06A48C078401E6949ED
:10200000C8706848FEF77DFE10BD10B56548FEF744
:10201000CFFE60480078032810D1624880780928F4
:1020200003D100205F49887004E05E488078401C3E
:102030005C4988705B48FEF764FE12E05548007802
:1020400002280ED15748807818B909205549887060
:1020500004E054488078401E524988705148FEF789
:1020600050FE10BD10B54F48FEF7B7FE4948007846
:10207000032810D14B484078092803D10020494952
:10208000487004E047484078401C4649487045483D
:10209000FEF737FE12E03F48007802280ED1414893
:1020A000407818B909203F49487004E03D4840781D
:1020B000401E3C4948703B48FEF723FE10BD10B55A
:1020C0003848FEF79FFE33480078032810D1354882
:1020D0000078092803D100203249087004E0314813
:1020E0000078401C2F4908702E48FEF70AFE12E0C7
:1020F0002848007802280ED12A48007818B909200B
:102100002849087004E027480078401E25490870D7
:102110002448FEF7F6FD10BD10B52348FEF733FE48
:102120001C480078032810D11F48C078092803D123
:1021300000201D49C87004E01B48C078401C1A49A3
:10214000C8701948FEF7DDFD12E012480078022839
:102150000ED11548C07818B909201349C87004E099
:102160001148C078401E1049C8700F48FEF7C9FDDD
:1021700010BD10B50C48FEF71BFE0648007803287A
:102180001DD109488078092810D10020064988709F
:1021900011E000003D000020470000204600002024
:1021A00048000020520000205C000020F7488078A2
:1021B000401CF6498870F548FEF7A3FD12E0F4488C
:1021C000007802280ED1F148807818B90920EF492B
:1021D000887004E0ED488078401EEC498870EB4838
:1021E000FEF78FFD10BD10B5E848FEF7F6FDE84894
:1021F0000078032810D1E5484078092803D1002051
:10220000E249487004E0E1484078401CDF494870EA
:10221000DE48FEF776FD12E0DD48007802280ED198
:10222000DA48407818B90920D849487004E0D748FE
:102230004078401ED5494870D448FEF762FD10BD75
:1022400010B5D248FEF7DEFDD1480078032810D142
:10225000CE480078092803D10020CC49087004E05A
:10226000CA480078401CC9490870C848FEF749FDB3
:1022700012E0C748007802280ED1C448007818B987
:102280000920C249087004E0C0480078401EBF49D8
:102290000870BE48FEF735FD10BD10B5BD48FEF70D
:1022A00072FDBB480078032810D1BA48C0780928CD
:1022B00003D10020B749C87004E0B648C078401C7C
:1022C000B449C870B348FEF71CFD12E0B04800786E
:1022D00002280ED1AF48C07818B90920AD49C8709E
:1022E00004E0AC48C078401EAA49C870A948FEF76F
:1022F00008FD10BD10B5A748FEF75AFDA4480078A8
:10230000032810D1A3488078092803D10020A149CF
:10231000887004E09F488078401C9E4988709D48E2
:10232000FEF7EFFC12E09A48007802280ED1994897
:10233000807818B909209749887004E0954880781A
:10234000401E944988709348FEF7DBFC10BD10B521
:102350009048FEF742FD8E480078032810D18D4842
:102360004078092803D100208A49487004E0894850
:102370004078401C874948708648FEF7C2FC12E04E
:102380008348007802280ED18248407818B9092085
:102390008049487004E07F484078401E7D4948707D
:1023A0007C48FEF7AEFC10BD10B57A48FEF72AFD5A
:1023B00077480078032810D176480078092803D19F
:1023C00000207449087004E072480078401C71498C
:1023D00008707048FEF795FC12E06D4800780228FE
:1023E0000ED16C48007818B909206A49087004E0D9
:1023F00068480078401E674908706648FEF781FC0F
:1024000010BD10B56448FEF7BEFC61480078032893
:1024100010D16148C078092803D100205E49C870F6
:1024200004E05D48C078401C5B49C8705A48FEF71C
:1024300068FC12E05648007802280ED15648C07851
:1024400018B909205449C87004E05348C078401EA8
:102450005149C8705048FEF754FC10BD10B54E48A5
:10246000FEF7A6FC4A480078032810D14A48807835
:10247000092803D100204849887004E04648807844
:10248000401C454988704448FEF73BFC12E0404838
:10249000007802280ED14048807818B909203E49BA
:1024A000887004E03C488078401E3B4988703A4878
:1024B000FEF727FC10BD10B53748FEF78EFC3448F8
:1024C0000078032810D134484078092803D100202F
:1024D0003149487004E030484078401C2E4948702B
:1024E0002D48FEF70EFC12E02948007802280ED194
:1024F0002948407818B909202749487004E026483F
:102500004078401E244948702348FEF7FAFB10BD6E
:1025100010B52148FEF776FC1D480078032810D13D
:102520001D480078092803D100201B49087004E0E9
:1025300019480078401C184908701748FEF7E1FB5D
:1025400012E01348007802280ED11348007818B919
:1025500009201149087004E00F480078401E0E4918
:1025600008700D48FEF7CDFB10BD10B50B48FEF707
:102570000AFC0748007803281BD10848C0780928BE
:102580000ED100200549C8700FE000005C0000205B
:102590003D000020660000204D0000205700002074
:1025A000F748C078401CF649C870F548FEF7A9FB0B
:1025B00012E0F448007802280ED1F148C07818B92A
:1025C0000920EF49C87004E0ED48C078401EEC498E
:1025D000C870EB48FEF795FB10BD10B5E848FEF754
:1025E000E7FBE8480078032810D1E54880780928FF
:1025F00003D10020E249887004E0E1488078401C63
:10260000DF498870DE48FEF77CFB12E0DD48007889
:1026100002280ED1DA48807818B90920D849887084
:1026200004E0D7488078401ED5498870D448FEF72A
:1026300068FB10BD10B5D248FEF7CFFBD14800783B
:10264000032810D1CE484078092803D10020CC4976
:10265000487004E0CA484078401CC9494870C848DE
:10266000FEF74FFB12E0C748007802280ED1C4489D
:10267000407818B90920C249487004E0C048407841
:10268000401EBF494870BE48FEF73BFB10BD10B569
:10269000BB48FEF7B7FBBB480078032810D1B84809
:1026A0000078092803D10020B549087004E0B44837
:1026B0000078401CB2490870B148FEF722FB12E0D6
:1026C000B048007802280ED1AD48007818B909202A
:1026D000AB49087004E0AA480078401EA849087079
:1026E000A748FEF70EFB10BD10B5A748FEF74BFB41
:1026F000A4480078032810D1A348C078092803D142
:102700000020A149C87004E09F48C078401C9E4941
:10271000C8709D48FEF7F5FA12E09A480078022842
:102720000ED19948C07818B909209749C87004E0BB
:102730009548C078401E9449C8709348FEF7E1FA66
:1027400010BD10B59048FEF733FB8E480078032883
:1027500010D18D488078092803D100208A498870DB
:1027600004E089488078401C874988708648FEF7D5
:10277000C8FA12E08348007802280ED18248807897
:1027800018B909208049887004E07F488078401E8D
:102790007D4988707C48FEF7B4FA10BD10B57A48C0
:1027A000FEF71BFB77480078032810D17648407865
:1027B000092803D100207449487004E07248407829
:1027C000401C714948707048FEF79BFA12E06D4852
:1027D000007802280ED16C48407818B909206A495F
:1027E000487004E068484078401E67494870664871
:1027F000FEF787FA10BD10B56348FEF703FB61488A
:102800000078032810D160480078092803D10020FF
:102810005D49087004E05C480078401C5A49087023
:102820005948FEF76EFA12E05648007802280ED199
:102830005548007818B909205349087004E05248F7
:102840000078401E504908704F48FEF75AFA10BDF4
:1028500010B54E48FEF797FA4A480078032810D181
:102860004A48C078092803D100204849C87004E0CC
:102870004648C078401C4549C8704448FEF741FAB4
:1028800012E04048007802280ED14048C07818B9BC
:1028900009203E49C87004E03C48C078401E3B49CE
:1028A000C8703A48FEF72DFA10BD10B53748FEF74C
:1028B0007FFA34480078032810D1344880780928FA
:1028C00003D100203149887004E030488078401CF2
:1028D0002E4988702D48FEF714FA12E02948007836
:1028E00002280ED12948807818B909202749887014
:1028F00004E026488078401E244988702348FEF76B
:1029000000FA10BD10B52148FEF767FA1D4800789F
:10291000032810D11D484078092803D100201B4905
:10292000487004E019484078401C1849487017481E
:10293000FEF7E7F912E01348007802280ED1134899
:10294000407818B909201149487004E00F484078D0
:10295000401E0E4948700D48FEF7D3F910BD10B562
:102960000A48FEF74FFA07480078032819D10748AC
:10297000007809280CD10020044908700DE00000FF
:10298000570000203D000020610000206B00002067
:10299000F8480078401CF7490870F648FEF7B1F98E
:1029A00012E0F548007802280ED1F248007818B9F4
:1029B0000920F049087004E0EE480078401EED4917
:1029C0000870EC48FEF79DF910BD10B5EA48007894
:1029D00003280BD1E9480078012803D10020E749FA
:1029E000087012E00120E54908700EE0E248007826
:1029F00002280AD1E1480078012803D10020DF49EC
:102A0000087002E00120DD490870DC480078FEF71C
:102A1000AAF910BD10B5D848007803280DD1D848C0
:102A20000078632803D10020D549087015E0D44808
:102A30000078401CD24908700FE0CF480078022887
:102A40000BD1CF48007818B96320CD49087004E055
:102A5000CB480078401ECA490870C9480078FEF784
:102A60006BF910BD10B5C448007803280DD1C548D6
:102A70000078072803D10020C249087015E0C1483A
:102A80000078401CBF4908700FE0BB48007802285E
:102A90000BD1BC48007818B90720BA49087004E087
:102AA000B8480078401EB7490870B6480078FEF76D
:102AB0005AF910BD10B5B048007803280DD1B248BE
:102AC0000078092803D10120AF49087016E0AE480C
:102AD0000078401CAC49087010E0A7480078022834
:102AE0000CD1A9480078012803D10920A649087013
:102AF00004E0A5480078401EA3490870A248007869
:102B0000FEF731F910BD10B59B48007803280BD1B2
:102B10009E480078012803D100209C49087012E0EB
:102B200001209A4908700EE09348007802280AD1E3
:102B300096480078012803D100209449087002E0EB
:102B400001209249087091480078FEF70CF910BDF9
:102B500010B58948007803280DD18D4800780928E0
:102B600003D101208A49087016E089480078401C8A
:102B70008749087010E08048007802280CD184480A
:102B80000078012803D109208149087004E08048B9
:102B90000078401E7E4908707D480078FEF7E3F813
:102BA00010BD10B57448007803280DD1794800781D
:102BB000072803D101207749087016E0754800788E
:102BC000401C7449087010E06B48007802280CD152
:102BD00070480078012803D107206E49087004E08E
:102BE0006C480078401E6B4908706A480078FEF710
:102BF000BAF810BD10B56048007803280BD16648BC
:102C00000078012803D100206349087012E00120F8
:102C1000614908700EE05848007802280AD15E48E1
:102C20000078012803D100205B49087002E00120F0
:102C30005949087058480078FEF795F810BD10B54E
:102C40004D48007803280BD154480078012803D15F
:102C500000205249087012E00120504908700EE02F
:102C60004548007802280AD14C480078012803D151
:102C700000204A49087002E001204849087047488E
:102C80000078FEF770F810BD10B53B4800780328B7
:102C90000BD143480078012803D100204049087037
:102CA00012E001203E4908700EE033480078022807
:102CB0000AD13B480078012803D100203849087028
:102CC00002E001203649087035480078FEF74BF8DD
:102CD00010BD10B52848007803280DD13148007880
:102CE0000B2803D100202F49087015E02D480078EB
:102CF000401C2C4908700FE01F48007802280BD1B7
:102D00002848007818B90B202649087004E02548A7
:102D10000078401E2349087022480078FEF70CF81E
:102D200010BD10B51448007803280DD11E48007856
:102D30000B2803D100201C49087015E01A480078C0
:102D4000401C194908700FE00B48007802280BD18D
:102D50001548007818B90B201349087004E0124890
:102D60000078401E104908700F480078FDF7E4FF16
:102D700010BD00006B0000203D000020700000200E
:102D800071000020720000207300002074000020F9
:102D900075000020760000207700002078000020D9
:102DA000790000207A0000207B00002010B54E48FA
:102DB000007803280DD14D4800780B2803D100205E
:102DC0004A49087015E049480078401C4749087096
:102DD0000FE04548007802280BD14448007818B924
:102DE0000B204249087004E040480078401E3F49EB
:102DF00008703E480078FDF79FFF10BD10B53A48B7
:102E0000007803280DD13A4800780B2803D1002020
:102E10003749087015E036480078401C344908707E
:102E20000FE03148007802280BD13148007818B9FA
:102E30000B202F49087004E02D480078401E2C49D3
:102E400008702B480078FDF777FF10BD10B52648B5
:102E5000007803280BD127480078012803D10220ED
:102E60002449087012E00120224908700EE01E4833
:102E7000007802280AD11F480078012803D10220D7
:102E80001C49087002E001201A49087019480078AE
:102E9000FDF769FF10BD10B51348007803280DD168
:102EA00015480078262803D100201349087015E042
:102EB00011480078401C104908700FE00A4800785B
:102EC00002280BD10C48007818B926200A4908704E
:102ED00004E009480078401E074908700648007859
:102EE000FDF72AFF10BD00003D0000207C000020FF
:102EF0007D0000207E0000207F0000201CB5FE48E1
:102F000000680090FD48006801906846FEF7D7F918
:102F100028B9F948FEF7D0FC4420F94908701CBDD7
:102F20001CB5F84800680090F448006801906846B5
:102F3000FEF782F928B9F348FEF7BEFC4020F049BD
:102F400008701CBD1CB5F04800680090EB48006894
:102F500001906846FEF73FF928B9EB48FEF7ACFC54
:102F60003C20E74908701CBD1CB5E848006800908B
:102F7000E248006801906846FEF7FCF828B9E3488B
:102F8000FEF79AFC3820DE4908701CBD704710B56A
:102F9000DA480068002877D0DD4800780028FAD0A9
:102FA000D7480078F0B3D648007838283DD0D448C8
:102FB0000078392839D0D24800783A2835D0D0481E
:102FC00000783B2831D0CE4800783C282DD0CC4822
:102FD00000783D2829D0CA4800783E2825D0C84826
:102FE00000783F2821D0C648007840281DD0C4482A
:102FF0000078412819D0C2480078422815D0C0482E
:103000000078432811D0BE48007844280DD0BC4831
:103010000078452809D0BA480078462805D0B84835
:10302000007800E001E047284ED1BA480078002837
:1030300045DDB2480468B8480068A0423FD0B648B1
:103040000460AF4800783F2828D011DC3B281FD00F
:1030500007DCB0B1382818D0392817D03A282CD13D
:1030600015E03C2817D03D2816D03E2825D114E085
:103070004038082821D2DFE800F0141516171A1B73
:103080001C1DFFF783FF19E01EE000BF00BF00BF5B
:10309000FFF76AFF12E000BF00BF00BFFFF752FF5B
:1030A0000CE000BF00BF00BFFFF73AFF06E000BF23
:1030B00000BF00BFFFF722FF00E000BF00BF0020FD
:1030C000934908708D49086010BD81680160C1682E
:1030D00041607047016881604168C1607047024685
:1030E0008E480378002106E012F8310008B1084646
:1030F0007047481CC1B2894800788142F4DB184609
:10310000F6E770B505462846FFF7E9FF06460024B6
:1031100005E005EBC400FFF7D8FF601CC4B2B44261
:10312000F7DB601E05EBC00000210160416070BD4F
:1031300070B504462046FFF7D2FF0646701EC5B2A2
:1031400005E004EBC500FFF7C5FF681EC5B2002D02
:10315000F7DC00202060606070BD70B505460C464D
:103160002046FFF7E5FF286820606868606070BD52
:1031700070B505460C462046FFF7B1FF0646674886
:10318000007886420CD12046FFF7BBFF63480078E9
:10319000401E04EBC000296801606968416005E0D9
:1031A00004EBC600296801606968416070BD4A7817
:1031B0005B4B9A5CA0F10300C2708A789A5C8270C3
:1031C000CA789A5C42700A799A5C00F8032BCA7933
:1031D00002F00F02A2F10202072A42D2DFE802F057
:1031E0000410234141333A0010F8032D42F08002CD
:1031F0000270427842F08002427000F1030031E038
:1032000010F8032D42F080020270427842F08002F2
:103210004270827842F080028270C27842F080026E
:1032200000F8032F1EE010F8032D42F08002027018
:10323000427842F080024270827842F080028270CE
:1032400000F103000EE010F8022C42F0800200F8BA
:10325000022C07E010F8032C42F0800200F8032C47
:1032600000E000BF00BF704710B5FDF731FC2D48EE
:1032700090F8580020B12B4958312B48FFF797FFA1
:10328000284890F8500028B1264950312648001FA0
:10329000FFF78DFF234890F8480028B121494831B5
:1032A00021480838FFF783FF1E4890F8400028B1F6
:1032B0001C4940311C480C38FFF779FF194890F839
:1032C000380028B11749383117481038FFF76FFF19
:1032D000144890F8300028B112493031124814389F
:1032E000FFF765FF0F4890F8280020B10D492831FD
:1032F0000D4818381AE01BE066000020100000207E
:103300003C0000205C00002052000020480000200B
:1033100025000020260000208400002071000020ED
:10332000FA510008E8000020E7000020FFF73FFF07
:10333000164890F8200020B1144920311448FFF7B6
:1033400036FF1248007E28B1104918311048001F7E
:10335000FFF72DFF0D48007C28B10C4910310C48B7
:103360000838FFF724FF0948007A28B107490831D7
:1033700007480C38FFF71BFF0448007820B10349C9
:1033800003481038FFF713FF10BD0000E8000020CD
:10339000CB00002031490143314A1160704770B5BC
:1033A000002100230F22C4780CB32D4C246804F4B0
:1033B000E064C4F5E064210AC1F10403CA40447822
:1033C00004FA03F18478144021430901254C06785E
:1033D000A155047804F01F050124AC4005786D1157
:1033E0004FF0E02606EB8505C5F8004109E00478BA
:1033F00004F01F050124AC401B4D0678761145F8FA
:10340000264070BD194A0A400243154B1B1F1A6023
:10341000704739B1124A121D12680243104B1B1D2E
:103420001A6006E00E4A121D126882430C4B1B1DE7
:103430001A607047042808D14FF0E021096941F073
:1034400004014FF0E022116107E04FF0E02109692B
:1034500021F004014FF0E022116170470000FA05ED
:103460000CED00E000E400E080E100E080FFFF1FE1
:10347000002044490860091D0860091D0860091DF5
:10348000086041483F4914310860704700213D49B8
:103490008279002A3AD00A46126803689A430B469A
:1034A0001A600A1D126803689A430B1D1A6002799C
:1034B00011440A6803681A430A60324A08321268E3
:1034C00003689A432F4B08331A601A1D1268036869
:1034D0009A432C4B0C331A604279102A0ED11A1FD2
:1034E000126803681A43274B08331A601A1D1268C2
:1034F00003681A43234B0C331A600DE021494279CB
:1035000011440A6803681A430A6005E0027911440D
:103510000A6803689A430A607047002101600171DC
:103520000C214171002181717047164910310968E1
:103530000143144A10321160704701460020114ABD
:10354000143212680A4201D0012000E000207047C6
:103550000C49143108607047014600200022094BD5
:103560001B6803EA0102074B14331B680B4202D0AD
:103570000AB1012000E000207047024914310860C0
:103580007047000000040140FFFF0F0010B5044623
:10359000CA48844208D10121042000F034FB0021F4
:1035A000042000F030FB46E0C548844208D10121E8
:1035B000082000F028FB0021082000F024FB3AE05E
:1035C000C048844208D10121102000F01CFB0021DA
:1035D000102000F018FB2EE0BB48844208D10121E6
:1035E000202000F010FB0021202000F00CFB22E046
:1035F000B648844208D10121402000F004FB00219C
:10360000402000F000FB16E0B148844208D10121BF
:10361000802000F0F8FA0021802000F0F4FA0AE09F
:10362000AC48844207D10121801500F0ECFA00215A
:10363000A01500F0E8FA10BD10B50121084600F011
:10364000E2FA0021012000F0DEFA10BD2DE9F04180
:10365000024600250026002000230024002791F8C0
:1036600003C00CF00F0591F803C01CF0100F03D03D
:1036700091F802C04CEA050591F800C0BCF1000FBA
:1036800031D0146800202BE04FF0010C0CFA00F34D
:10369000B1F800C00CEA03069E4220D183004FF02F
:1036A0000F0C0CFA03F7BC4305FA03FC4CEA0404C4
:1036B00091F803C0BCF1280F06D14FF0010C0CFAB1
:1036C00000FCC2F814C00AE091F803C0BCF1480F36
:1036D00005D14FF0010C0CFA00FCC2F810C0401CE0
:1036E0000828D1D31460B1F800C0BCF1FF0F34DD5D
:1036F000546800202EE000F1080C4FF0010808FA91
:103700000CF3B1F800C00CEA03069E4221D18300FD
:103710004FF00F0C0CFA03F7BC4305FA03FC4CEA1C
:10372000040491F803C0BCF1280F05D100F1080C86
:1037300008FA0CF8C2F8148091F803C0BCF1480FE5
:1037400007D100F1080C4FF0010808FA0CF8C2F894
:103750001080401C0828CED35460BDE8F0814FF69D
:10376000FF710180022181700421C17070470246FF
:10377000002093680B4201D0012000E00020704738
:103780000146886880B2704702460020D3680B4229
:1037900001D0012000E0002070470146C86880B2D7
:1037A000704701617047416170470AB1016100E0F3
:1037B00041617047C16070474FF480320A438261B3
:1037C0008161826182698269704702460020424BB2
:1037D00018684FF68073184040EA021008433E4BC9
:1037E000186070473D49C8617047F0B50A4600232C
:1037F00000240021002500F00046B6F1004F02D160
:10380000354EF16901E0344E7168C0F3034583B26F
:1038100000F44016B6F5401F08D121F070612E4E1D
:10382000766826F070662C4F7E6012E000F48016F9
:10383000B6F5801F06D1032606FA05F4A14341F030
:10384000706106E0460D360103FA06F6B14341F019
:10385000706122B1460D360103FA06F6314300F0DD
:103860000046B6F1004F02D11B4EF16101E01A4E45
:103870007160F0BD30B500228B071C0F0F2303FAD7
:1038800004F2154B08338C1053F824309343124C38
:1038900008348D1044F8253023468C1053F824301A
:1038A0008C07240F00FA04F423430B4C08348D10CA
:1038B00044F8253030BD0A490860704700080140CF
:1038C000000C0140001001400014014000180140AC
:1038D000001C014000200140000001400000204287
:1038E000DC002042E448006840F00100E249086042
:1038F00008464068E1490840DF49486008460068DA
:10390000DF490840DC4908600846006820F4802050
:1039100008600846406820F4FE0048604FF41F002D
:1039200088600020C8627047D349096821F480315B
:10393000D14A11601146096821F480211160B0F567
:10394000803F03D0B0F5802F0ED106E0CA49096848
:1039500041F48031C84A116007E0C749096841F461
:10396000A021C54A116000E000BF00BF704710B53C
:1039700001460022002300204A11012A02D1BE4C38
:10398000236806E0022A02D1BB4C236A01E0BA4C4C
:10399000636A01F01F02012494401C4201D00120FF
:1039A00000E0002010BD38B5002000900024002564
:1039B00000BF3120FFF7DBFF05460098401C009058
:1039C0000098B0F5A06F01D0002DF2D03120FFF7A4
:1039D000CEFF08B1012400E00024204638BD014696
:1039E0000020A54A106820F0F80040EAC1001060ED
:1039F0007047A44908607047024600209E4B5868F3
:103A000020F4741042EA010318439B4B586070473E
:103A10009C490866704702460020974BD86A9A4B2B
:103A2000184042EA01031843934BD862704701469D
:103A30000020914A506820F003000843506070470E
:103A40008D48406800F00C007047014600208A4A0B
:103A5000506820F0F0000843506070470146002095
:103A6000854A506820F4E060084350607047014682
:103A70000020814A506820F4605040EAC100506044
:103A8000704729B17C4A527A02437B4B5A7204E058
:103A9000794A527A8243784B5A7270477B49086060
:103AA000704701460020744A506820F440400843A3
:103AB000506070470021764A11706F4A82F82010DA
:103AC000012802D0042808D103E00121704A1170B6
:103AD00004E005216E4A117000E000BF00BF70478E
:103AE0006C49086070476449096A0143624A11627F
:103AF0007047684944390860704770B50021002359
:103B00000024002200255C4E766806F00C0121B1ED
:103B1000042905D0082921D105E05F4E066020E088
:103B20005D4E06601DE0544E766806F47013524EEA
:103B3000766806F48034022606EB93431CB9574E90
:103B40005E43066009E04C4EF66A06F00F06751CEF
:103B5000514EB6FBF5F65E43066002E04E4E06603F
:103B600000BF00BF444E766806F0F00109094C4ED4
:103B7000725C0668D64046603F4E766806F4E061A7
:103B8000090A474E725C4668D64086603A4E7668AF
:103B900006F46051C90A424E725C4668D640C6605F
:103BA000354E766806F44041890B3E4E725CC6681D
:103BB000B6FBF2F6066170BD29B12F4A5269024385
:103BC0002D4B5A6104E02C4A526982432A4B5A61B8
:103BD000704729B1284A92690243274B9A6104E051
:103BE000254A92698243244B9A61704729B1224A3F
:103BF000D2690243204BDA6104E01F4AD269824352
:103C00001D4BDA61704729B11B4AD26802431A4B37
:103C1000DA6004E0184AD2688243174BDA607047D2
:103C200029B1154A12690243134B1A6104E0124A82
:103C300012698243104B1A61704716494039086077
:103C400070471049C86470470B49C87170470A48EB
:103C5000406A40F080700849486270470146002081
:103C6000054A92680A4201D0012000E00020704716
:103C70000149887270470000001002400000FFF800
:103C8000FFFFF6FE00004242F0FFFEFFD800424276
:103C9000201002408004424200127A0000093D00D8
:103CA0008C0000209C00002010B50446FE48844291
:103CB00008D10121C014FFF7A6FF0021E014FFF78F
:103CC000A2FFC4E0B4F1804F08D101210846FFF7FC
:103CD000A7FF00210120FFF7A3FFB8E0F3488442CB
:103CE00008D101210220FFF79BFF00210220FFF7EE
:103CF00097FFACE0EE48844208D101210420FFF791
:103D00008FFF00210420FFF78BFFA0E0E9488442E9
:103D100008D101210820FFF783FF00210820FFF7C9
:103D20007FFF94E0E448844208D101211020FFF78E
:103D300077FF00211020FFF773FF88E0DF488442FF
:103D400008D101212020FFF76BFF00212020FFF781
:103D500067FF7CE0DA48844208D101214014FFF774
:103D600052FF00216014FFF74EFF70E0D5488442F7
:103D700009D10121C804FFF746FF00214FF40020BC
:103D8000FFF741FF63E0D048844209D101210805D3
:103D9000FFF739FF00214FF48010FFF734FF56E0A2
:103DA000CA48844209D101214805FFF72CFF0021B0
:103DB0004FF40010FFF727FF49E0C548844208D1BF
:103DC00001214020FFF72CFF00214020FFF728FFB2
:103DD0003DE0C048844208D101218020FFF720FF48
:103DE00000218020FFF71CFF31E0BB48844208D14E
:103DF00001218015FFF714FF0021A015FFF710FF28
:103E000025E0B648844209D101210804FFF7FBFEF2
:103E100000214FF48030FFF7F6FE18E0B0488442EE
:103E200009D101214804FFF7EEFE00214FF40030D4
:103E3000FFF7E9FE0BE0AB48844208D1012188047A
:103E4000FFF7E1FE00214FF48020FFF7DCFE10BDFC
:103E500000220288944B98420ED0994B98420BD086
:103E6000B0F1804F08D0914B984205D0904B9842CA
:103E700002D0904B984204D14FF68F731A404B8872
:103E80001A438D4B984207D08C4B984204D04FF682
:103E9000FF431A40CB881A4302808B8883850B88A6
:103EA0000385814B98420BD0854B984208D08B4BB1
:103EB000984205D08A4B984202D08A4B984201D151
:103EC0000B7A038601238382704770B50024002299
:103ED0000023058C4FF6FE7635400584028C8388DE
:103EE000048B4FF68F752C40B51E2C400D882C434B
:103EF000751E2A400D892A434D882A436A4DA842DF
:103F00000BD06F4DA84208D0744DA84205D0744D17
:103F1000A84202D0734DA84213D14FF6F7752A403C
:103F20004D892A434FF6FB752A408D882A434FF668
:103F3000FF652B404FF6FF552B408D892B43CD89D4
:103F40002B4383800483CD888586028470BD70B541
:103F5000002400220023058C4FF6EF7635400584BF
:103F6000028C8388048B48F6FF752C404FF6FF4582
:103F70002C400D884FF6FF7606EA05252C434FF6B8
:103F8000DF752A400D8906EA05152A434D8806EAA1
:103F900005152A43444DA84202D0494DA8421DD1DF
:103FA0004FF67F752A404D894FF6FF7606EA0515D4
:103FB0002A434FF6BF752A408D8806EA05152A4325
:103FC0004FF6FF352B404FF2FF752B408D8906EAE7
:103FD00085052B43CD8906EA85052B438380048321
:103FE000CD880587028470BD70B5002400220023AF
:103FF000058C4FF6FF6635400584028C8388848BE0
:104000004FF68F752C404FF6FC752C400D882C43D5
:104010004FF6FF552A400D894FF6FF7606EA052533
:104020002A434D8806EA05252A431F4DA84202D09F
:10403000234DA8421DD14FF2FF752A404D894FF6FE
:10404000FF7606EA05252A434FF6FF352A408D887C
:1040500006EA05252A434EF6FF752B404DF6FF75FF
:104060002B408D8906EA05152B43CD8906EA0515F7
:104070002B4383808483CD888587028470BD70B58F
:10408000002200230024058C4EF6FF76354005847F
:10409000038C8488828B48F6FF752A404FF6FF45D3
:1040A0002A400D8820E00000002C01400004004060
:1040B00000080040000C00400010004000140040C8
:1040C00000340140004C01400050014000540140C8
:1040D00000180040001C004000200040004001404B
:1040E00000440140004801404FF6FF7606EA0525EE
:1040F0002A434DF6FF752B400D8906EA05352B4303
:104100004D8806EA05352B43FA4DA84202D0FA4DF8
:10411000A84208D14BF6FF752C408D894FF6FF76EB
:1041200006EA85152C4384808283CD88A0F8405010
:10413000038470BD828B4FF2FF331A408283828BDF
:104140004FF6FF7303EA01231A4382837047F0B5E9
:104150000C461546002200210026078C4EF6FF7CF7
:1041600007EA0C070784828B018C4FF6FF7707EA7A
:10417000043640F6FF473A404FF6FF7707EA052737
:104180003A434FF6FF7707EA03373A43D94FB8422D
:104190000ED0D94FB8420BD0B0F1804F08D0D74FD6
:1041A000B84205D0D64FB84202D0D64FB84206D159
:1041B0004DF6FF77394046F48057394305E047F61E
:1041C000FF57394044F48057394382830184F0BD5E
:1041D000828B4FF6F3731A408283828B0A43828369
:1041E0007047F0B50C461546002200210026078CCA
:1041F0004FF6FF6C07EA0C070784828B018C4FF6A1
:10420000FF7707EA04264FF60C773A404FF6FF7720
:1042100007EA03172F433A43B64FB8420ED0B64FC2
:10422000B8420BD0B0F1804F08D0B44FB84205D09F
:10423000B34FB84202D0B34FB84206D14FF6FF5742
:10424000394046F48077394305E04FF2FF57394053
:1042500044F48077394382830184F0BD028B4FF2AE
:10426000FF331A400283028B4FF6FF7303EA0123E8
:104270001A4302837047F0B50C4615460022002110
:104280000026078C4FF6EF7C07EA0C070784028BA9
:10429000018C4FF6FF7707EA041640F6FF473A40D5
:1042A0004FF6FF7707EA03373A434FF6FF7707EAFF
:1042B00005273A438F4FB8420ED08F4FB8420BD0EC
:1042C000B0F1804F08D08D4FB84205D08C4FB84226
:1042D00002D08C4FB84206D14FF6DF77394046F016
:1042E0001007394305E04FF65F77394044F0100777
:1042F000394302830184F0BD028B4FF6F3731A40F9
:104300000283028B0A4302837047F0B50C461546C0
:1043100000220021068C4FF6FE773E400684028B79
:10432000018C4FF60C7632407E1C06EA03162E43B3
:104330003243704EB0420ED06F4EB0420BD0B0F14F
:10434000804F08D06D4EB04205D06D4EB04202D0C5
:104350006C4EB04206D14FF6FD76314044F0010676
:10436000314305E04FF6F576314044F00106314324
:1043700002830184F0BD70B505460C465D48854258
:104380000ED05D4885420BD0B5F1804F08D05B4818
:10439000854205D05A48854202D05A48854200D10C
:1043A00000E000BF208850B92389A2886188284690
:1043B000FFF7ABFFE1882846FFF79EFF25E0208846
:1043C00004280AD12389A28861882846FFF753FF71
:1043D000E1882846FFF742FF17E0208808280AD125
:1043E0002389A28861882846FFF7FBFEE1882846DA
:1043F000FFF7EEFE09E02389A28861882846FFF7CF
:10440000A6FEE1882846FFF795FE70BD2DE9F04134
:1044100005460C4600260127608808B9022600E000
:104420000026A088012801D1022700E0012720886A
:10443000A0B92389A28861882846FFF766FFE18832
:104440002846FFF759FF23893A4631462846FFF7A9
:1044500012FFE1882846FFF701FF13E02389A288B5
:1044600061882846FFF707FFE1882846FFF7F6FE38
:1044700023893A4631462846FFF747FFE188284618
:10448000FFF73AFFBDE8F0810A884B881A438B8812
:104490001A43CB881A430B891A434B891A438B89D9
:1044A0001A43A0F8442070474FF6FF718180002125
:1044B0000180C180418001727047002101804180EC
:1044C0008180C180018141818181C181704700214A
:1044D00001804180012181800021C18001817047DC
:1044E0000021018041808180C180018141818181E1
:1044F00070470000002C01400034014000040040DF
:1045000000080040000C004021B1028842F0010286
:10451000028004E002884FF6FE731A400280704762
:1045200031B1B0F8442042F40042A0F8442005E044
:10453000B0F84420C2F30E02A0F8442070471AB12C
:1045400083890B43838102E083898B438381704796
:104550008182704741EA0203A0F8483070471AB1DF
:1045600083890B43838102E083898B438381704776
:1045700001894FF6F8721140018170470A46002107
:1045800001894FF68F73194011430181704730B58F
:1045900004460D4629462046FFF7F0FF208940F0EB
:1045A0000700208130BD2DE9F04104460D46164636
:1045B0001F46602D06D13B46012231462046FFF7BB
:1045C0005AFE05E03B46012231462046FFF79DFE9C
:1045D00029462046FFF7D2FF208940F007002081BE
:1045E000BDE8F08130B50C4600210189C9B24FF613
:1045F000FF7505EA0325154325432943018130BD95
:104600002DE9F04105460E461746984600244346DC
:104610003A4631462846FFF7E5FF2C894FF6F870F9
:10462000044044F007044FF68F70044044F07004D7
:104630002C81BDE8F081F0B504460D4616461F46B4
:104640003B46324629462046FFF7CCFF208940F4FE
:1046500080402081F0BD0185828270470A4600219A
:1046600001884FF68F731940114301807047F0B5F0
:104670000C4615461E460021002200230189028BAC
:10468000038C4FF6F877394021434FF6FC473A4008
:1046900040F201173A434FF6DD773B404FF6FF7784
:1046A00007EA06172F433B43018102830384F0BDD1
:1046B0000A460021018B4FF68F7319401143018385
:1046C00070470A460021018B48F6FF7319404FF6E8
:1046D000FF7303EA02231943018370470A4600214E
:1046E000818B4FF68F7319401143818370470A46BF
:1046F0000021818B48F6FF7319404FF6FF7303EAE0
:10470000022319438183704721B1028842F080025D
:10471000028004E002884FF67F731A4002807047DF
:1047200021B1828842F00402828004E082884FF640
:10473000FB731A408280704721B1828842F00802E0
:10474000828004E082884FF6F7731A4082807047B7
:1047500021B1828842F00102828004E082884FF613
:10476000FE731A40828070470A460021018B4FF683
:10477000F77319401143018370470A460021018BEA
:104780004FF2FF7319404FF6FF7303EA02231943F8
:10479000018370470A460021818B4FF6F773194059
:1047A0001143818370470A460021818B4FF2FF73CA
:1047B00019404FF6FF7303EA0223194381837047C0
:1047C0000A460021018B4FF6FB7319401143018308
:1047D00070470A460021018B4FF6FF3319404FF610
:1047E000FF7303EA02231943018370470A4600213D
:1047F000818B4FF6FB7319401143818370470A4642
:104800000021818B4FF6FF3319404FF6FF7303EA07
:1048100002231943818370470A460021018B4FF61A
:104820007F7319401143018370470A460021018BB1
:10483000C1F30E014FF6FF7303EA0223194301830C
:1048400070470A460021818B4FF67F731940114350
:10485000818370470A460021818BC1F30E014FF618
:10486000FF7303EA02231943818370470A4600213C
:10487000018C4FF6FD7319401143018470470A46BD
:104880000021018C4FF6F7731940114301847047E2
:104890000A460021018C4FF6DF7319404FF6FF7373
:1048A00003EA02131943018470470A460021018C70
:1048B0004FF67F7319404FF6FF7303EA0213194353
:1048C000018470470A460021018C4FF6FF531940BE
:1048D0004FF6FF7303EA02231943018470470A4627
:1048E0000021018C4FF2FF7319404FF6FF7303EA6A
:1048F00002231943018470470A460021018C4DF6BA
:10490000FF7319404FF6FF7303EA02331943018422
:10491000704730B5002301248C40A3B2048C9C4323
:104920000484048C02FA01F5ADB22C43048430BD3A
:1049300030B5002304248C40A3B2048C9C4304842F
:10494000048C02FA01F5ADB22C43048430BD70B57D
:104950000346002000241846183001258D40ACB2D3
:104960001D8CA5431D8409B1082909D100EB610004
:10497000056825F0700505600568154305600EE0C3
:104980000D1FC5F34E052844056825F4E045056074
:1049900005684FF6FF7606EA02263543056070BDCE
:1049A00021B1028842F00202028004E002884FF640
:1049B000FD731A400280704721B1028842F0040260
:1049C000028004E002884FF6FB731A4002807047B1
:1049D00021B1828842F08002828004E082884FF612
:1049E0007F731A408280704702884FF6F7731A402F
:1049F000028002880A430280704782884FF68F73D4
:104A00001A40828082880A438280704702894FF66A
:104A1000F8731A40028102890A43028170470289B1
:104A20004FF67F731A40028102890A430281704760
:104A30008184704781857047818670470187704700
:104A400081877047A0F84010704702884FF6FF43F7
:104A50001A40028002880A43028070470146888E0D
:104A600070470146088F70470146888F704701469E
:104A7000B1F8400070470146888C70470146088DA8
:104A8000704702460020138A0B4201D0012000E04B
:104A900000207047CA430282704730B502460020AA
:104AA00000230024158A05EA0103958905EA01041B
:104AB00013B10CB1012000E0002030BDCA430282D6
:104AC0007047000010B50446FB48844209D101211B
:104AD0008803FFF798F800214FF48040FFF793F820
:104AE00032E0F648844209D101214804FFF798F8E2
:104AF00000214FF40030FFF793F825E0F04884429E
:104B000009D101218804FFF78BF800214FF48020A0
:104B1000FFF786F818E0EB48844209D10121C80468
:104B2000FFF77EF800214FF40020FFF779F80BE043
:104B3000E548844208D101210805FFF771F80021FA
:104B40004FF48010FFF76CF810BD2DE9F04786B0E8
:104B500005460E460024A24600BFA1460027B089A4
:104B600000B100BF2F462C8A4CF6FF700440F0883D
:104B700004432C82AC894EF6F3100440B08831898E
:104B80000843718908430443AC81AC8A4FF6FF4067
:104B90000440B0890443AC8201A8FEF7AEFFC648CA
:104BA000874202D1DDF810A001E0DDF80CA0A88951
:104BB00010F4004F08D00AEBCA0000EB0A1031686D
:104BC0004900B0FBF1F807E00AEBCA0000EB0A105D
:104BD00031688900B0FBF1F86420B8FBF0F0040103
:104BE0002009642101FB1089A88910F4004F08D026
:104BF000322000EBC900B0FBF1F000F007000443E5
:104C000008E0322000EB09106421B0FBF1F000F065
:104C10000F0004432C8106B0BDE8F0874FF4165115
:104C2000016000218180C18001810C21418100212E
:104C30008181704710B502460020108A4FF2FF03B1
:104C400018400B884C8823438C882343CC8823430B
:104C50001843108210BD0021018041808180C180F5
:104C6000704721B1828942F40052828104E0828936
:104C70004DF6FF731A4082817047F0B50346002459
:104C8000002600250020A1F510676A3F00D100BF73
:104C90001846C1F3421401F01F06012707FA06F572
:104CA000012C01D10C3004E0022C01D1103000E0C5
:104CB00014301AB107682F43076002E00768AF435A
:104CC0000760F0BD1AB1838A0B43838202E0838AB6
:104CD0008B4383827047028A4FF6F0731A40028238
:104CE000028A0A430282704782894FF2FF731A4098
:104CF000828182890A438281704721B1828942F090
:104D00000202828104E082894FF6FD731A4082819B
:104D10007047028A4FF6DF731A400282028A0A4302
:104D20000282704721B1028A42F48042028204E08A
:104D3000028A4BF6FF731A4002827047C1F30802E1
:104D40008280704701468888C0F3080070478189D7
:104D500041F0010181817047028BD2B20283028B44
:104D600042EA012202837047028B02F47F420283EF
:104D7000028B0A430283704721B1828A42F02002EB
:104D8000828204E0828A4FF6DF731A408282704783
:104D900021B1828A42F01002828204E0828A4FF6B8
:104DA000EF731A408282704721B1828A42F0080272
:104DB000828204E0828A4FF6F7731A40828270473B
:104DC00021B1828942F40042828103E08289C2F3E8
:104DD0000E028281704721B1828A42F4006282828F
:104DE00004E0828A4FF2FF731A4082827047828AFF
:104DF0004FF6FB731A408282828A0A43828270478E
:104E000021B1828A42F00202828204E0828A4FF655
:104E1000FD731A408282704702460020B1F5007F80
:104E200000D100BF13880B4201D0012000E0002018
:104E3000704701F40072B2F5007F00D100BFCA4391
:104E40000280704770B50246002400230025002030
:104E5000A1F510666A3E00D100BFC1F3421501F012
:104E60001F03012606FA03F3012D02D19689334070
:104E700006E0022D02D1168A334001E0968A3340C3
:104E80000C12012606FA04F41688344013B10CB152
:104E9000012000E0002070BD10B500220023A1F524
:104EA00010646A3C00D100BF0A1201249440A3B2EE
:104EB000DC43048010BD0000003801400044004085
:104EC00000480040004C0040005000400CB500205D
:104ED000019000906248006840F4803060490860AA
:104EE00000BF5F48006800F4003000900198401C4B
:104EF0000190009818B90198B0F5A06FF1D1584809
:104F0000006810F4003F02D00120009001E0002072
:104F100000900098012830D15148406850494860BD
:104F2000084640684860084640684860084640684F
:104F300020F47C1048600846406840F498104860AF
:104F40000846006840F08070086000BF4448006870
:104F500010F0007FFAD04248406820F0030040493A
:104F600048600846406840F00200486000BF3C4886
:104F7000406800F00C000828F9D10CBD10B5FFF70F
:104F8000A5FF10BD10B53648006840F00100344957
:104F9000086008464068334908403149486008467F
:104FA0000068314908402E4908600846006820F42E
:104FB000802008600846406820F4FE0048604FF4F6
:104FC0001F0088600020C862FFF7D8FF4FF0006024
:104FD0002649086010BD30B50021002000220023C2
:104FE0001F4C646804F00C0121B1042906D0082983
:104FF00025D107E01E4C1F4D2C6024E01C4C1D4D9C
:105000002C6020E0164C646804F47010144C646842
:1050100004F48032022404EB904022B9164C44433D
:10502000144D2C600AE00E4CE46A04F00F04631C7B
:105030000F4CB4FBF3F444430E4D2C6003E00C4CD6
:105040000C4D2C6000BF00BF054C6468C4F3031412
:105050000A4D295D074C2468CC40064D2C6030BDBC
:10506000001002400000FFF8FFFFF6FE08ED00E030
:1050700000127A00A000002000093D00A4000020DA
:1050800040EA01039B0703D009E008C9121F08C0CA
:10509000042AFAD203E011F8013B00F8013B521E4A
:1050A000F9D27047D2B201E000F8012B491EFBD2C1
:1050B00070470022F6E710B513460A460446194623
:1050C000FFF7F0FF204610BD064C074D06E0E068F4
:1050D00040F0010394E8070098471034AC42F6D33F
:1050E000FBF708F830570008505700080FB4054B7D
:1050F00010B503A9044A029800F017F810BC5DF837
:1051000014FB000099030008B400002002E008C866
:10511000121F08C1002AFAD170477047002001E031
:1051200001C1121F002AFBD170472DE9F84F9946A3
:10513000924688460546002759E0252801D0514669
:1051400023E0002315F8011F18462E2915D115F864
:10515000011F04232A290DD06FF02F022978A1F115
:105160003004092C09D800EB800002EB4000084411
:105170006D1CF3E758F8040B6D1C2A7872B3632A90
:1051800008D0732A10D0514610464A46904707F17E
:1051900001072BE018F8042B8DF8002000218DF872
:1051A00001106E46012103E058F8046B4FF0FF3107
:1051B0005A074FF0000401D409E0641C84420BDA62
:1051C0008C42FADB325D002AF7D105E0641C8C4288
:1051D000FCDB305D0028F9D1274405E00AE016F831
:1051E000010B51464A469047641EF8D26D1C287840
:1051F0000028A2D13846BDE8F88F3F065B4F666DA8
:105200007D077F6F777C395E797138004076735007
:105210003E545C80BF86DBCFE6EDFD87FFEFF7FCF9
:10522000B9DEF9F1010204081020408000000000FE
:10523000000000000F19000801100F02000000001C
:105240003319000802160103000000003D19000890
:10525000031A02040000000047190008041E030599
:10526000000000005119000805200406000000009D
:105270005B190008062105070000000065190008F9
:1052800007220608000000006F190008082A070915
:105290000000000079190008092E080A000000002B
:1052A000831900080A30090B000000008D1900085E
:1052B0000B0B0A0C00000000971900080C0C0B0DDA
:1052C00000000000A11900080D0D0C0E00000000E8
:1052D000AB1900080E0E0D0F00000000B5190008F4
:1052E0000F0F0E0100000000BF1900081011101070
:1052F00001000000C919000811121111010000007D
:10530000211A00081213121201000000791A000875
:105310001314131301000000D31A000814151414F9
:10532000010000002D1B00081510151501000000DC
:10533000851B00081638191702000000DF1B000843
:10534000173C161802000000E91B00081840171946
:1053500002000000F31B00081944181602000000A8
:10536000FD1B00081A481D1B03000000071C000855
:105370001B4C1A1C03000000111C00081C501B1DB4
:10538000030000001B1C00081D541C1A0300000031
:10539000251C00081E581F1F040000002F1C0008B9
:1053A0001F591E1E04000000391C00082020202068
:1053B00005000000431C00082121212106000000F7
:1053C000931C0008225A292307000000E31C000850
:1053D000235B222407000000ED1C0008245C232529
:1053E00007000000111D0008255D242607000000AD
:1053F0001B1D0008265E252707000000251D00084C
:10540000275F2628070000002F1D00082860272995
:1054100007000000391D000829612822070000004C
:10542000431D00082A622D2B080000004D1D0008B6
:105430002B632A2C08000000571D00082C642B2D1C
:1054400008000000611D00082D652C2A08000000DE
:105450006B1D00082E662F2F09000000751D000827
:105460002F672E2E090000007F1D000830303131DB
:105470000A000000891D0008313130300A000000A8
:10548000931D0008323232320B0000009D1D0008CF
:10549000333333330C0000009F1D000834343434A0
:1054A0000D000000E91D0008353535350E000000FF
:1054B000331E0008363637370F000000351E00084F
:1054C000373736360F0000003F1E000838393838AD
:1054D00016000000491E0008393A3939160000004C
:1054E000A31E00083A3B3A3A16000000FD1E0008D1
:1054F0003B383B3B16000000571F00083C3D3C3C3E
:1055000017000000B11F00083D3E3D3D17000000A0
:105510000B2000083E3F3E3E1700000065200008BB
:105520003F3C3F3F17000000BF2000084041404083
:1055300018000000192100084142414118000000F4
:10554000732100084243424218000000E72100088E
:1055500043404343180000004122000844454444AE
:10556000190000009B22000845464545190000002F
:10557000F522000846474646190000004F23000860
:105580004744474719000000A923000848494848F4
:105590001A00000003240008494A49491A00000083
:1055A0005D2400084A4B4A4A1A000000B72400084C
:1055B0004B484B4B1A000000112500084C4D4C4C39
:1055C0001B0000006B2500084D4E4D4D1B000000D8
:1055D000DB2500084E4F4E4E1B000000352600080C
:1055E0004F4C4F4F1B0000008F2600085051505069
:1055F0001C000000E9260008515251511C00000017
:1056000043270008525352521C0000009D270008F7
:10561000535053531C000000F727000854555454AE
:105620001D00000051280008555655551D0000006A
:10563000AB280008565756561D00000005290008E3
:10564000575457571D0000005F29000858585858F4
:105650001E000000CB290008595959591F000000AD
:10566000152A00085A5A5A5A22000000652A0008D2
:105670005B5B5B5B23000000B52A00085C5C5C5C44
:1056800024000000072B00085D5D5D5D2500000023
:10569000512B00085E5E5E5E26000000A32B000812
:1056A0005F5F5F5F27000000F52B000860606060AF
:1056B000280000003F2C00086161616129000000A2
:1056C000892C0008626262622A000000D32C000864
:1056D000636363632B000000232D0008646464642B
:1056E0002C000000AD2D0008656565652D000000EB
:1056F000FD2D0008666666662E0000004D2E00082F
:10570000676767672F000000972E00086868686861
:105710003600000033190008696969693700000024
:10572000331900086A6A6A6A6A00000033190008BF
:105730005057000800000020B80000000C5100087D
:1057400008580008B8000020500700001C5100084D
:105750000000000000000000000000000000000049
:105760000000000000000000000000000000000039
:10577000000000000000001410011F0E0C1E0700A6
:105780000000000000000000000000000000000019
:105790000000000000000000000000010000000008
:1057A00001000000000100000000010000000001F5
:1057B00000000000010000000001000000000100E6
:1057C000010100010006030100000B0000000200BF
:1057D00000000000000000000000000000000000C9
:1057E0000102030401020304060708090204060873
:1057F00000366E01000000000000000001020304FA
:08580000060708090000000082
:04000005080000ED02
:00000001FF
