:020000040800F2
:100000009008002001010008B5010008B7010008B0
:10001000BB010008BF010008C30100080000000088
:10002000000000000000000000000000C9010008FE
:10003000C701000800000000CB010008E301000830
:100040001B0100081B0100081B010008CD0100086E
:100050001B0100081B0100081B0100081B01000810
:100060001B0100081B0100081B0100081B01000800
:100070001B0100081B0100081B0100081B010008F0
:100080001B0100081B0100081B0100081B010008E0
:100090001B0100081B0100081B0100081B010008D0
:1000A0001B0100081B0100081B0100081B010008C0
:1000B0001B0100081B0100081B0100081B010008B0
:1000C0001B0100081B0100081B0100081B010008A0
:1000D0001B0100082B0500084F0400081B01000845
:1000E0004D0500081B0100081B010008DFF80CD0BB
:1000F00006F0B0FA004800472501000890080020EB
:100100000648804706480047FEE7FEE7FEE7FEE7B1
:10011000FEE7FEE7FEE7FEE7FEE7FEE71165000803
:10012000ED0000084FF4A06004F090FA00F0C2F86F
:1001300000F0F9F800F09EF900F0DBF903F030FF71
:1001400000F01EF900F05CF900200F49087000F083
:1001500088FA00F0F4FA00F0A7FC00F0EDFE01F0E0
:10016000AFFB04F017F9094804F051F908A006F0B4
:1001700083FA0BA006F080FA05E003F070FD01F0B1
:10018000EDFB04F0E2F8F8E76004002074040020BE
:1001900048656C6C6F2073746D33322E2000000044
:1001A00044656C6574655F416C6C5F44617461208B
:1001B0000D0A2000704700BFFEE700BFFEE700BF4A
:1001C000FEE700BFFEE770477047704710B501209B
:1001D00005F016F820B1012005F022F804F0E4FF44
:1001E00010BD23480068401C21490860084600688B
:1001F00064280AD91F480078401C1E490870012055
:100200001D49087000201A4908601C480068401CFD
:100210001A49086008460068B0F5C87F02D9002076
:100220001749086017480078401C164908700846AE
:100230000078C72807DD14480078401C1249087070
:100240000020104908701148007860B91048007803
:10025000401C0F490870084600780F2806DD012071
:100260000A49087002E00020094908707047000040
:100270000400002008000020010000208800002069
:10028000840000208C0000208D000020B20000209F
:10029000B100002010B5002807DA0A07140E344A0E
:1002A00000F00F031B1FD45403E00A07130E314A5A
:1002B000135410BD10B504F039FD012004F0BDFD4C
:1002C00000BF212004F077FD0028FAD04FF4801100
:1002D000002004F0B5FD002004F0DBFD002004F058
:1002E000E1FD4FF4806004F0E6FD012004F0B4FD70
:1002F00000BF392004F05FFD0028FAD0022004F08E
:10030000BAFD00BF04F0C0FD0828FBD1012108465A
:1003100004F083FE0121184804F025FC0121C803E4
:1003200004F021FC10BD10B514480068C821B0FBD2
:10033000F1F4B4F1807F01D3012011E024F07F407B
:10034000401E4FF0E02148610F214FF0FF30FFF7D2
:10035000A1FF00204FF0E021886107200861002004
:1003600008B100BFFEE70021481EFFF793FF10BD54
:1003700018ED00E000E400E000023000F80000208A
:1003800000B585B00121042004F047FE0121480496
:1003900004F050FE0420ADF8100018208DF8130072
:1003A00003208DF8120004A92F4804F00DFB08204B
:1003B000ADF8100004208DF8130004A92A4804F0B9
:1003C00003FB4FF4165000900020ADF80400ADF888
:1003D0000600ADF80800ADF80C000C20ADF80A00DE
:1003E0006946224805F077FE012240F225511F4858
:1003F00005F009FF01211D4805F0F9FE05B000BD1B
:1004000008B526208DF8000001208DF8010000209D
:100410008DF8020001208DF80300684604F01BF9F6
:1004200008BD70B504460D46E1B2104805F04CFF1A
:1004300000BF0E48008810F0800FFAD0204670BD33
:1004400010B5044621460AA006F016F910BD10B5F5
:1004500040F22551054805F0BBFF012803D12021BA
:10046000024805F0ACFF10BD000801400044004008
:100470002563000000B585B0012144F2040004F0BA
:10048000CCFD4FF40070ADF8100018208DF813006B
:1004900003208DF8120004A92A4804F095FA4FF4BD
:1004A0008060ADF8100004208DF8130004A92548E1
:1004B00004F08AFA4FF4165000900020ADF80400C2
:1004C000ADF80600ADF80800ADF80C000C20ADF852
:1004D0000A0069461C4805F0FEFD012240F2255144
:1004E000194805F090FE0121174805F080FE05B07F
:1004F00000BD08B525208DF8000001208DF8010011
:100500008DF802008DF80300684604F0A4F808BDD9
:1005100010B5044621460C4805F0D6FE00BF0A4837
:10052000008810F0800FFAD010BD10B540F22551B0
:10053000054805F04DFF012803D12021024805F0B0
:100540003EFF10BD000801400038014070B5002595
:100550006948006810F4004F00D001254FF080403A
:10056000848C00204FF080418884002D45D0B4F564
:10057000967F5FDD6148007818285BDD6048006881
:1005800040085F4908600846006820F07F40086026
:10059000084600685B49084229D0594800685A4912
:1005A0000968884212D159480078401C57490870A0
:1005B00008460078FA2801DDFA20087050480068E3
:1005C000534908600120534908700DE000204F494D
:1005D00008704B4800684C490860494800684C491D
:1005E000086001204B49087000204B49086000203A
:1005F00043490860414908701CE0152C01DBD22CEE
:1006000007DD00203D4908703D4908603F490870FA
:1006100010E03B480068400039490860552C04DD73
:100620000846006840F00100086034480078401C2B
:10063000324908704FF4004004F05DF970BD08B510
:100640000121042004F0E9FC4FF40040ADF8000063
:1006500048208DF8030069462748083804F0B4F9AB
:1006600008BD10B586B00024FFF7E9FF0121084658
:1006700004F0D3FC0F21002004F0BAFA4FF400403C
:10068000049000208DF8140010208DF81500012032
:100690008DF8160004A804F0B7F828208DF80C0097
:1006A00000208DF80D008DF80E0001208DF80F0050
:1006B00003A803F0D0FF0121084604F0BBFC174853
:1006C00000681749B0FBF1F0401E84B24FF6FF708E
:1006D000ADF80400ADF800400020ADF80600ADF81C
:1006E000020069464FF0804004F078FE012188073F
:1006F00005F0D0F906B010BD080801402400002024
:100700001C000020F0FFFF00200000202600002039
:10071000100000202500002088000020F8000020A4
:10072000A086010005E0022100BF4A1E92B211001E
:10073000FBD10200A0F1010398B2F4D1704708B5D3
:100740000121082004F069FC10208DF8030003202B
:100750008DF802004FF47870ADF800006946FE484D
:1007600004F032F948208DF803001020ADF80000A5
:100770006946F94804F028F908BD30B50446002060
:10078000F6490860054618E00020F549086014F0B5
:10079000010F04D00120A1F10401086002E0002053
:1007A000F04908604FF00500FFF7BCFF0120EC495D
:1007B00008604FEA640405F10105082DE4D3002028
:1007C000E7490860E849C1F8A00130BD30B50446EA
:1007D0000020E6490860054617E00020E04908606F
:1007E00014F0010F03D00120DE49086002E0002070
:1007F000DC4908604FF00500FFF794FF0120D8495D
:1008000008604FEA640405F10105082DE5D30020D6
:10081000D3490860D449C1F8A00130BD30B50446C1
:100820000020D3490860054617E00020CC49086045
:1008300014F0010F03D00120CA49086002E0002033
:10084000C84908604FF00500FFF76CFF0120C4495C
:1008500008604FEA640405F10105082DE5D3002086
:10086000BF490860C049C1F8A00130BD10B50446B9
:100870000120BA4908604FF00500FFF753FF002040
:10088000B949C1F894012046FFF777FF10BDF8B5CC
:10089000FF26002000904220FFF7E8FF0120B54925
:1008A00008604FF00004CEE000251BE00020AC49BA
:1008B00008601DF804004FEA60000DF804004FF0D6
:1008C0000100A949C1F8A401AA48006828B11DF88F
:1008D000040040F080000DF804000520FFF722FF1F
:1008E000681CC5B2082DE1DB0520FFF71BFF9DF852
:1008F000000048B99DF8010030B99DF8020018B910
:100900009DF8030000286ED09DF80000102818D034
:1009100008DC01280DD002280DD004280DD00828AD
:1009200017D10CE020280ED040280ED0802810D1FE
:100930000DE019260EE011260CE009260AE001263A
:1009400008E01A2606E0122604E00A2602E0022643
:1009500000E000BF00BF9DF80100102818D008DC9F
:1009600001280DD002280DD004280DD0082817D159
:100970000CE020280ED040280ED0802810D10DE0A9
:100980001B260EE013260CE00B260AE0032608E0E7
:100990001C2606E0142604E00C2602E0042600E0F3
:1009A00000BF00BF9DF80200102818D008DC012805
:1009B0000DD002280DD004280DD0082818D10CE045
:1009C00020280ED040280FD0802811D10EE01D26FF
:1009D0000FE015260DE00D260BE0052609E01E268A
:1009E00007E0162605E02CE00E2602E0062600E0D1
:1009F00000BF00BF9DF80300102818D008DC0128B4
:100A00000DD002280DD004280DD0082817D10CE0F5
:100A100020280ED040280ED0802810D10DE01F26AF
:100A20000EE017260CE00F260AE0072608E0202635
:100A300006E0182604E0102602E0082600E000BFC9
:100A400000BF601CC4B2042CFFF62EAF0020444946
:100A500008604549C1F810014FF001003F490860A6
:100A60003046F8BD10B504460120404908604FF0FB
:100A70000500FFF757FE00203B49C1F898012046CA
:100A8000FFF7A4FE10BD10B50446012038490860E8
:100A90004FF00500FFF746FE00203349C1F89C01E6
:100AA0002046FFF7BBFE10BD10B54020FFF7DEFE6D
:100AB000C020FFF7DBFE00240AE02F49085DFFF7A6
:100AC0005CFE2D490831085DFFF757FE601CC4B27B
:100AD000082CF2DB294909788831C8B2FFF7C6FE35
:100AE00001201E4908604FF04000FFF7BBFFC02007
:100AF000FFF7B8FF00240BE01F491031085DFFF736
:100B000065FE1D491831085DFFF760FE601CC4B228
:100B1000082CF1DB194909788831C8B2FFF7A2FF28
:100B20000120124908604FF04000FFF7ACFFC020E1
:100B3000FFF7A9FF00240BE00F492031085DFFF704
:100B40006DFE0D492831085DFFF768FE601CC4B2D8
:100B5000082CF1DB094913E0000C0140948121428B
:100B6000A4812142A081214200802142988121421A
:100B70009C8121421081214210010020760000203A
:100B800009788831C8B2FFF77EFF0120DC49086090
:100B900010BD10B53021DB4805F051FD10BD10B57A
:100BA0000446FFF7F6FFD848C07BD6494870D648C0
:100BB000005D0870FFF778FF10BD10B50446FFF721
:100BC000E8FFD148807BCF494870CF48005D08706E
:100BD000FFF76AFF10BD10B50446FFF7DAFF207873
:100BE0000A2190FBF1F0C849095CC648C17220781F
:100BF0000A2190FBF1F201FB1200C349095CC148D4
:100C0000817260780A2190FBF1F0BF49095CBD4810
:100C1000417260780A2190FBF1F201FB1200BA499F
:100C2000085CB8490872A0780A2190FBF1F0B64937
:100C3000085CB449C871A0780A2190FBF1F201FB6D
:100C40001200B149085CAF498871E0780A2190FB35
:100C5000F1F0AD49085CAB494871E0780A2190FB9E
:100C6000F1F201FB1200A849085CA649087120793D
:100C70000A2190FBF1F0A449085CA249C8702079D0
:100C80000A2190FBF1F201FB12009F49085C9D498B
:100C9000887060790A2190FBF1F09B49085C9949C2
:100CA000487060790A2190FBF1F201FB120096492D
:100CB000085C94490870E07920B99348C17991485B
:100CC000017304E0E0799049095C8E480173FFF7F5
:100CD000EBFE10BD10B58D48007848B90020894959
:100CE00048700870FFF7E0FE01208849087005E0B1
:100CF0008748FFF770FF00208449087010BD10B5C9
:100D00008448007848B900207E49C8708870FFF791
:100D1000CBFE01207F49087005E07D48FFF75BFFAF
:100D200000207C49087010BD10B57B48007848B998
:100D30000020744948710871FFF7B6FE012076491A
:100D4000087005E07248FFF746FF002072490870FE
:100D500010BD10B57148007848B900206949C871C4
:100D60008871FFF7A1FE01206C49087005E0684812
:100D7000FFF731FF00206949087010BD10B56848C1
:100D8000007858B900215F48417200205D4908721F
:100D9000FFF78AFE01206249087005E05C48FFF712
:100DA0001AFF00205E49087010BD10B55D4800783C
:100DB00040B9002153480173FFF776FE01205949DD
:100DC000087005E05248FFF706FF002055490870FB
:100DD00010BD10B50446FFF7DCFE20784A49085CD8
:100DE0004849C87060784849085C46498870A078CE
:100DF0004549085C43494870E0784349085C4149EB
:100E00000870FFF751FE10BD10B50446FFF7C1FE94
:100E10000A2094FBF0F03C49085C3A4948700A20EB
:100E200094FBF0F100FB11403749085C354908702C
:100E3000FFF73AFE10BD10B50446FFF7AAFE0A20E0
:100E400094FBF0F100FB11402F49085C2D4908701C
:100E5000FFF72AFE10BD10B504463348007840B9AC
:100E6000002028490870FFF71FFE01202E49087056
:100E700005E02046FFF7ADFF00202B49087010BDAC
:100E800010B504462948007840B900201D49487033
:100E9000FFF70AFE01202549087005E02046FFF70C
:100EA00098FF00202149087010BD10B50446204865
:100EB000007840B9002013498870FFF7F5FD012044
:100EC0001B49087005E02046FFF783FF0020184902
:100ED000087010BD10B504461648007840B90020CF
:100EE0000849C870FFF7E0FD01201249087005E0CD
:100EF0002046FFF76EFF00200E49087010BD00006D
:100F00009C81214210010020866700082F000020EC
:100F10002700002030000020310000203200002097
:100F2000330000203400002035000020360000206F
:100F3000370000203800002008B50121082004F007
:100F40006CF814208DF8030003208DF80200800255
:100F5000ADF800006946FE4803F036FD10208DF81C
:100F600003000002ADF800006946F94803F02CFDCB
:100F70000120F8490860F849C1F8AC014FF00000C1
:100F8000F649086008BD06E0072100BF0A00A1F18C
:100F90000103D9B2FAD10200A0F1010398B2F3D152
:100FA000704710B50120EE4908604FF00500FFF7CB
:100FB000EAFF0120E849C1F8A8010520FFF7E3FF97
:100FC0000020E74908604FF00500FFF7DCFF002034
:100FD000E149C1F8A8010520FFF7D5FF10BD70B5A4
:100FE000044600251FE014F0800F03D00120DC49E7
:100FF000086002E00020DA4908604FF00200FFF7C5
:10100000C2FF0120D54908604FF00200FFF7BBFF87
:101010006006040E0020D049C1F8A8010220FFF7A5
:10102000B2FF681CC5B2082DDDDB0120CC49086089
:101030004FF00200FFF7A7FF0120C749C1F8A80140
:101040000220FFF7A0FFC748006808B1012070BD6B
:101050000020C24908604FF00200FFF794FF002013
:10106000BD49C1F8AC010220FFF78DFF0020EEE77B
:1010700070B500240120BA4908604FF0000517E060
:101080006006040E0120B54908604FF00200FFF72A
:101090007AFFB148D0F82C0108B144F001040020D7
:1010A000AE4908604FF00200FFF76DFF681CC5B243
:1010B000082DE5DB204670BD10B50020A74908606B
:1010C0004FF00500FFF75FFF0020A349C1F8AC0116
:1010D0000520FFF758FF0120A04908604FF00500E8
:1010E000FFF751FF01209C49C1F8AC010520FFF733
:1010F0004AFF10BD2DE9F04106460C461746012572
:10110000FFF74FFFA020FFF76AFF054615B101204A
:10111000BDE8F081C6F30420FFF761FF05460DB17D
:101120000120F5E7F0B2FFF75AFF05460DB10120A7
:10113000EEE7FFF736FFA120FFF751FF05460DB19F
:101140000120E5E71AE0FFF793FF207000208449B3
:1011500008604FF00500FFF716FF01207E49C1F837
:10116000A8010520FFF70FFF00207C4908604FF021
:101170000500FFF708FF641C781E87B2012FE2DC30
:10118000FFF776FF20700120754908604FF00500D9
:10119000FFF7F9FE01207049C1F8A8010520FFF70B
:1011A000F2FE00206D4908604FF00500FFF7EBFEEE
:1011B000FFF782FF0020ABE72DE9F0478046894624
:1011C00016460125002063490860044634E008EB18
:1011D000040087B2FFF7E5FEA020FFF700FF0546F9
:1011E00015B10120BDE8F087C7F30420FFF7F7FE33
:1011F00005460DB10120F5E7F8B2FFF7F0FE054610
:101200000DB10120EEE74FF0000A0DE019F80400DF
:10121000FFF7E5FE05460DB10120E3E7601C84B24F
:101220000AF1010000F0FF0AB245EFDBFFF744FFCF
:101230004FF4FA60FFF7A7FEB442C8DB012045492E
:1012400008604FF00000CDE72DE9FC410446002680
:10125000202500272AE0082269462846FFF74AFF92
:10126000019810F07F4F1AD13F480078022806D12C
:101270003E4901980840019060680840606001980C
:10128000616888420DD13A480099016000203849D0
:1012900008717A2002F0A4FE0120BDE8FC8106B9A5
:1012A0002E4605F1080085B2781C87B2B7F5007F9D
:1012B000D1DB082221463046FFF77EFF1EB17920A0
:1012C00002F08EFE04E07A2002F08AFE0120E4E7BC
:1012D0000020E2E72DE9FC41044600264FF4426578
:1012E00000272AE0082269462846FFF703FF0198F5
:1012F00010F07F4F1AD11C480078022806D11B49F4
:101300000198084001906068084060600198616839
:1013100088420DD1174800990160002015490871D5
:101320007A2002F05DFE0120BDE8FC8106B92E4660
:1013300005F1080085B2781C87B2202FD2DB082285
:1013400021463046FFF738FFCEB1792014E0000087
:10135000000C0140B081214200802142A88121423D
:10136000AC8121422C8121427E000020F0FFFF0051
:10137000480000205200002002F032FE04E07A20F3
:1013800002F02EFE0120CFE70020CDE72DE9FC4141
:10139000044600264FF4026500272AE00822694629
:1013A0002846FFF7A7FE019810F07F4F1AD1FA48A0
:1013B0000078022806D1F949019808400190606838
:1013C000084060600198616888420DD1F448009936
:1013D00001600020F24908717A2002F001FE01202C
:1013E000BDE8FC8106B92E4605F1080085B2781CDF
:1013F00087B2402FD2DB082221463046FFF7DCFEC1
:101400001EB1792002F0ECFD04E07A2002F0E8FD44
:101410000120E5E70020E3E72DE9FC410446002632
:101420004FF4226500272AE0082269462846FFF784
:1014300061FE019810F07F4F1AD1D748007802283A
:1014400006D1D64901980840019060680840606064
:101450000198616888420DD1D2480099016000204E
:10146000D04908717A2002F0BBFD0120BDE8FC8163
:1014700006B92E4605F1080085B2781C87B2402FC8
:10148000D2DB082221463046FFF796FE1EB17920B6
:1014900002F0A6FD04E07A2002F0A2FD0120E5E7BB
:1014A0000020E3E770B58AB0054620262021684673
:1014B00005F0C5F8FF222021684605F0B9F8286834
:1014C00080B900240BE006EB441188B22022694663
:1014D000FFF772FE6420FFF756FD601C84B2802C7B
:1014E000F1DB22E000241CE0082208A93046FFF7C7
:1014F00001FE099810F07F4F0ED1286808998842A4
:101500000AD1FF22082108A805F092F8082208A9AC
:101510003046FFF751FE07E006F1080086B2601C76
:1015200084B2B4F5007FDFDB00BF00200AB070BDDD
:1015300070B58AB005464FF442662021684605F032
:101540007EF8FF222021684605F072F8286880B9ED
:1015500000240BE006EB441188B220226946FFF715
:101560002BFE6420FFF70FFD601C84B2082CF1DB1A
:1015700021E000241CE0082208A93046FFF7BAFD4C
:10158000099810F07F4F0ED12868089988420AD137
:10159000FF22082108A805F04BF8082208A93046C8
:1015A000FFF70AFE06E006F1080086B2601C84B26E
:1015B000202CE0DB00BF00200AB070BD70B58AB0FF
:1015C00005464FF402662021684605F038F8FF22F0
:1015D0002021684605F02CF8286880B900240BE02B
:1015E00006EB441188B220226946FFF7E5FD64202E
:1015F000FFF7C9FC601C84B2102CF1DB21E0002451
:101600001CE0082208A93046FFF774FD099810F085
:101610007F4F0ED12868089988420AD1FF220821FD
:1016200008A805F005F8082208A93046FFF7C4FD10
:1016300006E006F1080086B2601C84B2402CE0DBB4
:1016400000BF00200AB070BD70B58AB005464FF4E7
:1016500022662021684604F0F2FFFF22202168461E
:1016600004F0E6FF286880B900240BE006EB441183
:1016700088B220226946FFF79FFD6420FFF783FCB4
:10168000601C84B2102CF1DB21E000241CE0082255
:1016900008A93046FFF72EFD099810F07F4F0ED1B4
:1016A0002868089988420AD1FF22082108A804F076
:1016B000BFFF082208A93046FFF77EFD06E006F1CD
:1016C000080086B2601C84B2402CE0DB00BF002022
:1016D0000AB070BD10B588B0202233A1684604F06E
:1016E00095FF002408E0002101EB441188B220227C
:1016F0006946FFF761FD641CA82CF4D308B010BD47
:101700002DE9FC4105460C46202600271DE0082255
:1017100069463046FFF7EEFC1F480078022805D1E5
:101720001E49019808400190084604400198A042D3
:1017300006D1DDE90001C5E900010120BDE8FC8119
:1017400006F1080086B2781C87B2B7F5007FDEDBB1
:101750000020F3E72DE9FC4105460C464FF40266F4
:10176000002736E0082269463046FFF7C3FC0A48E6
:101770000078022805D109490198084001900846DF
:1017800004400198A0421FD1DDE90001C5E9000134
:101790000120BDE8FC8100007E000020F0FFFF007A
:1017A0005C00002066000020FFFFFFFFFFFFFFFF3F
:1017B000FFFFFFFFFFFFFFFFFFFFFFFFFFFFFFFF39
:1017C000FFFFFFFFFFFFFFFF06F1080086B2781C56
:1017D00087B2402FC6DB0020BDE8FC812DE9FC412B
:1017E00005460C464FF4226600271DE00822694694
:1017F0003046FFF77FFC30480078022805D12F499A
:10180000019808400190084604400198A04206D182
:10181000DDE90001C5E900010120BDE8FC8106F118
:10182000080086B2781C87B2402FDFDB0020F4E787
:1018300070B504460D4629462046FFF7CFFF08B194
:10184000012070BD29462046FFF784FF08B1022021
:10185000F7E729462046FFF753FF08B10320F0E7DA
:101860000020EEE72DE9FC4105460C464FF44266A8
:1018700000271DE0082269463046FFF73BFC0E4872
:101880000078022805D10D490198084001900846CA
:1018900004400198A04206D1DDE90001C5E900013C
:1018A0000120BDE8FC8106F1080086B2781C87B2F1
:1018B000202FDFDB0020F4E77E000020F0FFFF0098
:1018C00008B50121042003F0A8FB3320ADF8000087
:1018D00048208DF803006946FE4803F075F808BDFE
:1018E00006E00C2100BF0A00A1F10103D9B2FAD130
:1018F0000200A0F1010398B2F3D1704710B5FF24A4
:10190000F548006840B1F548006828B1F44800681F
:1019100010B1F4480068F8B942F21070FFF7E0FF28
:10192000ED48006840B1ED48006828B1EC48006817
:1019300010B1EC48006878B9E748006800B90124A4
:10194000E648006800B90224E548006800B90324AD
:10195000E448006800B90424204610BD10B50020FA
:10196000E1490870FFF7CAFFE049087008460078AF
:10197000FF2847D1DE480078012843D1DD480078B0
:1019800018B1DC4800781E2838DD0020D8490870DE
:10199000D9480078012806D0022821D0042823D075
:1019A000082829D124E0D348007814280CDD03202E
:1019B000CD4908700120CF490870D0490870D0493E
:1019C0000870CA49087018E0CD480078012803D192
:1019D0000020CB49087010E00120C44908700CE0D9
:1019E0000220C249087008E00320C049087004E0E2
:1019F0000420BE49087000E000BF03E0BF48007843
:101A0000BC490870B9480078002876D0B7480078FB
:101A1000012806D0022871D0032870D004286FD185
:101A200038E184E0B048007802286ADDB5480078E3
:101A30004E2846D017DC49283BD00BDC0D282FD090
:101A400003DC28B30C285DD126E00F282CD04828D1
:101A500058D12DE04A282DD04B282CD04C282ED000
:101A60004D284FD12CE0542837D008DCA0F14F008E
:101A7000052847D2DFE800F0262A2B2C2D00552818
:101A80002CD056282BD057282AD06A283AD12BE0C0
:101A900002209C49087036E033209A49087032E0F1
:101AA0003420984908702EE03620964908702AE0C4
:101AB00000BF00BF00BF9448FFF7F4FC23E000BF65
:101AC00000BF00BF9148FFF733FD1CE000BF00BF1F
:101AD00000BF8F48FFF772FD15E000BF00BF00BFD9
:101AE0008C48FFF7B1FD0EE00220864908704FF4E4
:101AF0004871894804F0A3FD05E033E190E0ACE0D3
:101B000012E114E000BF00BF7E48007800EB400007
:101B1000824901EB800080688149086008460068BE
:101B2000804700BF6C4800680028FBD010BD6A48A1
:101B3000006818B16C480078022854DD71480078BC
:101B400000283FF46FAF6F4800780C28F9D06D483B
:101B500000780D28F5D06B4800784828F1D0694806
:101B600000784928EDD0674800784A28E9D06548D0
:101B700000784B28E5D0634800784C28E1D06148D4
:101B800000784D28DDD05F4800784E28D9D05D48D8
:101B900000784F28D5D05B4800785028D1D05948DC
:101BA00000785128CDD0574800785228C9D05548E0
:101BB00000785328C5D0534800785428C1D05148E4
:101BC00000785528BDD04F4800785628B9D04D48E8
:101BD00000785728B5D04B4800786A28B1D04948DA
:101BE00000780F28ADD04748007800EB40004B4903
:101BF00001EB80004078434908700846007800EB0C
:101C00004000464901EB800080684549086008466D
:101C10000068804700BF304800680028FBD0A0E083
:101C20003848007800EB40003C4901EB80008078A8
:101C3000344908700846007800EB4000374901EB52
:101C4000800080683649086008460068804700BF09
:101C5000224800680028FBD083E02A48007800EB87
:101C600040002E4901EB8000C078264908700846E4
:101C7000007800EB4000294901EB8000806828498A
:101C8000086008460068804700BF154800680028C3
:101C9000FBD066E00020234908701A48007800EB6A
:101CA00040001E4901EB8000007916490870084683
:101CB000007800EB4000194901EB8000806818496A
:101CC000086008460068804700BF06480068002892
:101CD000FBD046E0000801400001214204012142FE
:101CE0001001214214012142080000203D00002083
:101CF0008E000020900000208F0000202600002091
:101D00003E0000203C0000204D0000205700002035
:101D1000610000206B00002040010020B86700082F
:101D200040000020250000200F480078012817D12E
:101D300000200D4908700D48007800EB40000C4968
:101D400001EB800080680B49086008460068804706
:101D5000064800786A2803D102F0B8F802F0DBF8F0
:101D600000BF00BF00BFE1E6010000203C000020F2
:101D7000B867000840000020C178092923D1817884
:101D800009291AD14178092910D10178491C01701B
:101D90000021417081700178152904D10021017062
:101DA0000121C17012E00121C1700FE04178491C8E
:101DB000417000218170C17008E08178491C8170F8
:101DC0000021C17002E0C178491CC170704710B594
:101DD0000446FB480078012807D1FA48007801281A
:101DE00003D1204602F0FCF822E0F54800780228F2
:101DF00007D1F4480078012803D1204602F0F0F81A
:101E000016E0EF480078032807D1EE480078012853
:101E100003D1204602F0E4F80AE0E94800780428FB
:101E200006D1E8480078012802D1204602F0D8F80F
:101E300010BD427802F5FA624A6182780A61C2787E
:101E4000CA6002798A6042794A6082790A60C279FE
:101E50008A617047027DA2F5FA624A70027C8A703C
:101E6000027BCA70027A0A7102794A7102788A7119
:101E7000027ECA71704770B5044603F095F9214699
:101E8000D148FFF7D6FF204602F039FB054603F0A4
:101E900058F903F089F970BD10B5CC48007810BB33
:101EA000CB48007880B9FEF774FE4020C949097814
:101EB00001F00301C84A5054FEF7F6FDC54800780A
:101EC000401CC44908700EE003F032F900F5E1440B
:101ED000C249204602F051FBBB49C048FFF7BAFF98
:101EE000B948FEF778FEB6480078032802D101F021
:101EF000CFFF0CE0B2480078022802D101F0B5FF14
:101F000005E0AF480078042801D101F0A7FF10BD1B
:101F100010B50020FEF743FE03F00AF900F5E14496
:101F2000AE49204602F029FBA749AC48FFF792FFD3
:101F300010BD10B50120FEF732FE6F20FFF747FFFE
:101F400010BD10B50220FEF72AFE7020FFF73FFFFC
:101F500010BD10B50320FEF722FE7120FFF737FFFA
:101F600010BD10B50420FEF71AFE7220FFF72FFFF8
:101F700010BD10B50520FEF712FE7320FFF727FFF6
:101F800010BD10B50620FEF70AFE7420FFF71FFFF4
:101F900010BD10B50720FEF702FE7520FFF717FFF2
:101FA00010BD10B50820FEF7FAFD7620FFF70FFFF1
:101FB00010BD10B50920FEF7F2FD7720FFF707FFEF
:101FC00010BD10B50A20FEF7EAFD10BD10B50B20BC
:101FD000FEF7E5FD10BD10B50C20FEF7E0FD10BDCD
:101FE00010B50D20FEF7DBFD10BD10B50E20FEF77D
:101FF000D6FD10BD10B5FEF76DFE714800780328C0
:1020000013D1714840793B2803D100206E494871B3
:1020100004E06D484079401C6B4948716F48FFF7F8
:102020002AFF6948FEF7D7FD15E0654800780228C9
:1020300011D16548407918B93B206349487104E0E3
:1020400061484079401E604948716448FFF713FFBA
:102050005D48FEF7C0FD10BD10B5FEF750FE5848B4
:102060000078032813D158480079172803D100209D
:102070005549087104E054480079401C52490871E0
:102080005648FFF7F8FE5048FEF7A5FD15E04C480E
:102090000078022811D14C48007918B917204A4914
:1020A000087104E048480079401E474908714B48D0
:1020B000FFF7E1FE4448FEF78EFD10BD10B5FEF7B8
:1020C00033FE3F480078032813D13F48C0781F28CB
:1020D00003D101203C49C87004E03B48C078401C53
:1020E0003949C8703D48FFF7C6FE3748FEF773FD13
:1020F00016E033480078022812D13348C07801280E
:1021000003D11F203049C87004E02F48C078401E1A
:102110002D49C8703148FFF7AEFE2B48FEF75BFD36
:1021200010BD10B5FEF715FE25480078032813D121
:10213000254880780C2803D101202349887004E0C9
:1021400021488078401C204988702448FFF793FE7E
:102150001D48FEF740FD16E019480078022812D10C
:1021600019488078012803D10C201749887004E0B1
:1021700015488078401E144988701848FFF77BFE88
:102180001148FEF728FD10BD10B5FEF7F7FD0C480D
:102190000078032824D10C484078632803D100201C
:1021A0000949487004E008484078401C06494870D6
:1021B0000A48FFF760FE0448FEF70DFD26E0000028
:1021C0003D00002077000020270000204001002073
:1021D0004600002080000020100100207404002030
:1021E000F8480078022811D1F748407818B96320E0
:1021F000F549487004E0F4484078401EF2494870C0
:10220000F248FFF738FEF048FEF7E5FC10BD10B5C8
:10221000FEF7CBFD10BD10B50120FEF7CEFC10BDC2
:1022200010B50220FEF7C9FC10BD10B50320FEF763
:10223000C4FC10BD10B50420FEF7BFFC10BD10B5E6
:102240000120FEF7BAFC10BD10B50220FEF7B5FC68
:1022500010BD10B50320FEF7B0FC10BD10B5042072
:10226000FEF7ABFC10BD10B50120FEF7A6FC10BDBB
:1022700010B50220FEF7A1FC10BD10B5D1480078C2
:1022800003280DD1D2480078632803D10020D0491B
:10229000087015E0CE480078401CCD4908700FE06A
:1022A000C848007802280BD1C948007818B96320C3
:1022B000C749087004E0C6480078401EC449087049
:1022C000C3480078FEF7A0FD10BD10B5BD480078EA
:1022D00003280DD1BF480078632803D10020BD49F1
:1022E000087015E0BB480078401CBA4908700FE040
:1022F000B448007802280BD1B648007818B963209A
:10230000B449087004E0B3480078401EB149087031
:10231000B0480078FEF778FD10BD10B50120FEF73B
:102320004CFC10BD10B50220FEF747FC10BD10B5E7
:102330000320FEF742FC10BD10B50420FEF73DFC63
:1023400010BD10B50520FEF738FC10BD10B50620F5
:10235000FEF733FC10BD10B50720FEF72EFC10BDB4
:1023600010B50820FEF729FC10BD10B50120FEF7BE
:1023700024FC10BD10B50220FEF71FFC10BD10B5E7
:102380000320FEF71AFC10BD10B50420FEF715FC63
:1023900010BD10B50120FEF710FC10BD10B50220D5
:1023A000FEF70BFC00208C49087010BD10B5012011
:1023B000FEF703FC10BD10B50220FEF7FEFB10BDBA
:1023C000704710B57F48007803280BD18348007808
:1023D000012803D100208149087012E001207F49C3
:1023E00008700EE07748007802280AD17B48007810
:1023F000012803D100207949087002E001207749C3
:10240000087076480078FEF716FD10BD10B56D48CF
:10241000007803280BD172480078012803D10020EE
:102420006F49087012E001206D4908700EE06548A0
:10243000007802280AD16A480078012803D10020D8
:102440006749087002E00120654908706448007817
:10245000FEF7F1FC10BD704710B50120FEF7ADFB93
:1024600010BD10B50220FEF7A8FB10BD10B55D48E9
:10247000FEF7F1FC53480078032810D15948C07882
:10248000092803D100205749C87004E05548C07896
:10249000401C5449C8705348FEF79BFC12E0494861
:1024A000007802280ED14F48C07818B909204D494C
:1024B000C87004E04B48C078401E4A49C87049487B
:1024C000FEF787FC10BD10B54648FEF7D9FC3D4825
:1024D0000078032810D143488078092803D10020D0
:1024E0004049887004E03F488078401C3D4988702E
:1024F0003C48FEF76EFC12E03248007802280ED10C
:102500003848807818B909203649887004E0354881
:102510008078401E334988703248FEF75AFC10BD5F
:1025200010B53048FEF7C1FC26480078032810D1CA
:102530002C484078092803D100202A49487004E03B
:1025400028484078401C274948702648FEF741FC3F
:1025500012E01C48007802280ED12248407818B9B1
:1025600009202049487004E01E484078401E1D495B
:1025700048701C48FEF72DFC10BD10B51948FEF739
:10258000A9FC10480078032810D1164800780928C3
:1025900003D100201349087004E012480078401C61
:1025A000104908700F48FEF714FC25E00548007834
:1025B000022821D10B480078B0B9092009490870D8
:1025C00017E000003D0000202700002074040020D8
:1025D00044000020450000207F000020470000202C
:1025E0004600002048000020F7480078401EF649C9
:1025F0000870F548FEF7EDFB10BD10B5F348FEF787
:102600002AFCF3480078032810D1F048C078092844
:1026100003D10020ED49C87004E0EC48C078401CAC
:10262000EA49C870E948FEF7D4FB12E0E8480078B0
:1026300002280ED1E548C07818B90920E349C870CE
:1026400004E0E248C078401EE049C870DF48FEF769
:10265000C0FB10BD10B5DD48FEF712FCDC48007869
:10266000032810D1D9488078092803D10020D74900
:10267000887004E0D5488078401CD4498870D348DD
:10268000FEF7A7FB12E0D248007802280ED1CF480F
:10269000807818B90920CD49887004E0CB4880784B
:1026A000401ECA498870C948FEF793FB10BD10B59B
:1026B000C648FEF7FAFBC6480078032810D1C34885
:1026C0004078092803D10020C049487004E0BF4881
:1026D0004078401CBD494870BC48FEF77AFB12E0C8
:1026E000BB48007802280ED1B848407818B90920B4
:1026F000B649487004E0B5484078401EB349487078
:10270000B248FEF766FB10BD10B5B048FEF7E2FB1D
:10271000AF480078032810D1AC480078092803D1CD
:102720000020AA49087004E0A8480078401CA74986
:102730000870A648FEF74DFB12E0A5480078022875
:102740000ED1A248007818B90920A049087004E009
:102750009E480078401E9D4908709C48FEF739FB52
:1027600010BD10B59B48FEF776FB9948007803280A
:1027700010D19848C078092803D100209549C87025
:1027800004E09448C078401C9249C8709148FEF714
:1027900020FB12E08E48007802280ED18D48C078C8
:1027A00018B909208B49C87004E08A48C078401ED7
:1027B0008849C8708748FEF70CFB10BD10B58548E6
:1027C000FEF75EFB82480078032810D181488078AC
:1027D000092803D100207F49887004E07D48807873
:1027E000401C7C4988707B48FEF7F3FA12E0784879
:1027F000007802280ED17748807818B909207549E9
:10280000887004E073488078401E7249887071486F
:10281000FEF7DFFA10BD10B56E48FEF746FB6C48B8
:102820000078032810D16B484078092803D1002094
:102830006849487004E067484078401C6549487022
:102840006448FEF7C6FA12E06148007802280ED10B
:102850006048407818B909205E49487004E05D4836
:102860004078401E5B4948705A48FEF7B2FA10BDE6
:1028700010B55848FEF72EFB55480078032810D1B4
:1028800054480078092803D100205249087004E018
:1028900050480078401C4F4908704E48FEF799FA9E
:1028A00012E04B48007802280ED14A48007818B947
:1028B00009204849087004E046480078401E454910
:1028C00008704448FEF785FA10BD10B54248FEF77F
:1028D000C2FA3F480078032810D13F48C078092841
:1028E00003D100203C49C87004E03B48C078401C3C
:1028F0003949C8703848FEF76CFA12E0344800785D
:1029000002280ED13448C07818B909203249C8705D
:1029100004E03148C078401E2F49C8702E48FEF7A9
:1029200058FA10BD10B52C48FEF7AAFA28480078CE
:10293000032810D128488078092803D1002026498F
:10294000887004E024488078401C2349887022481D
:10295000FEF73FFA12E01E48007802280ED11E480A
:10296000807818B909201C49887004E01A488078DA
:10297000401E194988701848FEF72BFA10BD10B593
:102980001548FEF792FA12480078032810D1124831
:102990004078092803D100200F49487004E00E4810
:1029A0004078401C0C4948700B48FEF712FA1DE0B5
:1029B00007480078022819D10748407870B90920E3
:1029C000054948700FE00000480000205200002038
:1029D0003D0000205C00002066000020F7484078A1
:1029E000401EF6494870F548FEF7F3F910BD10B5E2
:1029F000F248FEF76FFAF2480078032810D1EF484A
:102A00000078092803D10020EC49087004E0EB4865
:102A10000078401CE9490870E848FEF7DAF912E04E
:102A2000E748007802280ED1E448007818B9092058
:102A3000E249087004E0E1480078401EDF49087070
:102A4000DE48FEF7C6F910BD10B5DE48FEF703FA02
:102A5000DB480078032810D1DA48C078092803D170
:102A60000020D849C87004E0D648C078401CD54939
:102A7000C870D448FEF7ADF912E0D14800780228BA
:102A80000ED1D048C07818B90920CE49C87004E0EA
:102A9000CC48C078401ECB49C870CA48FEF799F9A7
:102AA00010BD10B5C748FEF7EBF9C54800780328FC
:102AB00010D1C4488078092803D10020C14988700A
:102AC00004E0C0488078401CBE498870BD48FEF7CD
:102AD00080F912E0BA48007802280ED1B94880780F
:102AE00018B90920B749887004E0B6488078401EBC
:102AF000B4498870B348FEF76CF910BD10B5B14801
:102B0000FEF7D3F9AE480078032810D1AD484078DD
:102B1000092803D10020AB49487004E0A948407857
:102B2000401CA8494870A748FEF753F912E0A44892
:102B3000007802280ED1A348407818B90920A1498D
:102B4000487004E09F484078401E9E4948709D4868
:102B5000FEF73FF910BD10B59A48FEF7BBF998484B
:102B60000078032810D197480078092803D1002065
:102B70009449087004E093480078401C914908701B
:102B80009048FEF726F912E08D48007802280ED111
:102B90008C48007818B909208A49087004E08948EF
:102BA0000078401E874908708648FEF712F910BD6C
:102BB00010B58548FEF74FF981480078032810D1F9
:102BC0008148C078092803D100207F49C87004E0FB
:102BD0007D48C078401C7C49C8707B48FEF7F9F8F6
:102BE00012E07748007802280ED17748C07818B9EB
:102BF00009207549C87004E07348C078401E7249C6
:102C0000C8707148FEF7E5F810BD10B56E48FEF7C4
:102C100037F96B480078032810D16B488078092871
:102C200003D100206849887004E067488078401C20
:102C3000654988706448FEF7CCF812E06048007877
:102C400002280ED16048807818B909205E49887042
:102C500004E05D488078401E5B4988705A48FEF762
:102C6000B8F810BD10B55848FEF71FF95448007861
:102C7000032810D154484078092803D10020524934
:102C8000487004E050484078401C4F4948704E4816
:102C9000FEF79FF812E04A48007802280ED14A4811
:102CA000407818B909204849487004E046484078FF
:102CB000401E454948704448FEF78BF810BD10B5DA
:102CC0004148FEF707F93E480078032810D13E48F6
:102CD0000078092803D100203B49087004E03A48F5
:102CE0000078401C384908703748FEF772F812E047
:102CF0003348007802280ED13348007818B90920EB
:102D00003149087004E030480078401E2E490870B0
:102D10002D48FEF75EF810BD10B52C48FEF79BF865
:102D200027480078032810D12848C078092803D103
:102D300000202649C87004E02448C078401C23497C
:102D4000C8702248FEF745F812E01D4800780228B6
:102D50000ED11E48C07818B909201C49C87004E07B
:102D60001A48C078401E1949C8701848FEF731F853
:102D700010BD10B51548FEF783F8114800780328F8
:102D800010D112488078092803D100200F4988709B
:102D900004E00E488078401C0C4988700B48FEF710
:102DA00018F81DE006480078022819D107488078F5
:102DB00070B90920054988700FE000006600002006
:102DC0003D0000204D000020570000206100002041
:102DD000F9488078401EF8498870F748FDF7F9FFF8
:102DE00010BD10B5F448FEF760F8F44800780328E9
:102DF00010D1F1484078092803D10020EE494870ED
:102E000004E0ED484078401CEB494870EA48FDF783
:102E1000E0FF12E0E948007802280ED1E648407849
:102E200018B90920E449487004E0E3484078401E9E
:102E3000E1494870E048FDF7CCFF10BD10B5DE4811
:102E4000FEF748F8DD480078032810D1DA4800780A
:102E5000092803D10020D849087004E0D64800783A
:102E6000401CD5490870D448FDF7B3FF12E0D348A1
:102E7000007802280ED1D048007818B90920CE4930
:102E8000087004E0CC480078401ECB490870CA485E
:102E9000FDF79FFF10BD10B5C948FDF7DCFFC7481F
:102EA0000078032810D1C648C078092803D1002033
:102EB000C349C87004E0C248C078401CC049C8700B
:102EC000BF48FDF786FF12E0BC48007802280ED10B
:102ED000BB48C07818B90920B949C87004E0B8489F
:102EE000C078401EB649C870B548FDF772FF10BDE6
:102EF00010B5B348FDF7C4FFB0480078032810D1DF
:102F0000AF488078092803D10020AD49887004E0DB
:102F1000AB488078401CAA498870A948FDF759FF42
:102F200012E0A648007802280ED1A548807818B98A
:102F30000920A349887004E0A1488078401EA04978
:102F400088709F48FDF745FF10BD10B59C48FDF700
:102F5000ACFF9A480078032810D199484078092896
:102F600003D100209649487004E095484078401C01
:102F7000934948709248FDF72CFF12E08F48007883
:102F800002280ED18E48407818B909208C49487023
:102F900004E08B484078401E894948708848FDF716
:102FA00018FF10BD10B58648FDF794FF83480078E0
:102FB000032810D182480078092803D100208049D5
:102FC000087004E07E480078401C7D4908707C4809
:102FD000FDF7FFFE12E07948007802280ED178480C
:102FE000007818B909207649087004E07448007820
:102FF000401E734908707248FDF7EBFE10BD10B516
:103000006E48007803280BD16E480078012803D160
:1030100002206C49087012E001206A4908700EE035
:103020006648007802280AD166480078012803D152
:1030300002206449087002E001206249087061487A
:103040000078FDF7F8FE10BD10B55C480078032845
:103050000DD15D480078632803D100205A490870DB
:1030600015E059480078401C574908700FE0534854
:10307000007802280BD15448007818B963205249CF
:10308000087004E050480078401E4F4908704E48D0
:103090000078FDF7B9FE10BD10B548480078032848
:1030A0000DD14A480078072803D10020474908700D
:1030B00015E046480078401C444908700FE03F483E
:1030C000007802280BD14148007818B907203F4901
:1030D000087004E03D480078401E3C4908703B48B9
:1030E0000078FDF7A8FE10BD10B53448007803281D
:1030F0000DD137480078092803D1012034490870E0
:1031000016E033480078401C3149087010E02B4825
:10311000007802280CD12E480078012803D109201C
:103120002B49087004E02A480078401E284908709E
:1031300027480078FDF77FFE10BD10B51F480078C6
:1031400003280BD123480078012803D1002021490E
:10315000087012E001201F4908700EE0174800783F
:1031600002280AD11B480078012803D10020194900
:10317000087002E001201749087016480078FDF732
:103180005AFE10BD10B50D480078032826D112480C
:103190000078092803D101200F49087004E00E4887
:1031A0000078401C0C4908700B49097801EB41017B
:1031B000C8B200F02AFF29E0610000203D00002095
:1031C0006B000020700000207100002072000020C1
:1031D000730000207400002075000020E148007892
:1031E000022813D1E0480078012803D10920DE49E4
:1031F000087004E0DC480078401EDB490870DA49BA
:10320000097801EB4101C8B200F0FFFED648007812
:10321000FDF711FE10BD10B5D248007803280DD17E
:10322000D2480078072803D10120D049087016E061
:10323000CE480078401CCD49087010E0C94800789D
:1032400002280CD1C9480078012803D10720C749BA
:10325000087004E0C5480078401EC4490870C3489F
:103260000078FDF7E8FD10BD10B5BE4800780328D2
:103270000BD1BF480078012803D10020BC49087059
:1032800012E00120BA4908700EE0B6480078022822
:103290000AD1B7480078012803D10020B44908704A
:1032A00002E00120B2490870B1480078FDF7C3FD83
:1032B00010BD10B5AB48007803280BD1AD4800789D
:1032C000012803D10020AB49087012E00120A94970
:1032D00008700EE0A348007802280AD1A5480078BB
:1032E000012803D10020A349087002E00120A14970
:1032F0000870A0480078FDF79EFD10BD10B59948F4
:10330000007803280BD19C480078012803D10020C5
:103310009949087012E00120974908700EE0914821
:10332000007802280AD194480078012803D10020AF
:103330009149087002E001208F4908708E4800789A
:10334000FDF779FD10BD10B58648007803280DD132
:103350008A4800780B2803D100208849087015E0BE
:1033600086480078401C854908700FE07D48007849
:1033700002280BD18148007818B90B207F490870CA
:1033800004E07E480078401E7C4908707B48007845
:10339000FDF73AFD10BD10B57248007803280DD135
:1033A000774800780B2803D100207549087015E094
:1033B00073480078401C724908700FE06948007833
:1033C00002280BD16E48007818B90B206C490870A0
:1033D00004E06B480078401E69490870684800782E
:1033E000FDF712FD10BD10B55E48007803280DD121
:1033F000644800780B2803D100206249087015E06A
:1034000060480078401C5F4908700FE0554800781C
:1034100002280BD15B48007818B90B205949087075
:1034200004E058480078401E564908705548007816
:10343000FDF7EAFC10BD10B54A48007803280DD10D
:10344000514800780B2803D100204F49087015E03F
:103450004D480078401C4C4908700FE04148007806
:1034600002280BD14848007818B90B20464908704B
:1034700004E045480078401E4349087042480078FF
:10348000FDF7C2FC10BD10B53648007803280BD1FB
:103490003E480078012803D102203C49087012E020
:1034A00001203A4908700EE02E48007802280AD11F
:1034B00036480078012803D102203449087002E020
:1034C00001203249087031480078FDF7B4FC10BD86
:1034D00010B52448007803280DD12D4800782628FF
:1034E00003D100202A49087015E029480078401CC3
:1034F000274908700FE01B48007802280BD12448A8
:10350000007818B926202249087004E02048007885
:10351000401E1F4908701E4909784231C8B2FEF7A3
:1035200056FC1B480078FDF76FFC10BD10B50D4828
:103530000078032802D100F0ABFC0CE009480078C9
:10354000022802D100F091FC05E00648007804282A
:1035500001D100F083FC0F48007810B900200E491B
:10356000087010BD3D00002075000020760000208E
:103570007800002077000020790000207A000020E9
:103580007B0000207C0000207D0000207E000020C9
:103590007F000020400100203C0000204A78FB4BC7
:1035A0009A5CA0F10300C2708A789A5C8270CA7833
:1035B0009A5C42700A799A5C00F8032BCA7902F08F
:1035C0000F02A2F10202072A42D2DFE802F0041041
:1035D000234141333A0010F8032D42F0800202707B
:1035E000427842F08002427000F1030031E010F8AE
:1035F000032D42F080020270427842F08002427055
:10360000827842F080028270C27842F0800200F834
:10361000032F1EE010F8032D42F080020270427862
:1036200042F080024270827842F08002827000F1A3
:1036300003000EE010F8022C42F0800200F8022C89
:1036400007E010F8032C42F0800200F8032C00E0A1
:1036500000BF00BF704710B5FDF79BFACC4890F84B
:10366000580020B1CA495831CA48FFF797FFC848E7
:1036700090F8500028B1C6495031C648001FFFF7E6
:103680008DFFC34890F8480028B1C1494831C1486E
:103690000838FFF783FFBE4890F8400028B1BC49C6
:1036A0004031BC480C38FFF779FFB94890F8380032
:1036B00028B1B7493831B7481038FFF76FFFB44821
:1036C00090F8300028B1B2493031B2481438FFF7D1
:1036D00065FFAF4890F8280028B1AD492831AD48C2
:1036E0001838FFF75BFFAA4890F8200028B1A849D6
:1036F0002031A8481C38FFF751FFA548007E28B1AB
:10370000A3491831A3482038FFF748FFA048007CA0
:1037100028B19F4910319F482438FFF73FFF9C484C
:10372000007A28B19A4908319A482838FFF736FFBD
:103730009748007820B1964996482C38FFF72EFF1D
:10374000FDF7B2F910BD81680160C1684160704742
:10375000024691480378002106E012F8310008B9CA
:1037600008467047481CC1B28B4800788142F4DBA0
:103770001846F6E72DE9F04106468548FFF7E8FFD1
:1037800005462F4600240CE0D6F80100804901EBE5
:10379000C401D1F80110884201D1E5B203E0601CF8
:1037A00044B2AC42F0DB00BFBD4211D06CB206E0C7
:1037B000774901EBC400FFF7C6FF601C44B2781ED6
:1037C000A042F5DC724800EBC400002101604160BA
:1037D000FFF741FFBDE8F08170B505462846FFF7C9
:1037E000B7FF0646002405E005EBC400FFF7ABFF7A
:1037F000601CC4B2701EA042F6DC05EBC4000021C0
:103800000160416070BD70B505460C462046FFF76B
:103810009FFF06466048007886420CD12046FFF79D
:10382000DBFF5D480078401E04EBC00029680160A2
:103830006968416005E004EBC600296801606968B9
:10384000416070BD016881604168C160704770B5BA
:1038500005462846FFF77CFF06464F48007886421B
:1038600001D1701EC6B2701E44B205E005EBC40063
:10387000FFF7E8FF601E44B2002CF7DA0020286052
:10388000686070BD70B505460C462046FFF7DFFF47
:10389000286820606868606070BD2DE9F0410646C8
:1038A0003B48FFF755FF05462F4600240CE0D6F8AD
:1038B0000100374901EBC401D1F80110884201D160
:1038C000E5B203E0601C44B2AC42F0DB00BFBD4295
:1038D0001CD032480078012816D1681EC5B26CB2DF
:1038E00006E02B4901EBC400FFF7ACFF601E44B2B9
:1038F000002CF6DA26483168016071684160FFF7F4
:10390000AAFE0120BDE8F0810120FBE70020F9E7D5
:10391000234A1278012A05D101F00F02214B9A5C4B
:10392000027004E001F00F021F4B9A5C02707047B6
:103930007FB504460D46089E012E02D1332020702B
:1039400008E0022E02D13420207003E029462046F0
:10395000FFF7DEFF0298C4F80100280C6071280A06
:10396000A071E5717FBDC1F303524270C1F3034200
:103970008270C1F30332C270C1F3032202710A0CD8
:1039800042710A0A8271C17170470000866700089F
:10399000400100203F010020710000207000002045
:1039A0007E00002091000020A1000020014611F0BF
:1039B000F00F04D1F6480078B0EB115F06D0F44860
:1039C00000780B2804D111F0F00F01D101207047CD
:1039D0000020FCE730B585B00025EE4804680020E3
:1039E000ED4908702046FFF7E1FF78B3214601A8B2
:1039F000FFF78EFF214601A8FFF7B5FF9DF80400F1
:103A0000332824D09DF8040008B301A8FFF745FF30
:103A1000002857D1E1480078012810D1E04901A8D9
:103A2000FFF730FFDF48007804F00F0300909DF8A7
:103A3000042001A9DC48007800F068FC03E0D849C4
:103A400001A8FFF7E0FEFFF706FE3BE003E001A858
:103A5000FFF790FE36E0214603A8FDF7E9FE054694
:103A600065B30095214601A8DDE90323FFF760FF58
:103A70009DF80400332822D09DF80400F8B101A875
:103A8000FFF70BFFD0B9C5480078012810D1C44911
:103A900001A8FFF7F7FEC348007804F00F03009079
:103AA0009DF8042001A9C048007800F02FFC03E035
:103AB000BB4901A8FFF7A7FEFFF7CDFD02E001A873
:103AC000FFF758FE05B030BDB8480078012808D18E
:103AD000B7480078AF49097801F00F01B54A505452
:103AE00007E0B3480078AB49097801F00F01B24A0A
:103AF000505470471CB5B14800680090A548006854
:103B000001906846FDF788FC28B9AC48FEF734F907
:103B10004420AB4908701CBD1CB5AA480068009041
:103B20009C48006801906846FDF730FC28B9A5481C
:103B3000FEF722F94020A24908701CBD1CB5A2481E
:103B4000006800909348006801906846FDF7C2FB4A
:103B500028B99D48FEF710F93C20994908701CBD12
:103B60001CB59A48006800908A4800680190684631
:103B7000FDF76AFB28B99548FEF7FEF83820904912
:103B800008701CBD30B585B000258248046800204F
:103B9000814908702046FFF709FF68B3214601A854
:103BA000FFF7B6FE214601A8FFF7DDFE9DF80400F1
:103BB00033281DD09DF80400D0B101A8FFF76DFE99
:103BC00000284AD1764901A8FFF75CFEFFF743FDC4
:103BD0007448007804F00F0300909DF8042001A9B8
:103BE0007148007800F092FB6A207549087034E053
:103BF00001A8FFF7BFFD30E0214603A8FDF718FE3E
:103C0000054635B30095214601A8DDE90323FFF7FA
:103C10008FFE9DF8040033281CD09DF80400C8B125
:103C200001A8FFF73AFEA0B95D4901A8FFF72AFEF7
:103C3000FFF711FD5B48007804F00F0300909DF83A
:103C4000042001A95848007800F060FB6A205C4914
:103C5000087002E001A8FFF78DFD05B030BD1CB56E
:103C60004C48006800287CD0594800780028FAD0D9
:103C700058480078002874DD4648046821466846A4
:103C8000FDF7F0FD58B101205349087004F00F0012
:103C9000524908704F48007851490870D2E05148A5
:103CA0000068A042FAD04F480460454800780028D8
:103CB00047D043480078382843D041480078392815
:103CC0003FD03F4800783A283BD03D4800783B2819
:103CD00037D03B4800783C2833D0394800783D281D
:103CE0002FD0374800783E282BD0354800783F2821
:103CF00027D033480078402823D031480078412825
:103D00001FD02F48007842281BD02D480078432828
:103D100017D02B480078442813D02948007845282C
:103D20000FD02748007846280BD025480078472830
:103D300007D023480078672803D0214800786A28F4
:103D400070D11F480078402866D014DC3B285AD038
:103D500008DCE0B1382853D0392852D03A286FD146
:103D600050E075E03C2851D03D2850D03E284FD03F
:103D70003F2865D14DE0452856D035DC41284CD050
:103D800042284BD043284AD0442859D14BE034E054
:103D90007A000020100000208D000020700000201C
:103DA0004001002073000020720000207E000020EF
:103DB0007F00002091000020A1000020660000206C
:103DC0003C0000205C000020520000204800002041
:103DD00025000020260000208E0000208F000020FB
:103DE000900000208400002046281ED047281DD0C7
:103DF00067281ED06A2823D11EE0FFF7C3FE20E00B
:103E000000BF00BF00BFFFF7ABFE1AE000BF00BF5E
:103E100000BFFFF793FE14E000BF00BF00BFFFF735
:103E20007BFE0EE00EE000BF00BF00BFFFF762FEAA
:103E300007E0FFF749FE04E0FFF7CCFD01E0FFE7F4
:103E400000BF00BF00204E4908704E49086004E0E2
:103E500000204B4908704B4908601CBD10B54A480A
:103E6000FFF7BAFCFFF7F7FB10BD1CB50020009070
:103E70000190454801680091406801904248FFF771
:103E8000ABFC41496846FFF7BEFCFFF7E4FB1CBDF5
:103E90001CB50020009001903B48FFF759FC0446F8
:103EA000601E394901EBC000016800914068019033
:103EB000601E354901EBC0000021016041603249BC
:103EC0006846FFF7DFFCFFF7C6FB1CBD10B52F48A7
:103ED00000782F49097888420BDA2E4800782B4960
:103EE0000978884205DD2A48007810B12748007813
:103EF00058B92748007868B92448007850B1254857
:103F0000007822490978884204DDFFF7A7FF0020E6
:103F10002049087010BD10B51D4800781B4909786C
:103F200088420BDA1B48007819490978884205DD78
:103F30001648007810B11648007858B91348007830
:103F4000E0B913480078C8B11248007810490978E0
:103F5000884213DDFFF789FF00200E4908700E48E4
:103F6000007801280AD10848C07900F00F030648FC
:103F7000027801460948007800F083F910BD00007E
:103F800025000020100000204001002044000020F7
:103F9000450000208D0000207400002072000020E9
:103FA00008B50121042001F038F84FF40060ADF8A5
:103FB000000048208DF803006946F14800F004FD38
:103FC0007E20FCF7A5FA0320FCF7A2FA3320FCF7C9
:103FD0009FFA0420FCF79CFAEF20FCF799FA08BD41
:103FE00010B504467E20FCF793FA0420FCF790FA03
:103FF0004120FCF78DFA0020FCF78AFA2046FCF7F6
:1040000087FAEF20FCF784FA10BD10B504467E2035
:10401000FCF77EFA0320FCF77BFA3120FCF778FAF4
:104020002046FCF775FAEF20FCF772FA10BD70B568
:1040300005460C466078092812DC012D05DC617804
:10404000491CC8B2FFF7CCFF36E0607888B36178CE
:10405000491CC8B2FFF7C4FF1F20FFF7C1FF2BE0C8
:1040600060780F2808DC60780A2805DB6178173152
:10407000C8B2FFF7B5FF1FE060781038052819D2E5
:10408000DFE800F003070B0F13002820FFF7A8FF5D
:1040900011E02C20FFF7A4FF0DE02F20FFF7A0FF79
:1040A00009E03020FFF79CFF05E03520FFF798FF7F
:1040B00001E001E000BF00BF70BD70B505460C46D1
:1040C0004020FFF78DFF6078092805DC6178491CE6
:1040D000C8B2FFF785FF2AE060780F2808DC607817
:1040E0000A2805DB61781731C8B2FFF779FF1EE0B7
:1040F00060781038052818D2DFE800F003070B0FAE
:1041000013002820FFF76CFF10E02C20FFF768FF5A
:104110000CE02F20FFF764FF08E03020FFF760FF7E
:1041200004E03520FFF75CFF00E000BF00BF412046
:10413000FFF756FF70BD70B505460C46012D05DC36
:10414000A178491CC8B2FFF74BFF0CE0A07850B132
:10415000A178491CC8B2FFF743FF1D20FFF740FFBD
:104160001E20FFF73DFF70BD70B505460C46012DC2
:1041700005DCE178491CC8B2FFF732FF15E0E078B2
:1041800098B1E07801280BD1207918B90B20FFF7FE
:1041900027FF0AE021790B31C8B2FFF721FF04E0C5
:1041A000E1781331C8B2FFF71BFF70BD70B505464B
:1041B0000C46012D05DC2179491CC8B2FFF710FF20
:1041C00009E0207938B1E078012804D02179491C30
:1041D000C8B2FFF705FF70BD10B50446042C06D029
:1041E000052C08D0062C0AD0072C10D10BE03E205D
:1041F000FFF7F6FE0CE03C20FFF7F2FE08E03D2062
:10420000FFF7EEFE04E06820FFF7EAFE00E000BFE3
:1042100000BF10BD70B504460D46032C0CDC2946CA
:104220002046FFF788FF29462046FFF79DFF2946D5
:104230002046FFF7BBFF02E02046FFF7CDFF70BD31
:1042400010B50446322C05DA04F14201C8B2FFF77A
:10425000C7FE04E0342C02D16820FFF7C1FE10BD78
:1042600070B505460E461446342C01D0262C03D1D9
:104270006820FFF7B5FE03E031462846FFF7CAFF86
:1042800070BD2DE9F04104460F4616461D46032C2D
:1042900035DC3E20FFF7A4FE0F2D02D13F20FFF7B3
:1042A0009FFE3848007828B136480078012804D1AC
:1042B000022E02DB6920FFF793FE0F2D03D0394653
:1042C0002046FFF7B4FE39462046FFF7A3FF2D48EE
:1042D0000078012804D1012C02DC6920FFF780FE60
:1042E0000F2D04D139462046FFF7E7FE0CE0012CE4
:1042F0000AD0032C08D03046FFF7A2FF04E0324674
:1043000039462046FFF7ACFFBDE8F0812DE9F041CA
:1043100004460D4616461F46DDF81880B8F1010F19
:104320000BDD194880F80080C66007744470801C5B
:10433000296801606968416005E03B4632462946CC
:104340002046FFF79EFFBDE8F08110B50E480078CB
:10435000002814DD0D48007888B10D48006870B160
:1043600000200A49087008490B7C0A7B4878891CA0
:10437000FFF787FF04480078401E0349087010BD0E
:10438000000801407800002060040020B2000020F6
:104390002C01214208B503208DF8000001208DF882
:1043A000010000208DF8020001208DF8030068460E
:1043B00000F051F908BD10B501214FF0C05000F0D8
:1043C00039FE012000F057FC00F0AEF9012000F0AA
:1043D00095FD00BF412000F0EEFC0028FAD04FF41C
:1043E000807000F0A4FD012000F0A7FD00F0E4FEC5
:1043F00000F0DAFE0121084600F07AFE00F0D4FE5B
:1044000047F6FF7000F0AAFE00F0CEFE10BD10B51A
:104410000446042000F0BDF9A0F52541A5390AD0D5
:10442000FFF7C9FF2046FDF726FD4AF2A5510420FB
:1044300000F0A3F916E07B2000F0BDFC10B97A2053
:1044400000F0B9FC01214FF0C05000F0F3FD012055
:1044500000F011FC00F0B0FE0121084600F048FE1B
:1044600000F0A2FE00F017FE10BD0000F0B58DB008
:1044700004463022714901A802F0C8F86069451E5F
:10448000642195FBF1F12846EA1705EB9272C1EB26
:10449000A2014FF4C87295FBF2F28F186069C11740
:1044A00000EB91718910B0EB810112D16422616936
:1044B00091FBF2F302FB131131B99200616991FB98
:1044C000F2F302FB131121B92169022901DD012652
:1044D00000E0002640F26D1005FB00712069401ECF
:1044E00001AA52F820000844E16808440644072065
:1044F00096FBF0F100FB1160A0610DB0F0BD10B5AE
:1045000001460869801E0861002805DC08690C3036
:1045100008614869401E48616423486990FBF3F0D4
:104520004A69D31702EB9373C0EBA3004FF4C8742E
:1045300092FBF4F3034440F26F14086960430C24C7
:1045400090FBF4F01844CB68034440F26D1402FB76
:1045500004303B4BC01A00EB40008B6803EBC000FB
:10456000C0EB00104B6803EB8000C0EB00100B6841
:1045700003EB8000A0F5E14010BD2DE9F0410746B6
:104580000C463048B7FBF0F6B7FBF0F100FB1178B2
:104590004FF4616098FBF0F0A0604FF4616098FB0D
:1045A000F0F100FB11803C2190FBF1F060604FF4D2
:1045B000616098FBF0F100FB11803C2190FBF1F26F
:1045C00001FB1200206040F2B27509E015F0030F04
:1045D00002D14FF4B77001E040F26D10361A6D1C35
:1045E00015F0030F02D14FF4B77001E040F26D10E7
:1045F000B042EBDD65616069C11700EB9171891014
:10460000B0EB810102D11D200F494860012505E072
:10461000681E0D4951F82000361A6D1C681E0A49A3
:1046200051F82000B042F3DD1C2048602561701C69
:10463000E0602046FFF71AFFBDE8F081BC6C00087F
:104640008BFA0A0080510100B40000203149014377
:10465000314A1160704770B5002100230F22C478E1
:104660000CB32D4C246804F4E064C4F5E064210A22
:10467000C1F10403CA40447804FA03F18478144079
:1046800021430901254C0678A155047804F01F0543
:104690000124AC4005786D114FF0E02606EB85054E
:1046A000C5F8004109E0047804F01F050124AC407E
:1046B0001B4D0678761145F8264070BD194A0A4010
:1046C0000243154B1B1F1A60704739B1124A121D65
:1046D00012680243104B1B1D1A6006E00E4A121DA1
:1046E000126882430C4B1B1D1A607047042808D1C6
:1046F0004FF0E021096941F004014FF0E02211611F
:1047000007E04FF0E021096921F004014FF0E022B9
:10471000116170470000FA050CED00E000E400E0D4
:1047200080E100E080FFFF1F10B5012000F0A9FC30
:10473000002000F0A6FC10BD2A49086070472949F6
:10474000091F086070472749843108607047014697
:104750000020254A10884FF67F4210400843224A25
:1047600010807047014600201F4A10884FF6807263
:10477000104008431C4A1080704708B50022009280
:10478000194A2C3A0092009A02440092009A116051
:1047900008BD08B501460020009013482C38009051
:1047A0000098084400900098008808BD0D489C308F
:1047B0000068C0B270470C480830008840F0010023
:1047C00009490831088070470648A0300068C0B227
:1047D000704705480830008840F00200024908315F
:1047E0000880704704860D422C6C0040002044492C
:1047F0000860091D0860091D0860091D086041481E
:104800003F4914310860704700213D498279002AF0
:104810003AD00A46126803689A430B461A600A1D8A
:10482000126803689A430B1D1A60027911440A68E2
:1048300003681A430A60324A0832126803689A43CE
:104840002F4B08331A601A1D126803689A432C4BC9
:104850000C331A604279102A0ED11A1F12680368AD
:104860001A43274B08331A601A1D126803681A434B
:10487000234B0C331A600DE02149427911440A6838
:1048800003681A430A6005E0027911440A68036864
:104890009A430A6070470021016001710C21417147
:1048A0000021817170471649103109680143144A8B
:1048B00010321160704701460020114A143212680C
:1048C0000A4201D0012000E0002070470C49143159
:1048D00008607047014600200022094B1B6803EA6C
:1048E0000102074B14331B680B4202D00AB10120AE
:1048F00000E0002070470249143108607047000052
:1049000000040140FFFF0F0010B50446CA4884426E
:1049100008D10121042000F09AFB0021042000F0BE
:1049200096FB46E0C548844208D10121082000F0EA
:104930008EFB0021082000F08AFB3AE0C048844248
:1049400008D10121102000F082FB0021102000F08E
:104950007EFB2EE0BB48844208D10121202000F0DC
:1049600076FB0021202000F072FB22E0B648844252
:1049700008D10121402000F06AFB0021402000F016
:1049800066FB16E0B148844208D10121802000F086
:104990005EFB0021802000F05AFB0AE0AC48844214
:1049A00007D10121801500F052FB0021A01500F075
:1049B0004EFB10BD10B50121084600F048FB002158
:1049C000012000F044FB10BD2DE9F0410246002516
:1049D0000026002000230024002791F803C00CF0DB
:1049E0000F0591F803C01CF0100F03D091F802C01E
:1049F0004CEA050591F800C0BCF1000F31D01468F5
:104A000000202BE04FF0010C0CFA00F3B1F800C0CD
:104A10000CEA03069E4220D183004FF00F0C0CFAE3
:104A200003F7BC4305FA03FC4CEA040491F803C005
:104A3000BCF1280F06D14FF0010C0CFA00FCC2F8B3
:104A400014C00AE091F803C0BCF1480F05D14FF043
:104A5000010C0CFA00FCC2F810C0401C0828D1D38D
:104A60001460B1F800C0BCF1FF0F34DD54680020C1
:104A70002EE000F1080C4FF0010808FA0CF3B1F831
:104A800000C00CEA03069E4221D183004FF00F0CB8
:104A90000CFA03F7BC4305FA03FC4CEA040491F852
:104AA00003C0BCF1280F05D100F1080C08FA0CF87E
:104AB000C2F8148091F803C0BCF1480F07D100F18F
:104AC000080C4FF0010808FA0CF8C2F81080401CDE
:104AD0000828CED35460BDE8F0814FF6FF71018005
:104AE000022181700421C170704702460020936842
:104AF0000B4201D0012000E0002070470146886889
:104B000080B2704702460020D3680B4201D00120DA
:104B100000E0002070470146C86880B2704701611C
:104B20007047416170470AB1016100E0416170471F
:104B3000C16070474FF480320A43826181618261B3
:104B400082698269704702460020424B18684FF61E
:104B50008073184040EA021008433E4B18607047CB
:104B60003D49C8617047F0B50A4600230024002182
:104B7000002500F00046B6F1004F02D1354EF16934
:104B800001E0344E7168C0F3034583B200F440166F
:104B9000B6F5401F08D121F070612E4E766826F0E0
:104BA00070662C4F7E6012E000F48016B6F5801F10
:104BB00006D1032606FA05F4A14341F0706106E030
:104BC000460D360103FA06F6B14341F0706122B199
:104BD000460D360103FA06F6314300F00046B6F101
:104BE000004F02D11B4EF16101E01A4E7160F0BD21
:104BF00030B500228B071C0F0F2303FA04F2154B6C
:104C000008338C1053F824309343124C08348D1021
:104C100044F8253023468C1053F824308C07240F99
:104C200000FA04F423430B4C08348D1044F825306B
:104C300030BD0A490860704700080140000C01407F
:104C4000001001400014014000180140001C014008
:104C5000002001400000014000002042DC00204212
:104C600010B50121080700F0FFF900214FF0805036
:104C700000F0FAF910BD2949086270472749086118
:104C8000704701460020264A106820F0E0000843E3
:104C90001060704723490860704710B50246002035
:104CA0001F4B186820F00300104318601E4B1B6850
:104CB00043F004031C4C2360012901D130BF00E004
:104CC00020BF194B1B6823F00403174C236010BD51
:104CD0001348006840F00400114908600846006865
:104CE00040F0020008601048006840F004000E49DF
:104CF000086000BF00BF30BF704701460020084A6F
:104D000052680A4201D0012000E0002070470449A7
:104D1000096841EA8001024A1160704700000E42B2
:104D200000700040A0000E4210ED00E0E448006872
:104D300040F00100E249086008464068E149084047
:104D4000DF49486008460068DF490840DC490860E0
:104D50000846006820F4802008600846406820F477
:104D6000FE0048604FF41F0088600020C862704752
:104D7000D349096821F48031D14A1160114609688C
:104D800021F480211160B0F5803F03D0B0F5802F71
:104D90000ED106E0CA49096841F48031C84A116061
:104DA00007E0C749096841F4A021C54A116000E045
:104DB00000BF00BF704710B501460022002300204D
:104DC0004A11012A02D1BE4C236806E0022A02D110
:104DD000BB4C236A01E0BA4C636A01F01F02012454
:104DE00094401C4201D0012000E0002010BD38B5E5
:104DF000002000900024002500BF3120FFF7DBFFDA
:104E000005460098401C00900098B0F5A06F01D0B6
:104E1000002DF2D03120FFF7CEFF08B1012400E0D1
:104E20000024204638BD01460020A54A106820F025
:104E3000F80040EAC10010607047A449086070475C
:104E4000024600209E4B586820F4741042EA010389
:104E500018439B4B586070479C4908667047024650
:104E60000020974BD86A9A4B184042EA0103184336
:104E7000934BD862704701460020914A506820F059
:104E800003000843506070478D48406800F00C00F4
:104E90007047014600208A4A506820F0F00008431D
:104EA0005060704701460020854A506820F4E06059
:104EB00008435060704701460020814A506820F442
:104EC000605040EAC1005060704729B17C4A527A74
:104ED00002437B4B5A7204E0794A527A8243784B00
:104EE0005A7270477B490860704701460020744A37
:104EF000506820F440400843506070470021764AD3
:104F000011706F4A82F82010012802D0042808D1BD
:104F100003E00121704A117004E005216E4A11700E
:104F200000E000BF00BF70476C49086070476449EB
:104F3000096A0143624A116270476849443908604E
:104F4000704770B5002100230024002200255C4E2C
:104F5000766806F00C0121B1042905D0082921D179
:104F600005E05F4E066020E05D4E06601DE0544E99
:104F7000766806F47013524E766806F48034022682
:104F800006EB93431CB9574E5E43066009E04C4E56
:104F9000F66A06F00F06751C514EB6FBF5F65E4339
:104FA000066002E04E4E066000BF00BF444E7668C9
:104FB00006F0F00109094C4E725C0668D640466066
:104FC0003F4E766806F4E061090A474E725C466817
:104FD000D64086603A4E766806F46051C90A424E61
:104FE000725C4668D640C660354E766806F440412D
:104FF000890B3E4E725CC668B6FBF2F6066170BD68
:1050000029B12F4A526902432D4B5A6104E02C4AC0
:10501000526982432A4B5A61704729B1284A9269E2
:105020000243274B9A6104E0254A92698243244B4C
:105030009A61704729B1224AD2690243204BDA6152
:1050400004E01F4AD26982431D4BDA61704729B1DF
:105050001B4AD26802431A4BDA6004E0184AD2684D
:105060008243174BDA60704729B1154A126902432F
:10507000134B1A6104E0124A12698243104B1A6101
:10508000704716494039086070471049C864704736
:105090000B49C87170470A48406A40F0807008495F
:1050A0004862704701460020054A92680A4201D0D2
:1050B000012000E00020704701498872704700001D
:1050C000001002400000FFF8FFFFF6FE0000424221
:1050D000F0FFFEFFD800424220100240800442420E
:1050E00000127A0000093D00E4000020F4000020D6
:1050F00029B14F4A128802434D4B1A8004E04C4AB2
:10510000128882434A4B1A8070474948001D008824
:1051100040F010004649091D088070474448001DB2
:1051200000884FF6EF7108404149091D088070471B
:1051300000213F481C300188001F008841EA0040E0
:10514000704700B50246FFF7E0FF100C38491831F0
:105150000880091D0A80FFF7E1FF00BD00B5024687
:10516000FFF7D3FFC2F30340314908310880091D1E
:105170000A80FFF7D3FF00BD00B50246FFF7C5FF69
:10518000100C2B4920310880091D0A80FFF7C6FF4B
:1051900000BD00202649103109880907080B244961
:1051A000143109880843704700BF2148001D00885A
:1051B00010F0200FF9D070471D48001D00884FF6F1
:1051C000F77108401A49091D088000BF1848001DE2
:1051D000008810F0080FF9D0704701460020144AEB
:1051E000121D12880A4201D0012000E00020704701
:1051F0000F49091D098881430D4A121D118070470E
:10520000014600200A4A121D12880A40D0B2084AFC
:1052100012880A4202D008B1012000E00020704745
:105220000349091D09888143014A121D11807047F5
:105230000028004010B50446FE48844208D10121F0
:10524000C014FFF704FF0021E014FFF700FFC4E0E3
:10525000B4F1804F08D101210846FFF705FF002176
:105260000120FFF701FFB8E0F348844208D1012193
:105270000220FFF7F9FE00210220FFF7F5FEACE067
:10528000EE48844208D101210420FFF7EDFE002101
:105290000420FFF7E9FEA0E0E948844208D101219B
:1052A0000820FFF7E1FE00210820FFF7DDFE94E073
:1052B000E448844208D101211020FFF7D5FE0021E7
:1052C0001020FFF7D1FE88E0DF48844208D1012199
:1052D0002020FFF7C9FE00212020FFF7C5FE7CE05B
:1052E000DA48844208D101214014FFF7B0FE0021C2
:1052F0006014FFF7ACFE70E0D548844209D101216B
:10530000C804FFF7A4FE00214FF40020FFF79FFE22
:1053100063E0D048844209D101210805FFF797FED8
:1053200000214FF48010FFF792FE56E0CA488442F5
:1053300009D101214805FFF78AFE00214FF4001032
:10534000FFF785FE49E0C548844208D1012140208D
:10535000FFF78AFE00214020FFF786FE3DE0C048AF
:10536000844208D101218020FFF77EFE00218020A9
:10537000FFF77AFE31E0BB48844208D10121801555
:10538000FFF772FE0021A015FFF76EFE25E0B6487C
:10539000844209D101210804FFF759FE00214FF48E
:1053A0008030FFF754FE18E0B048844209D1012153
:1053B0004804FFF74CFE00214FF40030FFF747FE92
:1053C0000BE0AB48844208D101218804FFF73FFE7F
:1053D00000214FF48020FFF73AFE10BD0022028822
:1053E000944B98420ED0994B98420BD0B0F1804F1D
:1053F00008D0914B984205D0904B984202D0904BE8
:10540000984204D14FF68F731A404B881A438D4B44
:10541000984207D08C4B984204D04FF6FF431A4075
:10542000CB881A4302808B8883850B880385814B48
:1054300098420BD0854B984208D08B4B984205D0B0
:105440008A4B984202D08A4B984201D10B7A03864C
:1054500001238382704770B5002400220023058C4D
:105460004FF6FE7635400584028C8388048B4FF618
:105470008F752C40B51E2C400D882C43751E2A407C
:105480000D892A434D882A436A4DA8420BD06F4D9F
:10549000A84208D0744DA84205D0744DA84202D04D
:1054A000734DA84213D14FF6F7752A404D892A4310
:1054B0004FF6FB752A408D882A434FF6FF652B4037
:1054C0004FF6FF552B408D892B43CD892B4383808D
:1054D0000483CD888586028470BD70B500240022C7
:1054E0000023058C4FF6EF7635400584028C8388C7
:1054F000048B48F6FF752C404FF6FF452C400D8875
:105500004FF6FF7606EA05252C434FF6DF752A4055
:105510000D8906EA05152A434D8806EA05152A4332
:10552000444DA84202D0494DA8421DD14FF67F7587
:105530002A404D894FF6FF7606EA05152A434FF6B5
:10554000BF752A408D8806EA05152A434FF6FF35B8
:105550002B404FF2FF752B408D8906EA85052B43C2
:10556000CD8906EA85052B4383800483CD88058792
:10557000028470BD70B5002400220023058C4FF614
:10558000FF6635400584028C8388848B4FF68F75C7
:105590002C404FF6FC752C400D882C434FF6FF55E0
:1055A0002A400D894FF6FF7606EA05252A434D88E5
:1055B00006EA05252A431F4DA84202D0234DA842E2
:1055C0001DD14FF2FF752A404D894FF6FF7606EA4E
:1055D00005252A434FF6FF352A408D8806EA052522
:1055E0002A434EF6FF752B404DF6FF752B408D89F3
:1055F00006EA05152B43CD8906EA05152B43838062
:105600008483CD888587028470BD70B50022002315
:105610000024058C4EF6FF7635400584038C848883
:10562000828B48F6FF752A404FF6FF452A400D88C9
:1056300020E00000002C0140000400400008004071
:10564000000C0040001000400014004000340140F5
:10565000004C01400050014000540140001800403F
:10566000001C004000200040004001400044014078
:10567000004801404FF6FF7606EA05252A434DF61D
:10568000FF752B400D8906EA05352B434D8806EA48
:1056900005352B43FA4DA84202D0FA4DA84208D155
:1056A0004BF6FF752C408D894FF6FF7606EA85157F
:1056B0002C4384808283CD88A0F84050038470BD41
:1056C000828B4FF2FF331A408283828B4FF6FF7337
:1056D00003EA01231A4382837047F0B50C4615464E
:1056E000002200210026078C4EF6FF7C07EA0C07FB
:1056F0000784828B018C4FF6FF7707EA043640F669
:10570000FF473A404FF6FF7707EA05273A434FF63F
:10571000FF7707EA03373A43D94FB8420ED0D94F43
:10572000B8420BD0B0F1804F08D0D74FB84205D067
:10573000D64FB84202D0D64FB84206D14DF6FF77C9
:10574000394046F48057394305E047F6FF57394062
:1057500044F48057394382830184F0BD828B4FF635
:10576000F3731A408283828B0A4382837047F0B5B9
:105770000C461546002200210026078C4FF6FF6CD0
:1057800007EA0C070784828B018C4FF6FF7707EA44
:1057900004264FF60C773A404FF6FF7707EA0317D7
:1057A0002F433A43B64FB8420ED0B64FB8420BD053
:1057B000B0F1804F08D0B44FB84205D0B34FB842D3
:1057C00002D0B34FB84206D14FF6FF57394046F4E6
:1057D0008077394305E04FF2FF57394044F4807732
:1057E000394382830184F0BD028B4FF2FF331A40AC
:1057F0000283028B4FF6FF7303EA01231A430283ED
:105800007047F0B50C461546002200210026078C93
:105810004FF6EF7C07EA0C070784028B018C4FF6EA
:10582000FF7707EA041640F6FF473A404FF6FF7746
:1058300007EA03373A434FF6FF7707EA05273A436B
:105840008F4FB8420ED08F4FB8420BD0B0F1804F7F
:1058500008D08D4FB84205D08C4FB84202D08C4F43
:10586000B84206D14FF6DF77394046F0100739438A
:1058700005E04FF65F77394044F010073943028363
:105880000184F0BD028B4FF6F3731A400283028B42
:105890000A4302837047F0B50C46154600220021EA
:1058A000068C4FF6FE773E400684028B018C4FF645
:1058B0000C7632407E1C06EA03162E433243704EAD
:1058C000B0420ED06F4EB0420BD0B0F1804F08D036
:1058D0006D4EB04205D06D4EB04202D06C4EB0421B
:1058E00006D14FF6FD76314044F00106314305E024
:1058F0004FF6F576314044F00106314302830184CE
:10590000F0BD70B505460C465D4885420ED05D4839
:1059100085420BD0B5F1804F08D05B48854205D059
:105920005A48854202D05A48854200D100E000BF63
:10593000208850B92389A28861882846FFF7ABFFE9
:10594000E1882846FFF79EFF25E0208804280AD139
:105950002389A28861882846FFF753FFE1882846FB
:10596000FFF742FF17E0208808280AD12389A28880
:1059700061882846FFF7FBFEE1882846FFF7EEFE28
:1059800009E02389A28861882846FFF7A6FEE188FE
:105990002846FFF795FE70BD2DE9F04105460C46FF
:1059A00000260127608808B9022600E00026A088AA
:1059B000012801D1022700E001272088A0B923890E
:1059C000A28861882846FFF766FFE1882846FFF72E
:1059D00059FF23893A4631462846FFF712FFE188EE
:1059E0002846FFF701FF13E02389A2886188284633
:1059F000FFF707FFE1882846FFF7F6FE23893A46BE
:105A000031462846FFF747FFE1882846FFF73AFF6F
:105A1000BDE8F0810A884B881A438B881A43CB88EB
:105A20001A430B891A434B891A438B891A43A0F8EE
:105A3000442070474FF6FF71818000210180C180B2
:105A40004180017270470021018041808180C180C6
:105A5000018141818181C1817047002101804180A4
:105A6000012181800021C1800181704700210180D6
:105A700041808180C1800181418181817047000026
:105A8000002C0140003401400004004000080040A8
:105A9000000C004021B1028842F00102028004E0C3
:105AA00002884FF6FE731A400280704731B1B0F899
:105AB000442042F40042A0F8442005E0B0F844201D
:105AC000C2F30E02A0F8442070471AB183890B4339
:105AD000838102E083898B43838170478182704791
